{
  "abi": [
    {
      "inputs": [],
      "name": "owner",
      "outputs": [
        {
          "internalType": "address",
          "name": "",
          "type": "address"
        }
      ],
      "stateMutability": "view",
      "type": "function"
    },
    {
      "inputs": [],
      "name": "pendingOwner",
      "outputs": [
        {
          "internalType": "address",
          "name": "",
          "type": "address"
        }
      ],
      "stateMutability": "view",
      "type": "function"
    }
  ],
  "bytecode": "6080604052348015600f57600080fd5b5060b38061001e6000396000f3fe6080604052348015600f57600080fd5b506004361060325760003560e01c80638da5cb5b146037578063e30c3978146059575b600080fd5b603d605f565b604080516001600160a01b039092168252519081900360200190f35b603d606e565b6000546001600160a01b031681565b6001546001600160a01b03168156fea2646970667358221220aec01680251dd055660e6ead27debff7efb749c87b8a73898a8fa4dd2c79936264736f6c634300060c0033",
  "bytecodeSha1": "5b00eb08367da483a0313c8bda93be310fe0483b",
  "compiler": {
    "evm_version": "istanbul",
    "optimizer": {
      "enabled": true,
      "runs": 200
    },
    "version": "0.6.12+commit.27d51765"
  },
  "contractName": "BoringOwnableData",
  "language": "Solidity",
  "natspec": {
    "kind": "dev",
    "methods": {},
    "version": 1
  },
  "opcodes": "PUSH1 0x80 PUSH1 0x40 MSTORE CALLVALUE DUP1 ISZERO PUSH1 0xF JUMPI PUSH1 0x0 DUP1 REVERT JUMPDEST POP PUSH1 0x4 CALLDATASIZE LT PUSH1 0x32 JUMPI PUSH1 0x0 CALLDATALOAD PUSH1 0xE0 SHR DUP1 PUSH4 0x8DA5CB5B EQ PUSH1 0x37 JUMPI DUP1 PUSH4 0xE30C3978 EQ PUSH1 0x59 JUMPI JUMPDEST PUSH1 0x0 DUP1 REVERT JUMPDEST PUSH1 0x3D PUSH1 0x5F JUMP JUMPDEST PUSH1 0x40 DUP1 MLOAD PUSH1 0x1 PUSH1 0x1 PUSH1 0xA0 SHL SUB SWAP1 SWAP3 AND DUP3 MSTORE MLOAD SWAP1 DUP2 SWAP1 SUB PUSH1 0x20 ADD SWAP1 RETURN JUMPDEST PUSH1 0x3D PUSH1 0x6E JUMP JUMPDEST PUSH1 0x0 SLOAD PUSH1 0x1 PUSH1 0x1 PUSH1 0xA0 SHL SUB AND DUP2 JUMP JUMPDEST PUSH1 0x1 SLOAD PUSH1 0x1 PUSH1 0x1 PUSH1 0xA0 SHL SUB AND DUP2 JUMP INVALID LOG2 PUSH5 0x6970667358 0x22 SLT KECCAK256 0xAE 0xC0 AND DUP1 0x25 SAR 0xD0 SSTORE PUSH7 0xE6EAD27DEBFF7 0xEF 0xB7 0x49 0xC8 PUSH28 0x8A73898A8FA4DD2C79936264736F6C634300060C0033000000000000 ",
  "sha1": "a7805f01a762efc45ff191d8155dbe5df1bfe5de",
  "source": "\npragma solidity 0.6.12;\n\n// Audit on 5-Jan-2021 by Keno and BoringCrypto\n// Source: https://github.com/OpenZeppelin/openzeppelin-contracts/blob/master/contracts/access/Ownable.sol + Claimable.sol\n// Edited by BoringCrypto\n\ncontract BoringOwnableData {\n    address public owner;\n    address public pendingOwner;\n}\n\ncontract BoringOwnable is BoringOwnableData {\n    event OwnershipTransferred(address indexed previousOwner, address indexed newOwner);\n\n    /// @notice `owner` defaults to msg.sender on construction.\n    constructor() public {\n        owner = msg.sender;\n        emit OwnershipTransferred(address(0), msg.sender);\n    }\n\n    /// @notice Transfers ownership to `newOwner`. Either directly or claimable by the new pending owner.\n    /// Can only be invoked by the current `owner`.\n    /// @param newOwner Address of the new owner.\n    /// @param direct True if `newOwner` should be set immediately. False if `newOwner` needs to use `claimOwnership`.\n    /// @param renounce Allows the `newOwner` to be `address(0)` if `direct` and `renounce` is True. Has no effect otherwise.\n    function transferOwnership(\n        address newOwner,\n        bool direct,\n        bool renounce\n    ) public onlyOwner {\n        if (direct) {\n            // Checks\n            require(newOwner != address(0) || renounce, \"Ownable: zero address\");\n\n            // Effects\n            emit OwnershipTransferred(owner, newOwner);\n            owner = newOwner;\n            pendingOwner = address(0);\n        } else {\n            // Effects\n            pendingOwner = newOwner;\n        }\n    }\n\n    /// @notice Needs to be called by `pendingOwner` to claim ownership.\n    function claimOwnership() public {\n        address _pendingOwner = pendingOwner;\n\n        // Checks\n        require(msg.sender == _pendingOwner, \"Ownable: caller != pending owner\");\n\n        // Effects\n        emit OwnershipTransferred(owner, _pendingOwner);\n        owner = _pendingOwner;\n        pendingOwner = address(0);\n    }\n\n    /// @notice Only allows the `owner` to execute the function.\n    modifier onlyOwner() {\n        require(msg.sender == owner, \"Ownable: caller is not the owner\");\n        _;\n    }\n}",
  "sourcePath": "contracts/Utils/BoringOwnable.sol",
  "type": "contract"
}