{
  "abi": [
    {
      "inputs": [
        {
          "internalType": "address",
          "name": "_primaryRouterAddress",
          "type": "address"
        },
        {
          "internalType": "address",
          "name": "_primaryFactoryAddress",
          "type": "address"
        },
        {
          "internalType": "address",
          "name": "_secondaryRouterAddress",
          "type": "address"
        },
        {
          "internalType": "address",
          "name": "_secondaryFactoryAddress",
          "type": "address"
        },
        {
          "internalType": "address",
          "name": "_usdcAddress",
          "type": "address"
        }
      ],
      "stateMutability": "nonpayable",
      "type": "constructor"
    },
    {
      "inputs": [
        {
          "internalType": "address",
          "name": "tokenAddress",
          "type": "address"
        }
      ],
      "name": "getLpTokenPriceUsdc",
      "outputs": [
        {
          "internalType": "uint256",
          "name": "",
          "type": "uint256"
        }
      ],
      "stateMutability": "view",
      "type": "function"
    },
    {
      "inputs": [
        {
          "internalType": "address",
          "name": "tokenAddress",
          "type": "address"
        }
      ],
      "name": "getLpTokenTotalLiquidityUsdc",
      "outputs": [
        {
          "internalType": "uint256",
          "name": "",
          "type": "uint256"
        }
      ],
      "stateMutability": "view",
      "type": "function"
    },
    {
      "inputs": [
        {
          "internalType": "address",
          "name": "tokenAddress",
          "type": "address"
        },
        {
          "internalType": "uint256",
          "name": "amount",
          "type": "uint256"
        }
      ],
      "name": "getNormalizedValueUsdc",
      "outputs": [
        {
          "internalType": "uint256",
          "name": "",
          "type": "uint256"
        }
      ],
      "stateMutability": "view",
      "type": "function"
    },
    {
      "inputs": [
        {
          "internalType": "address",
          "name": "token0Address",
          "type": "address"
        },
        {
          "internalType": "address",
          "name": "token1Address",
          "type": "address"
        }
      ],
      "name": "getPriceFromRouter",
      "outputs": [
        {
          "internalType": "uint256",
          "name": "",
          "type": "uint256"
        }
      ],
      "stateMutability": "view",
      "type": "function"
    },
    {
      "inputs": [
        {
          "internalType": "address",
          "name": "tokenAddress",
          "type": "address"
        }
      ],
      "name": "getPriceFromRouterUsdc",
      "outputs": [
        {
          "internalType": "uint256",
          "name": "",
          "type": "uint256"
        }
      ],
      "stateMutability": "view",
      "type": "function"
    },
    {
      "inputs": [
        {
          "internalType": "address",
          "name": "tokenAddress",
          "type": "address"
        }
      ],
      "name": "getPriceUsdc",
      "outputs": [
        {
          "internalType": "uint256",
          "name": "",
          "type": "uint256"
        }
      ],
      "stateMutability": "view",
      "type": "function"
    },
    {
      "inputs": [
        {
          "internalType": "address",
          "name": "tokenAddress",
          "type": "address"
        }
      ],
      "name": "getRouterForLpToken",
      "outputs": [
        {
          "internalType": "contract PriceRouter",
          "name": "",
          "type": "address"
        }
      ],
      "stateMutability": "view",
      "type": "function"
    },
    {
      "inputs": [
        {
          "internalType": "address",
          "name": "tokenAddress",
          "type": "address"
        }
      ],
      "name": "isLpToken",
      "outputs": [
        {
          "internalType": "bool",
          "name": "",
          "type": "bool"
        }
      ],
      "stateMutability": "view",
      "type": "function"
    },
    {
      "inputs": [],
      "name": "primaryFactoryAddress",
      "outputs": [
        {
          "internalType": "address",
          "name": "",
          "type": "address"
        }
      ],
      "stateMutability": "view",
      "type": "function"
    },
    {
      "inputs": [],
      "name": "primaryRouterAddress",
      "outputs": [
        {
          "internalType": "address",
          "name": "",
          "type": "address"
        }
      ],
      "stateMutability": "view",
      "type": "function"
    },
    {
      "inputs": [],
      "name": "secondaryFactoryAddress",
      "outputs": [
        {
          "internalType": "address",
          "name": "",
          "type": "address"
        }
      ],
      "stateMutability": "view",
      "type": "function"
    },
    {
      "inputs": [],
      "name": "secondaryRouterAddress",
      "outputs": [
        {
          "internalType": "address",
          "name": "",
          "type": "address"
        }
      ],
      "stateMutability": "view",
      "type": "function"
    },
    {
      "inputs": [],
      "name": "usdcAddress",
      "outputs": [
        {
          "internalType": "address",
          "name": "",
          "type": "address"
        }
      ],
      "stateMutability": "view",
      "type": "function"
    },
    {
      "inputs": [],
      "name": "wethAddress",
      "outputs": [
        {
          "internalType": "address",
          "name": "",
          "type": "address"
        }
      ],
      "stateMutability": "view",
      "type": "function"
    }
  ],
  "bytecode": "6080604052600880546001600160a01b031990811673eeeeeeeeeeeeeeeeeeeeeeeeeeeeeeeeeeeeeeee1790915560098054909116905534801561004257600080fd5b50604051611195380380611195833981810160405260a081101561006557600080fd5b5080516020808301516040808501516060860151608090960151600080546001600160a01b038089166001600160a01b031992831617928390556001805482891690841617905560028054828716908416179081905560038054838d16908516179055600580548387169085161790556006805484169483169490941793849055600780549093169082161790915584516315ab88c960e31b81529451979895979396929491169263ad5c464892600480840193919291829003018186803b15801561013057600080fd5b505afa158015610144573d6000803e3d6000fd5b505050506040513d602081101561015a57600080fd5b5051600480546001600160a01b039092166001600160a01b03199092169190911790555050505050611004806101916000396000f3fe608060405234801561001057600080fd5b50600436106100ea5760003560e01c80636c7394101161008c578063bc52f13111610066578063bc52f13114610225578063d61a78471461024b578063e6a68d0014610271578063eaa457d214610279576100ea565b80636c739410146101cb5780638a7f6680146101d3578063973aaefd146101ff576100ea565b806325d366f1116100c857806325d366f114610155578063369ee46b1461015d5780634f0e0ef31461019d578063583850c9146101a5576100ea565b806302d45457146100ef5780630f24ca7d1461011357806323373c7a1461014d575b600080fd5b6100f761029f565b604080516001600160a01b039092168252519081900360200190f35b6101396004803603602081101561012957600080fd5b50356001600160a01b03166102ae565b604080519115158252519081900360200190f35b6100f761032c565b6100f761033b565b61018b6004803603604081101561017357600080fd5b506001600160a01b038135811691602001351661034a565b60408051918252519081900360200190f35b6100f76109f3565b61018b600480360360208110156101bb57600080fd5b50356001600160a01b0316610a02565b6100f7610b0d565b61018b600480360360408110156101e957600080fd5b506001600160a01b038135169060200135610b1c565b61018b6004803603602081101561021557600080fd5b50356001600160a01b0316610bf7565b61018b6004803603602081101561023b57600080fd5b50356001600160a01b0316610eb0565b61018b6004803603602081101561026157600080fd5b50356001600160a01b0316610ed0565b6100f7610ef9565b6100f76004803603602081101561028f57600080fd5b50356001600160a01b0316610f08565b6005546001600160a01b031681565b600080829050806001600160a01b031663c45a01556040518163ffffffff1660e01b815260040160206040518083038186803b1580156102ed57600080fd5b505afa92505050801561031257506040513d602081101561030d57600080fd5b505160015b610320576000915050610327565b5060019150505b919050565b6003546001600160a01b031681565b6002546001600160a01b031681565b6008546000906001600160a01b0384811691161415610372576004546001600160a01b031692505b6008546001600160a01b0383811691161415610397576004546001600160a01b031691505b60045460609060009081906001600160a01b03878116911614806103c857506004546001600160a01b038681169116145b9050801561045557604080516002808252606082018352600194509091602083019080368337019050509250858360008151811061040257fe5b60200260200101906001600160a01b031690816001600160a01b031681525050848360018151811061043057fe5b60200260200101906001600160a01b031690816001600160a01b031681525050610502565b60408051600380825260808201909252600293509060208201606080368337019050509250858360008151811061048857fe5b6001600160a01b0392831660209182029290920101526004548451911690849060019081106104b357fe5b60200260200101906001600160a01b031690816001600160a01b03168152505084836002815181106104e157fe5b60200260200101906001600160a01b031690816001600160a01b0316815250505b60008690506000816001600160a01b031663313ce5676040518163ffffffff1660e01b815260040160206040518083038186803b15801561054257600080fd5b505afa158015610556573d6000803e3d6000fd5b505050506040513d602081101561056c57600080fd5b505160095460025460ff909216600a0a92506060916001600160a01b03908116911614801590610850576006546040805163d06ca61f60e01b815260048101868152602482019283528a5160448301528a516001600160a01b039094169363d06ca61f9388938d93926064909101906020808601910280838360005b838110156106005781810151838201526020016105e8565b50505050905001935050505060006040518083038186803b15801561062457600080fd5b505afa9250505080156106e657506040513d6000823e601f3d908101601f19168201604052602081101561065757600080fd5b810190808051604051939291908464010000000082111561067757600080fd5b90830190602082018581111561068c57600080fd5b82518660208202830111640100000000821117156106a957600080fd5b82525081516020918201928201910280838360005b838110156106d65781810151838201526020016106be565b5050505090500160405250505060015b610848576007546040805163d06ca61f60e01b815260048101868152602482019283528a5160448301528a516001600160a01b039094169363d06ca61f9388938d93926064909101906020808601910280838360005b8381101561075457818101518382015260200161073c565b50505050905001935050505060006040518083038186803b15801561077857600080fd5b505afa15801561078c573d6000803e3d6000fd5b505050506040513d6000823e601f3d908101601f1916820160405260208110156107b557600080fd5b81019080805160405193929190846401000000008211156107d557600080fd5b9083019060208201858111156107ea57600080fd5b825186602082028301116401000000008211171561080757600080fd5b82525081516020918201928201910280838360005b8381101561083457818101518382015260200161081c565b50505050905001604052505050915061084b565b91505b6109aa565b6006546040805163d06ca61f60e01b815260048101868152602482019283528a5160448301528a516001600160a01b039094169363d06ca61f9388938d93926064909101906020808601910280838360005b838110156108ba5781810151838201526020016108a2565b50505050905001935050505060006040518083038186803b1580156108de57600080fd5b505afa1580156108f2573d6000803e3d6000fd5b505050506040513d6000823e601f3d908101601f19168201604052602081101561091b57600080fd5b810190808051604051939291908464010000000082111561093b57600080fd5b90830190602082018581111561095057600080fd5b825186602082028301116401000000008211171561096d57600080fd5b82525081516020918201928201910280838360005b8381101561099a578181015183820152602001610982565b5050505090500160405250505091505b6000826001845103815181106109bc57fe5b602002602001015190506000601e90508760ff168102612710038261271002816109e257fe5b049c9b505050505050505050505050565b6004546001600160a01b031681565b60008181610a0f82610bf7565b90506000826001600160a01b03166318160ddd6040518163ffffffff1660e01b815260040160206040518083038186803b158015610a4c57600080fd5b505afa158015610a60573d6000803e3d6000fd5b505050506040513d6020811015610a7657600080fd5b50516040805163313ce56760e01b815290519192506000916001600160a01b0386169163313ce567916004808301926020929190829003018186803b158015610abe57600080fd5b505afa158015610ad2573d6000803e3d6000fd5b505050506040513d6020811015610ae857600080fd5b5051905060008260ff808416600a0a16850281610b0157fe5b04979650505050505050565b6000546001600160a01b031681565b6000808390506000816001600160a01b031663313ce5676040518163ffffffff1660e01b815260040160206040518083038186803b158015610b5d57600080fd5b505afa158015610b71573d6000803e3d6000fd5b505050506040513d6020811015610b8757600080fd5b505160ff16905060066000818310610ba25750808203610ba7565b508181035b6000610bb288610ed0565b905060008215610bd957848301600a0a83600a0a838a020281610bd157fe5b049050610beb565b83600a0a82890281610be757fe5b0490505b98975050505050505050565b6000808290506000816001600160a01b0316630dfe16816040518163ffffffff1660e01b815260040160206040518083038186803b158015610c3857600080fd5b505afa158015610c4c573d6000803e3d6000fd5b505050506040513d6020811015610c6257600080fd5b50516040805163d21220a760e01b815290519192506000916001600160a01b0385169163d21220a7916004808301926020929190829003018186803b158015610caa57600080fd5b505afa158015610cbe573d6000803e3d6000fd5b505050506040513d6020811015610cd457600080fd5b50516040805163313ce56760e01b81529051919250839183916000916001600160a01b0385169163313ce567916004808301926020929190829003018186803b158015610d2057600080fd5b505afa158015610d34573d6000803e3d6000fd5b505050506040513d6020811015610d4a57600080fd5b50516040805163313ce56760e01b815290519192506000916001600160a01b0385169163313ce567916004808301926020929190829003018186803b158015610d9257600080fd5b505afa158015610da6573d6000803e3d6000fd5b505050506040513d6020811015610dbc57600080fd5b505190506000610dcb87610ed0565b90506000610dd887610ed0565b90506000808a6001600160a01b0316630902f1ac6040518163ffffffff1660e01b815260040160606040518083038186803b158015610e1657600080fd5b505afa158015610e2a573d6000803e3d6000fd5b505050506040513d6060811015610e4057600080fd5b508051602090910151909250905060008360ff808816600a0a166001600160701b03841681610e6b57fe5b046001600160701b031602858860ff16600a0a60ff16856001600160701b031681610e9257fe5b046001600160701b031602019e9d5050505050505050505050505050565b600554600090610eca9083906001600160a01b031661034a565b92915050565b6000610edb826102ae565b15610ef057610ee982610a02565b9050610327565b610eca82610eb0565b6001546001600160a01b031681565b6000808290506000816001600160a01b031663c45a01556040518163ffffffff1660e01b815260040160206040518083038186803b158015610f4957600080fd5b505afa158015610f5d573d6000803e3d6000fd5b505050506040513d6020811015610f7357600080fd5b50516001549091506001600160a01b0380831691161415610fa35750506006546001600160a01b03169050610327565b6003546001600160a01b03828116911614156100ea5750506007546001600160a01b0316905061032756fea26469706673582212201bb010c420d7479bf519b117b22cc1636aad2932b08adced34a2d7bf6203b01664736f6c634300060c0033",
  "bytecodeSha1": "30f142d8a46e0bf8b8338c38cb372179912516f4",
  "compiler": {
    "evm_version": "istanbul",
    "optimizer": {
      "enabled": true,
      "runs": 200
    },
    "version": "0.6.12+commit.27d51765"
  },
  "contractName": "CalculationsSushiswap",
  "language": "Solidity",
  "natspec": {
    "kind": "dev",
    "methods": {},
    "version": 1
  },
  "opcodes": "PUSH1 0x80 PUSH1 0x40 MSTORE CALLVALUE DUP1 ISZERO PUSH2 0x10 JUMPI PUSH1 0x0 DUP1 REVERT JUMPDEST POP PUSH1 0x4 CALLDATASIZE LT PUSH2 0xEA JUMPI PUSH1 0x0 CALLDATALOAD PUSH1 0xE0 SHR DUP1 PUSH4 0x6C739410 GT PUSH2 0x8C JUMPI DUP1 PUSH4 0xBC52F131 GT PUSH2 0x66 JUMPI DUP1 PUSH4 0xBC52F131 EQ PUSH2 0x225 JUMPI DUP1 PUSH4 0xD61A7847 EQ PUSH2 0x24B JUMPI DUP1 PUSH4 0xE6A68D00 EQ PUSH2 0x271 JUMPI DUP1 PUSH4 0xEAA457D2 EQ PUSH2 0x279 JUMPI PUSH2 0xEA JUMP JUMPDEST DUP1 PUSH4 0x6C739410 EQ PUSH2 0x1CB JUMPI DUP1 PUSH4 0x8A7F6680 EQ PUSH2 0x1D3 JUMPI DUP1 PUSH4 0x973AAEFD EQ PUSH2 0x1FF JUMPI PUSH2 0xEA JUMP JUMPDEST DUP1 PUSH4 0x25D366F1 GT PUSH2 0xC8 JUMPI DUP1 PUSH4 0x25D366F1 EQ PUSH2 0x155 JUMPI DUP1 PUSH4 0x369EE46B EQ PUSH2 0x15D JUMPI DUP1 PUSH4 0x4F0E0EF3 EQ PUSH2 0x19D JUMPI DUP1 PUSH4 0x583850C9 EQ PUSH2 0x1A5 JUMPI PUSH2 0xEA JUMP JUMPDEST DUP1 PUSH4 0x2D45457 EQ PUSH2 0xEF JUMPI DUP1 PUSH4 0xF24CA7D EQ PUSH2 0x113 JUMPI DUP1 PUSH4 0x23373C7A EQ PUSH2 0x14D JUMPI JUMPDEST PUSH1 0x0 DUP1 REVERT JUMPDEST PUSH2 0xF7 PUSH2 0x29F JUMP JUMPDEST PUSH1 0x40 DUP1 MLOAD PUSH1 0x1 PUSH1 0x1 PUSH1 0xA0 SHL SUB SWAP1 SWAP3 AND DUP3 MSTORE MLOAD SWAP1 DUP2 SWAP1 SUB PUSH1 0x20 ADD SWAP1 RETURN JUMPDEST PUSH2 0x139 PUSH1 0x4 DUP1 CALLDATASIZE SUB PUSH1 0x20 DUP2 LT ISZERO PUSH2 0x129 JUMPI PUSH1 0x0 DUP1 REVERT JUMPDEST POP CALLDATALOAD PUSH1 0x1 PUSH1 0x1 PUSH1 0xA0 SHL SUB AND PUSH2 0x2AE JUMP JUMPDEST PUSH1 0x40 DUP1 MLOAD SWAP2 ISZERO ISZERO DUP3 MSTORE MLOAD SWAP1 DUP2 SWAP1 SUB PUSH1 0x20 ADD SWAP1 RETURN JUMPDEST PUSH2 0xF7 PUSH2 0x32C JUMP JUMPDEST PUSH2 0xF7 PUSH2 0x33B JUMP JUMPDEST PUSH2 0x18B PUSH1 0x4 DUP1 CALLDATASIZE SUB PUSH1 0x40 DUP2 LT ISZERO PUSH2 0x173 JUMPI PUSH1 0x0 DUP1 REVERT JUMPDEST POP PUSH1 0x1 PUSH1 0x1 PUSH1 0xA0 SHL SUB DUP2 CALLDATALOAD DUP2 AND SWAP2 PUSH1 0x20 ADD CALLDATALOAD AND PUSH2 0x34A JUMP JUMPDEST PUSH1 0x40 DUP1 MLOAD SWAP2 DUP3 MSTORE MLOAD SWAP1 DUP2 SWAP1 SUB PUSH1 0x20 ADD SWAP1 RETURN JUMPDEST PUSH2 0xF7 PUSH2 0x9F3 JUMP JUMPDEST PUSH2 0x18B PUSH1 0x4 DUP1 CALLDATASIZE SUB PUSH1 0x20 DUP2 LT ISZERO PUSH2 0x1BB JUMPI PUSH1 0x0 DUP1 REVERT JUMPDEST POP CALLDATALOAD PUSH1 0x1 PUSH1 0x1 PUSH1 0xA0 SHL SUB AND PUSH2 0xA02 JUMP JUMPDEST PUSH2 0xF7 PUSH2 0xB0D JUMP JUMPDEST PUSH2 0x18B PUSH1 0x4 DUP1 CALLDATASIZE SUB PUSH1 0x40 DUP2 LT ISZERO PUSH2 0x1E9 JUMPI PUSH1 0x0 DUP1 REVERT JUMPDEST POP PUSH1 0x1 PUSH1 0x1 PUSH1 0xA0 SHL SUB DUP2 CALLDATALOAD AND SWAP1 PUSH1 0x20 ADD CALLDATALOAD PUSH2 0xB1C JUMP JUMPDEST PUSH2 0x18B PUSH1 0x4 DUP1 CALLDATASIZE SUB PUSH1 0x20 DUP2 LT ISZERO PUSH2 0x215 JUMPI PUSH1 0x0 DUP1 REVERT JUMPDEST POP CALLDATALOAD PUSH1 0x1 PUSH1 0x1 PUSH1 0xA0 SHL SUB AND PUSH2 0xBF7 JUMP JUMPDEST PUSH2 0x18B PUSH1 0x4 DUP1 CALLDATASIZE SUB PUSH1 0x20 DUP2 LT ISZERO PUSH2 0x23B JUMPI PUSH1 0x0 DUP1 REVERT JUMPDEST POP CALLDATALOAD PUSH1 0x1 PUSH1 0x1 PUSH1 0xA0 SHL SUB AND PUSH2 0xEB0 JUMP JUMPDEST PUSH2 0x18B PUSH1 0x4 DUP1 CALLDATASIZE SUB PUSH1 0x20 DUP2 LT ISZERO PUSH2 0x261 JUMPI PUSH1 0x0 DUP1 REVERT JUMPDEST POP CALLDATALOAD PUSH1 0x1 PUSH1 0x1 PUSH1 0xA0 SHL SUB AND PUSH2 0xED0 JUMP JUMPDEST PUSH2 0xF7 PUSH2 0xEF9 JUMP JUMPDEST PUSH2 0xF7 PUSH1 0x4 DUP1 CALLDATASIZE SUB PUSH1 0x20 DUP2 LT ISZERO PUSH2 0x28F JUMPI PUSH1 0x0 DUP1 REVERT JUMPDEST POP CALLDATALOAD PUSH1 0x1 PUSH1 0x1 PUSH1 0xA0 SHL SUB AND PUSH2 0xF08 JUMP JUMPDEST PUSH1 0x5 SLOAD PUSH1 0x1 PUSH1 0x1 PUSH1 0xA0 SHL SUB AND DUP2 JUMP JUMPDEST PUSH1 0x0 DUP1 DUP3 SWAP1 POP DUP1 PUSH1 0x1 PUSH1 0x1 PUSH1 0xA0 SHL SUB AND PUSH4 0xC45A0155 PUSH1 0x40 MLOAD DUP2 PUSH4 0xFFFFFFFF AND PUSH1 0xE0 SHL DUP2 MSTORE PUSH1 0x4 ADD PUSH1 0x20 PUSH1 0x40 MLOAD DUP1 DUP4 SUB DUP2 DUP7 DUP1 EXTCODESIZE ISZERO DUP1 ISZERO PUSH2 0x2ED JUMPI PUSH1 0x0 DUP1 REVERT JUMPDEST POP GAS STATICCALL SWAP3 POP POP POP DUP1 ISZERO PUSH2 0x312 JUMPI POP PUSH1 0x40 MLOAD RETURNDATASIZE PUSH1 0x20 DUP2 LT ISZERO PUSH2 0x30D JUMPI PUSH1 0x0 DUP1 REVERT JUMPDEST POP MLOAD PUSH1 0x1 JUMPDEST PUSH2 0x320 JUMPI PUSH1 0x0 SWAP2 POP POP PUSH2 0x327 JUMP JUMPDEST POP PUSH1 0x1 SWAP2 POP POP JUMPDEST SWAP2 SWAP1 POP JUMP JUMPDEST PUSH1 0x3 SLOAD PUSH1 0x1 PUSH1 0x1 PUSH1 0xA0 SHL SUB AND DUP2 JUMP JUMPDEST PUSH1 0x2 SLOAD PUSH1 0x1 PUSH1 0x1 PUSH1 0xA0 SHL SUB AND DUP2 JUMP JUMPDEST PUSH1 0x8 SLOAD PUSH1 0x0 SWAP1 PUSH1 0x1 PUSH1 0x1 PUSH1 0xA0 SHL SUB DUP5 DUP2 AND SWAP2 AND EQ ISZERO PUSH2 0x372 JUMPI PUSH1 0x4 SLOAD PUSH1 0x1 PUSH1 0x1 PUSH1 0xA0 SHL SUB AND SWAP3 POP JUMPDEST PUSH1 0x8 SLOAD PUSH1 0x1 PUSH1 0x1 PUSH1 0xA0 SHL SUB DUP4 DUP2 AND SWAP2 AND EQ ISZERO PUSH2 0x397 JUMPI PUSH1 0x4 SLOAD PUSH1 0x1 PUSH1 0x1 PUSH1 0xA0 SHL SUB AND SWAP2 POP JUMPDEST PUSH1 0x4 SLOAD PUSH1 0x60 SWAP1 PUSH1 0x0 SWAP1 DUP2 SWAP1 PUSH1 0x1 PUSH1 0x1 PUSH1 0xA0 SHL SUB DUP8 DUP2 AND SWAP2 AND EQ DUP1 PUSH2 0x3C8 JUMPI POP PUSH1 0x4 SLOAD PUSH1 0x1 PUSH1 0x1 PUSH1 0xA0 SHL SUB DUP7 DUP2 AND SWAP2 AND EQ JUMPDEST SWAP1 POP DUP1 ISZERO PUSH2 0x455 JUMPI PUSH1 0x40 DUP1 MLOAD PUSH1 0x2 DUP1 DUP3 MSTORE PUSH1 0x60 DUP3 ADD DUP4 MSTORE PUSH1 0x1 SWAP5 POP SWAP1 SWAP2 PUSH1 0x20 DUP4 ADD SWAP1 DUP1 CALLDATASIZE DUP4 CALLDATACOPY ADD SWAP1 POP POP SWAP3 POP DUP6 DUP4 PUSH1 0x0 DUP2 MLOAD DUP2 LT PUSH2 0x402 JUMPI INVALID JUMPDEST PUSH1 0x20 MUL PUSH1 0x20 ADD ADD SWAP1 PUSH1 0x1 PUSH1 0x1 PUSH1 0xA0 SHL SUB AND SWAP1 DUP2 PUSH1 0x1 PUSH1 0x1 PUSH1 0xA0 SHL SUB AND DUP2 MSTORE POP POP DUP5 DUP4 PUSH1 0x1 DUP2 MLOAD DUP2 LT PUSH2 0x430 JUMPI INVALID JUMPDEST PUSH1 0x20 MUL PUSH1 0x20 ADD ADD SWAP1 PUSH1 0x1 PUSH1 0x1 PUSH1 0xA0 SHL SUB AND SWAP1 DUP2 PUSH1 0x1 PUSH1 0x1 PUSH1 0xA0 SHL SUB AND DUP2 MSTORE POP POP PUSH2 0x502 JUMP JUMPDEST PUSH1 0x40 DUP1 MLOAD PUSH1 0x3 DUP1 DUP3 MSTORE PUSH1 0x80 DUP3 ADD SWAP1 SWAP3 MSTORE PUSH1 0x2 SWAP4 POP SWAP1 PUSH1 0x20 DUP3 ADD PUSH1 0x60 DUP1 CALLDATASIZE DUP4 CALLDATACOPY ADD SWAP1 POP POP SWAP3 POP DUP6 DUP4 PUSH1 0x0 DUP2 MLOAD DUP2 LT PUSH2 0x488 JUMPI INVALID JUMPDEST PUSH1 0x1 PUSH1 0x1 PUSH1 0xA0 SHL SUB SWAP3 DUP4 AND PUSH1 0x20 SWAP2 DUP3 MUL SWAP3 SWAP1 SWAP3 ADD ADD MSTORE PUSH1 0x4 SLOAD DUP5 MLOAD SWAP2 AND SWAP1 DUP5 SWAP1 PUSH1 0x1 SWAP1 DUP2 LT PUSH2 0x4B3 JUMPI INVALID JUMPDEST PUSH1 0x20 MUL PUSH1 0x20 ADD ADD SWAP1 PUSH1 0x1 PUSH1 0x1 PUSH1 0xA0 SHL SUB AND SWAP1 DUP2 PUSH1 0x1 PUSH1 0x1 PUSH1 0xA0 SHL SUB AND DUP2 MSTORE POP POP DUP5 DUP4 PUSH1 0x2 DUP2 MLOAD DUP2 LT PUSH2 0x4E1 JUMPI INVALID JUMPDEST PUSH1 0x20 MUL PUSH1 0x20 ADD ADD SWAP1 PUSH1 0x1 PUSH1 0x1 PUSH1 0xA0 SHL SUB AND SWAP1 DUP2 PUSH1 0x1 PUSH1 0x1 PUSH1 0xA0 SHL SUB AND DUP2 MSTORE POP POP JUMPDEST PUSH1 0x0 DUP7 SWAP1 POP PUSH1 0x0 DUP2 PUSH1 0x1 PUSH1 0x1 PUSH1 0xA0 SHL SUB AND PUSH4 0x313CE567 PUSH1 0x40 MLOAD DUP2 PUSH4 0xFFFFFFFF AND PUSH1 0xE0 SHL DUP2 MSTORE PUSH1 0x4 ADD PUSH1 0x20 PUSH1 0x40 MLOAD DUP1 DUP4 SUB DUP2 DUP7 DUP1 EXTCODESIZE ISZERO DUP1 ISZERO PUSH2 0x542 JUMPI PUSH1 0x0 DUP1 REVERT JUMPDEST POP GAS STATICCALL ISZERO DUP1 ISZERO PUSH2 0x556 JUMPI RETURNDATASIZE PUSH1 0x0 DUP1 RETURNDATACOPY RETURNDATASIZE PUSH1 0x0 REVERT JUMPDEST POP POP POP POP PUSH1 0x40 MLOAD RETURNDATASIZE PUSH1 0x20 DUP2 LT ISZERO PUSH2 0x56C JUMPI PUSH1 0x0 DUP1 REVERT JUMPDEST POP MLOAD PUSH1 0x9 SLOAD PUSH1 0x2 SLOAD PUSH1 0xFF SWAP1 SWAP3 AND PUSH1 0xA EXP SWAP3 POP PUSH1 0x60 SWAP2 PUSH1 0x1 PUSH1 0x1 PUSH1 0xA0 SHL SUB SWAP1 DUP2 AND SWAP2 AND EQ DUP1 ISZERO SWAP1 PUSH2 0x850 JUMPI PUSH1 0x6 SLOAD PUSH1 0x40 DUP1 MLOAD PUSH4 0xD06CA61F PUSH1 0xE0 SHL DUP2 MSTORE PUSH1 0x4 DUP2 ADD DUP7 DUP2 MSTORE PUSH1 0x24 DUP3 ADD SWAP3 DUP4 MSTORE DUP11 MLOAD PUSH1 0x44 DUP4 ADD MSTORE DUP11 MLOAD PUSH1 0x1 PUSH1 0x1 PUSH1 0xA0 SHL SUB SWAP1 SWAP5 AND SWAP4 PUSH4 0xD06CA61F SWAP4 DUP9 SWAP4 DUP14 SWAP4 SWAP3 PUSH1 0x64 SWAP1 SWAP2 ADD SWAP1 PUSH1 0x20 DUP1 DUP7 ADD SWAP2 MUL DUP1 DUP4 DUP4 PUSH1 0x0 JUMPDEST DUP4 DUP2 LT ISZERO PUSH2 0x600 JUMPI DUP2 DUP2 ADD MLOAD DUP4 DUP3 ADD MSTORE PUSH1 0x20 ADD PUSH2 0x5E8 JUMP JUMPDEST POP POP POP POP SWAP1 POP ADD SWAP4 POP POP POP POP PUSH1 0x0 PUSH1 0x40 MLOAD DUP1 DUP4 SUB DUP2 DUP7 DUP1 EXTCODESIZE ISZERO DUP1 ISZERO PUSH2 0x624 JUMPI PUSH1 0x0 DUP1 REVERT JUMPDEST POP GAS STATICCALL SWAP3 POP POP POP DUP1 ISZERO PUSH2 0x6E6 JUMPI POP PUSH1 0x40 MLOAD RETURNDATASIZE PUSH1 0x0 DUP3 RETURNDATACOPY PUSH1 0x1F RETURNDATASIZE SWAP1 DUP2 ADD PUSH1 0x1F NOT AND DUP3 ADD PUSH1 0x40 MSTORE PUSH1 0x20 DUP2 LT ISZERO PUSH2 0x657 JUMPI PUSH1 0x0 DUP1 REVERT JUMPDEST DUP2 ADD SWAP1 DUP1 DUP1 MLOAD PUSH1 0x40 MLOAD SWAP4 SWAP3 SWAP2 SWAP1 DUP5 PUSH5 0x100000000 DUP3 GT ISZERO PUSH2 0x677 JUMPI PUSH1 0x0 DUP1 REVERT JUMPDEST SWAP1 DUP4 ADD SWAP1 PUSH1 0x20 DUP3 ADD DUP6 DUP2 GT ISZERO PUSH2 0x68C JUMPI PUSH1 0x0 DUP1 REVERT JUMPDEST DUP3 MLOAD DUP7 PUSH1 0x20 DUP3 MUL DUP4 ADD GT PUSH5 0x100000000 DUP3 GT OR ISZERO PUSH2 0x6A9 JUMPI PUSH1 0x0 DUP1 REVERT JUMPDEST DUP3 MSTORE POP DUP2 MLOAD PUSH1 0x20 SWAP2 DUP3 ADD SWAP3 DUP3 ADD SWAP2 MUL DUP1 DUP4 DUP4 PUSH1 0x0 JUMPDEST DUP4 DUP2 LT ISZERO PUSH2 0x6D6 JUMPI DUP2 DUP2 ADD MLOAD DUP4 DUP3 ADD MSTORE PUSH1 0x20 ADD PUSH2 0x6BE JUMP JUMPDEST POP POP POP POP SWAP1 POP ADD PUSH1 0x40 MSTORE POP POP POP PUSH1 0x1 JUMPDEST PUSH2 0x848 JUMPI PUSH1 0x7 SLOAD PUSH1 0x40 DUP1 MLOAD PUSH4 0xD06CA61F PUSH1 0xE0 SHL DUP2 MSTORE PUSH1 0x4 DUP2 ADD DUP7 DUP2 MSTORE PUSH1 0x24 DUP3 ADD SWAP3 DUP4 MSTORE DUP11 MLOAD PUSH1 0x44 DUP4 ADD MSTORE DUP11 MLOAD PUSH1 0x1 PUSH1 0x1 PUSH1 0xA0 SHL SUB SWAP1 SWAP5 AND SWAP4 PUSH4 0xD06CA61F SWAP4 DUP9 SWAP4 DUP14 SWAP4 SWAP3 PUSH1 0x64 SWAP1 SWAP2 ADD SWAP1 PUSH1 0x20 DUP1 DUP7 ADD SWAP2 MUL DUP1 DUP4 DUP4 PUSH1 0x0 JUMPDEST DUP4 DUP2 LT ISZERO PUSH2 0x754 JUMPI DUP2 DUP2 ADD MLOAD DUP4 DUP3 ADD MSTORE PUSH1 0x20 ADD PUSH2 0x73C JUMP JUMPDEST POP POP POP POP SWAP1 POP ADD SWAP4 POP POP POP POP PUSH1 0x0 PUSH1 0x40 MLOAD DUP1 DUP4 SUB DUP2 DUP7 DUP1 EXTCODESIZE ISZERO DUP1 ISZERO PUSH2 0x778 JUMPI PUSH1 0x0 DUP1 REVERT JUMPDEST POP GAS STATICCALL ISZERO DUP1 ISZERO PUSH2 0x78C JUMPI RETURNDATASIZE PUSH1 0x0 DUP1 RETURNDATACOPY RETURNDATASIZE PUSH1 0x0 REVERT JUMPDEST POP POP POP POP PUSH1 0x40 MLOAD RETURNDATASIZE PUSH1 0x0 DUP3 RETURNDATACOPY PUSH1 0x1F RETURNDATASIZE SWAP1 DUP2 ADD PUSH1 0x1F NOT AND DUP3 ADD PUSH1 0x40 MSTORE PUSH1 0x20 DUP2 LT ISZERO PUSH2 0x7B5 JUMPI PUSH1 0x0 DUP1 REVERT JUMPDEST DUP2 ADD SWAP1 DUP1 DUP1 MLOAD PUSH1 0x40 MLOAD SWAP4 SWAP3 SWAP2 SWAP1 DUP5 PUSH5 0x100000000 DUP3 GT ISZERO PUSH2 0x7D5 JUMPI PUSH1 0x0 DUP1 REVERT JUMPDEST SWAP1 DUP4 ADD SWAP1 PUSH1 0x20 DUP3 ADD DUP6 DUP2 GT ISZERO PUSH2 0x7EA JUMPI PUSH1 0x0 DUP1 REVERT JUMPDEST DUP3 MLOAD DUP7 PUSH1 0x20 DUP3 MUL DUP4 ADD GT PUSH5 0x100000000 DUP3 GT OR ISZERO PUSH2 0x807 JUMPI PUSH1 0x0 DUP1 REVERT JUMPDEST DUP3 MSTORE POP DUP2 MLOAD PUSH1 0x20 SWAP2 DUP3 ADD SWAP3 DUP3 ADD SWAP2 MUL DUP1 DUP4 DUP4 PUSH1 0x0 JUMPDEST DUP4 DUP2 LT ISZERO PUSH2 0x834 JUMPI DUP2 DUP2 ADD MLOAD DUP4 DUP3 ADD MSTORE PUSH1 0x20 ADD PUSH2 0x81C JUMP JUMPDEST POP POP POP POP SWAP1 POP ADD PUSH1 0x40 MSTORE POP POP POP SWAP2 POP PUSH2 0x84B JUMP JUMPDEST SWAP2 POP JUMPDEST PUSH2 0x9AA JUMP JUMPDEST PUSH1 0x6 SLOAD PUSH1 0x40 DUP1 MLOAD PUSH4 0xD06CA61F PUSH1 0xE0 SHL DUP2 MSTORE PUSH1 0x4 DUP2 ADD DUP7 DUP2 MSTORE PUSH1 0x24 DUP3 ADD SWAP3 DUP4 MSTORE DUP11 MLOAD PUSH1 0x44 DUP4 ADD MSTORE DUP11 MLOAD PUSH1 0x1 PUSH1 0x1 PUSH1 0xA0 SHL SUB SWAP1 SWAP5 AND SWAP4 PUSH4 0xD06CA61F SWAP4 DUP9 SWAP4 DUP14 SWAP4 SWAP3 PUSH1 0x64 SWAP1 SWAP2 ADD SWAP1 PUSH1 0x20 DUP1 DUP7 ADD SWAP2 MUL DUP1 DUP4 DUP4 PUSH1 0x0 JUMPDEST DUP4 DUP2 LT ISZERO PUSH2 0x8BA JUMPI DUP2 DUP2 ADD MLOAD DUP4 DUP3 ADD MSTORE PUSH1 0x20 ADD PUSH2 0x8A2 JUMP JUMPDEST POP POP POP POP SWAP1 POP ADD SWAP4 POP POP POP POP PUSH1 0x0 PUSH1 0x40 MLOAD DUP1 DUP4 SUB DUP2 DUP7 DUP1 EXTCODESIZE ISZERO DUP1 ISZERO PUSH2 0x8DE JUMPI PUSH1 0x0 DUP1 REVERT JUMPDEST POP GAS STATICCALL ISZERO DUP1 ISZERO PUSH2 0x8F2 JUMPI RETURNDATASIZE PUSH1 0x0 DUP1 RETURNDATACOPY RETURNDATASIZE PUSH1 0x0 REVERT JUMPDEST POP POP POP POP PUSH1 0x40 MLOAD RETURNDATASIZE PUSH1 0x0 DUP3 RETURNDATACOPY PUSH1 0x1F RETURNDATASIZE SWAP1 DUP2 ADD PUSH1 0x1F NOT AND DUP3 ADD PUSH1 0x40 MSTORE PUSH1 0x20 DUP2 LT ISZERO PUSH2 0x91B JUMPI PUSH1 0x0 DUP1 REVERT JUMPDEST DUP2 ADD SWAP1 DUP1 DUP1 MLOAD PUSH1 0x40 MLOAD SWAP4 SWAP3 SWAP2 SWAP1 DUP5 PUSH5 0x100000000 DUP3 GT ISZERO PUSH2 0x93B JUMPI PUSH1 0x0 DUP1 REVERT JUMPDEST SWAP1 DUP4 ADD SWAP1 PUSH1 0x20 DUP3 ADD DUP6 DUP2 GT ISZERO PUSH2 0x950 JUMPI PUSH1 0x0 DUP1 REVERT JUMPDEST DUP3 MLOAD DUP7 PUSH1 0x20 DUP3 MUL DUP4 ADD GT PUSH5 0x100000000 DUP3 GT OR ISZERO PUSH2 0x96D JUMPI PUSH1 0x0 DUP1 REVERT JUMPDEST DUP3 MSTORE POP DUP2 MLOAD PUSH1 0x20 SWAP2 DUP3 ADD SWAP3 DUP3 ADD SWAP2 MUL DUP1 DUP4 DUP4 PUSH1 0x0 JUMPDEST DUP4 DUP2 LT ISZERO PUSH2 0x99A JUMPI DUP2 DUP2 ADD MLOAD DUP4 DUP3 ADD MSTORE PUSH1 0x20 ADD PUSH2 0x982 JUMP JUMPDEST POP POP POP POP SWAP1 POP ADD PUSH1 0x40 MSTORE POP POP POP SWAP2 POP JUMPDEST PUSH1 0x0 DUP3 PUSH1 0x1 DUP5 MLOAD SUB DUP2 MLOAD DUP2 LT PUSH2 0x9BC JUMPI INVALID JUMPDEST PUSH1 0x20 MUL PUSH1 0x20 ADD ADD MLOAD SWAP1 POP PUSH1 0x0 PUSH1 0x1E SWAP1 POP DUP8 PUSH1 0xFF AND DUP2 MUL PUSH2 0x2710 SUB DUP3 PUSH2 0x2710 MUL DUP2 PUSH2 0x9E2 JUMPI INVALID JUMPDEST DIV SWAP13 SWAP12 POP POP POP POP POP POP POP POP POP POP POP POP JUMP JUMPDEST PUSH1 0x4 SLOAD PUSH1 0x1 PUSH1 0x1 PUSH1 0xA0 SHL SUB AND DUP2 JUMP JUMPDEST PUSH1 0x0 DUP2 DUP2 PUSH2 0xA0F DUP3 PUSH2 0xBF7 JUMP JUMPDEST SWAP1 POP PUSH1 0x0 DUP3 PUSH1 0x1 PUSH1 0x1 PUSH1 0xA0 SHL SUB AND PUSH4 0x18160DDD PUSH1 0x40 MLOAD DUP2 PUSH4 0xFFFFFFFF AND PUSH1 0xE0 SHL DUP2 MSTORE PUSH1 0x4 ADD PUSH1 0x20 PUSH1 0x40 MLOAD DUP1 DUP4 SUB DUP2 DUP7 DUP1 EXTCODESIZE ISZERO DUP1 ISZERO PUSH2 0xA4C JUMPI PUSH1 0x0 DUP1 REVERT JUMPDEST POP GAS STATICCALL ISZERO DUP1 ISZERO PUSH2 0xA60 JUMPI RETURNDATASIZE PUSH1 0x0 DUP1 RETURNDATACOPY RETURNDATASIZE PUSH1 0x0 REVERT JUMPDEST POP POP POP POP PUSH1 0x40 MLOAD RETURNDATASIZE PUSH1 0x20 DUP2 LT ISZERO PUSH2 0xA76 JUMPI PUSH1 0x0 DUP1 REVERT JUMPDEST POP MLOAD PUSH1 0x40 DUP1 MLOAD PUSH4 0x313CE567 PUSH1 0xE0 SHL DUP2 MSTORE SWAP1 MLOAD SWAP2 SWAP3 POP PUSH1 0x0 SWAP2 PUSH1 0x1 PUSH1 0x1 PUSH1 0xA0 SHL SUB DUP7 AND SWAP2 PUSH4 0x313CE567 SWAP2 PUSH1 0x4 DUP1 DUP4 ADD SWAP3 PUSH1 0x20 SWAP3 SWAP2 SWAP1 DUP3 SWAP1 SUB ADD DUP2 DUP7 DUP1 EXTCODESIZE ISZERO DUP1 ISZERO PUSH2 0xABE JUMPI PUSH1 0x0 DUP1 REVERT JUMPDEST POP GAS STATICCALL ISZERO DUP1 ISZERO PUSH2 0xAD2 JUMPI RETURNDATASIZE PUSH1 0x0 DUP1 RETURNDATACOPY RETURNDATASIZE PUSH1 0x0 REVERT JUMPDEST POP POP POP POP PUSH1 0x40 MLOAD RETURNDATASIZE PUSH1 0x20 DUP2 LT ISZERO PUSH2 0xAE8 JUMPI PUSH1 0x0 DUP1 REVERT JUMPDEST POP MLOAD SWAP1 POP PUSH1 0x0 DUP3 PUSH1 0xFF DUP1 DUP5 AND PUSH1 0xA EXP AND DUP6 MUL DUP2 PUSH2 0xB01 JUMPI INVALID JUMPDEST DIV SWAP8 SWAP7 POP POP POP POP POP POP POP JUMP JUMPDEST PUSH1 0x0 SLOAD PUSH1 0x1 PUSH1 0x1 PUSH1 0xA0 SHL SUB AND DUP2 JUMP JUMPDEST PUSH1 0x0 DUP1 DUP4 SWAP1 POP PUSH1 0x0 DUP2 PUSH1 0x1 PUSH1 0x1 PUSH1 0xA0 SHL SUB AND PUSH4 0x313CE567 PUSH1 0x40 MLOAD DUP2 PUSH4 0xFFFFFFFF AND PUSH1 0xE0 SHL DUP2 MSTORE PUSH1 0x4 ADD PUSH1 0x20 PUSH1 0x40 MLOAD DUP1 DUP4 SUB DUP2 DUP7 DUP1 EXTCODESIZE ISZERO DUP1 ISZERO PUSH2 0xB5D JUMPI PUSH1 0x0 DUP1 REVERT JUMPDEST POP GAS STATICCALL ISZERO DUP1 ISZERO PUSH2 0xB71 JUMPI RETURNDATASIZE PUSH1 0x0 DUP1 RETURNDATACOPY RETURNDATASIZE PUSH1 0x0 REVERT JUMPDEST POP POP POP POP PUSH1 0x40 MLOAD RETURNDATASIZE PUSH1 0x20 DUP2 LT ISZERO PUSH2 0xB87 JUMPI PUSH1 0x0 DUP1 REVERT JUMPDEST POP MLOAD PUSH1 0xFF AND SWAP1 POP PUSH1 0x6 PUSH1 0x0 DUP2 DUP4 LT PUSH2 0xBA2 JUMPI POP DUP1 DUP3 SUB PUSH2 0xBA7 JUMP JUMPDEST POP DUP2 DUP2 SUB JUMPDEST PUSH1 0x0 PUSH2 0xBB2 DUP9 PUSH2 0xED0 JUMP JUMPDEST SWAP1 POP PUSH1 0x0 DUP3 ISZERO PUSH2 0xBD9 JUMPI DUP5 DUP4 ADD PUSH1 0xA EXP DUP4 PUSH1 0xA EXP DUP4 DUP11 MUL MUL DUP2 PUSH2 0xBD1 JUMPI INVALID JUMPDEST DIV SWAP1 POP PUSH2 0xBEB JUMP JUMPDEST DUP4 PUSH1 0xA EXP DUP3 DUP10 MUL DUP2 PUSH2 0xBE7 JUMPI INVALID JUMPDEST DIV SWAP1 POP JUMPDEST SWAP9 SWAP8 POP POP POP POP POP POP POP POP JUMP JUMPDEST PUSH1 0x0 DUP1 DUP3 SWAP1 POP PUSH1 0x0 DUP2 PUSH1 0x1 PUSH1 0x1 PUSH1 0xA0 SHL SUB AND PUSH4 0xDFE1681 PUSH1 0x40 MLOAD DUP2 PUSH4 0xFFFFFFFF AND PUSH1 0xE0 SHL DUP2 MSTORE PUSH1 0x4 ADD PUSH1 0x20 PUSH1 0x40 MLOAD DUP1 DUP4 SUB DUP2 DUP7 DUP1 EXTCODESIZE ISZERO DUP1 ISZERO PUSH2 0xC38 JUMPI PUSH1 0x0 DUP1 REVERT JUMPDEST POP GAS STATICCALL ISZERO DUP1 ISZERO PUSH2 0xC4C JUMPI RETURNDATASIZE PUSH1 0x0 DUP1 RETURNDATACOPY RETURNDATASIZE PUSH1 0x0 REVERT JUMPDEST POP POP POP POP PUSH1 0x40 MLOAD RETURNDATASIZE PUSH1 0x20 DUP2 LT ISZERO PUSH2 0xC62 JUMPI PUSH1 0x0 DUP1 REVERT JUMPDEST POP MLOAD PUSH1 0x40 DUP1 MLOAD PUSH4 0xD21220A7 PUSH1 0xE0 SHL DUP2 MSTORE SWAP1 MLOAD SWAP2 SWAP3 POP PUSH1 0x0 SWAP2 PUSH1 0x1 PUSH1 0x1 PUSH1 0xA0 SHL SUB DUP6 AND SWAP2 PUSH4 0xD21220A7 SWAP2 PUSH1 0x4 DUP1 DUP4 ADD SWAP3 PUSH1 0x20 SWAP3 SWAP2 SWAP1 DUP3 SWAP1 SUB ADD DUP2 DUP7 DUP1 EXTCODESIZE ISZERO DUP1 ISZERO PUSH2 0xCAA JUMPI PUSH1 0x0 DUP1 REVERT JUMPDEST POP GAS STATICCALL ISZERO DUP1 ISZERO PUSH2 0xCBE JUMPI RETURNDATASIZE PUSH1 0x0 DUP1 RETURNDATACOPY RETURNDATASIZE PUSH1 0x0 REVERT JUMPDEST POP POP POP POP PUSH1 0x40 MLOAD RETURNDATASIZE PUSH1 0x20 DUP2 LT ISZERO PUSH2 0xCD4 JUMPI PUSH1 0x0 DUP1 REVERT JUMPDEST POP MLOAD PUSH1 0x40 DUP1 MLOAD PUSH4 0x313CE567 PUSH1 0xE0 SHL DUP2 MSTORE SWAP1 MLOAD SWAP2 SWAP3 POP DUP4 SWAP2 DUP4 SWAP2 PUSH1 0x0 SWAP2 PUSH1 0x1 PUSH1 0x1 PUSH1 0xA0 SHL SUB DUP6 AND SWAP2 PUSH4 0x313CE567 SWAP2 PUSH1 0x4 DUP1 DUP4 ADD SWAP3 PUSH1 0x20 SWAP3 SWAP2 SWAP1 DUP3 SWAP1 SUB ADD DUP2 DUP7 DUP1 EXTCODESIZE ISZERO DUP1 ISZERO PUSH2 0xD20 JUMPI PUSH1 0x0 DUP1 REVERT JUMPDEST POP GAS STATICCALL ISZERO DUP1 ISZERO PUSH2 0xD34 JUMPI RETURNDATASIZE PUSH1 0x0 DUP1 RETURNDATACOPY RETURNDATASIZE PUSH1 0x0 REVERT JUMPDEST POP POP POP POP PUSH1 0x40 MLOAD RETURNDATASIZE PUSH1 0x20 DUP2 LT ISZERO PUSH2 0xD4A JUMPI PUSH1 0x0 DUP1 REVERT JUMPDEST POP MLOAD PUSH1 0x40 DUP1 MLOAD PUSH4 0x313CE567 PUSH1 0xE0 SHL DUP2 MSTORE SWAP1 MLOAD SWAP2 SWAP3 POP PUSH1 0x0 SWAP2 PUSH1 0x1 PUSH1 0x1 PUSH1 0xA0 SHL SUB DUP6 AND SWAP2 PUSH4 0x313CE567 SWAP2 PUSH1 0x4 DUP1 DUP4 ADD SWAP3 PUSH1 0x20 SWAP3 SWAP2 SWAP1 DUP3 SWAP1 SUB ADD DUP2 DUP7 DUP1 EXTCODESIZE ISZERO DUP1 ISZERO PUSH2 0xD92 JUMPI PUSH1 0x0 DUP1 REVERT JUMPDEST POP GAS STATICCALL ISZERO DUP1 ISZERO PUSH2 0xDA6 JUMPI RETURNDATASIZE PUSH1 0x0 DUP1 RETURNDATACOPY RETURNDATASIZE PUSH1 0x0 REVERT JUMPDEST POP POP POP POP PUSH1 0x40 MLOAD RETURNDATASIZE PUSH1 0x20 DUP2 LT ISZERO PUSH2 0xDBC JUMPI PUSH1 0x0 DUP1 REVERT JUMPDEST POP MLOAD SWAP1 POP PUSH1 0x0 PUSH2 0xDCB DUP8 PUSH2 0xED0 JUMP JUMPDEST SWAP1 POP PUSH1 0x0 PUSH2 0xDD8 DUP8 PUSH2 0xED0 JUMP JUMPDEST SWAP1 POP PUSH1 0x0 DUP1 DUP11 PUSH1 0x1 PUSH1 0x1 PUSH1 0xA0 SHL SUB AND PUSH4 0x902F1AC PUSH1 0x40 MLOAD DUP2 PUSH4 0xFFFFFFFF AND PUSH1 0xE0 SHL DUP2 MSTORE PUSH1 0x4 ADD PUSH1 0x60 PUSH1 0x40 MLOAD DUP1 DUP4 SUB DUP2 DUP7 DUP1 EXTCODESIZE ISZERO DUP1 ISZERO PUSH2 0xE16 JUMPI PUSH1 0x0 DUP1 REVERT JUMPDEST POP GAS STATICCALL ISZERO DUP1 ISZERO PUSH2 0xE2A JUMPI RETURNDATASIZE PUSH1 0x0 DUP1 RETURNDATACOPY RETURNDATASIZE PUSH1 0x0 REVERT JUMPDEST POP POP POP POP PUSH1 0x40 MLOAD RETURNDATASIZE PUSH1 0x60 DUP2 LT ISZERO PUSH2 0xE40 JUMPI PUSH1 0x0 DUP1 REVERT JUMPDEST POP DUP1 MLOAD PUSH1 0x20 SWAP1 SWAP2 ADD MLOAD SWAP1 SWAP3 POP SWAP1 POP PUSH1 0x0 DUP4 PUSH1 0xFF DUP1 DUP9 AND PUSH1 0xA EXP AND PUSH1 0x1 PUSH1 0x1 PUSH1 0x70 SHL SUB DUP5 AND DUP2 PUSH2 0xE6B JUMPI INVALID JUMPDEST DIV PUSH1 0x1 PUSH1 0x1 PUSH1 0x70 SHL SUB AND MUL DUP6 DUP9 PUSH1 0xFF AND PUSH1 0xA EXP PUSH1 0xFF AND DUP6 PUSH1 0x1 PUSH1 0x1 PUSH1 0x70 SHL SUB AND DUP2 PUSH2 0xE92 JUMPI INVALID JUMPDEST DIV PUSH1 0x1 PUSH1 0x1 PUSH1 0x70 SHL SUB AND MUL ADD SWAP15 SWAP14 POP POP POP POP POP POP POP POP POP POP POP POP POP POP JUMP JUMPDEST PUSH1 0x5 SLOAD PUSH1 0x0 SWAP1 PUSH2 0xECA SWAP1 DUP4 SWAP1 PUSH1 0x1 PUSH1 0x1 PUSH1 0xA0 SHL SUB AND PUSH2 0x34A JUMP JUMPDEST SWAP3 SWAP2 POP POP JUMP JUMPDEST PUSH1 0x0 PUSH2 0xEDB DUP3 PUSH2 0x2AE JUMP JUMPDEST ISZERO PUSH2 0xEF0 JUMPI PUSH2 0xEE9 DUP3 PUSH2 0xA02 JUMP JUMPDEST SWAP1 POP PUSH2 0x327 JUMP JUMPDEST PUSH2 0xECA DUP3 PUSH2 0xEB0 JUMP JUMPDEST PUSH1 0x1 SLOAD PUSH1 0x1 PUSH1 0x1 PUSH1 0xA0 SHL SUB AND DUP2 JUMP JUMPDEST PUSH1 0x0 DUP1 DUP3 SWAP1 POP PUSH1 0x0 DUP2 PUSH1 0x1 PUSH1 0x1 PUSH1 0xA0 SHL SUB AND PUSH4 0xC45A0155 PUSH1 0x40 MLOAD DUP2 PUSH4 0xFFFFFFFF AND PUSH1 0xE0 SHL DUP2 MSTORE PUSH1 0x4 ADD PUSH1 0x20 PUSH1 0x40 MLOAD DUP1 DUP4 SUB DUP2 DUP7 DUP1 EXTCODESIZE ISZERO DUP1 ISZERO PUSH2 0xF49 JUMPI PUSH1 0x0 DUP1 REVERT JUMPDEST POP GAS STATICCALL ISZERO DUP1 ISZERO PUSH2 0xF5D JUMPI RETURNDATASIZE PUSH1 0x0 DUP1 RETURNDATACOPY RETURNDATASIZE PUSH1 0x0 REVERT JUMPDEST POP POP POP POP PUSH1 0x40 MLOAD RETURNDATASIZE PUSH1 0x20 DUP2 LT ISZERO PUSH2 0xF73 JUMPI PUSH1 0x0 DUP1 REVERT JUMPDEST POP MLOAD PUSH1 0x1 SLOAD SWAP1 SWAP2 POP PUSH1 0x1 PUSH1 0x1 PUSH1 0xA0 SHL SUB DUP1 DUP4 AND SWAP2 AND EQ ISZERO PUSH2 0xFA3 JUMPI POP POP PUSH1 0x6 SLOAD PUSH1 0x1 PUSH1 0x1 PUSH1 0xA0 SHL SUB AND SWAP1 POP PUSH2 0x327 JUMP JUMPDEST PUSH1 0x3 SLOAD PUSH1 0x1 PUSH1 0x1 PUSH1 0xA0 SHL SUB DUP3 DUP2 AND SWAP2 AND EQ ISZERO PUSH2 0xEA JUMPI POP POP PUSH1 0x7 SLOAD PUSH1 0x1 PUSH1 0x1 PUSH1 0xA0 SHL SUB AND SWAP1 POP PUSH2 0x327 JUMP INVALID LOG2 PUSH5 0x6970667358 0x22 SLT KECCAK256 SHL 0xB0 LT 0xC4 KECCAK256 0xD7 SELFBALANCE SWAP12 CREATE2 NOT 0xB1 OR 0xB2 0x2C 0xC1 PUSH4 0x6AAD2932 0xB0 DUP11 0xDC 0xED CALLVALUE LOG2 0xD7 0xBF PUSH3 0x3B016 PUSH5 0x736F6C6343 STOP MOD 0xC STOP CALLER ",
  "sha1": "1da8cfb912654843b5c0fb253ca22fed9bef9a83",
  "source": "// SPDX-License-Identifier: GPL-3.0-only\npragma solidity 0.6.12;\n\nimport \"../interfaces/IERC20.sol\";\n\n\ninterface PriceRouter {\n    function getAmountsOut(uint256 amountIn, address[] calldata path)\n        external\n        view\n        returns (uint256[] memory amounts);\n    function WETH() external view returns (address);\n}\n\ninterface Pair {\n    function factory() external view returns (address);\n    function token0() external view returns (address);\n    function token1() external view returns (address);\n    function totalSupply() external view returns (uint256);\n    function decimals() external view returns (uint8);\n    function getReserves()\n        external\n        view\n        returns (\n            uint112,\n            uint112,\n            uint32\n        );\n}\n\n\ncontract CalculationsSushiswap {\n    address public primaryRouterAddress;\n    address public primaryFactoryAddress;\n    address public secondaryRouterAddress;\n    address public secondaryFactoryAddress;\n    address public wethAddress;\n    address public usdcAddress;\n    PriceRouter primaryRouter;\n    PriceRouter secondaryRouter;\n\n    address ethAddress = 0xEeeeeEeeeEeEeeEeEeEeeEEEeeeeEeeeeeeeEEeE;\n    address zeroAddress = 0x0000000000000000000000000000000000000000;\n\n    constructor(\n        address _primaryRouterAddress,\n        address _primaryFactoryAddress,\n        address _secondaryRouterAddress,\n        address _secondaryFactoryAddress,\n        address _usdcAddress\n    ) public {\n        primaryRouterAddress = _primaryRouterAddress;\n        primaryFactoryAddress = _primaryFactoryAddress;\n        secondaryRouterAddress = _secondaryRouterAddress;\n        secondaryFactoryAddress = _secondaryFactoryAddress;\n        usdcAddress = _usdcAddress;\n        primaryRouter = PriceRouter(primaryRouterAddress);\n        secondaryRouter = PriceRouter(secondaryRouterAddress);\n        wethAddress = primaryRouter.WETH();\n    }\n\n  function getNormalizedValueUsdc(address tokenAddress, uint256 amount)\n        external\n        view\n        returns (uint256)\n    {\n        IERC20 token = IERC20(tokenAddress);\n        uint256 tokenDecimals = token.decimals();\n\n        uint256 usdcDecimals = 6;\n        uint256 decimalsAdjustment;\n        if (tokenDecimals >= usdcDecimals) {\n            decimalsAdjustment = tokenDecimals - usdcDecimals;\n        } else {\n            decimalsAdjustment = usdcDecimals - tokenDecimals;\n        }\n        uint256 price = getPriceUsdc(tokenAddress);\n        uint256 value;\n        if (decimalsAdjustment > 0) {\n            value =\n                (amount * price * (10**decimalsAdjustment)) /\n                10**(decimalsAdjustment + tokenDecimals);\n        } else {\n            value = (amount * price) / 10**usdcDecimals;\n        }\n        return value;\n    }\n\n\n    // Uniswap/Sushiswap\n    function getPriceUsdc(address tokenAddress) public view returns (uint256) {\n        if (isLpToken(tokenAddress)) {\n            return getLpTokenPriceUsdc(tokenAddress);\n        }\n        return getPriceFromRouterUsdc(tokenAddress);\n    }\n\n    function getPriceFromRouter(address token0Address, address token1Address)\n        public\n        view\n        returns (uint256)\n    {\n        // Convert ETH address (0xEeee...) to WETH\n        if (token0Address == ethAddress) {\n            token0Address = wethAddress;\n        }\n        if (token1Address == ethAddress) {\n            token1Address = wethAddress;\n        }\n\n        address[] memory path;\n        uint8 numberOfJumps;\n        bool inputTokenIsWeth =\n            token0Address == wethAddress || token1Address == wethAddress;\n        if (inputTokenIsWeth) {\n            // path = [token0, weth] or [weth, token1]\n            numberOfJumps = 1;\n            path = new address[](numberOfJumps + 1);\n            path[0] = token0Address;\n            path[1] = token1Address;\n        } else {\n            // path = [token0, weth, token1]\n            numberOfJumps = 2;\n            path = new address[](numberOfJumps + 1);\n            path[0] = token0Address;\n            path[1] = wethAddress;\n            path[2] = token1Address;\n        }\n\n        IERC20 token0 = IERC20(token0Address);\n        uint256 amountIn = 10**uint256(token0.decimals());\n        uint256[] memory amountsOut;\n\n        bool fallbackRouterExists = secondaryRouterAddress != zeroAddress;\n        if (fallbackRouterExists) {\n            try primaryRouter.getAmountsOut(amountIn, path) returns (\n                uint256[] memory _amountsOut\n            ) {\n                amountsOut = _amountsOut;\n            } catch {\n                amountsOut = secondaryRouter.getAmountsOut(amountIn, path);\n            }\n        } else {\n            amountsOut = primaryRouter.getAmountsOut(amountIn, path);\n        }\n\n        // Return raw price (without fees)\n        uint256 amountOut = amountsOut[amountsOut.length - 1];\n        uint256 feeBips = 30; // .3% per swap\n        amountOut = (amountOut * 10000) / (10000 - (feeBips * numberOfJumps));\n        return amountOut;\n    }\n\n\n\n    function getPriceFromRouterUsdc(address tokenAddress)\n        public\n        view\n        returns (uint256)\n    {\n        return getPriceFromRouter(tokenAddress, usdcAddress);\n    }\n\n    function isLpToken(address tokenAddress) public view returns (bool) {\n        Pair lpToken = Pair(tokenAddress);\n        try lpToken.factory() {\n            return true;\n        } catch {\n            return false;\n        }\n    }\n\n    function getRouterForLpToken(address tokenAddress)\n        public\n        view\n        returns (PriceRouter)\n    {\n        Pair lpToken = Pair(tokenAddress);\n        address factoryAddress = lpToken.factory();\n        if (factoryAddress == primaryFactoryAddress) {\n            return primaryRouter;\n        } else if (factoryAddress == secondaryFactoryAddress) {\n            return secondaryRouter;\n        }\n        revert();\n    }\n\n    function getLpTokenTotalLiquidityUsdc(address tokenAddress)\n        public\n        view\n        returns (uint256)\n    {\n        Pair pair = Pair(tokenAddress);\n        address token0Address = pair.token0();\n        address token1Address = pair.token1();\n        IERC20 token0 = IERC20(token0Address);\n        IERC20 token1 = IERC20(token1Address);\n        uint8 token0Decimals = token0.decimals();\n        uint8 token1Decimals = token1.decimals();\n        uint256 token0Price = getPriceUsdc(token0Address);\n        uint256 token1Price = getPriceUsdc(token1Address);\n        (uint112 reserve0, uint112 reserve1, ) = pair.getReserves();\n        uint256 totalLiquidity =\n            ((reserve0 / 10**token0Decimals) * token0Price) +\n                ((reserve1 / 10**token1Decimals) * token1Price);\n        return totalLiquidity;\n    }\n\n    function getLpTokenPriceUsdc(address tokenAddress)\n        public\n        view\n        returns (uint256)\n    {\n        Pair pair = Pair(tokenAddress);\n        uint256 totalLiquidity = getLpTokenTotalLiquidityUsdc(tokenAddress);\n        uint256 totalSupply = pair.totalSupply();\n        uint8 pairDecimals = pair.decimals();\n        uint256 pricePerLpTokenUsdc =\n            (totalLiquidity * 10**pairDecimals) / totalSupply;\n        return pricePerLpTokenUsdc;\n    }\n}",
  "sourcePath": "contracts/Helper/CalculationsSushiswap.sol",
  "type": "contract"
}