{
  "abi": [
    {
      "anonymous": false,
      "inputs": [
        {
          "indexed": true,
          "internalType": "string",
          "name": "_name",
          "type": "string"
        },
        {
          "indexed": false,
          "internalType": "string",
          "name": "_data",
          "type": "string"
        }
      ],
      "name": "DocumentRemoved",
      "type": "event"
    },
    {
      "anonymous": false,
      "inputs": [
        {
          "indexed": true,
          "internalType": "string",
          "name": "_name",
          "type": "string"
        },
        {
          "indexed": false,
          "internalType": "string",
          "name": "_data",
          "type": "string"
        }
      ],
      "name": "DocumentUpdated",
      "type": "event"
    },
    {
      "inputs": [],
      "name": "getAllDocuments",
      "outputs": [
        {
          "internalType": "string[]",
          "name": "",
          "type": "string[]"
        }
      ],
      "stateMutability": "view",
      "type": "function"
    },
    {
      "inputs": [
        {
          "internalType": "string",
          "name": "_name",
          "type": "string"
        }
      ],
      "name": "getDocument",
      "outputs": [
        {
          "internalType": "string",
          "name": "",
          "type": "string"
        },
        {
          "internalType": "uint256",
          "name": "",
          "type": "uint256"
        }
      ],
      "stateMutability": "view",
      "type": "function"
    },
    {
      "inputs": [],
      "name": "getDocumentCount",
      "outputs": [
        {
          "internalType": "uint256",
          "name": "",
          "type": "uint256"
        }
      ],
      "stateMutability": "view",
      "type": "function"
    },
    {
      "inputs": [
        {
          "internalType": "uint256",
          "name": "_index",
          "type": "uint256"
        }
      ],
      "name": "getDocumentName",
      "outputs": [
        {
          "internalType": "string",
          "name": "",
          "type": "string"
        }
      ],
      "stateMutability": "view",
      "type": "function"
    }
  ],
  "bytecode": "608060405234801561001057600080fd5b5061054b806100206000396000f3fe608060405234801561001057600080fd5b506004361061004c5760003560e01c80633d1c2273146100515780637ccb6a641461006f5780639fa5f50b14610090578063c6b547e6146100a5575b600080fd5b6100596100c5565b604051610066919061050c565b60405180910390f35b61008261007d366004610363565b6100cb565b6040516100669291906104bd565b6100986101b7565b6040516100669190610443565b6100b86100b33660046103d0565b61028f565b60405161006691906104a3565b60025490565b606060008084846040516100e0929190610433565b908152602001604051809103902060010160008585604051610103929190610433565b908152604080516020928190038301812054845460026101006001831615026000190190911604601f8101859004850283018501909352828252640100000000900467ffffffffffffffff1692909184918301828280156101a55780601f1061017a576101008083540402835291602001916101a5565b820191906000526020600020905b81548152906001019060200180831161018857829003601f168201915b50505050509150915091509250929050565b60606002805480602002602001604051908101604052809291908181526020016000905b828210156102865760008481526020908190208301805460408051601f60026000196101006001871615020190941693909304928301859004850281018501909152818152928301828280156102725780601f1061024757610100808354040283529160200191610272565b820191906000526020600020905b81548152906001019060200180831161025557829003601f168201915b5050505050815260200190600101906101db565b50505050905090565b60025460609082106102bc5760405162461bcd60e51b81526004016102b3906104df565b60405180910390fd5b600282815481106102c957fe5b600091825260209182902001805460408051601f60026000196101006001871615020190941693909304928301859004850281018501909152818152928301828280156103575780601f1061032c57610100808354040283529160200191610357565b820191906000526020600020905b81548152906001019060200180831161033a57829003601f168201915b50505050509050919050565b60008060208385031215610375578182fd5b823567ffffffffffffffff8082111561038c578384fd5b818501915085601f83011261039f578384fd5b8135818111156103ad578485fd5b8660208285010111156103be578485fd5b60209290920196919550909350505050565b6000602082840312156103e1578081fd5b5035919050565b60008151808452815b8181101561040d576020818501810151868301820152016103f1565b8181111561041e5782602083870101525b50601f01601f19169290920160200192915050565b6000828483379101908152919050565b6000602080830181845280855180835260408601915060408482028701019250838701855b8281101561049657603f198886030184526104848583516103e8565b94509285019290850190600101610468565b5092979650505050505050565b6000602082526104b660208301846103e8565b9392505050565b6000604082526104d060408301856103e8565b90508260208301529392505050565b602080825260139082015272496e646578206f7574206f6620626f756e647360681b604082015260600190565b9081526020019056fea26469706673582212206f0bed7a196b8133c35fca94777bbc6ffb1d81ce42ce0cc9eb9891de0ad9c43c64736f6c634300060c0033",
  "bytecodeSha1": "c37a00182be2d5f01a01f1f4251c506cf5c46dec",
  "compiler": {
    "evm_version": "istanbul",
    "optimizer": {
      "enabled": true,
      "runs": 200
    },
    "version": "0.6.12+commit.27d51765"
  },
  "contractName": "Documents",
  "language": "Solidity",
  "natspec": {
    "kind": "dev",
    "methods": {
      "getAllDocuments()": {
        "notice": "Used to retrieve a full list of documents attached to the smart contract.",
        "returns": {
          "_0": "string List of all documents names present in the contract."
        }
      },
      "getDocument(string)": {
        "notice": "Used to return the details of a document with a known name (`string`).",
        "params": {
          "_name": "Name of the document"
        },
        "returns": {
          "_0": "string The data associated with the document.",
          "_1": "uint256 the timestamp at which the document was last modified."
        }
      },
      "getDocumentCount()": {
        "notice": "Used to retrieve the total documents in the smart contract.",
        "returns": {
          "_0": "uint256 Count of the document names present in the contract."
        }
      },
      "getDocumentName(uint256)": {
        "notice": "Used to retrieve the document name from index in the smart contract.",
        "returns": {
          "_0": "string Name of the document name."
        }
      }
    },
    "title": "Standard implementation of ERC1643 Document management",
    "version": 1
  },
  "opcodes": "PUSH1 0x80 PUSH1 0x40 MSTORE CALLVALUE DUP1 ISZERO PUSH2 0x10 JUMPI PUSH1 0x0 DUP1 REVERT JUMPDEST POP PUSH1 0x4 CALLDATASIZE LT PUSH2 0x4C JUMPI PUSH1 0x0 CALLDATALOAD PUSH1 0xE0 SHR DUP1 PUSH4 0x3D1C2273 EQ PUSH2 0x51 JUMPI DUP1 PUSH4 0x7CCB6A64 EQ PUSH2 0x6F JUMPI DUP1 PUSH4 0x9FA5F50B EQ PUSH2 0x90 JUMPI DUP1 PUSH4 0xC6B547E6 EQ PUSH2 0xA5 JUMPI JUMPDEST PUSH1 0x0 DUP1 REVERT JUMPDEST PUSH2 0x59 PUSH2 0xC5 JUMP JUMPDEST PUSH1 0x40 MLOAD PUSH2 0x66 SWAP2 SWAP1 PUSH2 0x50C JUMP JUMPDEST PUSH1 0x40 MLOAD DUP1 SWAP2 SUB SWAP1 RETURN JUMPDEST PUSH2 0x82 PUSH2 0x7D CALLDATASIZE PUSH1 0x4 PUSH2 0x363 JUMP JUMPDEST PUSH2 0xCB JUMP JUMPDEST PUSH1 0x40 MLOAD PUSH2 0x66 SWAP3 SWAP2 SWAP1 PUSH2 0x4BD JUMP JUMPDEST PUSH2 0x98 PUSH2 0x1B7 JUMP JUMPDEST PUSH1 0x40 MLOAD PUSH2 0x66 SWAP2 SWAP1 PUSH2 0x443 JUMP JUMPDEST PUSH2 0xB8 PUSH2 0xB3 CALLDATASIZE PUSH1 0x4 PUSH2 0x3D0 JUMP JUMPDEST PUSH2 0x28F JUMP JUMPDEST PUSH1 0x40 MLOAD PUSH2 0x66 SWAP2 SWAP1 PUSH2 0x4A3 JUMP JUMPDEST PUSH1 0x2 SLOAD SWAP1 JUMP JUMPDEST PUSH1 0x60 PUSH1 0x0 DUP1 DUP5 DUP5 PUSH1 0x40 MLOAD PUSH2 0xE0 SWAP3 SWAP2 SWAP1 PUSH2 0x433 JUMP JUMPDEST SWAP1 DUP2 MSTORE PUSH1 0x20 ADD PUSH1 0x40 MLOAD DUP1 SWAP2 SUB SWAP1 KECCAK256 PUSH1 0x1 ADD PUSH1 0x0 DUP6 DUP6 PUSH1 0x40 MLOAD PUSH2 0x103 SWAP3 SWAP2 SWAP1 PUSH2 0x433 JUMP JUMPDEST SWAP1 DUP2 MSTORE PUSH1 0x40 DUP1 MLOAD PUSH1 0x20 SWAP3 DUP2 SWAP1 SUB DUP4 ADD DUP2 KECCAK256 SLOAD DUP5 SLOAD PUSH1 0x2 PUSH2 0x100 PUSH1 0x1 DUP4 AND ISZERO MUL PUSH1 0x0 NOT ADD SWAP1 SWAP2 AND DIV PUSH1 0x1F DUP2 ADD DUP6 SWAP1 DIV DUP6 MUL DUP4 ADD DUP6 ADD SWAP1 SWAP4 MSTORE DUP3 DUP3 MSTORE PUSH5 0x100000000 SWAP1 DIV PUSH8 0xFFFFFFFFFFFFFFFF AND SWAP3 SWAP1 SWAP2 DUP5 SWAP2 DUP4 ADD DUP3 DUP3 DUP1 ISZERO PUSH2 0x1A5 JUMPI DUP1 PUSH1 0x1F LT PUSH2 0x17A JUMPI PUSH2 0x100 DUP1 DUP4 SLOAD DIV MUL DUP4 MSTORE SWAP2 PUSH1 0x20 ADD SWAP2 PUSH2 0x1A5 JUMP JUMPDEST DUP3 ADD SWAP2 SWAP1 PUSH1 0x0 MSTORE PUSH1 0x20 PUSH1 0x0 KECCAK256 SWAP1 JUMPDEST DUP2 SLOAD DUP2 MSTORE SWAP1 PUSH1 0x1 ADD SWAP1 PUSH1 0x20 ADD DUP1 DUP4 GT PUSH2 0x188 JUMPI DUP3 SWAP1 SUB PUSH1 0x1F AND DUP3 ADD SWAP2 JUMPDEST POP POP POP POP POP SWAP2 POP SWAP2 POP SWAP2 POP SWAP3 POP SWAP3 SWAP1 POP JUMP JUMPDEST PUSH1 0x60 PUSH1 0x2 DUP1 SLOAD DUP1 PUSH1 0x20 MUL PUSH1 0x20 ADD PUSH1 0x40 MLOAD SWAP1 DUP2 ADD PUSH1 0x40 MSTORE DUP1 SWAP3 SWAP2 SWAP1 DUP2 DUP2 MSTORE PUSH1 0x20 ADD PUSH1 0x0 SWAP1 JUMPDEST DUP3 DUP3 LT ISZERO PUSH2 0x286 JUMPI PUSH1 0x0 DUP5 DUP2 MSTORE PUSH1 0x20 SWAP1 DUP2 SWAP1 KECCAK256 DUP4 ADD DUP1 SLOAD PUSH1 0x40 DUP1 MLOAD PUSH1 0x1F PUSH1 0x2 PUSH1 0x0 NOT PUSH2 0x100 PUSH1 0x1 DUP8 AND ISZERO MUL ADD SWAP1 SWAP5 AND SWAP4 SWAP1 SWAP4 DIV SWAP3 DUP4 ADD DUP6 SWAP1 DIV DUP6 MUL DUP2 ADD DUP6 ADD SWAP1 SWAP2 MSTORE DUP2 DUP2 MSTORE SWAP3 DUP4 ADD DUP3 DUP3 DUP1 ISZERO PUSH2 0x272 JUMPI DUP1 PUSH1 0x1F LT PUSH2 0x247 JUMPI PUSH2 0x100 DUP1 DUP4 SLOAD DIV MUL DUP4 MSTORE SWAP2 PUSH1 0x20 ADD SWAP2 PUSH2 0x272 JUMP JUMPDEST DUP3 ADD SWAP2 SWAP1 PUSH1 0x0 MSTORE PUSH1 0x20 PUSH1 0x0 KECCAK256 SWAP1 JUMPDEST DUP2 SLOAD DUP2 MSTORE SWAP1 PUSH1 0x1 ADD SWAP1 PUSH1 0x20 ADD DUP1 DUP4 GT PUSH2 0x255 JUMPI DUP3 SWAP1 SUB PUSH1 0x1F AND DUP3 ADD SWAP2 JUMPDEST POP POP POP POP POP DUP2 MSTORE PUSH1 0x20 ADD SWAP1 PUSH1 0x1 ADD SWAP1 PUSH2 0x1DB JUMP JUMPDEST POP POP POP POP SWAP1 POP SWAP1 JUMP JUMPDEST PUSH1 0x2 SLOAD PUSH1 0x60 SWAP1 DUP3 LT PUSH2 0x2BC JUMPI PUSH1 0x40 MLOAD PUSH3 0x461BCD PUSH1 0xE5 SHL DUP2 MSTORE PUSH1 0x4 ADD PUSH2 0x2B3 SWAP1 PUSH2 0x4DF JUMP JUMPDEST PUSH1 0x40 MLOAD DUP1 SWAP2 SUB SWAP1 REVERT JUMPDEST PUSH1 0x2 DUP3 DUP2 SLOAD DUP2 LT PUSH2 0x2C9 JUMPI INVALID JUMPDEST PUSH1 0x0 SWAP2 DUP3 MSTORE PUSH1 0x20 SWAP2 DUP3 SWAP1 KECCAK256 ADD DUP1 SLOAD PUSH1 0x40 DUP1 MLOAD PUSH1 0x1F PUSH1 0x2 PUSH1 0x0 NOT PUSH2 0x100 PUSH1 0x1 DUP8 AND ISZERO MUL ADD SWAP1 SWAP5 AND SWAP4 SWAP1 SWAP4 DIV SWAP3 DUP4 ADD DUP6 SWAP1 DIV DUP6 MUL DUP2 ADD DUP6 ADD SWAP1 SWAP2 MSTORE DUP2 DUP2 MSTORE SWAP3 DUP4 ADD DUP3 DUP3 DUP1 ISZERO PUSH2 0x357 JUMPI DUP1 PUSH1 0x1F LT PUSH2 0x32C JUMPI PUSH2 0x100 DUP1 DUP4 SLOAD DIV MUL DUP4 MSTORE SWAP2 PUSH1 0x20 ADD SWAP2 PUSH2 0x357 JUMP JUMPDEST DUP3 ADD SWAP2 SWAP1 PUSH1 0x0 MSTORE PUSH1 0x20 PUSH1 0x0 KECCAK256 SWAP1 JUMPDEST DUP2 SLOAD DUP2 MSTORE SWAP1 PUSH1 0x1 ADD SWAP1 PUSH1 0x20 ADD DUP1 DUP4 GT PUSH2 0x33A JUMPI DUP3 SWAP1 SUB PUSH1 0x1F AND DUP3 ADD SWAP2 JUMPDEST POP POP POP POP POP SWAP1 POP SWAP2 SWAP1 POP JUMP JUMPDEST PUSH1 0x0 DUP1 PUSH1 0x20 DUP4 DUP6 SUB SLT ISZERO PUSH2 0x375 JUMPI DUP2 DUP3 REVERT JUMPDEST DUP3 CALLDATALOAD PUSH8 0xFFFFFFFFFFFFFFFF DUP1 DUP3 GT ISZERO PUSH2 0x38C JUMPI DUP4 DUP5 REVERT JUMPDEST DUP2 DUP6 ADD SWAP2 POP DUP6 PUSH1 0x1F DUP4 ADD SLT PUSH2 0x39F JUMPI DUP4 DUP5 REVERT JUMPDEST DUP2 CALLDATALOAD DUP2 DUP2 GT ISZERO PUSH2 0x3AD JUMPI DUP5 DUP6 REVERT JUMPDEST DUP7 PUSH1 0x20 DUP3 DUP6 ADD ADD GT ISZERO PUSH2 0x3BE JUMPI DUP5 DUP6 REVERT JUMPDEST PUSH1 0x20 SWAP3 SWAP1 SWAP3 ADD SWAP7 SWAP2 SWAP6 POP SWAP1 SWAP4 POP POP POP POP JUMP JUMPDEST PUSH1 0x0 PUSH1 0x20 DUP3 DUP5 SUB SLT ISZERO PUSH2 0x3E1 JUMPI DUP1 DUP2 REVERT JUMPDEST POP CALLDATALOAD SWAP2 SWAP1 POP JUMP JUMPDEST PUSH1 0x0 DUP2 MLOAD DUP1 DUP5 MSTORE DUP2 JUMPDEST DUP2 DUP2 LT ISZERO PUSH2 0x40D JUMPI PUSH1 0x20 DUP2 DUP6 ADD DUP2 ADD MLOAD DUP7 DUP4 ADD DUP3 ADD MSTORE ADD PUSH2 0x3F1 JUMP JUMPDEST DUP2 DUP2 GT ISZERO PUSH2 0x41E JUMPI DUP3 PUSH1 0x20 DUP4 DUP8 ADD ADD MSTORE JUMPDEST POP PUSH1 0x1F ADD PUSH1 0x1F NOT AND SWAP3 SWAP1 SWAP3 ADD PUSH1 0x20 ADD SWAP3 SWAP2 POP POP JUMP JUMPDEST PUSH1 0x0 DUP3 DUP5 DUP4 CALLDATACOPY SWAP2 ADD SWAP1 DUP2 MSTORE SWAP2 SWAP1 POP JUMP JUMPDEST PUSH1 0x0 PUSH1 0x20 DUP1 DUP4 ADD DUP2 DUP5 MSTORE DUP1 DUP6 MLOAD DUP1 DUP4 MSTORE PUSH1 0x40 DUP7 ADD SWAP2 POP PUSH1 0x40 DUP5 DUP3 MUL DUP8 ADD ADD SWAP3 POP DUP4 DUP8 ADD DUP6 JUMPDEST DUP3 DUP2 LT ISZERO PUSH2 0x496 JUMPI PUSH1 0x3F NOT DUP9 DUP7 SUB ADD DUP5 MSTORE PUSH2 0x484 DUP6 DUP4 MLOAD PUSH2 0x3E8 JUMP JUMPDEST SWAP5 POP SWAP3 DUP6 ADD SWAP3 SWAP1 DUP6 ADD SWAP1 PUSH1 0x1 ADD PUSH2 0x468 JUMP JUMPDEST POP SWAP3 SWAP8 SWAP7 POP POP POP POP POP POP POP JUMP JUMPDEST PUSH1 0x0 PUSH1 0x20 DUP3 MSTORE PUSH2 0x4B6 PUSH1 0x20 DUP4 ADD DUP5 PUSH2 0x3E8 JUMP JUMPDEST SWAP4 SWAP3 POP POP POP JUMP JUMPDEST PUSH1 0x0 PUSH1 0x40 DUP3 MSTORE PUSH2 0x4D0 PUSH1 0x40 DUP4 ADD DUP6 PUSH2 0x3E8 JUMP JUMPDEST SWAP1 POP DUP3 PUSH1 0x20 DUP4 ADD MSTORE SWAP4 SWAP3 POP POP POP JUMP JUMPDEST PUSH1 0x20 DUP1 DUP3 MSTORE PUSH1 0x13 SWAP1 DUP3 ADD MSTORE PUSH19 0x496E646578206F7574206F6620626F756E6473 PUSH1 0x68 SHL PUSH1 0x40 DUP3 ADD MSTORE PUSH1 0x60 ADD SWAP1 JUMP JUMPDEST SWAP1 DUP2 MSTORE PUSH1 0x20 ADD SWAP1 JUMP INVALID LOG2 PUSH5 0x6970667358 0x22 SLT KECCAK256 PUSH16 0xBED7A196B8133C35FCA94777BBC6FFB SAR DUP2 0xCE TIMESTAMP 0xCE 0xC 0xC9 0xEB SWAP9 SWAP2 0xDE EXP 0xD9 0xC4 EXTCODECOPY PUSH5 0x736F6C6343 STOP MOD 0xC STOP CALLER ",
  "sha1": "dfd7d81c3408fa783e2a0601147fa72507163620",
  "source": "pragma solidity 0.6.12;\npragma experimental ABIEncoderV2;\n\n\n/**\n * @title Standard implementation of ERC1643 Document management\n */\ncontract Documents {\n\n    struct Document {\n        uint32 docIndex;    // Store the document name indexes\n        uint64 lastModified; // Timestamp at which document details was last modified\n        string data; // data of the document that exist off-chain\n    }\n\n    // mapping to store the documents details in the document\n    mapping(string => Document) internal _documents;\n    // mapping to store the document name indexes\n    mapping(string => uint32) internal _docIndexes;\n    // Array use to store all the document name present in the contracts\n    string[] _docNames;\n\n    // Document Events\n    event DocumentRemoved(string indexed _name, string _data);\n    event DocumentUpdated(string indexed _name, string _data);\n\n    /**\n     * @notice Used to attach a new document to the contract, or update the data or hash of an existing attached document\n     * @dev Can only be executed by the owner of the contract.\n     * @param _name Name of the document. It should be unique always\n     * @param _data Off-chain data of the document from where it is accessible to investors/advisors to read.\n     */\n    function _setDocument(string calldata _name, string calldata _data) internal {\n        require(bytes(_name).length > 0, \"Zero name is not allowed\");\n        require(bytes(_data).length > 0, \"Should not be a empty data\");\n        // Document storage document = _documents[_name];\n        if (_documents[_name].lastModified == uint64(0)) {\n            _docNames.push(_name);\n            _documents[_name].docIndex = uint32(_docNames.length);\n        }\n        _documents[_name] = Document(_documents[_name].docIndex, uint64(now), _data);\n        emit DocumentUpdated(_name, _data);\n    }\n\n    /**\n     * @notice Used to remove an existing document from the contract by giving the name of the document.\n     * @dev Can only be executed by the owner of the contract.\n     * @param _name Name of the document. It should be unique always\n     */\n\n    function _removeDocument(string calldata _name) internal {\n        require(_documents[_name].lastModified != uint64(0), \"Document should exist\");\n        uint32 index = _documents[_name].docIndex - 1;\n        if (index != _docNames.length - 1) {\n            _docNames[index] = _docNames[_docNames.length - 1];\n            _documents[_docNames[index]].docIndex = index + 1; \n        }\n        _docNames.pop();\n        emit DocumentRemoved(_name, _documents[_name].data);\n        delete _documents[_name];\n    }\n\n    /**\n     * @notice Used to return the details of a document with a known name (`string`).\n     * @param _name Name of the document\n     * @return string The data associated with the document.\n     * @return uint256 the timestamp at which the document was last modified.\n     */\n    function getDocument(string calldata _name) external view returns (string memory, uint256) {\n        return (\n            _documents[_name].data,\n            uint256(_documents[_name].lastModified)\n        );\n    }\n\n    /**\n     * @notice Used to retrieve a full list of documents attached to the smart contract.\n     * @return string List of all documents names present in the contract.\n     */\n    function getAllDocuments() external view returns (string[] memory) {\n        return _docNames;\n    }\n\n    /**\n     * @notice Used to retrieve the total documents in the smart contract.\n     * @return uint256 Count of the document names present in the contract.\n     */\n    function getDocumentCount() external view returns (uint256) {\n        return _docNames.length;\n    }\n\n    /**\n     * @notice Used to retrieve the document name from index in the smart contract.\n     * @return string Name of the document name.\n     */\n    function getDocumentName(uint256 _index) external view returns (string memory) {\n        require(_index < _docNames.length, \"Index out of bounds\");\n        return _docNames[_index];\n    }\n\n}\n",
  "sourcePath": "contracts/Utils/Documents.sol",
  "type": "contract"
}