{
  "abi": [
    {
      "inputs": [],
      "name": "accessControls",
      "outputs": [
        {
          "internalType": "contract MISOAccessControls",
          "name": "",
          "type": "address"
        }
      ],
      "stateMutability": "view",
      "type": "function"
    },
    {
      "inputs": [
        {
          "internalType": "address",
          "name": "_token",
          "type": "address"
        },
        {
          "internalType": "address",
          "name": "_owner",
          "type": "address"
        },
        {
          "internalType": "address",
          "name": "_spender",
          "type": "address"
        }
      ],
      "name": "allowance",
      "outputs": [
        {
          "internalType": "uint256",
          "name": "",
          "type": "uint256"
        }
      ],
      "stateMutability": "view",
      "type": "function"
    },
    {
      "inputs": [],
      "name": "farmFactory",
      "outputs": [
        {
          "internalType": "contract IMisoFarmFactory",
          "name": "",
          "type": "address"
        }
      ],
      "stateMutability": "view",
      "type": "function"
    },
    {
      "inputs": [
        {
          "internalType": "address",
          "name": "_farm",
          "type": "address"
        },
        {
          "internalType": "address",
          "name": "_user",
          "type": "address"
        }
      ],
      "name": "getFarmDetail",
      "outputs": [
        {
          "components": [
            {
              "internalType": "address",
              "name": "addr",
              "type": "address"
            },
            {
              "internalType": "uint256",
              "name": "templateId",
              "type": "uint256"
            },
            {
              "internalType": "uint256",
              "name": "rewardsPerBlock",
              "type": "uint256"
            },
            {
              "internalType": "uint256",
              "name": "bonusMultiplier",
              "type": "uint256"
            },
            {
              "components": [
                {
                  "internalType": "address",
                  "name": "addr",
                  "type": "address"
                },
                {
                  "internalType": "uint256",
                  "name": "decimals",
                  "type": "uint256"
                },
                {
                  "internalType": "string",
                  "name": "name",
                  "type": "string"
                },
                {
                  "internalType": "string",
                  "name": "symbol",
                  "type": "string"
                }
              ],
              "internalType": "struct TokenHelper.TokenInfo",
              "name": "rewardToken",
              "type": "tuple"
            },
            {
              "components": [
                {
                  "internalType": "address",
                  "name": "lpToken",
                  "type": "address"
                },
                {
                  "internalType": "uint256",
                  "name": "allocPoint",
                  "type": "uint256"
                },
                {
                  "internalType": "uint256",
                  "name": "lastRewardBlock",
                  "type": "uint256"
                },
                {
                  "internalType": "uint256",
                  "name": "accRewardsPerShare",
                  "type": "uint256"
                },
                {
                  "internalType": "uint256",
                  "name": "totalStaked",
                  "type": "uint256"
                },
                {
                  "components": [
                    {
                      "internalType": "address",
                      "name": "addr",
                      "type": "address"
                    },
                    {
                      "internalType": "uint256",
                      "name": "decimals",
                      "type": "uint256"
                    },
                    {
                      "internalType": "string",
                      "name": "name",
                      "type": "string"
                    },
                    {
                      "internalType": "string",
                      "name": "symbol",
                      "type": "string"
                    }
                  ],
                  "internalType": "struct TokenHelper.TokenInfo",
                  "name": "stakingToken",
                  "type": "tuple"
                }
              ],
              "internalType": "struct FarmHelper.PoolInfo[]",
              "name": "pools",
              "type": "tuple[]"
            }
          ],
          "internalType": "struct FarmHelper.FarmInfo",
          "name": "farmInfo",
          "type": "tuple"
        },
        {
          "components": [
            {
              "internalType": "address",
              "name": "farm",
              "type": "address"
            },
            {
              "internalType": "uint256",
              "name": "pid",
              "type": "uint256"
            },
            {
              "internalType": "uint256",
              "name": "totalStaked",
              "type": "uint256"
            },
            {
              "internalType": "uint256",
              "name": "lpBalance",
              "type": "uint256"
            },
            {
              "internalType": "uint256",
              "name": "lpAllowance",
              "type": "uint256"
            },
            {
              "internalType": "uint256",
              "name": "rewardDebt",
              "type": "uint256"
            },
            {
              "internalType": "uint256",
              "name": "pendingRewards",
              "type": "uint256"
            }
          ],
          "internalType": "struct FarmHelper.UserPoolInfo[]",
          "name": "userInfos",
          "type": "tuple[]"
        }
      ],
      "stateMutability": "view",
      "type": "function"
    },
    {
      "inputs": [
        {
          "internalType": "uint256",
          "name": "pageSize",
          "type": "uint256"
        },
        {
          "internalType": "uint256",
          "name": "pageNbr",
          "type": "uint256"
        },
        {
          "internalType": "uint256",
          "name": "offset",
          "type": "uint256"
        }
      ],
      "name": "getFarms",
      "outputs": [
        {
          "components": [
            {
              "internalType": "address",
              "name": "addr",
              "type": "address"
            },
            {
              "internalType": "uint256",
              "name": "templateId",
              "type": "uint256"
            },
            {
              "internalType": "uint256",
              "name": "rewardsPerBlock",
              "type": "uint256"
            },
            {
              "internalType": "uint256",
              "name": "bonusMultiplier",
              "type": "uint256"
            },
            {
              "components": [
                {
                  "internalType": "address",
                  "name": "addr",
                  "type": "address"
                },
                {
                  "internalType": "uint256",
                  "name": "decimals",
                  "type": "uint256"
                },
                {
                  "internalType": "string",
                  "name": "name",
                  "type": "string"
                },
                {
                  "internalType": "string",
                  "name": "symbol",
                  "type": "string"
                }
              ],
              "internalType": "struct TokenHelper.TokenInfo",
              "name": "rewardToken",
              "type": "tuple"
            },
            {
              "components": [
                {
                  "internalType": "address",
                  "name": "lpToken",
                  "type": "address"
                },
                {
                  "internalType": "uint256",
                  "name": "allocPoint",
                  "type": "uint256"
                },
                {
                  "internalType": "uint256",
                  "name": "lastRewardBlock",
                  "type": "uint256"
                },
                {
                  "internalType": "uint256",
                  "name": "accRewardsPerShare",
                  "type": "uint256"
                },
                {
                  "internalType": "uint256",
                  "name": "totalStaked",
                  "type": "uint256"
                },
                {
                  "components": [
                    {
                      "internalType": "address",
                      "name": "addr",
                      "type": "address"
                    },
                    {
                      "internalType": "uint256",
                      "name": "decimals",
                      "type": "uint256"
                    },
                    {
                      "internalType": "string",
                      "name": "name",
                      "type": "string"
                    },
                    {
                      "internalType": "string",
                      "name": "symbol",
                      "type": "string"
                    }
                  ],
                  "internalType": "struct TokenHelper.TokenInfo",
                  "name": "stakingToken",
                  "type": "tuple"
                }
              ],
              "internalType": "struct FarmHelper.PoolInfo[]",
              "name": "pools",
              "type": "tuple[]"
            }
          ],
          "internalType": "struct FarmHelper.FarmInfo[]",
          "name": "",
          "type": "tuple[]"
        }
      ],
      "stateMutability": "view",
      "type": "function"
    },
    {
      "inputs": [],
      "name": "getFarms",
      "outputs": [
        {
          "components": [
            {
              "internalType": "address",
              "name": "addr",
              "type": "address"
            },
            {
              "internalType": "uint256",
              "name": "templateId",
              "type": "uint256"
            },
            {
              "internalType": "uint256",
              "name": "rewardsPerBlock",
              "type": "uint256"
            },
            {
              "internalType": "uint256",
              "name": "bonusMultiplier",
              "type": "uint256"
            },
            {
              "components": [
                {
                  "internalType": "address",
                  "name": "addr",
                  "type": "address"
                },
                {
                  "internalType": "uint256",
                  "name": "decimals",
                  "type": "uint256"
                },
                {
                  "internalType": "string",
                  "name": "name",
                  "type": "string"
                },
                {
                  "internalType": "string",
                  "name": "symbol",
                  "type": "string"
                }
              ],
              "internalType": "struct TokenHelper.TokenInfo",
              "name": "rewardToken",
              "type": "tuple"
            },
            {
              "components": [
                {
                  "internalType": "address",
                  "name": "lpToken",
                  "type": "address"
                },
                {
                  "internalType": "uint256",
                  "name": "allocPoint",
                  "type": "uint256"
                },
                {
                  "internalType": "uint256",
                  "name": "lastRewardBlock",
                  "type": "uint256"
                },
                {
                  "internalType": "uint256",
                  "name": "accRewardsPerShare",
                  "type": "uint256"
                },
                {
                  "internalType": "uint256",
                  "name": "totalStaked",
                  "type": "uint256"
                },
                {
                  "components": [
                    {
                      "internalType": "address",
                      "name": "addr",
                      "type": "address"
                    },
                    {
                      "internalType": "uint256",
                      "name": "decimals",
                      "type": "uint256"
                    },
                    {
                      "internalType": "string",
                      "name": "name",
                      "type": "string"
                    },
                    {
                      "internalType": "string",
                      "name": "symbol",
                      "type": "string"
                    }
                  ],
                  "internalType": "struct TokenHelper.TokenInfo",
                  "name": "stakingToken",
                  "type": "tuple"
                }
              ],
              "internalType": "struct FarmHelper.PoolInfo[]",
              "name": "pools",
              "type": "tuple[]"
            }
          ],
          "internalType": "struct FarmHelper.FarmInfo[]",
          "name": "",
          "type": "tuple[]"
        }
      ],
      "stateMutability": "view",
      "type": "function"
    },
    {
      "inputs": [
        {
          "internalType": "uint256",
          "name": "pageSize",
          "type": "uint256"
        },
        {
          "internalType": "uint256",
          "name": "pageNbr",
          "type": "uint256"
        }
      ],
      "name": "getFarms",
      "outputs": [
        {
          "components": [
            {
              "internalType": "address",
              "name": "addr",
              "type": "address"
            },
            {
              "internalType": "uint256",
              "name": "templateId",
              "type": "uint256"
            },
            {
              "internalType": "uint256",
              "name": "rewardsPerBlock",
              "type": "uint256"
            },
            {
              "internalType": "uint256",
              "name": "bonusMultiplier",
              "type": "uint256"
            },
            {
              "components": [
                {
                  "internalType": "address",
                  "name": "addr",
                  "type": "address"
                },
                {
                  "internalType": "uint256",
                  "name": "decimals",
                  "type": "uint256"
                },
                {
                  "internalType": "string",
                  "name": "name",
                  "type": "string"
                },
                {
                  "internalType": "string",
                  "name": "symbol",
                  "type": "string"
                }
              ],
              "internalType": "struct TokenHelper.TokenInfo",
              "name": "rewardToken",
              "type": "tuple"
            },
            {
              "components": [
                {
                  "internalType": "address",
                  "name": "lpToken",
                  "type": "address"
                },
                {
                  "internalType": "uint256",
                  "name": "allocPoint",
                  "type": "uint256"
                },
                {
                  "internalType": "uint256",
                  "name": "lastRewardBlock",
                  "type": "uint256"
                },
                {
                  "internalType": "uint256",
                  "name": "accRewardsPerShare",
                  "type": "uint256"
                },
                {
                  "internalType": "uint256",
                  "name": "totalStaked",
                  "type": "uint256"
                },
                {
                  "components": [
                    {
                      "internalType": "address",
                      "name": "addr",
                      "type": "address"
                    },
                    {
                      "internalType": "uint256",
                      "name": "decimals",
                      "type": "uint256"
                    },
                    {
                      "internalType": "string",
                      "name": "name",
                      "type": "string"
                    },
                    {
                      "internalType": "string",
                      "name": "symbol",
                      "type": "string"
                    }
                  ],
                  "internalType": "struct TokenHelper.TokenInfo",
                  "name": "stakingToken",
                  "type": "tuple"
                }
              ],
              "internalType": "struct FarmHelper.PoolInfo[]",
              "name": "pools",
              "type": "tuple[]"
            }
          ],
          "internalType": "struct FarmHelper.FarmInfo[]",
          "name": "",
          "type": "tuple[]"
        }
      ],
      "stateMutability": "view",
      "type": "function"
    },
    {
      "inputs": [
        {
          "internalType": "address",
          "name": "_farm",
          "type": "address"
        }
      ],
      "name": "getPools",
      "outputs": [
        {
          "components": [
            {
              "internalType": "address",
              "name": "lpToken",
              "type": "address"
            },
            {
              "internalType": "uint256",
              "name": "allocPoint",
              "type": "uint256"
            },
            {
              "internalType": "uint256",
              "name": "lastRewardBlock",
              "type": "uint256"
            },
            {
              "internalType": "uint256",
              "name": "accRewardsPerShare",
              "type": "uint256"
            },
            {
              "internalType": "uint256",
              "name": "totalStaked",
              "type": "uint256"
            },
            {
              "components": [
                {
                  "internalType": "address",
                  "name": "addr",
                  "type": "address"
                },
                {
                  "internalType": "uint256",
                  "name": "decimals",
                  "type": "uint256"
                },
                {
                  "internalType": "string",
                  "name": "name",
                  "type": "string"
                },
                {
                  "internalType": "string",
                  "name": "symbol",
                  "type": "string"
                }
              ],
              "internalType": "struct TokenHelper.TokenInfo",
              "name": "stakingToken",
              "type": "tuple"
            }
          ],
          "internalType": "struct FarmHelper.PoolInfo[]",
          "name": "",
          "type": "tuple[]"
        }
      ],
      "stateMutability": "view",
      "type": "function"
    },
    {
      "inputs": [
        {
          "internalType": "address",
          "name": "_address",
          "type": "address"
        }
      ],
      "name": "getTokenInfo",
      "outputs": [
        {
          "components": [
            {
              "internalType": "address",
              "name": "addr",
              "type": "address"
            },
            {
              "internalType": "uint256",
              "name": "decimals",
              "type": "uint256"
            },
            {
              "internalType": "string",
              "name": "name",
              "type": "string"
            },
            {
              "internalType": "string",
              "name": "symbol",
              "type": "string"
            }
          ],
          "internalType": "struct TokenHelper.TokenInfo",
          "name": "",
          "type": "tuple"
        }
      ],
      "stateMutability": "view",
      "type": "function"
    },
    {
      "inputs": [
        {
          "internalType": "address[]",
          "name": "addresses",
          "type": "address[]"
        }
      ],
      "name": "getTokensInfo",
      "outputs": [
        {
          "components": [
            {
              "internalType": "address",
              "name": "addr",
              "type": "address"
            },
            {
              "internalType": "uint256",
              "name": "decimals",
              "type": "uint256"
            },
            {
              "internalType": "string",
              "name": "name",
              "type": "string"
            },
            {
              "internalType": "string",
              "name": "symbol",
              "type": "string"
            }
          ],
          "internalType": "struct TokenHelper.TokenInfo[]",
          "name": "",
          "type": "tuple[]"
        }
      ],
      "stateMutability": "view",
      "type": "function"
    },
    {
      "inputs": [
        {
          "internalType": "address",
          "name": "_user",
          "type": "address"
        }
      ],
      "name": "getUserPoolsInfos",
      "outputs": [
        {
          "components": [
            {
              "internalType": "address",
              "name": "farm",
              "type": "address"
            },
            {
              "internalType": "uint256[]",
              "name": "pids",
              "type": "uint256[]"
            },
            {
              "internalType": "uint256[]",
              "name": "totalStaked",
              "type": "uint256[]"
            },
            {
              "internalType": "uint256[]",
              "name": "pendingRewards",
              "type": "uint256[]"
            }
          ],
          "internalType": "struct FarmHelper.UserPoolsInfo[]",
          "name": "",
          "type": "tuple[]"
        }
      ],
      "stateMutability": "view",
      "type": "function"
    },
    {
      "inputs": [],
      "name": "launcher",
      "outputs": [
        {
          "internalType": "address",
          "name": "",
          "type": "address"
        }
      ],
      "stateMutability": "view",
      "type": "function"
    },
    {
      "inputs": [],
      "name": "market",
      "outputs": [
        {
          "internalType": "contract IMisoMarketFactory",
          "name": "",
          "type": "address"
        }
      ],
      "stateMutability": "view",
      "type": "function"
    },
    {
      "inputs": [
        {
          "internalType": "address",
          "name": "_tokenFactory",
          "type": "address"
        },
        {
          "internalType": "address",
          "name": "_market",
          "type": "address"
        },
        {
          "internalType": "address",
          "name": "_launcher",
          "type": "address"
        },
        {
          "internalType": "address",
          "name": "_farmFactory",
          "type": "address"
        }
      ],
      "name": "setContracts",
      "outputs": [],
      "stateMutability": "nonpayable",
      "type": "function"
    },
    {
      "inputs": [],
      "name": "tokenFactory",
      "outputs": [
        {
          "internalType": "contract IMisoTokenFactory",
          "name": "",
          "type": "address"
        }
      ],
      "stateMutability": "view",
      "type": "function"
    }
  ],
  "bytecode": "608060405234801561001057600080fd5b506123b3806100206000396000f3fe608060405234801561001057600080fd5b50600436106100f55760003560e01c80636d25e175116100975780639dc4ac8a116100665780639dc4ac8a14610211578063bce16f4b14610219578063bf989b6e1461022c578063e77772fe14610241576100f5565b80636d25e175146101d9578063748365ef146101e157806380f55605146101e9578063927da105146101f1576100f5565b806322aeea09116100d357806322aeea091461015857806346a0fe471461017857806356468ddf146101985780635c39f467146101b9576100f5565b80630cbf4ba7146100fa57806316eebd1e146101235780631f69565f14610138575b600080fd5b61010d610108366004611b6c565b610249565b60405161011a919061214a565b60405180910390f35b61012b610771565b60405161011a9190612056565b61014b610146366004611b6c565b610780565b60405161011a91906122c1565b61016b610166366004611e59565b610916565b60405161011a9190612084565b61018b610186366004611cbf565b610ae9565b60405161011a91906120f7565b6101ab6101a6366004611ba4565b610b8e565b60405161011a929190612233565b6101cc6101c7366004611b6c565b61112a565b60405161011a91906120e4565b61012b6113f6565b61012b611405565b61012b611414565b6102046101ff366004611bdc565b611423565b60405161011a91906122d4565b61016b6114ac565b61016b610227366004611e15565b6116d2565b61023f61023a366004611c26565b6116e9565b005b61012b61183f565b60606000600260009054906101000a90046001600160a01b03166001600160a01b0316638f5185e86040518163ffffffff1660e01b815260040160206040518083038186803b15801561029b57600080fd5b505afa1580156102af573d6000803e3d6000fd5b505050506040513d601f19601f820116820180604052508101906102d39190611dfd565b90506060816001600160401b03811180156102ed57600080fd5b5060405190808252806020026020018201604052801561032757816020015b610314611a30565b81526020019060019003908161030c5790505b50905060005b8281101561076957600254604051633ed2387560e11b81526000916001600160a01b031690637da470ea906103669085906004016122d4565b60206040518083038186803b15801561037e57600080fd5b505afa158015610392573d6000803e3d6000fd5b505050506040513d601f19601f820116820180604052508101906103b69190611b88565b905060008190506000816001600160a01b031663081e3eda6040518163ffffffff1660e01b815260040160206040518083038186803b1580156103f857600080fd5b505afa15801561040c573d6000803e3d6000fd5b505050506040513d601f19601f820116820180604052508101906104309190611dfd565b90506060816001600160401b038111801561044a57600080fd5b50604051908082528060200260200182016040528015610474578160200160208202803683370190505b5090506060826001600160401b038111801561048f57600080fd5b506040519080825280602002602001820160405280156104b9578160200160208202803683370190505b5090506060836001600160401b03811180156104d457600080fd5b506040519080825280602002602001820160405280156104fe578160200160208202803683370190505b50905060005b848110156106dd57604051631526fe2760e01b81526000906001600160a01b03881690631526fe279061053b9085906004016122d4565b60806040518083038186803b15801561055357600080fd5b505afa158015610567573d6000803e3d6000fd5b505050506040513d601f19601f8201168201806040525081019061058b9190611c81565b5050509050866001600160a01b03166393f1a40b838f6040518363ffffffff1660e01b81526004016105be9291906122dd565b604080518083038186803b1580156105d557600080fd5b505afa1580156105e9573d6000803e3d6000fd5b505050506040513d601f19601f8201168201806040525081019061060d9190611e36565b5085838151811061061a57fe5b602002602001018181525050866001600160a01b031663d18df53c838f6040518363ffffffff1660e01b81526004016106549291906122dd565b60206040518083038186803b15801561066c57600080fd5b505afa158015610680573d6000803e3d6000fd5b505050506040513d601f19601f820116820180604052508101906106a49190611dfd565b8483815181106106b057fe5b602002602001018181525050818383815181106106c957fe5b602090810291909101015250600101610504565b50828888815181106106eb57fe5b6020026020010151604001819052508188888151811061070757fe5b6020026020010151606001819052508088888151811061072357fe5b6020026020010151602001819052508588888151811061073f57fe5b60209081029190910101516001600160a01b03909116905250506001909401935061032d92505050565b509392505050565b6003546001600160a01b031681565b610788611a61565b610790611a61565b6001600160a01b038316808252604080516306fdde0360e01b815290518592916306fdde03916004808301926000929190829003018186803b1580156107d557600080fd5b505afa1580156107e9573d6000803e3d6000fd5b505050506040513d6000823e601f3d908101601f191682016040526108119190810190611d7b565b8260400181905250806001600160a01b03166395d89b416040518163ffffffff1660e01b815260040160006040518083038186803b15801561085257600080fd5b505afa158015610866573d6000803e3d6000fd5b505050506040513d6000823e601f3d908101601f1916820160405261088e9190810190611d7b565b8260600181905250806001600160a01b031663313ce5676040518163ffffffff1660e01b815260040160206040518083038186803b1580156108cf57600080fd5b505afa1580156108e3573d6000803e3d6000fd5b505050506040513d601f19601f820116820180604052508101906109079190611e84565b60ff1660208301525092915050565b60606000600260009054906101000a90046001600160a01b03166001600160a01b0316638f5185e86040518163ffffffff1660e01b815260040160206040518083038186803b15801561096857600080fd5b505afa15801561097c573d6000803e3d6000fd5b505050506040513d601f19601f820116820180604052508101906109a09190611dfd565b905083850283018086016060838211156109b8578391505b828210156109cb579350610ae292505050565b8282036001600160401b03811180156109e357600080fd5b50604051908082528060200260200182016040528015610a1d57816020015b610a0a611a92565b815260200190600190039081610a025790505b50905060005b828482011015610adb57600254604051633ed2387560e11b81526000916001600160a01b031690637da470ea90610a6090858901906004016122d4565b60206040518083038186803b158015610a7857600080fd5b505afa158015610a8c573d6000803e3d6000fd5b505050506040513d601f19601f82011682018060405250810190610ab09190611b88565b9050610abb8161184e565b838381518110610ac757fe5b602090810291909101015250600101610a23565b5093505050505b9392505050565b60608082516001600160401b0381118015610b0357600080fd5b50604051908082528060200260200182016040528015610b3d57816020015b610b2a611a61565b815260200190600190039081610b225790505b50905060005b8351811015610b8757610b68848281518110610b5b57fe5b6020026020010151610780565b828281518110610b7457fe5b6020908102919091010152600101610b43565b5092915050565b610b96611a92565b6001600160a01b03808416825260025460405163699af5ed60e11b81526060928692169063d335ebda90610bce908490600401612056565b60206040518083038186803b158015610be657600080fd5b505afa158015610bfa573d6000803e3d6000fd5b505050506040513d601f19601f82011682018060405250810190610c1e9190611dfd565b836020018181525050806001600160a01b0316635eeb67106040518163ffffffff1660e01b815260040160206040518083038186803b158015610c6057600080fd5b505afa158015610c74573d6000803e3d6000fd5b505050506040513d601f19601f82011682018060405250810190610c989190611dfd565b836040018181525050806001600160a01b031663a8b973a16040518163ffffffff1660e01b815260040160206040518083038186803b158015610cda57600080fd5b505afa158015610cee573d6000803e3d6000fd5b505050506040513d601f19601f82011682018060405250810190610d129190611dfd565b836060018181525050610d8f816001600160a01b0316639ec5a8946040518163ffffffff1660e01b815260040160206040518083038186803b158015610d5757600080fd5b505afa158015610d6b573d6000803e3d6000fd5b505050506040513d601f19601f820116820180604052508101906101469190611b88565b6080840152610d9d8561112a565b60a08401526001600160a01b038416156111225760a083015180516001600160401b0381118015610dcd57600080fd5b50604051908082528060200260200182016040528015610e0757816020015b610df4611ad7565b815260200190600190039081610dec5790505b50925060005b815181101561111f57610e1e611ad7565b848281518110610e2a57fe5b602002602001015190506000838381518110610e4257fe5b602002602001015160a00151600001519050846001600160a01b03166393f1a40b848a6040518363ffffffff1660e01b8152600401610e829291906122dd565b604080518083038186803b158015610e9957600080fd5b505afa158015610ead573d6000803e3d6000fd5b505050506040513d601f19601f82011682018060405250810190610ed19190611e36565b60a0840152604080840191909152516370a0823160e01b81526001600160a01b038216906370a0823190610f09908b90600401612056565b60206040518083038186803b158015610f2157600080fd5b505afa158015610f35573d6000803e3d6000fd5b505050506040513d601f19601f82011682018060405250810190610f599190611dfd565b6060830152604051636eb1769f60e11b81526001600160a01b0382169063dd62ed3e90610f8c908b908d9060040161206a565b60206040518083038186803b158015610fa457600080fd5b505afa158015610fb8573d6000803e3d6000fd5b505050506040513d601f19601f82011682018060405250810190610fdc9190611dfd565b60808301526040516334637d4f60e21b81526001600160a01b0386169063d18df53c9061100f9086908c906004016122dd565b60206040518083038186803b15801561102757600080fd5b505afa15801561103b573d6000803e3d6000fd5b505050506040513d601f19601f8201168201806040525081019061105f9190611dfd565b60c08301526040516393f1a40b60e01b81526001600160a01b038616906393f1a40b906110929086908c906004016122dd565b604080518083038186803b1580156110a957600080fd5b505afa1580156110bd573d6000803e3d6000fd5b505050506040513d601f19601f820116820180604052508101906110e19190611e36565b5060408301526001600160a01b0389168252602082018390528551829087908590811061110a57fe5b60209081029190910101525050600101610e0d565b50505b509250929050565b606060008290506000816001600160a01b031663081e3eda6040518163ffffffff1660e01b815260040160206040518083038186803b15801561116c57600080fd5b505afa158015611180573d6000803e3d6000fd5b505050506040513d601f19601f820116820180604052508101906111a49190611dfd565b90506060816001600160401b03811180156111be57600080fd5b506040519080825280602002602001820160405280156111f857816020015b6111e5611b1d565b8152602001906001900390816111dd5790505b50905060005b828110156113ed57604051631526fe2760e01b81526001600160a01b03851690631526fe27906112329084906004016122d4565b60806040518083038186803b15801561124a57600080fd5b505afa15801561125e573d6000803e3d6000fd5b505050506040513d601f19601f820116820180604052508101906112829190611c81565b85858151811061128e57fe5b60200260200101516000018686815181106112a557fe5b60200260200101516020018787815181106112bc57fe5b60200260200101516040018888815181106112d357fe5b602090810291909101015160600193909352929091529190526001600160a01b039091169052815182908290811061130757fe5b6020026020010151600001516001600160a01b03166370a08231876040518263ffffffff1660e01b815260040161133e9190612056565b60206040518083038186803b15801561135657600080fd5b505afa15801561136a573d6000803e3d6000fd5b505050506040513d601f19601f8201168201806040525081019061138e9190611dfd565b82828151811061139a57fe5b602002602001015160800181815250506113ca8282815181106113b957fe5b602002602001015160000151610780565b8282815181106113d657fe5b602090810291909101015160a001526001016111fe565b50949350505050565b6002546001600160a01b031681565b6004546001600160a01b031681565b6000546001600160a01b031681565b604051636eb1769f60e11b81526000906001600160a01b0385169063dd62ed3e90611454908690869060040161206a565b60206040518083038186803b15801561146c57600080fd5b505afa158015611480573d6000803e3d6000fd5b505050506040513d601f19601f820116820180604052508101906114a49190611dfd565b949350505050565b60606000600260009054906101000a90046001600160a01b03166001600160a01b0316638f5185e86040518163ffffffff1660e01b815260040160206040518083038186803b1580156114fe57600080fd5b505afa158015611512573d6000803e3d6000fd5b505050506040513d601f19601f820116820180604052508101906115369190611dfd565b90506060816001600160401b038111801561155057600080fd5b5060405190808252806020026020018201604052801561158a57816020015b611577611a92565b81526020019060019003908161156f5790505b50905060005b828110156116cb57600254604051633ed2387560e11b81526000916001600160a01b031690637da470ea906115c99085906004016122d4565b60206040518083038186803b1580156115e157600080fd5b505afa1580156115f5573d6000803e3d6000fd5b505050506040513d601f19601f820116820180604052508101906116199190611b88565b60025460405163699af5ed60e11b81529192506000916001600160a01b039091169063d335ebda9061164f908590600401612056565b60206040518083038186803b15801561166757600080fd5b505afa15801561167b573d6000803e3d6000fd5b505050506040513d601f19601f8201168201806040525081019061169f9190611dfd565b90506116aa8261184e565b8484815181106116b657fe5b60209081029190910101525050600101611590565b5091505090565b60606116e083836000610916565b90505b92915050565b6004805460405163c395fcb360e01b81526001600160a01b039091169163c395fcb39161171891339101612056565b60206040518083038186803b15801561173057600080fd5b505afa158015611744573d6000803e3d6000fd5b505050506040513d601f19601f820116820180604052508101906117689190611d5b565b61178d5760405162461bcd60e51b8152600401611784906121fe565b60405180910390fd5b6001600160a01b038316156117b857600080546001600160a01b0319166001600160a01b0385161790555b6001600160a01b038416156117e357600180546001600160a01b0319166001600160a01b0386161790555b6001600160a01b0382161561180e57600380546001600160a01b0319166001600160a01b0384161790555b6001600160a01b0381161561183957600280546001600160a01b0319166001600160a01b0383161790555b50505050565b6001546001600160a01b031681565b611856611a92565b6001600160a01b03808316825260025460405163699af5ed60e11b81528492919091169063d335ebda9061188e908490600401612056565b60206040518083038186803b1580156118a657600080fd5b505afa1580156118ba573d6000803e3d6000fd5b505050506040513d601f19601f820116820180604052508101906118de9190611dfd565b826020018181525050806001600160a01b0316635eeb67106040518163ffffffff1660e01b815260040160206040518083038186803b15801561192057600080fd5b505afa158015611934573d6000803e3d6000fd5b505050506040513d601f19601f820116820180604052508101906119589190611dfd565b826040018181525050806001600160a01b031663a8b973a16040518163ffffffff1660e01b815260040160206040518083038186803b15801561199a57600080fd5b505afa1580156119ae573d6000803e3d6000fd5b505050506040513d601f19601f820116820180604052508101906119d29190611dfd565b826060018181525050611a17816001600160a01b0316639ec5a8946040518163ffffffff1660e01b815260040160206040518083038186803b158015610d5757600080fd5b6080830152611a258361112a565b60a083015250919050565b604051806080016040528060006001600160a01b031681526020016060815260200160608152602001606081525090565b604051806080016040528060006001600160a01b031681526020016000815260200160608152602001606081525090565b6040518060c0016040528060006001600160a01b03168152602001600081526020016000815260200160008152602001611aca611a61565b8152602001606081525090565b6040518060e0016040528060006001600160a01b031681526020016000815260200160008152602001600081526020016000815260200160008152602001600081525090565b6040518060c0016040528060006001600160a01b0316815260200160008152602001600081526020016000815260200160008152602001611b5c611a61565b905290565b80356116e381612365565b600060208284031215611b7d578081fd5b8135610ae281612365565b600060208284031215611b99578081fd5b8151610ae281612365565b60008060408385031215611bb6578081fd5b8235611bc181612365565b91506020830135611bd181612365565b809150509250929050565b600080600060608486031215611bf0578081fd5b8335611bfb81612365565b92506020840135611c0b81612365565b91506040840135611c1b81612365565b809150509250925092565b60008060008060808587031215611c3b578081fd5b8435611c4681612365565b93506020850135611c5681612365565b92506040850135611c6681612365565b91506060850135611c7681612365565b939692955090935050565b60008060008060808587031215611c96578384fd5b8451611ca181612365565b60208601516040870151606090970151919890975090945092505050565b60006020808385031215611cd1578182fd5b82356001600160401b03811115611ce6578283fd5b8301601f81018513611cf6578283fd5b8035611d09611d048261231a565b6122f4565b8181528381019083850185840285018601891015611d25578687fd5b8694505b83851015611d4f57611d3b8982611b61565b835260019490940193918501918501611d29565b50979650505050505050565b600060208284031215611d6c578081fd5b81518015158114610ae2578182fd5b600060208284031215611d8c578081fd5b81516001600160401b0380821115611da2578283fd5b818401915084601f830112611db5578283fd5b815181811115611dc3578384fd5b611dd6601f8201601f19166020016122f4565b9150808252856020828501011115611dec578384fd5b6113ed816020840160208601612339565b600060208284031215611e0e578081fd5b5051919050565b60008060408385031215611e27578182fd5b50508035926020909101359150565b60008060408385031215611e48578182fd5b505080516020909101519092909150565b600080600060608486031215611e6d578283fd5b505081359360208301359350604090920135919050565b600060208284031215611e95578081fd5b815160ff81168114610ae2578182fd5b6000815180845260208085018081965082840281019150828601855b85811015611f32578284038952815180516001600160a01b03168552858101518686015260408082015190860152606080820151908601526080808201519086015260a09081015160c091860182905290611f1e8187018361200c565b9a87019a9550505090840190600101611ec1565b5091979650505050505050565b6000815180845260208085019450808401835b83811015611f6e57815187529582019590820190600101611f52565b509495945050505050565b60008151808452611f91816020860160208601612339565b601f01601f19169290920160200192915050565b600060018060a01b038251168352602082015160208401526040820151604084015260608201516060840152608082015160c06080850152611fea60c085018261200c565b905060a083015184820360a08601526120038282611ea5565b95945050505050565b600060018060a01b0382511683526020820151602084015260408201516080604085015261203d6080850182611f79565b9050606083015184820360608601526120038282611f79565b6001600160a01b0391909116815260200190565b6001600160a01b0392831681529116602082015260400190565b6000602080830181845280855180835260408601915060408482028701019250838701855b828110156120d757603f198886030184526120c5858351611fa5565b945092850192908501906001016120a9565b5092979650505050505050565b6000602082526116e06020830184611ea5565b6000602080830181845280855180835260408601915060408482028701019250838701855b828110156120d757603f1988860301845261213885835161200c565b9450928501929085019060010161211c565b60208082528251828201819052600091906040908185019080840286018301878501865b838110156121f057888303603f19018552815180516001600160a01b03168452878101516080898601819052906121a782870182611f3f565b91505087820151858203898701526121bf8282611f3f565b915050606080830151925085820381870152506121dc8183611f3f565b96890196945050509086019060010161216e565b509098975050505050505050565b6020808252818101527f4d49534f48656c7065723a2053656e646572206d7573742062652041646d696e604082015260600190565b6000604080835261224681840186611fa5565b838103602085810191909152855180835286820192820190855b818110156121f057845180516001600160a01b0316845284810151858501528681015187850152606080820151908501526080808201519085015260a0808201519085015260c090810151908401529383019360e090920191600101612260565b6000602082526116e0602083018461200c565b90815260200190565b9182526001600160a01b0316602082015260400190565b6040518181016001600160401b038111828210171561231257600080fd5b604052919050565b60006001600160401b0382111561232f578081fd5b5060209081020190565b60005b8381101561235457818101518382015260200161233c565b838111156118395750506000910152565b6001600160a01b038116811461237a57600080fd5b5056fea264697066735822122012a395e9fb7cc5a5df9645d02e94dd75095a191afa05bf3df027b3b374012c4964736f6c634300060c0033",
  "bytecodeSha1": "12d4d29636779fd544bcfb77288ffbb35029ea13",
  "compiler": {
    "evm_version": "istanbul",
    "optimizer": {
      "enabled": true,
      "runs": 200
    },
    "version": "0.6.12+commit.27d51765"
  },
  "contractName": "FarmHelper",
  "language": "Solidity",
  "natspec": {
    "kind": "dev",
    "methods": {
      "accessControls()": {
        "notice": "Responsible for access rights to the contract"
      }
    },
    "version": 1
  },
  "opcodes": "PUSH1 0x80 PUSH1 0x40 MSTORE CALLVALUE DUP1 ISZERO PUSH2 0x10 JUMPI PUSH1 0x0 DUP1 REVERT JUMPDEST POP PUSH1 0x4 CALLDATASIZE LT PUSH2 0xF5 JUMPI PUSH1 0x0 CALLDATALOAD PUSH1 0xE0 SHR DUP1 PUSH4 0x6D25E175 GT PUSH2 0x97 JUMPI DUP1 PUSH4 0x9DC4AC8A GT PUSH2 0x66 JUMPI DUP1 PUSH4 0x9DC4AC8A EQ PUSH2 0x211 JUMPI DUP1 PUSH4 0xBCE16F4B EQ PUSH2 0x219 JUMPI DUP1 PUSH4 0xBF989B6E EQ PUSH2 0x22C JUMPI DUP1 PUSH4 0xE77772FE EQ PUSH2 0x241 JUMPI PUSH2 0xF5 JUMP JUMPDEST DUP1 PUSH4 0x6D25E175 EQ PUSH2 0x1D9 JUMPI DUP1 PUSH4 0x748365EF EQ PUSH2 0x1E1 JUMPI DUP1 PUSH4 0x80F55605 EQ PUSH2 0x1E9 JUMPI DUP1 PUSH4 0x927DA105 EQ PUSH2 0x1F1 JUMPI PUSH2 0xF5 JUMP JUMPDEST DUP1 PUSH4 0x22AEEA09 GT PUSH2 0xD3 JUMPI DUP1 PUSH4 0x22AEEA09 EQ PUSH2 0x158 JUMPI DUP1 PUSH4 0x46A0FE47 EQ PUSH2 0x178 JUMPI DUP1 PUSH4 0x56468DDF EQ PUSH2 0x198 JUMPI DUP1 PUSH4 0x5C39F467 EQ PUSH2 0x1B9 JUMPI PUSH2 0xF5 JUMP JUMPDEST DUP1 PUSH4 0xCBF4BA7 EQ PUSH2 0xFA JUMPI DUP1 PUSH4 0x16EEBD1E EQ PUSH2 0x123 JUMPI DUP1 PUSH4 0x1F69565F EQ PUSH2 0x138 JUMPI JUMPDEST PUSH1 0x0 DUP1 REVERT JUMPDEST PUSH2 0x10D PUSH2 0x108 CALLDATASIZE PUSH1 0x4 PUSH2 0x1B6C JUMP JUMPDEST PUSH2 0x249 JUMP JUMPDEST PUSH1 0x40 MLOAD PUSH2 0x11A SWAP2 SWAP1 PUSH2 0x214A JUMP JUMPDEST PUSH1 0x40 MLOAD DUP1 SWAP2 SUB SWAP1 RETURN JUMPDEST PUSH2 0x12B PUSH2 0x771 JUMP JUMPDEST PUSH1 0x40 MLOAD PUSH2 0x11A SWAP2 SWAP1 PUSH2 0x2056 JUMP JUMPDEST PUSH2 0x14B PUSH2 0x146 CALLDATASIZE PUSH1 0x4 PUSH2 0x1B6C JUMP JUMPDEST PUSH2 0x780 JUMP JUMPDEST PUSH1 0x40 MLOAD PUSH2 0x11A SWAP2 SWAP1 PUSH2 0x22C1 JUMP JUMPDEST PUSH2 0x16B PUSH2 0x166 CALLDATASIZE PUSH1 0x4 PUSH2 0x1E59 JUMP JUMPDEST PUSH2 0x916 JUMP JUMPDEST PUSH1 0x40 MLOAD PUSH2 0x11A SWAP2 SWAP1 PUSH2 0x2084 JUMP JUMPDEST PUSH2 0x18B PUSH2 0x186 CALLDATASIZE PUSH1 0x4 PUSH2 0x1CBF JUMP JUMPDEST PUSH2 0xAE9 JUMP JUMPDEST PUSH1 0x40 MLOAD PUSH2 0x11A SWAP2 SWAP1 PUSH2 0x20F7 JUMP JUMPDEST PUSH2 0x1AB PUSH2 0x1A6 CALLDATASIZE PUSH1 0x4 PUSH2 0x1BA4 JUMP JUMPDEST PUSH2 0xB8E JUMP JUMPDEST PUSH1 0x40 MLOAD PUSH2 0x11A SWAP3 SWAP2 SWAP1 PUSH2 0x2233 JUMP JUMPDEST PUSH2 0x1CC PUSH2 0x1C7 CALLDATASIZE PUSH1 0x4 PUSH2 0x1B6C JUMP JUMPDEST PUSH2 0x112A JUMP JUMPDEST PUSH1 0x40 MLOAD PUSH2 0x11A SWAP2 SWAP1 PUSH2 0x20E4 JUMP JUMPDEST PUSH2 0x12B PUSH2 0x13F6 JUMP JUMPDEST PUSH2 0x12B PUSH2 0x1405 JUMP JUMPDEST PUSH2 0x12B PUSH2 0x1414 JUMP JUMPDEST PUSH2 0x204 PUSH2 0x1FF CALLDATASIZE PUSH1 0x4 PUSH2 0x1BDC JUMP JUMPDEST PUSH2 0x1423 JUMP JUMPDEST PUSH1 0x40 MLOAD PUSH2 0x11A SWAP2 SWAP1 PUSH2 0x22D4 JUMP JUMPDEST PUSH2 0x16B PUSH2 0x14AC JUMP JUMPDEST PUSH2 0x16B PUSH2 0x227 CALLDATASIZE PUSH1 0x4 PUSH2 0x1E15 JUMP JUMPDEST PUSH2 0x16D2 JUMP JUMPDEST PUSH2 0x23F PUSH2 0x23A CALLDATASIZE PUSH1 0x4 PUSH2 0x1C26 JUMP JUMPDEST PUSH2 0x16E9 JUMP JUMPDEST STOP JUMPDEST PUSH2 0x12B PUSH2 0x183F JUMP JUMPDEST PUSH1 0x60 PUSH1 0x0 PUSH1 0x2 PUSH1 0x0 SWAP1 SLOAD SWAP1 PUSH2 0x100 EXP SWAP1 DIV PUSH1 0x1 PUSH1 0x1 PUSH1 0xA0 SHL SUB AND PUSH1 0x1 PUSH1 0x1 PUSH1 0xA0 SHL SUB AND PUSH4 0x8F5185E8 PUSH1 0x40 MLOAD DUP2 PUSH4 0xFFFFFFFF AND PUSH1 0xE0 SHL DUP2 MSTORE PUSH1 0x4 ADD PUSH1 0x20 PUSH1 0x40 MLOAD DUP1 DUP4 SUB DUP2 DUP7 DUP1 EXTCODESIZE ISZERO DUP1 ISZERO PUSH2 0x29B JUMPI PUSH1 0x0 DUP1 REVERT JUMPDEST POP GAS STATICCALL ISZERO DUP1 ISZERO PUSH2 0x2AF JUMPI RETURNDATASIZE PUSH1 0x0 DUP1 RETURNDATACOPY RETURNDATASIZE PUSH1 0x0 REVERT JUMPDEST POP POP POP POP PUSH1 0x40 MLOAD RETURNDATASIZE PUSH1 0x1F NOT PUSH1 0x1F DUP3 ADD AND DUP3 ADD DUP1 PUSH1 0x40 MSTORE POP DUP2 ADD SWAP1 PUSH2 0x2D3 SWAP2 SWAP1 PUSH2 0x1DFD JUMP JUMPDEST SWAP1 POP PUSH1 0x60 DUP2 PUSH1 0x1 PUSH1 0x1 PUSH1 0x40 SHL SUB DUP2 GT DUP1 ISZERO PUSH2 0x2ED JUMPI PUSH1 0x0 DUP1 REVERT JUMPDEST POP PUSH1 0x40 MLOAD SWAP1 DUP1 DUP3 MSTORE DUP1 PUSH1 0x20 MUL PUSH1 0x20 ADD DUP3 ADD PUSH1 0x40 MSTORE DUP1 ISZERO PUSH2 0x327 JUMPI DUP2 PUSH1 0x20 ADD JUMPDEST PUSH2 0x314 PUSH2 0x1A30 JUMP JUMPDEST DUP2 MSTORE PUSH1 0x20 ADD SWAP1 PUSH1 0x1 SWAP1 SUB SWAP1 DUP2 PUSH2 0x30C JUMPI SWAP1 POP JUMPDEST POP SWAP1 POP PUSH1 0x0 JUMPDEST DUP3 DUP2 LT ISZERO PUSH2 0x769 JUMPI PUSH1 0x2 SLOAD PUSH1 0x40 MLOAD PUSH4 0x3ED23875 PUSH1 0xE1 SHL DUP2 MSTORE PUSH1 0x0 SWAP2 PUSH1 0x1 PUSH1 0x1 PUSH1 0xA0 SHL SUB AND SWAP1 PUSH4 0x7DA470EA SWAP1 PUSH2 0x366 SWAP1 DUP6 SWAP1 PUSH1 0x4 ADD PUSH2 0x22D4 JUMP JUMPDEST PUSH1 0x20 PUSH1 0x40 MLOAD DUP1 DUP4 SUB DUP2 DUP7 DUP1 EXTCODESIZE ISZERO DUP1 ISZERO PUSH2 0x37E JUMPI PUSH1 0x0 DUP1 REVERT JUMPDEST POP GAS STATICCALL ISZERO DUP1 ISZERO PUSH2 0x392 JUMPI RETURNDATASIZE PUSH1 0x0 DUP1 RETURNDATACOPY RETURNDATASIZE PUSH1 0x0 REVERT JUMPDEST POP POP POP POP PUSH1 0x40 MLOAD RETURNDATASIZE PUSH1 0x1F NOT PUSH1 0x1F DUP3 ADD AND DUP3 ADD DUP1 PUSH1 0x40 MSTORE POP DUP2 ADD SWAP1 PUSH2 0x3B6 SWAP2 SWAP1 PUSH2 0x1B88 JUMP JUMPDEST SWAP1 POP PUSH1 0x0 DUP2 SWAP1 POP PUSH1 0x0 DUP2 PUSH1 0x1 PUSH1 0x1 PUSH1 0xA0 SHL SUB AND PUSH4 0x81E3EDA PUSH1 0x40 MLOAD DUP2 PUSH4 0xFFFFFFFF AND PUSH1 0xE0 SHL DUP2 MSTORE PUSH1 0x4 ADD PUSH1 0x20 PUSH1 0x40 MLOAD DUP1 DUP4 SUB DUP2 DUP7 DUP1 EXTCODESIZE ISZERO DUP1 ISZERO PUSH2 0x3F8 JUMPI PUSH1 0x0 DUP1 REVERT JUMPDEST POP GAS STATICCALL ISZERO DUP1 ISZERO PUSH2 0x40C JUMPI RETURNDATASIZE PUSH1 0x0 DUP1 RETURNDATACOPY RETURNDATASIZE PUSH1 0x0 REVERT JUMPDEST POP POP POP POP PUSH1 0x40 MLOAD RETURNDATASIZE PUSH1 0x1F NOT PUSH1 0x1F DUP3 ADD AND DUP3 ADD DUP1 PUSH1 0x40 MSTORE POP DUP2 ADD SWAP1 PUSH2 0x430 SWAP2 SWAP1 PUSH2 0x1DFD JUMP JUMPDEST SWAP1 POP PUSH1 0x60 DUP2 PUSH1 0x1 PUSH1 0x1 PUSH1 0x40 SHL SUB DUP2 GT DUP1 ISZERO PUSH2 0x44A JUMPI PUSH1 0x0 DUP1 REVERT JUMPDEST POP PUSH1 0x40 MLOAD SWAP1 DUP1 DUP3 MSTORE DUP1 PUSH1 0x20 MUL PUSH1 0x20 ADD DUP3 ADD PUSH1 0x40 MSTORE DUP1 ISZERO PUSH2 0x474 JUMPI DUP2 PUSH1 0x20 ADD PUSH1 0x20 DUP3 MUL DUP1 CALLDATASIZE DUP4 CALLDATACOPY ADD SWAP1 POP JUMPDEST POP SWAP1 POP PUSH1 0x60 DUP3 PUSH1 0x1 PUSH1 0x1 PUSH1 0x40 SHL SUB DUP2 GT DUP1 ISZERO PUSH2 0x48F JUMPI PUSH1 0x0 DUP1 REVERT JUMPDEST POP PUSH1 0x40 MLOAD SWAP1 DUP1 DUP3 MSTORE DUP1 PUSH1 0x20 MUL PUSH1 0x20 ADD DUP3 ADD PUSH1 0x40 MSTORE DUP1 ISZERO PUSH2 0x4B9 JUMPI DUP2 PUSH1 0x20 ADD PUSH1 0x20 DUP3 MUL DUP1 CALLDATASIZE DUP4 CALLDATACOPY ADD SWAP1 POP JUMPDEST POP SWAP1 POP PUSH1 0x60 DUP4 PUSH1 0x1 PUSH1 0x1 PUSH1 0x40 SHL SUB DUP2 GT DUP1 ISZERO PUSH2 0x4D4 JUMPI PUSH1 0x0 DUP1 REVERT JUMPDEST POP PUSH1 0x40 MLOAD SWAP1 DUP1 DUP3 MSTORE DUP1 PUSH1 0x20 MUL PUSH1 0x20 ADD DUP3 ADD PUSH1 0x40 MSTORE DUP1 ISZERO PUSH2 0x4FE JUMPI DUP2 PUSH1 0x20 ADD PUSH1 0x20 DUP3 MUL DUP1 CALLDATASIZE DUP4 CALLDATACOPY ADD SWAP1 POP JUMPDEST POP SWAP1 POP PUSH1 0x0 JUMPDEST DUP5 DUP2 LT ISZERO PUSH2 0x6DD JUMPI PUSH1 0x40 MLOAD PUSH4 0x1526FE27 PUSH1 0xE0 SHL DUP2 MSTORE PUSH1 0x0 SWAP1 PUSH1 0x1 PUSH1 0x1 PUSH1 0xA0 SHL SUB DUP9 AND SWAP1 PUSH4 0x1526FE27 SWAP1 PUSH2 0x53B SWAP1 DUP6 SWAP1 PUSH1 0x4 ADD PUSH2 0x22D4 JUMP JUMPDEST PUSH1 0x80 PUSH1 0x40 MLOAD DUP1 DUP4 SUB DUP2 DUP7 DUP1 EXTCODESIZE ISZERO DUP1 ISZERO PUSH2 0x553 JUMPI PUSH1 0x0 DUP1 REVERT JUMPDEST POP GAS STATICCALL ISZERO DUP1 ISZERO PUSH2 0x567 JUMPI RETURNDATASIZE PUSH1 0x0 DUP1 RETURNDATACOPY RETURNDATASIZE PUSH1 0x0 REVERT JUMPDEST POP POP POP POP PUSH1 0x40 MLOAD RETURNDATASIZE PUSH1 0x1F NOT PUSH1 0x1F DUP3 ADD AND DUP3 ADD DUP1 PUSH1 0x40 MSTORE POP DUP2 ADD SWAP1 PUSH2 0x58B SWAP2 SWAP1 PUSH2 0x1C81 JUMP JUMPDEST POP POP POP SWAP1 POP DUP7 PUSH1 0x1 PUSH1 0x1 PUSH1 0xA0 SHL SUB AND PUSH4 0x93F1A40B DUP4 DUP16 PUSH1 0x40 MLOAD DUP4 PUSH4 0xFFFFFFFF AND PUSH1 0xE0 SHL DUP2 MSTORE PUSH1 0x4 ADD PUSH2 0x5BE SWAP3 SWAP2 SWAP1 PUSH2 0x22DD JUMP JUMPDEST PUSH1 0x40 DUP1 MLOAD DUP1 DUP4 SUB DUP2 DUP7 DUP1 EXTCODESIZE ISZERO DUP1 ISZERO PUSH2 0x5D5 JUMPI PUSH1 0x0 DUP1 REVERT JUMPDEST POP GAS STATICCALL ISZERO DUP1 ISZERO PUSH2 0x5E9 JUMPI RETURNDATASIZE PUSH1 0x0 DUP1 RETURNDATACOPY RETURNDATASIZE PUSH1 0x0 REVERT JUMPDEST POP POP POP POP PUSH1 0x40 MLOAD RETURNDATASIZE PUSH1 0x1F NOT PUSH1 0x1F DUP3 ADD AND DUP3 ADD DUP1 PUSH1 0x40 MSTORE POP DUP2 ADD SWAP1 PUSH2 0x60D SWAP2 SWAP1 PUSH2 0x1E36 JUMP JUMPDEST POP DUP6 DUP4 DUP2 MLOAD DUP2 LT PUSH2 0x61A JUMPI INVALID JUMPDEST PUSH1 0x20 MUL PUSH1 0x20 ADD ADD DUP2 DUP2 MSTORE POP POP DUP7 PUSH1 0x1 PUSH1 0x1 PUSH1 0xA0 SHL SUB AND PUSH4 0xD18DF53C DUP4 DUP16 PUSH1 0x40 MLOAD DUP4 PUSH4 0xFFFFFFFF AND PUSH1 0xE0 SHL DUP2 MSTORE PUSH1 0x4 ADD PUSH2 0x654 SWAP3 SWAP2 SWAP1 PUSH2 0x22DD JUMP JUMPDEST PUSH1 0x20 PUSH1 0x40 MLOAD DUP1 DUP4 SUB DUP2 DUP7 DUP1 EXTCODESIZE ISZERO DUP1 ISZERO PUSH2 0x66C JUMPI PUSH1 0x0 DUP1 REVERT JUMPDEST POP GAS STATICCALL ISZERO DUP1 ISZERO PUSH2 0x680 JUMPI RETURNDATASIZE PUSH1 0x0 DUP1 RETURNDATACOPY RETURNDATASIZE PUSH1 0x0 REVERT JUMPDEST POP POP POP POP PUSH1 0x40 MLOAD RETURNDATASIZE PUSH1 0x1F NOT PUSH1 0x1F DUP3 ADD AND DUP3 ADD DUP1 PUSH1 0x40 MSTORE POP DUP2 ADD SWAP1 PUSH2 0x6A4 SWAP2 SWAP1 PUSH2 0x1DFD JUMP JUMPDEST DUP5 DUP4 DUP2 MLOAD DUP2 LT PUSH2 0x6B0 JUMPI INVALID JUMPDEST PUSH1 0x20 MUL PUSH1 0x20 ADD ADD DUP2 DUP2 MSTORE POP POP DUP2 DUP4 DUP4 DUP2 MLOAD DUP2 LT PUSH2 0x6C9 JUMPI INVALID JUMPDEST PUSH1 0x20 SWAP1 DUP2 MUL SWAP2 SWAP1 SWAP2 ADD ADD MSTORE POP PUSH1 0x1 ADD PUSH2 0x504 JUMP JUMPDEST POP DUP3 DUP9 DUP9 DUP2 MLOAD DUP2 LT PUSH2 0x6EB JUMPI INVALID JUMPDEST PUSH1 0x20 MUL PUSH1 0x20 ADD ADD MLOAD PUSH1 0x40 ADD DUP2 SWAP1 MSTORE POP DUP2 DUP9 DUP9 DUP2 MLOAD DUP2 LT PUSH2 0x707 JUMPI INVALID JUMPDEST PUSH1 0x20 MUL PUSH1 0x20 ADD ADD MLOAD PUSH1 0x60 ADD DUP2 SWAP1 MSTORE POP DUP1 DUP9 DUP9 DUP2 MLOAD DUP2 LT PUSH2 0x723 JUMPI INVALID JUMPDEST PUSH1 0x20 MUL PUSH1 0x20 ADD ADD MLOAD PUSH1 0x20 ADD DUP2 SWAP1 MSTORE POP DUP6 DUP9 DUP9 DUP2 MLOAD DUP2 LT PUSH2 0x73F JUMPI INVALID JUMPDEST PUSH1 0x20 SWAP1 DUP2 MUL SWAP2 SWAP1 SWAP2 ADD ADD MLOAD PUSH1 0x1 PUSH1 0x1 PUSH1 0xA0 SHL SUB SWAP1 SWAP2 AND SWAP1 MSTORE POP POP PUSH1 0x1 SWAP1 SWAP5 ADD SWAP4 POP PUSH2 0x32D SWAP3 POP POP POP JUMP JUMPDEST POP SWAP4 SWAP3 POP POP POP JUMP JUMPDEST PUSH1 0x3 SLOAD PUSH1 0x1 PUSH1 0x1 PUSH1 0xA0 SHL SUB AND DUP2 JUMP JUMPDEST PUSH2 0x788 PUSH2 0x1A61 JUMP JUMPDEST PUSH2 0x790 PUSH2 0x1A61 JUMP JUMPDEST PUSH1 0x1 PUSH1 0x1 PUSH1 0xA0 SHL SUB DUP4 AND DUP1 DUP3 MSTORE PUSH1 0x40 DUP1 MLOAD PUSH4 0x6FDDE03 PUSH1 0xE0 SHL DUP2 MSTORE SWAP1 MLOAD DUP6 SWAP3 SWAP2 PUSH4 0x6FDDE03 SWAP2 PUSH1 0x4 DUP1 DUP4 ADD SWAP3 PUSH1 0x0 SWAP3 SWAP2 SWAP1 DUP3 SWAP1 SUB ADD DUP2 DUP7 DUP1 EXTCODESIZE ISZERO DUP1 ISZERO PUSH2 0x7D5 JUMPI PUSH1 0x0 DUP1 REVERT JUMPDEST POP GAS STATICCALL ISZERO DUP1 ISZERO PUSH2 0x7E9 JUMPI RETURNDATASIZE PUSH1 0x0 DUP1 RETURNDATACOPY RETURNDATASIZE PUSH1 0x0 REVERT JUMPDEST POP POP POP POP PUSH1 0x40 MLOAD RETURNDATASIZE PUSH1 0x0 DUP3 RETURNDATACOPY PUSH1 0x1F RETURNDATASIZE SWAP1 DUP2 ADD PUSH1 0x1F NOT AND DUP3 ADD PUSH1 0x40 MSTORE PUSH2 0x811 SWAP2 SWAP1 DUP2 ADD SWAP1 PUSH2 0x1D7B JUMP JUMPDEST DUP3 PUSH1 0x40 ADD DUP2 SWAP1 MSTORE POP DUP1 PUSH1 0x1 PUSH1 0x1 PUSH1 0xA0 SHL SUB AND PUSH4 0x95D89B41 PUSH1 0x40 MLOAD DUP2 PUSH4 0xFFFFFFFF AND PUSH1 0xE0 SHL DUP2 MSTORE PUSH1 0x4 ADD PUSH1 0x0 PUSH1 0x40 MLOAD DUP1 DUP4 SUB DUP2 DUP7 DUP1 EXTCODESIZE ISZERO DUP1 ISZERO PUSH2 0x852 JUMPI PUSH1 0x0 DUP1 REVERT JUMPDEST POP GAS STATICCALL ISZERO DUP1 ISZERO PUSH2 0x866 JUMPI RETURNDATASIZE PUSH1 0x0 DUP1 RETURNDATACOPY RETURNDATASIZE PUSH1 0x0 REVERT JUMPDEST POP POP POP POP PUSH1 0x40 MLOAD RETURNDATASIZE PUSH1 0x0 DUP3 RETURNDATACOPY PUSH1 0x1F RETURNDATASIZE SWAP1 DUP2 ADD PUSH1 0x1F NOT AND DUP3 ADD PUSH1 0x40 MSTORE PUSH2 0x88E SWAP2 SWAP1 DUP2 ADD SWAP1 PUSH2 0x1D7B JUMP JUMPDEST DUP3 PUSH1 0x60 ADD DUP2 SWAP1 MSTORE POP DUP1 PUSH1 0x1 PUSH1 0x1 PUSH1 0xA0 SHL SUB AND PUSH4 0x313CE567 PUSH1 0x40 MLOAD DUP2 PUSH4 0xFFFFFFFF AND PUSH1 0xE0 SHL DUP2 MSTORE PUSH1 0x4 ADD PUSH1 0x20 PUSH1 0x40 MLOAD DUP1 DUP4 SUB DUP2 DUP7 DUP1 EXTCODESIZE ISZERO DUP1 ISZERO PUSH2 0x8CF JUMPI PUSH1 0x0 DUP1 REVERT JUMPDEST POP GAS STATICCALL ISZERO DUP1 ISZERO PUSH2 0x8E3 JUMPI RETURNDATASIZE PUSH1 0x0 DUP1 RETURNDATACOPY RETURNDATASIZE PUSH1 0x0 REVERT JUMPDEST POP POP POP POP PUSH1 0x40 MLOAD RETURNDATASIZE PUSH1 0x1F NOT PUSH1 0x1F DUP3 ADD AND DUP3 ADD DUP1 PUSH1 0x40 MSTORE POP DUP2 ADD SWAP1 PUSH2 0x907 SWAP2 SWAP1 PUSH2 0x1E84 JUMP JUMPDEST PUSH1 0xFF AND PUSH1 0x20 DUP4 ADD MSTORE POP SWAP3 SWAP2 POP POP JUMP JUMPDEST PUSH1 0x60 PUSH1 0x0 PUSH1 0x2 PUSH1 0x0 SWAP1 SLOAD SWAP1 PUSH2 0x100 EXP SWAP1 DIV PUSH1 0x1 PUSH1 0x1 PUSH1 0xA0 SHL SUB AND PUSH1 0x1 PUSH1 0x1 PUSH1 0xA0 SHL SUB AND PUSH4 0x8F5185E8 PUSH1 0x40 MLOAD DUP2 PUSH4 0xFFFFFFFF AND PUSH1 0xE0 SHL DUP2 MSTORE PUSH1 0x4 ADD PUSH1 0x20 PUSH1 0x40 MLOAD DUP1 DUP4 SUB DUP2 DUP7 DUP1 EXTCODESIZE ISZERO DUP1 ISZERO PUSH2 0x968 JUMPI PUSH1 0x0 DUP1 REVERT JUMPDEST POP GAS STATICCALL ISZERO DUP1 ISZERO PUSH2 0x97C JUMPI RETURNDATASIZE PUSH1 0x0 DUP1 RETURNDATACOPY RETURNDATASIZE PUSH1 0x0 REVERT JUMPDEST POP POP POP POP PUSH1 0x40 MLOAD RETURNDATASIZE PUSH1 0x1F NOT PUSH1 0x1F DUP3 ADD AND DUP3 ADD DUP1 PUSH1 0x40 MSTORE POP DUP2 ADD SWAP1 PUSH2 0x9A0 SWAP2 SWAP1 PUSH2 0x1DFD JUMP JUMPDEST SWAP1 POP DUP4 DUP6 MUL DUP4 ADD DUP1 DUP7 ADD PUSH1 0x60 DUP4 DUP3 GT ISZERO PUSH2 0x9B8 JUMPI DUP4 SWAP2 POP JUMPDEST DUP3 DUP3 LT ISZERO PUSH2 0x9CB JUMPI SWAP4 POP PUSH2 0xAE2 SWAP3 POP POP POP JUMP JUMPDEST DUP3 DUP3 SUB PUSH1 0x1 PUSH1 0x1 PUSH1 0x40 SHL SUB DUP2 GT DUP1 ISZERO PUSH2 0x9E3 JUMPI PUSH1 0x0 DUP1 REVERT JUMPDEST POP PUSH1 0x40 MLOAD SWAP1 DUP1 DUP3 MSTORE DUP1 PUSH1 0x20 MUL PUSH1 0x20 ADD DUP3 ADD PUSH1 0x40 MSTORE DUP1 ISZERO PUSH2 0xA1D JUMPI DUP2 PUSH1 0x20 ADD JUMPDEST PUSH2 0xA0A PUSH2 0x1A92 JUMP JUMPDEST DUP2 MSTORE PUSH1 0x20 ADD SWAP1 PUSH1 0x1 SWAP1 SUB SWAP1 DUP2 PUSH2 0xA02 JUMPI SWAP1 POP JUMPDEST POP SWAP1 POP PUSH1 0x0 JUMPDEST DUP3 DUP5 DUP3 ADD LT ISZERO PUSH2 0xADB JUMPI PUSH1 0x2 SLOAD PUSH1 0x40 MLOAD PUSH4 0x3ED23875 PUSH1 0xE1 SHL DUP2 MSTORE PUSH1 0x0 SWAP2 PUSH1 0x1 PUSH1 0x1 PUSH1 0xA0 SHL SUB AND SWAP1 PUSH4 0x7DA470EA SWAP1 PUSH2 0xA60 SWAP1 DUP6 DUP10 ADD SWAP1 PUSH1 0x4 ADD PUSH2 0x22D4 JUMP JUMPDEST PUSH1 0x20 PUSH1 0x40 MLOAD DUP1 DUP4 SUB DUP2 DUP7 DUP1 EXTCODESIZE ISZERO DUP1 ISZERO PUSH2 0xA78 JUMPI PUSH1 0x0 DUP1 REVERT JUMPDEST POP GAS STATICCALL ISZERO DUP1 ISZERO PUSH2 0xA8C JUMPI RETURNDATASIZE PUSH1 0x0 DUP1 RETURNDATACOPY RETURNDATASIZE PUSH1 0x0 REVERT JUMPDEST POP POP POP POP PUSH1 0x40 MLOAD RETURNDATASIZE PUSH1 0x1F NOT PUSH1 0x1F DUP3 ADD AND DUP3 ADD DUP1 PUSH1 0x40 MSTORE POP DUP2 ADD SWAP1 PUSH2 0xAB0 SWAP2 SWAP1 PUSH2 0x1B88 JUMP JUMPDEST SWAP1 POP PUSH2 0xABB DUP2 PUSH2 0x184E JUMP JUMPDEST DUP4 DUP4 DUP2 MLOAD DUP2 LT PUSH2 0xAC7 JUMPI INVALID JUMPDEST PUSH1 0x20 SWAP1 DUP2 MUL SWAP2 SWAP1 SWAP2 ADD ADD MSTORE POP PUSH1 0x1 ADD PUSH2 0xA23 JUMP JUMPDEST POP SWAP4 POP POP POP POP JUMPDEST SWAP4 SWAP3 POP POP POP JUMP JUMPDEST PUSH1 0x60 DUP1 DUP3 MLOAD PUSH1 0x1 PUSH1 0x1 PUSH1 0x40 SHL SUB DUP2 GT DUP1 ISZERO PUSH2 0xB03 JUMPI PUSH1 0x0 DUP1 REVERT JUMPDEST POP PUSH1 0x40 MLOAD SWAP1 DUP1 DUP3 MSTORE DUP1 PUSH1 0x20 MUL PUSH1 0x20 ADD DUP3 ADD PUSH1 0x40 MSTORE DUP1 ISZERO PUSH2 0xB3D JUMPI DUP2 PUSH1 0x20 ADD JUMPDEST PUSH2 0xB2A PUSH2 0x1A61 JUMP JUMPDEST DUP2 MSTORE PUSH1 0x20 ADD SWAP1 PUSH1 0x1 SWAP1 SUB SWAP1 DUP2 PUSH2 0xB22 JUMPI SWAP1 POP JUMPDEST POP SWAP1 POP PUSH1 0x0 JUMPDEST DUP4 MLOAD DUP2 LT ISZERO PUSH2 0xB87 JUMPI PUSH2 0xB68 DUP5 DUP3 DUP2 MLOAD DUP2 LT PUSH2 0xB5B JUMPI INVALID JUMPDEST PUSH1 0x20 MUL PUSH1 0x20 ADD ADD MLOAD PUSH2 0x780 JUMP JUMPDEST DUP3 DUP3 DUP2 MLOAD DUP2 LT PUSH2 0xB74 JUMPI INVALID JUMPDEST PUSH1 0x20 SWAP1 DUP2 MUL SWAP2 SWAP1 SWAP2 ADD ADD MSTORE PUSH1 0x1 ADD PUSH2 0xB43 JUMP JUMPDEST POP SWAP3 SWAP2 POP POP JUMP JUMPDEST PUSH2 0xB96 PUSH2 0x1A92 JUMP JUMPDEST PUSH1 0x1 PUSH1 0x1 PUSH1 0xA0 SHL SUB DUP1 DUP5 AND DUP3 MSTORE PUSH1 0x2 SLOAD PUSH1 0x40 MLOAD PUSH4 0x699AF5ED PUSH1 0xE1 SHL DUP2 MSTORE PUSH1 0x60 SWAP3 DUP7 SWAP3 AND SWAP1 PUSH4 0xD335EBDA SWAP1 PUSH2 0xBCE SWAP1 DUP5 SWAP1 PUSH1 0x4 ADD PUSH2 0x2056 JUMP JUMPDEST PUSH1 0x20 PUSH1 0x40 MLOAD DUP1 DUP4 SUB DUP2 DUP7 DUP1 EXTCODESIZE ISZERO DUP1 ISZERO PUSH2 0xBE6 JUMPI PUSH1 0x0 DUP1 REVERT JUMPDEST POP GAS STATICCALL ISZERO DUP1 ISZERO PUSH2 0xBFA JUMPI RETURNDATASIZE PUSH1 0x0 DUP1 RETURNDATACOPY RETURNDATASIZE PUSH1 0x0 REVERT JUMPDEST POP POP POP POP PUSH1 0x40 MLOAD RETURNDATASIZE PUSH1 0x1F NOT PUSH1 0x1F DUP3 ADD AND DUP3 ADD DUP1 PUSH1 0x40 MSTORE POP DUP2 ADD SWAP1 PUSH2 0xC1E SWAP2 SWAP1 PUSH2 0x1DFD JUMP JUMPDEST DUP4 PUSH1 0x20 ADD DUP2 DUP2 MSTORE POP POP DUP1 PUSH1 0x1 PUSH1 0x1 PUSH1 0xA0 SHL SUB AND PUSH4 0x5EEB6710 PUSH1 0x40 MLOAD DUP2 PUSH4 0xFFFFFFFF AND PUSH1 0xE0 SHL DUP2 MSTORE PUSH1 0x4 ADD PUSH1 0x20 PUSH1 0x40 MLOAD DUP1 DUP4 SUB DUP2 DUP7 DUP1 EXTCODESIZE ISZERO DUP1 ISZERO PUSH2 0xC60 JUMPI PUSH1 0x0 DUP1 REVERT JUMPDEST POP GAS STATICCALL ISZERO DUP1 ISZERO PUSH2 0xC74 JUMPI RETURNDATASIZE PUSH1 0x0 DUP1 RETURNDATACOPY RETURNDATASIZE PUSH1 0x0 REVERT JUMPDEST POP POP POP POP PUSH1 0x40 MLOAD RETURNDATASIZE PUSH1 0x1F NOT PUSH1 0x1F DUP3 ADD AND DUP3 ADD DUP1 PUSH1 0x40 MSTORE POP DUP2 ADD SWAP1 PUSH2 0xC98 SWAP2 SWAP1 PUSH2 0x1DFD JUMP JUMPDEST DUP4 PUSH1 0x40 ADD DUP2 DUP2 MSTORE POP POP DUP1 PUSH1 0x1 PUSH1 0x1 PUSH1 0xA0 SHL SUB AND PUSH4 0xA8B973A1 PUSH1 0x40 MLOAD DUP2 PUSH4 0xFFFFFFFF AND PUSH1 0xE0 SHL DUP2 MSTORE PUSH1 0x4 ADD PUSH1 0x20 PUSH1 0x40 MLOAD DUP1 DUP4 SUB DUP2 DUP7 DUP1 EXTCODESIZE ISZERO DUP1 ISZERO PUSH2 0xCDA JUMPI PUSH1 0x0 DUP1 REVERT JUMPDEST POP GAS STATICCALL ISZERO DUP1 ISZERO PUSH2 0xCEE JUMPI RETURNDATASIZE PUSH1 0x0 DUP1 RETURNDATACOPY RETURNDATASIZE PUSH1 0x0 REVERT JUMPDEST POP POP POP POP PUSH1 0x40 MLOAD RETURNDATASIZE PUSH1 0x1F NOT PUSH1 0x1F DUP3 ADD AND DUP3 ADD DUP1 PUSH1 0x40 MSTORE POP DUP2 ADD SWAP1 PUSH2 0xD12 SWAP2 SWAP1 PUSH2 0x1DFD JUMP JUMPDEST DUP4 PUSH1 0x60 ADD DUP2 DUP2 MSTORE POP POP PUSH2 0xD8F DUP2 PUSH1 0x1 PUSH1 0x1 PUSH1 0xA0 SHL SUB AND PUSH4 0x9EC5A894 PUSH1 0x40 MLOAD DUP2 PUSH4 0xFFFFFFFF AND PUSH1 0xE0 SHL DUP2 MSTORE PUSH1 0x4 ADD PUSH1 0x20 PUSH1 0x40 MLOAD DUP1 DUP4 SUB DUP2 DUP7 DUP1 EXTCODESIZE ISZERO DUP1 ISZERO PUSH2 0xD57 JUMPI PUSH1 0x0 DUP1 REVERT JUMPDEST POP GAS STATICCALL ISZERO DUP1 ISZERO PUSH2 0xD6B JUMPI RETURNDATASIZE PUSH1 0x0 DUP1 RETURNDATACOPY RETURNDATASIZE PUSH1 0x0 REVERT JUMPDEST POP POP POP POP PUSH1 0x40 MLOAD RETURNDATASIZE PUSH1 0x1F NOT PUSH1 0x1F DUP3 ADD AND DUP3 ADD DUP1 PUSH1 0x40 MSTORE POP DUP2 ADD SWAP1 PUSH2 0x146 SWAP2 SWAP1 PUSH2 0x1B88 JUMP JUMPDEST PUSH1 0x80 DUP5 ADD MSTORE PUSH2 0xD9D DUP6 PUSH2 0x112A JUMP JUMPDEST PUSH1 0xA0 DUP5 ADD MSTORE PUSH1 0x1 PUSH1 0x1 PUSH1 0xA0 SHL SUB DUP5 AND ISZERO PUSH2 0x1122 JUMPI PUSH1 0xA0 DUP4 ADD MLOAD DUP1 MLOAD PUSH1 0x1 PUSH1 0x1 PUSH1 0x40 SHL SUB DUP2 GT DUP1 ISZERO PUSH2 0xDCD JUMPI PUSH1 0x0 DUP1 REVERT JUMPDEST POP PUSH1 0x40 MLOAD SWAP1 DUP1 DUP3 MSTORE DUP1 PUSH1 0x20 MUL PUSH1 0x20 ADD DUP3 ADD PUSH1 0x40 MSTORE DUP1 ISZERO PUSH2 0xE07 JUMPI DUP2 PUSH1 0x20 ADD JUMPDEST PUSH2 0xDF4 PUSH2 0x1AD7 JUMP JUMPDEST DUP2 MSTORE PUSH1 0x20 ADD SWAP1 PUSH1 0x1 SWAP1 SUB SWAP1 DUP2 PUSH2 0xDEC JUMPI SWAP1 POP JUMPDEST POP SWAP3 POP PUSH1 0x0 JUMPDEST DUP2 MLOAD DUP2 LT ISZERO PUSH2 0x111F JUMPI PUSH2 0xE1E PUSH2 0x1AD7 JUMP JUMPDEST DUP5 DUP3 DUP2 MLOAD DUP2 LT PUSH2 0xE2A JUMPI INVALID JUMPDEST PUSH1 0x20 MUL PUSH1 0x20 ADD ADD MLOAD SWAP1 POP PUSH1 0x0 DUP4 DUP4 DUP2 MLOAD DUP2 LT PUSH2 0xE42 JUMPI INVALID JUMPDEST PUSH1 0x20 MUL PUSH1 0x20 ADD ADD MLOAD PUSH1 0xA0 ADD MLOAD PUSH1 0x0 ADD MLOAD SWAP1 POP DUP5 PUSH1 0x1 PUSH1 0x1 PUSH1 0xA0 SHL SUB AND PUSH4 0x93F1A40B DUP5 DUP11 PUSH1 0x40 MLOAD DUP4 PUSH4 0xFFFFFFFF AND PUSH1 0xE0 SHL DUP2 MSTORE PUSH1 0x4 ADD PUSH2 0xE82 SWAP3 SWAP2 SWAP1 PUSH2 0x22DD JUMP JUMPDEST PUSH1 0x40 DUP1 MLOAD DUP1 DUP4 SUB DUP2 DUP7 DUP1 EXTCODESIZE ISZERO DUP1 ISZERO PUSH2 0xE99 JUMPI PUSH1 0x0 DUP1 REVERT JUMPDEST POP GAS STATICCALL ISZERO DUP1 ISZERO PUSH2 0xEAD JUMPI RETURNDATASIZE PUSH1 0x0 DUP1 RETURNDATACOPY RETURNDATASIZE PUSH1 0x0 REVERT JUMPDEST POP POP POP POP PUSH1 0x40 MLOAD RETURNDATASIZE PUSH1 0x1F NOT PUSH1 0x1F DUP3 ADD AND DUP3 ADD DUP1 PUSH1 0x40 MSTORE POP DUP2 ADD SWAP1 PUSH2 0xED1 SWAP2 SWAP1 PUSH2 0x1E36 JUMP JUMPDEST PUSH1 0xA0 DUP5 ADD MSTORE PUSH1 0x40 DUP1 DUP5 ADD SWAP2 SWAP1 SWAP2 MSTORE MLOAD PUSH4 0x70A08231 PUSH1 0xE0 SHL DUP2 MSTORE PUSH1 0x1 PUSH1 0x1 PUSH1 0xA0 SHL SUB DUP3 AND SWAP1 PUSH4 0x70A08231 SWAP1 PUSH2 0xF09 SWAP1 DUP12 SWAP1 PUSH1 0x4 ADD PUSH2 0x2056 JUMP JUMPDEST PUSH1 0x20 PUSH1 0x40 MLOAD DUP1 DUP4 SUB DUP2 DUP7 DUP1 EXTCODESIZE ISZERO DUP1 ISZERO PUSH2 0xF21 JUMPI PUSH1 0x0 DUP1 REVERT JUMPDEST POP GAS STATICCALL ISZERO DUP1 ISZERO PUSH2 0xF35 JUMPI RETURNDATASIZE PUSH1 0x0 DUP1 RETURNDATACOPY RETURNDATASIZE PUSH1 0x0 REVERT JUMPDEST POP POP POP POP PUSH1 0x40 MLOAD RETURNDATASIZE PUSH1 0x1F NOT PUSH1 0x1F DUP3 ADD AND DUP3 ADD DUP1 PUSH1 0x40 MSTORE POP DUP2 ADD SWAP1 PUSH2 0xF59 SWAP2 SWAP1 PUSH2 0x1DFD JUMP JUMPDEST PUSH1 0x60 DUP4 ADD MSTORE PUSH1 0x40 MLOAD PUSH4 0x6EB1769F PUSH1 0xE1 SHL DUP2 MSTORE PUSH1 0x1 PUSH1 0x1 PUSH1 0xA0 SHL SUB DUP3 AND SWAP1 PUSH4 0xDD62ED3E SWAP1 PUSH2 0xF8C SWAP1 DUP12 SWAP1 DUP14 SWAP1 PUSH1 0x4 ADD PUSH2 0x206A JUMP JUMPDEST PUSH1 0x20 PUSH1 0x40 MLOAD DUP1 DUP4 SUB DUP2 DUP7 DUP1 EXTCODESIZE ISZERO DUP1 ISZERO PUSH2 0xFA4 JUMPI PUSH1 0x0 DUP1 REVERT JUMPDEST POP GAS STATICCALL ISZERO DUP1 ISZERO PUSH2 0xFB8 JUMPI RETURNDATASIZE PUSH1 0x0 DUP1 RETURNDATACOPY RETURNDATASIZE PUSH1 0x0 REVERT JUMPDEST POP POP POP POP PUSH1 0x40 MLOAD RETURNDATASIZE PUSH1 0x1F NOT PUSH1 0x1F DUP3 ADD AND DUP3 ADD DUP1 PUSH1 0x40 MSTORE POP DUP2 ADD SWAP1 PUSH2 0xFDC SWAP2 SWAP1 PUSH2 0x1DFD JUMP JUMPDEST PUSH1 0x80 DUP4 ADD MSTORE PUSH1 0x40 MLOAD PUSH4 0x34637D4F PUSH1 0xE2 SHL DUP2 MSTORE PUSH1 0x1 PUSH1 0x1 PUSH1 0xA0 SHL SUB DUP7 AND SWAP1 PUSH4 0xD18DF53C SWAP1 PUSH2 0x100F SWAP1 DUP7 SWAP1 DUP13 SWAP1 PUSH1 0x4 ADD PUSH2 0x22DD JUMP JUMPDEST PUSH1 0x20 PUSH1 0x40 MLOAD DUP1 DUP4 SUB DUP2 DUP7 DUP1 EXTCODESIZE ISZERO DUP1 ISZERO PUSH2 0x1027 JUMPI PUSH1 0x0 DUP1 REVERT JUMPDEST POP GAS STATICCALL ISZERO DUP1 ISZERO PUSH2 0x103B JUMPI RETURNDATASIZE PUSH1 0x0 DUP1 RETURNDATACOPY RETURNDATASIZE PUSH1 0x0 REVERT JUMPDEST POP POP POP POP PUSH1 0x40 MLOAD RETURNDATASIZE PUSH1 0x1F NOT PUSH1 0x1F DUP3 ADD AND DUP3 ADD DUP1 PUSH1 0x40 MSTORE POP DUP2 ADD SWAP1 PUSH2 0x105F SWAP2 SWAP1 PUSH2 0x1DFD JUMP JUMPDEST PUSH1 0xC0 DUP4 ADD MSTORE PUSH1 0x40 MLOAD PUSH4 0x93F1A40B PUSH1 0xE0 SHL DUP2 MSTORE PUSH1 0x1 PUSH1 0x1 PUSH1 0xA0 SHL SUB DUP7 AND SWAP1 PUSH4 0x93F1A40B SWAP1 PUSH2 0x1092 SWAP1 DUP7 SWAP1 DUP13 SWAP1 PUSH1 0x4 ADD PUSH2 0x22DD JUMP JUMPDEST PUSH1 0x40 DUP1 MLOAD DUP1 DUP4 SUB DUP2 DUP7 DUP1 EXTCODESIZE ISZERO DUP1 ISZERO PUSH2 0x10A9 JUMPI PUSH1 0x0 DUP1 REVERT JUMPDEST POP GAS STATICCALL ISZERO DUP1 ISZERO PUSH2 0x10BD JUMPI RETURNDATASIZE PUSH1 0x0 DUP1 RETURNDATACOPY RETURNDATASIZE PUSH1 0x0 REVERT JUMPDEST POP POP POP POP PUSH1 0x40 MLOAD RETURNDATASIZE PUSH1 0x1F NOT PUSH1 0x1F DUP3 ADD AND DUP3 ADD DUP1 PUSH1 0x40 MSTORE POP DUP2 ADD SWAP1 PUSH2 0x10E1 SWAP2 SWAP1 PUSH2 0x1E36 JUMP JUMPDEST POP PUSH1 0x40 DUP4 ADD MSTORE PUSH1 0x1 PUSH1 0x1 PUSH1 0xA0 SHL SUB DUP10 AND DUP3 MSTORE PUSH1 0x20 DUP3 ADD DUP4 SWAP1 MSTORE DUP6 MLOAD DUP3 SWAP1 DUP8 SWAP1 DUP6 SWAP1 DUP2 LT PUSH2 0x110A JUMPI INVALID JUMPDEST PUSH1 0x20 SWAP1 DUP2 MUL SWAP2 SWAP1 SWAP2 ADD ADD MSTORE POP POP PUSH1 0x1 ADD PUSH2 0xE0D JUMP JUMPDEST POP POP JUMPDEST POP SWAP3 POP SWAP3 SWAP1 POP JUMP JUMPDEST PUSH1 0x60 PUSH1 0x0 DUP3 SWAP1 POP PUSH1 0x0 DUP2 PUSH1 0x1 PUSH1 0x1 PUSH1 0xA0 SHL SUB AND PUSH4 0x81E3EDA PUSH1 0x40 MLOAD DUP2 PUSH4 0xFFFFFFFF AND PUSH1 0xE0 SHL DUP2 MSTORE PUSH1 0x4 ADD PUSH1 0x20 PUSH1 0x40 MLOAD DUP1 DUP4 SUB DUP2 DUP7 DUP1 EXTCODESIZE ISZERO DUP1 ISZERO PUSH2 0x116C JUMPI PUSH1 0x0 DUP1 REVERT JUMPDEST POP GAS STATICCALL ISZERO DUP1 ISZERO PUSH2 0x1180 JUMPI RETURNDATASIZE PUSH1 0x0 DUP1 RETURNDATACOPY RETURNDATASIZE PUSH1 0x0 REVERT JUMPDEST POP POP POP POP PUSH1 0x40 MLOAD RETURNDATASIZE PUSH1 0x1F NOT PUSH1 0x1F DUP3 ADD AND DUP3 ADD DUP1 PUSH1 0x40 MSTORE POP DUP2 ADD SWAP1 PUSH2 0x11A4 SWAP2 SWAP1 PUSH2 0x1DFD JUMP JUMPDEST SWAP1 POP PUSH1 0x60 DUP2 PUSH1 0x1 PUSH1 0x1 PUSH1 0x40 SHL SUB DUP2 GT DUP1 ISZERO PUSH2 0x11BE JUMPI PUSH1 0x0 DUP1 REVERT JUMPDEST POP PUSH1 0x40 MLOAD SWAP1 DUP1 DUP3 MSTORE DUP1 PUSH1 0x20 MUL PUSH1 0x20 ADD DUP3 ADD PUSH1 0x40 MSTORE DUP1 ISZERO PUSH2 0x11F8 JUMPI DUP2 PUSH1 0x20 ADD JUMPDEST PUSH2 0x11E5 PUSH2 0x1B1D JUMP JUMPDEST DUP2 MSTORE PUSH1 0x20 ADD SWAP1 PUSH1 0x1 SWAP1 SUB SWAP1 DUP2 PUSH2 0x11DD JUMPI SWAP1 POP JUMPDEST POP SWAP1 POP PUSH1 0x0 JUMPDEST DUP3 DUP2 LT ISZERO PUSH2 0x13ED JUMPI PUSH1 0x40 MLOAD PUSH4 0x1526FE27 PUSH1 0xE0 SHL DUP2 MSTORE PUSH1 0x1 PUSH1 0x1 PUSH1 0xA0 SHL SUB DUP6 AND SWAP1 PUSH4 0x1526FE27 SWAP1 PUSH2 0x1232 SWAP1 DUP5 SWAP1 PUSH1 0x4 ADD PUSH2 0x22D4 JUMP JUMPDEST PUSH1 0x80 PUSH1 0x40 MLOAD DUP1 DUP4 SUB DUP2 DUP7 DUP1 EXTCODESIZE ISZERO DUP1 ISZERO PUSH2 0x124A JUMPI PUSH1 0x0 DUP1 REVERT JUMPDEST POP GAS STATICCALL ISZERO DUP1 ISZERO PUSH2 0x125E JUMPI RETURNDATASIZE PUSH1 0x0 DUP1 RETURNDATACOPY RETURNDATASIZE PUSH1 0x0 REVERT JUMPDEST POP POP POP POP PUSH1 0x40 MLOAD RETURNDATASIZE PUSH1 0x1F NOT PUSH1 0x1F DUP3 ADD AND DUP3 ADD DUP1 PUSH1 0x40 MSTORE POP DUP2 ADD SWAP1 PUSH2 0x1282 SWAP2 SWAP1 PUSH2 0x1C81 JUMP JUMPDEST DUP6 DUP6 DUP2 MLOAD DUP2 LT PUSH2 0x128E JUMPI INVALID JUMPDEST PUSH1 0x20 MUL PUSH1 0x20 ADD ADD MLOAD PUSH1 0x0 ADD DUP7 DUP7 DUP2 MLOAD DUP2 LT PUSH2 0x12A5 JUMPI INVALID JUMPDEST PUSH1 0x20 MUL PUSH1 0x20 ADD ADD MLOAD PUSH1 0x20 ADD DUP8 DUP8 DUP2 MLOAD DUP2 LT PUSH2 0x12BC JUMPI INVALID JUMPDEST PUSH1 0x20 MUL PUSH1 0x20 ADD ADD MLOAD PUSH1 0x40 ADD DUP9 DUP9 DUP2 MLOAD DUP2 LT PUSH2 0x12D3 JUMPI INVALID JUMPDEST PUSH1 0x20 SWAP1 DUP2 MUL SWAP2 SWAP1 SWAP2 ADD ADD MLOAD PUSH1 0x60 ADD SWAP4 SWAP1 SWAP4 MSTORE SWAP3 SWAP1 SWAP2 MSTORE SWAP2 SWAP1 MSTORE PUSH1 0x1 PUSH1 0x1 PUSH1 0xA0 SHL SUB SWAP1 SWAP2 AND SWAP1 MSTORE DUP2 MLOAD DUP3 SWAP1 DUP3 SWAP1 DUP2 LT PUSH2 0x1307 JUMPI INVALID JUMPDEST PUSH1 0x20 MUL PUSH1 0x20 ADD ADD MLOAD PUSH1 0x0 ADD MLOAD PUSH1 0x1 PUSH1 0x1 PUSH1 0xA0 SHL SUB AND PUSH4 0x70A08231 DUP8 PUSH1 0x40 MLOAD DUP3 PUSH4 0xFFFFFFFF AND PUSH1 0xE0 SHL DUP2 MSTORE PUSH1 0x4 ADD PUSH2 0x133E SWAP2 SWAP1 PUSH2 0x2056 JUMP JUMPDEST PUSH1 0x20 PUSH1 0x40 MLOAD DUP1 DUP4 SUB DUP2 DUP7 DUP1 EXTCODESIZE ISZERO DUP1 ISZERO PUSH2 0x1356 JUMPI PUSH1 0x0 DUP1 REVERT JUMPDEST POP GAS STATICCALL ISZERO DUP1 ISZERO PUSH2 0x136A JUMPI RETURNDATASIZE PUSH1 0x0 DUP1 RETURNDATACOPY RETURNDATASIZE PUSH1 0x0 REVERT JUMPDEST POP POP POP POP PUSH1 0x40 MLOAD RETURNDATASIZE PUSH1 0x1F NOT PUSH1 0x1F DUP3 ADD AND DUP3 ADD DUP1 PUSH1 0x40 MSTORE POP DUP2 ADD SWAP1 PUSH2 0x138E SWAP2 SWAP1 PUSH2 0x1DFD JUMP JUMPDEST DUP3 DUP3 DUP2 MLOAD DUP2 LT PUSH2 0x139A JUMPI INVALID JUMPDEST PUSH1 0x20 MUL PUSH1 0x20 ADD ADD MLOAD PUSH1 0x80 ADD DUP2 DUP2 MSTORE POP POP PUSH2 0x13CA DUP3 DUP3 DUP2 MLOAD DUP2 LT PUSH2 0x13B9 JUMPI INVALID JUMPDEST PUSH1 0x20 MUL PUSH1 0x20 ADD ADD MLOAD PUSH1 0x0 ADD MLOAD PUSH2 0x780 JUMP JUMPDEST DUP3 DUP3 DUP2 MLOAD DUP2 LT PUSH2 0x13D6 JUMPI INVALID JUMPDEST PUSH1 0x20 SWAP1 DUP2 MUL SWAP2 SWAP1 SWAP2 ADD ADD MLOAD PUSH1 0xA0 ADD MSTORE PUSH1 0x1 ADD PUSH2 0x11FE JUMP JUMPDEST POP SWAP5 SWAP4 POP POP POP POP JUMP JUMPDEST PUSH1 0x2 SLOAD PUSH1 0x1 PUSH1 0x1 PUSH1 0xA0 SHL SUB AND DUP2 JUMP JUMPDEST PUSH1 0x4 SLOAD PUSH1 0x1 PUSH1 0x1 PUSH1 0xA0 SHL SUB AND DUP2 JUMP JUMPDEST PUSH1 0x0 SLOAD PUSH1 0x1 PUSH1 0x1 PUSH1 0xA0 SHL SUB AND DUP2 JUMP JUMPDEST PUSH1 0x40 MLOAD PUSH4 0x6EB1769F PUSH1 0xE1 SHL DUP2 MSTORE PUSH1 0x0 SWAP1 PUSH1 0x1 PUSH1 0x1 PUSH1 0xA0 SHL SUB DUP6 AND SWAP1 PUSH4 0xDD62ED3E SWAP1 PUSH2 0x1454 SWAP1 DUP7 SWAP1 DUP7 SWAP1 PUSH1 0x4 ADD PUSH2 0x206A JUMP JUMPDEST PUSH1 0x20 PUSH1 0x40 MLOAD DUP1 DUP4 SUB DUP2 DUP7 DUP1 EXTCODESIZE ISZERO DUP1 ISZERO PUSH2 0x146C JUMPI PUSH1 0x0 DUP1 REVERT JUMPDEST POP GAS STATICCALL ISZERO DUP1 ISZERO PUSH2 0x1480 JUMPI RETURNDATASIZE PUSH1 0x0 DUP1 RETURNDATACOPY RETURNDATASIZE PUSH1 0x0 REVERT JUMPDEST POP POP POP POP PUSH1 0x40 MLOAD RETURNDATASIZE PUSH1 0x1F NOT PUSH1 0x1F DUP3 ADD AND DUP3 ADD DUP1 PUSH1 0x40 MSTORE POP DUP2 ADD SWAP1 PUSH2 0x14A4 SWAP2 SWAP1 PUSH2 0x1DFD JUMP JUMPDEST SWAP5 SWAP4 POP POP POP POP JUMP JUMPDEST PUSH1 0x60 PUSH1 0x0 PUSH1 0x2 PUSH1 0x0 SWAP1 SLOAD SWAP1 PUSH2 0x100 EXP SWAP1 DIV PUSH1 0x1 PUSH1 0x1 PUSH1 0xA0 SHL SUB AND PUSH1 0x1 PUSH1 0x1 PUSH1 0xA0 SHL SUB AND PUSH4 0x8F5185E8 PUSH1 0x40 MLOAD DUP2 PUSH4 0xFFFFFFFF AND PUSH1 0xE0 SHL DUP2 MSTORE PUSH1 0x4 ADD PUSH1 0x20 PUSH1 0x40 MLOAD DUP1 DUP4 SUB DUP2 DUP7 DUP1 EXTCODESIZE ISZERO DUP1 ISZERO PUSH2 0x14FE JUMPI PUSH1 0x0 DUP1 REVERT JUMPDEST POP GAS STATICCALL ISZERO DUP1 ISZERO PUSH2 0x1512 JUMPI RETURNDATASIZE PUSH1 0x0 DUP1 RETURNDATACOPY RETURNDATASIZE PUSH1 0x0 REVERT JUMPDEST POP POP POP POP PUSH1 0x40 MLOAD RETURNDATASIZE PUSH1 0x1F NOT PUSH1 0x1F DUP3 ADD AND DUP3 ADD DUP1 PUSH1 0x40 MSTORE POP DUP2 ADD SWAP1 PUSH2 0x1536 SWAP2 SWAP1 PUSH2 0x1DFD JUMP JUMPDEST SWAP1 POP PUSH1 0x60 DUP2 PUSH1 0x1 PUSH1 0x1 PUSH1 0x40 SHL SUB DUP2 GT DUP1 ISZERO PUSH2 0x1550 JUMPI PUSH1 0x0 DUP1 REVERT JUMPDEST POP PUSH1 0x40 MLOAD SWAP1 DUP1 DUP3 MSTORE DUP1 PUSH1 0x20 MUL PUSH1 0x20 ADD DUP3 ADD PUSH1 0x40 MSTORE DUP1 ISZERO PUSH2 0x158A JUMPI DUP2 PUSH1 0x20 ADD JUMPDEST PUSH2 0x1577 PUSH2 0x1A92 JUMP JUMPDEST DUP2 MSTORE PUSH1 0x20 ADD SWAP1 PUSH1 0x1 SWAP1 SUB SWAP1 DUP2 PUSH2 0x156F JUMPI SWAP1 POP JUMPDEST POP SWAP1 POP PUSH1 0x0 JUMPDEST DUP3 DUP2 LT ISZERO PUSH2 0x16CB JUMPI PUSH1 0x2 SLOAD PUSH1 0x40 MLOAD PUSH4 0x3ED23875 PUSH1 0xE1 SHL DUP2 MSTORE PUSH1 0x0 SWAP2 PUSH1 0x1 PUSH1 0x1 PUSH1 0xA0 SHL SUB AND SWAP1 PUSH4 0x7DA470EA SWAP1 PUSH2 0x15C9 SWAP1 DUP6 SWAP1 PUSH1 0x4 ADD PUSH2 0x22D4 JUMP JUMPDEST PUSH1 0x20 PUSH1 0x40 MLOAD DUP1 DUP4 SUB DUP2 DUP7 DUP1 EXTCODESIZE ISZERO DUP1 ISZERO PUSH2 0x15E1 JUMPI PUSH1 0x0 DUP1 REVERT JUMPDEST POP GAS STATICCALL ISZERO DUP1 ISZERO PUSH2 0x15F5 JUMPI RETURNDATASIZE PUSH1 0x0 DUP1 RETURNDATACOPY RETURNDATASIZE PUSH1 0x0 REVERT JUMPDEST POP POP POP POP PUSH1 0x40 MLOAD RETURNDATASIZE PUSH1 0x1F NOT PUSH1 0x1F DUP3 ADD AND DUP3 ADD DUP1 PUSH1 0x40 MSTORE POP DUP2 ADD SWAP1 PUSH2 0x1619 SWAP2 SWAP1 PUSH2 0x1B88 JUMP JUMPDEST PUSH1 0x2 SLOAD PUSH1 0x40 MLOAD PUSH4 0x699AF5ED PUSH1 0xE1 SHL DUP2 MSTORE SWAP2 SWAP3 POP PUSH1 0x0 SWAP2 PUSH1 0x1 PUSH1 0x1 PUSH1 0xA0 SHL SUB SWAP1 SWAP2 AND SWAP1 PUSH4 0xD335EBDA SWAP1 PUSH2 0x164F SWAP1 DUP6 SWAP1 PUSH1 0x4 ADD PUSH2 0x2056 JUMP JUMPDEST PUSH1 0x20 PUSH1 0x40 MLOAD DUP1 DUP4 SUB DUP2 DUP7 DUP1 EXTCODESIZE ISZERO DUP1 ISZERO PUSH2 0x1667 JUMPI PUSH1 0x0 DUP1 REVERT JUMPDEST POP GAS STATICCALL ISZERO DUP1 ISZERO PUSH2 0x167B JUMPI RETURNDATASIZE PUSH1 0x0 DUP1 RETURNDATACOPY RETURNDATASIZE PUSH1 0x0 REVERT JUMPDEST POP POP POP POP PUSH1 0x40 MLOAD RETURNDATASIZE PUSH1 0x1F NOT PUSH1 0x1F DUP3 ADD AND DUP3 ADD DUP1 PUSH1 0x40 MSTORE POP DUP2 ADD SWAP1 PUSH2 0x169F SWAP2 SWAP1 PUSH2 0x1DFD JUMP JUMPDEST SWAP1 POP PUSH2 0x16AA DUP3 PUSH2 0x184E JUMP JUMPDEST DUP5 DUP5 DUP2 MLOAD DUP2 LT PUSH2 0x16B6 JUMPI INVALID JUMPDEST PUSH1 0x20 SWAP1 DUP2 MUL SWAP2 SWAP1 SWAP2 ADD ADD MSTORE POP POP PUSH1 0x1 ADD PUSH2 0x1590 JUMP JUMPDEST POP SWAP2 POP POP SWAP1 JUMP JUMPDEST PUSH1 0x60 PUSH2 0x16E0 DUP4 DUP4 PUSH1 0x0 PUSH2 0x916 JUMP JUMPDEST SWAP1 POP JUMPDEST SWAP3 SWAP2 POP POP JUMP JUMPDEST PUSH1 0x4 DUP1 SLOAD PUSH1 0x40 MLOAD PUSH4 0xC395FCB3 PUSH1 0xE0 SHL DUP2 MSTORE PUSH1 0x1 PUSH1 0x1 PUSH1 0xA0 SHL SUB SWAP1 SWAP2 AND SWAP2 PUSH4 0xC395FCB3 SWAP2 PUSH2 0x1718 SWAP2 CALLER SWAP2 ADD PUSH2 0x2056 JUMP JUMPDEST PUSH1 0x20 PUSH1 0x40 MLOAD DUP1 DUP4 SUB DUP2 DUP7 DUP1 EXTCODESIZE ISZERO DUP1 ISZERO PUSH2 0x1730 JUMPI PUSH1 0x0 DUP1 REVERT JUMPDEST POP GAS STATICCALL ISZERO DUP1 ISZERO PUSH2 0x1744 JUMPI RETURNDATASIZE PUSH1 0x0 DUP1 RETURNDATACOPY RETURNDATASIZE PUSH1 0x0 REVERT JUMPDEST POP POP POP POP PUSH1 0x40 MLOAD RETURNDATASIZE PUSH1 0x1F NOT PUSH1 0x1F DUP3 ADD AND DUP3 ADD DUP1 PUSH1 0x40 MSTORE POP DUP2 ADD SWAP1 PUSH2 0x1768 SWAP2 SWAP1 PUSH2 0x1D5B JUMP JUMPDEST PUSH2 0x178D JUMPI PUSH1 0x40 MLOAD PUSH3 0x461BCD PUSH1 0xE5 SHL DUP2 MSTORE PUSH1 0x4 ADD PUSH2 0x1784 SWAP1 PUSH2 0x21FE JUMP JUMPDEST PUSH1 0x40 MLOAD DUP1 SWAP2 SUB SWAP1 REVERT JUMPDEST PUSH1 0x1 PUSH1 0x1 PUSH1 0xA0 SHL SUB DUP4 AND ISZERO PUSH2 0x17B8 JUMPI PUSH1 0x0 DUP1 SLOAD PUSH1 0x1 PUSH1 0x1 PUSH1 0xA0 SHL SUB NOT AND PUSH1 0x1 PUSH1 0x1 PUSH1 0xA0 SHL SUB DUP6 AND OR SWAP1 SSTORE JUMPDEST PUSH1 0x1 PUSH1 0x1 PUSH1 0xA0 SHL SUB DUP5 AND ISZERO PUSH2 0x17E3 JUMPI PUSH1 0x1 DUP1 SLOAD PUSH1 0x1 PUSH1 0x1 PUSH1 0xA0 SHL SUB NOT AND PUSH1 0x1 PUSH1 0x1 PUSH1 0xA0 SHL SUB DUP7 AND OR SWAP1 SSTORE JUMPDEST PUSH1 0x1 PUSH1 0x1 PUSH1 0xA0 SHL SUB DUP3 AND ISZERO PUSH2 0x180E JUMPI PUSH1 0x3 DUP1 SLOAD PUSH1 0x1 PUSH1 0x1 PUSH1 0xA0 SHL SUB NOT AND PUSH1 0x1 PUSH1 0x1 PUSH1 0xA0 SHL SUB DUP5 AND OR SWAP1 SSTORE JUMPDEST PUSH1 0x1 PUSH1 0x1 PUSH1 0xA0 SHL SUB DUP2 AND ISZERO PUSH2 0x1839 JUMPI PUSH1 0x2 DUP1 SLOAD PUSH1 0x1 PUSH1 0x1 PUSH1 0xA0 SHL SUB NOT AND PUSH1 0x1 PUSH1 0x1 PUSH1 0xA0 SHL SUB DUP4 AND OR SWAP1 SSTORE JUMPDEST POP POP POP POP JUMP JUMPDEST PUSH1 0x1 SLOAD PUSH1 0x1 PUSH1 0x1 PUSH1 0xA0 SHL SUB AND DUP2 JUMP JUMPDEST PUSH2 0x1856 PUSH2 0x1A92 JUMP JUMPDEST PUSH1 0x1 PUSH1 0x1 PUSH1 0xA0 SHL SUB DUP1 DUP4 AND DUP3 MSTORE PUSH1 0x2 SLOAD PUSH1 0x40 MLOAD PUSH4 0x699AF5ED PUSH1 0xE1 SHL DUP2 MSTORE DUP5 SWAP3 SWAP2 SWAP1 SWAP2 AND SWAP1 PUSH4 0xD335EBDA SWAP1 PUSH2 0x188E SWAP1 DUP5 SWAP1 PUSH1 0x4 ADD PUSH2 0x2056 JUMP JUMPDEST PUSH1 0x20 PUSH1 0x40 MLOAD DUP1 DUP4 SUB DUP2 DUP7 DUP1 EXTCODESIZE ISZERO DUP1 ISZERO PUSH2 0x18A6 JUMPI PUSH1 0x0 DUP1 REVERT JUMPDEST POP GAS STATICCALL ISZERO DUP1 ISZERO PUSH2 0x18BA JUMPI RETURNDATASIZE PUSH1 0x0 DUP1 RETURNDATACOPY RETURNDATASIZE PUSH1 0x0 REVERT JUMPDEST POP POP POP POP PUSH1 0x40 MLOAD RETURNDATASIZE PUSH1 0x1F NOT PUSH1 0x1F DUP3 ADD AND DUP3 ADD DUP1 PUSH1 0x40 MSTORE POP DUP2 ADD SWAP1 PUSH2 0x18DE SWAP2 SWAP1 PUSH2 0x1DFD JUMP JUMPDEST DUP3 PUSH1 0x20 ADD DUP2 DUP2 MSTORE POP POP DUP1 PUSH1 0x1 PUSH1 0x1 PUSH1 0xA0 SHL SUB AND PUSH4 0x5EEB6710 PUSH1 0x40 MLOAD DUP2 PUSH4 0xFFFFFFFF AND PUSH1 0xE0 SHL DUP2 MSTORE PUSH1 0x4 ADD PUSH1 0x20 PUSH1 0x40 MLOAD DUP1 DUP4 SUB DUP2 DUP7 DUP1 EXTCODESIZE ISZERO DUP1 ISZERO PUSH2 0x1920 JUMPI PUSH1 0x0 DUP1 REVERT JUMPDEST POP GAS STATICCALL ISZERO DUP1 ISZERO PUSH2 0x1934 JUMPI RETURNDATASIZE PUSH1 0x0 DUP1 RETURNDATACOPY RETURNDATASIZE PUSH1 0x0 REVERT JUMPDEST POP POP POP POP PUSH1 0x40 MLOAD RETURNDATASIZE PUSH1 0x1F NOT PUSH1 0x1F DUP3 ADD AND DUP3 ADD DUP1 PUSH1 0x40 MSTORE POP DUP2 ADD SWAP1 PUSH2 0x1958 SWAP2 SWAP1 PUSH2 0x1DFD JUMP JUMPDEST DUP3 PUSH1 0x40 ADD DUP2 DUP2 MSTORE POP POP DUP1 PUSH1 0x1 PUSH1 0x1 PUSH1 0xA0 SHL SUB AND PUSH4 0xA8B973A1 PUSH1 0x40 MLOAD DUP2 PUSH4 0xFFFFFFFF AND PUSH1 0xE0 SHL DUP2 MSTORE PUSH1 0x4 ADD PUSH1 0x20 PUSH1 0x40 MLOAD DUP1 DUP4 SUB DUP2 DUP7 DUP1 EXTCODESIZE ISZERO DUP1 ISZERO PUSH2 0x199A JUMPI PUSH1 0x0 DUP1 REVERT JUMPDEST POP GAS STATICCALL ISZERO DUP1 ISZERO PUSH2 0x19AE JUMPI RETURNDATASIZE PUSH1 0x0 DUP1 RETURNDATACOPY RETURNDATASIZE PUSH1 0x0 REVERT JUMPDEST POP POP POP POP PUSH1 0x40 MLOAD RETURNDATASIZE PUSH1 0x1F NOT PUSH1 0x1F DUP3 ADD AND DUP3 ADD DUP1 PUSH1 0x40 MSTORE POP DUP2 ADD SWAP1 PUSH2 0x19D2 SWAP2 SWAP1 PUSH2 0x1DFD JUMP JUMPDEST DUP3 PUSH1 0x60 ADD DUP2 DUP2 MSTORE POP POP PUSH2 0x1A17 DUP2 PUSH1 0x1 PUSH1 0x1 PUSH1 0xA0 SHL SUB AND PUSH4 0x9EC5A894 PUSH1 0x40 MLOAD DUP2 PUSH4 0xFFFFFFFF AND PUSH1 0xE0 SHL DUP2 MSTORE PUSH1 0x4 ADD PUSH1 0x20 PUSH1 0x40 MLOAD DUP1 DUP4 SUB DUP2 DUP7 DUP1 EXTCODESIZE ISZERO DUP1 ISZERO PUSH2 0xD57 JUMPI PUSH1 0x0 DUP1 REVERT JUMPDEST PUSH1 0x80 DUP4 ADD MSTORE PUSH2 0x1A25 DUP4 PUSH2 0x112A JUMP JUMPDEST PUSH1 0xA0 DUP4 ADD MSTORE POP SWAP2 SWAP1 POP JUMP JUMPDEST PUSH1 0x40 MLOAD DUP1 PUSH1 0x80 ADD PUSH1 0x40 MSTORE DUP1 PUSH1 0x0 PUSH1 0x1 PUSH1 0x1 PUSH1 0xA0 SHL SUB AND DUP2 MSTORE PUSH1 0x20 ADD PUSH1 0x60 DUP2 MSTORE PUSH1 0x20 ADD PUSH1 0x60 DUP2 MSTORE PUSH1 0x20 ADD PUSH1 0x60 DUP2 MSTORE POP SWAP1 JUMP JUMPDEST PUSH1 0x40 MLOAD DUP1 PUSH1 0x80 ADD PUSH1 0x40 MSTORE DUP1 PUSH1 0x0 PUSH1 0x1 PUSH1 0x1 PUSH1 0xA0 SHL SUB AND DUP2 MSTORE PUSH1 0x20 ADD PUSH1 0x0 DUP2 MSTORE PUSH1 0x20 ADD PUSH1 0x60 DUP2 MSTORE PUSH1 0x20 ADD PUSH1 0x60 DUP2 MSTORE POP SWAP1 JUMP JUMPDEST PUSH1 0x40 MLOAD DUP1 PUSH1 0xC0 ADD PUSH1 0x40 MSTORE DUP1 PUSH1 0x0 PUSH1 0x1 PUSH1 0x1 PUSH1 0xA0 SHL SUB AND DUP2 MSTORE PUSH1 0x20 ADD PUSH1 0x0 DUP2 MSTORE PUSH1 0x20 ADD PUSH1 0x0 DUP2 MSTORE PUSH1 0x20 ADD PUSH1 0x0 DUP2 MSTORE PUSH1 0x20 ADD PUSH2 0x1ACA PUSH2 0x1A61 JUMP JUMPDEST DUP2 MSTORE PUSH1 0x20 ADD PUSH1 0x60 DUP2 MSTORE POP SWAP1 JUMP JUMPDEST PUSH1 0x40 MLOAD DUP1 PUSH1 0xE0 ADD PUSH1 0x40 MSTORE DUP1 PUSH1 0x0 PUSH1 0x1 PUSH1 0x1 PUSH1 0xA0 SHL SUB AND DUP2 MSTORE PUSH1 0x20 ADD PUSH1 0x0 DUP2 MSTORE PUSH1 0x20 ADD PUSH1 0x0 DUP2 MSTORE PUSH1 0x20 ADD PUSH1 0x0 DUP2 MSTORE PUSH1 0x20 ADD PUSH1 0x0 DUP2 MSTORE PUSH1 0x20 ADD PUSH1 0x0 DUP2 MSTORE PUSH1 0x20 ADD PUSH1 0x0 DUP2 MSTORE POP SWAP1 JUMP JUMPDEST PUSH1 0x40 MLOAD DUP1 PUSH1 0xC0 ADD PUSH1 0x40 MSTORE DUP1 PUSH1 0x0 PUSH1 0x1 PUSH1 0x1 PUSH1 0xA0 SHL SUB AND DUP2 MSTORE PUSH1 0x20 ADD PUSH1 0x0 DUP2 MSTORE PUSH1 0x20 ADD PUSH1 0x0 DUP2 MSTORE PUSH1 0x20 ADD PUSH1 0x0 DUP2 MSTORE PUSH1 0x20 ADD PUSH1 0x0 DUP2 MSTORE PUSH1 0x20 ADD PUSH2 0x1B5C PUSH2 0x1A61 JUMP JUMPDEST SWAP1 MSTORE SWAP1 JUMP JUMPDEST DUP1 CALLDATALOAD PUSH2 0x16E3 DUP2 PUSH2 0x2365 JUMP JUMPDEST PUSH1 0x0 PUSH1 0x20 DUP3 DUP5 SUB SLT ISZERO PUSH2 0x1B7D JUMPI DUP1 DUP2 REVERT JUMPDEST DUP2 CALLDATALOAD PUSH2 0xAE2 DUP2 PUSH2 0x2365 JUMP JUMPDEST PUSH1 0x0 PUSH1 0x20 DUP3 DUP5 SUB SLT ISZERO PUSH2 0x1B99 JUMPI DUP1 DUP2 REVERT JUMPDEST DUP2 MLOAD PUSH2 0xAE2 DUP2 PUSH2 0x2365 JUMP JUMPDEST PUSH1 0x0 DUP1 PUSH1 0x40 DUP4 DUP6 SUB SLT ISZERO PUSH2 0x1BB6 JUMPI DUP1 DUP2 REVERT JUMPDEST DUP3 CALLDATALOAD PUSH2 0x1BC1 DUP2 PUSH2 0x2365 JUMP JUMPDEST SWAP2 POP PUSH1 0x20 DUP4 ADD CALLDATALOAD PUSH2 0x1BD1 DUP2 PUSH2 0x2365 JUMP JUMPDEST DUP1 SWAP2 POP POP SWAP3 POP SWAP3 SWAP1 POP JUMP JUMPDEST PUSH1 0x0 DUP1 PUSH1 0x0 PUSH1 0x60 DUP5 DUP7 SUB SLT ISZERO PUSH2 0x1BF0 JUMPI DUP1 DUP2 REVERT JUMPDEST DUP4 CALLDATALOAD PUSH2 0x1BFB DUP2 PUSH2 0x2365 JUMP JUMPDEST SWAP3 POP PUSH1 0x20 DUP5 ADD CALLDATALOAD PUSH2 0x1C0B DUP2 PUSH2 0x2365 JUMP JUMPDEST SWAP2 POP PUSH1 0x40 DUP5 ADD CALLDATALOAD PUSH2 0x1C1B DUP2 PUSH2 0x2365 JUMP JUMPDEST DUP1 SWAP2 POP POP SWAP3 POP SWAP3 POP SWAP3 JUMP JUMPDEST PUSH1 0x0 DUP1 PUSH1 0x0 DUP1 PUSH1 0x80 DUP6 DUP8 SUB SLT ISZERO PUSH2 0x1C3B JUMPI DUP1 DUP2 REVERT JUMPDEST DUP5 CALLDATALOAD PUSH2 0x1C46 DUP2 PUSH2 0x2365 JUMP JUMPDEST SWAP4 POP PUSH1 0x20 DUP6 ADD CALLDATALOAD PUSH2 0x1C56 DUP2 PUSH2 0x2365 JUMP JUMPDEST SWAP3 POP PUSH1 0x40 DUP6 ADD CALLDATALOAD PUSH2 0x1C66 DUP2 PUSH2 0x2365 JUMP JUMPDEST SWAP2 POP PUSH1 0x60 DUP6 ADD CALLDATALOAD PUSH2 0x1C76 DUP2 PUSH2 0x2365 JUMP JUMPDEST SWAP4 SWAP7 SWAP3 SWAP6 POP SWAP1 SWAP4 POP POP JUMP JUMPDEST PUSH1 0x0 DUP1 PUSH1 0x0 DUP1 PUSH1 0x80 DUP6 DUP8 SUB SLT ISZERO PUSH2 0x1C96 JUMPI DUP4 DUP5 REVERT JUMPDEST DUP5 MLOAD PUSH2 0x1CA1 DUP2 PUSH2 0x2365 JUMP JUMPDEST PUSH1 0x20 DUP7 ADD MLOAD PUSH1 0x40 DUP8 ADD MLOAD PUSH1 0x60 SWAP1 SWAP8 ADD MLOAD SWAP2 SWAP9 SWAP1 SWAP8 POP SWAP1 SWAP5 POP SWAP3 POP POP POP JUMP JUMPDEST PUSH1 0x0 PUSH1 0x20 DUP1 DUP4 DUP6 SUB SLT ISZERO PUSH2 0x1CD1 JUMPI DUP2 DUP3 REVERT JUMPDEST DUP3 CALLDATALOAD PUSH1 0x1 PUSH1 0x1 PUSH1 0x40 SHL SUB DUP2 GT ISZERO PUSH2 0x1CE6 JUMPI DUP3 DUP4 REVERT JUMPDEST DUP4 ADD PUSH1 0x1F DUP2 ADD DUP6 SGT PUSH2 0x1CF6 JUMPI DUP3 DUP4 REVERT JUMPDEST DUP1 CALLDATALOAD PUSH2 0x1D09 PUSH2 0x1D04 DUP3 PUSH2 0x231A JUMP JUMPDEST PUSH2 0x22F4 JUMP JUMPDEST DUP2 DUP2 MSTORE DUP4 DUP2 ADD SWAP1 DUP4 DUP6 ADD DUP6 DUP5 MUL DUP6 ADD DUP7 ADD DUP10 LT ISZERO PUSH2 0x1D25 JUMPI DUP7 DUP8 REVERT JUMPDEST DUP7 SWAP5 POP JUMPDEST DUP4 DUP6 LT ISZERO PUSH2 0x1D4F JUMPI PUSH2 0x1D3B DUP10 DUP3 PUSH2 0x1B61 JUMP JUMPDEST DUP4 MSTORE PUSH1 0x1 SWAP5 SWAP1 SWAP5 ADD SWAP4 SWAP2 DUP6 ADD SWAP2 DUP6 ADD PUSH2 0x1D29 JUMP JUMPDEST POP SWAP8 SWAP7 POP POP POP POP POP POP POP JUMP JUMPDEST PUSH1 0x0 PUSH1 0x20 DUP3 DUP5 SUB SLT ISZERO PUSH2 0x1D6C JUMPI DUP1 DUP2 REVERT JUMPDEST DUP2 MLOAD DUP1 ISZERO ISZERO DUP2 EQ PUSH2 0xAE2 JUMPI DUP2 DUP3 REVERT JUMPDEST PUSH1 0x0 PUSH1 0x20 DUP3 DUP5 SUB SLT ISZERO PUSH2 0x1D8C JUMPI DUP1 DUP2 REVERT JUMPDEST DUP2 MLOAD PUSH1 0x1 PUSH1 0x1 PUSH1 0x40 SHL SUB DUP1 DUP3 GT ISZERO PUSH2 0x1DA2 JUMPI DUP3 DUP4 REVERT JUMPDEST DUP2 DUP5 ADD SWAP2 POP DUP5 PUSH1 0x1F DUP4 ADD SLT PUSH2 0x1DB5 JUMPI DUP3 DUP4 REVERT JUMPDEST DUP2 MLOAD DUP2 DUP2 GT ISZERO PUSH2 0x1DC3 JUMPI DUP4 DUP5 REVERT JUMPDEST PUSH2 0x1DD6 PUSH1 0x1F DUP3 ADD PUSH1 0x1F NOT AND PUSH1 0x20 ADD PUSH2 0x22F4 JUMP JUMPDEST SWAP2 POP DUP1 DUP3 MSTORE DUP6 PUSH1 0x20 DUP3 DUP6 ADD ADD GT ISZERO PUSH2 0x1DEC JUMPI DUP4 DUP5 REVERT JUMPDEST PUSH2 0x13ED DUP2 PUSH1 0x20 DUP5 ADD PUSH1 0x20 DUP7 ADD PUSH2 0x2339 JUMP JUMPDEST PUSH1 0x0 PUSH1 0x20 DUP3 DUP5 SUB SLT ISZERO PUSH2 0x1E0E JUMPI DUP1 DUP2 REVERT JUMPDEST POP MLOAD SWAP2 SWAP1 POP JUMP JUMPDEST PUSH1 0x0 DUP1 PUSH1 0x40 DUP4 DUP6 SUB SLT ISZERO PUSH2 0x1E27 JUMPI DUP2 DUP3 REVERT JUMPDEST POP POP DUP1 CALLDATALOAD SWAP3 PUSH1 0x20 SWAP1 SWAP2 ADD CALLDATALOAD SWAP2 POP JUMP JUMPDEST PUSH1 0x0 DUP1 PUSH1 0x40 DUP4 DUP6 SUB SLT ISZERO PUSH2 0x1E48 JUMPI DUP2 DUP3 REVERT JUMPDEST POP POP DUP1 MLOAD PUSH1 0x20 SWAP1 SWAP2 ADD MLOAD SWAP1 SWAP3 SWAP1 SWAP2 POP JUMP JUMPDEST PUSH1 0x0 DUP1 PUSH1 0x0 PUSH1 0x60 DUP5 DUP7 SUB SLT ISZERO PUSH2 0x1E6D JUMPI DUP3 DUP4 REVERT JUMPDEST POP POP DUP2 CALLDATALOAD SWAP4 PUSH1 0x20 DUP4 ADD CALLDATALOAD SWAP4 POP PUSH1 0x40 SWAP1 SWAP3 ADD CALLDATALOAD SWAP2 SWAP1 POP JUMP JUMPDEST PUSH1 0x0 PUSH1 0x20 DUP3 DUP5 SUB SLT ISZERO PUSH2 0x1E95 JUMPI DUP1 DUP2 REVERT JUMPDEST DUP2 MLOAD PUSH1 0xFF DUP2 AND DUP2 EQ PUSH2 0xAE2 JUMPI DUP2 DUP3 REVERT JUMPDEST PUSH1 0x0 DUP2 MLOAD DUP1 DUP5 MSTORE PUSH1 0x20 DUP1 DUP6 ADD DUP1 DUP2 SWAP7 POP DUP3 DUP5 MUL DUP2 ADD SWAP2 POP DUP3 DUP7 ADD DUP6 JUMPDEST DUP6 DUP2 LT ISZERO PUSH2 0x1F32 JUMPI DUP3 DUP5 SUB DUP10 MSTORE DUP2 MLOAD DUP1 MLOAD PUSH1 0x1 PUSH1 0x1 PUSH1 0xA0 SHL SUB AND DUP6 MSTORE DUP6 DUP2 ADD MLOAD DUP7 DUP7 ADD MSTORE PUSH1 0x40 DUP1 DUP3 ADD MLOAD SWAP1 DUP7 ADD MSTORE PUSH1 0x60 DUP1 DUP3 ADD MLOAD SWAP1 DUP7 ADD MSTORE PUSH1 0x80 DUP1 DUP3 ADD MLOAD SWAP1 DUP7 ADD MSTORE PUSH1 0xA0 SWAP1 DUP2 ADD MLOAD PUSH1 0xC0 SWAP2 DUP7 ADD DUP3 SWAP1 MSTORE SWAP1 PUSH2 0x1F1E DUP2 DUP8 ADD DUP4 PUSH2 0x200C JUMP JUMPDEST SWAP11 DUP8 ADD SWAP11 SWAP6 POP POP POP SWAP1 DUP5 ADD SWAP1 PUSH1 0x1 ADD PUSH2 0x1EC1 JUMP JUMPDEST POP SWAP2 SWAP8 SWAP7 POP POP POP POP POP POP POP JUMP JUMPDEST PUSH1 0x0 DUP2 MLOAD DUP1 DUP5 MSTORE PUSH1 0x20 DUP1 DUP6 ADD SWAP5 POP DUP1 DUP5 ADD DUP4 JUMPDEST DUP4 DUP2 LT ISZERO PUSH2 0x1F6E JUMPI DUP2 MLOAD DUP8 MSTORE SWAP6 DUP3 ADD SWAP6 SWAP1 DUP3 ADD SWAP1 PUSH1 0x1 ADD PUSH2 0x1F52 JUMP JUMPDEST POP SWAP5 SWAP6 SWAP5 POP POP POP POP POP JUMP JUMPDEST PUSH1 0x0 DUP2 MLOAD DUP1 DUP5 MSTORE PUSH2 0x1F91 DUP2 PUSH1 0x20 DUP7 ADD PUSH1 0x20 DUP7 ADD PUSH2 0x2339 JUMP JUMPDEST PUSH1 0x1F ADD PUSH1 0x1F NOT AND SWAP3 SWAP1 SWAP3 ADD PUSH1 0x20 ADD SWAP3 SWAP2 POP POP JUMP JUMPDEST PUSH1 0x0 PUSH1 0x1 DUP1 PUSH1 0xA0 SHL SUB DUP3 MLOAD AND DUP4 MSTORE PUSH1 0x20 DUP3 ADD MLOAD PUSH1 0x20 DUP5 ADD MSTORE PUSH1 0x40 DUP3 ADD MLOAD PUSH1 0x40 DUP5 ADD MSTORE PUSH1 0x60 DUP3 ADD MLOAD PUSH1 0x60 DUP5 ADD MSTORE PUSH1 0x80 DUP3 ADD MLOAD PUSH1 0xC0 PUSH1 0x80 DUP6 ADD MSTORE PUSH2 0x1FEA PUSH1 0xC0 DUP6 ADD DUP3 PUSH2 0x200C JUMP JUMPDEST SWAP1 POP PUSH1 0xA0 DUP4 ADD MLOAD DUP5 DUP3 SUB PUSH1 0xA0 DUP7 ADD MSTORE PUSH2 0x2003 DUP3 DUP3 PUSH2 0x1EA5 JUMP JUMPDEST SWAP6 SWAP5 POP POP POP POP POP JUMP JUMPDEST PUSH1 0x0 PUSH1 0x1 DUP1 PUSH1 0xA0 SHL SUB DUP3 MLOAD AND DUP4 MSTORE PUSH1 0x20 DUP3 ADD MLOAD PUSH1 0x20 DUP5 ADD MSTORE PUSH1 0x40 DUP3 ADD MLOAD PUSH1 0x80 PUSH1 0x40 DUP6 ADD MSTORE PUSH2 0x203D PUSH1 0x80 DUP6 ADD DUP3 PUSH2 0x1F79 JUMP JUMPDEST SWAP1 POP PUSH1 0x60 DUP4 ADD MLOAD DUP5 DUP3 SUB PUSH1 0x60 DUP7 ADD MSTORE PUSH2 0x2003 DUP3 DUP3 PUSH2 0x1F79 JUMP JUMPDEST PUSH1 0x1 PUSH1 0x1 PUSH1 0xA0 SHL SUB SWAP2 SWAP1 SWAP2 AND DUP2 MSTORE PUSH1 0x20 ADD SWAP1 JUMP JUMPDEST PUSH1 0x1 PUSH1 0x1 PUSH1 0xA0 SHL SUB SWAP3 DUP4 AND DUP2 MSTORE SWAP2 AND PUSH1 0x20 DUP3 ADD MSTORE PUSH1 0x40 ADD SWAP1 JUMP JUMPDEST PUSH1 0x0 PUSH1 0x20 DUP1 DUP4 ADD DUP2 DUP5 MSTORE DUP1 DUP6 MLOAD DUP1 DUP4 MSTORE PUSH1 0x40 DUP7 ADD SWAP2 POP PUSH1 0x40 DUP5 DUP3 MUL DUP8 ADD ADD SWAP3 POP DUP4 DUP8 ADD DUP6 JUMPDEST DUP3 DUP2 LT ISZERO PUSH2 0x20D7 JUMPI PUSH1 0x3F NOT DUP9 DUP7 SUB ADD DUP5 MSTORE PUSH2 0x20C5 DUP6 DUP4 MLOAD PUSH2 0x1FA5 JUMP JUMPDEST SWAP5 POP SWAP3 DUP6 ADD SWAP3 SWAP1 DUP6 ADD SWAP1 PUSH1 0x1 ADD PUSH2 0x20A9 JUMP JUMPDEST POP SWAP3 SWAP8 SWAP7 POP POP POP POP POP POP POP JUMP JUMPDEST PUSH1 0x0 PUSH1 0x20 DUP3 MSTORE PUSH2 0x16E0 PUSH1 0x20 DUP4 ADD DUP5 PUSH2 0x1EA5 JUMP JUMPDEST PUSH1 0x0 PUSH1 0x20 DUP1 DUP4 ADD DUP2 DUP5 MSTORE DUP1 DUP6 MLOAD DUP1 DUP4 MSTORE PUSH1 0x40 DUP7 ADD SWAP2 POP PUSH1 0x40 DUP5 DUP3 MUL DUP8 ADD ADD SWAP3 POP DUP4 DUP8 ADD DUP6 JUMPDEST DUP3 DUP2 LT ISZERO PUSH2 0x20D7 JUMPI PUSH1 0x3F NOT DUP9 DUP7 SUB ADD DUP5 MSTORE PUSH2 0x2138 DUP6 DUP4 MLOAD PUSH2 0x200C JUMP JUMPDEST SWAP5 POP SWAP3 DUP6 ADD SWAP3 SWAP1 DUP6 ADD SWAP1 PUSH1 0x1 ADD PUSH2 0x211C JUMP JUMPDEST PUSH1 0x20 DUP1 DUP3 MSTORE DUP3 MLOAD DUP3 DUP3 ADD DUP2 SWAP1 MSTORE PUSH1 0x0 SWAP2 SWAP1 PUSH1 0x40 SWAP1 DUP2 DUP6 ADD SWAP1 DUP1 DUP5 MUL DUP7 ADD DUP4 ADD DUP8 DUP6 ADD DUP7 JUMPDEST DUP4 DUP2 LT ISZERO PUSH2 0x21F0 JUMPI DUP9 DUP4 SUB PUSH1 0x3F NOT ADD DUP6 MSTORE DUP2 MLOAD DUP1 MLOAD PUSH1 0x1 PUSH1 0x1 PUSH1 0xA0 SHL SUB AND DUP5 MSTORE DUP8 DUP2 ADD MLOAD PUSH1 0x80 DUP10 DUP7 ADD DUP2 SWAP1 MSTORE SWAP1 PUSH2 0x21A7 DUP3 DUP8 ADD DUP3 PUSH2 0x1F3F JUMP JUMPDEST SWAP2 POP POP DUP8 DUP3 ADD MLOAD DUP6 DUP3 SUB DUP10 DUP8 ADD MSTORE PUSH2 0x21BF DUP3 DUP3 PUSH2 0x1F3F JUMP JUMPDEST SWAP2 POP POP PUSH1 0x60 DUP1 DUP4 ADD MLOAD SWAP3 POP DUP6 DUP3 SUB DUP2 DUP8 ADD MSTORE POP PUSH2 0x21DC DUP2 DUP4 PUSH2 0x1F3F JUMP JUMPDEST SWAP7 DUP10 ADD SWAP7 SWAP5 POP POP POP SWAP1 DUP7 ADD SWAP1 PUSH1 0x1 ADD PUSH2 0x216E JUMP JUMPDEST POP SWAP1 SWAP9 SWAP8 POP POP POP POP POP POP POP POP JUMP JUMPDEST PUSH1 0x20 DUP1 DUP3 MSTORE DUP2 DUP2 ADD MSTORE PUSH32 0x4D49534F48656C7065723A2053656E646572206D7573742062652041646D696E PUSH1 0x40 DUP3 ADD MSTORE PUSH1 0x60 ADD SWAP1 JUMP JUMPDEST PUSH1 0x0 PUSH1 0x40 DUP1 DUP4 MSTORE PUSH2 0x2246 DUP2 DUP5 ADD DUP7 PUSH2 0x1FA5 JUMP JUMPDEST DUP4 DUP2 SUB PUSH1 0x20 DUP6 DUP2 ADD SWAP2 SWAP1 SWAP2 MSTORE DUP6 MLOAD DUP1 DUP4 MSTORE DUP7 DUP3 ADD SWAP3 DUP3 ADD SWAP1 DUP6 JUMPDEST DUP2 DUP2 LT ISZERO PUSH2 0x21F0 JUMPI DUP5 MLOAD DUP1 MLOAD PUSH1 0x1 PUSH1 0x1 PUSH1 0xA0 SHL SUB AND DUP5 MSTORE DUP5 DUP2 ADD MLOAD DUP6 DUP6 ADD MSTORE DUP7 DUP2 ADD MLOAD DUP8 DUP6 ADD MSTORE PUSH1 0x60 DUP1 DUP3 ADD MLOAD SWAP1 DUP6 ADD MSTORE PUSH1 0x80 DUP1 DUP3 ADD MLOAD SWAP1 DUP6 ADD MSTORE PUSH1 0xA0 DUP1 DUP3 ADD MLOAD SWAP1 DUP6 ADD MSTORE PUSH1 0xC0 SWAP1 DUP2 ADD MLOAD SWAP1 DUP5 ADD MSTORE SWAP4 DUP4 ADD SWAP4 PUSH1 0xE0 SWAP1 SWAP3 ADD SWAP2 PUSH1 0x1 ADD PUSH2 0x2260 JUMP JUMPDEST PUSH1 0x0 PUSH1 0x20 DUP3 MSTORE PUSH2 0x16E0 PUSH1 0x20 DUP4 ADD DUP5 PUSH2 0x200C JUMP JUMPDEST SWAP1 DUP2 MSTORE PUSH1 0x20 ADD SWAP1 JUMP JUMPDEST SWAP2 DUP3 MSTORE PUSH1 0x1 PUSH1 0x1 PUSH1 0xA0 SHL SUB AND PUSH1 0x20 DUP3 ADD MSTORE PUSH1 0x40 ADD SWAP1 JUMP JUMPDEST PUSH1 0x40 MLOAD DUP2 DUP2 ADD PUSH1 0x1 PUSH1 0x1 PUSH1 0x40 SHL SUB DUP2 GT DUP3 DUP3 LT OR ISZERO PUSH2 0x2312 JUMPI PUSH1 0x0 DUP1 REVERT JUMPDEST PUSH1 0x40 MSTORE SWAP2 SWAP1 POP JUMP JUMPDEST PUSH1 0x0 PUSH1 0x1 PUSH1 0x1 PUSH1 0x40 SHL SUB DUP3 GT ISZERO PUSH2 0x232F JUMPI DUP1 DUP2 REVERT JUMPDEST POP PUSH1 0x20 SWAP1 DUP2 MUL ADD SWAP1 JUMP JUMPDEST PUSH1 0x0 JUMPDEST DUP4 DUP2 LT ISZERO PUSH2 0x2354 JUMPI DUP2 DUP2 ADD MLOAD DUP4 DUP3 ADD MSTORE PUSH1 0x20 ADD PUSH2 0x233C JUMP JUMPDEST DUP4 DUP2 GT ISZERO PUSH2 0x1839 JUMPI POP POP PUSH1 0x0 SWAP2 ADD MSTORE JUMP JUMPDEST PUSH1 0x1 PUSH1 0x1 PUSH1 0xA0 SHL SUB DUP2 AND DUP2 EQ PUSH2 0x237A JUMPI PUSH1 0x0 DUP1 REVERT JUMPDEST POP JUMP INVALID LOG2 PUSH5 0x6970667358 0x22 SLT KECCAK256 SLT LOG3 SWAP6 0xE9 0xFB PUSH29 0xC5A5DF9645D02E94DD75095A191AFA05BF3DF027B3B374012C4964736F PUSH13 0x634300060C0033000000000000 ",
  "sha1": "390cfdb26302af5b4919534fd00a094493854e63",
  "source": "// SPDX-License-Identifier: GPL-3.0-only\npragma solidity 0.6.12;\npragma experimental ABIEncoderV2;\n\nimport \"../Access/MISOAccessControls.sol\";\n\n//==================\n//    Uniswap V2       \n//==================\n\ninterface IUniswapFactory {\n    function getPair(address token0, address token1) external view returns (address);\n}\n\ninterface IUniswapPair {\n    function balanceOf(address owner) external view returns (uint);\n    function allowance(address owner) external view returns (uint);\n    function token0() external view returns (address);\n    function token1() external view returns (address);\n    function getReserves() external view returns (uint112 reserve0, uint112 reserve1, uint32 blockTimestampLast);\n    function price0CumulativeLast() external view returns (uint);\n    function price1CumulativeLast() external view returns (uint);\n    function kLast() external view returns (uint);\n}\n\n//==================\n//    Documents       \n//==================\n\ninterface IDocument {\n    function getDocument(string calldata _name) external view returns (string memory, uint256);\n    function getDocumentCount() external view returns (uint256);\n    function getDocumentName(uint256 index) external view returns (string memory);    \n}\n\ncontract DocumentHepler {\n    struct Document {\n        string name;\n        string data;\n        uint256 lastModified;\n    }\n\n    function getDocuments(address _document) public view returns(Document[] memory) {\n        IDocument document = IDocument(_document);\n        uint256 documentCount = document.getDocumentCount();\n\n        Document[] memory documents = new Document[](documentCount);\n\n        for(uint256 i = 0; i < documentCount; i++) {\n            string memory documentName = document.getDocumentName(i);\n            (\n                documents[i].data,\n                documents[i].lastModified\n            ) = document.getDocument(documentName);\n            documents[i].name = documentName;\n        }\n        return documents;\n    }\n}\n\n\n//==================\n//     Tokens\n//==================\n\ninterface IERC20 {\n    function balanceOf(address account) external view returns (uint256);\n    function allowance(address owner, address spender) external view returns (uint256);\n    function name() external view returns (string memory);\n    function symbol() external view returns (string memory);\n    function decimals() external view returns (uint8);\n}\n\ninterface IMisoTokenFactory {\n    function getTokens() external view returns (address[] memory);\n    function tokens(uint256) external view returns (address);\n    function numberOfTokens() external view returns (uint256);\n} \n\ncontract TokenHelper {\n    struct TokenInfo {\n        address addr;\n        uint256 decimals;\n        string name;\n        string symbol;\n    }\n\n    function getTokensInfo(address[] memory addresses) public view returns (TokenInfo[] memory)\n    {\n        TokenInfo[] memory infos = new TokenInfo[](addresses.length);\n\n        for (uint256 i = 0; i < addresses.length; i++) {\n            infos[i] = getTokenInfo(addresses[i]);\n        }\n\n        return infos;\n    }\n\n    function getTokenInfo(address _address) public view returns (TokenInfo memory) {\n        TokenInfo memory info;\n        IERC20 token = IERC20(_address);\n\n        info.addr = _address;\n        info.name = token.name();\n        info.symbol = token.symbol();\n        info.decimals = token.decimals();\n\n        return info;\n    }\n\n    function allowance(address _token, address _owner, address _spender) public view returns(uint256) {\n        return IERC20(_token).allowance(_owner, _spender);\n    }\n\n}\n\n\n//==================\n//      Base\n//==================\n\ncontract BaseHelper {\n    IMisoMarketFactory public market;\n    IMisoTokenFactory public tokenFactory;\n    IMisoFarmFactory public farmFactory;\n    address public launcher;\n\n    /// @notice Responsible for access rights to the contract\n    MISOAccessControls public accessControls;\n\n    function setContracts(\n        address _tokenFactory,\n        address _market,\n        address _launcher,\n        address _farmFactory\n    ) public {\n        require(\n            accessControls.hasAdminRole(msg.sender),\n            \"MISOHelper: Sender must be Admin\"\n        );\n        if (_market != address(0)) {\n            market = IMisoMarketFactory(_market);\n        }\n        if (_tokenFactory != address(0)) {\n            tokenFactory = IMisoTokenFactory(_tokenFactory);\n        }\n        if (_launcher != address(0)) {\n            launcher = _launcher;\n        }\n        if (_farmFactory != address(0)) {\n            farmFactory = IMisoFarmFactory(_farmFactory);\n        }\n    }\n}\n\n\n//==================\n//      Farms       \n//==================\n\ninterface IMisoFarmFactory {\n    function getTemplateId(address _farm) external view returns(uint256);\n    function numberOfFarms() external view returns(uint256);\n    function farms(uint256 _farmId) external view returns(address);\n}\n\ninterface IFarm {\n    function poolInfo(uint256 pid) external view returns(\n        address lpToken,\n        uint256 allocPoint,\n        uint256 lastRewardBlock,\n        uint256 accRewardsPerShare\n    );\n    function rewards() external view returns(address);\n    function poolLength() external view returns (uint256);\n    function rewardsPerBlock() external view returns (uint256);\n    function bonusMultiplier() external view returns (uint256);\n    function userInfo(uint256 pid, address _user) external view returns (uint256, uint256);\n    function pendingRewards(uint256 _pid, address _user) external view returns (uint256);\n}\n\ncontract FarmHelper is BaseHelper, TokenHelper {\n    struct FarmInfo {\n        address addr;\n        uint256 templateId;\n        uint256 rewardsPerBlock;\n        uint256 bonusMultiplier;\n        TokenInfo rewardToken;\n        PoolInfo[] pools;\n    }\n\n    struct PoolInfo {\n        address lpToken;\n        uint256 allocPoint;\n        uint256 lastRewardBlock;\n        uint256 accRewardsPerShare;\n        uint256 totalStaked;\n        TokenInfo stakingToken;\n    }\n\n    struct UserPoolInfo {\n        address farm;\n        uint256 pid;\n        uint256 totalStaked;\n        uint256 lpBalance;\n        uint256 lpAllowance;\n        uint256 rewardDebt;\n        uint256 pendingRewards;\n    }\n\n    struct UserPoolsInfo {\n        address farm;\n        uint256[] pids;\n        uint256[] totalStaked;\n        uint256[] pendingRewards;\n    }\n\n    function getPools(address _farm) public view returns(PoolInfo[] memory) {\n        IFarm farm = IFarm(_farm);\n        uint256 poolLength = farm.poolLength();\n        PoolInfo[] memory pools = new PoolInfo[](poolLength);\n        \n        for(uint256 i = 0; i < poolLength; i++) {\n            (\n                pools[i].lpToken,\n                pools[i].allocPoint,\n                pools[i].lastRewardBlock,\n                pools[i].accRewardsPerShare\n            ) = farm.poolInfo(i);\n            pools[i].totalStaked = IERC20(pools[i].lpToken).balanceOf(_farm);\n            pools[i].stakingToken = getTokenInfo(pools[i].lpToken);\n        }\n        return pools;\n    }\n\n\n    function getFarms() public view returns(FarmInfo[] memory) {\n        uint256 numberOfFarms = farmFactory.numberOfFarms();\n\n        FarmInfo[] memory infos = new FarmInfo[](numberOfFarms);\n\n        for (uint256 i = 0; i < numberOfFarms; i++) {\n            address farmAddr = farmFactory.farms(i);\n            uint256 templateId = farmFactory.getTemplateId(farmAddr);\n            infos[i] = _farmInfo(farmAddr);\n        }\n\n        return infos;\n    }\n\n    function getFarms(\n        uint256 pageSize,\n        uint256 pageNbr,\n        uint256 offset\n    ) public view returns(FarmInfo[] memory) {\n        uint256 numberOfFarms = farmFactory.numberOfFarms();\n        uint256 startIdx = (pageNbr * pageSize) + offset;\n        uint256 endIdx = startIdx + pageSize;\n\n        FarmInfo[] memory infos;\n\n        if (endIdx > numberOfFarms) {\n            endIdx = numberOfFarms;\n        }\n        if(endIdx < startIdx) {\n            return infos;\n        }\n        infos = new FarmInfo[](endIdx - startIdx);\n\n        for (uint256 farmIdx = 0; farmIdx + startIdx < endIdx; farmIdx++) {\n            address farmAddr = farmFactory.farms(farmIdx + startIdx);\n            infos[farmIdx] = _farmInfo(farmAddr);\n        }\n\n        return infos;\n    }\n\n    function getFarms(\n        uint256 pageSize,\n        uint256 pageNbr\n    ) public view returns(FarmInfo[] memory) {\n        return getFarms(pageSize, pageNbr, 0);\n    }\n\n    function _farmInfo(address _farmAddr) private view returns(FarmInfo memory farmInfo) {\n            IFarm farm = IFarm(_farmAddr);\n\n            farmInfo.addr = _farmAddr;\n            farmInfo.templateId = farmFactory.getTemplateId(_farmAddr);\n            farmInfo.rewardsPerBlock = farm.rewardsPerBlock();\n            farmInfo.bonusMultiplier = farm.bonusMultiplier();\n            farmInfo.rewardToken = getTokenInfo(farm.rewards());\n            farmInfo.pools = getPools(_farmAddr);\n    }\n\n    function getFarmDetail(address _farm, address _user) \n        public\n        view\n        returns(FarmInfo memory farmInfo, UserPoolInfo[] memory userInfos) \n    {\n        IFarm farm = IFarm(_farm);\n        farmInfo.addr = _farm;\n        farmInfo.templateId = farmFactory.getTemplateId(_farm);\n        farmInfo.rewardsPerBlock = farm.rewardsPerBlock();\n        farmInfo.bonusMultiplier = farm.bonusMultiplier();\n        farmInfo.rewardToken = getTokenInfo(farm.rewards());\n        farmInfo.pools = getPools(_farm);\n\n        if(_user != address(0)) {\n            PoolInfo[] memory pools = farmInfo.pools;\n            userInfos = new UserPoolInfo[](pools.length);\n            for(uint i = 0; i < pools.length; i++) {\n                UserPoolInfo memory userInfo = userInfos[i];\n                address stakingToken = pools[i].stakingToken.addr;\n                (userInfo.totalStaked, userInfo.rewardDebt) = farm.userInfo(i, _user);\n                userInfo.lpBalance = IERC20(stakingToken).balanceOf(_user);\n                userInfo.lpAllowance = IERC20(stakingToken).allowance(_user, _farm);\n                userInfo.pendingRewards = farm.pendingRewards(i, _user);\n                (userInfo.totalStaked,) = farm.userInfo(i, _user);\n                userInfo.farm = _farm;\n                userInfo.pid = i;\n                userInfos[i] = userInfo;\n            }\n        }\n        return (farmInfo, userInfos);\n    }\n\n    function getUserPoolsInfos(address _user) public view returns(UserPoolsInfo[] memory) {\n        uint256 numberOfFarms = farmFactory.numberOfFarms();\n\n        UserPoolsInfo[] memory infos = new UserPoolsInfo[](numberOfFarms);\n\n        for (uint256 i = 0; i < numberOfFarms; i++) {\n            address farmAddr = farmFactory.farms(i);\n            IFarm farm = IFarm(farmAddr);\n            uint256 poolLength = farm.poolLength();\n            uint256[] memory totalStaked = new uint256[](poolLength);\n            uint256[] memory pendingRewards = new uint256[](poolLength);\n            uint256[] memory pids = new uint256[](poolLength);\n\n            for(uint256 j = 0; j < poolLength; j++) {\n                (address stakingToken,,,) = farm.poolInfo(j);\n                (totalStaked[j],) = farm.userInfo(j, _user);\n                pendingRewards[j] = farm.pendingRewards(j, _user);\n                pids[j] = j;\n            }\n            infos[i].totalStaked = totalStaked;\n            infos[i].pendingRewards = pendingRewards;\n            infos[i].pids = pids;\n            infos[i].farm = farmAddr;\n        }\n        return infos;\n    }\n}\n\n//==================\n//     Markets       \n//==================\n\ninterface IBaseAuction {\n    function getBaseInformation() external view returns (\n            address auctionToken,\n            uint64 startTime,\n            uint64 endTime,\n            bool finalized\n        );\n}\n\ninterface IMisoMarketFactory {\n    function getMarketTemplateId(address _auction) external view returns(uint64);\n    function getMarkets() external view returns(address[] memory);\n    function numberOfAuctions() external view returns(uint256);\n    function auctions(uint256) external view returns(address);\n}\n\ninterface IMisoMarket {\n    function paymentCurrency() external view returns (address) ;\n    function auctionToken() external view returns (address) ;\n    function marketPrice() external view returns (uint128, uint128);\n    function marketInfo()\n        external\n        view\n        returns (\n        uint64 startTime,\n        uint64 endTime,\n        uint128 totalTokens\n        );\n    function auctionSuccessful() external view returns (bool);\n    function commitments(address user) external view returns (uint256);\n    function claimed(address user) external view returns (uint256);\n    function tokensClaimable(address user) external view returns (uint256);\n    function hasAdminRole(address user) external view returns (bool);\n}\n\ninterface ICrowdsale is IMisoMarket {\n    function marketStatus() external view returns(\n        uint128 commitmentsTotal,\n        bool finalized,\n        bool usePointList\n    );\n}\n\ninterface IDutchAuction is IMisoMarket {\n    function marketStatus() external view returns(\n        uint128 commitmentsTotal,\n        bool finalized,\n        bool usePointList\n    );\n    // function totalTokensCommitted() external view returns (uint256);\n    // function clearingPrice() external view returns (uint256);\n}\n\ninterface IBatchAuction is IMisoMarket {\n    function marketStatus() external view returns(\n        uint256 commitmentsTotal,\n        uint256 minimumCommitmentAmount,\n        bool finalized,\n        bool usePointList\n    );\n}\n\ninterface IHyperbolicAuction is IMisoMarket {\n    function marketStatus() external view returns(\n        uint128 commitmentsTotal,\n        bool finalized,\n        bool usePointList\n    );\n}\n\ncontract MarketHelper is BaseHelper, TokenHelper, DocumentHepler {\n\n    address constant ETH_ADDRESS = 0xEeeeeEeeeEeEeeEeEeEeeEEEeeeeEeeeeeeeEEeE;\n\n    struct CrowdsaleInfo {\n        address addr;\n        address paymentCurrency;\n        uint128 commitmentsTotal;\n        uint128 totalTokens;\n        uint128 rate;\n        uint128 goal;\n        uint64 startTime;\n        uint64 endTime;\n        bool finalized;\n        bool usePointList;\n        bool auctionSuccessful;\n        TokenInfo tokenInfo;\n        TokenInfo paymentCurrencyInfo;\n        Document[] documents;\n    }\n\n    struct DutchAuctionInfo {\n        address addr;\n        address paymentCurrency;\n        uint64 startTime;\n        uint64 endTime;\n        uint128 totalTokens;\n        uint128 startPrice;\n        uint128 minimumPrice;\n        uint128 commitmentsTotal;\n        // uint256 totalTokensCommitted;\n        bool finalized;\n        bool usePointList;\n        bool auctionSuccessful;\n        TokenInfo tokenInfo;\n        TokenInfo paymentCurrencyInfo;\n        Document[] documents;\n    }\n\n    struct BatchAuctionInfo {\n        address addr;\n        address paymentCurrency;\n        uint64 startTime;\n        uint64 endTime;\n        uint128 totalTokens;\n        uint256 commitmentsTotal;\n        uint256 minimumCommitmentAmount;\n        bool finalized;\n        bool usePointList;\n        bool auctionSuccessful;\n        TokenInfo tokenInfo;\n        TokenInfo paymentCurrencyInfo;\n        Document[] documents;\n    }\n\n    struct HyperbolicAuctionInfo {\n        address addr;\n        address paymentCurrency;\n        uint64 startTime;\n        uint64 endTime;\n        uint128 totalTokens;\n        uint128 minimumPrice;\n        uint128 alpha;\n        uint128 commitmentsTotal;\n        bool finalized;\n        bool usePointList;\n        bool auctionSuccessful;\n        TokenInfo tokenInfo;\n        TokenInfo paymentCurrencyInfo;\n        Document[] documents;\n    }\n\n    struct MarketBaseInfo {\n        address addr;\n        uint64 templateId;\n        uint64 startTime;\n        uint64 endTime;\n        bool finalized;\n        TokenInfo tokenInfo;\n    }\n\n    struct PLInfo {\n        TokenInfo token0;\n        TokenInfo token1;\n        address pairToken;\n        address operator;\n        uint256 locktime;\n        uint256 unlock;\n        uint256 deadline;\n        uint256 launchwindow;\n        uint256 expiry;\n        uint256 liquidityAdded;\n        uint256 launched;\n    }\n\n    struct UserMarketInfo {\n        uint256 commitments;\n        uint256 tokensClaimable;\n        uint256 claimed;\n        bool isAdmin;\n    }\n\n    function getMarkets(\n        uint256 pageSize,\n        uint256 pageNbr,\n        uint256 offset\n    ) public view returns (MarketBaseInfo[] memory) {\n        uint256 marketsLength = market.numberOfAuctions();\n        uint256 startIdx = (pageNbr * pageSize) + offset;\n        uint256 endIdx = startIdx + pageSize;\n        MarketBaseInfo[] memory infos;\n        if (endIdx > marketsLength) {\n            endIdx = marketsLength;\n        }\n        if(endIdx < startIdx) {\n            return infos;\n        }\n        infos = new MarketBaseInfo[](endIdx - startIdx);\n\n        for (uint256 marketIdx = 0; marketIdx + startIdx < endIdx; marketIdx++) {\n            address marketAddress = market.auctions(marketIdx + startIdx);\n            infos[marketIdx] = _getMarketInfo(marketAddress);\n        }\n\n        return infos;\n    }\n\n    function getMarkets(\n        uint256 pageSize,\n        uint256 pageNbr\n    ) public view returns (MarketBaseInfo[] memory) {\n        return getMarkets(pageSize, pageNbr, 0);\n    }\n\n    function getMarkets() public view returns (MarketBaseInfo[] memory) {\n        address[] memory markets = market.getMarkets();\n        MarketBaseInfo[] memory infos = new MarketBaseInfo[](markets.length);\n\n        for (uint256 i = 0; i < markets.length; i++) {\n            MarketBaseInfo memory marketInfo = _getMarketInfo(markets[i]);\n            infos[i] = marketInfo;\n        }\n\n        return infos;\n    }\n\n    function _getMarketInfo(address _marketAddress) private view returns (MarketBaseInfo memory marketInfo) {\n            uint64 templateId = market.getMarketTemplateId(_marketAddress);\n            address auctionToken;\n            uint64 startTime;\n            uint64 endTime;\n            bool finalized;\n            (auctionToken, startTime, endTime, finalized) = IBaseAuction(_marketAddress)\n                .getBaseInformation();\n            TokenInfo memory tokenInfo = getTokenInfo(auctionToken);\n\n            marketInfo.addr = _marketAddress;\n            marketInfo.templateId = templateId;\n            marketInfo.startTime = startTime;\n            marketInfo.endTime = endTime;\n            marketInfo.finalized = finalized;\n            marketInfo.tokenInfo = tokenInfo;  \n    }\n\n    function getCrowdsaleInfo(address _crowdsale) public view returns (CrowdsaleInfo memory) {\n        ICrowdsale crowdsale = ICrowdsale(_crowdsale);\n        CrowdsaleInfo memory info;\n\n        info.addr = address(crowdsale);\n        (info.commitmentsTotal, info.finalized, info.usePointList) = crowdsale.marketStatus();\n        (info.startTime, info.endTime, info.totalTokens) = crowdsale.marketInfo();\n        (info.rate, info.goal) = crowdsale.marketPrice();\n        (info.auctionSuccessful) = crowdsale.auctionSuccessful();\n        info.tokenInfo = getTokenInfo(crowdsale.auctionToken());\n\n        address paymentCurrency = crowdsale.paymentCurrency();\n        TokenInfo memory paymentCurrencyInfo;\n        if(paymentCurrency == ETH_ADDRESS) {\n            paymentCurrencyInfo = _getETHInfo();\n        } else {\n            paymentCurrencyInfo = getTokenInfo(paymentCurrency);\n        }\n        info.paymentCurrencyInfo = paymentCurrencyInfo;\n\n        info.documents = getDocuments(_crowdsale);\n\n        return info;\n    }\n\n    function getDutchAuctionInfo(address payable _dutchAuction) public view returns (DutchAuctionInfo memory)\n    {\n        IDutchAuction dutchAuction = IDutchAuction(_dutchAuction);\n        DutchAuctionInfo memory info;\n\n        info.addr = address(dutchAuction);\n        (info.startTime, info.endTime, info.totalTokens) = dutchAuction.marketInfo();\n        (info.startPrice, info.minimumPrice) = dutchAuction.marketPrice();\n        (info.auctionSuccessful) = dutchAuction.auctionSuccessful();\n        (\n            info.commitmentsTotal,\n            info.finalized,\n            info.usePointList\n        ) = dutchAuction.marketStatus();\n        info.tokenInfo = getTokenInfo(dutchAuction.auctionToken());\n\n        address paymentCurrency = dutchAuction.paymentCurrency();\n        TokenInfo memory paymentCurrencyInfo;\n        if(paymentCurrency == ETH_ADDRESS) {\n            paymentCurrencyInfo = _getETHInfo();\n        } else {\n            paymentCurrencyInfo = getTokenInfo(paymentCurrency);\n        }\n        info.paymentCurrencyInfo = paymentCurrencyInfo;\n        info.documents = getDocuments(_dutchAuction);\n\n        return info;\n    }\n\n    function getBatchAuctionInfo(address payable _batchAuction) public view returns (BatchAuctionInfo memory) \n    {\n        IBatchAuction batchAuction = IBatchAuction(_batchAuction);\n        BatchAuctionInfo memory info;\n        \n        info.addr = address(batchAuction);\n        (info.startTime, info.endTime, info.totalTokens) = batchAuction.marketInfo();\n        (info.auctionSuccessful) = batchAuction.auctionSuccessful();\n        (\n            info.commitmentsTotal,\n            info.minimumCommitmentAmount,\n            info.finalized,\n            info.usePointList\n        ) = batchAuction.marketStatus();\n        info.tokenInfo = getTokenInfo(batchAuction.auctionToken());\n        address paymentCurrency = batchAuction.paymentCurrency();\n        TokenInfo memory paymentCurrencyInfo;\n        if(paymentCurrency == ETH_ADDRESS) {\n            paymentCurrencyInfo = _getETHInfo();\n        } else {\n            paymentCurrencyInfo = getTokenInfo(paymentCurrency);\n        }\n        info.paymentCurrencyInfo = paymentCurrencyInfo;\n        info.documents = getDocuments(_batchAuction);\n\n        return info;\n    }\n\n    function getHyperbolicAuctionInfo(address payable _hyperbolicAuction) public view returns (HyperbolicAuctionInfo memory)\n    {\n        IHyperbolicAuction hyperbolicAuction = IHyperbolicAuction(_hyperbolicAuction);\n        HyperbolicAuctionInfo memory info;\n\n        info.addr = address(hyperbolicAuction);\n        (info.startTime, info.endTime, info.totalTokens) = hyperbolicAuction.marketInfo();\n        (info.minimumPrice, info.alpha) = hyperbolicAuction.marketPrice();\n        (info.auctionSuccessful) = hyperbolicAuction.auctionSuccessful();\n        (\n            info.commitmentsTotal,\n            info.finalized,\n            info.usePointList\n        ) = hyperbolicAuction.marketStatus();\n        info.tokenInfo = getTokenInfo(hyperbolicAuction.auctionToken());\n        \n        address paymentCurrency = hyperbolicAuction.paymentCurrency();\n        TokenInfo memory paymentCurrencyInfo;\n        if(paymentCurrency == ETH_ADDRESS) {\n            paymentCurrencyInfo = _getETHInfo();\n        } else {\n            paymentCurrencyInfo = getTokenInfo(paymentCurrency);\n        }\n        info.paymentCurrencyInfo = paymentCurrencyInfo;\n        info.documents = getDocuments(_hyperbolicAuction);\n\n        return info;\n    }\n\n    function getUserMarketInfo(address _action, address _user) public view returns(UserMarketInfo memory userInfo) {\n        IMisoMarket market = IMisoMarket(_action);\n        userInfo.commitments = market.commitments(_user);\n        userInfo.tokensClaimable = market.tokensClaimable(_user);\n        userInfo.claimed = market.claimed(_user);\n        userInfo.isAdmin = market.hasAdminRole(_user);\n    }\n\n    function _getETHInfo() private pure returns(TokenInfo memory token) {\n            token.addr = ETH_ADDRESS;\n            token.name = \"ETHEREUM\";\n            token.symbol = \"ETH\";\n            token.decimals = 18;\n    }\n\n}\n\ncontract MISOHelper is MarketHelper, FarmHelper {\n\n    constructor(\n        address _accessControls,\n        address _tokenFactory,\n        address _market,\n        address _launcher,\n        address _farmFactory\n    ) public { \n        require(_accessControls != address(0));\n        accessControls = MISOAccessControls(_accessControls);\n        tokenFactory = IMisoTokenFactory(_tokenFactory);\n        market = IMisoMarketFactory(_market);\n        launcher = _launcher;\n        farmFactory = IMisoFarmFactory(_farmFactory);\n    }\n\n    function getTokens() public view returns(TokenInfo[] memory) {\n        address[] memory tokens = tokenFactory.getTokens();\n        TokenInfo[] memory infos = getTokensInfo(tokens);\n\n        infos = getTokensInfo(tokens);\n\n        return infos;\n    }\n\n    function getTokens(\n        uint256 pageSize,\n        uint256 pageNbr,\n        uint256 offset\n    ) public view returns(TokenInfo[] memory) {\n        uint256 tokensLength = tokenFactory.numberOfTokens();\n\n        uint256 startIdx = (pageNbr * pageSize) + offset;\n        uint256 endIdx = startIdx + pageSize;\n        TokenInfo[] memory infos;\n        if (endIdx > tokensLength) {\n            endIdx = tokensLength;\n        }\n        if(endIdx < startIdx) {\n            return infos;\n        }\n        infos = new TokenInfo[](endIdx - startIdx);\n\n        for (uint256 tokenIdx = 0; tokenIdx + startIdx < endIdx; tokenIdx++) {\n            address tokenAddress = tokenFactory.tokens(tokenIdx + startIdx);\n            infos[tokenIdx] = getTokenInfo(tokenAddress);\n        }\n\n        return infos;\n    }\n\n    function getTokens(\n        uint256 pageSize,\n        uint256 pageNbr\n    ) public view returns(TokenInfo[] memory) {\n        return getTokens(pageSize, pageNbr, 0);\n    }\n\n}\n",
  "sourcePath": "contracts/Helper/MISOHelper.sol",
  "type": "contract"
}