{
  "abi": [
    {
      "anonymous": false,
      "inputs": [
        {
          "indexed": false,
          "internalType": "address",
          "name": "addr",
          "type": "address"
        },
        {
          "indexed": false,
          "internalType": "uint256",
          "name": "commitment",
          "type": "uint256"
        }
      ],
      "name": "AddedCommitment",
      "type": "event"
    },
    {
      "anonymous": false,
      "inputs": [
        {
          "indexed": true,
          "internalType": "address",
          "name": "beneficiary",
          "type": "address"
        },
        {
          "indexed": true,
          "internalType": "address",
          "name": "caller",
          "type": "address"
        }
      ],
      "name": "AdminRoleGranted",
      "type": "event"
    },
    {
      "anonymous": false,
      "inputs": [
        {
          "indexed": true,
          "internalType": "address",
          "name": "beneficiary",
          "type": "address"
        },
        {
          "indexed": true,
          "internalType": "address",
          "name": "caller",
          "type": "address"
        }
      ],
      "name": "AdminRoleRemoved",
      "type": "event"
    },
    {
      "anonymous": false,
      "inputs": [],
      "name": "AuctionCancelled",
      "type": "event"
    },
    {
      "anonymous": false,
      "inputs": [],
      "name": "AuctionFinalized",
      "type": "event"
    },
    {
      "anonymous": false,
      "inputs": [
        {
          "indexed": false,
          "internalType": "uint256",
          "name": "minimumPrice",
          "type": "uint256"
        }
      ],
      "name": "AuctionPriceUpdated",
      "type": "event"
    },
    {
      "anonymous": false,
      "inputs": [
        {
          "indexed": false,
          "internalType": "uint256",
          "name": "startTime",
          "type": "uint256"
        },
        {
          "indexed": false,
          "internalType": "uint256",
          "name": "endTime",
          "type": "uint256"
        }
      ],
      "name": "AuctionTimeUpdated",
      "type": "event"
    },
    {
      "anonymous": false,
      "inputs": [
        {
          "indexed": false,
          "internalType": "address",
          "name": "wallet",
          "type": "address"
        }
      ],
      "name": "AuctionWalletUpdated",
      "type": "event"
    },
    {
      "anonymous": false,
      "inputs": [
        {
          "indexed": true,
          "internalType": "string",
          "name": "_name",
          "type": "string"
        },
        {
          "indexed": false,
          "internalType": "string",
          "name": "_data",
          "type": "string"
        }
      ],
      "name": "DocumentRemoved",
      "type": "event"
    },
    {
      "anonymous": false,
      "inputs": [
        {
          "indexed": true,
          "internalType": "string",
          "name": "_name",
          "type": "string"
        },
        {
          "indexed": false,
          "internalType": "string",
          "name": "_data",
          "type": "string"
        }
      ],
      "name": "DocumentUpdated",
      "type": "event"
    },
    {
      "anonymous": false,
      "inputs": [
        {
          "indexed": true,
          "internalType": "address",
          "name": "beneficiary",
          "type": "address"
        },
        {
          "indexed": true,
          "internalType": "address",
          "name": "caller",
          "type": "address"
        }
      ],
      "name": "MinterRoleGranted",
      "type": "event"
    },
    {
      "anonymous": false,
      "inputs": [
        {
          "indexed": true,
          "internalType": "address",
          "name": "beneficiary",
          "type": "address"
        },
        {
          "indexed": true,
          "internalType": "address",
          "name": "caller",
          "type": "address"
        }
      ],
      "name": "MinterRoleRemoved",
      "type": "event"
    },
    {
      "anonymous": false,
      "inputs": [
        {
          "indexed": true,
          "internalType": "address",
          "name": "beneficiary",
          "type": "address"
        },
        {
          "indexed": true,
          "internalType": "address",
          "name": "caller",
          "type": "address"
        }
      ],
      "name": "OperatorRoleGranted",
      "type": "event"
    },
    {
      "anonymous": false,
      "inputs": [
        {
          "indexed": true,
          "internalType": "address",
          "name": "beneficiary",
          "type": "address"
        },
        {
          "indexed": true,
          "internalType": "address",
          "name": "caller",
          "type": "address"
        }
      ],
      "name": "OperatorRoleRemoved",
      "type": "event"
    },
    {
      "anonymous": false,
      "inputs": [
        {
          "indexed": true,
          "internalType": "bytes32",
          "name": "role",
          "type": "bytes32"
        },
        {
          "indexed": true,
          "internalType": "bytes32",
          "name": "previousAdminRole",
          "type": "bytes32"
        },
        {
          "indexed": true,
          "internalType": "bytes32",
          "name": "newAdminRole",
          "type": "bytes32"
        }
      ],
      "name": "RoleAdminChanged",
      "type": "event"
    },
    {
      "anonymous": false,
      "inputs": [
        {
          "indexed": true,
          "internalType": "bytes32",
          "name": "role",
          "type": "bytes32"
        },
        {
          "indexed": true,
          "internalType": "address",
          "name": "account",
          "type": "address"
        },
        {
          "indexed": true,
          "internalType": "address",
          "name": "sender",
          "type": "address"
        }
      ],
      "name": "RoleGranted",
      "type": "event"
    },
    {
      "anonymous": false,
      "inputs": [
        {
          "indexed": true,
          "internalType": "bytes32",
          "name": "role",
          "type": "bytes32"
        },
        {
          "indexed": true,
          "internalType": "address",
          "name": "account",
          "type": "address"
        },
        {
          "indexed": true,
          "internalType": "address",
          "name": "sender",
          "type": "address"
        }
      ],
      "name": "RoleRevoked",
      "type": "event"
    },
    {
      "anonymous": false,
      "inputs": [
        {
          "indexed": true,
          "internalType": "address",
          "name": "beneficiary",
          "type": "address"
        },
        {
          "indexed": true,
          "internalType": "address",
          "name": "caller",
          "type": "address"
        }
      ],
      "name": "SmartContractRoleGranted",
      "type": "event"
    },
    {
      "anonymous": false,
      "inputs": [
        {
          "indexed": true,
          "internalType": "address",
          "name": "beneficiary",
          "type": "address"
        },
        {
          "indexed": true,
          "internalType": "address",
          "name": "caller",
          "type": "address"
        }
      ],
      "name": "SmartContractRoleRemoved",
      "type": "event"
    },
    {
      "inputs": [],
      "name": "DEFAULT_ADMIN_ROLE",
      "outputs": [
        {
          "internalType": "bytes32",
          "name": "",
          "type": "bytes32"
        }
      ],
      "stateMutability": "view",
      "type": "function"
    },
    {
      "inputs": [],
      "name": "MINTER_ROLE",
      "outputs": [
        {
          "internalType": "bytes32",
          "name": "",
          "type": "bytes32"
        }
      ],
      "stateMutability": "view",
      "type": "function"
    },
    {
      "inputs": [],
      "name": "OPERATOR_ROLE",
      "outputs": [
        {
          "internalType": "bytes32",
          "name": "",
          "type": "bytes32"
        }
      ],
      "stateMutability": "view",
      "type": "function"
    },
    {
      "inputs": [],
      "name": "SMART_CONTRACT_ROLE",
      "outputs": [
        {
          "internalType": "bytes32",
          "name": "",
          "type": "bytes32"
        }
      ],
      "stateMutability": "view",
      "type": "function"
    },
    {
      "inputs": [
        {
          "internalType": "address",
          "name": "_address",
          "type": "address"
        }
      ],
      "name": "addAdminRole",
      "outputs": [],
      "stateMutability": "nonpayable",
      "type": "function"
    },
    {
      "inputs": [
        {
          "internalType": "address",
          "name": "_address",
          "type": "address"
        }
      ],
      "name": "addMinterRole",
      "outputs": [],
      "stateMutability": "nonpayable",
      "type": "function"
    },
    {
      "inputs": [
        {
          "internalType": "address",
          "name": "_address",
          "type": "address"
        }
      ],
      "name": "addOperatorRole",
      "outputs": [],
      "stateMutability": "nonpayable",
      "type": "function"
    },
    {
      "inputs": [
        {
          "internalType": "address",
          "name": "_address",
          "type": "address"
        }
      ],
      "name": "addSmartContractRole",
      "outputs": [],
      "stateMutability": "nonpayable",
      "type": "function"
    },
    {
      "inputs": [],
      "name": "auctionEnded",
      "outputs": [
        {
          "internalType": "bool",
          "name": "",
          "type": "bool"
        }
      ],
      "stateMutability": "view",
      "type": "function"
    },
    {
      "inputs": [],
      "name": "auctionSuccessful",
      "outputs": [
        {
          "internalType": "bool",
          "name": "",
          "type": "bool"
        }
      ],
      "stateMutability": "view",
      "type": "function"
    },
    {
      "inputs": [],
      "name": "auctionToken",
      "outputs": [
        {
          "internalType": "address",
          "name": "",
          "type": "address"
        }
      ],
      "stateMutability": "view",
      "type": "function"
    },
    {
      "inputs": [
        {
          "internalType": "bytes[]",
          "name": "calls",
          "type": "bytes[]"
        },
        {
          "internalType": "bool",
          "name": "revertOnFail",
          "type": "bool"
        }
      ],
      "name": "batch",
      "outputs": [
        {
          "internalType": "bool[]",
          "name": "successes",
          "type": "bool[]"
        },
        {
          "internalType": "bytes[]",
          "name": "results",
          "type": "bytes[]"
        }
      ],
      "stateMutability": "payable",
      "type": "function"
    },
    {
      "inputs": [
        {
          "internalType": "uint256",
          "name": "_commitment",
          "type": "uint256"
        }
      ],
      "name": "calculateCommitment",
      "outputs": [
        {
          "internalType": "uint256",
          "name": "",
          "type": "uint256"
        }
      ],
      "stateMutability": "view",
      "type": "function"
    },
    {
      "inputs": [],
      "name": "cancelAuction",
      "outputs": [],
      "stateMutability": "nonpayable",
      "type": "function"
    },
    {
      "inputs": [
        {
          "internalType": "address",
          "name": "",
          "type": "address"
        }
      ],
      "name": "claimed",
      "outputs": [
        {
          "internalType": "uint256",
          "name": "",
          "type": "uint256"
        }
      ],
      "stateMutability": "view",
      "type": "function"
    },
    {
      "inputs": [],
      "name": "clearingPrice",
      "outputs": [
        {
          "internalType": "uint256",
          "name": "",
          "type": "uint256"
        }
      ],
      "stateMutability": "view",
      "type": "function"
    },
    {
      "inputs": [
        {
          "internalType": "address payable",
          "name": "_beneficiary",
          "type": "address"
        },
        {
          "internalType": "bool",
          "name": "readAndAgreedToMarketParticipationAgreement",
          "type": "bool"
        }
      ],
      "name": "commitEth",
      "outputs": [],
      "stateMutability": "payable",
      "type": "function"
    },
    {
      "inputs": [
        {
          "internalType": "uint256",
          "name": "_amount",
          "type": "uint256"
        },
        {
          "internalType": "bool",
          "name": "readAndAgreedToMarketParticipationAgreement",
          "type": "bool"
        }
      ],
      "name": "commitTokens",
      "outputs": [],
      "stateMutability": "nonpayable",
      "type": "function"
    },
    {
      "inputs": [
        {
          "internalType": "address",
          "name": "_from",
          "type": "address"
        },
        {
          "internalType": "uint256",
          "name": "_amount",
          "type": "uint256"
        },
        {
          "internalType": "bool",
          "name": "readAndAgreedToMarketParticipationAgreement",
          "type": "bool"
        }
      ],
      "name": "commitTokensFrom",
      "outputs": [],
      "stateMutability": "nonpayable",
      "type": "function"
    },
    {
      "inputs": [
        {
          "internalType": "address",
          "name": "",
          "type": "address"
        }
      ],
      "name": "commitments",
      "outputs": [
        {
          "internalType": "uint256",
          "name": "",
          "type": "uint256"
        }
      ],
      "stateMutability": "view",
      "type": "function"
    },
    {
      "inputs": [
        {
          "internalType": "bool",
          "name": "_status",
          "type": "bool"
        }
      ],
      "name": "enableList",
      "outputs": [],
      "stateMutability": "nonpayable",
      "type": "function"
    },
    {
      "inputs": [],
      "name": "finalize",
      "outputs": [],
      "stateMutability": "nonpayable",
      "type": "function"
    },
    {
      "inputs": [],
      "name": "finalizeTimeExpired",
      "outputs": [
        {
          "internalType": "bool",
          "name": "",
          "type": "bool"
        }
      ],
      "stateMutability": "view",
      "type": "function"
    },
    {
      "inputs": [],
      "name": "finalized",
      "outputs": [
        {
          "internalType": "bool",
          "name": "",
          "type": "bool"
        }
      ],
      "stateMutability": "view",
      "type": "function"
    },
    {
      "inputs": [],
      "name": "getAllDocuments",
      "outputs": [
        {
          "internalType": "string[]",
          "name": "",
          "type": "string[]"
        }
      ],
      "stateMutability": "view",
      "type": "function"
    },
    {
      "inputs": [
        {
          "internalType": "address",
          "name": "_funder",
          "type": "address"
        },
        {
          "internalType": "address",
          "name": "_token",
          "type": "address"
        },
        {
          "internalType": "uint256",
          "name": "_totalTokens",
          "type": "uint256"
        },
        {
          "internalType": "uint256",
          "name": "_startTime",
          "type": "uint256"
        },
        {
          "internalType": "uint256",
          "name": "_endTime",
          "type": "uint256"
        },
        {
          "internalType": "address",
          "name": "_paymentCurrency",
          "type": "address"
        },
        {
          "internalType": "uint256",
          "name": "_factor",
          "type": "uint256"
        },
        {
          "internalType": "uint256",
          "name": "_minimumPrice",
          "type": "uint256"
        },
        {
          "internalType": "address",
          "name": "_admin",
          "type": "address"
        },
        {
          "internalType": "address",
          "name": "_pointList",
          "type": "address"
        },
        {
          "internalType": "address payable",
          "name": "_wallet",
          "type": "address"
        }
      ],
      "name": "getAuctionInitData",
      "outputs": [
        {
          "internalType": "bytes",
          "name": "_data",
          "type": "bytes"
        }
      ],
      "stateMutability": "pure",
      "type": "function"
    },
    {
      "inputs": [],
      "name": "getBaseInformation",
      "outputs": [
        {
          "internalType": "address",
          "name": "",
          "type": "address"
        },
        {
          "internalType": "uint64",
          "name": "",
          "type": "uint64"
        },
        {
          "internalType": "uint64",
          "name": "",
          "type": "uint64"
        },
        {
          "internalType": "bool",
          "name": "",
          "type": "bool"
        }
      ],
      "stateMutability": "view",
      "type": "function"
    },
    {
      "inputs": [
        {
          "internalType": "string",
          "name": "_name",
          "type": "string"
        }
      ],
      "name": "getDocument",
      "outputs": [
        {
          "internalType": "string",
          "name": "",
          "type": "string"
        },
        {
          "internalType": "uint256",
          "name": "",
          "type": "uint256"
        }
      ],
      "stateMutability": "view",
      "type": "function"
    },
    {
      "inputs": [],
      "name": "getDocumentCount",
      "outputs": [
        {
          "internalType": "uint256",
          "name": "",
          "type": "uint256"
        }
      ],
      "stateMutability": "view",
      "type": "function"
    },
    {
      "inputs": [
        {
          "internalType": "uint256",
          "name": "_index",
          "type": "uint256"
        }
      ],
      "name": "getDocumentName",
      "outputs": [
        {
          "internalType": "string",
          "name": "",
          "type": "string"
        }
      ],
      "stateMutability": "view",
      "type": "function"
    },
    {
      "inputs": [
        {
          "internalType": "bytes32",
          "name": "role",
          "type": "bytes32"
        }
      ],
      "name": "getRoleAdmin",
      "outputs": [
        {
          "internalType": "bytes32",
          "name": "",
          "type": "bytes32"
        }
      ],
      "stateMutability": "view",
      "type": "function"
    },
    {
      "inputs": [
        {
          "internalType": "bytes32",
          "name": "role",
          "type": "bytes32"
        },
        {
          "internalType": "uint256",
          "name": "index",
          "type": "uint256"
        }
      ],
      "name": "getRoleMember",
      "outputs": [
        {
          "internalType": "address",
          "name": "",
          "type": "address"
        }
      ],
      "stateMutability": "view",
      "type": "function"
    },
    {
      "inputs": [
        {
          "internalType": "bytes32",
          "name": "role",
          "type": "bytes32"
        }
      ],
      "name": "getRoleMemberCount",
      "outputs": [
        {
          "internalType": "uint256",
          "name": "",
          "type": "uint256"
        }
      ],
      "stateMutability": "view",
      "type": "function"
    },
    {
      "inputs": [],
      "name": "getTotalTokens",
      "outputs": [
        {
          "internalType": "uint256",
          "name": "",
          "type": "uint256"
        }
      ],
      "stateMutability": "view",
      "type": "function"
    },
    {
      "inputs": [
        {
          "internalType": "bytes32",
          "name": "role",
          "type": "bytes32"
        },
        {
          "internalType": "address",
          "name": "account",
          "type": "address"
        }
      ],
      "name": "grantRole",
      "outputs": [],
      "stateMutability": "nonpayable",
      "type": "function"
    },
    {
      "inputs": [
        {
          "internalType": "address",
          "name": "_address",
          "type": "address"
        }
      ],
      "name": "hasAdminRole",
      "outputs": [
        {
          "internalType": "bool",
          "name": "",
          "type": "bool"
        }
      ],
      "stateMutability": "view",
      "type": "function"
    },
    {
      "inputs": [
        {
          "internalType": "address",
          "name": "_address",
          "type": "address"
        }
      ],
      "name": "hasMinterRole",
      "outputs": [
        {
          "internalType": "bool",
          "name": "",
          "type": "bool"
        }
      ],
      "stateMutability": "view",
      "type": "function"
    },
    {
      "inputs": [
        {
          "internalType": "address",
          "name": "_address",
          "type": "address"
        }
      ],
      "name": "hasOperatorRole",
      "outputs": [
        {
          "internalType": "bool",
          "name": "",
          "type": "bool"
        }
      ],
      "stateMutability": "view",
      "type": "function"
    },
    {
      "inputs": [
        {
          "internalType": "bytes32",
          "name": "role",
          "type": "bytes32"
        },
        {
          "internalType": "address",
          "name": "account",
          "type": "address"
        }
      ],
      "name": "hasRole",
      "outputs": [
        {
          "internalType": "bool",
          "name": "",
          "type": "bool"
        }
      ],
      "stateMutability": "view",
      "type": "function"
    },
    {
      "inputs": [
        {
          "internalType": "address",
          "name": "_address",
          "type": "address"
        }
      ],
      "name": "hasSmartContractRole",
      "outputs": [
        {
          "internalType": "bool",
          "name": "",
          "type": "bool"
        }
      ],
      "stateMutability": "view",
      "type": "function"
    },
    {
      "inputs": [
        {
          "internalType": "bytes",
          "name": "_data",
          "type": "bytes"
        }
      ],
      "name": "init",
      "outputs": [],
      "stateMutability": "payable",
      "type": "function"
    },
    {
      "inputs": [
        {
          "internalType": "address",
          "name": "_admin",
          "type": "address"
        }
      ],
      "name": "initAccessControls",
      "outputs": [],
      "stateMutability": "nonpayable",
      "type": "function"
    },
    {
      "inputs": [
        {
          "internalType": "address",
          "name": "_funder",
          "type": "address"
        },
        {
          "internalType": "address",
          "name": "_token",
          "type": "address"
        },
        {
          "internalType": "uint256",
          "name": "_totalTokens",
          "type": "uint256"
        },
        {
          "internalType": "uint256",
          "name": "_startTime",
          "type": "uint256"
        },
        {
          "internalType": "uint256",
          "name": "_endTime",
          "type": "uint256"
        },
        {
          "internalType": "address",
          "name": "_paymentCurrency",
          "type": "address"
        },
        {
          "internalType": "uint256",
          "name": "_factor",
          "type": "uint256"
        },
        {
          "internalType": "uint256",
          "name": "_minimumPrice",
          "type": "uint256"
        },
        {
          "internalType": "address",
          "name": "_admin",
          "type": "address"
        },
        {
          "internalType": "address",
          "name": "_pointList",
          "type": "address"
        },
        {
          "internalType": "address payable",
          "name": "_wallet",
          "type": "address"
        }
      ],
      "name": "initAuction",
      "outputs": [],
      "stateMutability": "nonpayable",
      "type": "function"
    },
    {
      "inputs": [
        {
          "internalType": "bytes",
          "name": "_data",
          "type": "bytes"
        }
      ],
      "name": "initMarket",
      "outputs": [],
      "stateMutability": "nonpayable",
      "type": "function"
    },
    {
      "inputs": [],
      "name": "marketInfo",
      "outputs": [
        {
          "internalType": "uint64",
          "name": "startTime",
          "type": "uint64"
        },
        {
          "internalType": "uint64",
          "name": "endTime",
          "type": "uint64"
        },
        {
          "internalType": "uint128",
          "name": "totalTokens",
          "type": "uint128"
        }
      ],
      "stateMutability": "view",
      "type": "function"
    },
    {
      "inputs": [],
      "name": "marketParticipationAgreement",
      "outputs": [
        {
          "internalType": "string",
          "name": "",
          "type": "string"
        }
      ],
      "stateMutability": "pure",
      "type": "function"
    },
    {
      "inputs": [],
      "name": "marketPrice",
      "outputs": [
        {
          "internalType": "uint128",
          "name": "minimumPrice",
          "type": "uint128"
        },
        {
          "internalType": "uint128",
          "name": "alpha",
          "type": "uint128"
        }
      ],
      "stateMutability": "view",
      "type": "function"
    },
    {
      "inputs": [],
      "name": "marketStatus",
      "outputs": [
        {
          "internalType": "uint128",
          "name": "commitmentsTotal",
          "type": "uint128"
        },
        {
          "internalType": "bool",
          "name": "finalized",
          "type": "bool"
        },
        {
          "internalType": "bool",
          "name": "usePointList",
          "type": "bool"
        }
      ],
      "stateMutability": "view",
      "type": "function"
    },
    {
      "inputs": [],
      "name": "marketTemplate",
      "outputs": [
        {
          "internalType": "uint256",
          "name": "",
          "type": "uint256"
        }
      ],
      "stateMutability": "view",
      "type": "function"
    },
    {
      "inputs": [],
      "name": "paymentCurrency",
      "outputs": [
        {
          "internalType": "address",
          "name": "",
          "type": "address"
        }
      ],
      "stateMutability": "view",
      "type": "function"
    },
    {
      "inputs": [
        {
          "internalType": "contract IERC20",
          "name": "token",
          "type": "address"
        },
        {
          "internalType": "address",
          "name": "from",
          "type": "address"
        },
        {
          "internalType": "address",
          "name": "to",
          "type": "address"
        },
        {
          "internalType": "uint256",
          "name": "amount",
          "type": "uint256"
        },
        {
          "internalType": "uint256",
          "name": "deadline",
          "type": "uint256"
        },
        {
          "internalType": "uint8",
          "name": "v",
          "type": "uint8"
        },
        {
          "internalType": "bytes32",
          "name": "r",
          "type": "bytes32"
        },
        {
          "internalType": "bytes32",
          "name": "s",
          "type": "bytes32"
        }
      ],
      "name": "permitToken",
      "outputs": [],
      "stateMutability": "nonpayable",
      "type": "function"
    },
    {
      "inputs": [],
      "name": "pointList",
      "outputs": [
        {
          "internalType": "address",
          "name": "",
          "type": "address"
        }
      ],
      "stateMutability": "view",
      "type": "function"
    },
    {
      "inputs": [],
      "name": "priceFunction",
      "outputs": [
        {
          "internalType": "uint256",
          "name": "",
          "type": "uint256"
        }
      ],
      "stateMutability": "view",
      "type": "function"
    },
    {
      "inputs": [
        {
          "internalType": "address",
          "name": "_address",
          "type": "address"
        }
      ],
      "name": "removeAdminRole",
      "outputs": [],
      "stateMutability": "nonpayable",
      "type": "function"
    },
    {
      "inputs": [
        {
          "internalType": "string",
          "name": "_name",
          "type": "string"
        }
      ],
      "name": "removeDocument",
      "outputs": [],
      "stateMutability": "nonpayable",
      "type": "function"
    },
    {
      "inputs": [
        {
          "internalType": "address",
          "name": "_address",
          "type": "address"
        }
      ],
      "name": "removeMinterRole",
      "outputs": [],
      "stateMutability": "nonpayable",
      "type": "function"
    },
    {
      "inputs": [
        {
          "internalType": "address",
          "name": "_address",
          "type": "address"
        }
      ],
      "name": "removeOperatorRole",
      "outputs": [],
      "stateMutability": "nonpayable",
      "type": "function"
    },
    {
      "inputs": [
        {
          "internalType": "address",
          "name": "_address",
          "type": "address"
        }
      ],
      "name": "removeSmartContractRole",
      "outputs": [],
      "stateMutability": "nonpayable",
      "type": "function"
    },
    {
      "inputs": [
        {
          "internalType": "bytes32",
          "name": "role",
          "type": "bytes32"
        },
        {
          "internalType": "address",
          "name": "account",
          "type": "address"
        }
      ],
      "name": "renounceRole",
      "outputs": [],
      "stateMutability": "nonpayable",
      "type": "function"
    },
    {
      "inputs": [
        {
          "internalType": "bytes32",
          "name": "role",
          "type": "bytes32"
        },
        {
          "internalType": "address",
          "name": "account",
          "type": "address"
        }
      ],
      "name": "revokeRole",
      "outputs": [],
      "stateMutability": "nonpayable",
      "type": "function"
    },
    {
      "inputs": [
        {
          "internalType": "uint256",
          "name": "_minimumPrice",
          "type": "uint256"
        }
      ],
      "name": "setAuctionPrice",
      "outputs": [],
      "stateMutability": "nonpayable",
      "type": "function"
    },
    {
      "inputs": [
        {
          "internalType": "uint256",
          "name": "_startTime",
          "type": "uint256"
        },
        {
          "internalType": "uint256",
          "name": "_endTime",
          "type": "uint256"
        }
      ],
      "name": "setAuctionTime",
      "outputs": [],
      "stateMutability": "nonpayable",
      "type": "function"
    },
    {
      "inputs": [
        {
          "internalType": "address payable",
          "name": "_wallet",
          "type": "address"
        }
      ],
      "name": "setAuctionWallet",
      "outputs": [],
      "stateMutability": "nonpayable",
      "type": "function"
    },
    {
      "inputs": [
        {
          "internalType": "string",
          "name": "_name",
          "type": "string"
        },
        {
          "internalType": "string",
          "name": "_data",
          "type": "string"
        }
      ],
      "name": "setDocument",
      "outputs": [],
      "stateMutability": "nonpayable",
      "type": "function"
    },
    {
      "inputs": [
        {
          "internalType": "string[]",
          "name": "_name",
          "type": "string[]"
        },
        {
          "internalType": "string[]",
          "name": "_data",
          "type": "string[]"
        }
      ],
      "name": "setDocuments",
      "outputs": [],
      "stateMutability": "nonpayable",
      "type": "function"
    },
    {
      "inputs": [
        {
          "internalType": "address",
          "name": "_list",
          "type": "address"
        }
      ],
      "name": "setList",
      "outputs": [],
      "stateMutability": "nonpayable",
      "type": "function"
    },
    {
      "inputs": [],
      "name": "tokenPrice",
      "outputs": [
        {
          "internalType": "uint256",
          "name": "",
          "type": "uint256"
        }
      ],
      "stateMutability": "view",
      "type": "function"
    },
    {
      "inputs": [
        {
          "internalType": "address",
          "name": "_user",
          "type": "address"
        }
      ],
      "name": "tokensClaimable",
      "outputs": [
        {
          "internalType": "uint256",
          "name": "claimerCommitment",
          "type": "uint256"
        }
      ],
      "stateMutability": "view",
      "type": "function"
    },
    {
      "inputs": [],
      "name": "totalTokensCommitted",
      "outputs": [
        {
          "internalType": "uint256",
          "name": "",
          "type": "uint256"
        }
      ],
      "stateMutability": "view",
      "type": "function"
    },
    {
      "inputs": [],
      "name": "wallet",
      "outputs": [
        {
          "internalType": "address payable",
          "name": "",
          "type": "address"
        }
      ],
      "stateMutability": "view",
      "type": "function"
    },
    {
      "inputs": [
        {
          "internalType": "address payable",
          "name": "beneficiary",
          "type": "address"
        }
      ],
      "name": "withdrawTokens",
      "outputs": [],
      "stateMutability": "nonpayable",
      "type": "function"
    },
    {
      "inputs": [],
      "name": "withdrawTokens",
      "outputs": [],
      "stateMutability": "nonpayable",
      "type": "function"
    },
    {
      "stateMutability": "payable",
      "type": "receive"
    }
  ],
  "bytecode": "608060405234801561001057600080fd5b506001600555614f64806100256000396000f3fe60806040526004361061041f5760003560e01c80638a845fc01161021e578063c6b547e611610123578063dccfe310116100ab578063e8fcf7231161007a578063e8fcf72314610bfb578063f04899d314610c1b578063f08b82e614610c30578063f5b541a614610c45578063fc4e3e0a14610c5a5761042e565b8063dccfe31014610b77578063dde51f6d14610b97578063e0e081d714610bb7578063e6594abd14610bdb5761042e565b8063d2423b51116100f2578063d2423b5114610ae1578063d539139314610b02578063d547741f14610b17578063d69d3e6214610b37578063dc97e08214610b575761042e565b8063c6b547e614610a61578063c884ef8314610a81578063c92bce8714610aa1578063ca15c87314610ac15761042e565b80639c64d0ae116101a6578063adbf377611610175578063adbf3776146109cc578063b1f16218146109ec578063b3f05b9714610a0c578063b7928b1d14610a21578063c395fcb314610a415761042e565b80639c64d0ae146109605780639fa5f50b14610980578063a217fddf146109a2578063a9d87ee6146109b75761042e565b8063919e93b5116101ed578063919e93b5146108d657806391d14854146108eb5780639478941c1461090b57806399fdb3201461092b5780639a87222c146109405761042e565b80638a845fc01461086c5780638d8f2adb1461088c5780638fa8b790146108a15780639010d07c146108b65761042e565b806349df728c1161032457806373973fcb116102ac5780637ff9b5961161027b5780637ff9b596146107ed57806381353c8e1461080257806384720f1614610822578063857d26081461084257806386433374146108575761042e565b806373973fcb1461075d57806374cf9fc51461077d5780637c516e941461079f5780637ccb6a64146107bf5761042e565b80634ddf47d4116102f35780634ddf47d4146106d5578063521eb273146106e857806354f1e126146106fd5780636595171c1461071d5780636ae260c11461073d5761042e565b806349df728c146106605780634b3e6abb146106805780634bb278f3146106a05780634dc80e15146106b55761042e565b8063314148e2116103a75780633b33fe73116103765780633b33fe73146105c65780633d15cc6d146105e65780633d1c2273146106085780633f16431a1461061d57806345a153881461063d5761042e565b8063314148e21461055757806332a0f2d71461057c57806336568abe1461059157806336d0054b146105b15761042e565b80631b3e460e116103ee5780631b3e460e146104c2578063212f8a81146104e4578063248a9ca31461050457806329762960146105245780632f2ff15d146105375761042e565b8063031bee0014610433578063099db01714610460578063113b0ab21461048d57806317026455146104ad5761042e565b3661042e5761042c610c7a565b005b600080fd5b34801561043f57600080fd5b50610448610c9b565b60405161045793929190614ca4565b60405180910390f35b34801561046c57600080fd5b5061048061047b3660046137af565b610cc8565b6040516104579190613f5c565b34801561049957600080fd5b506104806104a83660046137af565b610cea565b3480156104b957600080fd5b50610480610d04565b3480156104ce57600080fd5b506104d7610d23565b6040516104579190613f67565b3480156104f057600080fd5b5061042c6104ff3660046138e1565b610d28565b34801561051057600080fd5b506104d761051f366004613a0b565b610ddb565b61042c610532366004613888565b610df0565b34801561054357600080fd5b5061042c610552366004613a23565b610ef7565b34801561056357600080fd5b5061056c610f3f565b6040516104579493929190613e30565b34801561058857600080fd5b506104d7610f77565b34801561059d57600080fd5b5061042c6105ac366004613a23565b610fab565b3480156105bd57600080fd5b50610480610fed565b3480156105d257600080fd5b5061042c6105e1366004613a0b565b611006565b3480156105f257600080fd5b506105fb61111a565b6040516104579190613d3f565b34801561061457600080fd5b506104d7611129565b34801561062957600080fd5b5061042c6106383660046137af565b61112f565b34801561064957600080fd5b50610652611191565b604051610457929190614c7c565b34801561066c57600080fd5b5061042c61067b3660046137af565b6111ab565b34801561068c57600080fd5b5061042c61069b3660046139d3565b6112f5565b3480156106ac57600080fd5b5061042c611325565b3480156106c157600080fd5b506104d76106d03660046137af565b6114dd565b61042c6106e3366004613a68565b610f3b565b3480156106f457600080fd5b506105fb611607565b34801561070957600080fd5b5061042c6107183660046137af565b611616565b34801561072957600080fd5b5061042c6107383660046137af565b611678565b34801561074957600080fd5b5061042c610758366004613a47565b6116cd565b34801561076957600080fd5b506104d7610778366004613a0b565b61187c565b34801561078957600080fd5b506107926118f6565b6040516104579190613f70565b3480156107ab57600080fd5b5061042c6107ba366004613aa7565b611919565b3480156107cb57600080fd5b506107df6107da366004613a68565b61198d565b604051610457929190613fb2565b3480156107f957600080fd5b506104d7611a7a565b34801561080e57600080fd5b5061042c61081d366004613a68565b611aad565b34801561082e57600080fd5b5061079261083d3660046138c0565b611afd565b34801561084e57600080fd5b506104d7611b44565b34801561086357600080fd5b50610480611b56565b34801561087857600080fd5b5061042c6108873660046137af565b611b7f565b34801561089857600080fd5b5061042c611be1565b3480156108ad57600080fd5b5061042c611bec565b3480156108c257600080fd5b506105fb6108d1366004613a47565b611ceb565b3480156108e257600080fd5b506104d7611d0c565b3480156108f757600080fd5b50610480610906366004613a23565b611d37565b34801561091757600080fd5b5061042c6109263660046137af565b611d4f565b34801561093757600080fd5b506105fb611db1565b34801561094c57600080fd5b5061042c61095b3660046137af565b611dc0565b34801561096c57600080fd5b5061042c61097b366004613b29565b611e4e565b34801561098c57600080fd5b50610995611e6c565b6040516104579190613efc565b3480156109ae57600080fd5b506104d7611f44565b3480156109c357600080fd5b506104d7611f49565b3480156109d857600080fd5b5061042c6109e73660046137af565b611f9a565b3480156109f857600080fd5b5061042c610a073660046138c0565b611ffc565b348015610a1857600080fd5b5061048061239b565b348015610a2d57600080fd5b5061042c610a3c3660046137af565b6123ab565b348015610a4d57600080fd5b50610480610a5c3660046137af565b61240d565b348015610a6d57600080fd5b50610792610a7c366004613a0b565b612419565b348015610a8d57600080fd5b506104d7610a9c3660046137af565b6124e4565b348015610aad57600080fd5b5061042c610abc36600461396b565b6124f6565b348015610acd57600080fd5b506104d7610adc366004613a0b565b612568565b610af4610aef366004613922565b61257f565b604051610457929190613e62565b348015610b0e57600080fd5b506104d761270f565b348015610b2357600080fd5b5061042c610b32366004613a23565b612721565b348015610b4357600080fd5b5061042c610b523660046137af565b61275b565b348015610b6357600080fd5b5061042c610b72366004613c37565b612779565b348015610b8357600080fd5b5061042c610b923660046137af565b612784565b348015610ba357600080fd5b5061042c610bb2366004613a68565b6127d9565b348015610bc357600080fd5b50610bcc6127f5565b60405161045793929190614c59565b348015610be757600080fd5b5061042c610bf63660046137af565b61281a565b348015610c0757600080fd5b506104d7610c163660046137af565b61287d565b348015610c2757600080fd5b506105fb61288f565b348015610c3c57600080fd5b506104d761289e565b348015610c5157600080fd5b506104d76128b4565b348015610c6657600080fd5b50610480610c753660046137af565b6128c6565b60405162461bcd60e51b8152600401610c9290614312565b60405180910390fd5b6006546001600160401b0380821691600160401b810490911690600160801b90046001600160801b031683565b6000610ce2600080516020614f0f83398151915283611d37565b90505b919050565b6000610ce2600080516020614d7f83398151915283611d37565b60065442600160401b9091046001600160401b031662093a8001105b90565b600481565b60026005541415610d4b5760405162461bcd60e51b8152600401610c9290614b6e565b6002600555600a546001600160a01b031673eeeeeeeeeeeeeeeeeeeeeeeeeeeeeeeeeeeeeeee1415610d8f5760405162461bcd60e51b8152600401610c92906145c9565b80610d9c57610d9c610c7a565b6000610da78361187c565b90508015610dd057600a54610dc6906001600160a01b031633836128e0565b610dd084826129bd565b505060016005555050565b60009081526020819052604090206002015490565b600a546001600160a01b031673eeeeeeeeeeeeeeeeeeeeeeeeeeeeeeeeeeeeeeee14610e2e5760405162461bcd60e51b8152600401610c9290614493565b80610e3b57610e3b610c7a565b60003411610e5b5760405162461bcd60e51b8152600401610c92906141f8565b6000610e663461187c565b90506000610e743483612b79565b90508115610e8657610e8684836129bd565b8015610ec4576040516001600160a01b0385169082156108fc029083906000818181858888f19350505050158015610ec2573d6000803e3d6000fd5b505b600854476001600160801b039091161115610ef15760405162461bcd60e51b8152600401610c929061438a565b50505050565b600082815260208190526040902060020154610f1590610906612b9c565b610f315760405162461bcd60e51b8152600401610c92906141a9565b610f3b8282612ba0565b5050565b6009546006546008546001600160a01b03909216926001600160401b0380831693600160401b9093041691600160801b900460ff1690565b6000610f81611f49565b610f89611a7a565b1115610f9e57610f97611a7a565b9050610d20565b610fa6611f49565b905090565b610fb3612b9c565b6001600160a01b0316816001600160a01b031614610fe35760405162461bcd60e51b8152600401610c9290614bdc565b610f3b8282612c09565b6000610ff7610f77565b610fff611a7a565b1015905090565b61100f3361240d565b61101857600080fd5b600081116110385760405162461bcd60e51b8152600401610c9290614a14565b6008546001600160801b0316156110615760405162461bcd60e51b8152600401610c9290614a71565b61106a81612c72565b600780546001600160801b0319166001600160801b0392831617908190556006546001600160401b03808216600160401b909204811691909103926000926110b59285169116612c9f565b90506110c081612c72565b600780546001600160801b03928316600160801b0292169190911790556040517f1fd3f6b4312b53d1521fb9dab5af66131ff5b6141870420ded20e5ffb42f6cf29061110d908590613f67565b60405180910390a1505050565b600a546001600160a01b031681565b60045490565b611147600080516020614d7f83398151915282610ef7565b61114f612b9c565b6001600160a01b0316816001600160a01b03167f1d5f9ec24c6f91be922ea13ceaad919ad6554a41b5c26087f96289a9baf98ad260405160405180910390a350565b6007546001600160801b0380821691600160801b90041682565b600260055414156111ce5760405162461bcd60e51b8152600401610c9290614b6e565b60026005556111db610fed565b1561128b57600854600160801b900460ff166112095760405162461bcd60e51b8152600401610c9290614246565b6000611214826114dd565b9050600081116112365760405162461bcd60e51b8152600401610c929061461b565b6001600160a01b0382166000908152600e60205260409020546112599082612cd6565b6001600160a01b038084166000908152600e602052604090209190915560095461128591168383612cf9565b506112ed565b600654600160401b90046001600160401b031642116112bc5760405162461bcd60e51b8152600401610c9290614444565b6001600160a01b038082166000908152600d602052604081208054919055600a5490916112eb91168383612cf9565b505b506001600555565b6112fe3361240d565b61130757600080fd5b60088054911515600160881b0260ff60881b19909216919091179055565b600260055414156113485760405162461bcd60e51b8152600401610c9290614b6e565b60026005556113563361240d565b8061136b5750600b546001600160a01b031633145b8061137a575061137a33610cea565b806113885750611388610d04565b6113a45760405162461bcd60e51b8152600401610c92906142c8565b6006805460089190600160801b90046001600160801b03166113d85760405162461bcd60e51b8152600401610c9290614733565b8154600160801b900460ff16156114015760405162461bcd60e51b8152600401610c929061485f565b611409610fed565b1561143b57600a54600b548354611436926001600160a01b039081169216906001600160801b0316612cf9565b61149a565b8054600160401b90046001600160401b0316421161146b5760405162461bcd60e51b8152600401610c9290614444565b600954600b54825461149a926001600160a01b03908116921690600160801b90046001600160801b0316612cf9565b815460ff60801b1916600160801b1782556040517f32bebcfd2d04dbae321298091d96d2cb1d07279f59718cd83bd98245b8b82b5a90600090a150506001600555565b6001600160a01b0381166000908152600d602052604081205461150257506000610ce5565b6009546040516370a0823160e01b81526000916001600160a01b0316906370a0823190611533903090600401613d3f565b60206040518083038186803b15801561154b57600080fd5b505afa15801561155f573d6000803e3d6000fd5b505050506040513d601f19601f820116820180604052508101906115839190613c1f565b6008546006546001600160a01b0386166000908152600d60205260409020549293506115cc926001600160801b03928316926115c692600160801b900416612c9f565b90612d3d565b6001600160a01b0384166000908152600e60205260409020549092506115f3908390612b79565b915080821115611601578091505b50919050565b600b546001600160a01b031681565b61162e600080516020614f0f83398151915282612721565b611636612b9c565b6001600160a01b0316816001600160a01b03167f56692a161ffec953ddf9def93b958ea8d1ec95e21b80870c66be91a4374dc4e360405160405180910390a350565b611683600082610ef7565b61168b612b9c565b6001600160a01b0316816001600160a01b03167f2570ac42fd8b322dc453ada624dc2ed0e9bdd67f16f201a25bbd30468f2aa18760405160405180910390a350565b6116d63361240d565b6116df57600080fd5b6402540be40082106117035760405162461bcd60e51b8152600401610c92906147f3565b6402540be40081106117275760405162461bcd60e51b8152600401610c92906147f3565b428210156117475760405162461bcd60e51b8152600401610c92906144e9565b8181116117665760405162461bcd60e51b8152600401610c929061456c565b6008546001600160801b03161561178f5760405162461bcd60e51b8152600401610c9290614a71565b61179882612d6f565b6006805467ffffffffffffffff19166001600160401b03929092169190911790556117c281612d6f565b6006805467ffffffffffffffff60401b1916600160401b6001600160401b03938416810291909117918290556007548284169190920483160391600091611814918416906001600160801b0316612c9f565b905061181f81612c72565b600780546001600160801b03928316600160801b0292169190911790556040517f5725d1e4352d6944889e54837ffaefde55cdc0b55796b831365d61cd4c87fdb89061186e9086908690614c96565b60405180910390a150505050565b6000806118af670de0b6b3a76400006115c6611896610f77565b600654600160801b90046001600160801b031690612c9f565b60085490915081906118ca906001600160801b031685612cd6565b11156118ef576008546118e79082906001600160801b0316612b79565b915050610ce5565b5090919050565b60606040518061018001604052806101508152602001614d9f6101509139905090565b60405163d505accf60e01b81526001600160a01b0389169063d505accf90611951908a908a908a908a908a908a908a90600401613dd6565b600060405180830381600087803b15801561196b57600080fd5b505af115801561197f573d6000803e3d6000fd5b505050505050505050505050565b60606000600284846040516119a3929190613ca3565b9081526020016040518091039020600101600285856040516119c6929190613ca3565b908152604080516020928190038301812054845460026101006001831615026000190190911604601f810185900485028301850190935282825264010000000090046001600160401b03169290918491830182828015611a675780601f10611a3c57610100808354040283529160200191611a67565b820191906000526020600020905b815481529060010190602001808311611a4a57829003601f168201915b50505050509150915091505b9250929050565b600654600854600091610fa6916001600160801b03600160801b9092048216916115c69116670de0b6b3a7640000612c9f565b600080808080808080808080611ac58c8e018e6137d2565b9a509a509a509a509a509a509a509a509a509a509a50611aee8b8b8b8b8b8b8b8b8b8b8b611ffc565b50505050505050505050505050565b60608b8b8b8b8b8b8b8b8b8b8b604051602001611b249b9a99989796959493929190613d77565b60405160208183030381529060405290509b9a5050505050505050505050565b600080516020614d7f83398151915281565b6000611b60610fed565b80610fa6575050600654600160401b90046001600160401b0316421190565b611b97600080516020614d7f83398151915282612721565b611b9f612b9c565b6001600160a01b0316816001600160a01b03167fe5f1aa9e528307345194b88b24a32401c13926e0823060f1049d9b26c0bb62b260405160405180910390a350565b611bea336111ab565b565b60026005541415611c0f5760405162461bcd60e51b8152600401610c9290614b6e565b6002600555611c1d3361240d565b611c2657600080fd5b60088054600160801b900460ff1615611c515760405162461bcd60e51b8152600401610c929061485f565b80546001600160801b031615611c795760405162461bcd60e51b8152600401610c92906148ab565b600954600b54600654611ca9926001600160a01b03908116921690600160801b90046001600160801b0316612cf9565b805460ff60801b1916600160801b1781556040517fa5fb31e47bd1eca58bf14a3312d5e6aeafdc4ee787c8ed348c15c2b092324d9390600090a1506001600555565b6000828152602081905260408120611d039083612d98565b90505b92915050565b6000610fa6611d19610f77565b6008546115c6906001600160801b0316670de0b6b3a7640000612c9f565b6000828152602081905260408120611d039083612da4565b611d67600080516020614eef83398151915282612721565b611d6f612b9c565b6001600160a01b0316816001600160a01b03167f70b25138b6fadeb9992d18b9653564271823e34b3e3257515d12a6d4b15fcddf60405160405180910390a350565b6009546001600160a01b031681565b611dc93361240d565b611dd257600080fd5b6001600160a01b038116611df85760405162461bcd60e51b8152600401610c929061427b565b600b80546001600160a01b0319166001600160a01b0383161790556040517f34ae2bad9265f0212d4cf341708b8250949164bb54f9d0e4f442024f83bb2f9090611e43908390613d3f565b60405180910390a150565b611e573361240d565b611e6057600080fd5b610ef184848484612db9565b60606004805480602002602001604051908101604052809291908181526020016000905b82821015611f3b5760008481526020908190208301805460408051601f6002600019610100600187161502019094169390930492830185900485028101850190915281815292830182828015611f275780601f10611efc57610100808354040283529160200191611f27565b820191906000526020600020905b815481529060010190602001808311611f0a57829003601f168201915b505050505081526020019060010190611e90565b50505050905090565b600081565b6006546000906001600160401b03164211611f675750600019610d20565b600654600160401b90046001600160401b03164210611f9257506007546001600160801b0316610d20565b610fa661300b565b611fb2600080516020614f0f83398151915282610ef7565b611fba612b9c565b6001600160a01b0316816001600160a01b03167f0be6ab9784c7401fafb73f7bc47bc67cc4ef8c47a60ad3cb66d1de0353a0784c60405160405180910390a350565b6402540be40087106120205760405162461bcd60e51b8152600401610c92906147f3565b428810156120405760405162461bcd60e51b8152600401610c92906144e9565b600089116120605760405162461bcd60e51b8152600401610c929061414c565b87871161207f5760405162461bcd60e51b8152600401610c92906143e7565b6000841161209f5760405162461bcd60e51b8152600401610c9290614a14565b6001600160a01b0381166120c55760405162461bcd60e51b8152600401610c929061427b565b6001600160a01b0383166120eb5760405162461bcd60e51b8152600401610c92906146e7565b6001600160a01b038a166121115760405162461bcd60e51b8152600401610c92906148f7565b896001600160a01b031663313ce5676040518163ffffffff1660e01b815260040160206040518083038186803b15801561214a57600080fd5b505afa15801561215e573d6000803e3d6000fd5b505050506040513d601f19601f820116820180604052508101906121829190613c5b565b60ff166012146121a45760405162461bcd60e51b8152600401610c9290614943565b6001600160a01b03861673eeeeeeeeeeeeeeeeeeeeeeeeeeeeeeeeeeeeeeee1461225b576000866001600160a01b031663313ce5676040518163ffffffff1660e01b815260040160206040518083038186803b15801561220357600080fd5b505afa158015612217573d6000803e3d6000fd5b505050506040513d601f19601f8201168201806040525081019061223b9190613c5b565b60ff161161225b5760405162461bcd60e51b8152600401610c929061408d565b61226488612d6f565b6006805467ffffffffffffffff19166001600160401b039290921691909117905561228e87612d6f565b600680546001600160401b0392909216600160401b0267ffffffffffffffff60401b199092169190911790556122c389612c72565b600680546001600160801b03928316600160801b0292169190911790556122e984612c72565b600780546001600160801b0319166001600160801b0392909216919091179055600980546001600160a01b03199081166001600160a01b038d811691909117909255600a80548216898416179055600b80549091169183169190911790556123508361281a565b61235982613051565b87870360006123688287612c9f565b905061237381612c72565b600780546001600160801b03928316600160801b029216919091179055611aee8c8e8d6128e0565b600854600160801b900460ff1690565b6123c3600080516020614eef83398151915282610ef7565b6123cb612b9c565b6001600160a01b0316816001600160a01b03167f2d45ee102874989882745a26688d0b4fffee125a18df26536b12582c7fde4e1760405160405180910390a350565b6000610ce28183611d37565b600454606090821061243d5760405162461bcd60e51b8152600401610c9290614b0a565b6004828154811061244a57fe5b600091825260209182902001805460408051601f60026000196101006001871615020190941693909304928301859004850281018501909152818152928301828280156124d85780601f106124ad576101008083540402835291602001916124d8565b820191906000526020600020905b8154815290600101906020018083116124bb57829003601f168201915b50505050509050919050565b600e6020526000908152604090205481565b6124ff3361240d565b61250857600080fd5b8260005b818110156125605761255886868381811061252357fe5b90506020028101906125359190614cd0565b86868581811061254157fe5b90506020028101906125539190614cd0565b612db9565b60010161250c565b505050505050565b6000818152602081905260408120610ce290613093565b606080836001600160401b038111801561259857600080fd5b506040519080825280602002602001820160405280156125c2578160200160208202803683370190505b509150836001600160401b03811180156125db57600080fd5b5060405190808252806020026020018201604052801561260f57816020015b60608152602001906001900390816125fa5790505b50905060005b8481101561270657600060603088888581811061262e57fe5b90506020028101906126409190614cd0565b60405161264e929190613ca3565b600060405180830381855af49150503d8060008114612689576040519150601f19603f3d011682016040523d82523d6000602084013e61268e565b606091505b5091509150818061269d575085155b6126a68261309e565b906126c45760405162461bcd60e51b8152600401610c929190613f70565b50818584815181106126d257fe5b602002602001019015159081151581525050808484815181106126f157fe5b60209081029190910101525050600101612615565b50935093915050565b600080516020614f0f83398151915281565b60008281526020819052604090206002015461273f90610906612b9c565b610fe35760405162461bcd60e51b8152600401610c9290614697565b6127643361240d565b61276d57600080fd5b61277681613051565b50565b610f3b338383610d28565b61278f600082612721565b612797612b9c565b6001600160a01b0316816001600160a01b03167f21ba1239795d4e22874e3dc55f0a9d7b65bfb23069d32965d7c23be9524ccf9560405160405180910390a350565b6127e23361240d565b6127eb57600080fd5b610f3b82826130fe565b6008546001600160801b0381169060ff600160801b8204811691600160881b90041683565b60015460ff161561283d5760405162461bcd60e51b8152600401610c92906140dd565b6001600160a01b0381166128635760405162461bcd60e51b8152600401610c92906147ca565b61286e600082610f31565b506001805460ff191681179055565b600d6020526000908152604090205481565b600c546001600160a01b031681565b600654600160801b90046001600160801b031690565b600080516020614eef83398151915281565b6000610ce2600080516020614eef83398151915283611d37565b60006060846001600160a01b03166323b872dd85308660405160240161290893929190613d53565b6040516020818303038152906040529060e01b6020820180516001600160e01b0383818316178352505050506040516129419190613cb3565b6000604051808303816000865af19150503d806000811461297e576040519150601f19603f3d011682016040523d82523d6000602084013e612983565b606091505b50915091508180156129ad5750805115806129ad5750808060200190518101906129ad91906139ef565b6129b657600080fd5b5050505050565b6006546001600160401b031642108015906129ea5750600654600160401b90046001600160401b03164211155b612a065760405162461bcd60e51b8152600401610c92906149cc565b60088054600160801b900460ff1615612a315760405162461bcd60e51b8152600401610c929061485f565b6001600160a01b0383166000908152600d6020526040812054612a549084612cd6565b8254909150600160881b900460ff1615612af357600c54604051631cd53d5560e01b81526001600160a01b0390911690631cd53d5590612a9a9087908590600401613e17565b60206040518083038186803b158015612ab257600080fd5b505afa158015612ac6573d6000803e3d6000fd5b505050506040513d601f19601f82011682018060405250810190612aea91906139ef565b612af357600080fd5b6001600160a01b0384166000908152600d602052604090208190558154612b2c90612b27906001600160801b031685612cd6565b612c72565b82546001600160801b0319166001600160801b03919091161782556040517f077511a636ba1f10551cc7b89c13ff66a6ac9344e8a917527817a9690b15af7a9061186e9086908690613e17565b80820382811115611d065760405162461bcd60e51b8152600401610c929061405e565b3390565b6000828152602081905260409020612bb8908261332f565b15610f3b57612bc5612b9c565b6001600160a01b0316816001600160a01b0316837f2f8788117e7eff1d82e926ec794901d17c78024a50270940304540a733656f0d60405160405180910390a45050565b6000828152602081905260409020612c219082613344565b15610f3b57612c2e612b9c565b6001600160a01b0316816001600160a01b0316837ff6391f5c32d9c69d2a47ea670b442974b53935d1edc7fd64eb21e047a839171b60405160405180910390a45050565b60006001600160801b03821115612c9b5760405162461bcd60e51b8152600401610c9290614660565b5090565b6000811580612cba57505080820282828281612cb757fe5b04145b611d065760405162461bcd60e51b8152600401610c9290614ba5565b81810181811015611d065760405162461bcd60e51b8152600401610c929061475c565b6001600160a01b03831673eeeeeeeeeeeeeeeeeeeeeeeeeeeeeeeeeeeeeeee1415612d2d57612d288282613359565b612d38565b612d388383836133e6565b505050565b6000808211612d5e5760405162461bcd60e51b8152600401610c9290614c2b565b818381612d6757fe5b049392505050565b60006001600160401b03821115612c9b5760405162461bcd60e51b8152600401610c9290614995565b6000611d03838361340c565b6000611d03836001600160a01b038416613451565b82612dd65760405162461bcd60e51b8152600401610c9290614793565b80612df35760405162461bcd60e51b8152600401610c9290614b37565b60006001600160401b031660028585604051612e10929190613ca3565b908152604051908190036020019020546001600160401b03640100000000909104161415612eb65760048054600181018255600091909152612e75907f8a35acfbc15ff81a39ae7d344fd709f28e8600b4aa8c65c6b64bfe7fe36bd19b01858561357d565b50600454604051600290612e8c9087908790613ca3565b908152604051908190036020019020805463ffffffff9290921663ffffffff199092169190911790555b604051806060016040528060028686604051612ed3929190613ca3565b90815260408051602092819003830190205463ffffffff168352426001600160401b0316838301528051601f860183900483028101830182528581529201919085908590819084018382808284376000920191909152505050915250604051600290612f429087908790613ca3565b9081526040805191829003602090810190922083518154858501516001600160401b0316640100000000026bffffffffffffffff000000001963ffffffff90931663ffffffff1990921691909117919091161781559083015180519192612fb1926001850192909101906135f7565b5050604051612fc4915085908590613ca3565b60405180910390207fbaa206e5ea800eb88bce099f453fee53295b793b9d5d1cfc4ce4b6db06a34f538383604051612ffd929190613f83565b60405180910390a250505050565b60065460009081906130279042906001600160401b0316612b79565b60075490915060009061304a90600160801b90046001600160801b031683612d3d565b9250505090565b6001600160a01b0381161561277657600c80546001600160a01b0383166001600160a01b03199091161790556008805460ff60881b1916600160881b17905550565b6000610ce282613469565b60606044825110156130e4575060408051808201909152601d81527f5472616e73616374696f6e2072657665727465642073696c656e746c790000006020820152610ce5565b60048201915081806020019051810190610ce29190613b85565b60006001600160401b03166002838360405161311b929190613ca3565b908152604051908190036020019020546001600160401b0364010000000090910416141561315b5760405162461bcd60e51b8152600401610c929061453d565b6000600160028484604051613171929190613ca3565b9081526040519081900360200190205460045463ffffffff918216929092039250821660001990910114613252576004805460001981019081106131b157fe5b9060005260206000200160048263ffffffff16815481106131ce57fe5b9060005260206000200190805460018160011615610100020316600290046131f7929190613665565b5080600101600260048363ffffffff168154811061321157fe5b906000526020600020016040516132289190613ccf565b908152604051908190036020019020805463ffffffff9290921663ffffffff199092169190911790555b600480548061325d57fe5b60019003818190600052602060002001600061327991906136da565b9055828260405161328b929190613ca3565b60405180910390207f4b5338540b4d1c0f6dd0308a25f633b7ff60472f894d711cff9dd64e35c613b2600285856040516132c6929190613ca3565b90815260200160405180910390206001016040516132e49190613fd4565b60405180910390a2600283836040516132fe929190613ca3565b90815260405190819003602001902080546bffffffffffffffffffffffff1916815560006129b660018301826136da565b6000611d03836001600160a01b03841661346d565b6000611d03836001600160a01b0384166134b7565b604080516000808252602082019092526001600160a01b0384169083906040516133839190613cb3565b60006040518083038185875af1925050503d80600081146133c0576040519150601f19603f3d011682016040523d82523d6000602084013e6133c5565b606091505b5050905080612d385760405162461bcd60e51b8152600401610c9290614ac7565b60006060846001600160a01b031663a9059cbb8585604051602401612908929190613e17565b8154600090821061342f5760405162461bcd60e51b8152600401610c929061410a565b82600001828154811061343e57fe5b9060005260206000200154905092915050565b60009081526001919091016020526040902054151590565b5490565b60006134798383613451565b6134af57508154600181810184556000848152602080822090930184905584548482528286019093526040902091909155611d06565b506000611d06565b6000818152600183016020526040812054801561357357835460001980830191908101906000908790839081106134ea57fe5b906000526020600020015490508087600001848154811061350757fe5b60009182526020808320909101929092558281526001898101909252604090209084019055865487908061353757fe5b60019003818190600052602060002001600090559055866001016000878152602001908152602001600020600090556001945050505050611d06565b6000915050611d06565b828054600181600116156101000203166002900490600052602060002090601f016020900481019282601f106135be5782800160ff198235161785556135eb565b828001600101855582156135eb579182015b828111156135eb5782358255916020019190600101906135d0565b50612c9b92915061371a565b828054600181600116156101000203166002900490600052602060002090601f016020900481019282601f1061363857805160ff19168380011785556135eb565b828001600101855582156135eb579182015b828111156135eb57825182559160200191906001019061364a565b828054600181600116156101000203166002900490600052602060002090601f016020900481019282601f1061369e57805485556135eb565b828001600101855582156135eb57600052602060002091601f016020900482015b828111156135eb5782548255916001019190600101906136bf565b50805460018160011615610100020316600290046000825580601f106137005750612776565b601f01602090049060005260206000209081019061277691905b5b80821115612c9b576000815560010161371b565b60008083601f840112613740578182fd5b5081356001600160401b03811115613756578182fd5b6020830191508360208083028501011115611a7357600080fd5b60008083601f840112613781578182fd5b5081356001600160401b03811115613797578182fd5b602083019150836020828501011115611a7357600080fd5b6000602082840312156137c0578081fd5b81356137cb81614d4c565b9392505050565b60008060008060008060008060008060006101608c8e0312156137f3578687fd5b8b356137fe81614d4c565b9a5060208c013561380e81614d4c565b995060408c0135985060608c0135975060808c0135965060a08c013561383381614d4c565b955060c08c0135945060e08c013593506101008c013561385281614d4c565b92506101208c013561386381614d4c565b91506101408c013561387481614d4c565b809150509295989b509295989b9093969950565b6000806040838503121561389a578182fd5b82356138a581614d4c565b915060208301356138b581614d61565b809150509250929050565b60008060008060008060008060008060006101608c8e0312156137f3578081fd5b6000806000606084860312156138f5578283fd5b833561390081614d4c565b925060208401359150604084013561391781614d61565b809150509250925092565b600080600060408486031215613936578081fd5b83356001600160401b0381111561394b578182fd5b6139578682870161372f565b909450925050602084013561391781614d61565b60008060008060408587031215613980578182fd5b84356001600160401b0380821115613996578384fd5b6139a28883890161372f565b909650945060208701359150808211156139ba578384fd5b506139c78782880161372f565b95989497509550505050565b6000602082840312156139e4578081fd5b81356137cb81614d61565b600060208284031215613a00578081fd5b81516137cb81614d61565b600060208284031215613a1c578081fd5b5035919050565b60008060408385031215613a35578182fd5b8235915060208301356138b581614d4c565b60008060408385031215613a59578182fd5b50508035926020909101359150565b60008060208385031215613a7a578182fd5b82356001600160401b03811115613a8f578283fd5b613a9b85828601613770565b90969095509350505050565b600080600080600080600080610100898b031215613ac3578182fd5b8835613ace81614d4c565b97506020890135613ade81614d4c565b96506040890135613aee81614d4c565b9550606089013594506080890135935060a0890135613b0c81614d6f565b979a969950949793969295929450505060c08201359160e0013590565b60008060008060408587031215613b3e578182fd5b84356001600160401b0380821115613b54578384fd5b613b6088838901613770565b90965094506020870135915080821115613b78578384fd5b506139c787828801613770565b600060208284031215613b96578081fd5b81516001600160401b0380821115613bac578283fd5b818401915084601f830112613bbf578283fd5b815181811115613bcd578384fd5b604051601f8201601f191681016020018381118282101715613bed578586fd5b604052818152838201602001871015613c04578485fd5b613c15826020830160208701614d20565b9695505050505050565b600060208284031215613c30578081fd5b5051919050565b60008060408385031215613c49578182fd5b8235915060208301356138b581614d61565b600060208284031215613c6c578081fd5b81516137cb81614d6f565b60008151808452613c8f816020860160208601614d20565b601f01601f19169290920160200192915050565b6000828483379101908152919050565b60008251613cc5818460208701614d20565b9190910192915050565b6000808354600180821660008114613cee5760018114613d0557613d34565b60ff198316865260028304607f1686019350613d34565b600283048786526020808720875b83811015613d2c5781548a820152908501908201613d13565b505050860193505b509195945050505050565b6001600160a01b0391909116815260200190565b6001600160a01b039384168152919092166020820152604081019190915260600190565b6001600160a01b039b8c168152998b1660208b015260408a01989098526060890196909652608088019490945291871660a087015260c086015260e0850152841661010084015283166101208301529091166101408201526101600190565b6001600160a01b0397881681529590961660208601526040850193909352606084019190915260ff16608083015260a082015260c081019190915260e00190565b6001600160a01b03929092168252602082015260400190565b6001600160a01b039490941684526001600160401b039283166020850152911660408301521515606082015260800190565b604080825283519082018190526000906020906060840190828701845b82811015613e9d578151151584529284019290840190600101613e7f565b50505083810382850152808551613eb48184613f67565b91508192508381028201848801865b83811015613eed578583038552613edb838351613c77565b94870194925090860190600101613ec3565b50909998505050505050505050565b6000602080830181845280855180835260408601915060408482028701019250838701855b82811015613f4f57603f19888603018452613f3d858351613c77565b94509285019290850190600101613f21565b5092979650505050505050565b901515815260200190565b90815260200190565b600060208252611d036020830184613c77565b60006020825282602083015282846040840137818301604090810191909152601f909201601f19160101919050565b600060408252613fc56040830185613c77565b90508260208301529392505050565b60006020808301818452828554600180821660008114613ffb576001811461401957614051565b60028304607f16855260ff1983166040890152606088019350614051565b600283048086526140298a614d14565b885b828110156140475781548b82016040015290840190880161402b565b8a01604001955050505b5091979650505050505050565b602080825260159082015274426f72696e674d6174683a20556e646572666c6f7760581b604082015260600190565b60208082526030908201527f4879706572626f6c696341756374696f6e3a205061796d656e7420637572726560408201526f06e6379206973206e6f742045524332360841b606082015260800190565b602080825260139082015272105b1c9958591e481a5b9a5d1a585b1a5cd959606a1b604082015260600190565b60208082526022908201527f456e756d657261626c655365743a20696e646578206f7574206f6620626f756e604082015261647360f01b606082015260800190565b60208082526039908201527f4879706572626f6c696341756374696f6e3a20746f74616c20746f6b656e732060408201527f6d7573742062652067726561746572207468616e207a65726f00000000000000606082015260800190565b6020808252602f908201527f416363657373436f6e74726f6c3a2073656e646572206d75737420626520616e60408201526e0818591b5a5b881d1bc819dc985b9d608a1b606082015260800190565b6020808252602e908201527f4879706572626f6c696341756374696f6e3a2056616c7565206d75737420626560408201526d020686967686572207468616e20360941b606082015260800190565b6020808252818101527f4879706572626f6c696341756374696f6e3a206e6f742066696e616c697a6564604082015260600190565b6020808252602d908201527f4879706572626f6c696341756374696f6e3a2077616c6c65742069732074686560408201526c207a65726f206164647265737360981b606082015260800190565b6020808252602a908201527f4879706572626f6c696341756374696f6e3a2073656e646572206d7573742062604082015269329030b71030b236b4b760b11b606082015260800190565b60208082526052908201527f4e6f2061677265656d656e742070726f76696465642c20706c6561736520726560408201527f766965772074686520736d61727420636f6e7472616374206265666f726520696060820152711b9d195c9858dd1a5b99c81dda5d1a081a5d60721b608082015260a00190565b60208082526038908201527f4879706572626f6c696341756374696f6e3a2054686520636f6d6d697474656460408201527f204554482065786365656473207468652062616c616e63650000000000000000606082015260800190565b60208082526039908201527f4879706572626f6c696341756374696f6e3a20656e642074696d65206d75737460408201527f206265206f6c646572207468616e2073746172742074696d6500000000000000606082015260800190565b6020808252602f908201527f4879706572626f6c696341756374696f6e3a2061756374696f6e20686173206e60408201526e1bdd08199a5b9a5cda1959081e595d608a1b606082015260800190565b60208082526036908201527f4879706572626f6c696341756374696f6e3a207061796d656e742063757272656040820152756e6379206973206e6f7420455448206164647265737360501b606082015260800190565b60208082526034908201527f4879706572626f6c696341756374696f6e3a2073746172742074696d65206973604082015273206265666f72652063757272656e742074696d6560601b606082015260800190565b602080825260159082015274111bd8dd5b595b9d081cda1bdd5b1908195e1a5cdd605a1b604082015260600190565b6020808252603a908201527f4879706572626f6c696341756374696f6e3a20656e642074696d65206d75737460408201527f206265206f6c646572207468616e207374617274207072696365000000000000606082015260800190565b60208082526032908201527f4879706572626f6c696341756374696f6e3a207061796d656e742063757272656040820152713731bc9034b9903737ba1030903a37b5b2b760711b606082015260800190565b60208082526025908201527f4879706572626f6c696341756374696f6e3a206e6f20746f6b656e7320746f20604082015264636c61696d60d81b606082015260800190565b6020808252601c908201527f426f72696e674d6174683a2075696e74313238204f766572666c6f7700000000604082015260600190565b60208082526030908201527f416363657373436f6e74726f6c3a2073656e646572206d75737420626520616e60408201526f2061646d696e20746f207265766f6b6560801b606082015260800190565b6020808252602c908201527f4879706572626f6c696341756374696f6e3a2061646d696e206973207468652060408201526b7a65726f206164647265737360a01b606082015260800190565b6020808252600f908201526e139bdd081a5b9a5d1a585b1a5e9959608a1b604082015260600190565b60208082526018908201527f426f72696e674d6174683a20416464204f766572666c6f770000000000000000604082015260600190565b60208082526018908201527f5a65726f206e616d65206973206e6f7420616c6c6f7765640000000000000000604082015260600190565b6020808252600f908201526e125b98dbdc9c9958dd081a5b9c1d5d608a1b604082015260600190565b60208082526046908201527f4879706572626f6c696341756374696f6e3a20656e74657220616e20756e697860408201527f2074696d657374616d7020696e207365636f6e64732c206e6f74206d696c697360608201526565636f6e647360d01b608082015260a00190565b6020808252602c908201527f4879706572626f6c696341756374696f6e3a2061756374696f6e20616c72656160408201526b191e48199a5b985b1a5e995960a21b606082015260800190565b6020808252602c908201527f4879706572626f6c696341756374696f6e3a2061756374696f6e20616c72656160408201526b191e4818dbdb5b5a5d1d195960a21b606082015260800190565b6020808252602c908201527f4879706572626f6c696341756374696f6e3a20746f6b656e206973207468652060408201526b7a65726f206164647265737360a01b606082015260800190565b60208082526032908201527f4879706572626f6c696341756374696f6e3a20546f6b656e20646f6573206e6f60408201527174206861766520313820646563696d616c7360701b606082015260800190565b6020808252601b908201527f426f72696e674d6174683a2075696e743634204f766572666c6f770000000000604082015260600190565b60208082526028908201527f4879706572626f6c696341756374696f6e3a206f7574736964652061756374696040820152676f6e20686f75727360c01b606082015260800190565b60208082526037908201527f4879706572626f6c696341756374696f6e3a206d696e696d756d20707269636560408201527f206d7573742062652067726561746572207468616e2030000000000000000000606082015260800190565b60208082526036908201527f4879706572626f6c696341756374696f6e3a2061756374696f6e2063616e6e6f6040820152751d081a185d9948185b1c9958591e481cdd185c9d195960521b606082015260800190565b60208082526023908201527f5472616e7366657248656c7065723a204554485f5452414e534645525f46414960408201526213115160ea1b606082015260800190565b602080825260139082015272496e646578206f7574206f6620626f756e647360681b604082015260600190565b6020808252601a908201527f53686f756c64206e6f74206265206120656d7074792064617461000000000000604082015260600190565b6020808252601f908201527f5265656e7472616e637947756172643a207265656e7472616e742063616c6c00604082015260600190565b60208082526018908201527f426f72696e674d6174683a204d756c204f766572666c6f770000000000000000604082015260600190565b6020808252602f908201527f416363657373436f6e74726f6c3a2063616e206f6e6c792072656e6f756e636560408201526e103937b632b9903337b91039b2b63360891b606082015260800190565b602080825260149082015273426f72696e674d6174683a20446976207a65726f60601b604082015260600190565b6001600160801b0393909316835290151560208301521515604082015260600190565b6001600160801b0392831681529116602082015260400190565b918252602082015260400190565b6001600160401b0393841681529190921660208201526001600160801b03909116604082015260600190565b6000808335601e19843603018112614ce6578283fd5b8301803591506001600160401b03821115614cff578283fd5b602001915036819003821315611a7357600080fd5b60009081526020902090565b60005b83811015614d3b578181015183820152602001614d23565b83811115610ef15750506000910152565b6001600160a01b038116811461277657600080fd5b801515811461277657600080fd5b60ff8116811461277657600080fdfe9d49f397ae9ef1a834b569acb967799a367061e305932181a44f5773da873bfd4920756e6465727374616e6420746861742049276d20696e746572616374696e672077697468206120736d61727420636f6e74726163742e204920756e6465727374616e64207468617420746f6b656e7320636f6d6d6974656420617265207375626a65637420746f2074686520746f6b656e2069737375657220616e64206c6f63616c206c617773207768657265206170706c696361626c652e204920726576696577656420636f6465206f662074686520736d61727420636f6e747261637420616e6420756e6465727374616e642069742066756c6c792e204920616772656520746f206e6f7420686f6c6420646576656c6f70657273206f72206f746865722070656f706c65206173736f6369617465642077697468207468652070726f6a656374206c6961626c6520666f7220616e79206c6f73736573206f72206d6973756e6465727374616e64696e677397667070c54ef182b0f5858b034beac1b6f3089aa2d3188bb1e8929f4fa9b9299f2df0fed2c77648de5860a4cc508cd0818c85b8b8a1ab4ceeef8d981c8956a6a26469706673582212209900aee305819555ea12ddde3c9106f0755342e112b4cc02bf4cd5336766e93364736f6c634300060c0033",
  "bytecodeSha1": "996c2243667628a86b0120bc4a10280e4fb66c68",
  "compiler": {
    "evm_version": "istanbul",
    "optimizer": {
      "enabled": true,
      "runs": 200
    },
    "version": "0.6.12+commit.27d51765"
  },
  "contractName": "HyperbolicAuction",
  "language": "Solidity",
  "natspec": {
    "kind": "dev",
    "methods": {
      "MINTER_ROLE()": {
        "notice": "Role definitions"
      },
      "addAdminRole(address)": {
        "details": "The sender must have the admin role.",
        "notice": "Grants the admin role to an address.",
        "params": {
          "_address": "EOA or contract receiving the new role."
        }
      },
      "addMinterRole(address)": {
        "details": "The sender must have the admin role",
        "notice": "Grants the minter role to an address",
        "params": {
          "_address": "EOA or contract receiving the new role"
        }
      },
      "addOperatorRole(address)": {
        "details": "The sender must have the admin role",
        "notice": "Grants the operator role to an address",
        "params": {
          "_address": "EOA or contract receiving the new role"
        }
      },
      "addSmartContractRole(address)": {
        "details": "The sender must have the admin role",
        "notice": "Grants the smart contract role to an address",
        "params": {
          "_address": "EOA or contract receiving the new role"
        }
      },
      "auctionEnded()": {
        "notice": "Checks if the auction has ended.",
        "returns": {
          "_0": "True if auction is successful or time has ended."
        }
      },
      "auctionSuccessful()": {
        "notice": "Successful if tokens sold equals totalTokens.",
        "returns": {
          "_0": "True if tokenPrice is bigger or equal clearingPrice."
        }
      },
      "auctionToken()": {
        "notice": "The token being sold."
      },
      "batch(bytes[],bool)": {
        "notice": "Allows batched call to self (this contract).",
        "params": {
          "calls": "An array of inputs for each call.",
          "revertOnFail": "If True then reverts after a failed call and stops doing further calls."
        },
        "returns": {
          "results": "An array with the returned data of each function call, mapped one-to-one to `calls`.",
          "successes": "An array indicating the success of a call, mapped one-to-one to `calls`."
        }
      },
      "calculateCommitment(uint256)": {
        "notice": "Calculates the amount able to be committed during an auction.",
        "params": {
          "_commitment": "Commitment user would like to make."
        },
        "returns": {
          "_0": "Amount allowed to commit."
        }
      },
      "cancelAuction()": {
        "details": "Admin can cancel the auction before it starts",
        "notice": "Cancel Auction"
      },
      "claimed(address)": {
        "notice": "Amount of tokens to claim per address."
      },
      "clearingPrice()": {
        "notice": "The current clearing price of the Hyperbolic auction"
      },
      "commitEth(address,bool)": {
        "notice": "Checks the amount of ETH to commit and adds the commitment. Refunds the buyer if commit is too high.",
        "params": {
          "_beneficiary": "Auction participant ETH address."
        }
      },
      "commitTokens(uint256,bool)": {
        "notice": "Buy Tokens by commiting approved ERC20 tokens to this contract address.",
        "params": {
          "_amount": "Amount of tokens to commit."
        }
      },
      "commitTokensFrom(address,uint256,bool)": {
        "details": "Users must approve contract prior to committing tokens to auction"
      },
      "commitments(address)": {
        "notice": "The commited amount of accounts."
      },
      "finalize()": {
        "details": "Transfer contract funds to initialized wallet.",
        "notice": "Auction finishes successfully above the reserve"
      },
      "finalizeTimeExpired()": {
        "returns": {
          "_0": "Returns true if 7 days have passed since the end of the auction"
        }
      },
      "finalized()": {
        "returns": {
          "_0": "Returns true if market has been finalized"
        }
      },
      "getAllDocuments()": {
        "notice": "Used to retrieve a full list of documents attached to the smart contract.",
        "returns": {
          "_0": "string List of all documents names present in the contract."
        }
      },
      "getAuctionInitData(address,address,uint256,uint256,uint256,address,uint256,uint256,address,address,address)": {
        "notice": "Collects data to initialize the auction and encodes them.",
        "params": {
          "_endTime": "Auction end time.",
          "_factor": "Inflection point of the auction.",
          "_funder": "The address that funds the token for HyperbolicAuction.",
          "_minimumPrice": "The minimum auction price.",
          "_paymentCurrency": "The currency the HyperbolicAuction accepts for payment. Can be ETH or token address.",
          "_startTime": "Auction start time.",
          "_token": "Address of the token being sold.",
          "_totalTokens": "The total number of tokens to sell in auction.",
          "_wallet": "Address where collected funds will be forwarded to."
        },
        "returns": {
          "_data": "All the data in bytes format."
        }
      },
      "getDocument(string)": {
        "notice": "Used to return the details of a document with a known name (`string`).",
        "params": {
          "_name": "Name of the document"
        },
        "returns": {
          "_0": "string The data associated with the document.",
          "_1": "uint256 the timestamp at which the document was last modified."
        }
      },
      "getDocumentCount()": {
        "notice": "Used to retrieve the total documents in the smart contract.",
        "returns": {
          "_0": "uint256 Count of the document names present in the contract."
        }
      },
      "getDocumentName(uint256)": {
        "notice": "Used to retrieve the document name from index in the smart contract.",
        "returns": {
          "_0": "string Name of the document name."
        }
      },
      "getRoleAdmin(bytes32)": {
        "details": "Returns the admin role that controls `role`. See {grantRole} and {revokeRole}. To change a role's admin, use {_setRoleAdmin}."
      },
      "getRoleMember(bytes32,uint256)": {
        "details": "Returns one of the accounts that have `role`. `index` must be a value between 0 and {getRoleMemberCount}, non-inclusive. Role bearers are not sorted in any particular way, and their ordering may change at any point. WARNING: When using {getRoleMember} and {getRoleMemberCount}, make sure you perform all queries on the same block. See the following https://forum.openzeppelin.com/t/iterating-over-elements-on-enumerableset-in-openzeppelin-contracts/2296[forum post] for more information."
      },
      "getRoleMemberCount(bytes32)": {
        "details": "Returns the number of accounts that have `role`. Can be used together with {getRoleMember} to enumerate all bearers of a role."
      },
      "grantRole(bytes32,address)": {
        "details": "Grants `role` to `account`. If `account` had not been already granted `role`, emits a {RoleGranted} event. Requirements: - the caller must have ``role``'s admin role."
      },
      "hasAdminRole(address)": {
        "notice": "Used to check whether an address has the admin role.",
        "params": {
          "_address": "EOA or contract being checked."
        },
        "returns": {
          "_0": "bool True if the account has the role or false if it does not."
        }
      },
      "hasMinterRole(address)": {
        "notice": "Used to check whether an address has the minter role",
        "params": {
          "_address": "EOA or contract being checked"
        },
        "returns": {
          "_0": "bool True if the account has the role or false if it does not"
        }
      },
      "hasOperatorRole(address)": {
        "notice": "Used to check whether an address has the operator role",
        "params": {
          "_address": "EOA or contract being checked"
        },
        "returns": {
          "_0": "bool True if the account has the role or false if it does not"
        }
      },
      "hasRole(bytes32,address)": {
        "details": "Returns `true` if `account` has been granted `role`."
      },
      "hasSmartContractRole(address)": {
        "notice": "Used to check whether an address has the smart contract role",
        "params": {
          "_address": "EOA or contract being checked"
        },
        "returns": {
          "_0": "bool True if the account has the role or false if it does not"
        }
      },
      "init(bytes)": {
        "notice": "-------------------------------------------------------- Market Launchers --------------------------------------------------------"
      },
      "initAccessControls(address)": {
        "notice": "Initializes access controls.",
        "params": {
          "_admin": "Admins address."
        }
      },
      "initAuction(address,address,uint256,uint256,uint256,address,uint256,uint256,address,address,address)": {
        "details": "Init function",
        "notice": "Initializes main contract variables and transfers funds for the auction.",
        "params": {
          "_admin": "Address that can finalize auction.",
          "_endTime": "Auction end time",
          "_factor": "Inflection point of the auction",
          "_funder": "The address that funds the token for HyperbolicAuction",
          "_minimumPrice": "The minimum auction price",
          "_paymentCurrency": "The currency the HyperbolicAuction accepts for payment. Can be ETH or token address",
          "_pointList": "Address that will manage auction approvals.",
          "_startTime": "Auction start time",
          "_token": "Address of the token being sold",
          "_totalTokens": "The total number of tokens to sell in auction",
          "_wallet": "Address where collected funds will be forwarded to"
        }
      },
      "initMarket(bytes)": {
        "notice": "Decodes and hands auction data to the initAuction function.",
        "params": {
          "_data": "Encoded data for initialization."
        }
      },
      "marketParticipationAgreement()": {
        "details": "Attribution to the awesome delta.financial contracts"
      },
      "paymentCurrency()": {
        "notice": "The currency the auction accepts for payment. Can be ETH or token address."
      },
      "permitToken(address,address,address,uint256,uint256,uint8,bytes32,bytes32)": {
        "notice": "Call wrapper that performs `ERC20.permit` on `token`. Lookup `IERC20.permit`."
      },
      "pointList()": {
        "notice": "Address that manages auction approvals."
      },
      "priceFunction()": {
        "notice": "Returns auction price in any time.",
        "returns": {
          "_0": "Fixed start price or minimum price if outside of auction time, otherwise calculated current price."
        }
      },
      "removeAdminRole(address)": {
        "details": "The sender must have the admin role.",
        "notice": "Removes the admin role from an address.",
        "params": {
          "_address": "EOA or contract affected."
        }
      },
      "removeMinterRole(address)": {
        "details": "The sender must have the admin role",
        "notice": "Removes the minter role from an address",
        "params": {
          "_address": "EOA or contract affected"
        }
      },
      "removeOperatorRole(address)": {
        "details": "The sender must have the admin role",
        "notice": "Removes the operator role from an address",
        "params": {
          "_address": "EOA or contract affected"
        }
      },
      "removeSmartContractRole(address)": {
        "details": "The sender must have the admin role",
        "notice": "Removes the smart contract role from an address",
        "params": {
          "_address": "EOA or contract affected"
        }
      },
      "renounceRole(bytes32,address)": {
        "details": "Revokes `role` from the calling account. Roles are often managed via {grantRole} and {revokeRole}: this function's purpose is to provide a mechanism for accounts to lose their privileges if they are compromised (such as when a trusted device is misplaced). If the calling account had been granted `role`, emits a {RoleRevoked} event. Requirements: - the caller must be `account`."
      },
      "revokeRole(bytes32,address)": {
        "details": "Revokes `role` from `account`. If `account` had been granted `role`, emits a {RoleRevoked} event. Requirements: - the caller must have ``role``'s admin role."
      },
      "setAuctionPrice(uint256)": {
        "notice": "Admin can set start and min price through this function.",
        "params": {
          "_minimumPrice": "Auction minimum price."
        }
      },
      "setAuctionTime(uint256,uint256)": {
        "notice": "Admin can set start and end time through this function.",
        "params": {
          "_endTime": "Auction end time.",
          "_startTime": "Auction start time."
        }
      },
      "setAuctionWallet(address)": {
        "notice": "Admin can set the auction wallet through this function.",
        "params": {
          "_wallet": "Auction wallet is where funds will be sent."
        }
      },
      "tokenPrice()": {
        "notice": "Calculates the average price of each token from all commitments.",
        "returns": {
          "_0": "Average token price."
        }
      },
      "tokensClaimable(address)": {
        "notice": "How many tokens the user is able to claim.",
        "params": {
          "_user": "Auction participant address."
        },
        "returns": {
          "claimerCommitment": "User commitments reduced by already claimed tokens."
        }
      },
      "totalTokensCommitted()": {
        "notice": "Calculates total amount of tokens committed at current auction price.",
        "returns": {
          "_0": "Number of tokens commited."
        }
      },
      "wallet()": {
        "notice": "Where the auction funds will get paid."
      },
      "withdrawTokens()": {
        "notice": "Withdraws bought tokens, or returns commitment if the sale is unsuccessful."
      },
      "withdrawTokens(address)": {
        "notice": "Withdraw your tokens once the Auction has ended."
      }
    },
    "notice": "Attribution to delta.financialAttribution to dutchswap.com",
    "stateVariables": {
      "ETH_ADDRESS": {
        "details": "The placeholder ETH address."
      },
      "marketTemplate": {
        "details": "For different marketplace types, this must be incremented."
      }
    },
    "version": 1
  },
  "opcodes": "PUSH1 0x80 PUSH1 0x40 MSTORE PUSH1 0x4 CALLDATASIZE LT PUSH2 0x41F JUMPI PUSH1 0x0 CALLDATALOAD PUSH1 0xE0 SHR DUP1 PUSH4 0x8A845FC0 GT PUSH2 0x21E JUMPI DUP1 PUSH4 0xC6B547E6 GT PUSH2 0x123 JUMPI DUP1 PUSH4 0xDCCFE310 GT PUSH2 0xAB JUMPI DUP1 PUSH4 0xE8FCF723 GT PUSH2 0x7A JUMPI DUP1 PUSH4 0xE8FCF723 EQ PUSH2 0xBFB JUMPI DUP1 PUSH4 0xF04899D3 EQ PUSH2 0xC1B JUMPI DUP1 PUSH4 0xF08B82E6 EQ PUSH2 0xC30 JUMPI DUP1 PUSH4 0xF5B541A6 EQ PUSH2 0xC45 JUMPI DUP1 PUSH4 0xFC4E3E0A EQ PUSH2 0xC5A JUMPI PUSH2 0x42E JUMP JUMPDEST DUP1 PUSH4 0xDCCFE310 EQ PUSH2 0xB77 JUMPI DUP1 PUSH4 0xDDE51F6D EQ PUSH2 0xB97 JUMPI DUP1 PUSH4 0xE0E081D7 EQ PUSH2 0xBB7 JUMPI DUP1 PUSH4 0xE6594ABD EQ PUSH2 0xBDB JUMPI PUSH2 0x42E JUMP JUMPDEST DUP1 PUSH4 0xD2423B51 GT PUSH2 0xF2 JUMPI DUP1 PUSH4 0xD2423B51 EQ PUSH2 0xAE1 JUMPI DUP1 PUSH4 0xD5391393 EQ PUSH2 0xB02 JUMPI DUP1 PUSH4 0xD547741F EQ PUSH2 0xB17 JUMPI DUP1 PUSH4 0xD69D3E62 EQ PUSH2 0xB37 JUMPI DUP1 PUSH4 0xDC97E082 EQ PUSH2 0xB57 JUMPI PUSH2 0x42E JUMP JUMPDEST DUP1 PUSH4 0xC6B547E6 EQ PUSH2 0xA61 JUMPI DUP1 PUSH4 0xC884EF83 EQ PUSH2 0xA81 JUMPI DUP1 PUSH4 0xC92BCE87 EQ PUSH2 0xAA1 JUMPI DUP1 PUSH4 0xCA15C873 EQ PUSH2 0xAC1 JUMPI PUSH2 0x42E JUMP JUMPDEST DUP1 PUSH4 0x9C64D0AE GT PUSH2 0x1A6 JUMPI DUP1 PUSH4 0xADBF3776 GT PUSH2 0x175 JUMPI DUP1 PUSH4 0xADBF3776 EQ PUSH2 0x9CC JUMPI DUP1 PUSH4 0xB1F16218 EQ PUSH2 0x9EC JUMPI DUP1 PUSH4 0xB3F05B97 EQ PUSH2 0xA0C JUMPI DUP1 PUSH4 0xB7928B1D EQ PUSH2 0xA21 JUMPI DUP1 PUSH4 0xC395FCB3 EQ PUSH2 0xA41 JUMPI PUSH2 0x42E JUMP JUMPDEST DUP1 PUSH4 0x9C64D0AE EQ PUSH2 0x960 JUMPI DUP1 PUSH4 0x9FA5F50B EQ PUSH2 0x980 JUMPI DUP1 PUSH4 0xA217FDDF EQ PUSH2 0x9A2 JUMPI DUP1 PUSH4 0xA9D87EE6 EQ PUSH2 0x9B7 JUMPI PUSH2 0x42E JUMP JUMPDEST DUP1 PUSH4 0x919E93B5 GT PUSH2 0x1ED JUMPI DUP1 PUSH4 0x919E93B5 EQ PUSH2 0x8D6 JUMPI DUP1 PUSH4 0x91D14854 EQ PUSH2 0x8EB JUMPI DUP1 PUSH4 0x9478941C EQ PUSH2 0x90B JUMPI DUP1 PUSH4 0x99FDB320 EQ PUSH2 0x92B JUMPI DUP1 PUSH4 0x9A87222C EQ PUSH2 0x940 JUMPI PUSH2 0x42E JUMP JUMPDEST DUP1 PUSH4 0x8A845FC0 EQ PUSH2 0x86C JUMPI DUP1 PUSH4 0x8D8F2ADB EQ PUSH2 0x88C JUMPI DUP1 PUSH4 0x8FA8B790 EQ PUSH2 0x8A1 JUMPI DUP1 PUSH4 0x9010D07C EQ PUSH2 0x8B6 JUMPI PUSH2 0x42E JUMP JUMPDEST DUP1 PUSH4 0x49DF728C GT PUSH2 0x324 JUMPI DUP1 PUSH4 0x73973FCB GT PUSH2 0x2AC JUMPI DUP1 PUSH4 0x7FF9B596 GT PUSH2 0x27B JUMPI DUP1 PUSH4 0x7FF9B596 EQ PUSH2 0x7ED JUMPI DUP1 PUSH4 0x81353C8E EQ PUSH2 0x802 JUMPI DUP1 PUSH4 0x84720F16 EQ PUSH2 0x822 JUMPI DUP1 PUSH4 0x857D2608 EQ PUSH2 0x842 JUMPI DUP1 PUSH4 0x86433374 EQ PUSH2 0x857 JUMPI PUSH2 0x42E JUMP JUMPDEST DUP1 PUSH4 0x73973FCB EQ PUSH2 0x75D JUMPI DUP1 PUSH4 0x74CF9FC5 EQ PUSH2 0x77D JUMPI DUP1 PUSH4 0x7C516E94 EQ PUSH2 0x79F JUMPI DUP1 PUSH4 0x7CCB6A64 EQ PUSH2 0x7BF JUMPI PUSH2 0x42E JUMP JUMPDEST DUP1 PUSH4 0x4DDF47D4 GT PUSH2 0x2F3 JUMPI DUP1 PUSH4 0x4DDF47D4 EQ PUSH2 0x6D5 JUMPI DUP1 PUSH4 0x521EB273 EQ PUSH2 0x6E8 JUMPI DUP1 PUSH4 0x54F1E126 EQ PUSH2 0x6FD JUMPI DUP1 PUSH4 0x6595171C EQ PUSH2 0x71D JUMPI DUP1 PUSH4 0x6AE260C1 EQ PUSH2 0x73D JUMPI PUSH2 0x42E JUMP JUMPDEST DUP1 PUSH4 0x49DF728C EQ PUSH2 0x660 JUMPI DUP1 PUSH4 0x4B3E6ABB EQ PUSH2 0x680 JUMPI DUP1 PUSH4 0x4BB278F3 EQ PUSH2 0x6A0 JUMPI DUP1 PUSH4 0x4DC80E15 EQ PUSH2 0x6B5 JUMPI PUSH2 0x42E JUMP JUMPDEST DUP1 PUSH4 0x314148E2 GT PUSH2 0x3A7 JUMPI DUP1 PUSH4 0x3B33FE73 GT PUSH2 0x376 JUMPI DUP1 PUSH4 0x3B33FE73 EQ PUSH2 0x5C6 JUMPI DUP1 PUSH4 0x3D15CC6D EQ PUSH2 0x5E6 JUMPI DUP1 PUSH4 0x3D1C2273 EQ PUSH2 0x608 JUMPI DUP1 PUSH4 0x3F16431A EQ PUSH2 0x61D JUMPI DUP1 PUSH4 0x45A15388 EQ PUSH2 0x63D JUMPI PUSH2 0x42E JUMP JUMPDEST DUP1 PUSH4 0x314148E2 EQ PUSH2 0x557 JUMPI DUP1 PUSH4 0x32A0F2D7 EQ PUSH2 0x57C JUMPI DUP1 PUSH4 0x36568ABE EQ PUSH2 0x591 JUMPI DUP1 PUSH4 0x36D0054B EQ PUSH2 0x5B1 JUMPI PUSH2 0x42E JUMP JUMPDEST DUP1 PUSH4 0x1B3E460E GT PUSH2 0x3EE JUMPI DUP1 PUSH4 0x1B3E460E EQ PUSH2 0x4C2 JUMPI DUP1 PUSH4 0x212F8A81 EQ PUSH2 0x4E4 JUMPI DUP1 PUSH4 0x248A9CA3 EQ PUSH2 0x504 JUMPI DUP1 PUSH4 0x29762960 EQ PUSH2 0x524 JUMPI DUP1 PUSH4 0x2F2FF15D EQ PUSH2 0x537 JUMPI PUSH2 0x42E JUMP JUMPDEST DUP1 PUSH4 0x31BEE00 EQ PUSH2 0x433 JUMPI DUP1 PUSH4 0x99DB017 EQ PUSH2 0x460 JUMPI DUP1 PUSH4 0x113B0AB2 EQ PUSH2 0x48D JUMPI DUP1 PUSH4 0x17026455 EQ PUSH2 0x4AD JUMPI PUSH2 0x42E JUMP JUMPDEST CALLDATASIZE PUSH2 0x42E JUMPI PUSH2 0x42C PUSH2 0xC7A JUMP JUMPDEST STOP JUMPDEST PUSH1 0x0 DUP1 REVERT JUMPDEST CALLVALUE DUP1 ISZERO PUSH2 0x43F JUMPI PUSH1 0x0 DUP1 REVERT JUMPDEST POP PUSH2 0x448 PUSH2 0xC9B JUMP JUMPDEST PUSH1 0x40 MLOAD PUSH2 0x457 SWAP4 SWAP3 SWAP2 SWAP1 PUSH2 0x4CA4 JUMP JUMPDEST PUSH1 0x40 MLOAD DUP1 SWAP2 SUB SWAP1 RETURN JUMPDEST CALLVALUE DUP1 ISZERO PUSH2 0x46C JUMPI PUSH1 0x0 DUP1 REVERT JUMPDEST POP PUSH2 0x480 PUSH2 0x47B CALLDATASIZE PUSH1 0x4 PUSH2 0x37AF JUMP JUMPDEST PUSH2 0xCC8 JUMP JUMPDEST PUSH1 0x40 MLOAD PUSH2 0x457 SWAP2 SWAP1 PUSH2 0x3F5C JUMP JUMPDEST CALLVALUE DUP1 ISZERO PUSH2 0x499 JUMPI PUSH1 0x0 DUP1 REVERT JUMPDEST POP PUSH2 0x480 PUSH2 0x4A8 CALLDATASIZE PUSH1 0x4 PUSH2 0x37AF JUMP JUMPDEST PUSH2 0xCEA JUMP JUMPDEST CALLVALUE DUP1 ISZERO PUSH2 0x4B9 JUMPI PUSH1 0x0 DUP1 REVERT JUMPDEST POP PUSH2 0x480 PUSH2 0xD04 JUMP JUMPDEST CALLVALUE DUP1 ISZERO PUSH2 0x4CE JUMPI PUSH1 0x0 DUP1 REVERT JUMPDEST POP PUSH2 0x4D7 PUSH2 0xD23 JUMP JUMPDEST PUSH1 0x40 MLOAD PUSH2 0x457 SWAP2 SWAP1 PUSH2 0x3F67 JUMP JUMPDEST CALLVALUE DUP1 ISZERO PUSH2 0x4F0 JUMPI PUSH1 0x0 DUP1 REVERT JUMPDEST POP PUSH2 0x42C PUSH2 0x4FF CALLDATASIZE PUSH1 0x4 PUSH2 0x38E1 JUMP JUMPDEST PUSH2 0xD28 JUMP JUMPDEST CALLVALUE DUP1 ISZERO PUSH2 0x510 JUMPI PUSH1 0x0 DUP1 REVERT JUMPDEST POP PUSH2 0x4D7 PUSH2 0x51F CALLDATASIZE PUSH1 0x4 PUSH2 0x3A0B JUMP JUMPDEST PUSH2 0xDDB JUMP JUMPDEST PUSH2 0x42C PUSH2 0x532 CALLDATASIZE PUSH1 0x4 PUSH2 0x3888 JUMP JUMPDEST PUSH2 0xDF0 JUMP JUMPDEST CALLVALUE DUP1 ISZERO PUSH2 0x543 JUMPI PUSH1 0x0 DUP1 REVERT JUMPDEST POP PUSH2 0x42C PUSH2 0x552 CALLDATASIZE PUSH1 0x4 PUSH2 0x3A23 JUMP JUMPDEST PUSH2 0xEF7 JUMP JUMPDEST CALLVALUE DUP1 ISZERO PUSH2 0x563 JUMPI PUSH1 0x0 DUP1 REVERT JUMPDEST POP PUSH2 0x56C PUSH2 0xF3F JUMP JUMPDEST PUSH1 0x40 MLOAD PUSH2 0x457 SWAP5 SWAP4 SWAP3 SWAP2 SWAP1 PUSH2 0x3E30 JUMP JUMPDEST CALLVALUE DUP1 ISZERO PUSH2 0x588 JUMPI PUSH1 0x0 DUP1 REVERT JUMPDEST POP PUSH2 0x4D7 PUSH2 0xF77 JUMP JUMPDEST CALLVALUE DUP1 ISZERO PUSH2 0x59D JUMPI PUSH1 0x0 DUP1 REVERT JUMPDEST POP PUSH2 0x42C PUSH2 0x5AC CALLDATASIZE PUSH1 0x4 PUSH2 0x3A23 JUMP JUMPDEST PUSH2 0xFAB JUMP JUMPDEST CALLVALUE DUP1 ISZERO PUSH2 0x5BD JUMPI PUSH1 0x0 DUP1 REVERT JUMPDEST POP PUSH2 0x480 PUSH2 0xFED JUMP JUMPDEST CALLVALUE DUP1 ISZERO PUSH2 0x5D2 JUMPI PUSH1 0x0 DUP1 REVERT JUMPDEST POP PUSH2 0x42C PUSH2 0x5E1 CALLDATASIZE PUSH1 0x4 PUSH2 0x3A0B JUMP JUMPDEST PUSH2 0x1006 JUMP JUMPDEST CALLVALUE DUP1 ISZERO PUSH2 0x5F2 JUMPI PUSH1 0x0 DUP1 REVERT JUMPDEST POP PUSH2 0x5FB PUSH2 0x111A JUMP JUMPDEST PUSH1 0x40 MLOAD PUSH2 0x457 SWAP2 SWAP1 PUSH2 0x3D3F JUMP JUMPDEST CALLVALUE DUP1 ISZERO PUSH2 0x614 JUMPI PUSH1 0x0 DUP1 REVERT JUMPDEST POP PUSH2 0x4D7 PUSH2 0x1129 JUMP JUMPDEST CALLVALUE DUP1 ISZERO PUSH2 0x629 JUMPI PUSH1 0x0 DUP1 REVERT JUMPDEST POP PUSH2 0x42C PUSH2 0x638 CALLDATASIZE PUSH1 0x4 PUSH2 0x37AF JUMP JUMPDEST PUSH2 0x112F JUMP JUMPDEST CALLVALUE DUP1 ISZERO PUSH2 0x649 JUMPI PUSH1 0x0 DUP1 REVERT JUMPDEST POP PUSH2 0x652 PUSH2 0x1191 JUMP JUMPDEST PUSH1 0x40 MLOAD PUSH2 0x457 SWAP3 SWAP2 SWAP1 PUSH2 0x4C7C JUMP JUMPDEST CALLVALUE DUP1 ISZERO PUSH2 0x66C JUMPI PUSH1 0x0 DUP1 REVERT JUMPDEST POP PUSH2 0x42C PUSH2 0x67B CALLDATASIZE PUSH1 0x4 PUSH2 0x37AF JUMP JUMPDEST PUSH2 0x11AB JUMP JUMPDEST CALLVALUE DUP1 ISZERO PUSH2 0x68C JUMPI PUSH1 0x0 DUP1 REVERT JUMPDEST POP PUSH2 0x42C PUSH2 0x69B CALLDATASIZE PUSH1 0x4 PUSH2 0x39D3 JUMP JUMPDEST PUSH2 0x12F5 JUMP JUMPDEST CALLVALUE DUP1 ISZERO PUSH2 0x6AC JUMPI PUSH1 0x0 DUP1 REVERT JUMPDEST POP PUSH2 0x42C PUSH2 0x1325 JUMP JUMPDEST CALLVALUE DUP1 ISZERO PUSH2 0x6C1 JUMPI PUSH1 0x0 DUP1 REVERT JUMPDEST POP PUSH2 0x4D7 PUSH2 0x6D0 CALLDATASIZE PUSH1 0x4 PUSH2 0x37AF JUMP JUMPDEST PUSH2 0x14DD JUMP JUMPDEST PUSH2 0x42C PUSH2 0x6E3 CALLDATASIZE PUSH1 0x4 PUSH2 0x3A68 JUMP JUMPDEST PUSH2 0xF3B JUMP JUMPDEST CALLVALUE DUP1 ISZERO PUSH2 0x6F4 JUMPI PUSH1 0x0 DUP1 REVERT JUMPDEST POP PUSH2 0x5FB PUSH2 0x1607 JUMP JUMPDEST CALLVALUE DUP1 ISZERO PUSH2 0x709 JUMPI PUSH1 0x0 DUP1 REVERT JUMPDEST POP PUSH2 0x42C PUSH2 0x718 CALLDATASIZE PUSH1 0x4 PUSH2 0x37AF JUMP JUMPDEST PUSH2 0x1616 JUMP JUMPDEST CALLVALUE DUP1 ISZERO PUSH2 0x729 JUMPI PUSH1 0x0 DUP1 REVERT JUMPDEST POP PUSH2 0x42C PUSH2 0x738 CALLDATASIZE PUSH1 0x4 PUSH2 0x37AF JUMP JUMPDEST PUSH2 0x1678 JUMP JUMPDEST CALLVALUE DUP1 ISZERO PUSH2 0x749 JUMPI PUSH1 0x0 DUP1 REVERT JUMPDEST POP PUSH2 0x42C PUSH2 0x758 CALLDATASIZE PUSH1 0x4 PUSH2 0x3A47 JUMP JUMPDEST PUSH2 0x16CD JUMP JUMPDEST CALLVALUE DUP1 ISZERO PUSH2 0x769 JUMPI PUSH1 0x0 DUP1 REVERT JUMPDEST POP PUSH2 0x4D7 PUSH2 0x778 CALLDATASIZE PUSH1 0x4 PUSH2 0x3A0B JUMP JUMPDEST PUSH2 0x187C JUMP JUMPDEST CALLVALUE DUP1 ISZERO PUSH2 0x789 JUMPI PUSH1 0x0 DUP1 REVERT JUMPDEST POP PUSH2 0x792 PUSH2 0x18F6 JUMP JUMPDEST PUSH1 0x40 MLOAD PUSH2 0x457 SWAP2 SWAP1 PUSH2 0x3F70 JUMP JUMPDEST CALLVALUE DUP1 ISZERO PUSH2 0x7AB JUMPI PUSH1 0x0 DUP1 REVERT JUMPDEST POP PUSH2 0x42C PUSH2 0x7BA CALLDATASIZE PUSH1 0x4 PUSH2 0x3AA7 JUMP JUMPDEST PUSH2 0x1919 JUMP JUMPDEST CALLVALUE DUP1 ISZERO PUSH2 0x7CB JUMPI PUSH1 0x0 DUP1 REVERT JUMPDEST POP PUSH2 0x7DF PUSH2 0x7DA CALLDATASIZE PUSH1 0x4 PUSH2 0x3A68 JUMP JUMPDEST PUSH2 0x198D JUMP JUMPDEST PUSH1 0x40 MLOAD PUSH2 0x457 SWAP3 SWAP2 SWAP1 PUSH2 0x3FB2 JUMP JUMPDEST CALLVALUE DUP1 ISZERO PUSH2 0x7F9 JUMPI PUSH1 0x0 DUP1 REVERT JUMPDEST POP PUSH2 0x4D7 PUSH2 0x1A7A JUMP JUMPDEST CALLVALUE DUP1 ISZERO PUSH2 0x80E JUMPI PUSH1 0x0 DUP1 REVERT JUMPDEST POP PUSH2 0x42C PUSH2 0x81D CALLDATASIZE PUSH1 0x4 PUSH2 0x3A68 JUMP JUMPDEST PUSH2 0x1AAD JUMP JUMPDEST CALLVALUE DUP1 ISZERO PUSH2 0x82E JUMPI PUSH1 0x0 DUP1 REVERT JUMPDEST POP PUSH2 0x792 PUSH2 0x83D CALLDATASIZE PUSH1 0x4 PUSH2 0x38C0 JUMP JUMPDEST PUSH2 0x1AFD JUMP JUMPDEST CALLVALUE DUP1 ISZERO PUSH2 0x84E JUMPI PUSH1 0x0 DUP1 REVERT JUMPDEST POP PUSH2 0x4D7 PUSH2 0x1B44 JUMP JUMPDEST CALLVALUE DUP1 ISZERO PUSH2 0x863 JUMPI PUSH1 0x0 DUP1 REVERT JUMPDEST POP PUSH2 0x480 PUSH2 0x1B56 JUMP JUMPDEST CALLVALUE DUP1 ISZERO PUSH2 0x878 JUMPI PUSH1 0x0 DUP1 REVERT JUMPDEST POP PUSH2 0x42C PUSH2 0x887 CALLDATASIZE PUSH1 0x4 PUSH2 0x37AF JUMP JUMPDEST PUSH2 0x1B7F JUMP JUMPDEST CALLVALUE DUP1 ISZERO PUSH2 0x898 JUMPI PUSH1 0x0 DUP1 REVERT JUMPDEST POP PUSH2 0x42C PUSH2 0x1BE1 JUMP JUMPDEST CALLVALUE DUP1 ISZERO PUSH2 0x8AD JUMPI PUSH1 0x0 DUP1 REVERT JUMPDEST POP PUSH2 0x42C PUSH2 0x1BEC JUMP JUMPDEST CALLVALUE DUP1 ISZERO PUSH2 0x8C2 JUMPI PUSH1 0x0 DUP1 REVERT JUMPDEST POP PUSH2 0x5FB PUSH2 0x8D1 CALLDATASIZE PUSH1 0x4 PUSH2 0x3A47 JUMP JUMPDEST PUSH2 0x1CEB JUMP JUMPDEST CALLVALUE DUP1 ISZERO PUSH2 0x8E2 JUMPI PUSH1 0x0 DUP1 REVERT JUMPDEST POP PUSH2 0x4D7 PUSH2 0x1D0C JUMP JUMPDEST CALLVALUE DUP1 ISZERO PUSH2 0x8F7 JUMPI PUSH1 0x0 DUP1 REVERT JUMPDEST POP PUSH2 0x480 PUSH2 0x906 CALLDATASIZE PUSH1 0x4 PUSH2 0x3A23 JUMP JUMPDEST PUSH2 0x1D37 JUMP JUMPDEST CALLVALUE DUP1 ISZERO PUSH2 0x917 JUMPI PUSH1 0x0 DUP1 REVERT JUMPDEST POP PUSH2 0x42C PUSH2 0x926 CALLDATASIZE PUSH1 0x4 PUSH2 0x37AF JUMP JUMPDEST PUSH2 0x1D4F JUMP JUMPDEST CALLVALUE DUP1 ISZERO PUSH2 0x937 JUMPI PUSH1 0x0 DUP1 REVERT JUMPDEST POP PUSH2 0x5FB PUSH2 0x1DB1 JUMP JUMPDEST CALLVALUE DUP1 ISZERO PUSH2 0x94C JUMPI PUSH1 0x0 DUP1 REVERT JUMPDEST POP PUSH2 0x42C PUSH2 0x95B CALLDATASIZE PUSH1 0x4 PUSH2 0x37AF JUMP JUMPDEST PUSH2 0x1DC0 JUMP JUMPDEST CALLVALUE DUP1 ISZERO PUSH2 0x96C JUMPI PUSH1 0x0 DUP1 REVERT JUMPDEST POP PUSH2 0x42C PUSH2 0x97B CALLDATASIZE PUSH1 0x4 PUSH2 0x3B29 JUMP JUMPDEST PUSH2 0x1E4E JUMP JUMPDEST CALLVALUE DUP1 ISZERO PUSH2 0x98C JUMPI PUSH1 0x0 DUP1 REVERT JUMPDEST POP PUSH2 0x995 PUSH2 0x1E6C JUMP JUMPDEST PUSH1 0x40 MLOAD PUSH2 0x457 SWAP2 SWAP1 PUSH2 0x3EFC JUMP JUMPDEST CALLVALUE DUP1 ISZERO PUSH2 0x9AE JUMPI PUSH1 0x0 DUP1 REVERT JUMPDEST POP PUSH2 0x4D7 PUSH2 0x1F44 JUMP JUMPDEST CALLVALUE DUP1 ISZERO PUSH2 0x9C3 JUMPI PUSH1 0x0 DUP1 REVERT JUMPDEST POP PUSH2 0x4D7 PUSH2 0x1F49 JUMP JUMPDEST CALLVALUE DUP1 ISZERO PUSH2 0x9D8 JUMPI PUSH1 0x0 DUP1 REVERT JUMPDEST POP PUSH2 0x42C PUSH2 0x9E7 CALLDATASIZE PUSH1 0x4 PUSH2 0x37AF JUMP JUMPDEST PUSH2 0x1F9A JUMP JUMPDEST CALLVALUE DUP1 ISZERO PUSH2 0x9F8 JUMPI PUSH1 0x0 DUP1 REVERT JUMPDEST POP PUSH2 0x42C PUSH2 0xA07 CALLDATASIZE PUSH1 0x4 PUSH2 0x38C0 JUMP JUMPDEST PUSH2 0x1FFC JUMP JUMPDEST CALLVALUE DUP1 ISZERO PUSH2 0xA18 JUMPI PUSH1 0x0 DUP1 REVERT JUMPDEST POP PUSH2 0x480 PUSH2 0x239B JUMP JUMPDEST CALLVALUE DUP1 ISZERO PUSH2 0xA2D JUMPI PUSH1 0x0 DUP1 REVERT JUMPDEST POP PUSH2 0x42C PUSH2 0xA3C CALLDATASIZE PUSH1 0x4 PUSH2 0x37AF JUMP JUMPDEST PUSH2 0x23AB JUMP JUMPDEST CALLVALUE DUP1 ISZERO PUSH2 0xA4D JUMPI PUSH1 0x0 DUP1 REVERT JUMPDEST POP PUSH2 0x480 PUSH2 0xA5C CALLDATASIZE PUSH1 0x4 PUSH2 0x37AF JUMP JUMPDEST PUSH2 0x240D JUMP JUMPDEST CALLVALUE DUP1 ISZERO PUSH2 0xA6D JUMPI PUSH1 0x0 DUP1 REVERT JUMPDEST POP PUSH2 0x792 PUSH2 0xA7C CALLDATASIZE PUSH1 0x4 PUSH2 0x3A0B JUMP JUMPDEST PUSH2 0x2419 JUMP JUMPDEST CALLVALUE DUP1 ISZERO PUSH2 0xA8D JUMPI PUSH1 0x0 DUP1 REVERT JUMPDEST POP PUSH2 0x4D7 PUSH2 0xA9C CALLDATASIZE PUSH1 0x4 PUSH2 0x37AF JUMP JUMPDEST PUSH2 0x24E4 JUMP JUMPDEST CALLVALUE DUP1 ISZERO PUSH2 0xAAD JUMPI PUSH1 0x0 DUP1 REVERT JUMPDEST POP PUSH2 0x42C PUSH2 0xABC CALLDATASIZE PUSH1 0x4 PUSH2 0x396B JUMP JUMPDEST PUSH2 0x24F6 JUMP JUMPDEST CALLVALUE DUP1 ISZERO PUSH2 0xACD JUMPI PUSH1 0x0 DUP1 REVERT JUMPDEST POP PUSH2 0x4D7 PUSH2 0xADC CALLDATASIZE PUSH1 0x4 PUSH2 0x3A0B JUMP JUMPDEST PUSH2 0x2568 JUMP JUMPDEST PUSH2 0xAF4 PUSH2 0xAEF CALLDATASIZE PUSH1 0x4 PUSH2 0x3922 JUMP JUMPDEST PUSH2 0x257F JUMP JUMPDEST PUSH1 0x40 MLOAD PUSH2 0x457 SWAP3 SWAP2 SWAP1 PUSH2 0x3E62 JUMP JUMPDEST CALLVALUE DUP1 ISZERO PUSH2 0xB0E JUMPI PUSH1 0x0 DUP1 REVERT JUMPDEST POP PUSH2 0x4D7 PUSH2 0x270F JUMP JUMPDEST CALLVALUE DUP1 ISZERO PUSH2 0xB23 JUMPI PUSH1 0x0 DUP1 REVERT JUMPDEST POP PUSH2 0x42C PUSH2 0xB32 CALLDATASIZE PUSH1 0x4 PUSH2 0x3A23 JUMP JUMPDEST PUSH2 0x2721 JUMP JUMPDEST CALLVALUE DUP1 ISZERO PUSH2 0xB43 JUMPI PUSH1 0x0 DUP1 REVERT JUMPDEST POP PUSH2 0x42C PUSH2 0xB52 CALLDATASIZE PUSH1 0x4 PUSH2 0x37AF JUMP JUMPDEST PUSH2 0x275B JUMP JUMPDEST CALLVALUE DUP1 ISZERO PUSH2 0xB63 JUMPI PUSH1 0x0 DUP1 REVERT JUMPDEST POP PUSH2 0x42C PUSH2 0xB72 CALLDATASIZE PUSH1 0x4 PUSH2 0x3C37 JUMP JUMPDEST PUSH2 0x2779 JUMP JUMPDEST CALLVALUE DUP1 ISZERO PUSH2 0xB83 JUMPI PUSH1 0x0 DUP1 REVERT JUMPDEST POP PUSH2 0x42C PUSH2 0xB92 CALLDATASIZE PUSH1 0x4 PUSH2 0x37AF JUMP JUMPDEST PUSH2 0x2784 JUMP JUMPDEST CALLVALUE DUP1 ISZERO PUSH2 0xBA3 JUMPI PUSH1 0x0 DUP1 REVERT JUMPDEST POP PUSH2 0x42C PUSH2 0xBB2 CALLDATASIZE PUSH1 0x4 PUSH2 0x3A68 JUMP JUMPDEST PUSH2 0x27D9 JUMP JUMPDEST CALLVALUE DUP1 ISZERO PUSH2 0xBC3 JUMPI PUSH1 0x0 DUP1 REVERT JUMPDEST POP PUSH2 0xBCC PUSH2 0x27F5 JUMP JUMPDEST PUSH1 0x40 MLOAD PUSH2 0x457 SWAP4 SWAP3 SWAP2 SWAP1 PUSH2 0x4C59 JUMP JUMPDEST CALLVALUE DUP1 ISZERO PUSH2 0xBE7 JUMPI PUSH1 0x0 DUP1 REVERT JUMPDEST POP PUSH2 0x42C PUSH2 0xBF6 CALLDATASIZE PUSH1 0x4 PUSH2 0x37AF JUMP JUMPDEST PUSH2 0x281A JUMP JUMPDEST CALLVALUE DUP1 ISZERO PUSH2 0xC07 JUMPI PUSH1 0x0 DUP1 REVERT JUMPDEST POP PUSH2 0x4D7 PUSH2 0xC16 CALLDATASIZE PUSH1 0x4 PUSH2 0x37AF JUMP JUMPDEST PUSH2 0x287D JUMP JUMPDEST CALLVALUE DUP1 ISZERO PUSH2 0xC27 JUMPI PUSH1 0x0 DUP1 REVERT JUMPDEST POP PUSH2 0x5FB PUSH2 0x288F JUMP JUMPDEST CALLVALUE DUP1 ISZERO PUSH2 0xC3C JUMPI PUSH1 0x0 DUP1 REVERT JUMPDEST POP PUSH2 0x4D7 PUSH2 0x289E JUMP JUMPDEST CALLVALUE DUP1 ISZERO PUSH2 0xC51 JUMPI PUSH1 0x0 DUP1 REVERT JUMPDEST POP PUSH2 0x4D7 PUSH2 0x28B4 JUMP JUMPDEST CALLVALUE DUP1 ISZERO PUSH2 0xC66 JUMPI PUSH1 0x0 DUP1 REVERT JUMPDEST POP PUSH2 0x480 PUSH2 0xC75 CALLDATASIZE PUSH1 0x4 PUSH2 0x37AF JUMP JUMPDEST PUSH2 0x28C6 JUMP JUMPDEST PUSH1 0x40 MLOAD PUSH3 0x461BCD PUSH1 0xE5 SHL DUP2 MSTORE PUSH1 0x4 ADD PUSH2 0xC92 SWAP1 PUSH2 0x4312 JUMP JUMPDEST PUSH1 0x40 MLOAD DUP1 SWAP2 SUB SWAP1 REVERT JUMPDEST PUSH1 0x6 SLOAD PUSH1 0x1 PUSH1 0x1 PUSH1 0x40 SHL SUB DUP1 DUP3 AND SWAP2 PUSH1 0x1 PUSH1 0x40 SHL DUP2 DIV SWAP1 SWAP2 AND SWAP1 PUSH1 0x1 PUSH1 0x80 SHL SWAP1 DIV PUSH1 0x1 PUSH1 0x1 PUSH1 0x80 SHL SUB AND DUP4 JUMP JUMPDEST PUSH1 0x0 PUSH2 0xCE2 PUSH1 0x0 DUP1 MLOAD PUSH1 0x20 PUSH2 0x4F0F DUP4 CODECOPY DUP2 MLOAD SWAP2 MSTORE DUP4 PUSH2 0x1D37 JUMP JUMPDEST SWAP1 POP JUMPDEST SWAP2 SWAP1 POP JUMP JUMPDEST PUSH1 0x0 PUSH2 0xCE2 PUSH1 0x0 DUP1 MLOAD PUSH1 0x20 PUSH2 0x4D7F DUP4 CODECOPY DUP2 MLOAD SWAP2 MSTORE DUP4 PUSH2 0x1D37 JUMP JUMPDEST PUSH1 0x6 SLOAD TIMESTAMP PUSH1 0x1 PUSH1 0x40 SHL SWAP1 SWAP2 DIV PUSH1 0x1 PUSH1 0x1 PUSH1 0x40 SHL SUB AND PUSH3 0x93A80 ADD LT JUMPDEST SWAP1 JUMP JUMPDEST PUSH1 0x4 DUP2 JUMP JUMPDEST PUSH1 0x2 PUSH1 0x5 SLOAD EQ ISZERO PUSH2 0xD4B JUMPI PUSH1 0x40 MLOAD PUSH3 0x461BCD PUSH1 0xE5 SHL DUP2 MSTORE PUSH1 0x4 ADD PUSH2 0xC92 SWAP1 PUSH2 0x4B6E JUMP JUMPDEST PUSH1 0x2 PUSH1 0x5 SSTORE PUSH1 0xA SLOAD PUSH1 0x1 PUSH1 0x1 PUSH1 0xA0 SHL SUB AND PUSH20 0xEEEEEEEEEEEEEEEEEEEEEEEEEEEEEEEEEEEEEEEE EQ ISZERO PUSH2 0xD8F JUMPI PUSH1 0x40 MLOAD PUSH3 0x461BCD PUSH1 0xE5 SHL DUP2 MSTORE PUSH1 0x4 ADD PUSH2 0xC92 SWAP1 PUSH2 0x45C9 JUMP JUMPDEST DUP1 PUSH2 0xD9C JUMPI PUSH2 0xD9C PUSH2 0xC7A JUMP JUMPDEST PUSH1 0x0 PUSH2 0xDA7 DUP4 PUSH2 0x187C JUMP JUMPDEST SWAP1 POP DUP1 ISZERO PUSH2 0xDD0 JUMPI PUSH1 0xA SLOAD PUSH2 0xDC6 SWAP1 PUSH1 0x1 PUSH1 0x1 PUSH1 0xA0 SHL SUB AND CALLER DUP4 PUSH2 0x28E0 JUMP JUMPDEST PUSH2 0xDD0 DUP5 DUP3 PUSH2 0x29BD JUMP JUMPDEST POP POP PUSH1 0x1 PUSH1 0x5 SSTORE POP POP JUMP JUMPDEST PUSH1 0x0 SWAP1 DUP2 MSTORE PUSH1 0x20 DUP2 SWAP1 MSTORE PUSH1 0x40 SWAP1 KECCAK256 PUSH1 0x2 ADD SLOAD SWAP1 JUMP JUMPDEST PUSH1 0xA SLOAD PUSH1 0x1 PUSH1 0x1 PUSH1 0xA0 SHL SUB AND PUSH20 0xEEEEEEEEEEEEEEEEEEEEEEEEEEEEEEEEEEEEEEEE EQ PUSH2 0xE2E JUMPI PUSH1 0x40 MLOAD PUSH3 0x461BCD PUSH1 0xE5 SHL DUP2 MSTORE PUSH1 0x4 ADD PUSH2 0xC92 SWAP1 PUSH2 0x4493 JUMP JUMPDEST DUP1 PUSH2 0xE3B JUMPI PUSH2 0xE3B PUSH2 0xC7A JUMP JUMPDEST PUSH1 0x0 CALLVALUE GT PUSH2 0xE5B JUMPI PUSH1 0x40 MLOAD PUSH3 0x461BCD PUSH1 0xE5 SHL DUP2 MSTORE PUSH1 0x4 ADD PUSH2 0xC92 SWAP1 PUSH2 0x41F8 JUMP JUMPDEST PUSH1 0x0 PUSH2 0xE66 CALLVALUE PUSH2 0x187C JUMP JUMPDEST SWAP1 POP PUSH1 0x0 PUSH2 0xE74 CALLVALUE DUP4 PUSH2 0x2B79 JUMP JUMPDEST SWAP1 POP DUP2 ISZERO PUSH2 0xE86 JUMPI PUSH2 0xE86 DUP5 DUP4 PUSH2 0x29BD JUMP JUMPDEST DUP1 ISZERO PUSH2 0xEC4 JUMPI PUSH1 0x40 MLOAD PUSH1 0x1 PUSH1 0x1 PUSH1 0xA0 SHL SUB DUP6 AND SWAP1 DUP3 ISZERO PUSH2 0x8FC MUL SWAP1 DUP4 SWAP1 PUSH1 0x0 DUP2 DUP2 DUP2 DUP6 DUP9 DUP9 CALL SWAP4 POP POP POP POP ISZERO DUP1 ISZERO PUSH2 0xEC2 JUMPI RETURNDATASIZE PUSH1 0x0 DUP1 RETURNDATACOPY RETURNDATASIZE PUSH1 0x0 REVERT JUMPDEST POP JUMPDEST PUSH1 0x8 SLOAD SELFBALANCE PUSH1 0x1 PUSH1 0x1 PUSH1 0x80 SHL SUB SWAP1 SWAP2 AND GT ISZERO PUSH2 0xEF1 JUMPI PUSH1 0x40 MLOAD PUSH3 0x461BCD PUSH1 0xE5 SHL DUP2 MSTORE PUSH1 0x4 ADD PUSH2 0xC92 SWAP1 PUSH2 0x438A JUMP JUMPDEST POP POP POP POP JUMP JUMPDEST PUSH1 0x0 DUP3 DUP2 MSTORE PUSH1 0x20 DUP2 SWAP1 MSTORE PUSH1 0x40 SWAP1 KECCAK256 PUSH1 0x2 ADD SLOAD PUSH2 0xF15 SWAP1 PUSH2 0x906 PUSH2 0x2B9C JUMP JUMPDEST PUSH2 0xF31 JUMPI PUSH1 0x40 MLOAD PUSH3 0x461BCD PUSH1 0xE5 SHL DUP2 MSTORE PUSH1 0x4 ADD PUSH2 0xC92 SWAP1 PUSH2 0x41A9 JUMP JUMPDEST PUSH2 0xF3B DUP3 DUP3 PUSH2 0x2BA0 JUMP JUMPDEST POP POP JUMP JUMPDEST PUSH1 0x9 SLOAD PUSH1 0x6 SLOAD PUSH1 0x8 SLOAD PUSH1 0x1 PUSH1 0x1 PUSH1 0xA0 SHL SUB SWAP1 SWAP3 AND SWAP3 PUSH1 0x1 PUSH1 0x1 PUSH1 0x40 SHL SUB DUP1 DUP4 AND SWAP4 PUSH1 0x1 PUSH1 0x40 SHL SWAP1 SWAP4 DIV AND SWAP2 PUSH1 0x1 PUSH1 0x80 SHL SWAP1 DIV PUSH1 0xFF AND SWAP1 JUMP JUMPDEST PUSH1 0x0 PUSH2 0xF81 PUSH2 0x1F49 JUMP JUMPDEST PUSH2 0xF89 PUSH2 0x1A7A JUMP JUMPDEST GT ISZERO PUSH2 0xF9E JUMPI PUSH2 0xF97 PUSH2 0x1A7A JUMP JUMPDEST SWAP1 POP PUSH2 0xD20 JUMP JUMPDEST PUSH2 0xFA6 PUSH2 0x1F49 JUMP JUMPDEST SWAP1 POP SWAP1 JUMP JUMPDEST PUSH2 0xFB3 PUSH2 0x2B9C JUMP JUMPDEST PUSH1 0x1 PUSH1 0x1 PUSH1 0xA0 SHL SUB AND DUP2 PUSH1 0x1 PUSH1 0x1 PUSH1 0xA0 SHL SUB AND EQ PUSH2 0xFE3 JUMPI PUSH1 0x40 MLOAD PUSH3 0x461BCD PUSH1 0xE5 SHL DUP2 MSTORE PUSH1 0x4 ADD PUSH2 0xC92 SWAP1 PUSH2 0x4BDC JUMP JUMPDEST PUSH2 0xF3B DUP3 DUP3 PUSH2 0x2C09 JUMP JUMPDEST PUSH1 0x0 PUSH2 0xFF7 PUSH2 0xF77 JUMP JUMPDEST PUSH2 0xFFF PUSH2 0x1A7A JUMP JUMPDEST LT ISZERO SWAP1 POP SWAP1 JUMP JUMPDEST PUSH2 0x100F CALLER PUSH2 0x240D JUMP JUMPDEST PUSH2 0x1018 JUMPI PUSH1 0x0 DUP1 REVERT JUMPDEST PUSH1 0x0 DUP2 GT PUSH2 0x1038 JUMPI PUSH1 0x40 MLOAD PUSH3 0x461BCD PUSH1 0xE5 SHL DUP2 MSTORE PUSH1 0x4 ADD PUSH2 0xC92 SWAP1 PUSH2 0x4A14 JUMP JUMPDEST PUSH1 0x8 SLOAD PUSH1 0x1 PUSH1 0x1 PUSH1 0x80 SHL SUB AND ISZERO PUSH2 0x1061 JUMPI PUSH1 0x40 MLOAD PUSH3 0x461BCD PUSH1 0xE5 SHL DUP2 MSTORE PUSH1 0x4 ADD PUSH2 0xC92 SWAP1 PUSH2 0x4A71 JUMP JUMPDEST PUSH2 0x106A DUP2 PUSH2 0x2C72 JUMP JUMPDEST PUSH1 0x7 DUP1 SLOAD PUSH1 0x1 PUSH1 0x1 PUSH1 0x80 SHL SUB NOT AND PUSH1 0x1 PUSH1 0x1 PUSH1 0x80 SHL SUB SWAP3 DUP4 AND OR SWAP1 DUP2 SWAP1 SSTORE PUSH1 0x6 SLOAD PUSH1 0x1 PUSH1 0x1 PUSH1 0x40 SHL SUB DUP1 DUP3 AND PUSH1 0x1 PUSH1 0x40 SHL SWAP1 SWAP3 DIV DUP2 AND SWAP2 SWAP1 SWAP2 SUB SWAP3 PUSH1 0x0 SWAP3 PUSH2 0x10B5 SWAP3 DUP6 AND SWAP2 AND PUSH2 0x2C9F JUMP JUMPDEST SWAP1 POP PUSH2 0x10C0 DUP2 PUSH2 0x2C72 JUMP JUMPDEST PUSH1 0x7 DUP1 SLOAD PUSH1 0x1 PUSH1 0x1 PUSH1 0x80 SHL SUB SWAP3 DUP4 AND PUSH1 0x1 PUSH1 0x80 SHL MUL SWAP3 AND SWAP2 SWAP1 SWAP2 OR SWAP1 SSTORE PUSH1 0x40 MLOAD PUSH32 0x1FD3F6B4312B53D1521FB9DAB5AF66131FF5B6141870420DED20E5FFB42F6CF2 SWAP1 PUSH2 0x110D SWAP1 DUP6 SWAP1 PUSH2 0x3F67 JUMP JUMPDEST PUSH1 0x40 MLOAD DUP1 SWAP2 SUB SWAP1 LOG1 POP POP POP JUMP JUMPDEST PUSH1 0xA SLOAD PUSH1 0x1 PUSH1 0x1 PUSH1 0xA0 SHL SUB AND DUP2 JUMP JUMPDEST PUSH1 0x4 SLOAD SWAP1 JUMP JUMPDEST PUSH2 0x1147 PUSH1 0x0 DUP1 MLOAD PUSH1 0x20 PUSH2 0x4D7F DUP4 CODECOPY DUP2 MLOAD SWAP2 MSTORE DUP3 PUSH2 0xEF7 JUMP JUMPDEST PUSH2 0x114F PUSH2 0x2B9C JUMP JUMPDEST PUSH1 0x1 PUSH1 0x1 PUSH1 0xA0 SHL SUB AND DUP2 PUSH1 0x1 PUSH1 0x1 PUSH1 0xA0 SHL SUB AND PUSH32 0x1D5F9EC24C6F91BE922EA13CEAAD919AD6554A41B5C26087F96289A9BAF98AD2 PUSH1 0x40 MLOAD PUSH1 0x40 MLOAD DUP1 SWAP2 SUB SWAP1 LOG3 POP JUMP JUMPDEST PUSH1 0x7 SLOAD PUSH1 0x1 PUSH1 0x1 PUSH1 0x80 SHL SUB DUP1 DUP3 AND SWAP2 PUSH1 0x1 PUSH1 0x80 SHL SWAP1 DIV AND DUP3 JUMP JUMPDEST PUSH1 0x2 PUSH1 0x5 SLOAD EQ ISZERO PUSH2 0x11CE JUMPI PUSH1 0x40 MLOAD PUSH3 0x461BCD PUSH1 0xE5 SHL DUP2 MSTORE PUSH1 0x4 ADD PUSH2 0xC92 SWAP1 PUSH2 0x4B6E JUMP JUMPDEST PUSH1 0x2 PUSH1 0x5 SSTORE PUSH2 0x11DB PUSH2 0xFED JUMP JUMPDEST ISZERO PUSH2 0x128B JUMPI PUSH1 0x8 SLOAD PUSH1 0x1 PUSH1 0x80 SHL SWAP1 DIV PUSH1 0xFF AND PUSH2 0x1209 JUMPI PUSH1 0x40 MLOAD PUSH3 0x461BCD PUSH1 0xE5 SHL DUP2 MSTORE PUSH1 0x4 ADD PUSH2 0xC92 SWAP1 PUSH2 0x4246 JUMP JUMPDEST PUSH1 0x0 PUSH2 0x1214 DUP3 PUSH2 0x14DD JUMP JUMPDEST SWAP1 POP PUSH1 0x0 DUP2 GT PUSH2 0x1236 JUMPI PUSH1 0x40 MLOAD PUSH3 0x461BCD PUSH1 0xE5 SHL DUP2 MSTORE PUSH1 0x4 ADD PUSH2 0xC92 SWAP1 PUSH2 0x461B JUMP JUMPDEST PUSH1 0x1 PUSH1 0x1 PUSH1 0xA0 SHL SUB DUP3 AND PUSH1 0x0 SWAP1 DUP2 MSTORE PUSH1 0xE PUSH1 0x20 MSTORE PUSH1 0x40 SWAP1 KECCAK256 SLOAD PUSH2 0x1259 SWAP1 DUP3 PUSH2 0x2CD6 JUMP JUMPDEST PUSH1 0x1 PUSH1 0x1 PUSH1 0xA0 SHL SUB DUP1 DUP5 AND PUSH1 0x0 SWAP1 DUP2 MSTORE PUSH1 0xE PUSH1 0x20 MSTORE PUSH1 0x40 SWAP1 KECCAK256 SWAP2 SWAP1 SWAP2 SSTORE PUSH1 0x9 SLOAD PUSH2 0x1285 SWAP2 AND DUP4 DUP4 PUSH2 0x2CF9 JUMP JUMPDEST POP PUSH2 0x12ED JUMP JUMPDEST PUSH1 0x6 SLOAD PUSH1 0x1 PUSH1 0x40 SHL SWAP1 DIV PUSH1 0x1 PUSH1 0x1 PUSH1 0x40 SHL SUB AND TIMESTAMP GT PUSH2 0x12BC JUMPI PUSH1 0x40 MLOAD PUSH3 0x461BCD PUSH1 0xE5 SHL DUP2 MSTORE PUSH1 0x4 ADD PUSH2 0xC92 SWAP1 PUSH2 0x4444 JUMP JUMPDEST PUSH1 0x1 PUSH1 0x1 PUSH1 0xA0 SHL SUB DUP1 DUP3 AND PUSH1 0x0 SWAP1 DUP2 MSTORE PUSH1 0xD PUSH1 0x20 MSTORE PUSH1 0x40 DUP2 KECCAK256 DUP1 SLOAD SWAP2 SWAP1 SSTORE PUSH1 0xA SLOAD SWAP1 SWAP2 PUSH2 0x12EB SWAP2 AND DUP4 DUP4 PUSH2 0x2CF9 JUMP JUMPDEST POP JUMPDEST POP PUSH1 0x1 PUSH1 0x5 SSTORE JUMP JUMPDEST PUSH2 0x12FE CALLER PUSH2 0x240D JUMP JUMPDEST PUSH2 0x1307 JUMPI PUSH1 0x0 DUP1 REVERT JUMPDEST PUSH1 0x8 DUP1 SLOAD SWAP2 ISZERO ISZERO PUSH1 0x1 PUSH1 0x88 SHL MUL PUSH1 0xFF PUSH1 0x88 SHL NOT SWAP1 SWAP3 AND SWAP2 SWAP1 SWAP2 OR SWAP1 SSTORE JUMP JUMPDEST PUSH1 0x2 PUSH1 0x5 SLOAD EQ ISZERO PUSH2 0x1348 JUMPI PUSH1 0x40 MLOAD PUSH3 0x461BCD PUSH1 0xE5 SHL DUP2 MSTORE PUSH1 0x4 ADD PUSH2 0xC92 SWAP1 PUSH2 0x4B6E JUMP JUMPDEST PUSH1 0x2 PUSH1 0x5 SSTORE PUSH2 0x1356 CALLER PUSH2 0x240D JUMP JUMPDEST DUP1 PUSH2 0x136B JUMPI POP PUSH1 0xB SLOAD PUSH1 0x1 PUSH1 0x1 PUSH1 0xA0 SHL SUB AND CALLER EQ JUMPDEST DUP1 PUSH2 0x137A JUMPI POP PUSH2 0x137A CALLER PUSH2 0xCEA JUMP JUMPDEST DUP1 PUSH2 0x1388 JUMPI POP PUSH2 0x1388 PUSH2 0xD04 JUMP JUMPDEST PUSH2 0x13A4 JUMPI PUSH1 0x40 MLOAD PUSH3 0x461BCD PUSH1 0xE5 SHL DUP2 MSTORE PUSH1 0x4 ADD PUSH2 0xC92 SWAP1 PUSH2 0x42C8 JUMP JUMPDEST PUSH1 0x6 DUP1 SLOAD PUSH1 0x8 SWAP2 SWAP1 PUSH1 0x1 PUSH1 0x80 SHL SWAP1 DIV PUSH1 0x1 PUSH1 0x1 PUSH1 0x80 SHL SUB AND PUSH2 0x13D8 JUMPI PUSH1 0x40 MLOAD PUSH3 0x461BCD PUSH1 0xE5 SHL DUP2 MSTORE PUSH1 0x4 ADD PUSH2 0xC92 SWAP1 PUSH2 0x4733 JUMP JUMPDEST DUP2 SLOAD PUSH1 0x1 PUSH1 0x80 SHL SWAP1 DIV PUSH1 0xFF AND ISZERO PUSH2 0x1401 JUMPI PUSH1 0x40 MLOAD PUSH3 0x461BCD PUSH1 0xE5 SHL DUP2 MSTORE PUSH1 0x4 ADD PUSH2 0xC92 SWAP1 PUSH2 0x485F JUMP JUMPDEST PUSH2 0x1409 PUSH2 0xFED JUMP JUMPDEST ISZERO PUSH2 0x143B JUMPI PUSH1 0xA SLOAD PUSH1 0xB SLOAD DUP4 SLOAD PUSH2 0x1436 SWAP3 PUSH1 0x1 PUSH1 0x1 PUSH1 0xA0 SHL SUB SWAP1 DUP2 AND SWAP3 AND SWAP1 PUSH1 0x1 PUSH1 0x1 PUSH1 0x80 SHL SUB AND PUSH2 0x2CF9 JUMP JUMPDEST PUSH2 0x149A JUMP JUMPDEST DUP1 SLOAD PUSH1 0x1 PUSH1 0x40 SHL SWAP1 DIV PUSH1 0x1 PUSH1 0x1 PUSH1 0x40 SHL SUB AND TIMESTAMP GT PUSH2 0x146B JUMPI PUSH1 0x40 MLOAD PUSH3 0x461BCD PUSH1 0xE5 SHL DUP2 MSTORE PUSH1 0x4 ADD PUSH2 0xC92 SWAP1 PUSH2 0x4444 JUMP JUMPDEST PUSH1 0x9 SLOAD PUSH1 0xB SLOAD DUP3 SLOAD PUSH2 0x149A SWAP3 PUSH1 0x1 PUSH1 0x1 PUSH1 0xA0 SHL SUB SWAP1 DUP2 AND SWAP3 AND SWAP1 PUSH1 0x1 PUSH1 0x80 SHL SWAP1 DIV PUSH1 0x1 PUSH1 0x1 PUSH1 0x80 SHL SUB AND PUSH2 0x2CF9 JUMP JUMPDEST DUP2 SLOAD PUSH1 0xFF PUSH1 0x80 SHL NOT AND PUSH1 0x1 PUSH1 0x80 SHL OR DUP3 SSTORE PUSH1 0x40 MLOAD PUSH32 0x32BEBCFD2D04DBAE321298091D96D2CB1D07279F59718CD83BD98245B8B82B5A SWAP1 PUSH1 0x0 SWAP1 LOG1 POP POP PUSH1 0x1 PUSH1 0x5 SSTORE JUMP JUMPDEST PUSH1 0x1 PUSH1 0x1 PUSH1 0xA0 SHL SUB DUP2 AND PUSH1 0x0 SWAP1 DUP2 MSTORE PUSH1 0xD PUSH1 0x20 MSTORE PUSH1 0x40 DUP2 KECCAK256 SLOAD PUSH2 0x1502 JUMPI POP PUSH1 0x0 PUSH2 0xCE5 JUMP JUMPDEST PUSH1 0x9 SLOAD PUSH1 0x40 MLOAD PUSH4 0x70A08231 PUSH1 0xE0 SHL DUP2 MSTORE PUSH1 0x0 SWAP2 PUSH1 0x1 PUSH1 0x1 PUSH1 0xA0 SHL SUB AND SWAP1 PUSH4 0x70A08231 SWAP1 PUSH2 0x1533 SWAP1 ADDRESS SWAP1 PUSH1 0x4 ADD PUSH2 0x3D3F JUMP JUMPDEST PUSH1 0x20 PUSH1 0x40 MLOAD DUP1 DUP4 SUB DUP2 DUP7 DUP1 EXTCODESIZE ISZERO DUP1 ISZERO PUSH2 0x154B JUMPI PUSH1 0x0 DUP1 REVERT JUMPDEST POP GAS STATICCALL ISZERO DUP1 ISZERO PUSH2 0x155F JUMPI RETURNDATASIZE PUSH1 0x0 DUP1 RETURNDATACOPY RETURNDATASIZE PUSH1 0x0 REVERT JUMPDEST POP POP POP POP PUSH1 0x40 MLOAD RETURNDATASIZE PUSH1 0x1F NOT PUSH1 0x1F DUP3 ADD AND DUP3 ADD DUP1 PUSH1 0x40 MSTORE POP DUP2 ADD SWAP1 PUSH2 0x1583 SWAP2 SWAP1 PUSH2 0x3C1F JUMP JUMPDEST PUSH1 0x8 SLOAD PUSH1 0x6 SLOAD PUSH1 0x1 PUSH1 0x1 PUSH1 0xA0 SHL SUB DUP7 AND PUSH1 0x0 SWAP1 DUP2 MSTORE PUSH1 0xD PUSH1 0x20 MSTORE PUSH1 0x40 SWAP1 KECCAK256 SLOAD SWAP3 SWAP4 POP PUSH2 0x15CC SWAP3 PUSH1 0x1 PUSH1 0x1 PUSH1 0x80 SHL SUB SWAP3 DUP4 AND SWAP3 PUSH2 0x15C6 SWAP3 PUSH1 0x1 PUSH1 0x80 SHL SWAP1 DIV AND PUSH2 0x2C9F JUMP JUMPDEST SWAP1 PUSH2 0x2D3D JUMP JUMPDEST PUSH1 0x1 PUSH1 0x1 PUSH1 0xA0 SHL SUB DUP5 AND PUSH1 0x0 SWAP1 DUP2 MSTORE PUSH1 0xE PUSH1 0x20 MSTORE PUSH1 0x40 SWAP1 KECCAK256 SLOAD SWAP1 SWAP3 POP PUSH2 0x15F3 SWAP1 DUP4 SWAP1 PUSH2 0x2B79 JUMP JUMPDEST SWAP2 POP DUP1 DUP3 GT ISZERO PUSH2 0x1601 JUMPI DUP1 SWAP2 POP JUMPDEST POP SWAP2 SWAP1 POP JUMP JUMPDEST PUSH1 0xB SLOAD PUSH1 0x1 PUSH1 0x1 PUSH1 0xA0 SHL SUB AND DUP2 JUMP JUMPDEST PUSH2 0x162E PUSH1 0x0 DUP1 MLOAD PUSH1 0x20 PUSH2 0x4F0F DUP4 CODECOPY DUP2 MLOAD SWAP2 MSTORE DUP3 PUSH2 0x2721 JUMP JUMPDEST PUSH2 0x1636 PUSH2 0x2B9C JUMP JUMPDEST PUSH1 0x1 PUSH1 0x1 PUSH1 0xA0 SHL SUB AND DUP2 PUSH1 0x1 PUSH1 0x1 PUSH1 0xA0 SHL SUB AND PUSH32 0x56692A161FFEC953DDF9DEF93B958EA8D1EC95E21B80870C66BE91A4374DC4E3 PUSH1 0x40 MLOAD PUSH1 0x40 MLOAD DUP1 SWAP2 SUB SWAP1 LOG3 POP JUMP JUMPDEST PUSH2 0x1683 PUSH1 0x0 DUP3 PUSH2 0xEF7 JUMP JUMPDEST PUSH2 0x168B PUSH2 0x2B9C JUMP JUMPDEST PUSH1 0x1 PUSH1 0x1 PUSH1 0xA0 SHL SUB AND DUP2 PUSH1 0x1 PUSH1 0x1 PUSH1 0xA0 SHL SUB AND PUSH32 0x2570AC42FD8B322DC453ADA624DC2ED0E9BDD67F16F201A25BBD30468F2AA187 PUSH1 0x40 MLOAD PUSH1 0x40 MLOAD DUP1 SWAP2 SUB SWAP1 LOG3 POP JUMP JUMPDEST PUSH2 0x16D6 CALLER PUSH2 0x240D JUMP JUMPDEST PUSH2 0x16DF JUMPI PUSH1 0x0 DUP1 REVERT JUMPDEST PUSH5 0x2540BE400 DUP3 LT PUSH2 0x1703 JUMPI PUSH1 0x40 MLOAD PUSH3 0x461BCD PUSH1 0xE5 SHL DUP2 MSTORE PUSH1 0x4 ADD PUSH2 0xC92 SWAP1 PUSH2 0x47F3 JUMP JUMPDEST PUSH5 0x2540BE400 DUP2 LT PUSH2 0x1727 JUMPI PUSH1 0x40 MLOAD PUSH3 0x461BCD PUSH1 0xE5 SHL DUP2 MSTORE PUSH1 0x4 ADD PUSH2 0xC92 SWAP1 PUSH2 0x47F3 JUMP JUMPDEST TIMESTAMP DUP3 LT ISZERO PUSH2 0x1747 JUMPI PUSH1 0x40 MLOAD PUSH3 0x461BCD PUSH1 0xE5 SHL DUP2 MSTORE PUSH1 0x4 ADD PUSH2 0xC92 SWAP1 PUSH2 0x44E9 JUMP JUMPDEST DUP2 DUP2 GT PUSH2 0x1766 JUMPI PUSH1 0x40 MLOAD PUSH3 0x461BCD PUSH1 0xE5 SHL DUP2 MSTORE PUSH1 0x4 ADD PUSH2 0xC92 SWAP1 PUSH2 0x456C JUMP JUMPDEST PUSH1 0x8 SLOAD PUSH1 0x1 PUSH1 0x1 PUSH1 0x80 SHL SUB AND ISZERO PUSH2 0x178F JUMPI PUSH1 0x40 MLOAD PUSH3 0x461BCD PUSH1 0xE5 SHL DUP2 MSTORE PUSH1 0x4 ADD PUSH2 0xC92 SWAP1 PUSH2 0x4A71 JUMP JUMPDEST PUSH2 0x1798 DUP3 PUSH2 0x2D6F JUMP JUMPDEST PUSH1 0x6 DUP1 SLOAD PUSH8 0xFFFFFFFFFFFFFFFF NOT AND PUSH1 0x1 PUSH1 0x1 PUSH1 0x40 SHL SUB SWAP3 SWAP1 SWAP3 AND SWAP2 SWAP1 SWAP2 OR SWAP1 SSTORE PUSH2 0x17C2 DUP2 PUSH2 0x2D6F JUMP JUMPDEST PUSH1 0x6 DUP1 SLOAD PUSH8 0xFFFFFFFFFFFFFFFF PUSH1 0x40 SHL NOT AND PUSH1 0x1 PUSH1 0x40 SHL PUSH1 0x1 PUSH1 0x1 PUSH1 0x40 SHL SUB SWAP4 DUP5 AND DUP2 MUL SWAP2 SWAP1 SWAP2 OR SWAP2 DUP3 SWAP1 SSTORE PUSH1 0x7 SLOAD DUP3 DUP5 AND SWAP2 SWAP1 SWAP3 DIV DUP4 AND SUB SWAP2 PUSH1 0x0 SWAP2 PUSH2 0x1814 SWAP2 DUP5 AND SWAP1 PUSH1 0x1 PUSH1 0x1 PUSH1 0x80 SHL SUB AND PUSH2 0x2C9F JUMP JUMPDEST SWAP1 POP PUSH2 0x181F DUP2 PUSH2 0x2C72 JUMP JUMPDEST PUSH1 0x7 DUP1 SLOAD PUSH1 0x1 PUSH1 0x1 PUSH1 0x80 SHL SUB SWAP3 DUP4 AND PUSH1 0x1 PUSH1 0x80 SHL MUL SWAP3 AND SWAP2 SWAP1 SWAP2 OR SWAP1 SSTORE PUSH1 0x40 MLOAD PUSH32 0x5725D1E4352D6944889E54837FFAEFDE55CDC0B55796B831365D61CD4C87FDB8 SWAP1 PUSH2 0x186E SWAP1 DUP7 SWAP1 DUP7 SWAP1 PUSH2 0x4C96 JUMP JUMPDEST PUSH1 0x40 MLOAD DUP1 SWAP2 SUB SWAP1 LOG1 POP POP POP POP JUMP JUMPDEST PUSH1 0x0 DUP1 PUSH2 0x18AF PUSH8 0xDE0B6B3A7640000 PUSH2 0x15C6 PUSH2 0x1896 PUSH2 0xF77 JUMP JUMPDEST PUSH1 0x6 SLOAD PUSH1 0x1 PUSH1 0x80 SHL SWAP1 DIV PUSH1 0x1 PUSH1 0x1 PUSH1 0x80 SHL SUB AND SWAP1 PUSH2 0x2C9F JUMP JUMPDEST PUSH1 0x8 SLOAD SWAP1 SWAP2 POP DUP2 SWAP1 PUSH2 0x18CA SWAP1 PUSH1 0x1 PUSH1 0x1 PUSH1 0x80 SHL SUB AND DUP6 PUSH2 0x2CD6 JUMP JUMPDEST GT ISZERO PUSH2 0x18EF JUMPI PUSH1 0x8 SLOAD PUSH2 0x18E7 SWAP1 DUP3 SWAP1 PUSH1 0x1 PUSH1 0x1 PUSH1 0x80 SHL SUB AND PUSH2 0x2B79 JUMP JUMPDEST SWAP2 POP POP PUSH2 0xCE5 JUMP JUMPDEST POP SWAP1 SWAP2 SWAP1 POP JUMP JUMPDEST PUSH1 0x60 PUSH1 0x40 MLOAD DUP1 PUSH2 0x180 ADD PUSH1 0x40 MSTORE DUP1 PUSH2 0x150 DUP2 MSTORE PUSH1 0x20 ADD PUSH2 0x4D9F PUSH2 0x150 SWAP2 CODECOPY SWAP1 POP SWAP1 JUMP JUMPDEST PUSH1 0x40 MLOAD PUSH4 0xD505ACCF PUSH1 0xE0 SHL DUP2 MSTORE PUSH1 0x1 PUSH1 0x1 PUSH1 0xA0 SHL SUB DUP10 AND SWAP1 PUSH4 0xD505ACCF SWAP1 PUSH2 0x1951 SWAP1 DUP11 SWAP1 DUP11 SWAP1 DUP11 SWAP1 DUP11 SWAP1 DUP11 SWAP1 DUP11 SWAP1 DUP11 SWAP1 PUSH1 0x4 ADD PUSH2 0x3DD6 JUMP JUMPDEST PUSH1 0x0 PUSH1 0x40 MLOAD DUP1 DUP4 SUB DUP2 PUSH1 0x0 DUP8 DUP1 EXTCODESIZE ISZERO DUP1 ISZERO PUSH2 0x196B JUMPI PUSH1 0x0 DUP1 REVERT JUMPDEST POP GAS CALL ISZERO DUP1 ISZERO PUSH2 0x197F JUMPI RETURNDATASIZE PUSH1 0x0 DUP1 RETURNDATACOPY RETURNDATASIZE PUSH1 0x0 REVERT JUMPDEST POP POP POP POP POP POP POP POP POP POP POP POP JUMP JUMPDEST PUSH1 0x60 PUSH1 0x0 PUSH1 0x2 DUP5 DUP5 PUSH1 0x40 MLOAD PUSH2 0x19A3 SWAP3 SWAP2 SWAP1 PUSH2 0x3CA3 JUMP JUMPDEST SWAP1 DUP2 MSTORE PUSH1 0x20 ADD PUSH1 0x40 MLOAD DUP1 SWAP2 SUB SWAP1 KECCAK256 PUSH1 0x1 ADD PUSH1 0x2 DUP6 DUP6 PUSH1 0x40 MLOAD PUSH2 0x19C6 SWAP3 SWAP2 SWAP1 PUSH2 0x3CA3 JUMP JUMPDEST SWAP1 DUP2 MSTORE PUSH1 0x40 DUP1 MLOAD PUSH1 0x20 SWAP3 DUP2 SWAP1 SUB DUP4 ADD DUP2 KECCAK256 SLOAD DUP5 SLOAD PUSH1 0x2 PUSH2 0x100 PUSH1 0x1 DUP4 AND ISZERO MUL PUSH1 0x0 NOT ADD SWAP1 SWAP2 AND DIV PUSH1 0x1F DUP2 ADD DUP6 SWAP1 DIV DUP6 MUL DUP4 ADD DUP6 ADD SWAP1 SWAP4 MSTORE DUP3 DUP3 MSTORE PUSH5 0x100000000 SWAP1 DIV PUSH1 0x1 PUSH1 0x1 PUSH1 0x40 SHL SUB AND SWAP3 SWAP1 SWAP2 DUP5 SWAP2 DUP4 ADD DUP3 DUP3 DUP1 ISZERO PUSH2 0x1A67 JUMPI DUP1 PUSH1 0x1F LT PUSH2 0x1A3C JUMPI PUSH2 0x100 DUP1 DUP4 SLOAD DIV MUL DUP4 MSTORE SWAP2 PUSH1 0x20 ADD SWAP2 PUSH2 0x1A67 JUMP JUMPDEST DUP3 ADD SWAP2 SWAP1 PUSH1 0x0 MSTORE PUSH1 0x20 PUSH1 0x0 KECCAK256 SWAP1 JUMPDEST DUP2 SLOAD DUP2 MSTORE SWAP1 PUSH1 0x1 ADD SWAP1 PUSH1 0x20 ADD DUP1 DUP4 GT PUSH2 0x1A4A JUMPI DUP3 SWAP1 SUB PUSH1 0x1F AND DUP3 ADD SWAP2 JUMPDEST POP POP POP POP POP SWAP2 POP SWAP2 POP SWAP2 POP JUMPDEST SWAP3 POP SWAP3 SWAP1 POP JUMP JUMPDEST PUSH1 0x6 SLOAD PUSH1 0x8 SLOAD PUSH1 0x0 SWAP2 PUSH2 0xFA6 SWAP2 PUSH1 0x1 PUSH1 0x1 PUSH1 0x80 SHL SUB PUSH1 0x1 PUSH1 0x80 SHL SWAP1 SWAP3 DIV DUP3 AND SWAP2 PUSH2 0x15C6 SWAP2 AND PUSH8 0xDE0B6B3A7640000 PUSH2 0x2C9F JUMP JUMPDEST PUSH1 0x0 DUP1 DUP1 DUP1 DUP1 DUP1 DUP1 DUP1 DUP1 DUP1 DUP1 PUSH2 0x1AC5 DUP13 DUP15 ADD DUP15 PUSH2 0x37D2 JUMP JUMPDEST SWAP11 POP SWAP11 POP SWAP11 POP SWAP11 POP SWAP11 POP SWAP11 POP SWAP11 POP SWAP11 POP SWAP11 POP SWAP11 POP SWAP11 POP PUSH2 0x1AEE DUP12 DUP12 DUP12 DUP12 DUP12 DUP12 DUP12 DUP12 DUP12 DUP12 DUP12 PUSH2 0x1FFC JUMP JUMPDEST POP POP POP POP POP POP POP POP POP POP POP POP POP JUMP JUMPDEST PUSH1 0x60 DUP12 DUP12 DUP12 DUP12 DUP12 DUP12 DUP12 DUP12 DUP12 DUP12 DUP12 PUSH1 0x40 MLOAD PUSH1 0x20 ADD PUSH2 0x1B24 SWAP12 SWAP11 SWAP10 SWAP9 SWAP8 SWAP7 SWAP6 SWAP5 SWAP4 SWAP3 SWAP2 SWAP1 PUSH2 0x3D77 JUMP JUMPDEST PUSH1 0x40 MLOAD PUSH1 0x20 DUP2 DUP4 SUB SUB DUP2 MSTORE SWAP1 PUSH1 0x40 MSTORE SWAP1 POP SWAP12 SWAP11 POP POP POP POP POP POP POP POP POP POP POP JUMP JUMPDEST PUSH1 0x0 DUP1 MLOAD PUSH1 0x20 PUSH2 0x4D7F DUP4 CODECOPY DUP2 MLOAD SWAP2 MSTORE DUP2 JUMP JUMPDEST PUSH1 0x0 PUSH2 0x1B60 PUSH2 0xFED JUMP JUMPDEST DUP1 PUSH2 0xFA6 JUMPI POP POP PUSH1 0x6 SLOAD PUSH1 0x1 PUSH1 0x40 SHL SWAP1 DIV PUSH1 0x1 PUSH1 0x1 PUSH1 0x40 SHL SUB AND TIMESTAMP GT SWAP1 JUMP JUMPDEST PUSH2 0x1B97 PUSH1 0x0 DUP1 MLOAD PUSH1 0x20 PUSH2 0x4D7F DUP4 CODECOPY DUP2 MLOAD SWAP2 MSTORE DUP3 PUSH2 0x2721 JUMP JUMPDEST PUSH2 0x1B9F PUSH2 0x2B9C JUMP JUMPDEST PUSH1 0x1 PUSH1 0x1 PUSH1 0xA0 SHL SUB AND DUP2 PUSH1 0x1 PUSH1 0x1 PUSH1 0xA0 SHL SUB AND PUSH32 0xE5F1AA9E528307345194B88B24A32401C13926E0823060F1049D9B26C0BB62B2 PUSH1 0x40 MLOAD PUSH1 0x40 MLOAD DUP1 SWAP2 SUB SWAP1 LOG3 POP JUMP JUMPDEST PUSH2 0x1BEA CALLER PUSH2 0x11AB JUMP JUMPDEST JUMP JUMPDEST PUSH1 0x2 PUSH1 0x5 SLOAD EQ ISZERO PUSH2 0x1C0F JUMPI PUSH1 0x40 MLOAD PUSH3 0x461BCD PUSH1 0xE5 SHL DUP2 MSTORE PUSH1 0x4 ADD PUSH2 0xC92 SWAP1 PUSH2 0x4B6E JUMP JUMPDEST PUSH1 0x2 PUSH1 0x5 SSTORE PUSH2 0x1C1D CALLER PUSH2 0x240D JUMP JUMPDEST PUSH2 0x1C26 JUMPI PUSH1 0x0 DUP1 REVERT JUMPDEST PUSH1 0x8 DUP1 SLOAD PUSH1 0x1 PUSH1 0x80 SHL SWAP1 DIV PUSH1 0xFF AND ISZERO PUSH2 0x1C51 JUMPI PUSH1 0x40 MLOAD PUSH3 0x461BCD PUSH1 0xE5 SHL DUP2 MSTORE PUSH1 0x4 ADD PUSH2 0xC92 SWAP1 PUSH2 0x485F JUMP JUMPDEST DUP1 SLOAD PUSH1 0x1 PUSH1 0x1 PUSH1 0x80 SHL SUB AND ISZERO PUSH2 0x1C79 JUMPI PUSH1 0x40 MLOAD PUSH3 0x461BCD PUSH1 0xE5 SHL DUP2 MSTORE PUSH1 0x4 ADD PUSH2 0xC92 SWAP1 PUSH2 0x48AB JUMP JUMPDEST PUSH1 0x9 SLOAD PUSH1 0xB SLOAD PUSH1 0x6 SLOAD PUSH2 0x1CA9 SWAP3 PUSH1 0x1 PUSH1 0x1 PUSH1 0xA0 SHL SUB SWAP1 DUP2 AND SWAP3 AND SWAP1 PUSH1 0x1 PUSH1 0x80 SHL SWAP1 DIV PUSH1 0x1 PUSH1 0x1 PUSH1 0x80 SHL SUB AND PUSH2 0x2CF9 JUMP JUMPDEST DUP1 SLOAD PUSH1 0xFF PUSH1 0x80 SHL NOT AND PUSH1 0x1 PUSH1 0x80 SHL OR DUP2 SSTORE PUSH1 0x40 MLOAD PUSH32 0xA5FB31E47BD1ECA58BF14A3312D5E6AEAFDC4EE787C8ED348C15C2B092324D93 SWAP1 PUSH1 0x0 SWAP1 LOG1 POP PUSH1 0x1 PUSH1 0x5 SSTORE JUMP JUMPDEST PUSH1 0x0 DUP3 DUP2 MSTORE PUSH1 0x20 DUP2 SWAP1 MSTORE PUSH1 0x40 DUP2 KECCAK256 PUSH2 0x1D03 SWAP1 DUP4 PUSH2 0x2D98 JUMP JUMPDEST SWAP1 POP JUMPDEST SWAP3 SWAP2 POP POP JUMP JUMPDEST PUSH1 0x0 PUSH2 0xFA6 PUSH2 0x1D19 PUSH2 0xF77 JUMP JUMPDEST PUSH1 0x8 SLOAD PUSH2 0x15C6 SWAP1 PUSH1 0x1 PUSH1 0x1 PUSH1 0x80 SHL SUB AND PUSH8 0xDE0B6B3A7640000 PUSH2 0x2C9F JUMP JUMPDEST PUSH1 0x0 DUP3 DUP2 MSTORE PUSH1 0x20 DUP2 SWAP1 MSTORE PUSH1 0x40 DUP2 KECCAK256 PUSH2 0x1D03 SWAP1 DUP4 PUSH2 0x2DA4 JUMP JUMPDEST PUSH2 0x1D67 PUSH1 0x0 DUP1 MLOAD PUSH1 0x20 PUSH2 0x4EEF DUP4 CODECOPY DUP2 MLOAD SWAP2 MSTORE DUP3 PUSH2 0x2721 JUMP JUMPDEST PUSH2 0x1D6F PUSH2 0x2B9C JUMP JUMPDEST PUSH1 0x1 PUSH1 0x1 PUSH1 0xA0 SHL SUB AND DUP2 PUSH1 0x1 PUSH1 0x1 PUSH1 0xA0 SHL SUB AND PUSH32 0x70B25138B6FADEB9992D18B9653564271823E34B3E3257515D12A6D4B15FCDDF PUSH1 0x40 MLOAD PUSH1 0x40 MLOAD DUP1 SWAP2 SUB SWAP1 LOG3 POP JUMP JUMPDEST PUSH1 0x9 SLOAD PUSH1 0x1 PUSH1 0x1 PUSH1 0xA0 SHL SUB AND DUP2 JUMP JUMPDEST PUSH2 0x1DC9 CALLER PUSH2 0x240D JUMP JUMPDEST PUSH2 0x1DD2 JUMPI PUSH1 0x0 DUP1 REVERT JUMPDEST PUSH1 0x1 PUSH1 0x1 PUSH1 0xA0 SHL SUB DUP2 AND PUSH2 0x1DF8 JUMPI PUSH1 0x40 MLOAD PUSH3 0x461BCD PUSH1 0xE5 SHL DUP2 MSTORE PUSH1 0x4 ADD PUSH2 0xC92 SWAP1 PUSH2 0x427B JUMP JUMPDEST PUSH1 0xB DUP1 SLOAD PUSH1 0x1 PUSH1 0x1 PUSH1 0xA0 SHL SUB NOT AND PUSH1 0x1 PUSH1 0x1 PUSH1 0xA0 SHL SUB DUP4 AND OR SWAP1 SSTORE PUSH1 0x40 MLOAD PUSH32 0x34AE2BAD9265F0212D4CF341708B8250949164BB54F9D0E4F442024F83BB2F90 SWAP1 PUSH2 0x1E43 SWAP1 DUP4 SWAP1 PUSH2 0x3D3F JUMP JUMPDEST PUSH1 0x40 MLOAD DUP1 SWAP2 SUB SWAP1 LOG1 POP JUMP JUMPDEST PUSH2 0x1E57 CALLER PUSH2 0x240D JUMP JUMPDEST PUSH2 0x1E60 JUMPI PUSH1 0x0 DUP1 REVERT JUMPDEST PUSH2 0xEF1 DUP5 DUP5 DUP5 DUP5 PUSH2 0x2DB9 JUMP JUMPDEST PUSH1 0x60 PUSH1 0x4 DUP1 SLOAD DUP1 PUSH1 0x20 MUL PUSH1 0x20 ADD PUSH1 0x40 MLOAD SWAP1 DUP2 ADD PUSH1 0x40 MSTORE DUP1 SWAP3 SWAP2 SWAP1 DUP2 DUP2 MSTORE PUSH1 0x20 ADD PUSH1 0x0 SWAP1 JUMPDEST DUP3 DUP3 LT ISZERO PUSH2 0x1F3B JUMPI PUSH1 0x0 DUP5 DUP2 MSTORE PUSH1 0x20 SWAP1 DUP2 SWAP1 KECCAK256 DUP4 ADD DUP1 SLOAD PUSH1 0x40 DUP1 MLOAD PUSH1 0x1F PUSH1 0x2 PUSH1 0x0 NOT PUSH2 0x100 PUSH1 0x1 DUP8 AND ISZERO MUL ADD SWAP1 SWAP5 AND SWAP4 SWAP1 SWAP4 DIV SWAP3 DUP4 ADD DUP6 SWAP1 DIV DUP6 MUL DUP2 ADD DUP6 ADD SWAP1 SWAP2 MSTORE DUP2 DUP2 MSTORE SWAP3 DUP4 ADD DUP3 DUP3 DUP1 ISZERO PUSH2 0x1F27 JUMPI DUP1 PUSH1 0x1F LT PUSH2 0x1EFC JUMPI PUSH2 0x100 DUP1 DUP4 SLOAD DIV MUL DUP4 MSTORE SWAP2 PUSH1 0x20 ADD SWAP2 PUSH2 0x1F27 JUMP JUMPDEST DUP3 ADD SWAP2 SWAP1 PUSH1 0x0 MSTORE PUSH1 0x20 PUSH1 0x0 KECCAK256 SWAP1 JUMPDEST DUP2 SLOAD DUP2 MSTORE SWAP1 PUSH1 0x1 ADD SWAP1 PUSH1 0x20 ADD DUP1 DUP4 GT PUSH2 0x1F0A JUMPI DUP3 SWAP1 SUB PUSH1 0x1F AND DUP3 ADD SWAP2 JUMPDEST POP POP POP POP POP DUP2 MSTORE PUSH1 0x20 ADD SWAP1 PUSH1 0x1 ADD SWAP1 PUSH2 0x1E90 JUMP JUMPDEST POP POP POP POP SWAP1 POP SWAP1 JUMP JUMPDEST PUSH1 0x0 DUP2 JUMP JUMPDEST PUSH1 0x6 SLOAD PUSH1 0x0 SWAP1 PUSH1 0x1 PUSH1 0x1 PUSH1 0x40 SHL SUB AND TIMESTAMP GT PUSH2 0x1F67 JUMPI POP PUSH1 0x0 NOT PUSH2 0xD20 JUMP JUMPDEST PUSH1 0x6 SLOAD PUSH1 0x1 PUSH1 0x40 SHL SWAP1 DIV PUSH1 0x1 PUSH1 0x1 PUSH1 0x40 SHL SUB AND TIMESTAMP LT PUSH2 0x1F92 JUMPI POP PUSH1 0x7 SLOAD PUSH1 0x1 PUSH1 0x1 PUSH1 0x80 SHL SUB AND PUSH2 0xD20 JUMP JUMPDEST PUSH2 0xFA6 PUSH2 0x300B JUMP JUMPDEST PUSH2 0x1FB2 PUSH1 0x0 DUP1 MLOAD PUSH1 0x20 PUSH2 0x4F0F DUP4 CODECOPY DUP2 MLOAD SWAP2 MSTORE DUP3 PUSH2 0xEF7 JUMP JUMPDEST PUSH2 0x1FBA PUSH2 0x2B9C JUMP JUMPDEST PUSH1 0x1 PUSH1 0x1 PUSH1 0xA0 SHL SUB AND DUP2 PUSH1 0x1 PUSH1 0x1 PUSH1 0xA0 SHL SUB AND PUSH32 0xBE6AB9784C7401FAFB73F7BC47BC67CC4EF8C47A60AD3CB66D1DE0353A0784C PUSH1 0x40 MLOAD PUSH1 0x40 MLOAD DUP1 SWAP2 SUB SWAP1 LOG3 POP JUMP JUMPDEST PUSH5 0x2540BE400 DUP8 LT PUSH2 0x2020 JUMPI PUSH1 0x40 MLOAD PUSH3 0x461BCD PUSH1 0xE5 SHL DUP2 MSTORE PUSH1 0x4 ADD PUSH2 0xC92 SWAP1 PUSH2 0x47F3 JUMP JUMPDEST TIMESTAMP DUP9 LT ISZERO PUSH2 0x2040 JUMPI PUSH1 0x40 MLOAD PUSH3 0x461BCD PUSH1 0xE5 SHL DUP2 MSTORE PUSH1 0x4 ADD PUSH2 0xC92 SWAP1 PUSH2 0x44E9 JUMP JUMPDEST PUSH1 0x0 DUP10 GT PUSH2 0x2060 JUMPI PUSH1 0x40 MLOAD PUSH3 0x461BCD PUSH1 0xE5 SHL DUP2 MSTORE PUSH1 0x4 ADD PUSH2 0xC92 SWAP1 PUSH2 0x414C JUMP JUMPDEST DUP8 DUP8 GT PUSH2 0x207F JUMPI PUSH1 0x40 MLOAD PUSH3 0x461BCD PUSH1 0xE5 SHL DUP2 MSTORE PUSH1 0x4 ADD PUSH2 0xC92 SWAP1 PUSH2 0x43E7 JUMP JUMPDEST PUSH1 0x0 DUP5 GT PUSH2 0x209F JUMPI PUSH1 0x40 MLOAD PUSH3 0x461BCD PUSH1 0xE5 SHL DUP2 MSTORE PUSH1 0x4 ADD PUSH2 0xC92 SWAP1 PUSH2 0x4A14 JUMP JUMPDEST PUSH1 0x1 PUSH1 0x1 PUSH1 0xA0 SHL SUB DUP2 AND PUSH2 0x20C5 JUMPI PUSH1 0x40 MLOAD PUSH3 0x461BCD PUSH1 0xE5 SHL DUP2 MSTORE PUSH1 0x4 ADD PUSH2 0xC92 SWAP1 PUSH2 0x427B JUMP JUMPDEST PUSH1 0x1 PUSH1 0x1 PUSH1 0xA0 SHL SUB DUP4 AND PUSH2 0x20EB JUMPI PUSH1 0x40 MLOAD PUSH3 0x461BCD PUSH1 0xE5 SHL DUP2 MSTORE PUSH1 0x4 ADD PUSH2 0xC92 SWAP1 PUSH2 0x46E7 JUMP JUMPDEST PUSH1 0x1 PUSH1 0x1 PUSH1 0xA0 SHL SUB DUP11 AND PUSH2 0x2111 JUMPI PUSH1 0x40 MLOAD PUSH3 0x461BCD PUSH1 0xE5 SHL DUP2 MSTORE PUSH1 0x4 ADD PUSH2 0xC92 SWAP1 PUSH2 0x48F7 JUMP JUMPDEST DUP10 PUSH1 0x1 PUSH1 0x1 PUSH1 0xA0 SHL SUB AND PUSH4 0x313CE567 PUSH1 0x40 MLOAD DUP2 PUSH4 0xFFFFFFFF AND PUSH1 0xE0 SHL DUP2 MSTORE PUSH1 0x4 ADD PUSH1 0x20 PUSH1 0x40 MLOAD DUP1 DUP4 SUB DUP2 DUP7 DUP1 EXTCODESIZE ISZERO DUP1 ISZERO PUSH2 0x214A JUMPI PUSH1 0x0 DUP1 REVERT JUMPDEST POP GAS STATICCALL ISZERO DUP1 ISZERO PUSH2 0x215E JUMPI RETURNDATASIZE PUSH1 0x0 DUP1 RETURNDATACOPY RETURNDATASIZE PUSH1 0x0 REVERT JUMPDEST POP POP POP POP PUSH1 0x40 MLOAD RETURNDATASIZE PUSH1 0x1F NOT PUSH1 0x1F DUP3 ADD AND DUP3 ADD DUP1 PUSH1 0x40 MSTORE POP DUP2 ADD SWAP1 PUSH2 0x2182 SWAP2 SWAP1 PUSH2 0x3C5B JUMP JUMPDEST PUSH1 0xFF AND PUSH1 0x12 EQ PUSH2 0x21A4 JUMPI PUSH1 0x40 MLOAD PUSH3 0x461BCD PUSH1 0xE5 SHL DUP2 MSTORE PUSH1 0x4 ADD PUSH2 0xC92 SWAP1 PUSH2 0x4943 JUMP JUMPDEST PUSH1 0x1 PUSH1 0x1 PUSH1 0xA0 SHL SUB DUP7 AND PUSH20 0xEEEEEEEEEEEEEEEEEEEEEEEEEEEEEEEEEEEEEEEE EQ PUSH2 0x225B JUMPI PUSH1 0x0 DUP7 PUSH1 0x1 PUSH1 0x1 PUSH1 0xA0 SHL SUB AND PUSH4 0x313CE567 PUSH1 0x40 MLOAD DUP2 PUSH4 0xFFFFFFFF AND PUSH1 0xE0 SHL DUP2 MSTORE PUSH1 0x4 ADD PUSH1 0x20 PUSH1 0x40 MLOAD DUP1 DUP4 SUB DUP2 DUP7 DUP1 EXTCODESIZE ISZERO DUP1 ISZERO PUSH2 0x2203 JUMPI PUSH1 0x0 DUP1 REVERT JUMPDEST POP GAS STATICCALL ISZERO DUP1 ISZERO PUSH2 0x2217 JUMPI RETURNDATASIZE PUSH1 0x0 DUP1 RETURNDATACOPY RETURNDATASIZE PUSH1 0x0 REVERT JUMPDEST POP POP POP POP PUSH1 0x40 MLOAD RETURNDATASIZE PUSH1 0x1F NOT PUSH1 0x1F DUP3 ADD AND DUP3 ADD DUP1 PUSH1 0x40 MSTORE POP DUP2 ADD SWAP1 PUSH2 0x223B SWAP2 SWAP1 PUSH2 0x3C5B JUMP JUMPDEST PUSH1 0xFF AND GT PUSH2 0x225B JUMPI PUSH1 0x40 MLOAD PUSH3 0x461BCD PUSH1 0xE5 SHL DUP2 MSTORE PUSH1 0x4 ADD PUSH2 0xC92 SWAP1 PUSH2 0x408D JUMP JUMPDEST PUSH2 0x2264 DUP9 PUSH2 0x2D6F JUMP JUMPDEST PUSH1 0x6 DUP1 SLOAD PUSH8 0xFFFFFFFFFFFFFFFF NOT AND PUSH1 0x1 PUSH1 0x1 PUSH1 0x40 SHL SUB SWAP3 SWAP1 SWAP3 AND SWAP2 SWAP1 SWAP2 OR SWAP1 SSTORE PUSH2 0x228E DUP8 PUSH2 0x2D6F JUMP JUMPDEST PUSH1 0x6 DUP1 SLOAD PUSH1 0x1 PUSH1 0x1 PUSH1 0x40 SHL SUB SWAP3 SWAP1 SWAP3 AND PUSH1 0x1 PUSH1 0x40 SHL MUL PUSH8 0xFFFFFFFFFFFFFFFF PUSH1 0x40 SHL NOT SWAP1 SWAP3 AND SWAP2 SWAP1 SWAP2 OR SWAP1 SSTORE PUSH2 0x22C3 DUP10 PUSH2 0x2C72 JUMP JUMPDEST PUSH1 0x6 DUP1 SLOAD PUSH1 0x1 PUSH1 0x1 PUSH1 0x80 SHL SUB SWAP3 DUP4 AND PUSH1 0x1 PUSH1 0x80 SHL MUL SWAP3 AND SWAP2 SWAP1 SWAP2 OR SWAP1 SSTORE PUSH2 0x22E9 DUP5 PUSH2 0x2C72 JUMP JUMPDEST PUSH1 0x7 DUP1 SLOAD PUSH1 0x1 PUSH1 0x1 PUSH1 0x80 SHL SUB NOT AND PUSH1 0x1 PUSH1 0x1 PUSH1 0x80 SHL SUB SWAP3 SWAP1 SWAP3 AND SWAP2 SWAP1 SWAP2 OR SWAP1 SSTORE PUSH1 0x9 DUP1 SLOAD PUSH1 0x1 PUSH1 0x1 PUSH1 0xA0 SHL SUB NOT SWAP1 DUP2 AND PUSH1 0x1 PUSH1 0x1 PUSH1 0xA0 SHL SUB DUP14 DUP2 AND SWAP2 SWAP1 SWAP2 OR SWAP1 SWAP3 SSTORE PUSH1 0xA DUP1 SLOAD DUP3 AND DUP10 DUP5 AND OR SWAP1 SSTORE PUSH1 0xB DUP1 SLOAD SWAP1 SWAP2 AND SWAP2 DUP4 AND SWAP2 SWAP1 SWAP2 OR SWAP1 SSTORE PUSH2 0x2350 DUP4 PUSH2 0x281A JUMP JUMPDEST PUSH2 0x2359 DUP3 PUSH2 0x3051 JUMP JUMPDEST DUP8 DUP8 SUB PUSH1 0x0 PUSH2 0x2368 DUP3 DUP8 PUSH2 0x2C9F JUMP JUMPDEST SWAP1 POP PUSH2 0x2373 DUP2 PUSH2 0x2C72 JUMP JUMPDEST PUSH1 0x7 DUP1 SLOAD PUSH1 0x1 PUSH1 0x1 PUSH1 0x80 SHL SUB SWAP3 DUP4 AND PUSH1 0x1 PUSH1 0x80 SHL MUL SWAP3 AND SWAP2 SWAP1 SWAP2 OR SWAP1 SSTORE PUSH2 0x1AEE DUP13 DUP15 DUP14 PUSH2 0x28E0 JUMP JUMPDEST PUSH1 0x8 SLOAD PUSH1 0x1 PUSH1 0x80 SHL SWAP1 DIV PUSH1 0xFF AND SWAP1 JUMP JUMPDEST PUSH2 0x23C3 PUSH1 0x0 DUP1 MLOAD PUSH1 0x20 PUSH2 0x4EEF DUP4 CODECOPY DUP2 MLOAD SWAP2 MSTORE DUP3 PUSH2 0xEF7 JUMP JUMPDEST PUSH2 0x23CB PUSH2 0x2B9C JUMP JUMPDEST PUSH1 0x1 PUSH1 0x1 PUSH1 0xA0 SHL SUB AND DUP2 PUSH1 0x1 PUSH1 0x1 PUSH1 0xA0 SHL SUB AND PUSH32 0x2D45EE102874989882745A26688D0B4FFFEE125A18DF26536B12582C7FDE4E17 PUSH1 0x40 MLOAD PUSH1 0x40 MLOAD DUP1 SWAP2 SUB SWAP1 LOG3 POP JUMP JUMPDEST PUSH1 0x0 PUSH2 0xCE2 DUP2 DUP4 PUSH2 0x1D37 JUMP JUMPDEST PUSH1 0x4 SLOAD PUSH1 0x60 SWAP1 DUP3 LT PUSH2 0x243D JUMPI PUSH1 0x40 MLOAD PUSH3 0x461BCD PUSH1 0xE5 SHL DUP2 MSTORE PUSH1 0x4 ADD PUSH2 0xC92 SWAP1 PUSH2 0x4B0A JUMP JUMPDEST PUSH1 0x4 DUP3 DUP2 SLOAD DUP2 LT PUSH2 0x244A JUMPI INVALID JUMPDEST PUSH1 0x0 SWAP2 DUP3 MSTORE PUSH1 0x20 SWAP2 DUP3 SWAP1 KECCAK256 ADD DUP1 SLOAD PUSH1 0x40 DUP1 MLOAD PUSH1 0x1F PUSH1 0x2 PUSH1 0x0 NOT PUSH2 0x100 PUSH1 0x1 DUP8 AND ISZERO MUL ADD SWAP1 SWAP5 AND SWAP4 SWAP1 SWAP4 DIV SWAP3 DUP4 ADD DUP6 SWAP1 DIV DUP6 MUL DUP2 ADD DUP6 ADD SWAP1 SWAP2 MSTORE DUP2 DUP2 MSTORE SWAP3 DUP4 ADD DUP3 DUP3 DUP1 ISZERO PUSH2 0x24D8 JUMPI DUP1 PUSH1 0x1F LT PUSH2 0x24AD JUMPI PUSH2 0x100 DUP1 DUP4 SLOAD DIV MUL DUP4 MSTORE SWAP2 PUSH1 0x20 ADD SWAP2 PUSH2 0x24D8 JUMP JUMPDEST DUP3 ADD SWAP2 SWAP1 PUSH1 0x0 MSTORE PUSH1 0x20 PUSH1 0x0 KECCAK256 SWAP1 JUMPDEST DUP2 SLOAD DUP2 MSTORE SWAP1 PUSH1 0x1 ADD SWAP1 PUSH1 0x20 ADD DUP1 DUP4 GT PUSH2 0x24BB JUMPI DUP3 SWAP1 SUB PUSH1 0x1F AND DUP3 ADD SWAP2 JUMPDEST POP POP POP POP POP SWAP1 POP SWAP2 SWAP1 POP JUMP JUMPDEST PUSH1 0xE PUSH1 0x20 MSTORE PUSH1 0x0 SWAP1 DUP2 MSTORE PUSH1 0x40 SWAP1 KECCAK256 SLOAD DUP2 JUMP JUMPDEST PUSH2 0x24FF CALLER PUSH2 0x240D JUMP JUMPDEST PUSH2 0x2508 JUMPI PUSH1 0x0 DUP1 REVERT JUMPDEST DUP3 PUSH1 0x0 JUMPDEST DUP2 DUP2 LT ISZERO PUSH2 0x2560 JUMPI PUSH2 0x2558 DUP7 DUP7 DUP4 DUP2 DUP2 LT PUSH2 0x2523 JUMPI INVALID JUMPDEST SWAP1 POP PUSH1 0x20 MUL DUP2 ADD SWAP1 PUSH2 0x2535 SWAP2 SWAP1 PUSH2 0x4CD0 JUMP JUMPDEST DUP7 DUP7 DUP6 DUP2 DUP2 LT PUSH2 0x2541 JUMPI INVALID JUMPDEST SWAP1 POP PUSH1 0x20 MUL DUP2 ADD SWAP1 PUSH2 0x2553 SWAP2 SWAP1 PUSH2 0x4CD0 JUMP JUMPDEST PUSH2 0x2DB9 JUMP JUMPDEST PUSH1 0x1 ADD PUSH2 0x250C JUMP JUMPDEST POP POP POP POP POP POP JUMP JUMPDEST PUSH1 0x0 DUP2 DUP2 MSTORE PUSH1 0x20 DUP2 SWAP1 MSTORE PUSH1 0x40 DUP2 KECCAK256 PUSH2 0xCE2 SWAP1 PUSH2 0x3093 JUMP JUMPDEST PUSH1 0x60 DUP1 DUP4 PUSH1 0x1 PUSH1 0x1 PUSH1 0x40 SHL SUB DUP2 GT DUP1 ISZERO PUSH2 0x2598 JUMPI PUSH1 0x0 DUP1 REVERT JUMPDEST POP PUSH1 0x40 MLOAD SWAP1 DUP1 DUP3 MSTORE DUP1 PUSH1 0x20 MUL PUSH1 0x20 ADD DUP3 ADD PUSH1 0x40 MSTORE DUP1 ISZERO PUSH2 0x25C2 JUMPI DUP2 PUSH1 0x20 ADD PUSH1 0x20 DUP3 MUL DUP1 CALLDATASIZE DUP4 CALLDATACOPY ADD SWAP1 POP JUMPDEST POP SWAP2 POP DUP4 PUSH1 0x1 PUSH1 0x1 PUSH1 0x40 SHL SUB DUP2 GT DUP1 ISZERO PUSH2 0x25DB JUMPI PUSH1 0x0 DUP1 REVERT JUMPDEST POP PUSH1 0x40 MLOAD SWAP1 DUP1 DUP3 MSTORE DUP1 PUSH1 0x20 MUL PUSH1 0x20 ADD DUP3 ADD PUSH1 0x40 MSTORE DUP1 ISZERO PUSH2 0x260F JUMPI DUP2 PUSH1 0x20 ADD JUMPDEST PUSH1 0x60 DUP2 MSTORE PUSH1 0x20 ADD SWAP1 PUSH1 0x1 SWAP1 SUB SWAP1 DUP2 PUSH2 0x25FA JUMPI SWAP1 POP JUMPDEST POP SWAP1 POP PUSH1 0x0 JUMPDEST DUP5 DUP2 LT ISZERO PUSH2 0x2706 JUMPI PUSH1 0x0 PUSH1 0x60 ADDRESS DUP9 DUP9 DUP6 DUP2 DUP2 LT PUSH2 0x262E JUMPI INVALID JUMPDEST SWAP1 POP PUSH1 0x20 MUL DUP2 ADD SWAP1 PUSH2 0x2640 SWAP2 SWAP1 PUSH2 0x4CD0 JUMP JUMPDEST PUSH1 0x40 MLOAD PUSH2 0x264E SWAP3 SWAP2 SWAP1 PUSH2 0x3CA3 JUMP JUMPDEST PUSH1 0x0 PUSH1 0x40 MLOAD DUP1 DUP4 SUB DUP2 DUP6 GAS DELEGATECALL SWAP2 POP POP RETURNDATASIZE DUP1 PUSH1 0x0 DUP2 EQ PUSH2 0x2689 JUMPI PUSH1 0x40 MLOAD SWAP2 POP PUSH1 0x1F NOT PUSH1 0x3F RETURNDATASIZE ADD AND DUP3 ADD PUSH1 0x40 MSTORE RETURNDATASIZE DUP3 MSTORE RETURNDATASIZE PUSH1 0x0 PUSH1 0x20 DUP5 ADD RETURNDATACOPY PUSH2 0x268E JUMP JUMPDEST PUSH1 0x60 SWAP2 POP JUMPDEST POP SWAP2 POP SWAP2 POP DUP2 DUP1 PUSH2 0x269D JUMPI POP DUP6 ISZERO JUMPDEST PUSH2 0x26A6 DUP3 PUSH2 0x309E JUMP JUMPDEST SWAP1 PUSH2 0x26C4 JUMPI PUSH1 0x40 MLOAD PUSH3 0x461BCD PUSH1 0xE5 SHL DUP2 MSTORE PUSH1 0x4 ADD PUSH2 0xC92 SWAP2 SWAP1 PUSH2 0x3F70 JUMP JUMPDEST POP DUP2 DUP6 DUP5 DUP2 MLOAD DUP2 LT PUSH2 0x26D2 JUMPI INVALID JUMPDEST PUSH1 0x20 MUL PUSH1 0x20 ADD ADD SWAP1 ISZERO ISZERO SWAP1 DUP2 ISZERO ISZERO DUP2 MSTORE POP POP DUP1 DUP5 DUP5 DUP2 MLOAD DUP2 LT PUSH2 0x26F1 JUMPI INVALID JUMPDEST PUSH1 0x20 SWAP1 DUP2 MUL SWAP2 SWAP1 SWAP2 ADD ADD MSTORE POP POP PUSH1 0x1 ADD PUSH2 0x2615 JUMP JUMPDEST POP SWAP4 POP SWAP4 SWAP2 POP POP JUMP JUMPDEST PUSH1 0x0 DUP1 MLOAD PUSH1 0x20 PUSH2 0x4F0F DUP4 CODECOPY DUP2 MLOAD SWAP2 MSTORE DUP2 JUMP JUMPDEST PUSH1 0x0 DUP3 DUP2 MSTORE PUSH1 0x20 DUP2 SWAP1 MSTORE PUSH1 0x40 SWAP1 KECCAK256 PUSH1 0x2 ADD SLOAD PUSH2 0x273F SWAP1 PUSH2 0x906 PUSH2 0x2B9C JUMP JUMPDEST PUSH2 0xFE3 JUMPI PUSH1 0x40 MLOAD PUSH3 0x461BCD PUSH1 0xE5 SHL DUP2 MSTORE PUSH1 0x4 ADD PUSH2 0xC92 SWAP1 PUSH2 0x4697 JUMP JUMPDEST PUSH2 0x2764 CALLER PUSH2 0x240D JUMP JUMPDEST PUSH2 0x276D JUMPI PUSH1 0x0 DUP1 REVERT JUMPDEST PUSH2 0x2776 DUP2 PUSH2 0x3051 JUMP JUMPDEST POP JUMP JUMPDEST PUSH2 0xF3B CALLER DUP4 DUP4 PUSH2 0xD28 JUMP JUMPDEST PUSH2 0x278F PUSH1 0x0 DUP3 PUSH2 0x2721 JUMP JUMPDEST PUSH2 0x2797 PUSH2 0x2B9C JUMP JUMPDEST PUSH1 0x1 PUSH1 0x1 PUSH1 0xA0 SHL SUB AND DUP2 PUSH1 0x1 PUSH1 0x1 PUSH1 0xA0 SHL SUB AND PUSH32 0x21BA1239795D4E22874E3DC55F0A9D7B65BFB23069D32965D7C23BE9524CCF95 PUSH1 0x40 MLOAD PUSH1 0x40 MLOAD DUP1 SWAP2 SUB SWAP1 LOG3 POP JUMP JUMPDEST PUSH2 0x27E2 CALLER PUSH2 0x240D JUMP JUMPDEST PUSH2 0x27EB JUMPI PUSH1 0x0 DUP1 REVERT JUMPDEST PUSH2 0xF3B DUP3 DUP3 PUSH2 0x30FE JUMP JUMPDEST PUSH1 0x8 SLOAD PUSH1 0x1 PUSH1 0x1 PUSH1 0x80 SHL SUB DUP2 AND SWAP1 PUSH1 0xFF PUSH1 0x1 PUSH1 0x80 SHL DUP3 DIV DUP2 AND SWAP2 PUSH1 0x1 PUSH1 0x88 SHL SWAP1 DIV AND DUP4 JUMP JUMPDEST PUSH1 0x1 SLOAD PUSH1 0xFF AND ISZERO PUSH2 0x283D JUMPI PUSH1 0x40 MLOAD PUSH3 0x461BCD PUSH1 0xE5 SHL DUP2 MSTORE PUSH1 0x4 ADD PUSH2 0xC92 SWAP1 PUSH2 0x40DD JUMP JUMPDEST PUSH1 0x1 PUSH1 0x1 PUSH1 0xA0 SHL SUB DUP2 AND PUSH2 0x2863 JUMPI PUSH1 0x40 MLOAD PUSH3 0x461BCD PUSH1 0xE5 SHL DUP2 MSTORE PUSH1 0x4 ADD PUSH2 0xC92 SWAP1 PUSH2 0x47CA JUMP JUMPDEST PUSH2 0x286E PUSH1 0x0 DUP3 PUSH2 0xF31 JUMP JUMPDEST POP PUSH1 0x1 DUP1 SLOAD PUSH1 0xFF NOT AND DUP2 OR SWAP1 SSTORE JUMP JUMPDEST PUSH1 0xD PUSH1 0x20 MSTORE PUSH1 0x0 SWAP1 DUP2 MSTORE PUSH1 0x40 SWAP1 KECCAK256 SLOAD DUP2 JUMP JUMPDEST PUSH1 0xC SLOAD PUSH1 0x1 PUSH1 0x1 PUSH1 0xA0 SHL SUB AND DUP2 JUMP JUMPDEST PUSH1 0x6 SLOAD PUSH1 0x1 PUSH1 0x80 SHL SWAP1 DIV PUSH1 0x1 PUSH1 0x1 PUSH1 0x80 SHL SUB AND SWAP1 JUMP JUMPDEST PUSH1 0x0 DUP1 MLOAD PUSH1 0x20 PUSH2 0x4EEF DUP4 CODECOPY DUP2 MLOAD SWAP2 MSTORE DUP2 JUMP JUMPDEST PUSH1 0x0 PUSH2 0xCE2 PUSH1 0x0 DUP1 MLOAD PUSH1 0x20 PUSH2 0x4EEF DUP4 CODECOPY DUP2 MLOAD SWAP2 MSTORE DUP4 PUSH2 0x1D37 JUMP JUMPDEST PUSH1 0x0 PUSH1 0x60 DUP5 PUSH1 0x1 PUSH1 0x1 PUSH1 0xA0 SHL SUB AND PUSH4 0x23B872DD DUP6 ADDRESS DUP7 PUSH1 0x40 MLOAD PUSH1 0x24 ADD PUSH2 0x2908 SWAP4 SWAP3 SWAP2 SWAP1 PUSH2 0x3D53 JUMP JUMPDEST PUSH1 0x40 MLOAD PUSH1 0x20 DUP2 DUP4 SUB SUB DUP2 MSTORE SWAP1 PUSH1 0x40 MSTORE SWAP1 PUSH1 0xE0 SHL PUSH1 0x20 DUP3 ADD DUP1 MLOAD PUSH1 0x1 PUSH1 0x1 PUSH1 0xE0 SHL SUB DUP4 DUP2 DUP4 AND OR DUP4 MSTORE POP POP POP POP PUSH1 0x40 MLOAD PUSH2 0x2941 SWAP2 SWAP1 PUSH2 0x3CB3 JUMP JUMPDEST PUSH1 0x0 PUSH1 0x40 MLOAD DUP1 DUP4 SUB DUP2 PUSH1 0x0 DUP7 GAS CALL SWAP2 POP POP RETURNDATASIZE DUP1 PUSH1 0x0 DUP2 EQ PUSH2 0x297E JUMPI PUSH1 0x40 MLOAD SWAP2 POP PUSH1 0x1F NOT PUSH1 0x3F RETURNDATASIZE ADD AND DUP3 ADD PUSH1 0x40 MSTORE RETURNDATASIZE DUP3 MSTORE RETURNDATASIZE PUSH1 0x0 PUSH1 0x20 DUP5 ADD RETURNDATACOPY PUSH2 0x2983 JUMP JUMPDEST PUSH1 0x60 SWAP2 POP JUMPDEST POP SWAP2 POP SWAP2 POP DUP2 DUP1 ISZERO PUSH2 0x29AD JUMPI POP DUP1 MLOAD ISZERO DUP1 PUSH2 0x29AD JUMPI POP DUP1 DUP1 PUSH1 0x20 ADD SWAP1 MLOAD DUP2 ADD SWAP1 PUSH2 0x29AD SWAP2 SWAP1 PUSH2 0x39EF JUMP JUMPDEST PUSH2 0x29B6 JUMPI PUSH1 0x0 DUP1 REVERT JUMPDEST POP POP POP POP POP JUMP JUMPDEST PUSH1 0x6 SLOAD PUSH1 0x1 PUSH1 0x1 PUSH1 0x40 SHL SUB AND TIMESTAMP LT DUP1 ISZERO SWAP1 PUSH2 0x29EA JUMPI POP PUSH1 0x6 SLOAD PUSH1 0x1 PUSH1 0x40 SHL SWAP1 DIV PUSH1 0x1 PUSH1 0x1 PUSH1 0x40 SHL SUB AND TIMESTAMP GT ISZERO JUMPDEST PUSH2 0x2A06 JUMPI PUSH1 0x40 MLOAD PUSH3 0x461BCD PUSH1 0xE5 SHL DUP2 MSTORE PUSH1 0x4 ADD PUSH2 0xC92 SWAP1 PUSH2 0x49CC JUMP JUMPDEST PUSH1 0x8 DUP1 SLOAD PUSH1 0x1 PUSH1 0x80 SHL SWAP1 DIV PUSH1 0xFF AND ISZERO PUSH2 0x2A31 JUMPI PUSH1 0x40 MLOAD PUSH3 0x461BCD PUSH1 0xE5 SHL DUP2 MSTORE PUSH1 0x4 ADD PUSH2 0xC92 SWAP1 PUSH2 0x485F JUMP JUMPDEST PUSH1 0x1 PUSH1 0x1 PUSH1 0xA0 SHL SUB DUP4 AND PUSH1 0x0 SWAP1 DUP2 MSTORE PUSH1 0xD PUSH1 0x20 MSTORE PUSH1 0x40 DUP2 KECCAK256 SLOAD PUSH2 0x2A54 SWAP1 DUP5 PUSH2 0x2CD6 JUMP JUMPDEST DUP3 SLOAD SWAP1 SWAP2 POP PUSH1 0x1 PUSH1 0x88 SHL SWAP1 DIV PUSH1 0xFF AND ISZERO PUSH2 0x2AF3 JUMPI PUSH1 0xC SLOAD PUSH1 0x40 MLOAD PUSH4 0x1CD53D55 PUSH1 0xE0 SHL DUP2 MSTORE PUSH1 0x1 PUSH1 0x1 PUSH1 0xA0 SHL SUB SWAP1 SWAP2 AND SWAP1 PUSH4 0x1CD53D55 SWAP1 PUSH2 0x2A9A SWAP1 DUP8 SWAP1 DUP6 SWAP1 PUSH1 0x4 ADD PUSH2 0x3E17 JUMP JUMPDEST PUSH1 0x20 PUSH1 0x40 MLOAD DUP1 DUP4 SUB DUP2 DUP7 DUP1 EXTCODESIZE ISZERO DUP1 ISZERO PUSH2 0x2AB2 JUMPI PUSH1 0x0 DUP1 REVERT JUMPDEST POP GAS STATICCALL ISZERO DUP1 ISZERO PUSH2 0x2AC6 JUMPI RETURNDATASIZE PUSH1 0x0 DUP1 RETURNDATACOPY RETURNDATASIZE PUSH1 0x0 REVERT JUMPDEST POP POP POP POP PUSH1 0x40 MLOAD RETURNDATASIZE PUSH1 0x1F NOT PUSH1 0x1F DUP3 ADD AND DUP3 ADD DUP1 PUSH1 0x40 MSTORE POP DUP2 ADD SWAP1 PUSH2 0x2AEA SWAP2 SWAP1 PUSH2 0x39EF JUMP JUMPDEST PUSH2 0x2AF3 JUMPI PUSH1 0x0 DUP1 REVERT JUMPDEST PUSH1 0x1 PUSH1 0x1 PUSH1 0xA0 SHL SUB DUP5 AND PUSH1 0x0 SWAP1 DUP2 MSTORE PUSH1 0xD PUSH1 0x20 MSTORE PUSH1 0x40 SWAP1 KECCAK256 DUP2 SWAP1 SSTORE DUP2 SLOAD PUSH2 0x2B2C SWAP1 PUSH2 0x2B27 SWAP1 PUSH1 0x1 PUSH1 0x1 PUSH1 0x80 SHL SUB AND DUP6 PUSH2 0x2CD6 JUMP JUMPDEST PUSH2 0x2C72 JUMP JUMPDEST DUP3 SLOAD PUSH1 0x1 PUSH1 0x1 PUSH1 0x80 SHL SUB NOT AND PUSH1 0x1 PUSH1 0x1 PUSH1 0x80 SHL SUB SWAP2 SWAP1 SWAP2 AND OR DUP3 SSTORE PUSH1 0x40 MLOAD PUSH32 0x77511A636BA1F10551CC7B89C13FF66A6AC9344E8A917527817A9690B15AF7A SWAP1 PUSH2 0x186E SWAP1 DUP7 SWAP1 DUP7 SWAP1 PUSH2 0x3E17 JUMP JUMPDEST DUP1 DUP3 SUB DUP3 DUP2 GT ISZERO PUSH2 0x1D06 JUMPI PUSH1 0x40 MLOAD PUSH3 0x461BCD PUSH1 0xE5 SHL DUP2 MSTORE PUSH1 0x4 ADD PUSH2 0xC92 SWAP1 PUSH2 0x405E JUMP JUMPDEST CALLER SWAP1 JUMP JUMPDEST PUSH1 0x0 DUP3 DUP2 MSTORE PUSH1 0x20 DUP2 SWAP1 MSTORE PUSH1 0x40 SWAP1 KECCAK256 PUSH2 0x2BB8 SWAP1 DUP3 PUSH2 0x332F JUMP JUMPDEST ISZERO PUSH2 0xF3B JUMPI PUSH2 0x2BC5 PUSH2 0x2B9C JUMP JUMPDEST PUSH1 0x1 PUSH1 0x1 PUSH1 0xA0 SHL SUB AND DUP2 PUSH1 0x1 PUSH1 0x1 PUSH1 0xA0 SHL SUB AND DUP4 PUSH32 0x2F8788117E7EFF1D82E926EC794901D17C78024A50270940304540A733656F0D PUSH1 0x40 MLOAD PUSH1 0x40 MLOAD DUP1 SWAP2 SUB SWAP1 LOG4 POP POP JUMP JUMPDEST PUSH1 0x0 DUP3 DUP2 MSTORE PUSH1 0x20 DUP2 SWAP1 MSTORE PUSH1 0x40 SWAP1 KECCAK256 PUSH2 0x2C21 SWAP1 DUP3 PUSH2 0x3344 JUMP JUMPDEST ISZERO PUSH2 0xF3B JUMPI PUSH2 0x2C2E PUSH2 0x2B9C JUMP JUMPDEST PUSH1 0x1 PUSH1 0x1 PUSH1 0xA0 SHL SUB AND DUP2 PUSH1 0x1 PUSH1 0x1 PUSH1 0xA0 SHL SUB AND DUP4 PUSH32 0xF6391F5C32D9C69D2A47EA670B442974B53935D1EDC7FD64EB21E047A839171B PUSH1 0x40 MLOAD PUSH1 0x40 MLOAD DUP1 SWAP2 SUB SWAP1 LOG4 POP POP JUMP JUMPDEST PUSH1 0x0 PUSH1 0x1 PUSH1 0x1 PUSH1 0x80 SHL SUB DUP3 GT ISZERO PUSH2 0x2C9B JUMPI PUSH1 0x40 MLOAD PUSH3 0x461BCD PUSH1 0xE5 SHL DUP2 MSTORE PUSH1 0x4 ADD PUSH2 0xC92 SWAP1 PUSH2 0x4660 JUMP JUMPDEST POP SWAP1 JUMP JUMPDEST PUSH1 0x0 DUP2 ISZERO DUP1 PUSH2 0x2CBA JUMPI POP POP DUP1 DUP3 MUL DUP3 DUP3 DUP3 DUP2 PUSH2 0x2CB7 JUMPI INVALID JUMPDEST DIV EQ JUMPDEST PUSH2 0x1D06 JUMPI PUSH1 0x40 MLOAD PUSH3 0x461BCD PUSH1 0xE5 SHL DUP2 MSTORE PUSH1 0x4 ADD PUSH2 0xC92 SWAP1 PUSH2 0x4BA5 JUMP JUMPDEST DUP2 DUP2 ADD DUP2 DUP2 LT ISZERO PUSH2 0x1D06 JUMPI PUSH1 0x40 MLOAD PUSH3 0x461BCD PUSH1 0xE5 SHL DUP2 MSTORE PUSH1 0x4 ADD PUSH2 0xC92 SWAP1 PUSH2 0x475C JUMP JUMPDEST PUSH1 0x1 PUSH1 0x1 PUSH1 0xA0 SHL SUB DUP4 AND PUSH20 0xEEEEEEEEEEEEEEEEEEEEEEEEEEEEEEEEEEEEEEEE EQ ISZERO PUSH2 0x2D2D JUMPI PUSH2 0x2D28 DUP3 DUP3 PUSH2 0x3359 JUMP JUMPDEST PUSH2 0x2D38 JUMP JUMPDEST PUSH2 0x2D38 DUP4 DUP4 DUP4 PUSH2 0x33E6 JUMP JUMPDEST POP POP POP JUMP JUMPDEST PUSH1 0x0 DUP1 DUP3 GT PUSH2 0x2D5E JUMPI PUSH1 0x40 MLOAD PUSH3 0x461BCD PUSH1 0xE5 SHL DUP2 MSTORE PUSH1 0x4 ADD PUSH2 0xC92 SWAP1 PUSH2 0x4C2B JUMP JUMPDEST DUP2 DUP4 DUP2 PUSH2 0x2D67 JUMPI INVALID JUMPDEST DIV SWAP4 SWAP3 POP POP POP JUMP JUMPDEST PUSH1 0x0 PUSH1 0x1 PUSH1 0x1 PUSH1 0x40 SHL SUB DUP3 GT ISZERO PUSH2 0x2C9B JUMPI PUSH1 0x40 MLOAD PUSH3 0x461BCD PUSH1 0xE5 SHL DUP2 MSTORE PUSH1 0x4 ADD PUSH2 0xC92 SWAP1 PUSH2 0x4995 JUMP JUMPDEST PUSH1 0x0 PUSH2 0x1D03 DUP4 DUP4 PUSH2 0x340C JUMP JUMPDEST PUSH1 0x0 PUSH2 0x1D03 DUP4 PUSH1 0x1 PUSH1 0x1 PUSH1 0xA0 SHL SUB DUP5 AND PUSH2 0x3451 JUMP JUMPDEST DUP3 PUSH2 0x2DD6 JUMPI PUSH1 0x40 MLOAD PUSH3 0x461BCD PUSH1 0xE5 SHL DUP2 MSTORE PUSH1 0x4 ADD PUSH2 0xC92 SWAP1 PUSH2 0x4793 JUMP JUMPDEST DUP1 PUSH2 0x2DF3 JUMPI PUSH1 0x40 MLOAD PUSH3 0x461BCD PUSH1 0xE5 SHL DUP2 MSTORE PUSH1 0x4 ADD PUSH2 0xC92 SWAP1 PUSH2 0x4B37 JUMP JUMPDEST PUSH1 0x0 PUSH1 0x1 PUSH1 0x1 PUSH1 0x40 SHL SUB AND PUSH1 0x2 DUP6 DUP6 PUSH1 0x40 MLOAD PUSH2 0x2E10 SWAP3 SWAP2 SWAP1 PUSH2 0x3CA3 JUMP JUMPDEST SWAP1 DUP2 MSTORE PUSH1 0x40 MLOAD SWAP1 DUP2 SWAP1 SUB PUSH1 0x20 ADD SWAP1 KECCAK256 SLOAD PUSH1 0x1 PUSH1 0x1 PUSH1 0x40 SHL SUB PUSH5 0x100000000 SWAP1 SWAP2 DIV AND EQ ISZERO PUSH2 0x2EB6 JUMPI PUSH1 0x4 DUP1 SLOAD PUSH1 0x1 DUP2 ADD DUP3 SSTORE PUSH1 0x0 SWAP2 SWAP1 SWAP2 MSTORE PUSH2 0x2E75 SWAP1 PUSH32 0x8A35ACFBC15FF81A39AE7D344FD709F28E8600B4AA8C65C6B64BFE7FE36BD19B ADD DUP6 DUP6 PUSH2 0x357D JUMP JUMPDEST POP PUSH1 0x4 SLOAD PUSH1 0x40 MLOAD PUSH1 0x2 SWAP1 PUSH2 0x2E8C SWAP1 DUP8 SWAP1 DUP8 SWAP1 PUSH2 0x3CA3 JUMP JUMPDEST SWAP1 DUP2 MSTORE PUSH1 0x40 MLOAD SWAP1 DUP2 SWAP1 SUB PUSH1 0x20 ADD SWAP1 KECCAK256 DUP1 SLOAD PUSH4 0xFFFFFFFF SWAP3 SWAP1 SWAP3 AND PUSH4 0xFFFFFFFF NOT SWAP1 SWAP3 AND SWAP2 SWAP1 SWAP2 OR SWAP1 SSTORE JUMPDEST PUSH1 0x40 MLOAD DUP1 PUSH1 0x60 ADD PUSH1 0x40 MSTORE DUP1 PUSH1 0x2 DUP7 DUP7 PUSH1 0x40 MLOAD PUSH2 0x2ED3 SWAP3 SWAP2 SWAP1 PUSH2 0x3CA3 JUMP JUMPDEST SWAP1 DUP2 MSTORE PUSH1 0x40 DUP1 MLOAD PUSH1 0x20 SWAP3 DUP2 SWAP1 SUB DUP4 ADD SWAP1 KECCAK256 SLOAD PUSH4 0xFFFFFFFF AND DUP4 MSTORE TIMESTAMP PUSH1 0x1 PUSH1 0x1 PUSH1 0x40 SHL SUB AND DUP4 DUP4 ADD MSTORE DUP1 MLOAD PUSH1 0x1F DUP7 ADD DUP4 SWAP1 DIV DUP4 MUL DUP2 ADD DUP4 ADD DUP3 MSTORE DUP6 DUP2 MSTORE SWAP3 ADD SWAP2 SWAP1 DUP6 SWAP1 DUP6 SWAP1 DUP2 SWAP1 DUP5 ADD DUP4 DUP3 DUP1 DUP3 DUP5 CALLDATACOPY PUSH1 0x0 SWAP3 ADD SWAP2 SWAP1 SWAP2 MSTORE POP POP POP SWAP2 MSTORE POP PUSH1 0x40 MLOAD PUSH1 0x2 SWAP1 PUSH2 0x2F42 SWAP1 DUP8 SWAP1 DUP8 SWAP1 PUSH2 0x3CA3 JUMP JUMPDEST SWAP1 DUP2 MSTORE PUSH1 0x40 DUP1 MLOAD SWAP2 DUP3 SWAP1 SUB PUSH1 0x20 SWAP1 DUP2 ADD SWAP1 SWAP3 KECCAK256 DUP4 MLOAD DUP2 SLOAD DUP6 DUP6 ADD MLOAD PUSH1 0x1 PUSH1 0x1 PUSH1 0x40 SHL SUB AND PUSH5 0x100000000 MUL PUSH12 0xFFFFFFFFFFFFFFFF00000000 NOT PUSH4 0xFFFFFFFF SWAP1 SWAP4 AND PUSH4 0xFFFFFFFF NOT SWAP1 SWAP3 AND SWAP2 SWAP1 SWAP2 OR SWAP2 SWAP1 SWAP2 AND OR DUP2 SSTORE SWAP1 DUP4 ADD MLOAD DUP1 MLOAD SWAP2 SWAP3 PUSH2 0x2FB1 SWAP3 PUSH1 0x1 DUP6 ADD SWAP3 SWAP1 SWAP2 ADD SWAP1 PUSH2 0x35F7 JUMP JUMPDEST POP POP PUSH1 0x40 MLOAD PUSH2 0x2FC4 SWAP2 POP DUP6 SWAP1 DUP6 SWAP1 PUSH2 0x3CA3 JUMP JUMPDEST PUSH1 0x40 MLOAD DUP1 SWAP2 SUB SWAP1 KECCAK256 PUSH32 0xBAA206E5EA800EB88BCE099F453FEE53295B793B9D5D1CFC4CE4B6DB06A34F53 DUP4 DUP4 PUSH1 0x40 MLOAD PUSH2 0x2FFD SWAP3 SWAP2 SWAP1 PUSH2 0x3F83 JUMP JUMPDEST PUSH1 0x40 MLOAD DUP1 SWAP2 SUB SWAP1 LOG2 POP POP POP POP JUMP JUMPDEST PUSH1 0x6 SLOAD PUSH1 0x0 SWAP1 DUP2 SWAP1 PUSH2 0x3027 SWAP1 TIMESTAMP SWAP1 PUSH1 0x1 PUSH1 0x1 PUSH1 0x40 SHL SUB AND PUSH2 0x2B79 JUMP JUMPDEST PUSH1 0x7 SLOAD SWAP1 SWAP2 POP PUSH1 0x0 SWAP1 PUSH2 0x304A SWAP1 PUSH1 0x1 PUSH1 0x80 SHL SWAP1 DIV PUSH1 0x1 PUSH1 0x1 PUSH1 0x80 SHL SUB AND DUP4 PUSH2 0x2D3D JUMP JUMPDEST SWAP3 POP POP POP SWAP1 JUMP JUMPDEST PUSH1 0x1 PUSH1 0x1 PUSH1 0xA0 SHL SUB DUP2 AND ISZERO PUSH2 0x2776 JUMPI PUSH1 0xC DUP1 SLOAD PUSH1 0x1 PUSH1 0x1 PUSH1 0xA0 SHL SUB DUP4 AND PUSH1 0x1 PUSH1 0x1 PUSH1 0xA0 SHL SUB NOT SWAP1 SWAP2 AND OR SWAP1 SSTORE PUSH1 0x8 DUP1 SLOAD PUSH1 0xFF PUSH1 0x88 SHL NOT AND PUSH1 0x1 PUSH1 0x88 SHL OR SWAP1 SSTORE POP JUMP JUMPDEST PUSH1 0x0 PUSH2 0xCE2 DUP3 PUSH2 0x3469 JUMP JUMPDEST PUSH1 0x60 PUSH1 0x44 DUP3 MLOAD LT ISZERO PUSH2 0x30E4 JUMPI POP PUSH1 0x40 DUP1 MLOAD DUP1 DUP3 ADD SWAP1 SWAP2 MSTORE PUSH1 0x1D DUP2 MSTORE PUSH32 0x5472616E73616374696F6E2072657665727465642073696C656E746C79000000 PUSH1 0x20 DUP3 ADD MSTORE PUSH2 0xCE5 JUMP JUMPDEST PUSH1 0x4 DUP3 ADD SWAP2 POP DUP2 DUP1 PUSH1 0x20 ADD SWAP1 MLOAD DUP2 ADD SWAP1 PUSH2 0xCE2 SWAP2 SWAP1 PUSH2 0x3B85 JUMP JUMPDEST PUSH1 0x0 PUSH1 0x1 PUSH1 0x1 PUSH1 0x40 SHL SUB AND PUSH1 0x2 DUP4 DUP4 PUSH1 0x40 MLOAD PUSH2 0x311B SWAP3 SWAP2 SWAP1 PUSH2 0x3CA3 JUMP JUMPDEST SWAP1 DUP2 MSTORE PUSH1 0x40 MLOAD SWAP1 DUP2 SWAP1 SUB PUSH1 0x20 ADD SWAP1 KECCAK256 SLOAD PUSH1 0x1 PUSH1 0x1 PUSH1 0x40 SHL SUB PUSH5 0x100000000 SWAP1 SWAP2 DIV AND EQ ISZERO PUSH2 0x315B JUMPI PUSH1 0x40 MLOAD PUSH3 0x461BCD PUSH1 0xE5 SHL DUP2 MSTORE PUSH1 0x4 ADD PUSH2 0xC92 SWAP1 PUSH2 0x453D JUMP JUMPDEST PUSH1 0x0 PUSH1 0x1 PUSH1 0x2 DUP5 DUP5 PUSH1 0x40 MLOAD PUSH2 0x3171 SWAP3 SWAP2 SWAP1 PUSH2 0x3CA3 JUMP JUMPDEST SWAP1 DUP2 MSTORE PUSH1 0x40 MLOAD SWAP1 DUP2 SWAP1 SUB PUSH1 0x20 ADD SWAP1 KECCAK256 SLOAD PUSH1 0x4 SLOAD PUSH4 0xFFFFFFFF SWAP2 DUP3 AND SWAP3 SWAP1 SWAP3 SUB SWAP3 POP DUP3 AND PUSH1 0x0 NOT SWAP1 SWAP2 ADD EQ PUSH2 0x3252 JUMPI PUSH1 0x4 DUP1 SLOAD PUSH1 0x0 NOT DUP2 ADD SWAP1 DUP2 LT PUSH2 0x31B1 JUMPI INVALID JUMPDEST SWAP1 PUSH1 0x0 MSTORE PUSH1 0x20 PUSH1 0x0 KECCAK256 ADD PUSH1 0x4 DUP3 PUSH4 0xFFFFFFFF AND DUP2 SLOAD DUP2 LT PUSH2 0x31CE JUMPI INVALID JUMPDEST SWAP1 PUSH1 0x0 MSTORE PUSH1 0x20 PUSH1 0x0 KECCAK256 ADD SWAP1 DUP1 SLOAD PUSH1 0x1 DUP2 PUSH1 0x1 AND ISZERO PUSH2 0x100 MUL SUB AND PUSH1 0x2 SWAP1 DIV PUSH2 0x31F7 SWAP3 SWAP2 SWAP1 PUSH2 0x3665 JUMP JUMPDEST POP DUP1 PUSH1 0x1 ADD PUSH1 0x2 PUSH1 0x4 DUP4 PUSH4 0xFFFFFFFF AND DUP2 SLOAD DUP2 LT PUSH2 0x3211 JUMPI INVALID JUMPDEST SWAP1 PUSH1 0x0 MSTORE PUSH1 0x20 PUSH1 0x0 KECCAK256 ADD PUSH1 0x40 MLOAD PUSH2 0x3228 SWAP2 SWAP1 PUSH2 0x3CCF JUMP JUMPDEST SWAP1 DUP2 MSTORE PUSH1 0x40 MLOAD SWAP1 DUP2 SWAP1 SUB PUSH1 0x20 ADD SWAP1 KECCAK256 DUP1 SLOAD PUSH4 0xFFFFFFFF SWAP3 SWAP1 SWAP3 AND PUSH4 0xFFFFFFFF NOT SWAP1 SWAP3 AND SWAP2 SWAP1 SWAP2 OR SWAP1 SSTORE JUMPDEST PUSH1 0x4 DUP1 SLOAD DUP1 PUSH2 0x325D JUMPI INVALID JUMPDEST PUSH1 0x1 SWAP1 SUB DUP2 DUP2 SWAP1 PUSH1 0x0 MSTORE PUSH1 0x20 PUSH1 0x0 KECCAK256 ADD PUSH1 0x0 PUSH2 0x3279 SWAP2 SWAP1 PUSH2 0x36DA JUMP JUMPDEST SWAP1 SSTORE DUP3 DUP3 PUSH1 0x40 MLOAD PUSH2 0x328B SWAP3 SWAP2 SWAP1 PUSH2 0x3CA3 JUMP JUMPDEST PUSH1 0x40 MLOAD DUP1 SWAP2 SUB SWAP1 KECCAK256 PUSH32 0x4B5338540B4D1C0F6DD0308A25F633B7FF60472F894D711CFF9DD64E35C613B2 PUSH1 0x2 DUP6 DUP6 PUSH1 0x40 MLOAD PUSH2 0x32C6 SWAP3 SWAP2 SWAP1 PUSH2 0x3CA3 JUMP JUMPDEST SWAP1 DUP2 MSTORE PUSH1 0x20 ADD PUSH1 0x40 MLOAD DUP1 SWAP2 SUB SWAP1 KECCAK256 PUSH1 0x1 ADD PUSH1 0x40 MLOAD PUSH2 0x32E4 SWAP2 SWAP1 PUSH2 0x3FD4 JUMP JUMPDEST PUSH1 0x40 MLOAD DUP1 SWAP2 SUB SWAP1 LOG2 PUSH1 0x2 DUP4 DUP4 PUSH1 0x40 MLOAD PUSH2 0x32FE SWAP3 SWAP2 SWAP1 PUSH2 0x3CA3 JUMP JUMPDEST SWAP1 DUP2 MSTORE PUSH1 0x40 MLOAD SWAP1 DUP2 SWAP1 SUB PUSH1 0x20 ADD SWAP1 KECCAK256 DUP1 SLOAD PUSH12 0xFFFFFFFFFFFFFFFFFFFFFFFF NOT AND DUP2 SSTORE PUSH1 0x0 PUSH2 0x29B6 PUSH1 0x1 DUP4 ADD DUP3 PUSH2 0x36DA JUMP JUMPDEST PUSH1 0x0 PUSH2 0x1D03 DUP4 PUSH1 0x1 PUSH1 0x1 PUSH1 0xA0 SHL SUB DUP5 AND PUSH2 0x346D JUMP JUMPDEST PUSH1 0x0 PUSH2 0x1D03 DUP4 PUSH1 0x1 PUSH1 0x1 PUSH1 0xA0 SHL SUB DUP5 AND PUSH2 0x34B7 JUMP JUMPDEST PUSH1 0x40 DUP1 MLOAD PUSH1 0x0 DUP1 DUP3 MSTORE PUSH1 0x20 DUP3 ADD SWAP1 SWAP3 MSTORE PUSH1 0x1 PUSH1 0x1 PUSH1 0xA0 SHL SUB DUP5 AND SWAP1 DUP4 SWAP1 PUSH1 0x40 MLOAD PUSH2 0x3383 SWAP2 SWAP1 PUSH2 0x3CB3 JUMP JUMPDEST PUSH1 0x0 PUSH1 0x40 MLOAD DUP1 DUP4 SUB DUP2 DUP6 DUP8 GAS CALL SWAP3 POP POP POP RETURNDATASIZE DUP1 PUSH1 0x0 DUP2 EQ PUSH2 0x33C0 JUMPI PUSH1 0x40 MLOAD SWAP2 POP PUSH1 0x1F NOT PUSH1 0x3F RETURNDATASIZE ADD AND DUP3 ADD PUSH1 0x40 MSTORE RETURNDATASIZE DUP3 MSTORE RETURNDATASIZE PUSH1 0x0 PUSH1 0x20 DUP5 ADD RETURNDATACOPY PUSH2 0x33C5 JUMP JUMPDEST PUSH1 0x60 SWAP2 POP JUMPDEST POP POP SWAP1 POP DUP1 PUSH2 0x2D38 JUMPI PUSH1 0x40 MLOAD PUSH3 0x461BCD PUSH1 0xE5 SHL DUP2 MSTORE PUSH1 0x4 ADD PUSH2 0xC92 SWAP1 PUSH2 0x4AC7 JUMP JUMPDEST PUSH1 0x0 PUSH1 0x60 DUP5 PUSH1 0x1 PUSH1 0x1 PUSH1 0xA0 SHL SUB AND PUSH4 0xA9059CBB DUP6 DUP6 PUSH1 0x40 MLOAD PUSH1 0x24 ADD PUSH2 0x2908 SWAP3 SWAP2 SWAP1 PUSH2 0x3E17 JUMP JUMPDEST DUP2 SLOAD PUSH1 0x0 SWAP1 DUP3 LT PUSH2 0x342F JUMPI PUSH1 0x40 MLOAD PUSH3 0x461BCD PUSH1 0xE5 SHL DUP2 MSTORE PUSH1 0x4 ADD PUSH2 0xC92 SWAP1 PUSH2 0x410A JUMP JUMPDEST DUP3 PUSH1 0x0 ADD DUP3 DUP2 SLOAD DUP2 LT PUSH2 0x343E JUMPI INVALID JUMPDEST SWAP1 PUSH1 0x0 MSTORE PUSH1 0x20 PUSH1 0x0 KECCAK256 ADD SLOAD SWAP1 POP SWAP3 SWAP2 POP POP JUMP JUMPDEST PUSH1 0x0 SWAP1 DUP2 MSTORE PUSH1 0x1 SWAP2 SWAP1 SWAP2 ADD PUSH1 0x20 MSTORE PUSH1 0x40 SWAP1 KECCAK256 SLOAD ISZERO ISZERO SWAP1 JUMP JUMPDEST SLOAD SWAP1 JUMP JUMPDEST PUSH1 0x0 PUSH2 0x3479 DUP4 DUP4 PUSH2 0x3451 JUMP JUMPDEST PUSH2 0x34AF JUMPI POP DUP2 SLOAD PUSH1 0x1 DUP2 DUP2 ADD DUP5 SSTORE PUSH1 0x0 DUP5 DUP2 MSTORE PUSH1 0x20 DUP1 DUP3 KECCAK256 SWAP1 SWAP4 ADD DUP5 SWAP1 SSTORE DUP5 SLOAD DUP5 DUP3 MSTORE DUP3 DUP7 ADD SWAP1 SWAP4 MSTORE PUSH1 0x40 SWAP1 KECCAK256 SWAP2 SWAP1 SWAP2 SSTORE PUSH2 0x1D06 JUMP JUMPDEST POP PUSH1 0x0 PUSH2 0x1D06 JUMP JUMPDEST PUSH1 0x0 DUP2 DUP2 MSTORE PUSH1 0x1 DUP4 ADD PUSH1 0x20 MSTORE PUSH1 0x40 DUP2 KECCAK256 SLOAD DUP1 ISZERO PUSH2 0x3573 JUMPI DUP4 SLOAD PUSH1 0x0 NOT DUP1 DUP4 ADD SWAP2 SWAP1 DUP2 ADD SWAP1 PUSH1 0x0 SWAP1 DUP8 SWAP1 DUP4 SWAP1 DUP2 LT PUSH2 0x34EA JUMPI INVALID JUMPDEST SWAP1 PUSH1 0x0 MSTORE PUSH1 0x20 PUSH1 0x0 KECCAK256 ADD SLOAD SWAP1 POP DUP1 DUP8 PUSH1 0x0 ADD DUP5 DUP2 SLOAD DUP2 LT PUSH2 0x3507 JUMPI INVALID JUMPDEST PUSH1 0x0 SWAP2 DUP3 MSTORE PUSH1 0x20 DUP1 DUP4 KECCAK256 SWAP1 SWAP2 ADD SWAP3 SWAP1 SWAP3 SSTORE DUP3 DUP2 MSTORE PUSH1 0x1 DUP10 DUP2 ADD SWAP1 SWAP3 MSTORE PUSH1 0x40 SWAP1 KECCAK256 SWAP1 DUP5 ADD SWAP1 SSTORE DUP7 SLOAD DUP8 SWAP1 DUP1 PUSH2 0x3537 JUMPI INVALID JUMPDEST PUSH1 0x1 SWAP1 SUB DUP2 DUP2 SWAP1 PUSH1 0x0 MSTORE PUSH1 0x20 PUSH1 0x0 KECCAK256 ADD PUSH1 0x0 SWAP1 SSTORE SWAP1 SSTORE DUP7 PUSH1 0x1 ADD PUSH1 0x0 DUP8 DUP2 MSTORE PUSH1 0x20 ADD SWAP1 DUP2 MSTORE PUSH1 0x20 ADD PUSH1 0x0 KECCAK256 PUSH1 0x0 SWAP1 SSTORE PUSH1 0x1 SWAP5 POP POP POP POP POP PUSH2 0x1D06 JUMP JUMPDEST PUSH1 0x0 SWAP2 POP POP PUSH2 0x1D06 JUMP JUMPDEST DUP3 DUP1 SLOAD PUSH1 0x1 DUP2 PUSH1 0x1 AND ISZERO PUSH2 0x100 MUL SUB AND PUSH1 0x2 SWAP1 DIV SWAP1 PUSH1 0x0 MSTORE PUSH1 0x20 PUSH1 0x0 KECCAK256 SWAP1 PUSH1 0x1F ADD PUSH1 0x20 SWAP1 DIV DUP2 ADD SWAP3 DUP3 PUSH1 0x1F LT PUSH2 0x35BE JUMPI DUP3 DUP1 ADD PUSH1 0xFF NOT DUP3 CALLDATALOAD AND OR DUP6 SSTORE PUSH2 0x35EB JUMP JUMPDEST DUP3 DUP1 ADD PUSH1 0x1 ADD DUP6 SSTORE DUP3 ISZERO PUSH2 0x35EB JUMPI SWAP2 DUP3 ADD JUMPDEST DUP3 DUP2 GT ISZERO PUSH2 0x35EB JUMPI DUP3 CALLDATALOAD DUP3 SSTORE SWAP2 PUSH1 0x20 ADD SWAP2 SWAP1 PUSH1 0x1 ADD SWAP1 PUSH2 0x35D0 JUMP JUMPDEST POP PUSH2 0x2C9B SWAP3 SWAP2 POP PUSH2 0x371A JUMP JUMPDEST DUP3 DUP1 SLOAD PUSH1 0x1 DUP2 PUSH1 0x1 AND ISZERO PUSH2 0x100 MUL SUB AND PUSH1 0x2 SWAP1 DIV SWAP1 PUSH1 0x0 MSTORE PUSH1 0x20 PUSH1 0x0 KECCAK256 SWAP1 PUSH1 0x1F ADD PUSH1 0x20 SWAP1 DIV DUP2 ADD SWAP3 DUP3 PUSH1 0x1F LT PUSH2 0x3638 JUMPI DUP1 MLOAD PUSH1 0xFF NOT AND DUP4 DUP1 ADD OR DUP6 SSTORE PUSH2 0x35EB JUMP JUMPDEST DUP3 DUP1 ADD PUSH1 0x1 ADD DUP6 SSTORE DUP3 ISZERO PUSH2 0x35EB JUMPI SWAP2 DUP3 ADD JUMPDEST DUP3 DUP2 GT ISZERO PUSH2 0x35EB JUMPI DUP3 MLOAD DUP3 SSTORE SWAP2 PUSH1 0x20 ADD SWAP2 SWAP1 PUSH1 0x1 ADD SWAP1 PUSH2 0x364A JUMP JUMPDEST DUP3 DUP1 SLOAD PUSH1 0x1 DUP2 PUSH1 0x1 AND ISZERO PUSH2 0x100 MUL SUB AND PUSH1 0x2 SWAP1 DIV SWAP1 PUSH1 0x0 MSTORE PUSH1 0x20 PUSH1 0x0 KECCAK256 SWAP1 PUSH1 0x1F ADD PUSH1 0x20 SWAP1 DIV DUP2 ADD SWAP3 DUP3 PUSH1 0x1F LT PUSH2 0x369E JUMPI DUP1 SLOAD DUP6 SSTORE PUSH2 0x35EB JUMP JUMPDEST DUP3 DUP1 ADD PUSH1 0x1 ADD DUP6 SSTORE DUP3 ISZERO PUSH2 0x35EB JUMPI PUSH1 0x0 MSTORE PUSH1 0x20 PUSH1 0x0 KECCAK256 SWAP2 PUSH1 0x1F ADD PUSH1 0x20 SWAP1 DIV DUP3 ADD JUMPDEST DUP3 DUP2 GT ISZERO PUSH2 0x35EB JUMPI DUP3 SLOAD DUP3 SSTORE SWAP2 PUSH1 0x1 ADD SWAP2 SWAP1 PUSH1 0x1 ADD SWAP1 PUSH2 0x36BF JUMP JUMPDEST POP DUP1 SLOAD PUSH1 0x1 DUP2 PUSH1 0x1 AND ISZERO PUSH2 0x100 MUL SUB AND PUSH1 0x2 SWAP1 DIV PUSH1 0x0 DUP3 SSTORE DUP1 PUSH1 0x1F LT PUSH2 0x3700 JUMPI POP PUSH2 0x2776 JUMP JUMPDEST PUSH1 0x1F ADD PUSH1 0x20 SWAP1 DIV SWAP1 PUSH1 0x0 MSTORE PUSH1 0x20 PUSH1 0x0 KECCAK256 SWAP1 DUP2 ADD SWAP1 PUSH2 0x2776 SWAP2 SWAP1 JUMPDEST JUMPDEST DUP1 DUP3 GT ISZERO PUSH2 0x2C9B JUMPI PUSH1 0x0 DUP2 SSTORE PUSH1 0x1 ADD PUSH2 0x371B JUMP JUMPDEST PUSH1 0x0 DUP1 DUP4 PUSH1 0x1F DUP5 ADD SLT PUSH2 0x3740 JUMPI DUP2 DUP3 REVERT JUMPDEST POP DUP2 CALLDATALOAD PUSH1 0x1 PUSH1 0x1 PUSH1 0x40 SHL SUB DUP2 GT ISZERO PUSH2 0x3756 JUMPI DUP2 DUP3 REVERT JUMPDEST PUSH1 0x20 DUP4 ADD SWAP2 POP DUP4 PUSH1 0x20 DUP1 DUP4 MUL DUP6 ADD ADD GT ISZERO PUSH2 0x1A73 JUMPI PUSH1 0x0 DUP1 REVERT JUMPDEST PUSH1 0x0 DUP1 DUP4 PUSH1 0x1F DUP5 ADD SLT PUSH2 0x3781 JUMPI DUP2 DUP3 REVERT JUMPDEST POP DUP2 CALLDATALOAD PUSH1 0x1 PUSH1 0x1 PUSH1 0x40 SHL SUB DUP2 GT ISZERO PUSH2 0x3797 JUMPI DUP2 DUP3 REVERT JUMPDEST PUSH1 0x20 DUP4 ADD SWAP2 POP DUP4 PUSH1 0x20 DUP3 DUP6 ADD ADD GT ISZERO PUSH2 0x1A73 JUMPI PUSH1 0x0 DUP1 REVERT JUMPDEST PUSH1 0x0 PUSH1 0x20 DUP3 DUP5 SUB SLT ISZERO PUSH2 0x37C0 JUMPI DUP1 DUP2 REVERT JUMPDEST DUP2 CALLDATALOAD PUSH2 0x37CB DUP2 PUSH2 0x4D4C JUMP JUMPDEST SWAP4 SWAP3 POP POP POP JUMP JUMPDEST PUSH1 0x0 DUP1 PUSH1 0x0 DUP1 PUSH1 0x0 DUP1 PUSH1 0x0 DUP1 PUSH1 0x0 DUP1 PUSH1 0x0 PUSH2 0x160 DUP13 DUP15 SUB SLT ISZERO PUSH2 0x37F3 JUMPI DUP7 DUP8 REVERT JUMPDEST DUP12 CALLDATALOAD PUSH2 0x37FE DUP2 PUSH2 0x4D4C JUMP JUMPDEST SWAP11 POP PUSH1 0x20 DUP13 ADD CALLDATALOAD PUSH2 0x380E DUP2 PUSH2 0x4D4C JUMP JUMPDEST SWAP10 POP PUSH1 0x40 DUP13 ADD CALLDATALOAD SWAP9 POP PUSH1 0x60 DUP13 ADD CALLDATALOAD SWAP8 POP PUSH1 0x80 DUP13 ADD CALLDATALOAD SWAP7 POP PUSH1 0xA0 DUP13 ADD CALLDATALOAD PUSH2 0x3833 DUP2 PUSH2 0x4D4C JUMP JUMPDEST SWAP6 POP PUSH1 0xC0 DUP13 ADD CALLDATALOAD SWAP5 POP PUSH1 0xE0 DUP13 ADD CALLDATALOAD SWAP4 POP PUSH2 0x100 DUP13 ADD CALLDATALOAD PUSH2 0x3852 DUP2 PUSH2 0x4D4C JUMP JUMPDEST SWAP3 POP PUSH2 0x120 DUP13 ADD CALLDATALOAD PUSH2 0x3863 DUP2 PUSH2 0x4D4C JUMP JUMPDEST SWAP2 POP PUSH2 0x140 DUP13 ADD CALLDATALOAD PUSH2 0x3874 DUP2 PUSH2 0x4D4C JUMP JUMPDEST DUP1 SWAP2 POP POP SWAP3 SWAP6 SWAP9 SWAP12 POP SWAP3 SWAP6 SWAP9 SWAP12 SWAP1 SWAP4 SWAP7 SWAP10 POP JUMP JUMPDEST PUSH1 0x0 DUP1 PUSH1 0x40 DUP4 DUP6 SUB SLT ISZERO PUSH2 0x389A JUMPI DUP2 DUP3 REVERT JUMPDEST DUP3 CALLDATALOAD PUSH2 0x38A5 DUP2 PUSH2 0x4D4C JUMP JUMPDEST SWAP2 POP PUSH1 0x20 DUP4 ADD CALLDATALOAD PUSH2 0x38B5 DUP2 PUSH2 0x4D61 JUMP JUMPDEST DUP1 SWAP2 POP POP SWAP3 POP SWAP3 SWAP1 POP JUMP JUMPDEST PUSH1 0x0 DUP1 PUSH1 0x0 DUP1 PUSH1 0x0 DUP1 PUSH1 0x0 DUP1 PUSH1 0x0 DUP1 PUSH1 0x0 PUSH2 0x160 DUP13 DUP15 SUB SLT ISZERO PUSH2 0x37F3 JUMPI DUP1 DUP2 REVERT JUMPDEST PUSH1 0x0 DUP1 PUSH1 0x0 PUSH1 0x60 DUP5 DUP7 SUB SLT ISZERO PUSH2 0x38F5 JUMPI DUP3 DUP4 REVERT JUMPDEST DUP4 CALLDATALOAD PUSH2 0x3900 DUP2 PUSH2 0x4D4C JUMP JUMPDEST SWAP3 POP PUSH1 0x20 DUP5 ADD CALLDATALOAD SWAP2 POP PUSH1 0x40 DUP5 ADD CALLDATALOAD PUSH2 0x3917 DUP2 PUSH2 0x4D61 JUMP JUMPDEST DUP1 SWAP2 POP POP SWAP3 POP SWAP3 POP SWAP3 JUMP JUMPDEST PUSH1 0x0 DUP1 PUSH1 0x0 PUSH1 0x40 DUP5 DUP7 SUB SLT ISZERO PUSH2 0x3936 JUMPI DUP1 DUP2 REVERT JUMPDEST DUP4 CALLDATALOAD PUSH1 0x1 PUSH1 0x1 PUSH1 0x40 SHL SUB DUP2 GT ISZERO PUSH2 0x394B JUMPI DUP2 DUP3 REVERT JUMPDEST PUSH2 0x3957 DUP7 DUP3 DUP8 ADD PUSH2 0x372F JUMP JUMPDEST SWAP1 SWAP5 POP SWAP3 POP POP PUSH1 0x20 DUP5 ADD CALLDATALOAD PUSH2 0x3917 DUP2 PUSH2 0x4D61 JUMP JUMPDEST PUSH1 0x0 DUP1 PUSH1 0x0 DUP1 PUSH1 0x40 DUP6 DUP8 SUB SLT ISZERO PUSH2 0x3980 JUMPI DUP2 DUP3 REVERT JUMPDEST DUP5 CALLDATALOAD PUSH1 0x1 PUSH1 0x1 PUSH1 0x40 SHL SUB DUP1 DUP3 GT ISZERO PUSH2 0x3996 JUMPI DUP4 DUP5 REVERT JUMPDEST PUSH2 0x39A2 DUP9 DUP4 DUP10 ADD PUSH2 0x372F JUMP JUMPDEST SWAP1 SWAP7 POP SWAP5 POP PUSH1 0x20 DUP8 ADD CALLDATALOAD SWAP2 POP DUP1 DUP3 GT ISZERO PUSH2 0x39BA JUMPI DUP4 DUP5 REVERT JUMPDEST POP PUSH2 0x39C7 DUP8 DUP3 DUP9 ADD PUSH2 0x372F JUMP JUMPDEST SWAP6 SWAP9 SWAP5 SWAP8 POP SWAP6 POP POP POP POP JUMP JUMPDEST PUSH1 0x0 PUSH1 0x20 DUP3 DUP5 SUB SLT ISZERO PUSH2 0x39E4 JUMPI DUP1 DUP2 REVERT JUMPDEST DUP2 CALLDATALOAD PUSH2 0x37CB DUP2 PUSH2 0x4D61 JUMP JUMPDEST PUSH1 0x0 PUSH1 0x20 DUP3 DUP5 SUB SLT ISZERO PUSH2 0x3A00 JUMPI DUP1 DUP2 REVERT JUMPDEST DUP2 MLOAD PUSH2 0x37CB DUP2 PUSH2 0x4D61 JUMP JUMPDEST PUSH1 0x0 PUSH1 0x20 DUP3 DUP5 SUB SLT ISZERO PUSH2 0x3A1C JUMPI DUP1 DUP2 REVERT JUMPDEST POP CALLDATALOAD SWAP2 SWAP1 POP JUMP JUMPDEST PUSH1 0x0 DUP1 PUSH1 0x40 DUP4 DUP6 SUB SLT ISZERO PUSH2 0x3A35 JUMPI DUP2 DUP3 REVERT JUMPDEST DUP3 CALLDATALOAD SWAP2 POP PUSH1 0x20 DUP4 ADD CALLDATALOAD PUSH2 0x38B5 DUP2 PUSH2 0x4D4C JUMP JUMPDEST PUSH1 0x0 DUP1 PUSH1 0x40 DUP4 DUP6 SUB SLT ISZERO PUSH2 0x3A59 JUMPI DUP2 DUP3 REVERT JUMPDEST POP POP DUP1 CALLDATALOAD SWAP3 PUSH1 0x20 SWAP1 SWAP2 ADD CALLDATALOAD SWAP2 POP JUMP JUMPDEST PUSH1 0x0 DUP1 PUSH1 0x20 DUP4 DUP6 SUB SLT ISZERO PUSH2 0x3A7A JUMPI DUP2 DUP3 REVERT JUMPDEST DUP3 CALLDATALOAD PUSH1 0x1 PUSH1 0x1 PUSH1 0x40 SHL SUB DUP2 GT ISZERO PUSH2 0x3A8F JUMPI DUP3 DUP4 REVERT JUMPDEST PUSH2 0x3A9B DUP6 DUP3 DUP7 ADD PUSH2 0x3770 JUMP JUMPDEST SWAP1 SWAP7 SWAP1 SWAP6 POP SWAP4 POP POP POP POP JUMP JUMPDEST PUSH1 0x0 DUP1 PUSH1 0x0 DUP1 PUSH1 0x0 DUP1 PUSH1 0x0 DUP1 PUSH2 0x100 DUP10 DUP12 SUB SLT ISZERO PUSH2 0x3AC3 JUMPI DUP2 DUP3 REVERT JUMPDEST DUP9 CALLDATALOAD PUSH2 0x3ACE DUP2 PUSH2 0x4D4C JUMP JUMPDEST SWAP8 POP PUSH1 0x20 DUP10 ADD CALLDATALOAD PUSH2 0x3ADE DUP2 PUSH2 0x4D4C JUMP JUMPDEST SWAP7 POP PUSH1 0x40 DUP10 ADD CALLDATALOAD PUSH2 0x3AEE DUP2 PUSH2 0x4D4C JUMP JUMPDEST SWAP6 POP PUSH1 0x60 DUP10 ADD CALLDATALOAD SWAP5 POP PUSH1 0x80 DUP10 ADD CALLDATALOAD SWAP4 POP PUSH1 0xA0 DUP10 ADD CALLDATALOAD PUSH2 0x3B0C DUP2 PUSH2 0x4D6F JUMP JUMPDEST SWAP8 SWAP11 SWAP7 SWAP10 POP SWAP5 SWAP8 SWAP4 SWAP7 SWAP3 SWAP6 SWAP3 SWAP5 POP POP POP PUSH1 0xC0 DUP3 ADD CALLDATALOAD SWAP2 PUSH1 0xE0 ADD CALLDATALOAD SWAP1 JUMP JUMPDEST PUSH1 0x0 DUP1 PUSH1 0x0 DUP1 PUSH1 0x40 DUP6 DUP8 SUB SLT ISZERO PUSH2 0x3B3E JUMPI DUP2 DUP3 REVERT JUMPDEST DUP5 CALLDATALOAD PUSH1 0x1 PUSH1 0x1 PUSH1 0x40 SHL SUB DUP1 DUP3 GT ISZERO PUSH2 0x3B54 JUMPI DUP4 DUP5 REVERT JUMPDEST PUSH2 0x3B60 DUP9 DUP4 DUP10 ADD PUSH2 0x3770 JUMP JUMPDEST SWAP1 SWAP7 POP SWAP5 POP PUSH1 0x20 DUP8 ADD CALLDATALOAD SWAP2 POP DUP1 DUP3 GT ISZERO PUSH2 0x3B78 JUMPI DUP4 DUP5 REVERT JUMPDEST POP PUSH2 0x39C7 DUP8 DUP3 DUP9 ADD PUSH2 0x3770 JUMP JUMPDEST PUSH1 0x0 PUSH1 0x20 DUP3 DUP5 SUB SLT ISZERO PUSH2 0x3B96 JUMPI DUP1 DUP2 REVERT JUMPDEST DUP2 MLOAD PUSH1 0x1 PUSH1 0x1 PUSH1 0x40 SHL SUB DUP1 DUP3 GT ISZERO PUSH2 0x3BAC JUMPI DUP3 DUP4 REVERT JUMPDEST DUP2 DUP5 ADD SWAP2 POP DUP5 PUSH1 0x1F DUP4 ADD SLT PUSH2 0x3BBF JUMPI DUP3 DUP4 REVERT JUMPDEST DUP2 MLOAD DUP2 DUP2 GT ISZERO PUSH2 0x3BCD JUMPI DUP4 DUP5 REVERT JUMPDEST PUSH1 0x40 MLOAD PUSH1 0x1F DUP3 ADD PUSH1 0x1F NOT AND DUP2 ADD PUSH1 0x20 ADD DUP4 DUP2 GT DUP3 DUP3 LT OR ISZERO PUSH2 0x3BED JUMPI DUP6 DUP7 REVERT JUMPDEST PUSH1 0x40 MSTORE DUP2 DUP2 MSTORE DUP4 DUP3 ADD PUSH1 0x20 ADD DUP8 LT ISZERO PUSH2 0x3C04 JUMPI DUP5 DUP6 REVERT JUMPDEST PUSH2 0x3C15 DUP3 PUSH1 0x20 DUP4 ADD PUSH1 0x20 DUP8 ADD PUSH2 0x4D20 JUMP JUMPDEST SWAP7 SWAP6 POP POP POP POP POP POP JUMP JUMPDEST PUSH1 0x0 PUSH1 0x20 DUP3 DUP5 SUB SLT ISZERO PUSH2 0x3C30 JUMPI DUP1 DUP2 REVERT JUMPDEST POP MLOAD SWAP2 SWAP1 POP JUMP JUMPDEST PUSH1 0x0 DUP1 PUSH1 0x40 DUP4 DUP6 SUB SLT ISZERO PUSH2 0x3C49 JUMPI DUP2 DUP3 REVERT JUMPDEST DUP3 CALLDATALOAD SWAP2 POP PUSH1 0x20 DUP4 ADD CALLDATALOAD PUSH2 0x38B5 DUP2 PUSH2 0x4D61 JUMP JUMPDEST PUSH1 0x0 PUSH1 0x20 DUP3 DUP5 SUB SLT ISZERO PUSH2 0x3C6C JUMPI DUP1 DUP2 REVERT JUMPDEST DUP2 MLOAD PUSH2 0x37CB DUP2 PUSH2 0x4D6F JUMP JUMPDEST PUSH1 0x0 DUP2 MLOAD DUP1 DUP5 MSTORE PUSH2 0x3C8F DUP2 PUSH1 0x20 DUP7 ADD PUSH1 0x20 DUP7 ADD PUSH2 0x4D20 JUMP JUMPDEST PUSH1 0x1F ADD PUSH1 0x1F NOT AND SWAP3 SWAP1 SWAP3 ADD PUSH1 0x20 ADD SWAP3 SWAP2 POP POP JUMP JUMPDEST PUSH1 0x0 DUP3 DUP5 DUP4 CALLDATACOPY SWAP2 ADD SWAP1 DUP2 MSTORE SWAP2 SWAP1 POP JUMP JUMPDEST PUSH1 0x0 DUP3 MLOAD PUSH2 0x3CC5 DUP2 DUP5 PUSH1 0x20 DUP8 ADD PUSH2 0x4D20 JUMP JUMPDEST SWAP2 SWAP1 SWAP2 ADD SWAP3 SWAP2 POP POP JUMP JUMPDEST PUSH1 0x0 DUP1 DUP4 SLOAD PUSH1 0x1 DUP1 DUP3 AND PUSH1 0x0 DUP2 EQ PUSH2 0x3CEE JUMPI PUSH1 0x1 DUP2 EQ PUSH2 0x3D05 JUMPI PUSH2 0x3D34 JUMP JUMPDEST PUSH1 0xFF NOT DUP4 AND DUP7 MSTORE PUSH1 0x2 DUP4 DIV PUSH1 0x7F AND DUP7 ADD SWAP4 POP PUSH2 0x3D34 JUMP JUMPDEST PUSH1 0x2 DUP4 DIV DUP8 DUP7 MSTORE PUSH1 0x20 DUP1 DUP8 KECCAK256 DUP8 JUMPDEST DUP4 DUP2 LT ISZERO PUSH2 0x3D2C JUMPI DUP2 SLOAD DUP11 DUP3 ADD MSTORE SWAP1 DUP6 ADD SWAP1 DUP3 ADD PUSH2 0x3D13 JUMP JUMPDEST POP POP POP DUP7 ADD SWAP4 POP JUMPDEST POP SWAP2 SWAP6 SWAP5 POP POP POP POP POP JUMP JUMPDEST PUSH1 0x1 PUSH1 0x1 PUSH1 0xA0 SHL SUB SWAP2 SWAP1 SWAP2 AND DUP2 MSTORE PUSH1 0x20 ADD SWAP1 JUMP JUMPDEST PUSH1 0x1 PUSH1 0x1 PUSH1 0xA0 SHL SUB SWAP4 DUP5 AND DUP2 MSTORE SWAP2 SWAP1 SWAP3 AND PUSH1 0x20 DUP3 ADD MSTORE PUSH1 0x40 DUP2 ADD SWAP2 SWAP1 SWAP2 MSTORE PUSH1 0x60 ADD SWAP1 JUMP JUMPDEST PUSH1 0x1 PUSH1 0x1 PUSH1 0xA0 SHL SUB SWAP12 DUP13 AND DUP2 MSTORE SWAP10 DUP12 AND PUSH1 0x20 DUP12 ADD MSTORE PUSH1 0x40 DUP11 ADD SWAP9 SWAP1 SWAP9 MSTORE PUSH1 0x60 DUP10 ADD SWAP7 SWAP1 SWAP7 MSTORE PUSH1 0x80 DUP9 ADD SWAP5 SWAP1 SWAP5 MSTORE SWAP2 DUP8 AND PUSH1 0xA0 DUP8 ADD MSTORE PUSH1 0xC0 DUP7 ADD MSTORE PUSH1 0xE0 DUP6 ADD MSTORE DUP5 AND PUSH2 0x100 DUP5 ADD MSTORE DUP4 AND PUSH2 0x120 DUP4 ADD MSTORE SWAP1 SWAP2 AND PUSH2 0x140 DUP3 ADD MSTORE PUSH2 0x160 ADD SWAP1 JUMP JUMPDEST PUSH1 0x1 PUSH1 0x1 PUSH1 0xA0 SHL SUB SWAP8 DUP9 AND DUP2 MSTORE SWAP6 SWAP1 SWAP7 AND PUSH1 0x20 DUP7 ADD MSTORE PUSH1 0x40 DUP6 ADD SWAP4 SWAP1 SWAP4 MSTORE PUSH1 0x60 DUP5 ADD SWAP2 SWAP1 SWAP2 MSTORE PUSH1 0xFF AND PUSH1 0x80 DUP4 ADD MSTORE PUSH1 0xA0 DUP3 ADD MSTORE PUSH1 0xC0 DUP2 ADD SWAP2 SWAP1 SWAP2 MSTORE PUSH1 0xE0 ADD SWAP1 JUMP JUMPDEST PUSH1 0x1 PUSH1 0x1 PUSH1 0xA0 SHL SUB SWAP3 SWAP1 SWAP3 AND DUP3 MSTORE PUSH1 0x20 DUP3 ADD MSTORE PUSH1 0x40 ADD SWAP1 JUMP JUMPDEST PUSH1 0x1 PUSH1 0x1 PUSH1 0xA0 SHL SUB SWAP5 SWAP1 SWAP5 AND DUP5 MSTORE PUSH1 0x1 PUSH1 0x1 PUSH1 0x40 SHL SUB SWAP3 DUP4 AND PUSH1 0x20 DUP6 ADD MSTORE SWAP2 AND PUSH1 0x40 DUP4 ADD MSTORE ISZERO ISZERO PUSH1 0x60 DUP3 ADD MSTORE PUSH1 0x80 ADD SWAP1 JUMP JUMPDEST PUSH1 0x40 DUP1 DUP3 MSTORE DUP4 MLOAD SWAP1 DUP3 ADD DUP2 SWAP1 MSTORE PUSH1 0x0 SWAP1 PUSH1 0x20 SWAP1 PUSH1 0x60 DUP5 ADD SWAP1 DUP3 DUP8 ADD DUP5 JUMPDEST DUP3 DUP2 LT ISZERO PUSH2 0x3E9D JUMPI DUP2 MLOAD ISZERO ISZERO DUP5 MSTORE SWAP3 DUP5 ADD SWAP3 SWAP1 DUP5 ADD SWAP1 PUSH1 0x1 ADD PUSH2 0x3E7F JUMP JUMPDEST POP POP POP DUP4 DUP2 SUB DUP3 DUP6 ADD MSTORE DUP1 DUP6 MLOAD PUSH2 0x3EB4 DUP2 DUP5 PUSH2 0x3F67 JUMP JUMPDEST SWAP2 POP DUP2 SWAP3 POP DUP4 DUP2 MUL DUP3 ADD DUP5 DUP9 ADD DUP7 JUMPDEST DUP4 DUP2 LT ISZERO PUSH2 0x3EED JUMPI DUP6 DUP4 SUB DUP6 MSTORE PUSH2 0x3EDB DUP4 DUP4 MLOAD PUSH2 0x3C77 JUMP JUMPDEST SWAP5 DUP8 ADD SWAP5 SWAP3 POP SWAP1 DUP7 ADD SWAP1 PUSH1 0x1 ADD PUSH2 0x3EC3 JUMP JUMPDEST POP SWAP1 SWAP10 SWAP9 POP POP POP POP POP POP POP POP POP JUMP JUMPDEST PUSH1 0x0 PUSH1 0x20 DUP1 DUP4 ADD DUP2 DUP5 MSTORE DUP1 DUP6 MLOAD DUP1 DUP4 MSTORE PUSH1 0x40 DUP7 ADD SWAP2 POP PUSH1 0x40 DUP5 DUP3 MUL DUP8 ADD ADD SWAP3 POP DUP4 DUP8 ADD DUP6 JUMPDEST DUP3 DUP2 LT ISZERO PUSH2 0x3F4F JUMPI PUSH1 0x3F NOT DUP9 DUP7 SUB ADD DUP5 MSTORE PUSH2 0x3F3D DUP6 DUP4 MLOAD PUSH2 0x3C77 JUMP JUMPDEST SWAP5 POP SWAP3 DUP6 ADD SWAP3 SWAP1 DUP6 ADD SWAP1 PUSH1 0x1 ADD PUSH2 0x3F21 JUMP JUMPDEST POP SWAP3 SWAP8 SWAP7 POP POP POP POP POP POP POP JUMP JUMPDEST SWAP1 ISZERO ISZERO DUP2 MSTORE PUSH1 0x20 ADD SWAP1 JUMP JUMPDEST SWAP1 DUP2 MSTORE PUSH1 0x20 ADD SWAP1 JUMP JUMPDEST PUSH1 0x0 PUSH1 0x20 DUP3 MSTORE PUSH2 0x1D03 PUSH1 0x20 DUP4 ADD DUP5 PUSH2 0x3C77 JUMP JUMPDEST PUSH1 0x0 PUSH1 0x20 DUP3 MSTORE DUP3 PUSH1 0x20 DUP4 ADD MSTORE DUP3 DUP5 PUSH1 0x40 DUP5 ADD CALLDATACOPY DUP2 DUP4 ADD PUSH1 0x40 SWAP1 DUP2 ADD SWAP2 SWAP1 SWAP2 MSTORE PUSH1 0x1F SWAP1 SWAP3 ADD PUSH1 0x1F NOT AND ADD ADD SWAP2 SWAP1 POP JUMP JUMPDEST PUSH1 0x0 PUSH1 0x40 DUP3 MSTORE PUSH2 0x3FC5 PUSH1 0x40 DUP4 ADD DUP6 PUSH2 0x3C77 JUMP JUMPDEST SWAP1 POP DUP3 PUSH1 0x20 DUP4 ADD MSTORE SWAP4 SWAP3 POP POP POP JUMP JUMPDEST PUSH1 0x0 PUSH1 0x20 DUP1 DUP4 ADD DUP2 DUP5 MSTORE DUP3 DUP6 SLOAD PUSH1 0x1 DUP1 DUP3 AND PUSH1 0x0 DUP2 EQ PUSH2 0x3FFB JUMPI PUSH1 0x1 DUP2 EQ PUSH2 0x4019 JUMPI PUSH2 0x4051 JUMP JUMPDEST PUSH1 0x2 DUP4 DIV PUSH1 0x7F AND DUP6 MSTORE PUSH1 0xFF NOT DUP4 AND PUSH1 0x40 DUP10 ADD MSTORE PUSH1 0x60 DUP9 ADD SWAP4 POP PUSH2 0x4051 JUMP JUMPDEST PUSH1 0x2 DUP4 DIV DUP1 DUP7 MSTORE PUSH2 0x4029 DUP11 PUSH2 0x4D14 JUMP JUMPDEST DUP9 JUMPDEST DUP3 DUP2 LT ISZERO PUSH2 0x4047 JUMPI DUP2 SLOAD DUP12 DUP3 ADD PUSH1 0x40 ADD MSTORE SWAP1 DUP5 ADD SWAP1 DUP9 ADD PUSH2 0x402B JUMP JUMPDEST DUP11 ADD PUSH1 0x40 ADD SWAP6 POP POP POP JUMPDEST POP SWAP2 SWAP8 SWAP7 POP POP POP POP POP POP POP JUMP JUMPDEST PUSH1 0x20 DUP1 DUP3 MSTORE PUSH1 0x15 SWAP1 DUP3 ADD MSTORE PUSH21 0x426F72696E674D6174683A20556E646572666C6F77 PUSH1 0x58 SHL PUSH1 0x40 DUP3 ADD MSTORE PUSH1 0x60 ADD SWAP1 JUMP JUMPDEST PUSH1 0x20 DUP1 DUP3 MSTORE PUSH1 0x30 SWAP1 DUP3 ADD MSTORE PUSH32 0x4879706572626F6C696341756374696F6E3A205061796D656E74206375727265 PUSH1 0x40 DUP3 ADD MSTORE PUSH16 0x6E6379206973206E6F7420455243323 PUSH1 0x84 SHL PUSH1 0x60 DUP3 ADD MSTORE PUSH1 0x80 ADD SWAP1 JUMP JUMPDEST PUSH1 0x20 DUP1 DUP3 MSTORE PUSH1 0x13 SWAP1 DUP3 ADD MSTORE PUSH19 0x105B1C9958591E481A5B9A5D1A585B1A5CD959 PUSH1 0x6A SHL PUSH1 0x40 DUP3 ADD MSTORE PUSH1 0x60 ADD SWAP1 JUMP JUMPDEST PUSH1 0x20 DUP1 DUP3 MSTORE PUSH1 0x22 SWAP1 DUP3 ADD MSTORE PUSH32 0x456E756D657261626C655365743A20696E646578206F7574206F6620626F756E PUSH1 0x40 DUP3 ADD MSTORE PUSH2 0x6473 PUSH1 0xF0 SHL PUSH1 0x60 DUP3 ADD MSTORE PUSH1 0x80 ADD SWAP1 JUMP JUMPDEST PUSH1 0x20 DUP1 DUP3 MSTORE PUSH1 0x39 SWAP1 DUP3 ADD MSTORE PUSH32 0x4879706572626F6C696341756374696F6E3A20746F74616C20746F6B656E7320 PUSH1 0x40 DUP3 ADD MSTORE PUSH32 0x6D7573742062652067726561746572207468616E207A65726F00000000000000 PUSH1 0x60 DUP3 ADD MSTORE PUSH1 0x80 ADD SWAP1 JUMP JUMPDEST PUSH1 0x20 DUP1 DUP3 MSTORE PUSH1 0x2F SWAP1 DUP3 ADD MSTORE PUSH32 0x416363657373436F6E74726F6C3A2073656E646572206D75737420626520616E PUSH1 0x40 DUP3 ADD MSTORE PUSH15 0x818591B5A5B881D1BC819DC985B9D PUSH1 0x8A SHL PUSH1 0x60 DUP3 ADD MSTORE PUSH1 0x80 ADD SWAP1 JUMP JUMPDEST PUSH1 0x20 DUP1 DUP3 MSTORE PUSH1 0x2E SWAP1 DUP3 ADD MSTORE PUSH32 0x4879706572626F6C696341756374696F6E3A2056616C7565206D757374206265 PUSH1 0x40 DUP3 ADD MSTORE PUSH14 0x20686967686572207468616E203 PUSH1 0x94 SHL PUSH1 0x60 DUP3 ADD MSTORE PUSH1 0x80 ADD SWAP1 JUMP JUMPDEST PUSH1 0x20 DUP1 DUP3 MSTORE DUP2 DUP2 ADD MSTORE PUSH32 0x4879706572626F6C696341756374696F6E3A206E6F742066696E616C697A6564 PUSH1 0x40 DUP3 ADD MSTORE PUSH1 0x60 ADD SWAP1 JUMP JUMPDEST PUSH1 0x20 DUP1 DUP3 MSTORE PUSH1 0x2D SWAP1 DUP3 ADD MSTORE PUSH32 0x4879706572626F6C696341756374696F6E3A2077616C6C657420697320746865 PUSH1 0x40 DUP3 ADD MSTORE PUSH13 0x207A65726F2061646472657373 PUSH1 0x98 SHL PUSH1 0x60 DUP3 ADD MSTORE PUSH1 0x80 ADD SWAP1 JUMP JUMPDEST PUSH1 0x20 DUP1 DUP3 MSTORE PUSH1 0x2A SWAP1 DUP3 ADD MSTORE PUSH32 0x4879706572626F6C696341756374696F6E3A2073656E646572206D7573742062 PUSH1 0x40 DUP3 ADD MSTORE PUSH10 0x329030B71030B236B4B7 PUSH1 0xB1 SHL PUSH1 0x60 DUP3 ADD MSTORE PUSH1 0x80 ADD SWAP1 JUMP JUMPDEST PUSH1 0x20 DUP1 DUP3 MSTORE PUSH1 0x52 SWAP1 DUP3 ADD MSTORE PUSH32 0x4E6F2061677265656D656E742070726F76696465642C20706C65617365207265 PUSH1 0x40 DUP3 ADD MSTORE PUSH32 0x766965772074686520736D61727420636F6E7472616374206265666F72652069 PUSH1 0x60 DUP3 ADD MSTORE PUSH18 0x1B9D195C9858DD1A5B99C81DDA5D1A081A5D PUSH1 0x72 SHL PUSH1 0x80 DUP3 ADD MSTORE PUSH1 0xA0 ADD SWAP1 JUMP JUMPDEST PUSH1 0x20 DUP1 DUP3 MSTORE PUSH1 0x38 SWAP1 DUP3 ADD MSTORE PUSH32 0x4879706572626F6C696341756374696F6E3A2054686520636F6D6D6974746564 PUSH1 0x40 DUP3 ADD MSTORE PUSH32 0x204554482065786365656473207468652062616C616E63650000000000000000 PUSH1 0x60 DUP3 ADD MSTORE PUSH1 0x80 ADD SWAP1 JUMP JUMPDEST PUSH1 0x20 DUP1 DUP3 MSTORE PUSH1 0x39 SWAP1 DUP3 ADD MSTORE PUSH32 0x4879706572626F6C696341756374696F6E3A20656E642074696D65206D757374 PUSH1 0x40 DUP3 ADD MSTORE PUSH32 0x206265206F6C646572207468616E2073746172742074696D6500000000000000 PUSH1 0x60 DUP3 ADD MSTORE PUSH1 0x80 ADD SWAP1 JUMP JUMPDEST PUSH1 0x20 DUP1 DUP3 MSTORE PUSH1 0x2F SWAP1 DUP3 ADD MSTORE PUSH32 0x4879706572626F6C696341756374696F6E3A2061756374696F6E20686173206E PUSH1 0x40 DUP3 ADD MSTORE PUSH15 0x1BDD08199A5B9A5CDA1959081E595D PUSH1 0x8A SHL PUSH1 0x60 DUP3 ADD MSTORE PUSH1 0x80 ADD SWAP1 JUMP JUMPDEST PUSH1 0x20 DUP1 DUP3 MSTORE PUSH1 0x36 SWAP1 DUP3 ADD MSTORE PUSH32 0x4879706572626F6C696341756374696F6E3A207061796D656E74206375727265 PUSH1 0x40 DUP3 ADD MSTORE PUSH22 0x6E6379206973206E6F74204554482061646472657373 PUSH1 0x50 SHL PUSH1 0x60 DUP3 ADD MSTORE PUSH1 0x80 ADD SWAP1 JUMP JUMPDEST PUSH1 0x20 DUP1 DUP3 MSTORE PUSH1 0x34 SWAP1 DUP3 ADD MSTORE PUSH32 0x4879706572626F6C696341756374696F6E3A2073746172742074696D65206973 PUSH1 0x40 DUP3 ADD MSTORE PUSH20 0x206265666F72652063757272656E742074696D65 PUSH1 0x60 SHL PUSH1 0x60 DUP3 ADD MSTORE PUSH1 0x80 ADD SWAP1 JUMP JUMPDEST PUSH1 0x20 DUP1 DUP3 MSTORE PUSH1 0x15 SWAP1 DUP3 ADD MSTORE PUSH21 0x111BD8DD5B595B9D081CDA1BDD5B1908195E1A5CDD PUSH1 0x5A SHL PUSH1 0x40 DUP3 ADD MSTORE PUSH1 0x60 ADD SWAP1 JUMP JUMPDEST PUSH1 0x20 DUP1 DUP3 MSTORE PUSH1 0x3A SWAP1 DUP3 ADD MSTORE PUSH32 0x4879706572626F6C696341756374696F6E3A20656E642074696D65206D757374 PUSH1 0x40 DUP3 ADD MSTORE PUSH32 0x206265206F6C646572207468616E207374617274207072696365000000000000 PUSH1 0x60 DUP3 ADD MSTORE PUSH1 0x80 ADD SWAP1 JUMP JUMPDEST PUSH1 0x20 DUP1 DUP3 MSTORE PUSH1 0x32 SWAP1 DUP3 ADD MSTORE PUSH32 0x4879706572626F6C696341756374696F6E3A207061796D656E74206375727265 PUSH1 0x40 DUP3 ADD MSTORE PUSH18 0x3731BC9034B9903737BA1030903A37B5B2B7 PUSH1 0x71 SHL PUSH1 0x60 DUP3 ADD MSTORE PUSH1 0x80 ADD SWAP1 JUMP JUMPDEST PUSH1 0x20 DUP1 DUP3 MSTORE PUSH1 0x25 SWAP1 DUP3 ADD MSTORE PUSH32 0x4879706572626F6C696341756374696F6E3A206E6F20746F6B656E7320746F20 PUSH1 0x40 DUP3 ADD MSTORE PUSH5 0x636C61696D PUSH1 0xD8 SHL PUSH1 0x60 DUP3 ADD MSTORE PUSH1 0x80 ADD SWAP1 JUMP JUMPDEST PUSH1 0x20 DUP1 DUP3 MSTORE PUSH1 0x1C SWAP1 DUP3 ADD MSTORE PUSH32 0x426F72696E674D6174683A2075696E74313238204F766572666C6F7700000000 PUSH1 0x40 DUP3 ADD MSTORE PUSH1 0x60 ADD SWAP1 JUMP JUMPDEST PUSH1 0x20 DUP1 DUP3 MSTORE PUSH1 0x30 SWAP1 DUP3 ADD MSTORE PUSH32 0x416363657373436F6E74726F6C3A2073656E646572206D75737420626520616E PUSH1 0x40 DUP3 ADD MSTORE PUSH16 0x2061646D696E20746F207265766F6B65 PUSH1 0x80 SHL PUSH1 0x60 DUP3 ADD MSTORE PUSH1 0x80 ADD SWAP1 JUMP JUMPDEST PUSH1 0x20 DUP1 DUP3 MSTORE PUSH1 0x2C SWAP1 DUP3 ADD MSTORE PUSH32 0x4879706572626F6C696341756374696F6E3A2061646D696E2069732074686520 PUSH1 0x40 DUP3 ADD MSTORE PUSH12 0x7A65726F2061646472657373 PUSH1 0xA0 SHL PUSH1 0x60 DUP3 ADD MSTORE PUSH1 0x80 ADD SWAP1 JUMP JUMPDEST PUSH1 0x20 DUP1 DUP3 MSTORE PUSH1 0xF SWAP1 DUP3 ADD MSTORE PUSH15 0x139BDD081A5B9A5D1A585B1A5E9959 PUSH1 0x8A SHL PUSH1 0x40 DUP3 ADD MSTORE PUSH1 0x60 ADD SWAP1 JUMP JUMPDEST PUSH1 0x20 DUP1 DUP3 MSTORE PUSH1 0x18 SWAP1 DUP3 ADD MSTORE PUSH32 0x426F72696E674D6174683A20416464204F766572666C6F770000000000000000 PUSH1 0x40 DUP3 ADD MSTORE PUSH1 0x60 ADD SWAP1 JUMP JUMPDEST PUSH1 0x20 DUP1 DUP3 MSTORE PUSH1 0x18 SWAP1 DUP3 ADD MSTORE PUSH32 0x5A65726F206E616D65206973206E6F7420616C6C6F7765640000000000000000 PUSH1 0x40 DUP3 ADD MSTORE PUSH1 0x60 ADD SWAP1 JUMP JUMPDEST PUSH1 0x20 DUP1 DUP3 MSTORE PUSH1 0xF SWAP1 DUP3 ADD MSTORE PUSH15 0x125B98DBDC9C9958DD081A5B9C1D5D PUSH1 0x8A SHL PUSH1 0x40 DUP3 ADD MSTORE PUSH1 0x60 ADD SWAP1 JUMP JUMPDEST PUSH1 0x20 DUP1 DUP3 MSTORE PUSH1 0x46 SWAP1 DUP3 ADD MSTORE PUSH32 0x4879706572626F6C696341756374696F6E3A20656E74657220616E20756E6978 PUSH1 0x40 DUP3 ADD MSTORE PUSH32 0x2074696D657374616D7020696E207365636F6E64732C206E6F74206D696C6973 PUSH1 0x60 DUP3 ADD MSTORE PUSH6 0x65636F6E6473 PUSH1 0xD0 SHL PUSH1 0x80 DUP3 ADD MSTORE PUSH1 0xA0 ADD SWAP1 JUMP JUMPDEST PUSH1 0x20 DUP1 DUP3 MSTORE PUSH1 0x2C SWAP1 DUP3 ADD MSTORE PUSH32 0x4879706572626F6C696341756374696F6E3A2061756374696F6E20616C726561 PUSH1 0x40 DUP3 ADD MSTORE PUSH12 0x191E48199A5B985B1A5E9959 PUSH1 0xA2 SHL PUSH1 0x60 DUP3 ADD MSTORE PUSH1 0x80 ADD SWAP1 JUMP JUMPDEST PUSH1 0x20 DUP1 DUP3 MSTORE PUSH1 0x2C SWAP1 DUP3 ADD MSTORE PUSH32 0x4879706572626F6C696341756374696F6E3A2061756374696F6E20616C726561 PUSH1 0x40 DUP3 ADD MSTORE PUSH12 0x191E4818DBDB5B5A5D1D1959 PUSH1 0xA2 SHL PUSH1 0x60 DUP3 ADD MSTORE PUSH1 0x80 ADD SWAP1 JUMP JUMPDEST PUSH1 0x20 DUP1 DUP3 MSTORE PUSH1 0x2C SWAP1 DUP3 ADD MSTORE PUSH32 0x4879706572626F6C696341756374696F6E3A20746F6B656E2069732074686520 PUSH1 0x40 DUP3 ADD MSTORE PUSH12 0x7A65726F2061646472657373 PUSH1 0xA0 SHL PUSH1 0x60 DUP3 ADD MSTORE PUSH1 0x80 ADD SWAP1 JUMP JUMPDEST PUSH1 0x20 DUP1 DUP3 MSTORE PUSH1 0x32 SWAP1 DUP3 ADD MSTORE PUSH32 0x4879706572626F6C696341756374696F6E3A20546F6B656E20646F6573206E6F PUSH1 0x40 DUP3 ADD MSTORE PUSH18 0x74206861766520313820646563696D616C73 PUSH1 0x70 SHL PUSH1 0x60 DUP3 ADD MSTORE PUSH1 0x80 ADD SWAP1 JUMP JUMPDEST PUSH1 0x20 DUP1 DUP3 MSTORE PUSH1 0x1B SWAP1 DUP3 ADD MSTORE PUSH32 0x426F72696E674D6174683A2075696E743634204F766572666C6F770000000000 PUSH1 0x40 DUP3 ADD MSTORE PUSH1 0x60 ADD SWAP1 JUMP JUMPDEST PUSH1 0x20 DUP1 DUP3 MSTORE PUSH1 0x28 SWAP1 DUP3 ADD MSTORE PUSH32 0x4879706572626F6C696341756374696F6E3A206F757473696465206175637469 PUSH1 0x40 DUP3 ADD MSTORE PUSH8 0x6F6E20686F757273 PUSH1 0xC0 SHL PUSH1 0x60 DUP3 ADD MSTORE PUSH1 0x80 ADD SWAP1 JUMP JUMPDEST PUSH1 0x20 DUP1 DUP3 MSTORE PUSH1 0x37 SWAP1 DUP3 ADD MSTORE PUSH32 0x4879706572626F6C696341756374696F6E3A206D696E696D756D207072696365 PUSH1 0x40 DUP3 ADD MSTORE PUSH32 0x206D7573742062652067726561746572207468616E2030000000000000000000 PUSH1 0x60 DUP3 ADD MSTORE PUSH1 0x80 ADD SWAP1 JUMP JUMPDEST PUSH1 0x20 DUP1 DUP3 MSTORE PUSH1 0x36 SWAP1 DUP3 ADD MSTORE PUSH32 0x4879706572626F6C696341756374696F6E3A2061756374696F6E2063616E6E6F PUSH1 0x40 DUP3 ADD MSTORE PUSH22 0x1D081A185D9948185B1C9958591E481CDD185C9D1959 PUSH1 0x52 SHL PUSH1 0x60 DUP3 ADD MSTORE PUSH1 0x80 ADD SWAP1 JUMP JUMPDEST PUSH1 0x20 DUP1 DUP3 MSTORE PUSH1 0x23 SWAP1 DUP3 ADD MSTORE PUSH32 0x5472616E7366657248656C7065723A204554485F5452414E534645525F464149 PUSH1 0x40 DUP3 ADD MSTORE PUSH3 0x131151 PUSH1 0xEA SHL PUSH1 0x60 DUP3 ADD MSTORE PUSH1 0x80 ADD SWAP1 JUMP JUMPDEST PUSH1 0x20 DUP1 DUP3 MSTORE PUSH1 0x13 SWAP1 DUP3 ADD MSTORE PUSH19 0x496E646578206F7574206F6620626F756E6473 PUSH1 0x68 SHL PUSH1 0x40 DUP3 ADD MSTORE PUSH1 0x60 ADD SWAP1 JUMP JUMPDEST PUSH1 0x20 DUP1 DUP3 MSTORE PUSH1 0x1A SWAP1 DUP3 ADD MSTORE PUSH32 0x53686F756C64206E6F74206265206120656D7074792064617461000000000000 PUSH1 0x40 DUP3 ADD MSTORE PUSH1 0x60 ADD SWAP1 JUMP JUMPDEST PUSH1 0x20 DUP1 DUP3 MSTORE PUSH1 0x1F SWAP1 DUP3 ADD MSTORE PUSH32 0x5265656E7472616E637947756172643A207265656E7472616E742063616C6C00 PUSH1 0x40 DUP3 ADD MSTORE PUSH1 0x60 ADD SWAP1 JUMP JUMPDEST PUSH1 0x20 DUP1 DUP3 MSTORE PUSH1 0x18 SWAP1 DUP3 ADD MSTORE PUSH32 0x426F72696E674D6174683A204D756C204F766572666C6F770000000000000000 PUSH1 0x40 DUP3 ADD MSTORE PUSH1 0x60 ADD SWAP1 JUMP JUMPDEST PUSH1 0x20 DUP1 DUP3 MSTORE PUSH1 0x2F SWAP1 DUP3 ADD MSTORE PUSH32 0x416363657373436F6E74726F6C3A2063616E206F6E6C792072656E6F756E6365 PUSH1 0x40 DUP3 ADD MSTORE PUSH15 0x103937B632B9903337B91039B2B633 PUSH1 0x89 SHL PUSH1 0x60 DUP3 ADD MSTORE PUSH1 0x80 ADD SWAP1 JUMP JUMPDEST PUSH1 0x20 DUP1 DUP3 MSTORE PUSH1 0x14 SWAP1 DUP3 ADD MSTORE PUSH20 0x426F72696E674D6174683A20446976207A65726F PUSH1 0x60 SHL PUSH1 0x40 DUP3 ADD MSTORE PUSH1 0x60 ADD SWAP1 JUMP JUMPDEST PUSH1 0x1 PUSH1 0x1 PUSH1 0x80 SHL SUB SWAP4 SWAP1 SWAP4 AND DUP4 MSTORE SWAP1 ISZERO ISZERO PUSH1 0x20 DUP4 ADD MSTORE ISZERO ISZERO PUSH1 0x40 DUP3 ADD MSTORE PUSH1 0x60 ADD SWAP1 JUMP JUMPDEST PUSH1 0x1 PUSH1 0x1 PUSH1 0x80 SHL SUB SWAP3 DUP4 AND DUP2 MSTORE SWAP2 AND PUSH1 0x20 DUP3 ADD MSTORE PUSH1 0x40 ADD SWAP1 JUMP JUMPDEST SWAP2 DUP3 MSTORE PUSH1 0x20 DUP3 ADD MSTORE PUSH1 0x40 ADD SWAP1 JUMP JUMPDEST PUSH1 0x1 PUSH1 0x1 PUSH1 0x40 SHL SUB SWAP4 DUP5 AND DUP2 MSTORE SWAP2 SWAP1 SWAP3 AND PUSH1 0x20 DUP3 ADD MSTORE PUSH1 0x1 PUSH1 0x1 PUSH1 0x80 SHL SUB SWAP1 SWAP2 AND PUSH1 0x40 DUP3 ADD MSTORE PUSH1 0x60 ADD SWAP1 JUMP JUMPDEST PUSH1 0x0 DUP1 DUP4 CALLDATALOAD PUSH1 0x1E NOT DUP5 CALLDATASIZE SUB ADD DUP2 SLT PUSH2 0x4CE6 JUMPI DUP3 DUP4 REVERT JUMPDEST DUP4 ADD DUP1 CALLDATALOAD SWAP2 POP PUSH1 0x1 PUSH1 0x1 PUSH1 0x40 SHL SUB DUP3 GT ISZERO PUSH2 0x4CFF JUMPI DUP3 DUP4 REVERT JUMPDEST PUSH1 0x20 ADD SWAP2 POP CALLDATASIZE DUP2 SWAP1 SUB DUP3 SGT ISZERO PUSH2 0x1A73 JUMPI PUSH1 0x0 DUP1 REVERT JUMPDEST PUSH1 0x0 SWAP1 DUP2 MSTORE PUSH1 0x20 SWAP1 KECCAK256 SWAP1 JUMP JUMPDEST PUSH1 0x0 JUMPDEST DUP4 DUP2 LT ISZERO PUSH2 0x4D3B JUMPI DUP2 DUP2 ADD MLOAD DUP4 DUP3 ADD MSTORE PUSH1 0x20 ADD PUSH2 0x4D23 JUMP JUMPDEST DUP4 DUP2 GT ISZERO PUSH2 0xEF1 JUMPI POP POP PUSH1 0x0 SWAP2 ADD MSTORE JUMP JUMPDEST PUSH1 0x1 PUSH1 0x1 PUSH1 0xA0 SHL SUB DUP2 AND DUP2 EQ PUSH2 0x2776 JUMPI PUSH1 0x0 DUP1 REVERT JUMPDEST DUP1 ISZERO ISZERO DUP2 EQ PUSH2 0x2776 JUMPI PUSH1 0x0 DUP1 REVERT JUMPDEST PUSH1 0xFF DUP2 AND DUP2 EQ PUSH2 0x2776 JUMPI PUSH1 0x0 DUP1 REVERT INVALID SWAP14 0x49 RETURN SWAP8 0xAE SWAP15 CALL 0xA8 CALLVALUE 0xB5 PUSH10 0xACB967799A367061E305 SWAP4 0x21 DUP2 LOG4 0x4F JUMPI PUSH20 0xDA873BFD4920756E6465727374616E6420746861 PUSH21 0x2049276D20696E746572616374696E672077697468 KECCAK256 PUSH2 0x2073 PUSH14 0x61727420636F6E74726163742E20 0x49 KECCAK256 PUSH22 0x6E6465727374616E64207468617420746F6B656E7320 PUSH4 0x6F6D6D69 PUSH21 0x656420617265207375626A65637420746F20746865 KECCAK256 PUSH21 0x6F6B656E2069737375657220616E64206C6F63616C KECCAK256 PUSH13 0x61777320776865726520617070 PUSH13 0x696361626C652E204920726576 PUSH10 0x6577656420636F646520 PUSH16 0x662074686520736D61727420636F6E74 PUSH19 0x61637420616E6420756E6465727374616E6420 PUSH10 0x742066756C6C792E2049 KECCAK256 PUSH2 0x6772 PUSH6 0x6520746F206E PUSH16 0x7420686F6C6420646576656C6F706572 PUSH20 0x206F72206F746865722070656F706C6520617373 PUSH16 0x63696174656420776974682074686520 PUSH17 0x726F6A656374206C6961626C6520666F72 KECCAK256 PUSH2 0x6E79 KECCAK256 PUSH13 0x6F73736573206F72206D697375 PUSH15 0x6465727374616E64696E6773976670 PUSH17 0xC54EF182B0F5858B034BEAC1B6F3089AA2 0xD3 XOR DUP12 0xB1 0xE8 SWAP3 SWAP16 0x4F 0xA9 0xB9 0x29 SWAP16 0x2D CREATE INVALID 0xD2 0xC7 PUSH23 0x48DE5860A4CC508CD0818C85B8B8A1AB4CEEEF8D981C89 JUMP 0xA6 LOG2 PUSH5 0x6970667358 0x22 SLT KECCAK256 SWAP10 STOP 0xAE 0xE3 SDIV DUP2 SWAP6 SSTORE 0xEA SLT 0xDD 0xDE EXTCODECOPY SWAP2 MOD CREATE PUSH22 0x5342E112B4CC02BF4CD5336766E93364736F6C634300 MOD 0xC STOP CALLER ",
  "sha1": "6ea25437e96085dd9aabaad8fe59d6a20da3980b",
  "source": "pragma solidity 0.6.12;\npragma experimental ABIEncoderV2;\n\n                   \n//----------------------------------------------------------------------------------\n//    I n s t a n t\n//\n//        .:mmm.         .:mmm:.       .ii.  .:SSSSSSSSSSSSS.     .oOOOOOOOOOOOo.  \n//      .mMM'':Mm.     .:MM'':Mm:.     .II:  :SSs..........     .oOO'''''''''''OOo.\n//    .:Mm'   ':Mm.   .:Mm'   'MM:.    .II:  'sSSSSSSSSSSSSS:.  :OO.           .OO:\n//  .'mMm'     ':MM:.:MMm'     ':MM:.  .II:  .:...........:SS.  'OOo:.........:oOO'\n//  'mMm'        ':MMmm'         'mMm:  II:  'sSSSSSSSSSSSSS'     'oOOOOOOOOOOOO'  \n//\n//----------------------------------------------------------------------------------\n//\n// Chef Gonpachi's Hyperbolic Auction\n////\n// A declining price auction with fair price discovery on a hyperbolic curve.\n//\n// Inspired by DutchSwap's Dutch Auctions\n// https://github.com/deepyr/DutchSwap\n// \n// This program is free software: you can redistribute it and/or modify\n// it under the terms of the GNU General Public License as published by\n// the Free Software Foundation, either version 3 of the License\n//\n// This program is distributed in the hope that it will be useful,\n// but WITHOUT ANY WARRANTY; without even the implied warranty of\n// MERCHANTABILITY or FITNESS FOR A PARTICULAR PURPOSE.  See the\n// GNU General Public License for more details.\n//\n// The above copyright notice and this permission notice shall be included \n// in all copies or substantial portions of the Software.\n//\n// Made for Sushi.com \n// \n// Enjoy. (c) Chef Gonpachi, Kusatoshi, SSMikazu 2021 \n// <https://github.com/chefgonpachi/MISO/>\n//\n// ---------------------------------------------------------------------\n// SPDX-License-Identifier: GPL-3.0                        \n// ---------------------------------------------------------------------\n\n\nimport \"../OpenZeppelin/utils/ReentrancyGuard.sol\";\nimport \"../Access/MISOAccessControls.sol\";\nimport \"../Utils/SafeTransfer.sol\";\nimport \"../Utils/BoringBatchable.sol\";\nimport \"../Utils/BoringERC20.sol\";\nimport \"../Utils/BoringMath.sol\";\nimport \"../Utils/Documents.sol\";\nimport \"../interfaces/IPointList.sol\";\nimport \"../interfaces/IMisoMarket.sol\";\n\n/// @notice Attribution to delta.financial\n/// @notice Attribution to dutchswap.com\n\ncontract HyperbolicAuction is IMisoMarket, MISOAccessControls, BoringBatchable, SafeTransfer, Documents , ReentrancyGuard  {\n    using BoringERC20 for IERC20;\n    using BoringMath for uint256;\n    using BoringMath128 for uint128;\n    using BoringMath64 for uint64;\n\n    // MISOMarket template id.\n    /// @dev For different marketplace types, this must be incremented.\n    uint256 public constant override marketTemplate = 4;\n    /// @dev The placeholder ETH address.\n    address private constant ETH_ADDRESS = 0xEeeeeEeeeEeEeeEeEeEeeEEEeeeeEeeeeeeeEEeE;\n\n    /// @notice Main market variables.\n    struct MarketInfo {\n        uint64 startTime;\n        uint64 endTime;\n        uint128 totalTokens;\n    }\n    MarketInfo public marketInfo;\n\n    /// @notice Market price variables.\n    struct MarketPrice {\n        uint128 minimumPrice;\n        uint128 alpha;\n        // GP: Can be added later as exponent factor\n        // uint16 factor;\n    }\n    MarketPrice public marketPrice;\n\n    /// @notice Market dynamic variables.\n    struct MarketStatus {\n        uint128 commitmentsTotal;\n        bool finalized;\n        bool usePointList;\n\n    }\n    MarketStatus public marketStatus;\n\n    /// @notice The token being sold.\n    address public auctionToken; \n    /// @notice The currency the auction accepts for payment. Can be ETH or token address.\n    address public paymentCurrency;  \n    /// @notice Where the auction funds will get paid.\n    address payable public wallet;  \n    /// @notice Address that manages auction approvals.\n    address public pointList;\n\n    /// @notice The commited amount of accounts.\n    mapping(address => uint256) public commitments;\n    /// @notice Amount of tokens to claim per address.\n    mapping(address => uint256) public claimed;\n\n    /// @notice Event for updating auction times.  Needs to be before auction starts.\n    event AuctionTimeUpdated(uint256 startTime, uint256 endTime); \n    /// @notice Event for updating auction prices. Needs to be before auction starts.\n    event AuctionPriceUpdated( uint256 minimumPrice); \n    /// @notice Event for updating auction wallet. Needs to be before auction starts.\n    event AuctionWalletUpdated(address wallet); \n\n    event AddedCommitment(address addr, uint256 commitment);\n\n    /// @notice Event for finalization of the auction.\n    event AuctionFinalized();\n    /// @notice Event for cancellation of the auction.\n    event AuctionCancelled();\n\n    /**\n     * @notice Initializes main contract variables and transfers funds for the auction.\n     * @dev Init function\n     * @param _funder The address that funds the token for HyperbolicAuction\n     * @param _token Address of the token being sold\n     * @param _paymentCurrency The currency the HyperbolicAuction accepts for payment. Can be ETH or token address\n     * @param _totalTokens The total number of tokens to sell in auction\n     * @param _startTime Auction start time\n     * @param _endTime Auction end time\n     * @param _factor Inflection point of the auction\n     * @param _minimumPrice The minimum auction price\n     * @param _admin Address that can finalize auction.\n     * @param _pointList Address that will manage auction approvals.\n     * @param _wallet Address where collected funds will be forwarded to\n     */\n    function initAuction(\n        address _funder,\n        address _token,\n        uint256 _totalTokens,\n        uint256 _startTime,\n        uint256 _endTime,\n        address _paymentCurrency,\n        uint256 _factor,\n        uint256 _minimumPrice,\n        address _admin,\n        address _pointList,\n        address payable _wallet\n    ) public {\n        require(_endTime < 10000000000, \"HyperbolicAuction: enter an unix timestamp in seconds, not miliseconds\");\n        require(_startTime >= block.timestamp, \"HyperbolicAuction: start time is before current time\");\n        require(_totalTokens > 0,\"HyperbolicAuction: total tokens must be greater than zero\");\n        require(_endTime > _startTime, \"HyperbolicAuction: end time must be older than start time\");\n        require(_minimumPrice > 0, \"HyperbolicAuction: minimum price must be greater than 0\"); \n        require(_wallet != address(0), \"HyperbolicAuction: wallet is the zero address\");\n        require(_admin != address(0), \"HyperbolicAuction: admin is the zero address\");\n        require(_token != address(0), \"HyperbolicAuction: token is the zero address\");\n        require(IERC20(_token).decimals() == 18, \"HyperbolicAuction: Token does not have 18 decimals\");\n        if (_paymentCurrency != ETH_ADDRESS) {\n            require(IERC20(_paymentCurrency).decimals() > 0, \"HyperbolicAuction: Payment currency is not ERC20\");\n        }\n\n        marketInfo.startTime = BoringMath.to64(_startTime);\n        marketInfo.endTime = BoringMath.to64(_endTime);\n        marketInfo.totalTokens = BoringMath.to128(_totalTokens);\n\n        marketPrice.minimumPrice = BoringMath.to128(_minimumPrice);\n\n        auctionToken = _token;\n        paymentCurrency = _paymentCurrency;\n        wallet = _wallet;\n\n        initAccessControls(_admin);\n        \n        _setList(_pointList);\n\n         // factor = exponent which can later be used to alter the curve\n        uint256 _duration = _endTime - _startTime;\n        uint256 _alpha = _duration.mul(_minimumPrice);\n        marketPrice.alpha = BoringMath.to128(_alpha);\n\n        _safeTransferFrom(_token, _funder, _totalTokens);\n    }\n\n\n    ///--------------------------------------------------------\n    /// Auction Pricing\n    ///--------------------------------------------------------\n\n    /**\n     * @notice Calculates the average price of each token from all commitments.\n     * @return Average token price.\n     */\n    function tokenPrice() public view returns (uint256) {\n        return uint256(marketStatus.commitmentsTotal)\n            .mul(1e18).div(uint256(marketInfo.totalTokens));\n    }\n\n    /**\n     * @notice Returns auction price in any time.\n     * @return Fixed start price or minimum price if outside of auction time, otherwise calculated current price.\n     */\n    function priceFunction() public view returns (uint256) {\n        /// @dev Return Auction Price\n        if (block.timestamp <= uint256(marketInfo.startTime)) {\n            return uint256(-1);\n        }\n        if (block.timestamp >= uint256(marketInfo.endTime)) {\n            return uint256(marketPrice.minimumPrice);\n        }\n        return _currentPrice();\n    }\n\n    /// @notice The current clearing price of the Hyperbolic auction\n    function clearingPrice() public view returns (uint256) {\n        /// @dev If auction successful, return tokenPrice\n        if (tokenPrice() > priceFunction()) {\n            return tokenPrice();\n        }\n        return priceFunction();\n    }\n\n    /**\n     * @notice Calculates price during the auction.\n     * @return Current auction price.\n     */\n    function _currentPrice() private view returns (uint256) {\n        uint256 elapsed = block.timestamp.sub(uint256(marketInfo.startTime));\n        uint256 currentPrice = uint256(marketPrice.alpha).div(elapsed);\n        return currentPrice;\n    }\n\n    ///--------------------------------------------------------\n    /// Commit to buying tokens!\n    ///--------------------------------------------------------\n\n    /**\n     * @notice Buy Tokens by committing ETH to this contract address\n     * @dev Needs sufficient gas limit for additional state changes\n     */\n    receive() external payable {\n        revertBecauseUserDidNotProvideAgreement();\n    }\n\n    /** \n     * @dev Attribution to the awesome delta.financial contracts\n    */  \n    function marketParticipationAgreement() public pure returns (string memory) {\n        return \"I understand that I'm interacting with a smart contract. I understand that tokens commited are subject to the token issuer and local laws where applicable. I reviewed code of the smart contract and understand it fully. I agree to not hold developers or other people associated with the project liable for any losses or misunderstandings\";\n    }\n    /** \n     * @dev Not using modifiers is a purposeful choice for code readability.\n    */ \n    function revertBecauseUserDidNotProvideAgreement() internal pure {\n        revert(\"No agreement provided, please review the smart contract before interacting with it\");\n    }\n\n    /**\n     * @notice Checks the amount of ETH to commit and adds the commitment. Refunds the buyer if commit is too high.\n     * @param _beneficiary Auction participant ETH address.\n     */\n    function commitEth(\n        address payable _beneficiary,\n        bool readAndAgreedToMarketParticipationAgreement\n    ) \n        public payable\n    {\n        require(paymentCurrency == ETH_ADDRESS, \"HyperbolicAuction: payment currency is not ETH address\"); \n        // Get ETH able to be committed\n        if(readAndAgreedToMarketParticipationAgreement == false) {\n            revertBecauseUserDidNotProvideAgreement();\n        }\n        require(msg.value > 0, \"HyperbolicAuction: Value must be higher than 0\");\n        uint256 ethToTransfer = calculateCommitment(msg.value);\n\n        /// @notice Accept ETH Payments.\n        uint256 ethToRefund = msg.value.sub(ethToTransfer);\n        if (ethToTransfer > 0) {\n            _addCommitment(_beneficiary, ethToTransfer);\n        }\n        /// @notice Return any ETH to be refunded.\n        if (ethToRefund > 0) {\n            _beneficiary.transfer(ethToRefund);\n        }\n\n        /// @notice Revert if commitmentsTotal exceeds the balance\n        require(marketStatus.commitmentsTotal <= address(this).balance, \"HyperbolicAuction: The committed ETH exceeds the balance\");\n    }\n\n    /**\n     * @notice Buy Tokens by commiting approved ERC20 tokens to this contract address.\n     * @param _amount Amount of tokens to commit.\n     */\n    function commitTokens(uint256 _amount, bool readAndAgreedToMarketParticipationAgreement) public {\n        commitTokensFrom(msg.sender, _amount, readAndAgreedToMarketParticipationAgreement);\n    }\n\n    /// @dev Users must approve contract prior to committing tokens to auction\n    function commitTokensFrom(\n        address _from,\n        uint256 _amount,\n        bool readAndAgreedToMarketParticipationAgreement\n    )\n        public   nonReentrant  \n    {\n        require(paymentCurrency != ETH_ADDRESS, \"HyperbolicAuction: payment currency is not a token\");\n        if(readAndAgreedToMarketParticipationAgreement == false) {\n            revertBecauseUserDidNotProvideAgreement();\n        }\n        uint256 tokensToTransfer = calculateCommitment(_amount);\n        if (tokensToTransfer > 0) {\n            _safeTransferFrom(paymentCurrency, msg.sender, tokensToTransfer);\n            _addCommitment(_from, tokensToTransfer);\n        }\n    }\n\n    /**\n     * @notice Calculates total amount of tokens committed at current auction price.\n     * @return Number of tokens commited.\n     */\n    function totalTokensCommitted() public view returns (uint256) {\n        return uint256(marketStatus.commitmentsTotal).mul(1e18).div(clearingPrice());\n    }\n\n    /**\n     * @notice Calculates the amount able to be committed during an auction.\n     * @param _commitment Commitment user would like to make.\n     * @return Amount allowed to commit.\n     */\n    function calculateCommitment(uint256 _commitment) public view returns (uint256 ) {\n        uint256 maxCommitment = uint256(marketInfo.totalTokens).mul(clearingPrice()).div(1e18);\n        if (uint256(marketStatus.commitmentsTotal).add(_commitment) > maxCommitment) {\n            return maxCommitment.sub(uint256(marketStatus.commitmentsTotal));\n        }\n        return _commitment;\n    }\n\n\n    /**\n     * @notice Updates commitment for this address and total commitment of the auction.\n     * @param _addr Bidders address.\n     * @param _commitment The amount to commit.\n     */\n    function _addCommitment(address _addr, uint256 _commitment) internal {\n        require(block.timestamp >= uint256(marketInfo.startTime) && block.timestamp <= uint256(marketInfo.endTime), \"HyperbolicAuction: outside auction hours\"); \n        MarketStatus storage status = marketStatus;\n        require(!status.finalized, \"HyperbolicAuction: auction already finalized\");\n\n        uint256 newCommitment = commitments[_addr].add(_commitment);\n        if (status.usePointList) {\n            require(IPointList(pointList).hasPoints(_addr, newCommitment));\n        }\n\n        commitments[_addr] = newCommitment;\n        status.commitmentsTotal = BoringMath.to128(uint256(status.commitmentsTotal).add(_commitment));\n        emit AddedCommitment(_addr, _commitment);\n    }\n\n\n    ///--------------------------------------------------------\n    /// Finalize Auction\n    ///--------------------------------------------------------\n\n    /**\n     * @notice Successful if tokens sold equals totalTokens.\n     * @return True if tokenPrice is bigger or equal clearingPrice.\n     */\n    function auctionSuccessful() public view returns (bool) {\n        return tokenPrice() >= clearingPrice();\n    }\n\n    /**\n     * @notice Checks if the auction has ended.\n     * @return True if auction is successful or time has ended.\n     */\n    function auctionEnded() public view returns (bool) {\n        return auctionSuccessful() || block.timestamp > uint256(marketInfo.endTime);\n    }\n\n    /**\n     * @return Returns true if market has been finalized\n     */\n    function finalized() public view returns (bool) {\n        return marketStatus.finalized;\n    }\n\n    /**\n     * @return Returns true if 7 days have passed since the end of the auction\n     */\n    function finalizeTimeExpired() public view returns (bool) {\n        return uint256(marketInfo.endTime) + 7 days < block.timestamp;\n    }\n\n    /**\n     * @notice Auction finishes successfully above the reserve\n     * @dev Transfer contract funds to initialized wallet.\n     */\n    function finalize()\n        public   nonReentrant \n    {\n        require(hasAdminRole(msg.sender) \n                || wallet == msg.sender\n                || hasSmartContractRole(msg.sender) \n                || finalizeTimeExpired(), \"HyperbolicAuction: sender must be an admin\");\n        MarketStatus storage status = marketStatus;\n        MarketInfo storage info = marketInfo;\n        require(info.totalTokens > 0, \"Not initialized\");\n\n        require(!status.finalized, \"HyperbolicAuction: auction already finalized\");\n        if (auctionSuccessful()) {\n            /// @dev Successful auction\n            /// @dev Transfer contributed tokens to wallet.\n            _safeTokenPayment(paymentCurrency, wallet, uint256(status.commitmentsTotal));\n        } else {\n            /// @dev Failed auction\n            /// @dev Return auction tokens back to wallet.\n            require(block.timestamp > uint256(info.endTime), \"HyperbolicAuction: auction has not finished yet\"); \n            _safeTokenPayment(auctionToken, wallet, uint256(info.totalTokens));\n        }\n        status.finalized = true;\n        emit AuctionFinalized();\n    }\n\n    /**\n     * @notice Cancel Auction\n     * @dev Admin can cancel the auction before it starts\n     */\n    function cancelAuction() public   nonReentrant  \n    {\n        require(hasAdminRole(msg.sender));\n        MarketStatus storage status = marketStatus;\n        require(!status.finalized, \"HyperbolicAuction: auction already finalized\");\n        require( uint256(status.commitmentsTotal) == 0, \"HyperbolicAuction: auction already committed\" );\n\n        _safeTokenPayment(auctionToken, wallet, uint256(marketInfo.totalTokens));\n\n        status.finalized = true;\n        emit AuctionCancelled();\n    }\n\n    /** \n     * @notice How many tokens the user is able to claim.\n     * @param _user Auction participant address.\n     * @return claimerCommitment User commitments reduced by already claimed tokens.\n     */\n    function tokensClaimable(address _user) public view returns (uint256 claimerCommitment) {\n        if (commitments[_user] == 0) return 0;\n        uint256 unclaimedTokens = IERC20(auctionToken).balanceOf(address(this));\n        claimerCommitment = commitments[_user].mul(uint256(marketInfo.totalTokens)).div(uint256(marketStatus.commitmentsTotal));\n        claimerCommitment = claimerCommitment.sub(claimed[_user]);\n\n        if(claimerCommitment > unclaimedTokens){\n            claimerCommitment = unclaimedTokens;\n        }\n    }\n\n\n   /// @notice Withdraws bought tokens, or returns commitment if the sale is unsuccessful.\n    function withdrawTokens() public  {\n        withdrawTokens(msg.sender);\n    }\n\n    /// @notice Withdraw your tokens once the Auction has ended.\n    function withdrawTokens(address payable beneficiary) \n        public   nonReentrant \n    {\n        if (auctionSuccessful()) {\n            require(marketStatus.finalized, \"HyperbolicAuction: not finalized\");\n            /// @dev Successful auction! Transfer claimed tokens.\n            uint256 tokensToClaim = tokensClaimable(beneficiary);\n            require(tokensToClaim > 0, \"HyperbolicAuction: no tokens to claim\"); \n            claimed[beneficiary] = claimed[beneficiary].add(tokensToClaim);\n\n            _safeTokenPayment(auctionToken, beneficiary, tokensToClaim);\n        } else {\n            /// @dev Auction did not meet reserve price.\n            /// @dev Return committed funds back to user.\n            require(block.timestamp > uint256(marketInfo.endTime), \"HyperbolicAuction: auction has not finished yet\");\n            uint256 fundsCommitted = commitments[beneficiary];\n            commitments[beneficiary] = 0; // Stop multiple withdrawals and free some gas\n            _safeTokenPayment(paymentCurrency, beneficiary, fundsCommitted);\n        }\n    }\n\n\n    //--------------------------------------------------------\n    // Documents\n    //--------------------------------------------------------\n\n    function setDocument(string calldata _name, string calldata _data) external {\n        require(hasAdminRole(msg.sender) );\n        _setDocument( _name, _data);\n    }\n\n    function setDocuments(string[] calldata _name, string[] calldata _data) external {\n        require(hasAdminRole(msg.sender) );\n        uint256 numDocs = _name.length;\n        for (uint256 i = 0; i < numDocs; i++) {\n            _setDocument( _name[i], _data[i]);\n        }\n    }\n\n    function removeDocument(string calldata _name) external {\n        require(hasAdminRole(msg.sender));\n        _removeDocument(_name);\n    }\n\n\n    //--------------------------------------------------------\n    // Point Lists\n    //--------------------------------------------------------\n\n\n    function setList(address _list) external {\n        require(hasAdminRole(msg.sender));\n        _setList(_list);\n    }\n\n    function enableList(bool _status) external {\n        require(hasAdminRole(msg.sender));\n        marketStatus.usePointList = _status;\n    }\n\n    function _setList(address _pointList) private {\n        if (_pointList != address(0)) {\n            pointList = _pointList;\n            marketStatus.usePointList = true;\n        }\n    }\n\n    //--------------------------------------------------------\n    // Setter Functions\n    //--------------------------------------------------------\n\n    /**\n     * @notice Admin can set start and end time through this function.\n     * @param _startTime Auction start time.\n     * @param _endTime Auction end time.\n     */\n    function setAuctionTime(uint256 _startTime, uint256 _endTime) external {\n        require(hasAdminRole(msg.sender));\n        require(_startTime < 10000000000, \"HyperbolicAuction: enter an unix timestamp in seconds, not miliseconds\");\n        require(_endTime < 10000000000, \"HyperbolicAuction: enter an unix timestamp in seconds, not miliseconds\");\n        require(_startTime >= block.timestamp, \"HyperbolicAuction: start time is before current time\");\n        require(_endTime > _startTime, \"HyperbolicAuction: end time must be older than start price\");\n        require(marketStatus.commitmentsTotal == 0, \"HyperbolicAuction: auction cannot have already started\");\n\n        marketInfo.startTime = BoringMath.to64(_startTime);\n        marketInfo.endTime = BoringMath.to64(_endTime);\n\n        uint64 _duration = marketInfo.endTime - marketInfo.startTime;        \n        uint256 _alpha = uint256(_duration).mul(uint256(marketPrice.minimumPrice));\n        marketPrice.alpha = BoringMath.to128(_alpha);\n        \n        emit AuctionTimeUpdated(_startTime,_endTime);\n    }\n\n    /**\n     * @notice Admin can set start and min price through this function.\n     * @param _minimumPrice Auction minimum price.\n     */\n    function setAuctionPrice( uint256 _minimumPrice) external {\n        require(hasAdminRole(msg.sender));\n        require(_minimumPrice > 0, \"HyperbolicAuction: minimum price must be greater than 0\"); \n        require(marketStatus.commitmentsTotal == 0, \"HyperbolicAuction: auction cannot have already started\");\n\n        marketPrice.minimumPrice = BoringMath.to128(_minimumPrice);\n\n        uint64 _duration = marketInfo.endTime - marketInfo.startTime;        \n        uint256 _alpha = uint256(_duration).mul(uint256(marketPrice.minimumPrice));\n        marketPrice.alpha = BoringMath.to128(_alpha);\n\n        emit AuctionPriceUpdated(_minimumPrice);\n    }\n\n    /**\n     * @notice Admin can set the auction wallet through this function.\n     * @param _wallet Auction wallet is where funds will be sent.\n     */\n    function setAuctionWallet(address payable _wallet) external {\n        require(hasAdminRole(msg.sender));\n        require(_wallet != address(0), \"HyperbolicAuction: wallet is the zero address\");\n\n        wallet = _wallet;\n\n        emit AuctionWalletUpdated(_wallet);\n    }\n\n\n\n    ///--------------------------------------------------------\n    /// Market Launchers\n    ///--------------------------------------------------------\n\n    function init(bytes calldata _data) external override payable {\n    }\n\n    /**\n     * @notice Decodes and hands auction data to the initAuction function.\n     * @param _data Encoded data for initialization.\n     */\n    function initMarket(bytes calldata _data) public override {\n        (\n        address _funder,\n        address _token,\n        uint256 _totalTokens,\n        uint256 _startTime,\n        uint256 _endTime,\n        address _paymentCurrency,\n        uint256 _factor,\n        uint256 _minimumPrice,\n        address _admin,\n        address _pointList,\n        address payable _wallet\n        ) = abi.decode(_data, (\n            address,\n            address,\n            uint256,\n            uint256,\n            uint256,\n            address,\n            uint256,\n            uint256,\n            address,\n            address,\n            address\n        ));\n        initAuction(_funder, _token, _totalTokens, _startTime, _endTime, _paymentCurrency, _factor, _minimumPrice, _admin, _pointList, _wallet);\n    }\n\n    /**\n     * @notice Collects data to initialize the auction and encodes them.\n     * @param _funder The address that funds the token for HyperbolicAuction.\n     * @param _token Address of the token being sold.\n     * @param _totalTokens The total number of tokens to sell in auction.\n     * @param _startTime Auction start time.\n     * @param _endTime Auction end time.\n     * @param _paymentCurrency The currency the HyperbolicAuction accepts for payment. Can be ETH or token address.\n     * @param _factor Inflection point of the auction.\n     * @param _minimumPrice The minimum auction price.\n     * @param _wallet Address where collected funds will be forwarded to.\n     * @return _data All the data in bytes format.\n     */\n    function getAuctionInitData(\n        address _funder,\n        address _token,\n        uint256 _totalTokens,\n        uint256 _startTime,\n        uint256 _endTime,\n        address _paymentCurrency,\n        uint256 _factor,\n        uint256 _minimumPrice,\n        address _admin,\n        address _pointList,\n        address payable _wallet\n    )\n        external pure returns (bytes memory _data) {\n            return abi.encode(\n                _funder,\n                _token,\n                _totalTokens,\n                _startTime,\n                _endTime,\n                _paymentCurrency,\n                _factor,\n                _minimumPrice,\n                _admin,\n                _pointList,\n                _wallet\n            );\n        }\n\n    function getBaseInformation() external view returns(\n        address , \n        uint64 ,\n        uint64 ,\n        bool \n    ) {\n        return (auctionToken, marketInfo.startTime, marketInfo.endTime, marketStatus.finalized);\n    }\n    \n    function getTotalTokens() external view returns(uint256) {\n        return uint256(marketInfo.totalTokens);\n    }\n}\n",
  "sourcePath": "contracts/Auctions/HyperbolicAuction.sol",
  "type": "contract"
}