{
  "abi": [
    {
      "inputs": [],
      "name": "accessControls",
      "outputs": [
        {
          "internalType": "contract MISOAccessControls",
          "name": "",
          "type": "address"
        }
      ],
      "stateMutability": "view",
      "type": "function"
    },
    {
      "inputs": [
        {
          "internalType": "address",
          "name": "_token",
          "type": "address"
        },
        {
          "internalType": "address",
          "name": "_owner",
          "type": "address"
        },
        {
          "internalType": "address",
          "name": "_spender",
          "type": "address"
        }
      ],
      "name": "allowance",
      "outputs": [
        {
          "internalType": "uint256",
          "name": "",
          "type": "uint256"
        }
      ],
      "stateMutability": "view",
      "type": "function"
    },
    {
      "inputs": [],
      "name": "farmFactory",
      "outputs": [
        {
          "internalType": "contract IMisoFarmFactory",
          "name": "",
          "type": "address"
        }
      ],
      "stateMutability": "view",
      "type": "function"
    },
    {
      "inputs": [
        {
          "internalType": "address payable",
          "name": "_batchAuction",
          "type": "address"
        }
      ],
      "name": "getBatchAuctionInfo",
      "outputs": [
        {
          "components": [
            {
              "internalType": "address",
              "name": "addr",
              "type": "address"
            },
            {
              "internalType": "address",
              "name": "paymentCurrency",
              "type": "address"
            },
            {
              "internalType": "uint64",
              "name": "startTime",
              "type": "uint64"
            },
            {
              "internalType": "uint64",
              "name": "endTime",
              "type": "uint64"
            },
            {
              "internalType": "uint128",
              "name": "totalTokens",
              "type": "uint128"
            },
            {
              "internalType": "uint256",
              "name": "commitmentsTotal",
              "type": "uint256"
            },
            {
              "internalType": "uint256",
              "name": "minimumCommitmentAmount",
              "type": "uint256"
            },
            {
              "internalType": "bool",
              "name": "finalized",
              "type": "bool"
            },
            {
              "internalType": "bool",
              "name": "usePointList",
              "type": "bool"
            },
            {
              "internalType": "bool",
              "name": "auctionSuccessful",
              "type": "bool"
            },
            {
              "components": [
                {
                  "internalType": "address",
                  "name": "addr",
                  "type": "address"
                },
                {
                  "internalType": "uint256",
                  "name": "decimals",
                  "type": "uint256"
                },
                {
                  "internalType": "string",
                  "name": "name",
                  "type": "string"
                },
                {
                  "internalType": "string",
                  "name": "symbol",
                  "type": "string"
                }
              ],
              "internalType": "struct TokenHelper.TokenInfo",
              "name": "tokenInfo",
              "type": "tuple"
            },
            {
              "components": [
                {
                  "internalType": "address",
                  "name": "addr",
                  "type": "address"
                },
                {
                  "internalType": "uint256",
                  "name": "decimals",
                  "type": "uint256"
                },
                {
                  "internalType": "string",
                  "name": "name",
                  "type": "string"
                },
                {
                  "internalType": "string",
                  "name": "symbol",
                  "type": "string"
                }
              ],
              "internalType": "struct TokenHelper.TokenInfo",
              "name": "paymentCurrencyInfo",
              "type": "tuple"
            },
            {
              "components": [
                {
                  "internalType": "string",
                  "name": "name",
                  "type": "string"
                },
                {
                  "internalType": "string",
                  "name": "data",
                  "type": "string"
                },
                {
                  "internalType": "uint256",
                  "name": "lastModified",
                  "type": "uint256"
                }
              ],
              "internalType": "struct DocumentHepler.Document[]",
              "name": "documents",
              "type": "tuple[]"
            }
          ],
          "internalType": "struct MarketHelper.BatchAuctionInfo",
          "name": "",
          "type": "tuple"
        }
      ],
      "stateMutability": "view",
      "type": "function"
    },
    {
      "inputs": [
        {
          "internalType": "address",
          "name": "_crowdsale",
          "type": "address"
        }
      ],
      "name": "getCrowdsaleInfo",
      "outputs": [
        {
          "components": [
            {
              "internalType": "address",
              "name": "addr",
              "type": "address"
            },
            {
              "internalType": "address",
              "name": "paymentCurrency",
              "type": "address"
            },
            {
              "internalType": "uint128",
              "name": "commitmentsTotal",
              "type": "uint128"
            },
            {
              "internalType": "uint128",
              "name": "totalTokens",
              "type": "uint128"
            },
            {
              "internalType": "uint128",
              "name": "rate",
              "type": "uint128"
            },
            {
              "internalType": "uint128",
              "name": "goal",
              "type": "uint128"
            },
            {
              "internalType": "uint64",
              "name": "startTime",
              "type": "uint64"
            },
            {
              "internalType": "uint64",
              "name": "endTime",
              "type": "uint64"
            },
            {
              "internalType": "bool",
              "name": "finalized",
              "type": "bool"
            },
            {
              "internalType": "bool",
              "name": "usePointList",
              "type": "bool"
            },
            {
              "internalType": "bool",
              "name": "auctionSuccessful",
              "type": "bool"
            },
            {
              "components": [
                {
                  "internalType": "address",
                  "name": "addr",
                  "type": "address"
                },
                {
                  "internalType": "uint256",
                  "name": "decimals",
                  "type": "uint256"
                },
                {
                  "internalType": "string",
                  "name": "name",
                  "type": "string"
                },
                {
                  "internalType": "string",
                  "name": "symbol",
                  "type": "string"
                }
              ],
              "internalType": "struct TokenHelper.TokenInfo",
              "name": "tokenInfo",
              "type": "tuple"
            },
            {
              "components": [
                {
                  "internalType": "address",
                  "name": "addr",
                  "type": "address"
                },
                {
                  "internalType": "uint256",
                  "name": "decimals",
                  "type": "uint256"
                },
                {
                  "internalType": "string",
                  "name": "name",
                  "type": "string"
                },
                {
                  "internalType": "string",
                  "name": "symbol",
                  "type": "string"
                }
              ],
              "internalType": "struct TokenHelper.TokenInfo",
              "name": "paymentCurrencyInfo",
              "type": "tuple"
            },
            {
              "components": [
                {
                  "internalType": "string",
                  "name": "name",
                  "type": "string"
                },
                {
                  "internalType": "string",
                  "name": "data",
                  "type": "string"
                },
                {
                  "internalType": "uint256",
                  "name": "lastModified",
                  "type": "uint256"
                }
              ],
              "internalType": "struct DocumentHepler.Document[]",
              "name": "documents",
              "type": "tuple[]"
            }
          ],
          "internalType": "struct MarketHelper.CrowdsaleInfo",
          "name": "",
          "type": "tuple"
        }
      ],
      "stateMutability": "view",
      "type": "function"
    },
    {
      "inputs": [
        {
          "internalType": "address",
          "name": "_document",
          "type": "address"
        }
      ],
      "name": "getDocuments",
      "outputs": [
        {
          "components": [
            {
              "internalType": "string",
              "name": "name",
              "type": "string"
            },
            {
              "internalType": "string",
              "name": "data",
              "type": "string"
            },
            {
              "internalType": "uint256",
              "name": "lastModified",
              "type": "uint256"
            }
          ],
          "internalType": "struct DocumentHepler.Document[]",
          "name": "",
          "type": "tuple[]"
        }
      ],
      "stateMutability": "view",
      "type": "function"
    },
    {
      "inputs": [
        {
          "internalType": "address payable",
          "name": "_dutchAuction",
          "type": "address"
        }
      ],
      "name": "getDutchAuctionInfo",
      "outputs": [
        {
          "components": [
            {
              "internalType": "address",
              "name": "addr",
              "type": "address"
            },
            {
              "internalType": "address",
              "name": "paymentCurrency",
              "type": "address"
            },
            {
              "internalType": "uint64",
              "name": "startTime",
              "type": "uint64"
            },
            {
              "internalType": "uint64",
              "name": "endTime",
              "type": "uint64"
            },
            {
              "internalType": "uint128",
              "name": "totalTokens",
              "type": "uint128"
            },
            {
              "internalType": "uint128",
              "name": "startPrice",
              "type": "uint128"
            },
            {
              "internalType": "uint128",
              "name": "minimumPrice",
              "type": "uint128"
            },
            {
              "internalType": "uint128",
              "name": "commitmentsTotal",
              "type": "uint128"
            },
            {
              "internalType": "bool",
              "name": "finalized",
              "type": "bool"
            },
            {
              "internalType": "bool",
              "name": "usePointList",
              "type": "bool"
            },
            {
              "internalType": "bool",
              "name": "auctionSuccessful",
              "type": "bool"
            },
            {
              "components": [
                {
                  "internalType": "address",
                  "name": "addr",
                  "type": "address"
                },
                {
                  "internalType": "uint256",
                  "name": "decimals",
                  "type": "uint256"
                },
                {
                  "internalType": "string",
                  "name": "name",
                  "type": "string"
                },
                {
                  "internalType": "string",
                  "name": "symbol",
                  "type": "string"
                }
              ],
              "internalType": "struct TokenHelper.TokenInfo",
              "name": "tokenInfo",
              "type": "tuple"
            },
            {
              "components": [
                {
                  "internalType": "address",
                  "name": "addr",
                  "type": "address"
                },
                {
                  "internalType": "uint256",
                  "name": "decimals",
                  "type": "uint256"
                },
                {
                  "internalType": "string",
                  "name": "name",
                  "type": "string"
                },
                {
                  "internalType": "string",
                  "name": "symbol",
                  "type": "string"
                }
              ],
              "internalType": "struct TokenHelper.TokenInfo",
              "name": "paymentCurrencyInfo",
              "type": "tuple"
            },
            {
              "components": [
                {
                  "internalType": "string",
                  "name": "name",
                  "type": "string"
                },
                {
                  "internalType": "string",
                  "name": "data",
                  "type": "string"
                },
                {
                  "internalType": "uint256",
                  "name": "lastModified",
                  "type": "uint256"
                }
              ],
              "internalType": "struct DocumentHepler.Document[]",
              "name": "documents",
              "type": "tuple[]"
            }
          ],
          "internalType": "struct MarketHelper.DutchAuctionInfo",
          "name": "",
          "type": "tuple"
        }
      ],
      "stateMutability": "view",
      "type": "function"
    },
    {
      "inputs": [
        {
          "internalType": "address payable",
          "name": "_hyperbolicAuction",
          "type": "address"
        }
      ],
      "name": "getHyperbolicAuctionInfo",
      "outputs": [
        {
          "components": [
            {
              "internalType": "address",
              "name": "addr",
              "type": "address"
            },
            {
              "internalType": "address",
              "name": "paymentCurrency",
              "type": "address"
            },
            {
              "internalType": "uint64",
              "name": "startTime",
              "type": "uint64"
            },
            {
              "internalType": "uint64",
              "name": "endTime",
              "type": "uint64"
            },
            {
              "internalType": "uint128",
              "name": "totalTokens",
              "type": "uint128"
            },
            {
              "internalType": "uint128",
              "name": "minimumPrice",
              "type": "uint128"
            },
            {
              "internalType": "uint128",
              "name": "alpha",
              "type": "uint128"
            },
            {
              "internalType": "uint128",
              "name": "commitmentsTotal",
              "type": "uint128"
            },
            {
              "internalType": "bool",
              "name": "finalized",
              "type": "bool"
            },
            {
              "internalType": "bool",
              "name": "usePointList",
              "type": "bool"
            },
            {
              "internalType": "bool",
              "name": "auctionSuccessful",
              "type": "bool"
            },
            {
              "components": [
                {
                  "internalType": "address",
                  "name": "addr",
                  "type": "address"
                },
                {
                  "internalType": "uint256",
                  "name": "decimals",
                  "type": "uint256"
                },
                {
                  "internalType": "string",
                  "name": "name",
                  "type": "string"
                },
                {
                  "internalType": "string",
                  "name": "symbol",
                  "type": "string"
                }
              ],
              "internalType": "struct TokenHelper.TokenInfo",
              "name": "tokenInfo",
              "type": "tuple"
            },
            {
              "components": [
                {
                  "internalType": "address",
                  "name": "addr",
                  "type": "address"
                },
                {
                  "internalType": "uint256",
                  "name": "decimals",
                  "type": "uint256"
                },
                {
                  "internalType": "string",
                  "name": "name",
                  "type": "string"
                },
                {
                  "internalType": "string",
                  "name": "symbol",
                  "type": "string"
                }
              ],
              "internalType": "struct TokenHelper.TokenInfo",
              "name": "paymentCurrencyInfo",
              "type": "tuple"
            },
            {
              "components": [
                {
                  "internalType": "string",
                  "name": "name",
                  "type": "string"
                },
                {
                  "internalType": "string",
                  "name": "data",
                  "type": "string"
                },
                {
                  "internalType": "uint256",
                  "name": "lastModified",
                  "type": "uint256"
                }
              ],
              "internalType": "struct DocumentHepler.Document[]",
              "name": "documents",
              "type": "tuple[]"
            }
          ],
          "internalType": "struct MarketHelper.HyperbolicAuctionInfo",
          "name": "",
          "type": "tuple"
        }
      ],
      "stateMutability": "view",
      "type": "function"
    },
    {
      "inputs": [
        {
          "internalType": "uint256",
          "name": "pageSize",
          "type": "uint256"
        },
        {
          "internalType": "uint256",
          "name": "pageNbr",
          "type": "uint256"
        },
        {
          "internalType": "uint256",
          "name": "offset",
          "type": "uint256"
        }
      ],
      "name": "getMarkets",
      "outputs": [
        {
          "components": [
            {
              "internalType": "address",
              "name": "addr",
              "type": "address"
            },
            {
              "internalType": "uint64",
              "name": "templateId",
              "type": "uint64"
            },
            {
              "internalType": "uint64",
              "name": "startTime",
              "type": "uint64"
            },
            {
              "internalType": "uint64",
              "name": "endTime",
              "type": "uint64"
            },
            {
              "internalType": "bool",
              "name": "finalized",
              "type": "bool"
            },
            {
              "components": [
                {
                  "internalType": "address",
                  "name": "addr",
                  "type": "address"
                },
                {
                  "internalType": "uint256",
                  "name": "decimals",
                  "type": "uint256"
                },
                {
                  "internalType": "string",
                  "name": "name",
                  "type": "string"
                },
                {
                  "internalType": "string",
                  "name": "symbol",
                  "type": "string"
                }
              ],
              "internalType": "struct TokenHelper.TokenInfo",
              "name": "tokenInfo",
              "type": "tuple"
            }
          ],
          "internalType": "struct MarketHelper.MarketBaseInfo[]",
          "name": "",
          "type": "tuple[]"
        }
      ],
      "stateMutability": "view",
      "type": "function"
    },
    {
      "inputs": [
        {
          "internalType": "uint256",
          "name": "pageSize",
          "type": "uint256"
        },
        {
          "internalType": "uint256",
          "name": "pageNbr",
          "type": "uint256"
        }
      ],
      "name": "getMarkets",
      "outputs": [
        {
          "components": [
            {
              "internalType": "address",
              "name": "addr",
              "type": "address"
            },
            {
              "internalType": "uint64",
              "name": "templateId",
              "type": "uint64"
            },
            {
              "internalType": "uint64",
              "name": "startTime",
              "type": "uint64"
            },
            {
              "internalType": "uint64",
              "name": "endTime",
              "type": "uint64"
            },
            {
              "internalType": "bool",
              "name": "finalized",
              "type": "bool"
            },
            {
              "components": [
                {
                  "internalType": "address",
                  "name": "addr",
                  "type": "address"
                },
                {
                  "internalType": "uint256",
                  "name": "decimals",
                  "type": "uint256"
                },
                {
                  "internalType": "string",
                  "name": "name",
                  "type": "string"
                },
                {
                  "internalType": "string",
                  "name": "symbol",
                  "type": "string"
                }
              ],
              "internalType": "struct TokenHelper.TokenInfo",
              "name": "tokenInfo",
              "type": "tuple"
            }
          ],
          "internalType": "struct MarketHelper.MarketBaseInfo[]",
          "name": "",
          "type": "tuple[]"
        }
      ],
      "stateMutability": "view",
      "type": "function"
    },
    {
      "inputs": [],
      "name": "getMarkets",
      "outputs": [
        {
          "components": [
            {
              "internalType": "address",
              "name": "addr",
              "type": "address"
            },
            {
              "internalType": "uint64",
              "name": "templateId",
              "type": "uint64"
            },
            {
              "internalType": "uint64",
              "name": "startTime",
              "type": "uint64"
            },
            {
              "internalType": "uint64",
              "name": "endTime",
              "type": "uint64"
            },
            {
              "internalType": "bool",
              "name": "finalized",
              "type": "bool"
            },
            {
              "components": [
                {
                  "internalType": "address",
                  "name": "addr",
                  "type": "address"
                },
                {
                  "internalType": "uint256",
                  "name": "decimals",
                  "type": "uint256"
                },
                {
                  "internalType": "string",
                  "name": "name",
                  "type": "string"
                },
                {
                  "internalType": "string",
                  "name": "symbol",
                  "type": "string"
                }
              ],
              "internalType": "struct TokenHelper.TokenInfo",
              "name": "tokenInfo",
              "type": "tuple"
            }
          ],
          "internalType": "struct MarketHelper.MarketBaseInfo[]",
          "name": "",
          "type": "tuple[]"
        }
      ],
      "stateMutability": "view",
      "type": "function"
    },
    {
      "inputs": [
        {
          "internalType": "address",
          "name": "_address",
          "type": "address"
        }
      ],
      "name": "getTokenInfo",
      "outputs": [
        {
          "components": [
            {
              "internalType": "address",
              "name": "addr",
              "type": "address"
            },
            {
              "internalType": "uint256",
              "name": "decimals",
              "type": "uint256"
            },
            {
              "internalType": "string",
              "name": "name",
              "type": "string"
            },
            {
              "internalType": "string",
              "name": "symbol",
              "type": "string"
            }
          ],
          "internalType": "struct TokenHelper.TokenInfo",
          "name": "",
          "type": "tuple"
        }
      ],
      "stateMutability": "view",
      "type": "function"
    },
    {
      "inputs": [
        {
          "internalType": "address[]",
          "name": "addresses",
          "type": "address[]"
        }
      ],
      "name": "getTokensInfo",
      "outputs": [
        {
          "components": [
            {
              "internalType": "address",
              "name": "addr",
              "type": "address"
            },
            {
              "internalType": "uint256",
              "name": "decimals",
              "type": "uint256"
            },
            {
              "internalType": "string",
              "name": "name",
              "type": "string"
            },
            {
              "internalType": "string",
              "name": "symbol",
              "type": "string"
            }
          ],
          "internalType": "struct TokenHelper.TokenInfo[]",
          "name": "",
          "type": "tuple[]"
        }
      ],
      "stateMutability": "view",
      "type": "function"
    },
    {
      "inputs": [
        {
          "internalType": "address",
          "name": "_action",
          "type": "address"
        },
        {
          "internalType": "address",
          "name": "_user",
          "type": "address"
        }
      ],
      "name": "getUserMarketInfo",
      "outputs": [
        {
          "components": [
            {
              "internalType": "uint256",
              "name": "commitments",
              "type": "uint256"
            },
            {
              "internalType": "uint256",
              "name": "tokensClaimable",
              "type": "uint256"
            },
            {
              "internalType": "uint256",
              "name": "claimed",
              "type": "uint256"
            },
            {
              "internalType": "bool",
              "name": "isAdmin",
              "type": "bool"
            }
          ],
          "internalType": "struct MarketHelper.UserMarketInfo",
          "name": "userInfo",
          "type": "tuple"
        }
      ],
      "stateMutability": "view",
      "type": "function"
    },
    {
      "inputs": [],
      "name": "launcher",
      "outputs": [
        {
          "internalType": "address",
          "name": "",
          "type": "address"
        }
      ],
      "stateMutability": "view",
      "type": "function"
    },
    {
      "inputs": [],
      "name": "market",
      "outputs": [
        {
          "internalType": "contract IMisoMarketFactory",
          "name": "",
          "type": "address"
        }
      ],
      "stateMutability": "view",
      "type": "function"
    },
    {
      "inputs": [
        {
          "internalType": "address",
          "name": "_tokenFactory",
          "type": "address"
        },
        {
          "internalType": "address",
          "name": "_market",
          "type": "address"
        },
        {
          "internalType": "address",
          "name": "_launcher",
          "type": "address"
        },
        {
          "internalType": "address",
          "name": "_farmFactory",
          "type": "address"
        }
      ],
      "name": "setContracts",
      "outputs": [],
      "stateMutability": "nonpayable",
      "type": "function"
    },
    {
      "inputs": [],
      "name": "tokenFactory",
      "outputs": [
        {
          "internalType": "contract IMisoTokenFactory",
          "name": "",
          "type": "address"
        }
      ],
      "stateMutability": "view",
      "type": "function"
    }
  ],
  "bytecode": "608060405234801561001057600080fd5b50612825806100206000396000f3fe608060405234801561001057600080fd5b50600436106101165760003560e01c80636306377d116100a257806380f556051161007157806380f556051461025c578063927da10514610264578063bf989b6e14610284578063e77772fe14610299578063ec2c9016146102a157610116565b80636306377d1461011b5780636d25e17514610239578063748365ef1461024157806380968d481461024957610116565b806327f50a2d116100e957806327f50a2d14610199578063372cfb93146101b957806338d9893b146101d95780633c74720c146101f957806346a0fe471461021957610116565b8063156ec6811461011b57806316eebd1e14610144578063193d1362146101595780631f69565f14610179575b600080fd5b61012e610129366004611ba7565b6102a9565b60405161013b91906126d2565b60405180910390f35b61014c61065e565b60405161013b91906122bd565b61016c610167366004611ba7565b61066d565b60405161013b91906124ae565b61018c610187366004611ba7565b61095b565b60405161013b91906126e5565b6101ac6101a7366004611ba7565b610af1565b60405161013b91906122eb565b6101cc6101c7366004611bdf565b610d35565b60405161013b91906126f8565b6101ec6101e7366004611fa3565b610f4b565b60405161013b919061234b565b61020c610207366004611ba7565b611113565b60405161013b91906125bb565b61022c610227366004611d14565b6113a8565b60405161013b9190612413565b61014c61144d565b61014c61145c565b6101ec610257366004611f55565b61146b565b61014c611482565b610277610272366004611c17565b611491565b60405161013b9190612725565b610297610292366004611c61565b61151a565b005b61014c611670565b6101ec61167f565b6102b161197f565b816102ba61197f565b6001600160a01b0382168082526040805162018df760e91b8152905163031bee0091600480820192606092909190829003018186803b1580156102fc57600080fd5b505afa158015610310573d6000803e3d6000fd5b505050506040513d601f19601f820116820180604052508101906103349190611fe9565b6001600160801b031660808401526001600160401b0390811660608401521660408083019190915280516308b42a7160e31b815281516001600160a01b038516926345a153889260048082019391829003018186803b15801561039657600080fd5b505afa1580156103aa573d6000803e3d6000fd5b505050506040513d601f19601f820116820180604052508101906103ce9190611f0f565b6001600160801b0390811660c08401521660a0820152604080516336d0054b60e01b815290516001600160a01b038416916336d0054b916004808301926020929190829003018186803b15801561042457600080fd5b505afa158015610438573d6000803e3d6000fd5b505050506040513d601f19601f8201168201806040525081019061045c9190611e3c565b15156101408201526040805163e0e081d760e01b815290516001600160a01b0384169163e0e081d7916004808301926060929190829003018186803b1580156104a457600080fd5b505afa1580156104b8573d6000803e3d6000fd5b505050506040513d601f19601f820116820180604052508101906104dc9190611ece565b151561012084015215156101008301526001600160801b031660e0820152604080516304cfed9960e51b81529051610577916001600160a01b038516916399fdb32091600480820192602092909190829003018186803b15801561053f57600080fd5b505afa158015610553573d6000803e3d6000fd5b505050506040513d601f19601f820116820180604052508101906101879190611bc3565b8161016001819052506000826001600160a01b0316633d15cc6d6040518163ffffffff1660e01b815260040160206040518083038186803b1580156105bb57600080fd5b505afa1580156105cf573d6000803e3d6000fd5b505050506040513d601f19601f820116820180604052508101906105f39190611bc3565b90506105fd6119ff565b6001600160a01b03821673eeeeeeeeeeeeeeeeeeeeeeeeeeeeeeeeeeeeeeee14156106315761062a6117b1565b905061063d565b61063a8261095b565b90505b610180830181905261064e86610af1565b6101a08401525090949350505050565b6003546001600160a01b031681565b610675611a30565b8161067e611a30565b6001600160a01b0382168082526040805162018df760e91b8152905163031bee0091600480820192606092909190829003018186803b1580156106c057600080fd5b505afa1580156106d4573d6000803e3d6000fd5b505050506040513d601f19601f820116820180604052508101906106f89190611fe9565b6001600160801b031660808401526001600160401b0390811660608401521660408083019190915280516336d0054b60e01b815290516001600160a01b038416916336d0054b916004808301926020929190829003018186803b15801561075e57600080fd5b505afa158015610772573d6000803e3d6000fd5b505050506040513d601f19601f820116820180604052508101906107969190611e3c565b15156101208201526040805163e0e081d760e01b815290516001600160a01b0384169163e0e081d7916004808301926080929190829003018186803b1580156107de57600080fd5b505afa1580156107f2573d6000803e3d6000fd5b505050506040513d601f19601f820116820180604052508101906108169190611f76565b1515610100850152151560e084015260c083015260a0820152604080516304cfed9960e51b81529051610874916001600160a01b038516916399fdb32091600480820192602092909190829003018186803b15801561053f57600080fd5b8161014001819052506000826001600160a01b0316633d15cc6d6040518163ffffffff1660e01b815260040160206040518083038186803b1580156108b857600080fd5b505afa1580156108cc573d6000803e3d6000fd5b505050506040513d601f19601f820116820180604052508101906108f09190611bc3565b90506108fa6119ff565b6001600160a01b03821673eeeeeeeeeeeeeeeeeeeeeeeeeeeeeeeeeeeeeeee141561092e576109276117b1565b905061093a565b6109378261095b565b90505b610160830181905261094b86610af1565b6101808401525090949350505050565b6109636119ff565b61096b6119ff565b6001600160a01b038316808252604080516306fdde0360e01b815290518592916306fdde03916004808301926000929190829003018186803b1580156109b057600080fd5b505afa1580156109c4573d6000803e3d6000fd5b505050506040513d6000823e601f3d908101601f191682016040526109ec9190810190611e58565b8260400181905250806001600160a01b03166395d89b416040518163ffffffff1660e01b815260040160006040518083038186803b158015610a2d57600080fd5b505afa158015610a41573d6000803e3d6000fd5b505050506040513d6000823e601f3d908101601f19168201604052610a699190810190611e58565b8260600181905250806001600160a01b031663313ce5676040518163ffffffff1660e01b815260040160206040518083038186803b158015610aaa57600080fd5b505afa158015610abe573d6000803e3d6000fd5b505050506040513d601f19601f82011682018060405250810190610ae2919061202a565b60ff1660208301525092915050565b606060008290506000816001600160a01b0316633d1c22736040518163ffffffff1660e01b815260040160206040518083038186803b158015610b3357600080fd5b505afa158015610b47573d6000803e3d6000fd5b505050506040513d601f19601f82011682018060405250810190610b6b9190611f3d565b90506060816001600160401b0381118015610b8557600080fd5b50604051908082528060200260200182016040528015610bbf57816020015b610bac611a8e565b815260200190600190039081610ba45790505b50905060005b82811015610d2c5760405163635aa3f360e11b81526060906001600160a01b0386169063c6b547e690610bfc908590600401612725565b60006040518083038186803b158015610c1457600080fd5b505afa158015610c28573d6000803e3d6000fd5b505050506040513d6000823e601f3d908101601f19168201604052610c509190810190611e58565b604051631f32da9960e21b81529091506001600160a01b03861690637ccb6a6490610c7f908490600401612466565b60006040518083038186803b158015610c9757600080fd5b505afa158015610cab573d6000803e3d6000fd5b505050506040513d6000823e601f3d908101601f19168201604052610cd39190810190611e8a565b848481518110610cdf57fe5b6020026020010151602001858581518110610cf657fe5b602002602001015160400182815250829052505080838381518110610d1757fe5b60209081029190910101515250600101610bc5565b50949350505050565b610d3d611aaf565b60405163e8fcf72360e01b815283906001600160a01b0382169063e8fcf72390610d6b9086906004016122bd565b60206040518083038186803b158015610d8357600080fd5b505afa158015610d97573d6000803e3d6000fd5b505050506040513d601f19601f82011682018060405250810190610dbb9190611f3d565b8252604051634dc80e1560e01b81526001600160a01b03821690634dc80e1590610de99086906004016122bd565b60206040518083038186803b158015610e0157600080fd5b505afa158015610e15573d6000803e3d6000fd5b505050506040513d601f19601f82011682018060405250810190610e399190611f3d565b602083015260405163c884ef8360e01b81526001600160a01b0382169063c884ef8390610e6a9086906004016122bd565b60206040518083038186803b158015610e8257600080fd5b505afa158015610e96573d6000803e3d6000fd5b505050506040513d601f19601f82011682018060405250810190610eba9190611f3d565b6040808401919091525163c395fcb360e01b81526001600160a01b0382169063c395fcb390610eed9086906004016122bd565b60206040518083038186803b158015610f0557600080fd5b505afa158015610f19573d6000803e3d6000fd5b505050506040513d601f19601f82011682018060405250810190610f3d9190611e3c565b151560608301525092915050565b600080546040805163286cea3960e11b81529051606093926001600160a01b0316916350d9d472916004808301926020929190829003018186803b158015610f9257600080fd5b505afa158015610fa6573d6000803e3d6000fd5b505050506040513d601f19601f82011682018060405250810190610fca9190611f3d565b90508385028301808601606083821115610fe2578391505b82821015610ff557935061110c92505050565b8282036001600160401b038111801561100d57600080fd5b5060405190808252806020026020018201604052801561104757816020015b611034611ad9565b81526020019060019003908161102c5790505b50905060005b82848201101561110557600080546040516302b8d13560e51b81526001600160a01b039091169063571a26a09061108a9085890190600401612725565b60206040518083038186803b1580156110a257600080fd5b505afa1580156110b6573d6000803e3d6000fd5b505050506040513d601f19601f820116820180604052508101906110da9190611bc3565b90506110e581611821565b8383815181106110f157fe5b60209081029190910101525060010161104d565b5093505050505b9392505050565b61111b61197f565b8161112461197f565b6001600160a01b0382168082526040805163e0e081d760e01b8152905163e0e081d791600480820192606092909190829003018186803b15801561116757600080fd5b505afa15801561117b573d6000803e3d6000fd5b505050506040513d601f19601f8201168201806040525081019061119f9190611ece565b151561012084015215156101008301526001600160801b0316604080830191909152805162018df760e91b815290516001600160a01b0384169163031bee00916004808301926060929190829003018186803b1580156111fe57600080fd5b505afa158015611212573d6000803e3d6000fd5b505050506040513d601f19601f820116820180604052508101906112369190611fe9565b6001600160801b031660608401526001600160401b0390811660e08401521660c0820152604080516308b42a7160e31b815281516001600160a01b038516926345a153889260048082019391829003018186803b15801561129657600080fd5b505afa1580156112aa573d6000803e3d6000fd5b505050506040513d601f19601f820116820180604052508101906112ce9190611f0f565b6001600160801b0390811660a0840152166080820152604080516336d0054b60e01b815290516001600160a01b038416916336d0054b916004808301926020929190829003018186803b15801561132457600080fd5b505afa158015611338573d6000803e3d6000fd5b505050506040513d601f19601f8201168201806040525081019061135c9190611e3c565b81610140019015159081151581525050610577826001600160a01b03166399fdb3206040518163ffffffff1660e01b815260040160206040518083038186803b15801561053f57600080fd5b60608082516001600160401b03811180156113c257600080fd5b506040519080825280602002602001820160405280156113fc57816020015b6113e96119ff565b8152602001906001900390816113e15790505b50905060005b83518110156114465761142784828151811061141a57fe5b602002602001015161095b565b82828151811061143357fe5b6020908102919091010152600101611402565b5092915050565b6002546001600160a01b031681565b6004546001600160a01b031681565b606061147983836000610f4b565b90505b92915050565b6000546001600160a01b031681565b604051636eb1769f60e11b81526000906001600160a01b0385169063dd62ed3e906114c290869086906004016122d1565b60206040518083038186803b1580156114da57600080fd5b505afa1580156114ee573d6000803e3d6000fd5b505050506040513d601f19601f820116820180604052508101906115129190611f3d565b949350505050565b6004805460405163c395fcb360e01b81526001600160a01b039091169163c395fcb391611549913391016122bd565b60206040518083038186803b15801561156157600080fd5b505afa158015611575573d6000803e3d6000fd5b505050506040513d601f19601f820116820180604052508101906115999190611e3c565b6115be5760405162461bcd60e51b81526004016115b590612479565b60405180910390fd5b6001600160a01b038316156115e957600080546001600160a01b0319166001600160a01b0385161790555b6001600160a01b0384161561161457600180546001600160a01b0319166001600160a01b0386161790555b6001600160a01b0382161561163f57600380546001600160a01b0319166001600160a01b0384161790555b6001600160a01b0381161561166a57600280546001600160a01b0319166001600160a01b0383161790555b50505050565b6001546001600160a01b031681565b6000805460408051637616480b60e11b8152905160609384936001600160a01b03169263ec2c90169260048083019392829003018186803b1580156116c357600080fd5b505afa1580156116d7573d6000803e3d6000fd5b505050506040513d6000823e601f3d908101601f191682016040526116ff9190810190611db0565b9050606081516001600160401b038111801561171a57600080fd5b5060405190808252806020026020018201604052801561175457816020015b611741611ad9565b8152602001906001900390816117395790505b50905060005b82518110156117aa5761176b611ad9565b61178784838151811061177a57fe5b6020026020010151611821565b90508083838151811061179657fe5b60209081029190910101525060010161175a565b5091505090565b6117b96119ff565b73eeeeeeeeeeeeeeeeeeeeeeeeeeeeeeeeeeeeeeee81526040805180820182526008815267455448455245554d60c01b602080830191909152828401919091528151808301909252600382526208aa8960eb1b82820152606083019190915260129082015290565b611829611ad9565b6000805460405163b034349360e01b81526001600160a01b039091169063b03434939061185a9086906004016122bd565b60206040518083038186803b15801561187257600080fd5b505afa158015611886573d6000803e3d6000fd5b505050506040513d601f19601f820116820180604052508101906118aa9190611fce565b9050600080600080866001600160a01b031663314148e26040518163ffffffff1660e01b815260040160806040518083038186803b1580156118eb57600080fd5b505afa1580156118ff573d6000803e3d6000fd5b505050506040513d601f19601f820116820180604052508101906119239190611cbc565b929650909450925090506119356119ff565b61193e8561095b565b6001600160a01b039098168752506001600160401b03948516602087015291841660408601529092166060840152501515608082015260a081019190915290565b604080516101c081018252600080825260208201819052918101829052606081018290526080810182905260a0810182905260c0810182905260e081018290526101008101829052610120810182905261014081019190915261016081016119e56119ff565b81526020016119f26119ff565b8152602001606081525090565b604051806080016040528060006001600160a01b031681526020016000815260200160608152602001606081525090565b604080516101a081018252600080825260208201819052918101829052606081018290526080810182905260a0810182905260c0810182905260e08101829052610100810182905261012081019190915261014081016119e56119ff565b60405180606001604052806060815260200160608152602001600081525090565b60405180608001604052806000815260200160008152602001600081526020016000151581525090565b6040805160c08101825260008082526020820181905291810182905260608101829052608081019190915260a08101611b106119ff565b905290565b803561147c8161279f565b8051801515811461147c57600080fd5b600082601f830112611b40578081fd5b81516001600160401b03811115611b55578182fd5b611b68601f8201601f191660200161272e565b9150808252836020828501011115611b7f57600080fd5b611446816020840160208601612773565b80516001600160401b038116811461147c57600080fd5b600060208284031215611bb8578081fd5b813561110c8161279f565b600060208284031215611bd4578081fd5b815161110c8161279f565b60008060408385031215611bf1578081fd5b8235611bfc8161279f565b91506020830135611c0c8161279f565b809150509250929050565b600080600060608486031215611c2b578081fd5b8335611c368161279f565b92506020840135611c468161279f565b91506040840135611c568161279f565b809150509250925092565b60008060008060808587031215611c76578081fd5b8435611c818161279f565b93506020850135611c918161279f565b92506040850135611ca18161279f565b91506060850135611cb18161279f565b939692955090935050565b60008060008060808587031215611cd1578384fd5b8451611cdc8161279f565b9350611ceb8660208701611b90565b9250611cfa8660408701611b90565b9150611d098660608701611b20565b905092959194509250565b60006020808385031215611d26578182fd5b82356001600160401b03811115611d3b578283fd5b8301601f81018513611d4b578283fd5b8035611d5e611d5982612754565b61272e565b8181528381019083850185840285018601891015611d7a578687fd5b8694505b83851015611da457611d908982611b15565b835260019490940193918501918501611d7e565b50979650505050505050565b60006020808385031215611dc2578182fd5b82516001600160401b03811115611dd7578283fd5b8301601f81018513611de7578283fd5b8051611df5611d5982612754565b8181528381019083850185840285018601891015611e11578687fd5b8694505b83851015611da4578051611e288161279f565b835260019490940193918501918501611e15565b600060208284031215611e4d578081fd5b815161110c816127b7565b600060208284031215611e69578081fd5b81516001600160401b03811115611e7e578182fd5b61151284828501611b30565b60008060408385031215611e9c578081fd5b82516001600160401b03811115611eb1578182fd5b611ebd85828601611b30565b925050602083015190509250929050565b600080600060608486031215611ee2578081fd5b8351611eed816127c5565b6020850151909350611efe816127b7565b6040850151909250611c56816127b7565b60008060408385031215611f21578182fd5b8251611f2c816127c5565b6020840151909250611c0c816127c5565b600060208284031215611f4e578081fd5b5051919050565b60008060408385031215611f67578182fd5b50508035926020909101359150565b60008060008060808587031215611f8b578182fd5b8451935060208501519250611cfa8660408701611b20565b600080600060608486031215611fb7578081fd5b505081359360208301359350604090920135919050565b600060208284031215611fdf578081fd5b6114798383611b90565b600080600060608486031215611ffd578081fd5b8351612008816127da565b6020850151909350612019816127da565b6040850151909250611c56816127c5565b60006020828403121561203b578081fd5b815160ff8116811461110c578182fd5b600081516060845261206060608501826120f6565b90506020830151848203602086015261207982826120f6565b915050604083015160408501528091505092915050565b6001600160a01b03169052565b6000815180845260208085018081965082840281019150828601855b858110156120e35782840389526120d184835161204b565b988501989350908401906001016120b9565b5091979650505050505050565b15159052565b6000815180845261210e816020860160208601612773565b601f01601f19169290920160200192915050565b60006101c0612132848451612090565b60208301516121446020860182612090565b50604083015161215760408601826122b0565b50606083015161216a60608601826122b0565b50608083015161217d60808601826122a3565b5060a083015161219060a08601826122a3565b5060c08301516121a360c08601826122a3565b5060e08301516121b660e08601826122a3565b50610100808401516121ca828701826120f0565b5050610120808401516121df828701826120f0565b5050610140808401516121f4828701826120f0565b505061016080840151828287015261220e83870182612250565b92505050610180808401518583038287015261222a8382612250565b925050506101a08084015185830382870152612246838261209d565b9695505050505050565b600060018060a01b0382511683526020820151602084015260408201516080604085015261228160808501826120f6565b90506060830151848203606086015261229a82826120f6565b95945050505050565b6001600160801b03169052565b6001600160401b03169052565b6001600160a01b0391909116815260200190565b6001600160a01b0392831681529116602082015260400190565b6000602080830181845280855180835260408601915060408482028701019250838701855b8281101561233e57603f1988860301845261232c85835161204b565b94509285019290850190600101612310565b5092979650505050505050565b60208082528251828201819052600091906040908185019080840286018301878501865b8381101561240557603f19898403018552815160c061238f858351612090565b8882015161239f8a8701826122b0565b50878201516123b0898701826122b0565b506060808301516123c3828801826122b0565b50506080808301516123d7828801826120f0565b505060a0918201519185018190526123f185820183612250565b96890196945050509086019060010161236f565b509098975050505050505050565b6000602080830181845280855180835260408601915060408482028701019250838701855b8281101561233e57603f19888603018452612454858351612250565b94509285019290850190600101612438565b60006020825261147960208301846120f6565b6020808252818101527f4d49534f48656c7065723a2053656e646572206d7573742062652041646d696e604082015260600190565b6000602082526124c2602083018451612090565b60208301516124d46040840182612090565b5060408301516124e760608401826122b0565b5060608301516124fa60808401826122b0565b50608083015161250d60a08401826122a3565b5060a083015160c083015260c083015160e083015260e0830151610100612536818501836120f0565b840151905061012061254a848201836120f0565b840151905061014061255e848201836120f0565b808501519150506101a0610160818186015261257e6101c0860184612250565b9250808601519050601f1961018081878603018188015261259f8584612250565b908801518782039092018488015293509050612246838261209d565b6000602082526125cf602083018451612090565b60208301516125e16040840182612090565b5060408301516125f460608401826122a3565b50606083015161260760808401826122a3565b50608083015161261a60a08401826122a3565b5060a083015161262d60c08401826122a3565b5060c083015161264060e08401826122b0565b5060e0830151610100612655818501836122b0565b8401519050610120612669848201836120f0565b840151905061014061267d848201836120f0565b8401519050610160612691848201836120f0565b808501519150506101c061018081818601526126b16101e0860184612250565b9250808601519050601f196101a081878603018188015261259f8584612250565b6000602082526114796020830184612122565b6000602082526114796020830184612250565b81518152602080830151908201526040808301519082015260609182015115159181019190915260800190565b90815260200190565b6040518181016001600160401b038111828210171561274c57600080fd5b604052919050565b60006001600160401b03821115612769578081fd5b5060209081020190565b60005b8381101561278e578181015183820152602001612776565b8381111561166a5750506000910152565b6001600160a01b03811681146127b457600080fd5b50565b80151581146127b457600080fd5b6001600160801b03811681146127b457600080fd5b6001600160401b03811681146127b457600080fdfea2646970667358221220ec90322461d58e8e1aaa55f21fe0f802c28954291d70accec9191d2b50dd798d64736f6c634300060c0033",
  "bytecodeSha1": "6c7f2c3640ee1b3ad83b966754c58ce53e8e81f0",
  "compiler": {
    "evm_version": "istanbul",
    "optimizer": {
      "enabled": true,
      "runs": 200
    },
    "version": "0.6.12+commit.27d51765"
  },
  "contractName": "MarketHelper",
  "language": "Solidity",
  "natspec": {
    "kind": "dev",
    "methods": {
      "accessControls()": {
        "notice": "Responsible for access rights to the contract"
      }
    },
    "version": 1
  },
  "opcodes": "PUSH1 0x80 PUSH1 0x40 MSTORE CALLVALUE DUP1 ISZERO PUSH2 0x10 JUMPI PUSH1 0x0 DUP1 REVERT JUMPDEST POP PUSH1 0x4 CALLDATASIZE LT PUSH2 0x116 JUMPI PUSH1 0x0 CALLDATALOAD PUSH1 0xE0 SHR DUP1 PUSH4 0x6306377D GT PUSH2 0xA2 JUMPI DUP1 PUSH4 0x80F55605 GT PUSH2 0x71 JUMPI DUP1 PUSH4 0x80F55605 EQ PUSH2 0x25C JUMPI DUP1 PUSH4 0x927DA105 EQ PUSH2 0x264 JUMPI DUP1 PUSH4 0xBF989B6E EQ PUSH2 0x284 JUMPI DUP1 PUSH4 0xE77772FE EQ PUSH2 0x299 JUMPI DUP1 PUSH4 0xEC2C9016 EQ PUSH2 0x2A1 JUMPI PUSH2 0x116 JUMP JUMPDEST DUP1 PUSH4 0x6306377D EQ PUSH2 0x11B JUMPI DUP1 PUSH4 0x6D25E175 EQ PUSH2 0x239 JUMPI DUP1 PUSH4 0x748365EF EQ PUSH2 0x241 JUMPI DUP1 PUSH4 0x80968D48 EQ PUSH2 0x249 JUMPI PUSH2 0x116 JUMP JUMPDEST DUP1 PUSH4 0x27F50A2D GT PUSH2 0xE9 JUMPI DUP1 PUSH4 0x27F50A2D EQ PUSH2 0x199 JUMPI DUP1 PUSH4 0x372CFB93 EQ PUSH2 0x1B9 JUMPI DUP1 PUSH4 0x38D9893B EQ PUSH2 0x1D9 JUMPI DUP1 PUSH4 0x3C74720C EQ PUSH2 0x1F9 JUMPI DUP1 PUSH4 0x46A0FE47 EQ PUSH2 0x219 JUMPI PUSH2 0x116 JUMP JUMPDEST DUP1 PUSH4 0x156EC681 EQ PUSH2 0x11B JUMPI DUP1 PUSH4 0x16EEBD1E EQ PUSH2 0x144 JUMPI DUP1 PUSH4 0x193D1362 EQ PUSH2 0x159 JUMPI DUP1 PUSH4 0x1F69565F EQ PUSH2 0x179 JUMPI JUMPDEST PUSH1 0x0 DUP1 REVERT JUMPDEST PUSH2 0x12E PUSH2 0x129 CALLDATASIZE PUSH1 0x4 PUSH2 0x1BA7 JUMP JUMPDEST PUSH2 0x2A9 JUMP JUMPDEST PUSH1 0x40 MLOAD PUSH2 0x13B SWAP2 SWAP1 PUSH2 0x26D2 JUMP JUMPDEST PUSH1 0x40 MLOAD DUP1 SWAP2 SUB SWAP1 RETURN JUMPDEST PUSH2 0x14C PUSH2 0x65E JUMP JUMPDEST PUSH1 0x40 MLOAD PUSH2 0x13B SWAP2 SWAP1 PUSH2 0x22BD JUMP JUMPDEST PUSH2 0x16C PUSH2 0x167 CALLDATASIZE PUSH1 0x4 PUSH2 0x1BA7 JUMP JUMPDEST PUSH2 0x66D JUMP JUMPDEST PUSH1 0x40 MLOAD PUSH2 0x13B SWAP2 SWAP1 PUSH2 0x24AE JUMP JUMPDEST PUSH2 0x18C PUSH2 0x187 CALLDATASIZE PUSH1 0x4 PUSH2 0x1BA7 JUMP JUMPDEST PUSH2 0x95B JUMP JUMPDEST PUSH1 0x40 MLOAD PUSH2 0x13B SWAP2 SWAP1 PUSH2 0x26E5 JUMP JUMPDEST PUSH2 0x1AC PUSH2 0x1A7 CALLDATASIZE PUSH1 0x4 PUSH2 0x1BA7 JUMP JUMPDEST PUSH2 0xAF1 JUMP JUMPDEST PUSH1 0x40 MLOAD PUSH2 0x13B SWAP2 SWAP1 PUSH2 0x22EB JUMP JUMPDEST PUSH2 0x1CC PUSH2 0x1C7 CALLDATASIZE PUSH1 0x4 PUSH2 0x1BDF JUMP JUMPDEST PUSH2 0xD35 JUMP JUMPDEST PUSH1 0x40 MLOAD PUSH2 0x13B SWAP2 SWAP1 PUSH2 0x26F8 JUMP JUMPDEST PUSH2 0x1EC PUSH2 0x1E7 CALLDATASIZE PUSH1 0x4 PUSH2 0x1FA3 JUMP JUMPDEST PUSH2 0xF4B JUMP JUMPDEST PUSH1 0x40 MLOAD PUSH2 0x13B SWAP2 SWAP1 PUSH2 0x234B JUMP JUMPDEST PUSH2 0x20C PUSH2 0x207 CALLDATASIZE PUSH1 0x4 PUSH2 0x1BA7 JUMP JUMPDEST PUSH2 0x1113 JUMP JUMPDEST PUSH1 0x40 MLOAD PUSH2 0x13B SWAP2 SWAP1 PUSH2 0x25BB JUMP JUMPDEST PUSH2 0x22C PUSH2 0x227 CALLDATASIZE PUSH1 0x4 PUSH2 0x1D14 JUMP JUMPDEST PUSH2 0x13A8 JUMP JUMPDEST PUSH1 0x40 MLOAD PUSH2 0x13B SWAP2 SWAP1 PUSH2 0x2413 JUMP JUMPDEST PUSH2 0x14C PUSH2 0x144D JUMP JUMPDEST PUSH2 0x14C PUSH2 0x145C JUMP JUMPDEST PUSH2 0x1EC PUSH2 0x257 CALLDATASIZE PUSH1 0x4 PUSH2 0x1F55 JUMP JUMPDEST PUSH2 0x146B JUMP JUMPDEST PUSH2 0x14C PUSH2 0x1482 JUMP JUMPDEST PUSH2 0x277 PUSH2 0x272 CALLDATASIZE PUSH1 0x4 PUSH2 0x1C17 JUMP JUMPDEST PUSH2 0x1491 JUMP JUMPDEST PUSH1 0x40 MLOAD PUSH2 0x13B SWAP2 SWAP1 PUSH2 0x2725 JUMP JUMPDEST PUSH2 0x297 PUSH2 0x292 CALLDATASIZE PUSH1 0x4 PUSH2 0x1C61 JUMP JUMPDEST PUSH2 0x151A JUMP JUMPDEST STOP JUMPDEST PUSH2 0x14C PUSH2 0x1670 JUMP JUMPDEST PUSH2 0x1EC PUSH2 0x167F JUMP JUMPDEST PUSH2 0x2B1 PUSH2 0x197F JUMP JUMPDEST DUP2 PUSH2 0x2BA PUSH2 0x197F JUMP JUMPDEST PUSH1 0x1 PUSH1 0x1 PUSH1 0xA0 SHL SUB DUP3 AND DUP1 DUP3 MSTORE PUSH1 0x40 DUP1 MLOAD PUSH3 0x18DF7 PUSH1 0xE9 SHL DUP2 MSTORE SWAP1 MLOAD PUSH4 0x31BEE00 SWAP2 PUSH1 0x4 DUP1 DUP3 ADD SWAP3 PUSH1 0x60 SWAP3 SWAP1 SWAP2 SWAP1 DUP3 SWAP1 SUB ADD DUP2 DUP7 DUP1 EXTCODESIZE ISZERO DUP1 ISZERO PUSH2 0x2FC JUMPI PUSH1 0x0 DUP1 REVERT JUMPDEST POP GAS STATICCALL ISZERO DUP1 ISZERO PUSH2 0x310 JUMPI RETURNDATASIZE PUSH1 0x0 DUP1 RETURNDATACOPY RETURNDATASIZE PUSH1 0x0 REVERT JUMPDEST POP POP POP POP PUSH1 0x40 MLOAD RETURNDATASIZE PUSH1 0x1F NOT PUSH1 0x1F DUP3 ADD AND DUP3 ADD DUP1 PUSH1 0x40 MSTORE POP DUP2 ADD SWAP1 PUSH2 0x334 SWAP2 SWAP1 PUSH2 0x1FE9 JUMP JUMPDEST PUSH1 0x1 PUSH1 0x1 PUSH1 0x80 SHL SUB AND PUSH1 0x80 DUP5 ADD MSTORE PUSH1 0x1 PUSH1 0x1 PUSH1 0x40 SHL SUB SWAP1 DUP2 AND PUSH1 0x60 DUP5 ADD MSTORE AND PUSH1 0x40 DUP1 DUP4 ADD SWAP2 SWAP1 SWAP2 MSTORE DUP1 MLOAD PUSH4 0x8B42A71 PUSH1 0xE3 SHL DUP2 MSTORE DUP2 MLOAD PUSH1 0x1 PUSH1 0x1 PUSH1 0xA0 SHL SUB DUP6 AND SWAP3 PUSH4 0x45A15388 SWAP3 PUSH1 0x4 DUP1 DUP3 ADD SWAP4 SWAP2 DUP3 SWAP1 SUB ADD DUP2 DUP7 DUP1 EXTCODESIZE ISZERO DUP1 ISZERO PUSH2 0x396 JUMPI PUSH1 0x0 DUP1 REVERT JUMPDEST POP GAS STATICCALL ISZERO DUP1 ISZERO PUSH2 0x3AA JUMPI RETURNDATASIZE PUSH1 0x0 DUP1 RETURNDATACOPY RETURNDATASIZE PUSH1 0x0 REVERT JUMPDEST POP POP POP POP PUSH1 0x40 MLOAD RETURNDATASIZE PUSH1 0x1F NOT PUSH1 0x1F DUP3 ADD AND DUP3 ADD DUP1 PUSH1 0x40 MSTORE POP DUP2 ADD SWAP1 PUSH2 0x3CE SWAP2 SWAP1 PUSH2 0x1F0F JUMP JUMPDEST PUSH1 0x1 PUSH1 0x1 PUSH1 0x80 SHL SUB SWAP1 DUP2 AND PUSH1 0xC0 DUP5 ADD MSTORE AND PUSH1 0xA0 DUP3 ADD MSTORE PUSH1 0x40 DUP1 MLOAD PUSH4 0x36D0054B PUSH1 0xE0 SHL DUP2 MSTORE SWAP1 MLOAD PUSH1 0x1 PUSH1 0x1 PUSH1 0xA0 SHL SUB DUP5 AND SWAP2 PUSH4 0x36D0054B SWAP2 PUSH1 0x4 DUP1 DUP4 ADD SWAP3 PUSH1 0x20 SWAP3 SWAP2 SWAP1 DUP3 SWAP1 SUB ADD DUP2 DUP7 DUP1 EXTCODESIZE ISZERO DUP1 ISZERO PUSH2 0x424 JUMPI PUSH1 0x0 DUP1 REVERT JUMPDEST POP GAS STATICCALL ISZERO DUP1 ISZERO PUSH2 0x438 JUMPI RETURNDATASIZE PUSH1 0x0 DUP1 RETURNDATACOPY RETURNDATASIZE PUSH1 0x0 REVERT JUMPDEST POP POP POP POP PUSH1 0x40 MLOAD RETURNDATASIZE PUSH1 0x1F NOT PUSH1 0x1F DUP3 ADD AND DUP3 ADD DUP1 PUSH1 0x40 MSTORE POP DUP2 ADD SWAP1 PUSH2 0x45C SWAP2 SWAP1 PUSH2 0x1E3C JUMP JUMPDEST ISZERO ISZERO PUSH2 0x140 DUP3 ADD MSTORE PUSH1 0x40 DUP1 MLOAD PUSH4 0xE0E081D7 PUSH1 0xE0 SHL DUP2 MSTORE SWAP1 MLOAD PUSH1 0x1 PUSH1 0x1 PUSH1 0xA0 SHL SUB DUP5 AND SWAP2 PUSH4 0xE0E081D7 SWAP2 PUSH1 0x4 DUP1 DUP4 ADD SWAP3 PUSH1 0x60 SWAP3 SWAP2 SWAP1 DUP3 SWAP1 SUB ADD DUP2 DUP7 DUP1 EXTCODESIZE ISZERO DUP1 ISZERO PUSH2 0x4A4 JUMPI PUSH1 0x0 DUP1 REVERT JUMPDEST POP GAS STATICCALL ISZERO DUP1 ISZERO PUSH2 0x4B8 JUMPI RETURNDATASIZE PUSH1 0x0 DUP1 RETURNDATACOPY RETURNDATASIZE PUSH1 0x0 REVERT JUMPDEST POP POP POP POP PUSH1 0x40 MLOAD RETURNDATASIZE PUSH1 0x1F NOT PUSH1 0x1F DUP3 ADD AND DUP3 ADD DUP1 PUSH1 0x40 MSTORE POP DUP2 ADD SWAP1 PUSH2 0x4DC SWAP2 SWAP1 PUSH2 0x1ECE JUMP JUMPDEST ISZERO ISZERO PUSH2 0x120 DUP5 ADD MSTORE ISZERO ISZERO PUSH2 0x100 DUP4 ADD MSTORE PUSH1 0x1 PUSH1 0x1 PUSH1 0x80 SHL SUB AND PUSH1 0xE0 DUP3 ADD MSTORE PUSH1 0x40 DUP1 MLOAD PUSH4 0x4CFED99 PUSH1 0xE5 SHL DUP2 MSTORE SWAP1 MLOAD PUSH2 0x577 SWAP2 PUSH1 0x1 PUSH1 0x1 PUSH1 0xA0 SHL SUB DUP6 AND SWAP2 PUSH4 0x99FDB320 SWAP2 PUSH1 0x4 DUP1 DUP3 ADD SWAP3 PUSH1 0x20 SWAP3 SWAP1 SWAP2 SWAP1 DUP3 SWAP1 SUB ADD DUP2 DUP7 DUP1 EXTCODESIZE ISZERO DUP1 ISZERO PUSH2 0x53F JUMPI PUSH1 0x0 DUP1 REVERT JUMPDEST POP GAS STATICCALL ISZERO DUP1 ISZERO PUSH2 0x553 JUMPI RETURNDATASIZE PUSH1 0x0 DUP1 RETURNDATACOPY RETURNDATASIZE PUSH1 0x0 REVERT JUMPDEST POP POP POP POP PUSH1 0x40 MLOAD RETURNDATASIZE PUSH1 0x1F NOT PUSH1 0x1F DUP3 ADD AND DUP3 ADD DUP1 PUSH1 0x40 MSTORE POP DUP2 ADD SWAP1 PUSH2 0x187 SWAP2 SWAP1 PUSH2 0x1BC3 JUMP JUMPDEST DUP2 PUSH2 0x160 ADD DUP2 SWAP1 MSTORE POP PUSH1 0x0 DUP3 PUSH1 0x1 PUSH1 0x1 PUSH1 0xA0 SHL SUB AND PUSH4 0x3D15CC6D PUSH1 0x40 MLOAD DUP2 PUSH4 0xFFFFFFFF AND PUSH1 0xE0 SHL DUP2 MSTORE PUSH1 0x4 ADD PUSH1 0x20 PUSH1 0x40 MLOAD DUP1 DUP4 SUB DUP2 DUP7 DUP1 EXTCODESIZE ISZERO DUP1 ISZERO PUSH2 0x5BB JUMPI PUSH1 0x0 DUP1 REVERT JUMPDEST POP GAS STATICCALL ISZERO DUP1 ISZERO PUSH2 0x5CF JUMPI RETURNDATASIZE PUSH1 0x0 DUP1 RETURNDATACOPY RETURNDATASIZE PUSH1 0x0 REVERT JUMPDEST POP POP POP POP PUSH1 0x40 MLOAD RETURNDATASIZE PUSH1 0x1F NOT PUSH1 0x1F DUP3 ADD AND DUP3 ADD DUP1 PUSH1 0x40 MSTORE POP DUP2 ADD SWAP1 PUSH2 0x5F3 SWAP2 SWAP1 PUSH2 0x1BC3 JUMP JUMPDEST SWAP1 POP PUSH2 0x5FD PUSH2 0x19FF JUMP JUMPDEST PUSH1 0x1 PUSH1 0x1 PUSH1 0xA0 SHL SUB DUP3 AND PUSH20 0xEEEEEEEEEEEEEEEEEEEEEEEEEEEEEEEEEEEEEEEE EQ ISZERO PUSH2 0x631 JUMPI PUSH2 0x62A PUSH2 0x17B1 JUMP JUMPDEST SWAP1 POP PUSH2 0x63D JUMP JUMPDEST PUSH2 0x63A DUP3 PUSH2 0x95B JUMP JUMPDEST SWAP1 POP JUMPDEST PUSH2 0x180 DUP4 ADD DUP2 SWAP1 MSTORE PUSH2 0x64E DUP7 PUSH2 0xAF1 JUMP JUMPDEST PUSH2 0x1A0 DUP5 ADD MSTORE POP SWAP1 SWAP5 SWAP4 POP POP POP POP JUMP JUMPDEST PUSH1 0x3 SLOAD PUSH1 0x1 PUSH1 0x1 PUSH1 0xA0 SHL SUB AND DUP2 JUMP JUMPDEST PUSH2 0x675 PUSH2 0x1A30 JUMP JUMPDEST DUP2 PUSH2 0x67E PUSH2 0x1A30 JUMP JUMPDEST PUSH1 0x1 PUSH1 0x1 PUSH1 0xA0 SHL SUB DUP3 AND DUP1 DUP3 MSTORE PUSH1 0x40 DUP1 MLOAD PUSH3 0x18DF7 PUSH1 0xE9 SHL DUP2 MSTORE SWAP1 MLOAD PUSH4 0x31BEE00 SWAP2 PUSH1 0x4 DUP1 DUP3 ADD SWAP3 PUSH1 0x60 SWAP3 SWAP1 SWAP2 SWAP1 DUP3 SWAP1 SUB ADD DUP2 DUP7 DUP1 EXTCODESIZE ISZERO DUP1 ISZERO PUSH2 0x6C0 JUMPI PUSH1 0x0 DUP1 REVERT JUMPDEST POP GAS STATICCALL ISZERO DUP1 ISZERO PUSH2 0x6D4 JUMPI RETURNDATASIZE PUSH1 0x0 DUP1 RETURNDATACOPY RETURNDATASIZE PUSH1 0x0 REVERT JUMPDEST POP POP POP POP PUSH1 0x40 MLOAD RETURNDATASIZE PUSH1 0x1F NOT PUSH1 0x1F DUP3 ADD AND DUP3 ADD DUP1 PUSH1 0x40 MSTORE POP DUP2 ADD SWAP1 PUSH2 0x6F8 SWAP2 SWAP1 PUSH2 0x1FE9 JUMP JUMPDEST PUSH1 0x1 PUSH1 0x1 PUSH1 0x80 SHL SUB AND PUSH1 0x80 DUP5 ADD MSTORE PUSH1 0x1 PUSH1 0x1 PUSH1 0x40 SHL SUB SWAP1 DUP2 AND PUSH1 0x60 DUP5 ADD MSTORE AND PUSH1 0x40 DUP1 DUP4 ADD SWAP2 SWAP1 SWAP2 MSTORE DUP1 MLOAD PUSH4 0x36D0054B PUSH1 0xE0 SHL DUP2 MSTORE SWAP1 MLOAD PUSH1 0x1 PUSH1 0x1 PUSH1 0xA0 SHL SUB DUP5 AND SWAP2 PUSH4 0x36D0054B SWAP2 PUSH1 0x4 DUP1 DUP4 ADD SWAP3 PUSH1 0x20 SWAP3 SWAP2 SWAP1 DUP3 SWAP1 SUB ADD DUP2 DUP7 DUP1 EXTCODESIZE ISZERO DUP1 ISZERO PUSH2 0x75E JUMPI PUSH1 0x0 DUP1 REVERT JUMPDEST POP GAS STATICCALL ISZERO DUP1 ISZERO PUSH2 0x772 JUMPI RETURNDATASIZE PUSH1 0x0 DUP1 RETURNDATACOPY RETURNDATASIZE PUSH1 0x0 REVERT JUMPDEST POP POP POP POP PUSH1 0x40 MLOAD RETURNDATASIZE PUSH1 0x1F NOT PUSH1 0x1F DUP3 ADD AND DUP3 ADD DUP1 PUSH1 0x40 MSTORE POP DUP2 ADD SWAP1 PUSH2 0x796 SWAP2 SWAP1 PUSH2 0x1E3C JUMP JUMPDEST ISZERO ISZERO PUSH2 0x120 DUP3 ADD MSTORE PUSH1 0x40 DUP1 MLOAD PUSH4 0xE0E081D7 PUSH1 0xE0 SHL DUP2 MSTORE SWAP1 MLOAD PUSH1 0x1 PUSH1 0x1 PUSH1 0xA0 SHL SUB DUP5 AND SWAP2 PUSH4 0xE0E081D7 SWAP2 PUSH1 0x4 DUP1 DUP4 ADD SWAP3 PUSH1 0x80 SWAP3 SWAP2 SWAP1 DUP3 SWAP1 SUB ADD DUP2 DUP7 DUP1 EXTCODESIZE ISZERO DUP1 ISZERO PUSH2 0x7DE JUMPI PUSH1 0x0 DUP1 REVERT JUMPDEST POP GAS STATICCALL ISZERO DUP1 ISZERO PUSH2 0x7F2 JUMPI RETURNDATASIZE PUSH1 0x0 DUP1 RETURNDATACOPY RETURNDATASIZE PUSH1 0x0 REVERT JUMPDEST POP POP POP POP PUSH1 0x40 MLOAD RETURNDATASIZE PUSH1 0x1F NOT PUSH1 0x1F DUP3 ADD AND DUP3 ADD DUP1 PUSH1 0x40 MSTORE POP DUP2 ADD SWAP1 PUSH2 0x816 SWAP2 SWAP1 PUSH2 0x1F76 JUMP JUMPDEST ISZERO ISZERO PUSH2 0x100 DUP6 ADD MSTORE ISZERO ISZERO PUSH1 0xE0 DUP5 ADD MSTORE PUSH1 0xC0 DUP4 ADD MSTORE PUSH1 0xA0 DUP3 ADD MSTORE PUSH1 0x40 DUP1 MLOAD PUSH4 0x4CFED99 PUSH1 0xE5 SHL DUP2 MSTORE SWAP1 MLOAD PUSH2 0x874 SWAP2 PUSH1 0x1 PUSH1 0x1 PUSH1 0xA0 SHL SUB DUP6 AND SWAP2 PUSH4 0x99FDB320 SWAP2 PUSH1 0x4 DUP1 DUP3 ADD SWAP3 PUSH1 0x20 SWAP3 SWAP1 SWAP2 SWAP1 DUP3 SWAP1 SUB ADD DUP2 DUP7 DUP1 EXTCODESIZE ISZERO DUP1 ISZERO PUSH2 0x53F JUMPI PUSH1 0x0 DUP1 REVERT JUMPDEST DUP2 PUSH2 0x140 ADD DUP2 SWAP1 MSTORE POP PUSH1 0x0 DUP3 PUSH1 0x1 PUSH1 0x1 PUSH1 0xA0 SHL SUB AND PUSH4 0x3D15CC6D PUSH1 0x40 MLOAD DUP2 PUSH4 0xFFFFFFFF AND PUSH1 0xE0 SHL DUP2 MSTORE PUSH1 0x4 ADD PUSH1 0x20 PUSH1 0x40 MLOAD DUP1 DUP4 SUB DUP2 DUP7 DUP1 EXTCODESIZE ISZERO DUP1 ISZERO PUSH2 0x8B8 JUMPI PUSH1 0x0 DUP1 REVERT JUMPDEST POP GAS STATICCALL ISZERO DUP1 ISZERO PUSH2 0x8CC JUMPI RETURNDATASIZE PUSH1 0x0 DUP1 RETURNDATACOPY RETURNDATASIZE PUSH1 0x0 REVERT JUMPDEST POP POP POP POP PUSH1 0x40 MLOAD RETURNDATASIZE PUSH1 0x1F NOT PUSH1 0x1F DUP3 ADD AND DUP3 ADD DUP1 PUSH1 0x40 MSTORE POP DUP2 ADD SWAP1 PUSH2 0x8F0 SWAP2 SWAP1 PUSH2 0x1BC3 JUMP JUMPDEST SWAP1 POP PUSH2 0x8FA PUSH2 0x19FF JUMP JUMPDEST PUSH1 0x1 PUSH1 0x1 PUSH1 0xA0 SHL SUB DUP3 AND PUSH20 0xEEEEEEEEEEEEEEEEEEEEEEEEEEEEEEEEEEEEEEEE EQ ISZERO PUSH2 0x92E JUMPI PUSH2 0x927 PUSH2 0x17B1 JUMP JUMPDEST SWAP1 POP PUSH2 0x93A JUMP JUMPDEST PUSH2 0x937 DUP3 PUSH2 0x95B JUMP JUMPDEST SWAP1 POP JUMPDEST PUSH2 0x160 DUP4 ADD DUP2 SWAP1 MSTORE PUSH2 0x94B DUP7 PUSH2 0xAF1 JUMP JUMPDEST PUSH2 0x180 DUP5 ADD MSTORE POP SWAP1 SWAP5 SWAP4 POP POP POP POP JUMP JUMPDEST PUSH2 0x963 PUSH2 0x19FF JUMP JUMPDEST PUSH2 0x96B PUSH2 0x19FF JUMP JUMPDEST PUSH1 0x1 PUSH1 0x1 PUSH1 0xA0 SHL SUB DUP4 AND DUP1 DUP3 MSTORE PUSH1 0x40 DUP1 MLOAD PUSH4 0x6FDDE03 PUSH1 0xE0 SHL DUP2 MSTORE SWAP1 MLOAD DUP6 SWAP3 SWAP2 PUSH4 0x6FDDE03 SWAP2 PUSH1 0x4 DUP1 DUP4 ADD SWAP3 PUSH1 0x0 SWAP3 SWAP2 SWAP1 DUP3 SWAP1 SUB ADD DUP2 DUP7 DUP1 EXTCODESIZE ISZERO DUP1 ISZERO PUSH2 0x9B0 JUMPI PUSH1 0x0 DUP1 REVERT JUMPDEST POP GAS STATICCALL ISZERO DUP1 ISZERO PUSH2 0x9C4 JUMPI RETURNDATASIZE PUSH1 0x0 DUP1 RETURNDATACOPY RETURNDATASIZE PUSH1 0x0 REVERT JUMPDEST POP POP POP POP PUSH1 0x40 MLOAD RETURNDATASIZE PUSH1 0x0 DUP3 RETURNDATACOPY PUSH1 0x1F RETURNDATASIZE SWAP1 DUP2 ADD PUSH1 0x1F NOT AND DUP3 ADD PUSH1 0x40 MSTORE PUSH2 0x9EC SWAP2 SWAP1 DUP2 ADD SWAP1 PUSH2 0x1E58 JUMP JUMPDEST DUP3 PUSH1 0x40 ADD DUP2 SWAP1 MSTORE POP DUP1 PUSH1 0x1 PUSH1 0x1 PUSH1 0xA0 SHL SUB AND PUSH4 0x95D89B41 PUSH1 0x40 MLOAD DUP2 PUSH4 0xFFFFFFFF AND PUSH1 0xE0 SHL DUP2 MSTORE PUSH1 0x4 ADD PUSH1 0x0 PUSH1 0x40 MLOAD DUP1 DUP4 SUB DUP2 DUP7 DUP1 EXTCODESIZE ISZERO DUP1 ISZERO PUSH2 0xA2D JUMPI PUSH1 0x0 DUP1 REVERT JUMPDEST POP GAS STATICCALL ISZERO DUP1 ISZERO PUSH2 0xA41 JUMPI RETURNDATASIZE PUSH1 0x0 DUP1 RETURNDATACOPY RETURNDATASIZE PUSH1 0x0 REVERT JUMPDEST POP POP POP POP PUSH1 0x40 MLOAD RETURNDATASIZE PUSH1 0x0 DUP3 RETURNDATACOPY PUSH1 0x1F RETURNDATASIZE SWAP1 DUP2 ADD PUSH1 0x1F NOT AND DUP3 ADD PUSH1 0x40 MSTORE PUSH2 0xA69 SWAP2 SWAP1 DUP2 ADD SWAP1 PUSH2 0x1E58 JUMP JUMPDEST DUP3 PUSH1 0x60 ADD DUP2 SWAP1 MSTORE POP DUP1 PUSH1 0x1 PUSH1 0x1 PUSH1 0xA0 SHL SUB AND PUSH4 0x313CE567 PUSH1 0x40 MLOAD DUP2 PUSH4 0xFFFFFFFF AND PUSH1 0xE0 SHL DUP2 MSTORE PUSH1 0x4 ADD PUSH1 0x20 PUSH1 0x40 MLOAD DUP1 DUP4 SUB DUP2 DUP7 DUP1 EXTCODESIZE ISZERO DUP1 ISZERO PUSH2 0xAAA JUMPI PUSH1 0x0 DUP1 REVERT JUMPDEST POP GAS STATICCALL ISZERO DUP1 ISZERO PUSH2 0xABE JUMPI RETURNDATASIZE PUSH1 0x0 DUP1 RETURNDATACOPY RETURNDATASIZE PUSH1 0x0 REVERT JUMPDEST POP POP POP POP PUSH1 0x40 MLOAD RETURNDATASIZE PUSH1 0x1F NOT PUSH1 0x1F DUP3 ADD AND DUP3 ADD DUP1 PUSH1 0x40 MSTORE POP DUP2 ADD SWAP1 PUSH2 0xAE2 SWAP2 SWAP1 PUSH2 0x202A JUMP JUMPDEST PUSH1 0xFF AND PUSH1 0x20 DUP4 ADD MSTORE POP SWAP3 SWAP2 POP POP JUMP JUMPDEST PUSH1 0x60 PUSH1 0x0 DUP3 SWAP1 POP PUSH1 0x0 DUP2 PUSH1 0x1 PUSH1 0x1 PUSH1 0xA0 SHL SUB AND PUSH4 0x3D1C2273 PUSH1 0x40 MLOAD DUP2 PUSH4 0xFFFFFFFF AND PUSH1 0xE0 SHL DUP2 MSTORE PUSH1 0x4 ADD PUSH1 0x20 PUSH1 0x40 MLOAD DUP1 DUP4 SUB DUP2 DUP7 DUP1 EXTCODESIZE ISZERO DUP1 ISZERO PUSH2 0xB33 JUMPI PUSH1 0x0 DUP1 REVERT JUMPDEST POP GAS STATICCALL ISZERO DUP1 ISZERO PUSH2 0xB47 JUMPI RETURNDATASIZE PUSH1 0x0 DUP1 RETURNDATACOPY RETURNDATASIZE PUSH1 0x0 REVERT JUMPDEST POP POP POP POP PUSH1 0x40 MLOAD RETURNDATASIZE PUSH1 0x1F NOT PUSH1 0x1F DUP3 ADD AND DUP3 ADD DUP1 PUSH1 0x40 MSTORE POP DUP2 ADD SWAP1 PUSH2 0xB6B SWAP2 SWAP1 PUSH2 0x1F3D JUMP JUMPDEST SWAP1 POP PUSH1 0x60 DUP2 PUSH1 0x1 PUSH1 0x1 PUSH1 0x40 SHL SUB DUP2 GT DUP1 ISZERO PUSH2 0xB85 JUMPI PUSH1 0x0 DUP1 REVERT JUMPDEST POP PUSH1 0x40 MLOAD SWAP1 DUP1 DUP3 MSTORE DUP1 PUSH1 0x20 MUL PUSH1 0x20 ADD DUP3 ADD PUSH1 0x40 MSTORE DUP1 ISZERO PUSH2 0xBBF JUMPI DUP2 PUSH1 0x20 ADD JUMPDEST PUSH2 0xBAC PUSH2 0x1A8E JUMP JUMPDEST DUP2 MSTORE PUSH1 0x20 ADD SWAP1 PUSH1 0x1 SWAP1 SUB SWAP1 DUP2 PUSH2 0xBA4 JUMPI SWAP1 POP JUMPDEST POP SWAP1 POP PUSH1 0x0 JUMPDEST DUP3 DUP2 LT ISZERO PUSH2 0xD2C JUMPI PUSH1 0x40 MLOAD PUSH4 0x635AA3F3 PUSH1 0xE1 SHL DUP2 MSTORE PUSH1 0x60 SWAP1 PUSH1 0x1 PUSH1 0x1 PUSH1 0xA0 SHL SUB DUP7 AND SWAP1 PUSH4 0xC6B547E6 SWAP1 PUSH2 0xBFC SWAP1 DUP6 SWAP1 PUSH1 0x4 ADD PUSH2 0x2725 JUMP JUMPDEST PUSH1 0x0 PUSH1 0x40 MLOAD DUP1 DUP4 SUB DUP2 DUP7 DUP1 EXTCODESIZE ISZERO DUP1 ISZERO PUSH2 0xC14 JUMPI PUSH1 0x0 DUP1 REVERT JUMPDEST POP GAS STATICCALL ISZERO DUP1 ISZERO PUSH2 0xC28 JUMPI RETURNDATASIZE PUSH1 0x0 DUP1 RETURNDATACOPY RETURNDATASIZE PUSH1 0x0 REVERT JUMPDEST POP POP POP POP PUSH1 0x40 MLOAD RETURNDATASIZE PUSH1 0x0 DUP3 RETURNDATACOPY PUSH1 0x1F RETURNDATASIZE SWAP1 DUP2 ADD PUSH1 0x1F NOT AND DUP3 ADD PUSH1 0x40 MSTORE PUSH2 0xC50 SWAP2 SWAP1 DUP2 ADD SWAP1 PUSH2 0x1E58 JUMP JUMPDEST PUSH1 0x40 MLOAD PUSH4 0x1F32DA99 PUSH1 0xE2 SHL DUP2 MSTORE SWAP1 SWAP2 POP PUSH1 0x1 PUSH1 0x1 PUSH1 0xA0 SHL SUB DUP7 AND SWAP1 PUSH4 0x7CCB6A64 SWAP1 PUSH2 0xC7F SWAP1 DUP5 SWAP1 PUSH1 0x4 ADD PUSH2 0x2466 JUMP JUMPDEST PUSH1 0x0 PUSH1 0x40 MLOAD DUP1 DUP4 SUB DUP2 DUP7 DUP1 EXTCODESIZE ISZERO DUP1 ISZERO PUSH2 0xC97 JUMPI PUSH1 0x0 DUP1 REVERT JUMPDEST POP GAS STATICCALL ISZERO DUP1 ISZERO PUSH2 0xCAB JUMPI RETURNDATASIZE PUSH1 0x0 DUP1 RETURNDATACOPY RETURNDATASIZE PUSH1 0x0 REVERT JUMPDEST POP POP POP POP PUSH1 0x40 MLOAD RETURNDATASIZE PUSH1 0x0 DUP3 RETURNDATACOPY PUSH1 0x1F RETURNDATASIZE SWAP1 DUP2 ADD PUSH1 0x1F NOT AND DUP3 ADD PUSH1 0x40 MSTORE PUSH2 0xCD3 SWAP2 SWAP1 DUP2 ADD SWAP1 PUSH2 0x1E8A JUMP JUMPDEST DUP5 DUP5 DUP2 MLOAD DUP2 LT PUSH2 0xCDF JUMPI INVALID JUMPDEST PUSH1 0x20 MUL PUSH1 0x20 ADD ADD MLOAD PUSH1 0x20 ADD DUP6 DUP6 DUP2 MLOAD DUP2 LT PUSH2 0xCF6 JUMPI INVALID JUMPDEST PUSH1 0x20 MUL PUSH1 0x20 ADD ADD MLOAD PUSH1 0x40 ADD DUP3 DUP2 MSTORE POP DUP3 SWAP1 MSTORE POP POP DUP1 DUP4 DUP4 DUP2 MLOAD DUP2 LT PUSH2 0xD17 JUMPI INVALID JUMPDEST PUSH1 0x20 SWAP1 DUP2 MUL SWAP2 SWAP1 SWAP2 ADD ADD MLOAD MSTORE POP PUSH1 0x1 ADD PUSH2 0xBC5 JUMP JUMPDEST POP SWAP5 SWAP4 POP POP POP POP JUMP JUMPDEST PUSH2 0xD3D PUSH2 0x1AAF JUMP JUMPDEST PUSH1 0x40 MLOAD PUSH4 0xE8FCF723 PUSH1 0xE0 SHL DUP2 MSTORE DUP4 SWAP1 PUSH1 0x1 PUSH1 0x1 PUSH1 0xA0 SHL SUB DUP3 AND SWAP1 PUSH4 0xE8FCF723 SWAP1 PUSH2 0xD6B SWAP1 DUP7 SWAP1 PUSH1 0x4 ADD PUSH2 0x22BD JUMP JUMPDEST PUSH1 0x20 PUSH1 0x40 MLOAD DUP1 DUP4 SUB DUP2 DUP7 DUP1 EXTCODESIZE ISZERO DUP1 ISZERO PUSH2 0xD83 JUMPI PUSH1 0x0 DUP1 REVERT JUMPDEST POP GAS STATICCALL ISZERO DUP1 ISZERO PUSH2 0xD97 JUMPI RETURNDATASIZE PUSH1 0x0 DUP1 RETURNDATACOPY RETURNDATASIZE PUSH1 0x0 REVERT JUMPDEST POP POP POP POP PUSH1 0x40 MLOAD RETURNDATASIZE PUSH1 0x1F NOT PUSH1 0x1F DUP3 ADD AND DUP3 ADD DUP1 PUSH1 0x40 MSTORE POP DUP2 ADD SWAP1 PUSH2 0xDBB SWAP2 SWAP1 PUSH2 0x1F3D JUMP JUMPDEST DUP3 MSTORE PUSH1 0x40 MLOAD PUSH4 0x4DC80E15 PUSH1 0xE0 SHL DUP2 MSTORE PUSH1 0x1 PUSH1 0x1 PUSH1 0xA0 SHL SUB DUP3 AND SWAP1 PUSH4 0x4DC80E15 SWAP1 PUSH2 0xDE9 SWAP1 DUP7 SWAP1 PUSH1 0x4 ADD PUSH2 0x22BD JUMP JUMPDEST PUSH1 0x20 PUSH1 0x40 MLOAD DUP1 DUP4 SUB DUP2 DUP7 DUP1 EXTCODESIZE ISZERO DUP1 ISZERO PUSH2 0xE01 JUMPI PUSH1 0x0 DUP1 REVERT JUMPDEST POP GAS STATICCALL ISZERO DUP1 ISZERO PUSH2 0xE15 JUMPI RETURNDATASIZE PUSH1 0x0 DUP1 RETURNDATACOPY RETURNDATASIZE PUSH1 0x0 REVERT JUMPDEST POP POP POP POP PUSH1 0x40 MLOAD RETURNDATASIZE PUSH1 0x1F NOT PUSH1 0x1F DUP3 ADD AND DUP3 ADD DUP1 PUSH1 0x40 MSTORE POP DUP2 ADD SWAP1 PUSH2 0xE39 SWAP2 SWAP1 PUSH2 0x1F3D JUMP JUMPDEST PUSH1 0x20 DUP4 ADD MSTORE PUSH1 0x40 MLOAD PUSH4 0xC884EF83 PUSH1 0xE0 SHL DUP2 MSTORE PUSH1 0x1 PUSH1 0x1 PUSH1 0xA0 SHL SUB DUP3 AND SWAP1 PUSH4 0xC884EF83 SWAP1 PUSH2 0xE6A SWAP1 DUP7 SWAP1 PUSH1 0x4 ADD PUSH2 0x22BD JUMP JUMPDEST PUSH1 0x20 PUSH1 0x40 MLOAD DUP1 DUP4 SUB DUP2 DUP7 DUP1 EXTCODESIZE ISZERO DUP1 ISZERO PUSH2 0xE82 JUMPI PUSH1 0x0 DUP1 REVERT JUMPDEST POP GAS STATICCALL ISZERO DUP1 ISZERO PUSH2 0xE96 JUMPI RETURNDATASIZE PUSH1 0x0 DUP1 RETURNDATACOPY RETURNDATASIZE PUSH1 0x0 REVERT JUMPDEST POP POP POP POP PUSH1 0x40 MLOAD RETURNDATASIZE PUSH1 0x1F NOT PUSH1 0x1F DUP3 ADD AND DUP3 ADD DUP1 PUSH1 0x40 MSTORE POP DUP2 ADD SWAP1 PUSH2 0xEBA SWAP2 SWAP1 PUSH2 0x1F3D JUMP JUMPDEST PUSH1 0x40 DUP1 DUP5 ADD SWAP2 SWAP1 SWAP2 MSTORE MLOAD PUSH4 0xC395FCB3 PUSH1 0xE0 SHL DUP2 MSTORE PUSH1 0x1 PUSH1 0x1 PUSH1 0xA0 SHL SUB DUP3 AND SWAP1 PUSH4 0xC395FCB3 SWAP1 PUSH2 0xEED SWAP1 DUP7 SWAP1 PUSH1 0x4 ADD PUSH2 0x22BD JUMP JUMPDEST PUSH1 0x20 PUSH1 0x40 MLOAD DUP1 DUP4 SUB DUP2 DUP7 DUP1 EXTCODESIZE ISZERO DUP1 ISZERO PUSH2 0xF05 JUMPI PUSH1 0x0 DUP1 REVERT JUMPDEST POP GAS STATICCALL ISZERO DUP1 ISZERO PUSH2 0xF19 JUMPI RETURNDATASIZE PUSH1 0x0 DUP1 RETURNDATACOPY RETURNDATASIZE PUSH1 0x0 REVERT JUMPDEST POP POP POP POP PUSH1 0x40 MLOAD RETURNDATASIZE PUSH1 0x1F NOT PUSH1 0x1F DUP3 ADD AND DUP3 ADD DUP1 PUSH1 0x40 MSTORE POP DUP2 ADD SWAP1 PUSH2 0xF3D SWAP2 SWAP1 PUSH2 0x1E3C JUMP JUMPDEST ISZERO ISZERO PUSH1 0x60 DUP4 ADD MSTORE POP SWAP3 SWAP2 POP POP JUMP JUMPDEST PUSH1 0x0 DUP1 SLOAD PUSH1 0x40 DUP1 MLOAD PUSH4 0x286CEA39 PUSH1 0xE1 SHL DUP2 MSTORE SWAP1 MLOAD PUSH1 0x60 SWAP4 SWAP3 PUSH1 0x1 PUSH1 0x1 PUSH1 0xA0 SHL SUB AND SWAP2 PUSH4 0x50D9D472 SWAP2 PUSH1 0x4 DUP1 DUP4 ADD SWAP3 PUSH1 0x20 SWAP3 SWAP2 SWAP1 DUP3 SWAP1 SUB ADD DUP2 DUP7 DUP1 EXTCODESIZE ISZERO DUP1 ISZERO PUSH2 0xF92 JUMPI PUSH1 0x0 DUP1 REVERT JUMPDEST POP GAS STATICCALL ISZERO DUP1 ISZERO PUSH2 0xFA6 JUMPI RETURNDATASIZE PUSH1 0x0 DUP1 RETURNDATACOPY RETURNDATASIZE PUSH1 0x0 REVERT JUMPDEST POP POP POP POP PUSH1 0x40 MLOAD RETURNDATASIZE PUSH1 0x1F NOT PUSH1 0x1F DUP3 ADD AND DUP3 ADD DUP1 PUSH1 0x40 MSTORE POP DUP2 ADD SWAP1 PUSH2 0xFCA SWAP2 SWAP1 PUSH2 0x1F3D JUMP JUMPDEST SWAP1 POP DUP4 DUP6 MUL DUP4 ADD DUP1 DUP7 ADD PUSH1 0x60 DUP4 DUP3 GT ISZERO PUSH2 0xFE2 JUMPI DUP4 SWAP2 POP JUMPDEST DUP3 DUP3 LT ISZERO PUSH2 0xFF5 JUMPI SWAP4 POP PUSH2 0x110C SWAP3 POP POP POP JUMP JUMPDEST DUP3 DUP3 SUB PUSH1 0x1 PUSH1 0x1 PUSH1 0x40 SHL SUB DUP2 GT DUP1 ISZERO PUSH2 0x100D JUMPI PUSH1 0x0 DUP1 REVERT JUMPDEST POP PUSH1 0x40 MLOAD SWAP1 DUP1 DUP3 MSTORE DUP1 PUSH1 0x20 MUL PUSH1 0x20 ADD DUP3 ADD PUSH1 0x40 MSTORE DUP1 ISZERO PUSH2 0x1047 JUMPI DUP2 PUSH1 0x20 ADD JUMPDEST PUSH2 0x1034 PUSH2 0x1AD9 JUMP JUMPDEST DUP2 MSTORE PUSH1 0x20 ADD SWAP1 PUSH1 0x1 SWAP1 SUB SWAP1 DUP2 PUSH2 0x102C JUMPI SWAP1 POP JUMPDEST POP SWAP1 POP PUSH1 0x0 JUMPDEST DUP3 DUP5 DUP3 ADD LT ISZERO PUSH2 0x1105 JUMPI PUSH1 0x0 DUP1 SLOAD PUSH1 0x40 MLOAD PUSH4 0x2B8D135 PUSH1 0xE5 SHL DUP2 MSTORE PUSH1 0x1 PUSH1 0x1 PUSH1 0xA0 SHL SUB SWAP1 SWAP2 AND SWAP1 PUSH4 0x571A26A0 SWAP1 PUSH2 0x108A SWAP1 DUP6 DUP10 ADD SWAP1 PUSH1 0x4 ADD PUSH2 0x2725 JUMP JUMPDEST PUSH1 0x20 PUSH1 0x40 MLOAD DUP1 DUP4 SUB DUP2 DUP7 DUP1 EXTCODESIZE ISZERO DUP1 ISZERO PUSH2 0x10A2 JUMPI PUSH1 0x0 DUP1 REVERT JUMPDEST POP GAS STATICCALL ISZERO DUP1 ISZERO PUSH2 0x10B6 JUMPI RETURNDATASIZE PUSH1 0x0 DUP1 RETURNDATACOPY RETURNDATASIZE PUSH1 0x0 REVERT JUMPDEST POP POP POP POP PUSH1 0x40 MLOAD RETURNDATASIZE PUSH1 0x1F NOT PUSH1 0x1F DUP3 ADD AND DUP3 ADD DUP1 PUSH1 0x40 MSTORE POP DUP2 ADD SWAP1 PUSH2 0x10DA SWAP2 SWAP1 PUSH2 0x1BC3 JUMP JUMPDEST SWAP1 POP PUSH2 0x10E5 DUP2 PUSH2 0x1821 JUMP JUMPDEST DUP4 DUP4 DUP2 MLOAD DUP2 LT PUSH2 0x10F1 JUMPI INVALID JUMPDEST PUSH1 0x20 SWAP1 DUP2 MUL SWAP2 SWAP1 SWAP2 ADD ADD MSTORE POP PUSH1 0x1 ADD PUSH2 0x104D JUMP JUMPDEST POP SWAP4 POP POP POP POP JUMPDEST SWAP4 SWAP3 POP POP POP JUMP JUMPDEST PUSH2 0x111B PUSH2 0x197F JUMP JUMPDEST DUP2 PUSH2 0x1124 PUSH2 0x197F JUMP JUMPDEST PUSH1 0x1 PUSH1 0x1 PUSH1 0xA0 SHL SUB DUP3 AND DUP1 DUP3 MSTORE PUSH1 0x40 DUP1 MLOAD PUSH4 0xE0E081D7 PUSH1 0xE0 SHL DUP2 MSTORE SWAP1 MLOAD PUSH4 0xE0E081D7 SWAP2 PUSH1 0x4 DUP1 DUP3 ADD SWAP3 PUSH1 0x60 SWAP3 SWAP1 SWAP2 SWAP1 DUP3 SWAP1 SUB ADD DUP2 DUP7 DUP1 EXTCODESIZE ISZERO DUP1 ISZERO PUSH2 0x1167 JUMPI PUSH1 0x0 DUP1 REVERT JUMPDEST POP GAS STATICCALL ISZERO DUP1 ISZERO PUSH2 0x117B JUMPI RETURNDATASIZE PUSH1 0x0 DUP1 RETURNDATACOPY RETURNDATASIZE PUSH1 0x0 REVERT JUMPDEST POP POP POP POP PUSH1 0x40 MLOAD RETURNDATASIZE PUSH1 0x1F NOT PUSH1 0x1F DUP3 ADD AND DUP3 ADD DUP1 PUSH1 0x40 MSTORE POP DUP2 ADD SWAP1 PUSH2 0x119F SWAP2 SWAP1 PUSH2 0x1ECE JUMP JUMPDEST ISZERO ISZERO PUSH2 0x120 DUP5 ADD MSTORE ISZERO ISZERO PUSH2 0x100 DUP4 ADD MSTORE PUSH1 0x1 PUSH1 0x1 PUSH1 0x80 SHL SUB AND PUSH1 0x40 DUP1 DUP4 ADD SWAP2 SWAP1 SWAP2 MSTORE DUP1 MLOAD PUSH3 0x18DF7 PUSH1 0xE9 SHL DUP2 MSTORE SWAP1 MLOAD PUSH1 0x1 PUSH1 0x1 PUSH1 0xA0 SHL SUB DUP5 AND SWAP2 PUSH4 0x31BEE00 SWAP2 PUSH1 0x4 DUP1 DUP4 ADD SWAP3 PUSH1 0x60 SWAP3 SWAP2 SWAP1 DUP3 SWAP1 SUB ADD DUP2 DUP7 DUP1 EXTCODESIZE ISZERO DUP1 ISZERO PUSH2 0x11FE JUMPI PUSH1 0x0 DUP1 REVERT JUMPDEST POP GAS STATICCALL ISZERO DUP1 ISZERO PUSH2 0x1212 JUMPI RETURNDATASIZE PUSH1 0x0 DUP1 RETURNDATACOPY RETURNDATASIZE PUSH1 0x0 REVERT JUMPDEST POP POP POP POP PUSH1 0x40 MLOAD RETURNDATASIZE PUSH1 0x1F NOT PUSH1 0x1F DUP3 ADD AND DUP3 ADD DUP1 PUSH1 0x40 MSTORE POP DUP2 ADD SWAP1 PUSH2 0x1236 SWAP2 SWAP1 PUSH2 0x1FE9 JUMP JUMPDEST PUSH1 0x1 PUSH1 0x1 PUSH1 0x80 SHL SUB AND PUSH1 0x60 DUP5 ADD MSTORE PUSH1 0x1 PUSH1 0x1 PUSH1 0x40 SHL SUB SWAP1 DUP2 AND PUSH1 0xE0 DUP5 ADD MSTORE AND PUSH1 0xC0 DUP3 ADD MSTORE PUSH1 0x40 DUP1 MLOAD PUSH4 0x8B42A71 PUSH1 0xE3 SHL DUP2 MSTORE DUP2 MLOAD PUSH1 0x1 PUSH1 0x1 PUSH1 0xA0 SHL SUB DUP6 AND SWAP3 PUSH4 0x45A15388 SWAP3 PUSH1 0x4 DUP1 DUP3 ADD SWAP4 SWAP2 DUP3 SWAP1 SUB ADD DUP2 DUP7 DUP1 EXTCODESIZE ISZERO DUP1 ISZERO PUSH2 0x1296 JUMPI PUSH1 0x0 DUP1 REVERT JUMPDEST POP GAS STATICCALL ISZERO DUP1 ISZERO PUSH2 0x12AA JUMPI RETURNDATASIZE PUSH1 0x0 DUP1 RETURNDATACOPY RETURNDATASIZE PUSH1 0x0 REVERT JUMPDEST POP POP POP POP PUSH1 0x40 MLOAD RETURNDATASIZE PUSH1 0x1F NOT PUSH1 0x1F DUP3 ADD AND DUP3 ADD DUP1 PUSH1 0x40 MSTORE POP DUP2 ADD SWAP1 PUSH2 0x12CE SWAP2 SWAP1 PUSH2 0x1F0F JUMP JUMPDEST PUSH1 0x1 PUSH1 0x1 PUSH1 0x80 SHL SUB SWAP1 DUP2 AND PUSH1 0xA0 DUP5 ADD MSTORE AND PUSH1 0x80 DUP3 ADD MSTORE PUSH1 0x40 DUP1 MLOAD PUSH4 0x36D0054B PUSH1 0xE0 SHL DUP2 MSTORE SWAP1 MLOAD PUSH1 0x1 PUSH1 0x1 PUSH1 0xA0 SHL SUB DUP5 AND SWAP2 PUSH4 0x36D0054B SWAP2 PUSH1 0x4 DUP1 DUP4 ADD SWAP3 PUSH1 0x20 SWAP3 SWAP2 SWAP1 DUP3 SWAP1 SUB ADD DUP2 DUP7 DUP1 EXTCODESIZE ISZERO DUP1 ISZERO PUSH2 0x1324 JUMPI PUSH1 0x0 DUP1 REVERT JUMPDEST POP GAS STATICCALL ISZERO DUP1 ISZERO PUSH2 0x1338 JUMPI RETURNDATASIZE PUSH1 0x0 DUP1 RETURNDATACOPY RETURNDATASIZE PUSH1 0x0 REVERT JUMPDEST POP POP POP POP PUSH1 0x40 MLOAD RETURNDATASIZE PUSH1 0x1F NOT PUSH1 0x1F DUP3 ADD AND DUP3 ADD DUP1 PUSH1 0x40 MSTORE POP DUP2 ADD SWAP1 PUSH2 0x135C SWAP2 SWAP1 PUSH2 0x1E3C JUMP JUMPDEST DUP2 PUSH2 0x140 ADD SWAP1 ISZERO ISZERO SWAP1 DUP2 ISZERO ISZERO DUP2 MSTORE POP POP PUSH2 0x577 DUP3 PUSH1 0x1 PUSH1 0x1 PUSH1 0xA0 SHL SUB AND PUSH4 0x99FDB320 PUSH1 0x40 MLOAD DUP2 PUSH4 0xFFFFFFFF AND PUSH1 0xE0 SHL DUP2 MSTORE PUSH1 0x4 ADD PUSH1 0x20 PUSH1 0x40 MLOAD DUP1 DUP4 SUB DUP2 DUP7 DUP1 EXTCODESIZE ISZERO DUP1 ISZERO PUSH2 0x53F JUMPI PUSH1 0x0 DUP1 REVERT JUMPDEST PUSH1 0x60 DUP1 DUP3 MLOAD PUSH1 0x1 PUSH1 0x1 PUSH1 0x40 SHL SUB DUP2 GT DUP1 ISZERO PUSH2 0x13C2 JUMPI PUSH1 0x0 DUP1 REVERT JUMPDEST POP PUSH1 0x40 MLOAD SWAP1 DUP1 DUP3 MSTORE DUP1 PUSH1 0x20 MUL PUSH1 0x20 ADD DUP3 ADD PUSH1 0x40 MSTORE DUP1 ISZERO PUSH2 0x13FC JUMPI DUP2 PUSH1 0x20 ADD JUMPDEST PUSH2 0x13E9 PUSH2 0x19FF JUMP JUMPDEST DUP2 MSTORE PUSH1 0x20 ADD SWAP1 PUSH1 0x1 SWAP1 SUB SWAP1 DUP2 PUSH2 0x13E1 JUMPI SWAP1 POP JUMPDEST POP SWAP1 POP PUSH1 0x0 JUMPDEST DUP4 MLOAD DUP2 LT ISZERO PUSH2 0x1446 JUMPI PUSH2 0x1427 DUP5 DUP3 DUP2 MLOAD DUP2 LT PUSH2 0x141A JUMPI INVALID JUMPDEST PUSH1 0x20 MUL PUSH1 0x20 ADD ADD MLOAD PUSH2 0x95B JUMP JUMPDEST DUP3 DUP3 DUP2 MLOAD DUP2 LT PUSH2 0x1433 JUMPI INVALID JUMPDEST PUSH1 0x20 SWAP1 DUP2 MUL SWAP2 SWAP1 SWAP2 ADD ADD MSTORE PUSH1 0x1 ADD PUSH2 0x1402 JUMP JUMPDEST POP SWAP3 SWAP2 POP POP JUMP JUMPDEST PUSH1 0x2 SLOAD PUSH1 0x1 PUSH1 0x1 PUSH1 0xA0 SHL SUB AND DUP2 JUMP JUMPDEST PUSH1 0x4 SLOAD PUSH1 0x1 PUSH1 0x1 PUSH1 0xA0 SHL SUB AND DUP2 JUMP JUMPDEST PUSH1 0x60 PUSH2 0x1479 DUP4 DUP4 PUSH1 0x0 PUSH2 0xF4B JUMP JUMPDEST SWAP1 POP JUMPDEST SWAP3 SWAP2 POP POP JUMP JUMPDEST PUSH1 0x0 SLOAD PUSH1 0x1 PUSH1 0x1 PUSH1 0xA0 SHL SUB AND DUP2 JUMP JUMPDEST PUSH1 0x40 MLOAD PUSH4 0x6EB1769F PUSH1 0xE1 SHL DUP2 MSTORE PUSH1 0x0 SWAP1 PUSH1 0x1 PUSH1 0x1 PUSH1 0xA0 SHL SUB DUP6 AND SWAP1 PUSH4 0xDD62ED3E SWAP1 PUSH2 0x14C2 SWAP1 DUP7 SWAP1 DUP7 SWAP1 PUSH1 0x4 ADD PUSH2 0x22D1 JUMP JUMPDEST PUSH1 0x20 PUSH1 0x40 MLOAD DUP1 DUP4 SUB DUP2 DUP7 DUP1 EXTCODESIZE ISZERO DUP1 ISZERO PUSH2 0x14DA JUMPI PUSH1 0x0 DUP1 REVERT JUMPDEST POP GAS STATICCALL ISZERO DUP1 ISZERO PUSH2 0x14EE JUMPI RETURNDATASIZE PUSH1 0x0 DUP1 RETURNDATACOPY RETURNDATASIZE PUSH1 0x0 REVERT JUMPDEST POP POP POP POP PUSH1 0x40 MLOAD RETURNDATASIZE PUSH1 0x1F NOT PUSH1 0x1F DUP3 ADD AND DUP3 ADD DUP1 PUSH1 0x40 MSTORE POP DUP2 ADD SWAP1 PUSH2 0x1512 SWAP2 SWAP1 PUSH2 0x1F3D JUMP JUMPDEST SWAP5 SWAP4 POP POP POP POP JUMP JUMPDEST PUSH1 0x4 DUP1 SLOAD PUSH1 0x40 MLOAD PUSH4 0xC395FCB3 PUSH1 0xE0 SHL DUP2 MSTORE PUSH1 0x1 PUSH1 0x1 PUSH1 0xA0 SHL SUB SWAP1 SWAP2 AND SWAP2 PUSH4 0xC395FCB3 SWAP2 PUSH2 0x1549 SWAP2 CALLER SWAP2 ADD PUSH2 0x22BD JUMP JUMPDEST PUSH1 0x20 PUSH1 0x40 MLOAD DUP1 DUP4 SUB DUP2 DUP7 DUP1 EXTCODESIZE ISZERO DUP1 ISZERO PUSH2 0x1561 JUMPI PUSH1 0x0 DUP1 REVERT JUMPDEST POP GAS STATICCALL ISZERO DUP1 ISZERO PUSH2 0x1575 JUMPI RETURNDATASIZE PUSH1 0x0 DUP1 RETURNDATACOPY RETURNDATASIZE PUSH1 0x0 REVERT JUMPDEST POP POP POP POP PUSH1 0x40 MLOAD RETURNDATASIZE PUSH1 0x1F NOT PUSH1 0x1F DUP3 ADD AND DUP3 ADD DUP1 PUSH1 0x40 MSTORE POP DUP2 ADD SWAP1 PUSH2 0x1599 SWAP2 SWAP1 PUSH2 0x1E3C JUMP JUMPDEST PUSH2 0x15BE JUMPI PUSH1 0x40 MLOAD PUSH3 0x461BCD PUSH1 0xE5 SHL DUP2 MSTORE PUSH1 0x4 ADD PUSH2 0x15B5 SWAP1 PUSH2 0x2479 JUMP JUMPDEST PUSH1 0x40 MLOAD DUP1 SWAP2 SUB SWAP1 REVERT JUMPDEST PUSH1 0x1 PUSH1 0x1 PUSH1 0xA0 SHL SUB DUP4 AND ISZERO PUSH2 0x15E9 JUMPI PUSH1 0x0 DUP1 SLOAD PUSH1 0x1 PUSH1 0x1 PUSH1 0xA0 SHL SUB NOT AND PUSH1 0x1 PUSH1 0x1 PUSH1 0xA0 SHL SUB DUP6 AND OR SWAP1 SSTORE JUMPDEST PUSH1 0x1 PUSH1 0x1 PUSH1 0xA0 SHL SUB DUP5 AND ISZERO PUSH2 0x1614 JUMPI PUSH1 0x1 DUP1 SLOAD PUSH1 0x1 PUSH1 0x1 PUSH1 0xA0 SHL SUB NOT AND PUSH1 0x1 PUSH1 0x1 PUSH1 0xA0 SHL SUB DUP7 AND OR SWAP1 SSTORE JUMPDEST PUSH1 0x1 PUSH1 0x1 PUSH1 0xA0 SHL SUB DUP3 AND ISZERO PUSH2 0x163F JUMPI PUSH1 0x3 DUP1 SLOAD PUSH1 0x1 PUSH1 0x1 PUSH1 0xA0 SHL SUB NOT AND PUSH1 0x1 PUSH1 0x1 PUSH1 0xA0 SHL SUB DUP5 AND OR SWAP1 SSTORE JUMPDEST PUSH1 0x1 PUSH1 0x1 PUSH1 0xA0 SHL SUB DUP2 AND ISZERO PUSH2 0x166A JUMPI PUSH1 0x2 DUP1 SLOAD PUSH1 0x1 PUSH1 0x1 PUSH1 0xA0 SHL SUB NOT AND PUSH1 0x1 PUSH1 0x1 PUSH1 0xA0 SHL SUB DUP4 AND OR SWAP1 SSTORE JUMPDEST POP POP POP POP JUMP JUMPDEST PUSH1 0x1 SLOAD PUSH1 0x1 PUSH1 0x1 PUSH1 0xA0 SHL SUB AND DUP2 JUMP JUMPDEST PUSH1 0x0 DUP1 SLOAD PUSH1 0x40 DUP1 MLOAD PUSH4 0x7616480B PUSH1 0xE1 SHL DUP2 MSTORE SWAP1 MLOAD PUSH1 0x60 SWAP4 DUP5 SWAP4 PUSH1 0x1 PUSH1 0x1 PUSH1 0xA0 SHL SUB AND SWAP3 PUSH4 0xEC2C9016 SWAP3 PUSH1 0x4 DUP1 DUP4 ADD SWAP4 SWAP3 DUP3 SWAP1 SUB ADD DUP2 DUP7 DUP1 EXTCODESIZE ISZERO DUP1 ISZERO PUSH2 0x16C3 JUMPI PUSH1 0x0 DUP1 REVERT JUMPDEST POP GAS STATICCALL ISZERO DUP1 ISZERO PUSH2 0x16D7 JUMPI RETURNDATASIZE PUSH1 0x0 DUP1 RETURNDATACOPY RETURNDATASIZE PUSH1 0x0 REVERT JUMPDEST POP POP POP POP PUSH1 0x40 MLOAD RETURNDATASIZE PUSH1 0x0 DUP3 RETURNDATACOPY PUSH1 0x1F RETURNDATASIZE SWAP1 DUP2 ADD PUSH1 0x1F NOT AND DUP3 ADD PUSH1 0x40 MSTORE PUSH2 0x16FF SWAP2 SWAP1 DUP2 ADD SWAP1 PUSH2 0x1DB0 JUMP JUMPDEST SWAP1 POP PUSH1 0x60 DUP2 MLOAD PUSH1 0x1 PUSH1 0x1 PUSH1 0x40 SHL SUB DUP2 GT DUP1 ISZERO PUSH2 0x171A JUMPI PUSH1 0x0 DUP1 REVERT JUMPDEST POP PUSH1 0x40 MLOAD SWAP1 DUP1 DUP3 MSTORE DUP1 PUSH1 0x20 MUL PUSH1 0x20 ADD DUP3 ADD PUSH1 0x40 MSTORE DUP1 ISZERO PUSH2 0x1754 JUMPI DUP2 PUSH1 0x20 ADD JUMPDEST PUSH2 0x1741 PUSH2 0x1AD9 JUMP JUMPDEST DUP2 MSTORE PUSH1 0x20 ADD SWAP1 PUSH1 0x1 SWAP1 SUB SWAP1 DUP2 PUSH2 0x1739 JUMPI SWAP1 POP JUMPDEST POP SWAP1 POP PUSH1 0x0 JUMPDEST DUP3 MLOAD DUP2 LT ISZERO PUSH2 0x17AA JUMPI PUSH2 0x176B PUSH2 0x1AD9 JUMP JUMPDEST PUSH2 0x1787 DUP5 DUP4 DUP2 MLOAD DUP2 LT PUSH2 0x177A JUMPI INVALID JUMPDEST PUSH1 0x20 MUL PUSH1 0x20 ADD ADD MLOAD PUSH2 0x1821 JUMP JUMPDEST SWAP1 POP DUP1 DUP4 DUP4 DUP2 MLOAD DUP2 LT PUSH2 0x1796 JUMPI INVALID JUMPDEST PUSH1 0x20 SWAP1 DUP2 MUL SWAP2 SWAP1 SWAP2 ADD ADD MSTORE POP PUSH1 0x1 ADD PUSH2 0x175A JUMP JUMPDEST POP SWAP2 POP POP SWAP1 JUMP JUMPDEST PUSH2 0x17B9 PUSH2 0x19FF JUMP JUMPDEST PUSH20 0xEEEEEEEEEEEEEEEEEEEEEEEEEEEEEEEEEEEEEEEE DUP2 MSTORE PUSH1 0x40 DUP1 MLOAD DUP1 DUP3 ADD DUP3 MSTORE PUSH1 0x8 DUP2 MSTORE PUSH8 0x455448455245554D PUSH1 0xC0 SHL PUSH1 0x20 DUP1 DUP4 ADD SWAP2 SWAP1 SWAP2 MSTORE DUP3 DUP5 ADD SWAP2 SWAP1 SWAP2 MSTORE DUP2 MLOAD DUP1 DUP4 ADD SWAP1 SWAP3 MSTORE PUSH1 0x3 DUP3 MSTORE PUSH3 0x8AA89 PUSH1 0xEB SHL DUP3 DUP3 ADD MSTORE PUSH1 0x60 DUP4 ADD SWAP2 SWAP1 SWAP2 MSTORE PUSH1 0x12 SWAP1 DUP3 ADD MSTORE SWAP1 JUMP JUMPDEST PUSH2 0x1829 PUSH2 0x1AD9 JUMP JUMPDEST PUSH1 0x0 DUP1 SLOAD PUSH1 0x40 MLOAD PUSH4 0xB0343493 PUSH1 0xE0 SHL DUP2 MSTORE PUSH1 0x1 PUSH1 0x1 PUSH1 0xA0 SHL SUB SWAP1 SWAP2 AND SWAP1 PUSH4 0xB0343493 SWAP1 PUSH2 0x185A SWAP1 DUP7 SWAP1 PUSH1 0x4 ADD PUSH2 0x22BD JUMP JUMPDEST PUSH1 0x20 PUSH1 0x40 MLOAD DUP1 DUP4 SUB DUP2 DUP7 DUP1 EXTCODESIZE ISZERO DUP1 ISZERO PUSH2 0x1872 JUMPI PUSH1 0x0 DUP1 REVERT JUMPDEST POP GAS STATICCALL ISZERO DUP1 ISZERO PUSH2 0x1886 JUMPI RETURNDATASIZE PUSH1 0x0 DUP1 RETURNDATACOPY RETURNDATASIZE PUSH1 0x0 REVERT JUMPDEST POP POP POP POP PUSH1 0x40 MLOAD RETURNDATASIZE PUSH1 0x1F NOT PUSH1 0x1F DUP3 ADD AND DUP3 ADD DUP1 PUSH1 0x40 MSTORE POP DUP2 ADD SWAP1 PUSH2 0x18AA SWAP2 SWAP1 PUSH2 0x1FCE JUMP JUMPDEST SWAP1 POP PUSH1 0x0 DUP1 PUSH1 0x0 DUP1 DUP7 PUSH1 0x1 PUSH1 0x1 PUSH1 0xA0 SHL SUB AND PUSH4 0x314148E2 PUSH1 0x40 MLOAD DUP2 PUSH4 0xFFFFFFFF AND PUSH1 0xE0 SHL DUP2 MSTORE PUSH1 0x4 ADD PUSH1 0x80 PUSH1 0x40 MLOAD DUP1 DUP4 SUB DUP2 DUP7 DUP1 EXTCODESIZE ISZERO DUP1 ISZERO PUSH2 0x18EB JUMPI PUSH1 0x0 DUP1 REVERT JUMPDEST POP GAS STATICCALL ISZERO DUP1 ISZERO PUSH2 0x18FF JUMPI RETURNDATASIZE PUSH1 0x0 DUP1 RETURNDATACOPY RETURNDATASIZE PUSH1 0x0 REVERT JUMPDEST POP POP POP POP PUSH1 0x40 MLOAD RETURNDATASIZE PUSH1 0x1F NOT PUSH1 0x1F DUP3 ADD AND DUP3 ADD DUP1 PUSH1 0x40 MSTORE POP DUP2 ADD SWAP1 PUSH2 0x1923 SWAP2 SWAP1 PUSH2 0x1CBC JUMP JUMPDEST SWAP3 SWAP7 POP SWAP1 SWAP5 POP SWAP3 POP SWAP1 POP PUSH2 0x1935 PUSH2 0x19FF JUMP JUMPDEST PUSH2 0x193E DUP6 PUSH2 0x95B JUMP JUMPDEST PUSH1 0x1 PUSH1 0x1 PUSH1 0xA0 SHL SUB SWAP1 SWAP9 AND DUP8 MSTORE POP PUSH1 0x1 PUSH1 0x1 PUSH1 0x40 SHL SUB SWAP5 DUP6 AND PUSH1 0x20 DUP8 ADD MSTORE SWAP2 DUP5 AND PUSH1 0x40 DUP7 ADD MSTORE SWAP1 SWAP3 AND PUSH1 0x60 DUP5 ADD MSTORE POP ISZERO ISZERO PUSH1 0x80 DUP3 ADD MSTORE PUSH1 0xA0 DUP2 ADD SWAP2 SWAP1 SWAP2 MSTORE SWAP1 JUMP JUMPDEST PUSH1 0x40 DUP1 MLOAD PUSH2 0x1C0 DUP2 ADD DUP3 MSTORE PUSH1 0x0 DUP1 DUP3 MSTORE PUSH1 0x20 DUP3 ADD DUP2 SWAP1 MSTORE SWAP2 DUP2 ADD DUP3 SWAP1 MSTORE PUSH1 0x60 DUP2 ADD DUP3 SWAP1 MSTORE PUSH1 0x80 DUP2 ADD DUP3 SWAP1 MSTORE PUSH1 0xA0 DUP2 ADD DUP3 SWAP1 MSTORE PUSH1 0xC0 DUP2 ADD DUP3 SWAP1 MSTORE PUSH1 0xE0 DUP2 ADD DUP3 SWAP1 MSTORE PUSH2 0x100 DUP2 ADD DUP3 SWAP1 MSTORE PUSH2 0x120 DUP2 ADD DUP3 SWAP1 MSTORE PUSH2 0x140 DUP2 ADD SWAP2 SWAP1 SWAP2 MSTORE PUSH2 0x160 DUP2 ADD PUSH2 0x19E5 PUSH2 0x19FF JUMP JUMPDEST DUP2 MSTORE PUSH1 0x20 ADD PUSH2 0x19F2 PUSH2 0x19FF JUMP JUMPDEST DUP2 MSTORE PUSH1 0x20 ADD PUSH1 0x60 DUP2 MSTORE POP SWAP1 JUMP JUMPDEST PUSH1 0x40 MLOAD DUP1 PUSH1 0x80 ADD PUSH1 0x40 MSTORE DUP1 PUSH1 0x0 PUSH1 0x1 PUSH1 0x1 PUSH1 0xA0 SHL SUB AND DUP2 MSTORE PUSH1 0x20 ADD PUSH1 0x0 DUP2 MSTORE PUSH1 0x20 ADD PUSH1 0x60 DUP2 MSTORE PUSH1 0x20 ADD PUSH1 0x60 DUP2 MSTORE POP SWAP1 JUMP JUMPDEST PUSH1 0x40 DUP1 MLOAD PUSH2 0x1A0 DUP2 ADD DUP3 MSTORE PUSH1 0x0 DUP1 DUP3 MSTORE PUSH1 0x20 DUP3 ADD DUP2 SWAP1 MSTORE SWAP2 DUP2 ADD DUP3 SWAP1 MSTORE PUSH1 0x60 DUP2 ADD DUP3 SWAP1 MSTORE PUSH1 0x80 DUP2 ADD DUP3 SWAP1 MSTORE PUSH1 0xA0 DUP2 ADD DUP3 SWAP1 MSTORE PUSH1 0xC0 DUP2 ADD DUP3 SWAP1 MSTORE PUSH1 0xE0 DUP2 ADD DUP3 SWAP1 MSTORE PUSH2 0x100 DUP2 ADD DUP3 SWAP1 MSTORE PUSH2 0x120 DUP2 ADD SWAP2 SWAP1 SWAP2 MSTORE PUSH2 0x140 DUP2 ADD PUSH2 0x19E5 PUSH2 0x19FF JUMP JUMPDEST PUSH1 0x40 MLOAD DUP1 PUSH1 0x60 ADD PUSH1 0x40 MSTORE DUP1 PUSH1 0x60 DUP2 MSTORE PUSH1 0x20 ADD PUSH1 0x60 DUP2 MSTORE PUSH1 0x20 ADD PUSH1 0x0 DUP2 MSTORE POP SWAP1 JUMP JUMPDEST PUSH1 0x40 MLOAD DUP1 PUSH1 0x80 ADD PUSH1 0x40 MSTORE DUP1 PUSH1 0x0 DUP2 MSTORE PUSH1 0x20 ADD PUSH1 0x0 DUP2 MSTORE PUSH1 0x20 ADD PUSH1 0x0 DUP2 MSTORE PUSH1 0x20 ADD PUSH1 0x0 ISZERO ISZERO DUP2 MSTORE POP SWAP1 JUMP JUMPDEST PUSH1 0x40 DUP1 MLOAD PUSH1 0xC0 DUP2 ADD DUP3 MSTORE PUSH1 0x0 DUP1 DUP3 MSTORE PUSH1 0x20 DUP3 ADD DUP2 SWAP1 MSTORE SWAP2 DUP2 ADD DUP3 SWAP1 MSTORE PUSH1 0x60 DUP2 ADD DUP3 SWAP1 MSTORE PUSH1 0x80 DUP2 ADD SWAP2 SWAP1 SWAP2 MSTORE PUSH1 0xA0 DUP2 ADD PUSH2 0x1B10 PUSH2 0x19FF JUMP JUMPDEST SWAP1 MSTORE SWAP1 JUMP JUMPDEST DUP1 CALLDATALOAD PUSH2 0x147C DUP2 PUSH2 0x279F JUMP JUMPDEST DUP1 MLOAD DUP1 ISZERO ISZERO DUP2 EQ PUSH2 0x147C JUMPI PUSH1 0x0 DUP1 REVERT JUMPDEST PUSH1 0x0 DUP3 PUSH1 0x1F DUP4 ADD SLT PUSH2 0x1B40 JUMPI DUP1 DUP2 REVERT JUMPDEST DUP2 MLOAD PUSH1 0x1 PUSH1 0x1 PUSH1 0x40 SHL SUB DUP2 GT ISZERO PUSH2 0x1B55 JUMPI DUP2 DUP3 REVERT JUMPDEST PUSH2 0x1B68 PUSH1 0x1F DUP3 ADD PUSH1 0x1F NOT AND PUSH1 0x20 ADD PUSH2 0x272E JUMP JUMPDEST SWAP2 POP DUP1 DUP3 MSTORE DUP4 PUSH1 0x20 DUP3 DUP6 ADD ADD GT ISZERO PUSH2 0x1B7F JUMPI PUSH1 0x0 DUP1 REVERT JUMPDEST PUSH2 0x1446 DUP2 PUSH1 0x20 DUP5 ADD PUSH1 0x20 DUP7 ADD PUSH2 0x2773 JUMP JUMPDEST DUP1 MLOAD PUSH1 0x1 PUSH1 0x1 PUSH1 0x40 SHL SUB DUP2 AND DUP2 EQ PUSH2 0x147C JUMPI PUSH1 0x0 DUP1 REVERT JUMPDEST PUSH1 0x0 PUSH1 0x20 DUP3 DUP5 SUB SLT ISZERO PUSH2 0x1BB8 JUMPI DUP1 DUP2 REVERT JUMPDEST DUP2 CALLDATALOAD PUSH2 0x110C DUP2 PUSH2 0x279F JUMP JUMPDEST PUSH1 0x0 PUSH1 0x20 DUP3 DUP5 SUB SLT ISZERO PUSH2 0x1BD4 JUMPI DUP1 DUP2 REVERT JUMPDEST DUP2 MLOAD PUSH2 0x110C DUP2 PUSH2 0x279F JUMP JUMPDEST PUSH1 0x0 DUP1 PUSH1 0x40 DUP4 DUP6 SUB SLT ISZERO PUSH2 0x1BF1 JUMPI DUP1 DUP2 REVERT JUMPDEST DUP3 CALLDATALOAD PUSH2 0x1BFC DUP2 PUSH2 0x279F JUMP JUMPDEST SWAP2 POP PUSH1 0x20 DUP4 ADD CALLDATALOAD PUSH2 0x1C0C DUP2 PUSH2 0x279F JUMP JUMPDEST DUP1 SWAP2 POP POP SWAP3 POP SWAP3 SWAP1 POP JUMP JUMPDEST PUSH1 0x0 DUP1 PUSH1 0x0 PUSH1 0x60 DUP5 DUP7 SUB SLT ISZERO PUSH2 0x1C2B JUMPI DUP1 DUP2 REVERT JUMPDEST DUP4 CALLDATALOAD PUSH2 0x1C36 DUP2 PUSH2 0x279F JUMP JUMPDEST SWAP3 POP PUSH1 0x20 DUP5 ADD CALLDATALOAD PUSH2 0x1C46 DUP2 PUSH2 0x279F JUMP JUMPDEST SWAP2 POP PUSH1 0x40 DUP5 ADD CALLDATALOAD PUSH2 0x1C56 DUP2 PUSH2 0x279F JUMP JUMPDEST DUP1 SWAP2 POP POP SWAP3 POP SWAP3 POP SWAP3 JUMP JUMPDEST PUSH1 0x0 DUP1 PUSH1 0x0 DUP1 PUSH1 0x80 DUP6 DUP8 SUB SLT ISZERO PUSH2 0x1C76 JUMPI DUP1 DUP2 REVERT JUMPDEST DUP5 CALLDATALOAD PUSH2 0x1C81 DUP2 PUSH2 0x279F JUMP JUMPDEST SWAP4 POP PUSH1 0x20 DUP6 ADD CALLDATALOAD PUSH2 0x1C91 DUP2 PUSH2 0x279F JUMP JUMPDEST SWAP3 POP PUSH1 0x40 DUP6 ADD CALLDATALOAD PUSH2 0x1CA1 DUP2 PUSH2 0x279F JUMP JUMPDEST SWAP2 POP PUSH1 0x60 DUP6 ADD CALLDATALOAD PUSH2 0x1CB1 DUP2 PUSH2 0x279F JUMP JUMPDEST SWAP4 SWAP7 SWAP3 SWAP6 POP SWAP1 SWAP4 POP POP JUMP JUMPDEST PUSH1 0x0 DUP1 PUSH1 0x0 DUP1 PUSH1 0x80 DUP6 DUP8 SUB SLT ISZERO PUSH2 0x1CD1 JUMPI DUP4 DUP5 REVERT JUMPDEST DUP5 MLOAD PUSH2 0x1CDC DUP2 PUSH2 0x279F JUMP JUMPDEST SWAP4 POP PUSH2 0x1CEB DUP7 PUSH1 0x20 DUP8 ADD PUSH2 0x1B90 JUMP JUMPDEST SWAP3 POP PUSH2 0x1CFA DUP7 PUSH1 0x40 DUP8 ADD PUSH2 0x1B90 JUMP JUMPDEST SWAP2 POP PUSH2 0x1D09 DUP7 PUSH1 0x60 DUP8 ADD PUSH2 0x1B20 JUMP JUMPDEST SWAP1 POP SWAP3 SWAP6 SWAP2 SWAP5 POP SWAP3 POP JUMP JUMPDEST PUSH1 0x0 PUSH1 0x20 DUP1 DUP4 DUP6 SUB SLT ISZERO PUSH2 0x1D26 JUMPI DUP2 DUP3 REVERT JUMPDEST DUP3 CALLDATALOAD PUSH1 0x1 PUSH1 0x1 PUSH1 0x40 SHL SUB DUP2 GT ISZERO PUSH2 0x1D3B JUMPI DUP3 DUP4 REVERT JUMPDEST DUP4 ADD PUSH1 0x1F DUP2 ADD DUP6 SGT PUSH2 0x1D4B JUMPI DUP3 DUP4 REVERT JUMPDEST DUP1 CALLDATALOAD PUSH2 0x1D5E PUSH2 0x1D59 DUP3 PUSH2 0x2754 JUMP JUMPDEST PUSH2 0x272E JUMP JUMPDEST DUP2 DUP2 MSTORE DUP4 DUP2 ADD SWAP1 DUP4 DUP6 ADD DUP6 DUP5 MUL DUP6 ADD DUP7 ADD DUP10 LT ISZERO PUSH2 0x1D7A JUMPI DUP7 DUP8 REVERT JUMPDEST DUP7 SWAP5 POP JUMPDEST DUP4 DUP6 LT ISZERO PUSH2 0x1DA4 JUMPI PUSH2 0x1D90 DUP10 DUP3 PUSH2 0x1B15 JUMP JUMPDEST DUP4 MSTORE PUSH1 0x1 SWAP5 SWAP1 SWAP5 ADD SWAP4 SWAP2 DUP6 ADD SWAP2 DUP6 ADD PUSH2 0x1D7E JUMP JUMPDEST POP SWAP8 SWAP7 POP POP POP POP POP POP POP JUMP JUMPDEST PUSH1 0x0 PUSH1 0x20 DUP1 DUP4 DUP6 SUB SLT ISZERO PUSH2 0x1DC2 JUMPI DUP2 DUP3 REVERT JUMPDEST DUP3 MLOAD PUSH1 0x1 PUSH1 0x1 PUSH1 0x40 SHL SUB DUP2 GT ISZERO PUSH2 0x1DD7 JUMPI DUP3 DUP4 REVERT JUMPDEST DUP4 ADD PUSH1 0x1F DUP2 ADD DUP6 SGT PUSH2 0x1DE7 JUMPI DUP3 DUP4 REVERT JUMPDEST DUP1 MLOAD PUSH2 0x1DF5 PUSH2 0x1D59 DUP3 PUSH2 0x2754 JUMP JUMPDEST DUP2 DUP2 MSTORE DUP4 DUP2 ADD SWAP1 DUP4 DUP6 ADD DUP6 DUP5 MUL DUP6 ADD DUP7 ADD DUP10 LT ISZERO PUSH2 0x1E11 JUMPI DUP7 DUP8 REVERT JUMPDEST DUP7 SWAP5 POP JUMPDEST DUP4 DUP6 LT ISZERO PUSH2 0x1DA4 JUMPI DUP1 MLOAD PUSH2 0x1E28 DUP2 PUSH2 0x279F JUMP JUMPDEST DUP4 MSTORE PUSH1 0x1 SWAP5 SWAP1 SWAP5 ADD SWAP4 SWAP2 DUP6 ADD SWAP2 DUP6 ADD PUSH2 0x1E15 JUMP JUMPDEST PUSH1 0x0 PUSH1 0x20 DUP3 DUP5 SUB SLT ISZERO PUSH2 0x1E4D JUMPI DUP1 DUP2 REVERT JUMPDEST DUP2 MLOAD PUSH2 0x110C DUP2 PUSH2 0x27B7 JUMP JUMPDEST PUSH1 0x0 PUSH1 0x20 DUP3 DUP5 SUB SLT ISZERO PUSH2 0x1E69 JUMPI DUP1 DUP2 REVERT JUMPDEST DUP2 MLOAD PUSH1 0x1 PUSH1 0x1 PUSH1 0x40 SHL SUB DUP2 GT ISZERO PUSH2 0x1E7E JUMPI DUP2 DUP3 REVERT JUMPDEST PUSH2 0x1512 DUP5 DUP3 DUP6 ADD PUSH2 0x1B30 JUMP JUMPDEST PUSH1 0x0 DUP1 PUSH1 0x40 DUP4 DUP6 SUB SLT ISZERO PUSH2 0x1E9C JUMPI DUP1 DUP2 REVERT JUMPDEST DUP3 MLOAD PUSH1 0x1 PUSH1 0x1 PUSH1 0x40 SHL SUB DUP2 GT ISZERO PUSH2 0x1EB1 JUMPI DUP2 DUP3 REVERT JUMPDEST PUSH2 0x1EBD DUP6 DUP3 DUP7 ADD PUSH2 0x1B30 JUMP JUMPDEST SWAP3 POP POP PUSH1 0x20 DUP4 ADD MLOAD SWAP1 POP SWAP3 POP SWAP3 SWAP1 POP JUMP JUMPDEST PUSH1 0x0 DUP1 PUSH1 0x0 PUSH1 0x60 DUP5 DUP7 SUB SLT ISZERO PUSH2 0x1EE2 JUMPI DUP1 DUP2 REVERT JUMPDEST DUP4 MLOAD PUSH2 0x1EED DUP2 PUSH2 0x27C5 JUMP JUMPDEST PUSH1 0x20 DUP6 ADD MLOAD SWAP1 SWAP4 POP PUSH2 0x1EFE DUP2 PUSH2 0x27B7 JUMP JUMPDEST PUSH1 0x40 DUP6 ADD MLOAD SWAP1 SWAP3 POP PUSH2 0x1C56 DUP2 PUSH2 0x27B7 JUMP JUMPDEST PUSH1 0x0 DUP1 PUSH1 0x40 DUP4 DUP6 SUB SLT ISZERO PUSH2 0x1F21 JUMPI DUP2 DUP3 REVERT JUMPDEST DUP3 MLOAD PUSH2 0x1F2C DUP2 PUSH2 0x27C5 JUMP JUMPDEST PUSH1 0x20 DUP5 ADD MLOAD SWAP1 SWAP3 POP PUSH2 0x1C0C DUP2 PUSH2 0x27C5 JUMP JUMPDEST PUSH1 0x0 PUSH1 0x20 DUP3 DUP5 SUB SLT ISZERO PUSH2 0x1F4E JUMPI DUP1 DUP2 REVERT JUMPDEST POP MLOAD SWAP2 SWAP1 POP JUMP JUMPDEST PUSH1 0x0 DUP1 PUSH1 0x40 DUP4 DUP6 SUB SLT ISZERO PUSH2 0x1F67 JUMPI DUP2 DUP3 REVERT JUMPDEST POP POP DUP1 CALLDATALOAD SWAP3 PUSH1 0x20 SWAP1 SWAP2 ADD CALLDATALOAD SWAP2 POP JUMP JUMPDEST PUSH1 0x0 DUP1 PUSH1 0x0 DUP1 PUSH1 0x80 DUP6 DUP8 SUB SLT ISZERO PUSH2 0x1F8B JUMPI DUP2 DUP3 REVERT JUMPDEST DUP5 MLOAD SWAP4 POP PUSH1 0x20 DUP6 ADD MLOAD SWAP3 POP PUSH2 0x1CFA DUP7 PUSH1 0x40 DUP8 ADD PUSH2 0x1B20 JUMP JUMPDEST PUSH1 0x0 DUP1 PUSH1 0x0 PUSH1 0x60 DUP5 DUP7 SUB SLT ISZERO PUSH2 0x1FB7 JUMPI DUP1 DUP2 REVERT JUMPDEST POP POP DUP2 CALLDATALOAD SWAP4 PUSH1 0x20 DUP4 ADD CALLDATALOAD SWAP4 POP PUSH1 0x40 SWAP1 SWAP3 ADD CALLDATALOAD SWAP2 SWAP1 POP JUMP JUMPDEST PUSH1 0x0 PUSH1 0x20 DUP3 DUP5 SUB SLT ISZERO PUSH2 0x1FDF JUMPI DUP1 DUP2 REVERT JUMPDEST PUSH2 0x1479 DUP4 DUP4 PUSH2 0x1B90 JUMP JUMPDEST PUSH1 0x0 DUP1 PUSH1 0x0 PUSH1 0x60 DUP5 DUP7 SUB SLT ISZERO PUSH2 0x1FFD JUMPI DUP1 DUP2 REVERT JUMPDEST DUP4 MLOAD PUSH2 0x2008 DUP2 PUSH2 0x27DA JUMP JUMPDEST PUSH1 0x20 DUP6 ADD MLOAD SWAP1 SWAP4 POP PUSH2 0x2019 DUP2 PUSH2 0x27DA JUMP JUMPDEST PUSH1 0x40 DUP6 ADD MLOAD SWAP1 SWAP3 POP PUSH2 0x1C56 DUP2 PUSH2 0x27C5 JUMP JUMPDEST PUSH1 0x0 PUSH1 0x20 DUP3 DUP5 SUB SLT ISZERO PUSH2 0x203B JUMPI DUP1 DUP2 REVERT JUMPDEST DUP2 MLOAD PUSH1 0xFF DUP2 AND DUP2 EQ PUSH2 0x110C JUMPI DUP2 DUP3 REVERT JUMPDEST PUSH1 0x0 DUP2 MLOAD PUSH1 0x60 DUP5 MSTORE PUSH2 0x2060 PUSH1 0x60 DUP6 ADD DUP3 PUSH2 0x20F6 JUMP JUMPDEST SWAP1 POP PUSH1 0x20 DUP4 ADD MLOAD DUP5 DUP3 SUB PUSH1 0x20 DUP7 ADD MSTORE PUSH2 0x2079 DUP3 DUP3 PUSH2 0x20F6 JUMP JUMPDEST SWAP2 POP POP PUSH1 0x40 DUP4 ADD MLOAD PUSH1 0x40 DUP6 ADD MSTORE DUP1 SWAP2 POP POP SWAP3 SWAP2 POP POP JUMP JUMPDEST PUSH1 0x1 PUSH1 0x1 PUSH1 0xA0 SHL SUB AND SWAP1 MSTORE JUMP JUMPDEST PUSH1 0x0 DUP2 MLOAD DUP1 DUP5 MSTORE PUSH1 0x20 DUP1 DUP6 ADD DUP1 DUP2 SWAP7 POP DUP3 DUP5 MUL DUP2 ADD SWAP2 POP DUP3 DUP7 ADD DUP6 JUMPDEST DUP6 DUP2 LT ISZERO PUSH2 0x20E3 JUMPI DUP3 DUP5 SUB DUP10 MSTORE PUSH2 0x20D1 DUP5 DUP4 MLOAD PUSH2 0x204B JUMP JUMPDEST SWAP9 DUP6 ADD SWAP9 SWAP4 POP SWAP1 DUP5 ADD SWAP1 PUSH1 0x1 ADD PUSH2 0x20B9 JUMP JUMPDEST POP SWAP2 SWAP8 SWAP7 POP POP POP POP POP POP POP JUMP JUMPDEST ISZERO ISZERO SWAP1 MSTORE JUMP JUMPDEST PUSH1 0x0 DUP2 MLOAD DUP1 DUP5 MSTORE PUSH2 0x210E DUP2 PUSH1 0x20 DUP7 ADD PUSH1 0x20 DUP7 ADD PUSH2 0x2773 JUMP JUMPDEST PUSH1 0x1F ADD PUSH1 0x1F NOT AND SWAP3 SWAP1 SWAP3 ADD PUSH1 0x20 ADD SWAP3 SWAP2 POP POP JUMP JUMPDEST PUSH1 0x0 PUSH2 0x1C0 PUSH2 0x2132 DUP5 DUP5 MLOAD PUSH2 0x2090 JUMP JUMPDEST PUSH1 0x20 DUP4 ADD MLOAD PUSH2 0x2144 PUSH1 0x20 DUP7 ADD DUP3 PUSH2 0x2090 JUMP JUMPDEST POP PUSH1 0x40 DUP4 ADD MLOAD PUSH2 0x2157 PUSH1 0x40 DUP7 ADD DUP3 PUSH2 0x22B0 JUMP JUMPDEST POP PUSH1 0x60 DUP4 ADD MLOAD PUSH2 0x216A PUSH1 0x60 DUP7 ADD DUP3 PUSH2 0x22B0 JUMP JUMPDEST POP PUSH1 0x80 DUP4 ADD MLOAD PUSH2 0x217D PUSH1 0x80 DUP7 ADD DUP3 PUSH2 0x22A3 JUMP JUMPDEST POP PUSH1 0xA0 DUP4 ADD MLOAD PUSH2 0x2190 PUSH1 0xA0 DUP7 ADD DUP3 PUSH2 0x22A3 JUMP JUMPDEST POP PUSH1 0xC0 DUP4 ADD MLOAD PUSH2 0x21A3 PUSH1 0xC0 DUP7 ADD DUP3 PUSH2 0x22A3 JUMP JUMPDEST POP PUSH1 0xE0 DUP4 ADD MLOAD PUSH2 0x21B6 PUSH1 0xE0 DUP7 ADD DUP3 PUSH2 0x22A3 JUMP JUMPDEST POP PUSH2 0x100 DUP1 DUP5 ADD MLOAD PUSH2 0x21CA DUP3 DUP8 ADD DUP3 PUSH2 0x20F0 JUMP JUMPDEST POP POP PUSH2 0x120 DUP1 DUP5 ADD MLOAD PUSH2 0x21DF DUP3 DUP8 ADD DUP3 PUSH2 0x20F0 JUMP JUMPDEST POP POP PUSH2 0x140 DUP1 DUP5 ADD MLOAD PUSH2 0x21F4 DUP3 DUP8 ADD DUP3 PUSH2 0x20F0 JUMP JUMPDEST POP POP PUSH2 0x160 DUP1 DUP5 ADD MLOAD DUP3 DUP3 DUP8 ADD MSTORE PUSH2 0x220E DUP4 DUP8 ADD DUP3 PUSH2 0x2250 JUMP JUMPDEST SWAP3 POP POP POP PUSH2 0x180 DUP1 DUP5 ADD MLOAD DUP6 DUP4 SUB DUP3 DUP8 ADD MSTORE PUSH2 0x222A DUP4 DUP3 PUSH2 0x2250 JUMP JUMPDEST SWAP3 POP POP POP PUSH2 0x1A0 DUP1 DUP5 ADD MLOAD DUP6 DUP4 SUB DUP3 DUP8 ADD MSTORE PUSH2 0x2246 DUP4 DUP3 PUSH2 0x209D JUMP JUMPDEST SWAP7 SWAP6 POP POP POP POP POP POP JUMP JUMPDEST PUSH1 0x0 PUSH1 0x1 DUP1 PUSH1 0xA0 SHL SUB DUP3 MLOAD AND DUP4 MSTORE PUSH1 0x20 DUP3 ADD MLOAD PUSH1 0x20 DUP5 ADD MSTORE PUSH1 0x40 DUP3 ADD MLOAD PUSH1 0x80 PUSH1 0x40 DUP6 ADD MSTORE PUSH2 0x2281 PUSH1 0x80 DUP6 ADD DUP3 PUSH2 0x20F6 JUMP JUMPDEST SWAP1 POP PUSH1 0x60 DUP4 ADD MLOAD DUP5 DUP3 SUB PUSH1 0x60 DUP7 ADD MSTORE PUSH2 0x229A DUP3 DUP3 PUSH2 0x20F6 JUMP JUMPDEST SWAP6 SWAP5 POP POP POP POP POP JUMP JUMPDEST PUSH1 0x1 PUSH1 0x1 PUSH1 0x80 SHL SUB AND SWAP1 MSTORE JUMP JUMPDEST PUSH1 0x1 PUSH1 0x1 PUSH1 0x40 SHL SUB AND SWAP1 MSTORE JUMP JUMPDEST PUSH1 0x1 PUSH1 0x1 PUSH1 0xA0 SHL SUB SWAP2 SWAP1 SWAP2 AND DUP2 MSTORE PUSH1 0x20 ADD SWAP1 JUMP JUMPDEST PUSH1 0x1 PUSH1 0x1 PUSH1 0xA0 SHL SUB SWAP3 DUP4 AND DUP2 MSTORE SWAP2 AND PUSH1 0x20 DUP3 ADD MSTORE PUSH1 0x40 ADD SWAP1 JUMP JUMPDEST PUSH1 0x0 PUSH1 0x20 DUP1 DUP4 ADD DUP2 DUP5 MSTORE DUP1 DUP6 MLOAD DUP1 DUP4 MSTORE PUSH1 0x40 DUP7 ADD SWAP2 POP PUSH1 0x40 DUP5 DUP3 MUL DUP8 ADD ADD SWAP3 POP DUP4 DUP8 ADD DUP6 JUMPDEST DUP3 DUP2 LT ISZERO PUSH2 0x233E JUMPI PUSH1 0x3F NOT DUP9 DUP7 SUB ADD DUP5 MSTORE PUSH2 0x232C DUP6 DUP4 MLOAD PUSH2 0x204B JUMP JUMPDEST SWAP5 POP SWAP3 DUP6 ADD SWAP3 SWAP1 DUP6 ADD SWAP1 PUSH1 0x1 ADD PUSH2 0x2310 JUMP JUMPDEST POP SWAP3 SWAP8 SWAP7 POP POP POP POP POP POP POP JUMP JUMPDEST PUSH1 0x20 DUP1 DUP3 MSTORE DUP3 MLOAD DUP3 DUP3 ADD DUP2 SWAP1 MSTORE PUSH1 0x0 SWAP2 SWAP1 PUSH1 0x40 SWAP1 DUP2 DUP6 ADD SWAP1 DUP1 DUP5 MUL DUP7 ADD DUP4 ADD DUP8 DUP6 ADD DUP7 JUMPDEST DUP4 DUP2 LT ISZERO PUSH2 0x2405 JUMPI PUSH1 0x3F NOT DUP10 DUP5 SUB ADD DUP6 MSTORE DUP2 MLOAD PUSH1 0xC0 PUSH2 0x238F DUP6 DUP4 MLOAD PUSH2 0x2090 JUMP JUMPDEST DUP9 DUP3 ADD MLOAD PUSH2 0x239F DUP11 DUP8 ADD DUP3 PUSH2 0x22B0 JUMP JUMPDEST POP DUP8 DUP3 ADD MLOAD PUSH2 0x23B0 DUP10 DUP8 ADD DUP3 PUSH2 0x22B0 JUMP JUMPDEST POP PUSH1 0x60 DUP1 DUP4 ADD MLOAD PUSH2 0x23C3 DUP3 DUP9 ADD DUP3 PUSH2 0x22B0 JUMP JUMPDEST POP POP PUSH1 0x80 DUP1 DUP4 ADD MLOAD PUSH2 0x23D7 DUP3 DUP9 ADD DUP3 PUSH2 0x20F0 JUMP JUMPDEST POP POP PUSH1 0xA0 SWAP2 DUP3 ADD MLOAD SWAP2 DUP6 ADD DUP2 SWAP1 MSTORE PUSH2 0x23F1 DUP6 DUP3 ADD DUP4 PUSH2 0x2250 JUMP JUMPDEST SWAP7 DUP10 ADD SWAP7 SWAP5 POP POP POP SWAP1 DUP7 ADD SWAP1 PUSH1 0x1 ADD PUSH2 0x236F JUMP JUMPDEST POP SWAP1 SWAP9 SWAP8 POP POP POP POP POP POP POP POP JUMP JUMPDEST PUSH1 0x0 PUSH1 0x20 DUP1 DUP4 ADD DUP2 DUP5 MSTORE DUP1 DUP6 MLOAD DUP1 DUP4 MSTORE PUSH1 0x40 DUP7 ADD SWAP2 POP PUSH1 0x40 DUP5 DUP3 MUL DUP8 ADD ADD SWAP3 POP DUP4 DUP8 ADD DUP6 JUMPDEST DUP3 DUP2 LT ISZERO PUSH2 0x233E JUMPI PUSH1 0x3F NOT DUP9 DUP7 SUB ADD DUP5 MSTORE PUSH2 0x2454 DUP6 DUP4 MLOAD PUSH2 0x2250 JUMP JUMPDEST SWAP5 POP SWAP3 DUP6 ADD SWAP3 SWAP1 DUP6 ADD SWAP1 PUSH1 0x1 ADD PUSH2 0x2438 JUMP JUMPDEST PUSH1 0x0 PUSH1 0x20 DUP3 MSTORE PUSH2 0x1479 PUSH1 0x20 DUP4 ADD DUP5 PUSH2 0x20F6 JUMP JUMPDEST PUSH1 0x20 DUP1 DUP3 MSTORE DUP2 DUP2 ADD MSTORE PUSH32 0x4D49534F48656C7065723A2053656E646572206D7573742062652041646D696E PUSH1 0x40 DUP3 ADD MSTORE PUSH1 0x60 ADD SWAP1 JUMP JUMPDEST PUSH1 0x0 PUSH1 0x20 DUP3 MSTORE PUSH2 0x24C2 PUSH1 0x20 DUP4 ADD DUP5 MLOAD PUSH2 0x2090 JUMP JUMPDEST PUSH1 0x20 DUP4 ADD MLOAD PUSH2 0x24D4 PUSH1 0x40 DUP5 ADD DUP3 PUSH2 0x2090 JUMP JUMPDEST POP PUSH1 0x40 DUP4 ADD MLOAD PUSH2 0x24E7 PUSH1 0x60 DUP5 ADD DUP3 PUSH2 0x22B0 JUMP JUMPDEST POP PUSH1 0x60 DUP4 ADD MLOAD PUSH2 0x24FA PUSH1 0x80 DUP5 ADD DUP3 PUSH2 0x22B0 JUMP JUMPDEST POP PUSH1 0x80 DUP4 ADD MLOAD PUSH2 0x250D PUSH1 0xA0 DUP5 ADD DUP3 PUSH2 0x22A3 JUMP JUMPDEST POP PUSH1 0xA0 DUP4 ADD MLOAD PUSH1 0xC0 DUP4 ADD MSTORE PUSH1 0xC0 DUP4 ADD MLOAD PUSH1 0xE0 DUP4 ADD MSTORE PUSH1 0xE0 DUP4 ADD MLOAD PUSH2 0x100 PUSH2 0x2536 DUP2 DUP6 ADD DUP4 PUSH2 0x20F0 JUMP JUMPDEST DUP5 ADD MLOAD SWAP1 POP PUSH2 0x120 PUSH2 0x254A DUP5 DUP3 ADD DUP4 PUSH2 0x20F0 JUMP JUMPDEST DUP5 ADD MLOAD SWAP1 POP PUSH2 0x140 PUSH2 0x255E DUP5 DUP3 ADD DUP4 PUSH2 0x20F0 JUMP JUMPDEST DUP1 DUP6 ADD MLOAD SWAP2 POP POP PUSH2 0x1A0 PUSH2 0x160 DUP2 DUP2 DUP7 ADD MSTORE PUSH2 0x257E PUSH2 0x1C0 DUP7 ADD DUP5 PUSH2 0x2250 JUMP JUMPDEST SWAP3 POP DUP1 DUP7 ADD MLOAD SWAP1 POP PUSH1 0x1F NOT PUSH2 0x180 DUP2 DUP8 DUP7 SUB ADD DUP2 DUP9 ADD MSTORE PUSH2 0x259F DUP6 DUP5 PUSH2 0x2250 JUMP JUMPDEST SWAP1 DUP9 ADD MLOAD DUP8 DUP3 SUB SWAP1 SWAP3 ADD DUP5 DUP9 ADD MSTORE SWAP4 POP SWAP1 POP PUSH2 0x2246 DUP4 DUP3 PUSH2 0x209D JUMP JUMPDEST PUSH1 0x0 PUSH1 0x20 DUP3 MSTORE PUSH2 0x25CF PUSH1 0x20 DUP4 ADD DUP5 MLOAD PUSH2 0x2090 JUMP JUMPDEST PUSH1 0x20 DUP4 ADD MLOAD PUSH2 0x25E1 PUSH1 0x40 DUP5 ADD DUP3 PUSH2 0x2090 JUMP JUMPDEST POP PUSH1 0x40 DUP4 ADD MLOAD PUSH2 0x25F4 PUSH1 0x60 DUP5 ADD DUP3 PUSH2 0x22A3 JUMP JUMPDEST POP PUSH1 0x60 DUP4 ADD MLOAD PUSH2 0x2607 PUSH1 0x80 DUP5 ADD DUP3 PUSH2 0x22A3 JUMP JUMPDEST POP PUSH1 0x80 DUP4 ADD MLOAD PUSH2 0x261A PUSH1 0xA0 DUP5 ADD DUP3 PUSH2 0x22A3 JUMP JUMPDEST POP PUSH1 0xA0 DUP4 ADD MLOAD PUSH2 0x262D PUSH1 0xC0 DUP5 ADD DUP3 PUSH2 0x22A3 JUMP JUMPDEST POP PUSH1 0xC0 DUP4 ADD MLOAD PUSH2 0x2640 PUSH1 0xE0 DUP5 ADD DUP3 PUSH2 0x22B0 JUMP JUMPDEST POP PUSH1 0xE0 DUP4 ADD MLOAD PUSH2 0x100 PUSH2 0x2655 DUP2 DUP6 ADD DUP4 PUSH2 0x22B0 JUMP JUMPDEST DUP5 ADD MLOAD SWAP1 POP PUSH2 0x120 PUSH2 0x2669 DUP5 DUP3 ADD DUP4 PUSH2 0x20F0 JUMP JUMPDEST DUP5 ADD MLOAD SWAP1 POP PUSH2 0x140 PUSH2 0x267D DUP5 DUP3 ADD DUP4 PUSH2 0x20F0 JUMP JUMPDEST DUP5 ADD MLOAD SWAP1 POP PUSH2 0x160 PUSH2 0x2691 DUP5 DUP3 ADD DUP4 PUSH2 0x20F0 JUMP JUMPDEST DUP1 DUP6 ADD MLOAD SWAP2 POP POP PUSH2 0x1C0 PUSH2 0x180 DUP2 DUP2 DUP7 ADD MSTORE PUSH2 0x26B1 PUSH2 0x1E0 DUP7 ADD DUP5 PUSH2 0x2250 JUMP JUMPDEST SWAP3 POP DUP1 DUP7 ADD MLOAD SWAP1 POP PUSH1 0x1F NOT PUSH2 0x1A0 DUP2 DUP8 DUP7 SUB ADD DUP2 DUP9 ADD MSTORE PUSH2 0x259F DUP6 DUP5 PUSH2 0x2250 JUMP JUMPDEST PUSH1 0x0 PUSH1 0x20 DUP3 MSTORE PUSH2 0x1479 PUSH1 0x20 DUP4 ADD DUP5 PUSH2 0x2122 JUMP JUMPDEST PUSH1 0x0 PUSH1 0x20 DUP3 MSTORE PUSH2 0x1479 PUSH1 0x20 DUP4 ADD DUP5 PUSH2 0x2250 JUMP JUMPDEST DUP2 MLOAD DUP2 MSTORE PUSH1 0x20 DUP1 DUP4 ADD MLOAD SWAP1 DUP3 ADD MSTORE PUSH1 0x40 DUP1 DUP4 ADD MLOAD SWAP1 DUP3 ADD MSTORE PUSH1 0x60 SWAP2 DUP3 ADD MLOAD ISZERO ISZERO SWAP2 DUP2 ADD SWAP2 SWAP1 SWAP2 MSTORE PUSH1 0x80 ADD SWAP1 JUMP JUMPDEST SWAP1 DUP2 MSTORE PUSH1 0x20 ADD SWAP1 JUMP JUMPDEST PUSH1 0x40 MLOAD DUP2 DUP2 ADD PUSH1 0x1 PUSH1 0x1 PUSH1 0x40 SHL SUB DUP2 GT DUP3 DUP3 LT OR ISZERO PUSH2 0x274C JUMPI PUSH1 0x0 DUP1 REVERT JUMPDEST PUSH1 0x40 MSTORE SWAP2 SWAP1 POP JUMP JUMPDEST PUSH1 0x0 PUSH1 0x1 PUSH1 0x1 PUSH1 0x40 SHL SUB DUP3 GT ISZERO PUSH2 0x2769 JUMPI DUP1 DUP2 REVERT JUMPDEST POP PUSH1 0x20 SWAP1 DUP2 MUL ADD SWAP1 JUMP JUMPDEST PUSH1 0x0 JUMPDEST DUP4 DUP2 LT ISZERO PUSH2 0x278E JUMPI DUP2 DUP2 ADD MLOAD DUP4 DUP3 ADD MSTORE PUSH1 0x20 ADD PUSH2 0x2776 JUMP JUMPDEST DUP4 DUP2 GT ISZERO PUSH2 0x166A JUMPI POP POP PUSH1 0x0 SWAP2 ADD MSTORE JUMP JUMPDEST PUSH1 0x1 PUSH1 0x1 PUSH1 0xA0 SHL SUB DUP2 AND DUP2 EQ PUSH2 0x27B4 JUMPI PUSH1 0x0 DUP1 REVERT JUMPDEST POP JUMP JUMPDEST DUP1 ISZERO ISZERO DUP2 EQ PUSH2 0x27B4 JUMPI PUSH1 0x0 DUP1 REVERT JUMPDEST PUSH1 0x1 PUSH1 0x1 PUSH1 0x80 SHL SUB DUP2 AND DUP2 EQ PUSH2 0x27B4 JUMPI PUSH1 0x0 DUP1 REVERT JUMPDEST PUSH1 0x1 PUSH1 0x1 PUSH1 0x40 SHL SUB DUP2 AND DUP2 EQ PUSH2 0x27B4 JUMPI PUSH1 0x0 DUP1 REVERT INVALID LOG2 PUSH5 0x6970667358 0x22 SLT KECCAK256 0xEC SWAP1 ORIGIN 0x24 PUSH2 0xD58E DUP15 BYTE 0xAA SSTORE CALLCODE 0x1F 0xE0 0xF8 MUL 0xC2 DUP10 SLOAD 0x29 SAR PUSH17 0xACCEC9191D2B50DD798D64736F6C634300 MOD 0xC STOP CALLER ",
  "sha1": "390cfdb26302af5b4919534fd00a094493854e63",
  "source": "// SPDX-License-Identifier: GPL-3.0-only\npragma solidity 0.6.12;\npragma experimental ABIEncoderV2;\n\nimport \"../Access/MISOAccessControls.sol\";\n\n//==================\n//    Uniswap V2       \n//==================\n\ninterface IUniswapFactory {\n    function getPair(address token0, address token1) external view returns (address);\n}\n\ninterface IUniswapPair {\n    function balanceOf(address owner) external view returns (uint);\n    function allowance(address owner) external view returns (uint);\n    function token0() external view returns (address);\n    function token1() external view returns (address);\n    function getReserves() external view returns (uint112 reserve0, uint112 reserve1, uint32 blockTimestampLast);\n    function price0CumulativeLast() external view returns (uint);\n    function price1CumulativeLast() external view returns (uint);\n    function kLast() external view returns (uint);\n}\n\n//==================\n//    Documents       \n//==================\n\ninterface IDocument {\n    function getDocument(string calldata _name) external view returns (string memory, uint256);\n    function getDocumentCount() external view returns (uint256);\n    function getDocumentName(uint256 index) external view returns (string memory);    \n}\n\ncontract DocumentHepler {\n    struct Document {\n        string name;\n        string data;\n        uint256 lastModified;\n    }\n\n    function getDocuments(address _document) public view returns(Document[] memory) {\n        IDocument document = IDocument(_document);\n        uint256 documentCount = document.getDocumentCount();\n\n        Document[] memory documents = new Document[](documentCount);\n\n        for(uint256 i = 0; i < documentCount; i++) {\n            string memory documentName = document.getDocumentName(i);\n            (\n                documents[i].data,\n                documents[i].lastModified\n            ) = document.getDocument(documentName);\n            documents[i].name = documentName;\n        }\n        return documents;\n    }\n}\n\n\n//==================\n//     Tokens\n//==================\n\ninterface IERC20 {\n    function balanceOf(address account) external view returns (uint256);\n    function allowance(address owner, address spender) external view returns (uint256);\n    function name() external view returns (string memory);\n    function symbol() external view returns (string memory);\n    function decimals() external view returns (uint8);\n}\n\ninterface IMisoTokenFactory {\n    function getTokens() external view returns (address[] memory);\n    function tokens(uint256) external view returns (address);\n    function numberOfTokens() external view returns (uint256);\n} \n\ncontract TokenHelper {\n    struct TokenInfo {\n        address addr;\n        uint256 decimals;\n        string name;\n        string symbol;\n    }\n\n    function getTokensInfo(address[] memory addresses) public view returns (TokenInfo[] memory)\n    {\n        TokenInfo[] memory infos = new TokenInfo[](addresses.length);\n\n        for (uint256 i = 0; i < addresses.length; i++) {\n            infos[i] = getTokenInfo(addresses[i]);\n        }\n\n        return infos;\n    }\n\n    function getTokenInfo(address _address) public view returns (TokenInfo memory) {\n        TokenInfo memory info;\n        IERC20 token = IERC20(_address);\n\n        info.addr = _address;\n        info.name = token.name();\n        info.symbol = token.symbol();\n        info.decimals = token.decimals();\n\n        return info;\n    }\n\n    function allowance(address _token, address _owner, address _spender) public view returns(uint256) {\n        return IERC20(_token).allowance(_owner, _spender);\n    }\n\n}\n\n\n//==================\n//      Base\n//==================\n\ncontract BaseHelper {\n    IMisoMarketFactory public market;\n    IMisoTokenFactory public tokenFactory;\n    IMisoFarmFactory public farmFactory;\n    address public launcher;\n\n    /// @notice Responsible for access rights to the contract\n    MISOAccessControls public accessControls;\n\n    function setContracts(\n        address _tokenFactory,\n        address _market,\n        address _launcher,\n        address _farmFactory\n    ) public {\n        require(\n            accessControls.hasAdminRole(msg.sender),\n            \"MISOHelper: Sender must be Admin\"\n        );\n        if (_market != address(0)) {\n            market = IMisoMarketFactory(_market);\n        }\n        if (_tokenFactory != address(0)) {\n            tokenFactory = IMisoTokenFactory(_tokenFactory);\n        }\n        if (_launcher != address(0)) {\n            launcher = _launcher;\n        }\n        if (_farmFactory != address(0)) {\n            farmFactory = IMisoFarmFactory(_farmFactory);\n        }\n    }\n}\n\n\n//==================\n//      Farms       \n//==================\n\ninterface IMisoFarmFactory {\n    function getTemplateId(address _farm) external view returns(uint256);\n    function numberOfFarms() external view returns(uint256);\n    function farms(uint256 _farmId) external view returns(address);\n}\n\ninterface IFarm {\n    function poolInfo(uint256 pid) external view returns(\n        address lpToken,\n        uint256 allocPoint,\n        uint256 lastRewardBlock,\n        uint256 accRewardsPerShare\n    );\n    function rewards() external view returns(address);\n    function poolLength() external view returns (uint256);\n    function rewardsPerBlock() external view returns (uint256);\n    function bonusMultiplier() external view returns (uint256);\n    function userInfo(uint256 pid, address _user) external view returns (uint256, uint256);\n    function pendingRewards(uint256 _pid, address _user) external view returns (uint256);\n}\n\ncontract FarmHelper is BaseHelper, TokenHelper {\n    struct FarmInfo {\n        address addr;\n        uint256 templateId;\n        uint256 rewardsPerBlock;\n        uint256 bonusMultiplier;\n        TokenInfo rewardToken;\n        PoolInfo[] pools;\n    }\n\n    struct PoolInfo {\n        address lpToken;\n        uint256 allocPoint;\n        uint256 lastRewardBlock;\n        uint256 accRewardsPerShare;\n        uint256 totalStaked;\n        TokenInfo stakingToken;\n    }\n\n    struct UserPoolInfo {\n        address farm;\n        uint256 pid;\n        uint256 totalStaked;\n        uint256 lpBalance;\n        uint256 lpAllowance;\n        uint256 rewardDebt;\n        uint256 pendingRewards;\n    }\n\n    struct UserPoolsInfo {\n        address farm;\n        uint256[] pids;\n        uint256[] totalStaked;\n        uint256[] pendingRewards;\n    }\n\n    function getPools(address _farm) public view returns(PoolInfo[] memory) {\n        IFarm farm = IFarm(_farm);\n        uint256 poolLength = farm.poolLength();\n        PoolInfo[] memory pools = new PoolInfo[](poolLength);\n        \n        for(uint256 i = 0; i < poolLength; i++) {\n            (\n                pools[i].lpToken,\n                pools[i].allocPoint,\n                pools[i].lastRewardBlock,\n                pools[i].accRewardsPerShare\n            ) = farm.poolInfo(i);\n            pools[i].totalStaked = IERC20(pools[i].lpToken).balanceOf(_farm);\n            pools[i].stakingToken = getTokenInfo(pools[i].lpToken);\n        }\n        return pools;\n    }\n\n\n    function getFarms() public view returns(FarmInfo[] memory) {\n        uint256 numberOfFarms = farmFactory.numberOfFarms();\n\n        FarmInfo[] memory infos = new FarmInfo[](numberOfFarms);\n\n        for (uint256 i = 0; i < numberOfFarms; i++) {\n            address farmAddr = farmFactory.farms(i);\n            uint256 templateId = farmFactory.getTemplateId(farmAddr);\n            infos[i] = _farmInfo(farmAddr);\n        }\n\n        return infos;\n    }\n\n    function getFarms(\n        uint256 pageSize,\n        uint256 pageNbr,\n        uint256 offset\n    ) public view returns(FarmInfo[] memory) {\n        uint256 numberOfFarms = farmFactory.numberOfFarms();\n        uint256 startIdx = (pageNbr * pageSize) + offset;\n        uint256 endIdx = startIdx + pageSize;\n\n        FarmInfo[] memory infos;\n\n        if (endIdx > numberOfFarms) {\n            endIdx = numberOfFarms;\n        }\n        if(endIdx < startIdx) {\n            return infos;\n        }\n        infos = new FarmInfo[](endIdx - startIdx);\n\n        for (uint256 farmIdx = 0; farmIdx + startIdx < endIdx; farmIdx++) {\n            address farmAddr = farmFactory.farms(farmIdx + startIdx);\n            infos[farmIdx] = _farmInfo(farmAddr);\n        }\n\n        return infos;\n    }\n\n    function getFarms(\n        uint256 pageSize,\n        uint256 pageNbr\n    ) public view returns(FarmInfo[] memory) {\n        return getFarms(pageSize, pageNbr, 0);\n    }\n\n    function _farmInfo(address _farmAddr) private view returns(FarmInfo memory farmInfo) {\n            IFarm farm = IFarm(_farmAddr);\n\n            farmInfo.addr = _farmAddr;\n            farmInfo.templateId = farmFactory.getTemplateId(_farmAddr);\n            farmInfo.rewardsPerBlock = farm.rewardsPerBlock();\n            farmInfo.bonusMultiplier = farm.bonusMultiplier();\n            farmInfo.rewardToken = getTokenInfo(farm.rewards());\n            farmInfo.pools = getPools(_farmAddr);\n    }\n\n    function getFarmDetail(address _farm, address _user) \n        public\n        view\n        returns(FarmInfo memory farmInfo, UserPoolInfo[] memory userInfos) \n    {\n        IFarm farm = IFarm(_farm);\n        farmInfo.addr = _farm;\n        farmInfo.templateId = farmFactory.getTemplateId(_farm);\n        farmInfo.rewardsPerBlock = farm.rewardsPerBlock();\n        farmInfo.bonusMultiplier = farm.bonusMultiplier();\n        farmInfo.rewardToken = getTokenInfo(farm.rewards());\n        farmInfo.pools = getPools(_farm);\n\n        if(_user != address(0)) {\n            PoolInfo[] memory pools = farmInfo.pools;\n            userInfos = new UserPoolInfo[](pools.length);\n            for(uint i = 0; i < pools.length; i++) {\n                UserPoolInfo memory userInfo = userInfos[i];\n                address stakingToken = pools[i].stakingToken.addr;\n                (userInfo.totalStaked, userInfo.rewardDebt) = farm.userInfo(i, _user);\n                userInfo.lpBalance = IERC20(stakingToken).balanceOf(_user);\n                userInfo.lpAllowance = IERC20(stakingToken).allowance(_user, _farm);\n                userInfo.pendingRewards = farm.pendingRewards(i, _user);\n                (userInfo.totalStaked,) = farm.userInfo(i, _user);\n                userInfo.farm = _farm;\n                userInfo.pid = i;\n                userInfos[i] = userInfo;\n            }\n        }\n        return (farmInfo, userInfos);\n    }\n\n    function getUserPoolsInfos(address _user) public view returns(UserPoolsInfo[] memory) {\n        uint256 numberOfFarms = farmFactory.numberOfFarms();\n\n        UserPoolsInfo[] memory infos = new UserPoolsInfo[](numberOfFarms);\n\n        for (uint256 i = 0; i < numberOfFarms; i++) {\n            address farmAddr = farmFactory.farms(i);\n            IFarm farm = IFarm(farmAddr);\n            uint256 poolLength = farm.poolLength();\n            uint256[] memory totalStaked = new uint256[](poolLength);\n            uint256[] memory pendingRewards = new uint256[](poolLength);\n            uint256[] memory pids = new uint256[](poolLength);\n\n            for(uint256 j = 0; j < poolLength; j++) {\n                (address stakingToken,,,) = farm.poolInfo(j);\n                (totalStaked[j],) = farm.userInfo(j, _user);\n                pendingRewards[j] = farm.pendingRewards(j, _user);\n                pids[j] = j;\n            }\n            infos[i].totalStaked = totalStaked;\n            infos[i].pendingRewards = pendingRewards;\n            infos[i].pids = pids;\n            infos[i].farm = farmAddr;\n        }\n        return infos;\n    }\n}\n\n//==================\n//     Markets       \n//==================\n\ninterface IBaseAuction {\n    function getBaseInformation() external view returns (\n            address auctionToken,\n            uint64 startTime,\n            uint64 endTime,\n            bool finalized\n        );\n}\n\ninterface IMisoMarketFactory {\n    function getMarketTemplateId(address _auction) external view returns(uint64);\n    function getMarkets() external view returns(address[] memory);\n    function numberOfAuctions() external view returns(uint256);\n    function auctions(uint256) external view returns(address);\n}\n\ninterface IMisoMarket {\n    function paymentCurrency() external view returns (address) ;\n    function auctionToken() external view returns (address) ;\n    function marketPrice() external view returns (uint128, uint128);\n    function marketInfo()\n        external\n        view\n        returns (\n        uint64 startTime,\n        uint64 endTime,\n        uint128 totalTokens\n        );\n    function auctionSuccessful() external view returns (bool);\n    function commitments(address user) external view returns (uint256);\n    function claimed(address user) external view returns (uint256);\n    function tokensClaimable(address user) external view returns (uint256);\n    function hasAdminRole(address user) external view returns (bool);\n}\n\ninterface ICrowdsale is IMisoMarket {\n    function marketStatus() external view returns(\n        uint128 commitmentsTotal,\n        bool finalized,\n        bool usePointList\n    );\n}\n\ninterface IDutchAuction is IMisoMarket {\n    function marketStatus() external view returns(\n        uint128 commitmentsTotal,\n        bool finalized,\n        bool usePointList\n    );\n    // function totalTokensCommitted() external view returns (uint256);\n    // function clearingPrice() external view returns (uint256);\n}\n\ninterface IBatchAuction is IMisoMarket {\n    function marketStatus() external view returns(\n        uint256 commitmentsTotal,\n        uint256 minimumCommitmentAmount,\n        bool finalized,\n        bool usePointList\n    );\n}\n\ninterface IHyperbolicAuction is IMisoMarket {\n    function marketStatus() external view returns(\n        uint128 commitmentsTotal,\n        bool finalized,\n        bool usePointList\n    );\n}\n\ncontract MarketHelper is BaseHelper, TokenHelper, DocumentHepler {\n\n    address constant ETH_ADDRESS = 0xEeeeeEeeeEeEeeEeEeEeeEEEeeeeEeeeeeeeEEeE;\n\n    struct CrowdsaleInfo {\n        address addr;\n        address paymentCurrency;\n        uint128 commitmentsTotal;\n        uint128 totalTokens;\n        uint128 rate;\n        uint128 goal;\n        uint64 startTime;\n        uint64 endTime;\n        bool finalized;\n        bool usePointList;\n        bool auctionSuccessful;\n        TokenInfo tokenInfo;\n        TokenInfo paymentCurrencyInfo;\n        Document[] documents;\n    }\n\n    struct DutchAuctionInfo {\n        address addr;\n        address paymentCurrency;\n        uint64 startTime;\n        uint64 endTime;\n        uint128 totalTokens;\n        uint128 startPrice;\n        uint128 minimumPrice;\n        uint128 commitmentsTotal;\n        // uint256 totalTokensCommitted;\n        bool finalized;\n        bool usePointList;\n        bool auctionSuccessful;\n        TokenInfo tokenInfo;\n        TokenInfo paymentCurrencyInfo;\n        Document[] documents;\n    }\n\n    struct BatchAuctionInfo {\n        address addr;\n        address paymentCurrency;\n        uint64 startTime;\n        uint64 endTime;\n        uint128 totalTokens;\n        uint256 commitmentsTotal;\n        uint256 minimumCommitmentAmount;\n        bool finalized;\n        bool usePointList;\n        bool auctionSuccessful;\n        TokenInfo tokenInfo;\n        TokenInfo paymentCurrencyInfo;\n        Document[] documents;\n    }\n\n    struct HyperbolicAuctionInfo {\n        address addr;\n        address paymentCurrency;\n        uint64 startTime;\n        uint64 endTime;\n        uint128 totalTokens;\n        uint128 minimumPrice;\n        uint128 alpha;\n        uint128 commitmentsTotal;\n        bool finalized;\n        bool usePointList;\n        bool auctionSuccessful;\n        TokenInfo tokenInfo;\n        TokenInfo paymentCurrencyInfo;\n        Document[] documents;\n    }\n\n    struct MarketBaseInfo {\n        address addr;\n        uint64 templateId;\n        uint64 startTime;\n        uint64 endTime;\n        bool finalized;\n        TokenInfo tokenInfo;\n    }\n\n    struct PLInfo {\n        TokenInfo token0;\n        TokenInfo token1;\n        address pairToken;\n        address operator;\n        uint256 locktime;\n        uint256 unlock;\n        uint256 deadline;\n        uint256 launchwindow;\n        uint256 expiry;\n        uint256 liquidityAdded;\n        uint256 launched;\n    }\n\n    struct UserMarketInfo {\n        uint256 commitments;\n        uint256 tokensClaimable;\n        uint256 claimed;\n        bool isAdmin;\n    }\n\n    function getMarkets(\n        uint256 pageSize,\n        uint256 pageNbr,\n        uint256 offset\n    ) public view returns (MarketBaseInfo[] memory) {\n        uint256 marketsLength = market.numberOfAuctions();\n        uint256 startIdx = (pageNbr * pageSize) + offset;\n        uint256 endIdx = startIdx + pageSize;\n        MarketBaseInfo[] memory infos;\n        if (endIdx > marketsLength) {\n            endIdx = marketsLength;\n        }\n        if(endIdx < startIdx) {\n            return infos;\n        }\n        infos = new MarketBaseInfo[](endIdx - startIdx);\n\n        for (uint256 marketIdx = 0; marketIdx + startIdx < endIdx; marketIdx++) {\n            address marketAddress = market.auctions(marketIdx + startIdx);\n            infos[marketIdx] = _getMarketInfo(marketAddress);\n        }\n\n        return infos;\n    }\n\n    function getMarkets(\n        uint256 pageSize,\n        uint256 pageNbr\n    ) public view returns (MarketBaseInfo[] memory) {\n        return getMarkets(pageSize, pageNbr, 0);\n    }\n\n    function getMarkets() public view returns (MarketBaseInfo[] memory) {\n        address[] memory markets = market.getMarkets();\n        MarketBaseInfo[] memory infos = new MarketBaseInfo[](markets.length);\n\n        for (uint256 i = 0; i < markets.length; i++) {\n            MarketBaseInfo memory marketInfo = _getMarketInfo(markets[i]);\n            infos[i] = marketInfo;\n        }\n\n        return infos;\n    }\n\n    function _getMarketInfo(address _marketAddress) private view returns (MarketBaseInfo memory marketInfo) {\n            uint64 templateId = market.getMarketTemplateId(_marketAddress);\n            address auctionToken;\n            uint64 startTime;\n            uint64 endTime;\n            bool finalized;\n            (auctionToken, startTime, endTime, finalized) = IBaseAuction(_marketAddress)\n                .getBaseInformation();\n            TokenInfo memory tokenInfo = getTokenInfo(auctionToken);\n\n            marketInfo.addr = _marketAddress;\n            marketInfo.templateId = templateId;\n            marketInfo.startTime = startTime;\n            marketInfo.endTime = endTime;\n            marketInfo.finalized = finalized;\n            marketInfo.tokenInfo = tokenInfo;  \n    }\n\n    function getCrowdsaleInfo(address _crowdsale) public view returns (CrowdsaleInfo memory) {\n        ICrowdsale crowdsale = ICrowdsale(_crowdsale);\n        CrowdsaleInfo memory info;\n\n        info.addr = address(crowdsale);\n        (info.commitmentsTotal, info.finalized, info.usePointList) = crowdsale.marketStatus();\n        (info.startTime, info.endTime, info.totalTokens) = crowdsale.marketInfo();\n        (info.rate, info.goal) = crowdsale.marketPrice();\n        (info.auctionSuccessful) = crowdsale.auctionSuccessful();\n        info.tokenInfo = getTokenInfo(crowdsale.auctionToken());\n\n        address paymentCurrency = crowdsale.paymentCurrency();\n        TokenInfo memory paymentCurrencyInfo;\n        if(paymentCurrency == ETH_ADDRESS) {\n            paymentCurrencyInfo = _getETHInfo();\n        } else {\n            paymentCurrencyInfo = getTokenInfo(paymentCurrency);\n        }\n        info.paymentCurrencyInfo = paymentCurrencyInfo;\n\n        info.documents = getDocuments(_crowdsale);\n\n        return info;\n    }\n\n    function getDutchAuctionInfo(address payable _dutchAuction) public view returns (DutchAuctionInfo memory)\n    {\n        IDutchAuction dutchAuction = IDutchAuction(_dutchAuction);\n        DutchAuctionInfo memory info;\n\n        info.addr = address(dutchAuction);\n        (info.startTime, info.endTime, info.totalTokens) = dutchAuction.marketInfo();\n        (info.startPrice, info.minimumPrice) = dutchAuction.marketPrice();\n        (info.auctionSuccessful) = dutchAuction.auctionSuccessful();\n        (\n            info.commitmentsTotal,\n            info.finalized,\n            info.usePointList\n        ) = dutchAuction.marketStatus();\n        info.tokenInfo = getTokenInfo(dutchAuction.auctionToken());\n\n        address paymentCurrency = dutchAuction.paymentCurrency();\n        TokenInfo memory paymentCurrencyInfo;\n        if(paymentCurrency == ETH_ADDRESS) {\n            paymentCurrencyInfo = _getETHInfo();\n        } else {\n            paymentCurrencyInfo = getTokenInfo(paymentCurrency);\n        }\n        info.paymentCurrencyInfo = paymentCurrencyInfo;\n        info.documents = getDocuments(_dutchAuction);\n\n        return info;\n    }\n\n    function getBatchAuctionInfo(address payable _batchAuction) public view returns (BatchAuctionInfo memory) \n    {\n        IBatchAuction batchAuction = IBatchAuction(_batchAuction);\n        BatchAuctionInfo memory info;\n        \n        info.addr = address(batchAuction);\n        (info.startTime, info.endTime, info.totalTokens) = batchAuction.marketInfo();\n        (info.auctionSuccessful) = batchAuction.auctionSuccessful();\n        (\n            info.commitmentsTotal,\n            info.minimumCommitmentAmount,\n            info.finalized,\n            info.usePointList\n        ) = batchAuction.marketStatus();\n        info.tokenInfo = getTokenInfo(batchAuction.auctionToken());\n        address paymentCurrency = batchAuction.paymentCurrency();\n        TokenInfo memory paymentCurrencyInfo;\n        if(paymentCurrency == ETH_ADDRESS) {\n            paymentCurrencyInfo = _getETHInfo();\n        } else {\n            paymentCurrencyInfo = getTokenInfo(paymentCurrency);\n        }\n        info.paymentCurrencyInfo = paymentCurrencyInfo;\n        info.documents = getDocuments(_batchAuction);\n\n        return info;\n    }\n\n    function getHyperbolicAuctionInfo(address payable _hyperbolicAuction) public view returns (HyperbolicAuctionInfo memory)\n    {\n        IHyperbolicAuction hyperbolicAuction = IHyperbolicAuction(_hyperbolicAuction);\n        HyperbolicAuctionInfo memory info;\n\n        info.addr = address(hyperbolicAuction);\n        (info.startTime, info.endTime, info.totalTokens) = hyperbolicAuction.marketInfo();\n        (info.minimumPrice, info.alpha) = hyperbolicAuction.marketPrice();\n        (info.auctionSuccessful) = hyperbolicAuction.auctionSuccessful();\n        (\n            info.commitmentsTotal,\n            info.finalized,\n            info.usePointList\n        ) = hyperbolicAuction.marketStatus();\n        info.tokenInfo = getTokenInfo(hyperbolicAuction.auctionToken());\n        \n        address paymentCurrency = hyperbolicAuction.paymentCurrency();\n        TokenInfo memory paymentCurrencyInfo;\n        if(paymentCurrency == ETH_ADDRESS) {\n            paymentCurrencyInfo = _getETHInfo();\n        } else {\n            paymentCurrencyInfo = getTokenInfo(paymentCurrency);\n        }\n        info.paymentCurrencyInfo = paymentCurrencyInfo;\n        info.documents = getDocuments(_hyperbolicAuction);\n\n        return info;\n    }\n\n    function getUserMarketInfo(address _action, address _user) public view returns(UserMarketInfo memory userInfo) {\n        IMisoMarket market = IMisoMarket(_action);\n        userInfo.commitments = market.commitments(_user);\n        userInfo.tokensClaimable = market.tokensClaimable(_user);\n        userInfo.claimed = market.claimed(_user);\n        userInfo.isAdmin = market.hasAdminRole(_user);\n    }\n\n    function _getETHInfo() private pure returns(TokenInfo memory token) {\n            token.addr = ETH_ADDRESS;\n            token.name = \"ETHEREUM\";\n            token.symbol = \"ETH\";\n            token.decimals = 18;\n    }\n\n}\n\ncontract MISOHelper is MarketHelper, FarmHelper {\n\n    constructor(\n        address _accessControls,\n        address _tokenFactory,\n        address _market,\n        address _launcher,\n        address _farmFactory\n    ) public { \n        require(_accessControls != address(0));\n        accessControls = MISOAccessControls(_accessControls);\n        tokenFactory = IMisoTokenFactory(_tokenFactory);\n        market = IMisoMarketFactory(_market);\n        launcher = _launcher;\n        farmFactory = IMisoFarmFactory(_farmFactory);\n    }\n\n    function getTokens() public view returns(TokenInfo[] memory) {\n        address[] memory tokens = tokenFactory.getTokens();\n        TokenInfo[] memory infos = getTokensInfo(tokens);\n\n        infos = getTokensInfo(tokens);\n\n        return infos;\n    }\n\n    function getTokens(\n        uint256 pageSize,\n        uint256 pageNbr,\n        uint256 offset\n    ) public view returns(TokenInfo[] memory) {\n        uint256 tokensLength = tokenFactory.numberOfTokens();\n\n        uint256 startIdx = (pageNbr * pageSize) + offset;\n        uint256 endIdx = startIdx + pageSize;\n        TokenInfo[] memory infos;\n        if (endIdx > tokensLength) {\n            endIdx = tokensLength;\n        }\n        if(endIdx < startIdx) {\n            return infos;\n        }\n        infos = new TokenInfo[](endIdx - startIdx);\n\n        for (uint256 tokenIdx = 0; tokenIdx + startIdx < endIdx; tokenIdx++) {\n            address tokenAddress = tokenFactory.tokens(tokenIdx + startIdx);\n            infos[tokenIdx] = getTokenInfo(tokenAddress);\n        }\n\n        return infos;\n    }\n\n    function getTokens(\n        uint256 pageSize,\n        uint256 pageNbr\n    ) public view returns(TokenInfo[] memory) {\n        return getTokens(pageSize, pageNbr, 0);\n    }\n\n}\n",
  "sourcePath": "contracts/Helper/MISOHelper.sol",
  "type": "contract"
}