{
  "abi": [
    {
      "anonymous": false,
      "inputs": [
        {
          "indexed": true,
          "internalType": "address",
          "name": "owner",
          "type": "address"
        },
        {
          "indexed": true,
          "internalType": "address",
          "name": "addr",
          "type": "address"
        },
        {
          "indexed": false,
          "internalType": "address",
          "name": "escrowTemplate",
          "type": "address"
        }
      ],
      "name": "EscrowCreated",
      "type": "event"
    },
    {
      "anonymous": false,
      "inputs": [
        {
          "indexed": false,
          "internalType": "address",
          "name": "newTemplate",
          "type": "address"
        },
        {
          "indexed": false,
          "internalType": "uint256",
          "name": "templateId",
          "type": "uint256"
        }
      ],
      "name": "EscrowTemplateAdded",
      "type": "event"
    },
    {
      "anonymous": false,
      "inputs": [
        {
          "indexed": false,
          "internalType": "address",
          "name": "template",
          "type": "address"
        },
        {
          "indexed": false,
          "internalType": "uint256",
          "name": "templateId",
          "type": "uint256"
        }
      ],
      "name": "EscrowTemplateRemoved",
      "type": "event"
    },
    {
      "anonymous": false,
      "inputs": [
        {
          "indexed": false,
          "internalType": "address",
          "name": "sender",
          "type": "address"
        }
      ],
      "name": "MisoInitFermenter",
      "type": "event"
    },
    {
      "inputs": [],
      "name": "VAULT_MINTER_ROLE",
      "outputs": [
        {
          "internalType": "bytes32",
          "name": "",
          "type": "bytes32"
        }
      ],
      "stateMutability": "view",
      "type": "function"
    },
    {
      "inputs": [],
      "name": "accessControls",
      "outputs": [
        {
          "internalType": "contract MISOAccessControls",
          "name": "",
          "type": "address"
        }
      ],
      "stateMutability": "view",
      "type": "function"
    },
    {
      "inputs": [
        {
          "internalType": "address",
          "name": "_escrowTemplate",
          "type": "address"
        }
      ],
      "name": "addEscrowTemplate",
      "outputs": [],
      "stateMutability": "nonpayable",
      "type": "function"
    },
    {
      "inputs": [
        {
          "internalType": "uint256",
          "name": "_templateId",
          "type": "uint256"
        }
      ],
      "name": "createEscrow",
      "outputs": [
        {
          "internalType": "address",
          "name": "newEscrow",
          "type": "address"
        }
      ],
      "stateMutability": "nonpayable",
      "type": "function"
    },
    {
      "inputs": [],
      "name": "escrowTemplateId",
      "outputs": [
        {
          "internalType": "uint256",
          "name": "",
          "type": "uint256"
        }
      ],
      "stateMutability": "view",
      "type": "function"
    },
    {
      "inputs": [
        {
          "internalType": "uint256",
          "name": "",
          "type": "uint256"
        }
      ],
      "name": "escrows",
      "outputs": [
        {
          "internalType": "address",
          "name": "",
          "type": "address"
        }
      ],
      "stateMutability": "view",
      "type": "function"
    },
    {
      "inputs": [
        {
          "internalType": "uint256",
          "name": "_templateId",
          "type": "uint256"
        }
      ],
      "name": "getEscrowTemplate",
      "outputs": [
        {
          "internalType": "address",
          "name": "",
          "type": "address"
        }
      ],
      "stateMutability": "view",
      "type": "function"
    },
    {
      "inputs": [
        {
          "internalType": "address",
          "name": "_escrowTemplate",
          "type": "address"
        }
      ],
      "name": "getTemplateId",
      "outputs": [
        {
          "internalType": "uint256",
          "name": "templateId",
          "type": "uint256"
        }
      ],
      "stateMutability": "view",
      "type": "function"
    },
    {
      "inputs": [
        {
          "internalType": "address",
          "name": "_address",
          "type": "address"
        }
      ],
      "name": "hasVaultMinterRole",
      "outputs": [
        {
          "internalType": "bool",
          "name": "",
          "type": "bool"
        }
      ],
      "stateMutability": "view",
      "type": "function"
    },
    {
      "inputs": [
        {
          "internalType": "address",
          "name": "_accessControls",
          "type": "address"
        }
      ],
      "name": "initMISOFermenter",
      "outputs": [],
      "stateMutability": "nonpayable",
      "type": "function"
    },
    {
      "inputs": [
        {
          "internalType": "address",
          "name": "",
          "type": "address"
        }
      ],
      "name": "isChildEscrow",
      "outputs": [
        {
          "internalType": "bool",
          "name": "exists",
          "type": "bool"
        },
        {
          "internalType": "uint256",
          "name": "templateId",
          "type": "uint256"
        },
        {
          "internalType": "uint256",
          "name": "index",
          "type": "uint256"
        }
      ],
      "stateMutability": "view",
      "type": "function"
    },
    {
      "inputs": [],
      "name": "locked",
      "outputs": [
        {
          "internalType": "bool",
          "name": "",
          "type": "bool"
        }
      ],
      "stateMutability": "view",
      "type": "function"
    },
    {
      "inputs": [],
      "name": "numberOfTokens",
      "outputs": [
        {
          "internalType": "uint256",
          "name": "",
          "type": "uint256"
        }
      ],
      "stateMutability": "view",
      "type": "function"
    },
    {
      "inputs": [
        {
          "internalType": "uint256",
          "name": "_templateId",
          "type": "uint256"
        }
      ],
      "name": "removeEscrowTemplate",
      "outputs": [],
      "stateMutability": "nonpayable",
      "type": "function"
    },
    {
      "inputs": [
        {
          "internalType": "bool",
          "name": "_locked",
          "type": "bool"
        }
      ],
      "name": "setLocked",
      "outputs": [],
      "stateMutability": "nonpayable",
      "type": "function"
    }
  ],
  "bytecode": "608060405234801561001057600080fd5b50610b8a806100206000396000f3fe608060405234801561001057600080fd5b50600436106100f55760003560e01c80637a08291111610097578063cf30901211610066578063cf3090121461027b578063d335ebda14610283578063f9f16ef2146102a9578063ff6a6392146102b1576100f5565b80637a082911146101f35780638d4e0590146102395780638da2c87314610241578063c46689641461025e576100f5565b80633bfcd9b5116100d35780633bfcd9b51461017a5780634919292814610197578063748365ef146101b15780637513dea6146101b9576100f5565b8063012f52ee146100fa578063211e28b61461013357806338efd4e414610154575b600080fd5b6101176004803603602081101561011057600080fd5b50356102d7565b604080516001600160a01b039092168252519081900360200190f35b6101526004803603602081101561014957600080fd5b503515156102fe565b005b6101526004803603602081101561016a57600080fd5b50356001600160a01b03166103ce565b6101526004803603602081101561019057600080fd5b5035610456565b61019f61059c565b60408051918252519081900360200190f35b6101176105a2565b6101df600480360360208110156101cf57600080fd5b50356001600160a01b03166105b1565b604080519115158252519081900360200190f35b6102196004803603602081101561020957600080fd5b50356001600160a01b0316610657565b604080519315158452602084019290925282820152519081900360600190f35b61019f61067c565b6101176004803603602081101561025757600080fd5b50356106a0565b6101176004803603602081101561027457600080fd5b503561090b565b6101df610926565b61019f6004803603602081101561029957600080fd5b50356001600160a01b0316610936565b61019f610951565b610152600480360360208110156102c757600080fd5b50356001600160a01b0316610957565b600181815481106102e457fe5b6000918252602090912001546001600160a01b0316905081565b6000546040805163c395fcb360e01b815233600482015290516001600160a01b039092169163c395fcb391602480820192602092909190829003018186803b15801561034957600080fd5b505afa15801561035d573d6000803e3d6000fd5b505050506040513d602081101561037357600080fd5b50516103b05760405162461bcd60e51b8152600401808060200182810382526023815260200180610b326023913960400191505060405180910390fd5b60008054911515600160a81b0260ff60a81b19909216919091179055565b600054600160a01b900460ff16156103e557600080fd5b60008054600160a81b600160a01b60ff60a01b199092169190911760ff60a81b1916176001600160a01b0319166001600160a01b0383161790556040805133815290517ffa8ab7cc751ede85da4b5e1d508e9357f84a9e554d793aac0e484b8013fa77b0916020908290030190a150565b60005460408051637e271f0560e11b815233600482015290516001600160a01b039092169163fc4e3e0a91602480820192602092909190829003018186803b1580156104a157600080fd5b505afa1580156104b5573d6000803e3d6000fd5b505050506040513d60208110156104cb57600080fd5b50516105085760405162461bcd60e51b8152600401808060200182810382526026815260200180610ade6026913960400191505060405180910390fd5b6000818152600360205260409020546001600160a01b031661052957600080fd5b600081815260036020908152604080832080546001600160a01b031981169091556001600160a01b03168084526004835281842093909355805183815291820184905280517f3f5a556fd0475f028f62c9ca9bdf824a2c3fd93a5a26fa74b0aa07703b8d11ea9281900390910190a15050565b60025481565b6000546001600160a01b031681565b6000805460408051632474521560e21b81527f98e4415ac43dc65a73fb377c77c834c9fba44fb3f81dc603d1f33e6023519e0760048201526001600160a01b038581166024830152915191909216916391d14854916044808301926020929190829003018186803b15801561062557600080fd5b505afa158015610639573d6000803e3d6000fd5b505050506040513d602081101561064f57600080fd5b505192915050565b60056020526000908152604090208054600182015460029092015460ff909116919083565b7f98e4415ac43dc65a73fb377c77c834c9fba44fb3f81dc603d1f33e6023519e0781565b60008054600160a81b900460ff16156107f2576000546040805163c395fcb360e01b815233600482015290516001600160a01b039092169163c395fcb391602480820192602092909190829003018186803b1580156106fe57600080fd5b505afa158015610712573d6000803e3d6000fd5b505050506040513d602081101561072857600080fd5b5051806107a857506000546040805163099db01760e01b815233600482015290516001600160a01b039092169163099db01791602480820192602092909190829003018186803b15801561077b57600080fd5b505afa15801561078f573d6000803e3d6000fd5b505050506040513d60208110156107a557600080fd5b50515b806107b757506107b7336105b1565b6107f25760405162461bcd60e51b815260040180806020018281038252602e815260200180610b04602e913960400191505060405180910390fd5b6000828152600360205260409020546001600160a01b031661081357600080fd5b600082815260036020526040902054610834906001600160a01b0316610a8b565b604080516060810182526001808252602080830187815282548486019081526001600160a01b038781166000818152600586528881209751885460ff1916901515178855935187870155915160029096019590955583548085019094557fb10e2d527612073b26eecdfd717e6a320cf44b4afac2b0732d9fcbe2b7fa0cf690930180546001600160a01b03191684179055878152600382528490205484519316835292519394509233927f4743c0c2884de4f19f280dbd2cc93bc24491cdf876ed107046fe8194183c09e9928290030190a3919050565b6000908152600360205260409020546001600160a01b031690565b600054600160a81b900460ff1681565b6001600160a01b031660009081526004602052604090205490565b60015490565b60005460408051637e271f0560e11b815233600482015290516001600160a01b039092169163fc4e3e0a91602480820192602092909190829003018186803b1580156109a257600080fd5b505afa1580156109b6573d6000803e3d6000fd5b505050506040513d60208110156109cc57600080fd5b5051610a095760405162461bcd60e51b8152600401808060200182810382526026815260200180610ade6026913960400191505060405180910390fd5b60028054600101808255600090815260036020908152604080832080546001600160a01b0319166001600160a01b0387169081179091559354848452600483529281902083905580519384529083019190915280517f439cb22d4d440cdda8508c466333dca53d6f577c7c91274ac9feaec3946a67039281900390910190a150565b6000808260601b9050604051733d602d80600a3d3981f3363d3d373d3d3d363d7360601b81528160148201526e5af43d82803e903d91602b57fd5bf360881b60288201526037816000f094935050505056fe4d49534f4665726d656e7465723a2053656e646572206d757374206265206f70657261746f724d49534f4665726d656e7465723a2053656e646572206d757374206265206d696e746572206966206c6f636b65644d49534f4665726d656e7465723a2053656e646572206d7573742062652061646d696ea2646970667358221220f602f3d1e274fa5c9189d0baf03b0d4bb1e98683609ae5dc282f0fcc64df1f7564736f6c634300060c0033",
  "bytecodeSha1": "4a0173c606c359b7f1f44b57594f3f19778b00c8",
  "compiler": {
    "evm_version": "istanbul",
    "optimizer": {
      "enabled": true,
      "runs": 200
    },
    "version": "0.6.12+commit.27d51765"
  },
  "contractName": "MISOFermenter",
  "language": "Solidity",
  "natspec": {
    "kind": "dev",
    "methods": {
      "accessControls()": {
        "notice": "Responsible for access rights to the contract."
      },
      "addEscrowTemplate(address)": {
        "details": "Should have operator access.",
        "notice": "Function to add a escrow template to create through factory.",
        "params": {
          "_escrowTemplate": "Escrow template to create a token."
        }
      },
      "createEscrow(uint256)": {
        "notice": "Creates a new escrow corresponding to template Id.",
        "params": {
          "_templateId": "Template id of the escrow to create."
        },
        "returns": {
          "newEscrow": "Escrow address."
        }
      },
      "escrowTemplateId()": {
        "notice": "Template id to track respective escrow template."
      },
      "escrows(uint256)": {
        "notice": "Escrows created using the factory."
      },
      "getEscrowTemplate(uint256)": {
        "notice": "Get the address of the escrow template based on template ID.",
        "params": {
          "_templateId": "Escrow template ID."
        },
        "returns": {
          "_0": "Address of the required template ID."
        }
      },
      "getTemplateId(address)": {
        "notice": "Get the ID based on template address.",
        "params": {
          "_escrowTemplate": "Escrow template address."
        },
        "returns": {
          "templateId": "ID of the required template address."
        }
      },
      "hasVaultMinterRole(address)": {
        "notice": "Used to check whether an address has the minter role",
        "params": {
          "_address": "EOA or contract being checked"
        },
        "returns": {
          "_0": "bool True if the account has the role or false if it does not"
        }
      },
      "initMISOFermenter(address)": {
        "details": "Can only be initialized once.",
        "notice": "Single gateway to initialize the MISO Market with proper address.",
        "params": {
          "_accessControls": "Sets address to get the access controls from."
        }
      },
      "isChildEscrow(address)": {
        "notice": "mapping from escrow address to struct Fermenter"
      },
      "locked()": {
        "notice": "Contract locked status. If locked, only minters can deploy"
      },
      "numberOfTokens()": {
        "notice": "Get the total number of escrows in the factory.",
        "returns": {
          "_0": "Escrow count."
        }
      },
      "removeEscrowTemplate(uint256)": {
        "details": "Should have operator access.",
        "notice": "Function to remove a escrow template.",
        "params": {
          "_templateId": "Refers to template that is to be deleted."
        }
      },
      "setLocked(bool)": {
        "notice": "Sets the factory to be locked or unlocked.",
        "params": {
          "_locked": "bool."
        }
      }
    },
    "notice": "Token escrow, lock up tokens for a period of time",
    "version": 1
  },
  "opcodes": "PUSH1 0x80 PUSH1 0x40 MSTORE CALLVALUE DUP1 ISZERO PUSH2 0x10 JUMPI PUSH1 0x0 DUP1 REVERT JUMPDEST POP PUSH1 0x4 CALLDATASIZE LT PUSH2 0xF5 JUMPI PUSH1 0x0 CALLDATALOAD PUSH1 0xE0 SHR DUP1 PUSH4 0x7A082911 GT PUSH2 0x97 JUMPI DUP1 PUSH4 0xCF309012 GT PUSH2 0x66 JUMPI DUP1 PUSH4 0xCF309012 EQ PUSH2 0x27B JUMPI DUP1 PUSH4 0xD335EBDA EQ PUSH2 0x283 JUMPI DUP1 PUSH4 0xF9F16EF2 EQ PUSH2 0x2A9 JUMPI DUP1 PUSH4 0xFF6A6392 EQ PUSH2 0x2B1 JUMPI PUSH2 0xF5 JUMP JUMPDEST DUP1 PUSH4 0x7A082911 EQ PUSH2 0x1F3 JUMPI DUP1 PUSH4 0x8D4E0590 EQ PUSH2 0x239 JUMPI DUP1 PUSH4 0x8DA2C873 EQ PUSH2 0x241 JUMPI DUP1 PUSH4 0xC4668964 EQ PUSH2 0x25E JUMPI PUSH2 0xF5 JUMP JUMPDEST DUP1 PUSH4 0x3BFCD9B5 GT PUSH2 0xD3 JUMPI DUP1 PUSH4 0x3BFCD9B5 EQ PUSH2 0x17A JUMPI DUP1 PUSH4 0x49192928 EQ PUSH2 0x197 JUMPI DUP1 PUSH4 0x748365EF EQ PUSH2 0x1B1 JUMPI DUP1 PUSH4 0x7513DEA6 EQ PUSH2 0x1B9 JUMPI PUSH2 0xF5 JUMP JUMPDEST DUP1 PUSH4 0x12F52EE EQ PUSH2 0xFA JUMPI DUP1 PUSH4 0x211E28B6 EQ PUSH2 0x133 JUMPI DUP1 PUSH4 0x38EFD4E4 EQ PUSH2 0x154 JUMPI JUMPDEST PUSH1 0x0 DUP1 REVERT JUMPDEST PUSH2 0x117 PUSH1 0x4 DUP1 CALLDATASIZE SUB PUSH1 0x20 DUP2 LT ISZERO PUSH2 0x110 JUMPI PUSH1 0x0 DUP1 REVERT JUMPDEST POP CALLDATALOAD PUSH2 0x2D7 JUMP JUMPDEST PUSH1 0x40 DUP1 MLOAD PUSH1 0x1 PUSH1 0x1 PUSH1 0xA0 SHL SUB SWAP1 SWAP3 AND DUP3 MSTORE MLOAD SWAP1 DUP2 SWAP1 SUB PUSH1 0x20 ADD SWAP1 RETURN JUMPDEST PUSH2 0x152 PUSH1 0x4 DUP1 CALLDATASIZE SUB PUSH1 0x20 DUP2 LT ISZERO PUSH2 0x149 JUMPI PUSH1 0x0 DUP1 REVERT JUMPDEST POP CALLDATALOAD ISZERO ISZERO PUSH2 0x2FE JUMP JUMPDEST STOP JUMPDEST PUSH2 0x152 PUSH1 0x4 DUP1 CALLDATASIZE SUB PUSH1 0x20 DUP2 LT ISZERO PUSH2 0x16A JUMPI PUSH1 0x0 DUP1 REVERT JUMPDEST POP CALLDATALOAD PUSH1 0x1 PUSH1 0x1 PUSH1 0xA0 SHL SUB AND PUSH2 0x3CE JUMP JUMPDEST PUSH2 0x152 PUSH1 0x4 DUP1 CALLDATASIZE SUB PUSH1 0x20 DUP2 LT ISZERO PUSH2 0x190 JUMPI PUSH1 0x0 DUP1 REVERT JUMPDEST POP CALLDATALOAD PUSH2 0x456 JUMP JUMPDEST PUSH2 0x19F PUSH2 0x59C JUMP JUMPDEST PUSH1 0x40 DUP1 MLOAD SWAP2 DUP3 MSTORE MLOAD SWAP1 DUP2 SWAP1 SUB PUSH1 0x20 ADD SWAP1 RETURN JUMPDEST PUSH2 0x117 PUSH2 0x5A2 JUMP JUMPDEST PUSH2 0x1DF PUSH1 0x4 DUP1 CALLDATASIZE SUB PUSH1 0x20 DUP2 LT ISZERO PUSH2 0x1CF JUMPI PUSH1 0x0 DUP1 REVERT JUMPDEST POP CALLDATALOAD PUSH1 0x1 PUSH1 0x1 PUSH1 0xA0 SHL SUB AND PUSH2 0x5B1 JUMP JUMPDEST PUSH1 0x40 DUP1 MLOAD SWAP2 ISZERO ISZERO DUP3 MSTORE MLOAD SWAP1 DUP2 SWAP1 SUB PUSH1 0x20 ADD SWAP1 RETURN JUMPDEST PUSH2 0x219 PUSH1 0x4 DUP1 CALLDATASIZE SUB PUSH1 0x20 DUP2 LT ISZERO PUSH2 0x209 JUMPI PUSH1 0x0 DUP1 REVERT JUMPDEST POP CALLDATALOAD PUSH1 0x1 PUSH1 0x1 PUSH1 0xA0 SHL SUB AND PUSH2 0x657 JUMP JUMPDEST PUSH1 0x40 DUP1 MLOAD SWAP4 ISZERO ISZERO DUP5 MSTORE PUSH1 0x20 DUP5 ADD SWAP3 SWAP1 SWAP3 MSTORE DUP3 DUP3 ADD MSTORE MLOAD SWAP1 DUP2 SWAP1 SUB PUSH1 0x60 ADD SWAP1 RETURN JUMPDEST PUSH2 0x19F PUSH2 0x67C JUMP JUMPDEST PUSH2 0x117 PUSH1 0x4 DUP1 CALLDATASIZE SUB PUSH1 0x20 DUP2 LT ISZERO PUSH2 0x257 JUMPI PUSH1 0x0 DUP1 REVERT JUMPDEST POP CALLDATALOAD PUSH2 0x6A0 JUMP JUMPDEST PUSH2 0x117 PUSH1 0x4 DUP1 CALLDATASIZE SUB PUSH1 0x20 DUP2 LT ISZERO PUSH2 0x274 JUMPI PUSH1 0x0 DUP1 REVERT JUMPDEST POP CALLDATALOAD PUSH2 0x90B JUMP JUMPDEST PUSH2 0x1DF PUSH2 0x926 JUMP JUMPDEST PUSH2 0x19F PUSH1 0x4 DUP1 CALLDATASIZE SUB PUSH1 0x20 DUP2 LT ISZERO PUSH2 0x299 JUMPI PUSH1 0x0 DUP1 REVERT JUMPDEST POP CALLDATALOAD PUSH1 0x1 PUSH1 0x1 PUSH1 0xA0 SHL SUB AND PUSH2 0x936 JUMP JUMPDEST PUSH2 0x19F PUSH2 0x951 JUMP JUMPDEST PUSH2 0x152 PUSH1 0x4 DUP1 CALLDATASIZE SUB PUSH1 0x20 DUP2 LT ISZERO PUSH2 0x2C7 JUMPI PUSH1 0x0 DUP1 REVERT JUMPDEST POP CALLDATALOAD PUSH1 0x1 PUSH1 0x1 PUSH1 0xA0 SHL SUB AND PUSH2 0x957 JUMP JUMPDEST PUSH1 0x1 DUP2 DUP2 SLOAD DUP2 LT PUSH2 0x2E4 JUMPI INVALID JUMPDEST PUSH1 0x0 SWAP2 DUP3 MSTORE PUSH1 0x20 SWAP1 SWAP2 KECCAK256 ADD SLOAD PUSH1 0x1 PUSH1 0x1 PUSH1 0xA0 SHL SUB AND SWAP1 POP DUP2 JUMP JUMPDEST PUSH1 0x0 SLOAD PUSH1 0x40 DUP1 MLOAD PUSH4 0xC395FCB3 PUSH1 0xE0 SHL DUP2 MSTORE CALLER PUSH1 0x4 DUP3 ADD MSTORE SWAP1 MLOAD PUSH1 0x1 PUSH1 0x1 PUSH1 0xA0 SHL SUB SWAP1 SWAP3 AND SWAP2 PUSH4 0xC395FCB3 SWAP2 PUSH1 0x24 DUP1 DUP3 ADD SWAP3 PUSH1 0x20 SWAP3 SWAP1 SWAP2 SWAP1 DUP3 SWAP1 SUB ADD DUP2 DUP7 DUP1 EXTCODESIZE ISZERO DUP1 ISZERO PUSH2 0x349 JUMPI PUSH1 0x0 DUP1 REVERT JUMPDEST POP GAS STATICCALL ISZERO DUP1 ISZERO PUSH2 0x35D JUMPI RETURNDATASIZE PUSH1 0x0 DUP1 RETURNDATACOPY RETURNDATASIZE PUSH1 0x0 REVERT JUMPDEST POP POP POP POP PUSH1 0x40 MLOAD RETURNDATASIZE PUSH1 0x20 DUP2 LT ISZERO PUSH2 0x373 JUMPI PUSH1 0x0 DUP1 REVERT JUMPDEST POP MLOAD PUSH2 0x3B0 JUMPI PUSH1 0x40 MLOAD PUSH3 0x461BCD PUSH1 0xE5 SHL DUP2 MSTORE PUSH1 0x4 ADD DUP1 DUP1 PUSH1 0x20 ADD DUP3 DUP2 SUB DUP3 MSTORE PUSH1 0x23 DUP2 MSTORE PUSH1 0x20 ADD DUP1 PUSH2 0xB32 PUSH1 0x23 SWAP2 CODECOPY PUSH1 0x40 ADD SWAP2 POP POP PUSH1 0x40 MLOAD DUP1 SWAP2 SUB SWAP1 REVERT JUMPDEST PUSH1 0x0 DUP1 SLOAD SWAP2 ISZERO ISZERO PUSH1 0x1 PUSH1 0xA8 SHL MUL PUSH1 0xFF PUSH1 0xA8 SHL NOT SWAP1 SWAP3 AND SWAP2 SWAP1 SWAP2 OR SWAP1 SSTORE JUMP JUMPDEST PUSH1 0x0 SLOAD PUSH1 0x1 PUSH1 0xA0 SHL SWAP1 DIV PUSH1 0xFF AND ISZERO PUSH2 0x3E5 JUMPI PUSH1 0x0 DUP1 REVERT JUMPDEST PUSH1 0x0 DUP1 SLOAD PUSH1 0x1 PUSH1 0xA8 SHL PUSH1 0x1 PUSH1 0xA0 SHL PUSH1 0xFF PUSH1 0xA0 SHL NOT SWAP1 SWAP3 AND SWAP2 SWAP1 SWAP2 OR PUSH1 0xFF PUSH1 0xA8 SHL NOT AND OR PUSH1 0x1 PUSH1 0x1 PUSH1 0xA0 SHL SUB NOT AND PUSH1 0x1 PUSH1 0x1 PUSH1 0xA0 SHL SUB DUP4 AND OR SWAP1 SSTORE PUSH1 0x40 DUP1 MLOAD CALLER DUP2 MSTORE SWAP1 MLOAD PUSH32 0xFA8AB7CC751EDE85DA4B5E1D508E9357F84A9E554D793AAC0E484B8013FA77B0 SWAP2 PUSH1 0x20 SWAP1 DUP3 SWAP1 SUB ADD SWAP1 LOG1 POP JUMP JUMPDEST PUSH1 0x0 SLOAD PUSH1 0x40 DUP1 MLOAD PUSH4 0x7E271F05 PUSH1 0xE1 SHL DUP2 MSTORE CALLER PUSH1 0x4 DUP3 ADD MSTORE SWAP1 MLOAD PUSH1 0x1 PUSH1 0x1 PUSH1 0xA0 SHL SUB SWAP1 SWAP3 AND SWAP2 PUSH4 0xFC4E3E0A SWAP2 PUSH1 0x24 DUP1 DUP3 ADD SWAP3 PUSH1 0x20 SWAP3 SWAP1 SWAP2 SWAP1 DUP3 SWAP1 SUB ADD DUP2 DUP7 DUP1 EXTCODESIZE ISZERO DUP1 ISZERO PUSH2 0x4A1 JUMPI PUSH1 0x0 DUP1 REVERT JUMPDEST POP GAS STATICCALL ISZERO DUP1 ISZERO PUSH2 0x4B5 JUMPI RETURNDATASIZE PUSH1 0x0 DUP1 RETURNDATACOPY RETURNDATASIZE PUSH1 0x0 REVERT JUMPDEST POP POP POP POP PUSH1 0x40 MLOAD RETURNDATASIZE PUSH1 0x20 DUP2 LT ISZERO PUSH2 0x4CB JUMPI PUSH1 0x0 DUP1 REVERT JUMPDEST POP MLOAD PUSH2 0x508 JUMPI PUSH1 0x40 MLOAD PUSH3 0x461BCD PUSH1 0xE5 SHL DUP2 MSTORE PUSH1 0x4 ADD DUP1 DUP1 PUSH1 0x20 ADD DUP3 DUP2 SUB DUP3 MSTORE PUSH1 0x26 DUP2 MSTORE PUSH1 0x20 ADD DUP1 PUSH2 0xADE PUSH1 0x26 SWAP2 CODECOPY PUSH1 0x40 ADD SWAP2 POP POP PUSH1 0x40 MLOAD DUP1 SWAP2 SUB SWAP1 REVERT JUMPDEST PUSH1 0x0 DUP2 DUP2 MSTORE PUSH1 0x3 PUSH1 0x20 MSTORE PUSH1 0x40 SWAP1 KECCAK256 SLOAD PUSH1 0x1 PUSH1 0x1 PUSH1 0xA0 SHL SUB AND PUSH2 0x529 JUMPI PUSH1 0x0 DUP1 REVERT JUMPDEST PUSH1 0x0 DUP2 DUP2 MSTORE PUSH1 0x3 PUSH1 0x20 SWAP1 DUP2 MSTORE PUSH1 0x40 DUP1 DUP4 KECCAK256 DUP1 SLOAD PUSH1 0x1 PUSH1 0x1 PUSH1 0xA0 SHL SUB NOT DUP2 AND SWAP1 SWAP2 SSTORE PUSH1 0x1 PUSH1 0x1 PUSH1 0xA0 SHL SUB AND DUP1 DUP5 MSTORE PUSH1 0x4 DUP4 MSTORE DUP2 DUP5 KECCAK256 SWAP4 SWAP1 SWAP4 SSTORE DUP1 MLOAD DUP4 DUP2 MSTORE SWAP2 DUP3 ADD DUP5 SWAP1 MSTORE DUP1 MLOAD PUSH32 0x3F5A556FD0475F028F62C9CA9BDF824A2C3FD93A5A26FA74B0AA07703B8D11EA SWAP3 DUP2 SWAP1 SUB SWAP1 SWAP2 ADD SWAP1 LOG1 POP POP JUMP JUMPDEST PUSH1 0x2 SLOAD DUP2 JUMP JUMPDEST PUSH1 0x0 SLOAD PUSH1 0x1 PUSH1 0x1 PUSH1 0xA0 SHL SUB AND DUP2 JUMP JUMPDEST PUSH1 0x0 DUP1 SLOAD PUSH1 0x40 DUP1 MLOAD PUSH4 0x24745215 PUSH1 0xE2 SHL DUP2 MSTORE PUSH32 0x98E4415AC43DC65A73FB377C77C834C9FBA44FB3F81DC603D1F33E6023519E07 PUSH1 0x4 DUP3 ADD MSTORE PUSH1 0x1 PUSH1 0x1 PUSH1 0xA0 SHL SUB DUP6 DUP2 AND PUSH1 0x24 DUP4 ADD MSTORE SWAP2 MLOAD SWAP2 SWAP1 SWAP3 AND SWAP2 PUSH4 0x91D14854 SWAP2 PUSH1 0x44 DUP1 DUP4 ADD SWAP3 PUSH1 0x20 SWAP3 SWAP2 SWAP1 DUP3 SWAP1 SUB ADD DUP2 DUP7 DUP1 EXTCODESIZE ISZERO DUP1 ISZERO PUSH2 0x625 JUMPI PUSH1 0x0 DUP1 REVERT JUMPDEST POP GAS STATICCALL ISZERO DUP1 ISZERO PUSH2 0x639 JUMPI RETURNDATASIZE PUSH1 0x0 DUP1 RETURNDATACOPY RETURNDATASIZE PUSH1 0x0 REVERT JUMPDEST POP POP POP POP PUSH1 0x40 MLOAD RETURNDATASIZE PUSH1 0x20 DUP2 LT ISZERO PUSH2 0x64F JUMPI PUSH1 0x0 DUP1 REVERT JUMPDEST POP MLOAD SWAP3 SWAP2 POP POP JUMP JUMPDEST PUSH1 0x5 PUSH1 0x20 MSTORE PUSH1 0x0 SWAP1 DUP2 MSTORE PUSH1 0x40 SWAP1 KECCAK256 DUP1 SLOAD PUSH1 0x1 DUP3 ADD SLOAD PUSH1 0x2 SWAP1 SWAP3 ADD SLOAD PUSH1 0xFF SWAP1 SWAP2 AND SWAP2 SWAP1 DUP4 JUMP JUMPDEST PUSH32 0x98E4415AC43DC65A73FB377C77C834C9FBA44FB3F81DC603D1F33E6023519E07 DUP2 JUMP JUMPDEST PUSH1 0x0 DUP1 SLOAD PUSH1 0x1 PUSH1 0xA8 SHL SWAP1 DIV PUSH1 0xFF AND ISZERO PUSH2 0x7F2 JUMPI PUSH1 0x0 SLOAD PUSH1 0x40 DUP1 MLOAD PUSH4 0xC395FCB3 PUSH1 0xE0 SHL DUP2 MSTORE CALLER PUSH1 0x4 DUP3 ADD MSTORE SWAP1 MLOAD PUSH1 0x1 PUSH1 0x1 PUSH1 0xA0 SHL SUB SWAP1 SWAP3 AND SWAP2 PUSH4 0xC395FCB3 SWAP2 PUSH1 0x24 DUP1 DUP3 ADD SWAP3 PUSH1 0x20 SWAP3 SWAP1 SWAP2 SWAP1 DUP3 SWAP1 SUB ADD DUP2 DUP7 DUP1 EXTCODESIZE ISZERO DUP1 ISZERO PUSH2 0x6FE JUMPI PUSH1 0x0 DUP1 REVERT JUMPDEST POP GAS STATICCALL ISZERO DUP1 ISZERO PUSH2 0x712 JUMPI RETURNDATASIZE PUSH1 0x0 DUP1 RETURNDATACOPY RETURNDATASIZE PUSH1 0x0 REVERT JUMPDEST POP POP POP POP PUSH1 0x40 MLOAD RETURNDATASIZE PUSH1 0x20 DUP2 LT ISZERO PUSH2 0x728 JUMPI PUSH1 0x0 DUP1 REVERT JUMPDEST POP MLOAD DUP1 PUSH2 0x7A8 JUMPI POP PUSH1 0x0 SLOAD PUSH1 0x40 DUP1 MLOAD PUSH4 0x99DB017 PUSH1 0xE0 SHL DUP2 MSTORE CALLER PUSH1 0x4 DUP3 ADD MSTORE SWAP1 MLOAD PUSH1 0x1 PUSH1 0x1 PUSH1 0xA0 SHL SUB SWAP1 SWAP3 AND SWAP2 PUSH4 0x99DB017 SWAP2 PUSH1 0x24 DUP1 DUP3 ADD SWAP3 PUSH1 0x20 SWAP3 SWAP1 SWAP2 SWAP1 DUP3 SWAP1 SUB ADD DUP2 DUP7 DUP1 EXTCODESIZE ISZERO DUP1 ISZERO PUSH2 0x77B JUMPI PUSH1 0x0 DUP1 REVERT JUMPDEST POP GAS STATICCALL ISZERO DUP1 ISZERO PUSH2 0x78F JUMPI RETURNDATASIZE PUSH1 0x0 DUP1 RETURNDATACOPY RETURNDATASIZE PUSH1 0x0 REVERT JUMPDEST POP POP POP POP PUSH1 0x40 MLOAD RETURNDATASIZE PUSH1 0x20 DUP2 LT ISZERO PUSH2 0x7A5 JUMPI PUSH1 0x0 DUP1 REVERT JUMPDEST POP MLOAD JUMPDEST DUP1 PUSH2 0x7B7 JUMPI POP PUSH2 0x7B7 CALLER PUSH2 0x5B1 JUMP JUMPDEST PUSH2 0x7F2 JUMPI PUSH1 0x40 MLOAD PUSH3 0x461BCD PUSH1 0xE5 SHL DUP2 MSTORE PUSH1 0x4 ADD DUP1 DUP1 PUSH1 0x20 ADD DUP3 DUP2 SUB DUP3 MSTORE PUSH1 0x2E DUP2 MSTORE PUSH1 0x20 ADD DUP1 PUSH2 0xB04 PUSH1 0x2E SWAP2 CODECOPY PUSH1 0x40 ADD SWAP2 POP POP PUSH1 0x40 MLOAD DUP1 SWAP2 SUB SWAP1 REVERT JUMPDEST PUSH1 0x0 DUP3 DUP2 MSTORE PUSH1 0x3 PUSH1 0x20 MSTORE PUSH1 0x40 SWAP1 KECCAK256 SLOAD PUSH1 0x1 PUSH1 0x1 PUSH1 0xA0 SHL SUB AND PUSH2 0x813 JUMPI PUSH1 0x0 DUP1 REVERT JUMPDEST PUSH1 0x0 DUP3 DUP2 MSTORE PUSH1 0x3 PUSH1 0x20 MSTORE PUSH1 0x40 SWAP1 KECCAK256 SLOAD PUSH2 0x834 SWAP1 PUSH1 0x1 PUSH1 0x1 PUSH1 0xA0 SHL SUB AND PUSH2 0xA8B JUMP JUMPDEST PUSH1 0x40 DUP1 MLOAD PUSH1 0x60 DUP2 ADD DUP3 MSTORE PUSH1 0x1 DUP1 DUP3 MSTORE PUSH1 0x20 DUP1 DUP4 ADD DUP8 DUP2 MSTORE DUP3 SLOAD DUP5 DUP7 ADD SWAP1 DUP2 MSTORE PUSH1 0x1 PUSH1 0x1 PUSH1 0xA0 SHL SUB DUP8 DUP2 AND PUSH1 0x0 DUP2 DUP2 MSTORE PUSH1 0x5 DUP7 MSTORE DUP9 DUP2 KECCAK256 SWAP8 MLOAD DUP9 SLOAD PUSH1 0xFF NOT AND SWAP1 ISZERO ISZERO OR DUP9 SSTORE SWAP4 MLOAD DUP8 DUP8 ADD SSTORE SWAP2 MLOAD PUSH1 0x2 SWAP1 SWAP7 ADD SWAP6 SWAP1 SWAP6 SSTORE DUP4 SLOAD DUP1 DUP6 ADD SWAP1 SWAP5 SSTORE PUSH32 0xB10E2D527612073B26EECDFD717E6A320CF44B4AFAC2B0732D9FCBE2B7FA0CF6 SWAP1 SWAP4 ADD DUP1 SLOAD PUSH1 0x1 PUSH1 0x1 PUSH1 0xA0 SHL SUB NOT AND DUP5 OR SWAP1 SSTORE DUP8 DUP2 MSTORE PUSH1 0x3 DUP3 MSTORE DUP5 SWAP1 KECCAK256 SLOAD DUP5 MLOAD SWAP4 AND DUP4 MSTORE SWAP3 MLOAD SWAP4 SWAP5 POP SWAP3 CALLER SWAP3 PUSH32 0x4743C0C2884DE4F19F280DBD2CC93BC24491CDF876ED107046FE8194183C09E9 SWAP3 DUP3 SWAP1 SUB ADD SWAP1 LOG3 SWAP2 SWAP1 POP JUMP JUMPDEST PUSH1 0x0 SWAP1 DUP2 MSTORE PUSH1 0x3 PUSH1 0x20 MSTORE PUSH1 0x40 SWAP1 KECCAK256 SLOAD PUSH1 0x1 PUSH1 0x1 PUSH1 0xA0 SHL SUB AND SWAP1 JUMP JUMPDEST PUSH1 0x0 SLOAD PUSH1 0x1 PUSH1 0xA8 SHL SWAP1 DIV PUSH1 0xFF AND DUP2 JUMP JUMPDEST PUSH1 0x1 PUSH1 0x1 PUSH1 0xA0 SHL SUB AND PUSH1 0x0 SWAP1 DUP2 MSTORE PUSH1 0x4 PUSH1 0x20 MSTORE PUSH1 0x40 SWAP1 KECCAK256 SLOAD SWAP1 JUMP JUMPDEST PUSH1 0x1 SLOAD SWAP1 JUMP JUMPDEST PUSH1 0x0 SLOAD PUSH1 0x40 DUP1 MLOAD PUSH4 0x7E271F05 PUSH1 0xE1 SHL DUP2 MSTORE CALLER PUSH1 0x4 DUP3 ADD MSTORE SWAP1 MLOAD PUSH1 0x1 PUSH1 0x1 PUSH1 0xA0 SHL SUB SWAP1 SWAP3 AND SWAP2 PUSH4 0xFC4E3E0A SWAP2 PUSH1 0x24 DUP1 DUP3 ADD SWAP3 PUSH1 0x20 SWAP3 SWAP1 SWAP2 SWAP1 DUP3 SWAP1 SUB ADD DUP2 DUP7 DUP1 EXTCODESIZE ISZERO DUP1 ISZERO PUSH2 0x9A2 JUMPI PUSH1 0x0 DUP1 REVERT JUMPDEST POP GAS STATICCALL ISZERO DUP1 ISZERO PUSH2 0x9B6 JUMPI RETURNDATASIZE PUSH1 0x0 DUP1 RETURNDATACOPY RETURNDATASIZE PUSH1 0x0 REVERT JUMPDEST POP POP POP POP PUSH1 0x40 MLOAD RETURNDATASIZE PUSH1 0x20 DUP2 LT ISZERO PUSH2 0x9CC JUMPI PUSH1 0x0 DUP1 REVERT JUMPDEST POP MLOAD PUSH2 0xA09 JUMPI PUSH1 0x40 MLOAD PUSH3 0x461BCD PUSH1 0xE5 SHL DUP2 MSTORE PUSH1 0x4 ADD DUP1 DUP1 PUSH1 0x20 ADD DUP3 DUP2 SUB DUP3 MSTORE PUSH1 0x26 DUP2 MSTORE PUSH1 0x20 ADD DUP1 PUSH2 0xADE PUSH1 0x26 SWAP2 CODECOPY PUSH1 0x40 ADD SWAP2 POP POP PUSH1 0x40 MLOAD DUP1 SWAP2 SUB SWAP1 REVERT JUMPDEST PUSH1 0x2 DUP1 SLOAD PUSH1 0x1 ADD DUP1 DUP3 SSTORE PUSH1 0x0 SWAP1 DUP2 MSTORE PUSH1 0x3 PUSH1 0x20 SWAP1 DUP2 MSTORE PUSH1 0x40 DUP1 DUP4 KECCAK256 DUP1 SLOAD PUSH1 0x1 PUSH1 0x1 PUSH1 0xA0 SHL SUB NOT AND PUSH1 0x1 PUSH1 0x1 PUSH1 0xA0 SHL SUB DUP8 AND SWAP1 DUP2 OR SWAP1 SWAP2 SSTORE SWAP4 SLOAD DUP5 DUP5 MSTORE PUSH1 0x4 DUP4 MSTORE SWAP3 DUP2 SWAP1 KECCAK256 DUP4 SWAP1 SSTORE DUP1 MLOAD SWAP4 DUP5 MSTORE SWAP1 DUP4 ADD SWAP2 SWAP1 SWAP2 MSTORE DUP1 MLOAD PUSH32 0x439CB22D4D440CDDA8508C466333DCA53D6F577C7C91274AC9FEAEC3946A6703 SWAP3 DUP2 SWAP1 SUB SWAP1 SWAP2 ADD SWAP1 LOG1 POP JUMP JUMPDEST PUSH1 0x0 DUP1 DUP3 PUSH1 0x60 SHL SWAP1 POP PUSH1 0x40 MLOAD PUSH20 0x3D602D80600A3D3981F3363D3D373D3D3D363D73 PUSH1 0x60 SHL DUP2 MSTORE DUP2 PUSH1 0x14 DUP3 ADD MSTORE PUSH15 0x5AF43D82803E903D91602B57FD5BF3 PUSH1 0x88 SHL PUSH1 0x28 DUP3 ADD MSTORE PUSH1 0x37 DUP2 PUSH1 0x0 CREATE SWAP5 SWAP4 POP POP POP POP JUMP INVALID 0x4D 0x49 MSTORE8 0x4F CHAINID PUSH6 0x726D656E7465 PUSH19 0x3A2053656E646572206D757374206265206F70 PUSH6 0x7261746F724D 0x49 MSTORE8 0x4F CHAINID PUSH6 0x726D656E7465 PUSH19 0x3A2053656E646572206D757374206265206D69 PUSH15 0x746572206966206C6F636B65644D49 MSTORE8 0x4F CHAINID PUSH6 0x726D656E7465 PUSH19 0x3A2053656E646572206D757374206265206164 PUSH14 0x696EA2646970667358221220F602 RETURN 0xD1 0xE2 PUSH21 0xFA5C9189D0BAF03B0D4BB1E98683609AE5DC282F0F 0xCC PUSH5 0xDF1F756473 PUSH16 0x6C634300060C00330000000000000000 ",
  "sha1": "166fbbd2634303f8496a3dc35cfc77c602f11c4e",
  "source": "pragma solidity 0.6.12;\n\n//----------------------------------------------------------------------------------\n//    I n s t a n t\n//\n//        .:mmm.         .:mmm:.       .ii.  .:SSSSSSSSSSSSS.     .oOOOOOOOOOOOo.  \n//      .mMM'':Mm.     .:MM'':Mm:.     .II:  :SSs..........     .oOO'''''''''''OOo.\n//    .:Mm'   ':Mm.   .:Mm'   'MM:.    .II:  'sSSSSSSSSSSSSS:.  :OO.           .OO:\n//  .'mMm'     ':MM:.:MMm'     ':MM:.  .II:  .:...........:SS.  'OOo:.........:oOO'\n//  'mMm'        ':MMmm'         'mMm:  II:  'sSSSSSSSSSSSSS'     'oOOOOOOOOOOOO'  \n//\n//----------------------------------------------------------------------------------\n//\n// Chef Gonpachi's MISO Fermenter\n//\n// A factory to conveniently deploy your own token vault contracts\n//\n// Inspired by Bokky's EtherVendingMachince.io\n// https://github.com/bokkypoobah/FixedSupplyTokenFactory\n// \n// This program is free software: you can redistribute it and/or modify\n// it under the terms of the GNU General Public License as published by\n// the Free Software Foundation, either version 3 of the License\n//\n// This program is distributed in the hope that it will be useful,\n// but WITHOUT ANY WARRANTY; without even the implied warranty of\n// MERCHANTABILITY or FITNESS FOR A PARTICULAR PURPOSE.  See the\n// GNU General Public License for more details.\n//\n// The above copyright notice and this permission notice shall be included \n// in all copies or substantial portions of the Software.\n//\n// Made for Sushi.com \n// \n// Enjoy. (c) Chef Gonpachi 2021 \n// <https://github.com/chefgonpachi/MISO/>\n//\n// ---------------------------------------------------------------------\n// SPDX-License-Identifier: GPL-3.0                        \n// ---------------------------------------------------------------------\n\n\nimport \"./Utils/CloneFactory.sol\";\nimport \"./Access/MISOAccessControls.sol\";\n\n/// @notice  Token escrow, lock up tokens for a period of time\n\ncontract MISOFermenter is CloneFactory {\n\n    /// @notice Responsible for access rights to the contract.\n    MISOAccessControls public accessControls;\n    bytes32 public constant VAULT_MINTER_ROLE = keccak256(\"VAULT_MINTER_ROLE\");\n\n    /// @notice Whether farm factory has been initialized or not.\n    bool private initialised;\n    /// @notice Contract locked status. If locked, only minters can deploy\n    bool public locked;\n\n    /// @notice Struct to track Fermenter template.\n    struct Fermenter{\n        bool exists;\n        uint256 templateId;\n        uint256 index;\n    }\n\n    /// @notice Escrows created using the factory.\n    address[] public escrows;\n\n    /// @notice Template id to track respective escrow template.\n    uint256 public escrowTemplateId;\n\n    /// @notice Mapping from template id to escrow template address.\n    mapping(uint256 => address) private escrowTemplates;\n\n    /// @notice mapping from escrow template address to escrow template id\n    mapping(address => uint256) private escrowTemplateToId;\n\n    /// @notice mapping from escrow address to struct Fermenter\n    mapping(address => Fermenter) public isChildEscrow;\n\n    /// @notice Event emitted when first initializing MISO fermenter.\n    event MisoInitFermenter(address sender);\n\n    /// @notice Event emitted when escrow template added.\n    event EscrowTemplateAdded(address newTemplate, uint256 templateId);\n\n    /// @notice Event emitted when escrow template is removed.\n    event EscrowTemplateRemoved(address template, uint256 templateId);\n\n    /// @notice Event emitted when escrow is created.\n    event EscrowCreated(address indexed owner, address indexed addr,address escrowTemplate);\n\n    /**\n     * @notice Single gateway to initialize the MISO Market with proper address.\n     * @dev Can only be initialized once.\n     * @param _accessControls Sets address to get the access controls from.\n     */\n    function initMISOFermenter(address _accessControls) external {\n        /// @dev Maybe missing require message?\n        require(!initialised);\n        initialised = true;\n        locked = true;\n        accessControls = MISOAccessControls(_accessControls);\n        emit MisoInitFermenter(msg.sender);\n    }\n\n    /**\n     * @notice Sets the factory to be locked or unlocked.\n     * @param _locked bool.\n     */\n    function setLocked(bool _locked) external {\n        require(\n            accessControls.hasAdminRole(msg.sender),\n            \"MISOFermenter: Sender must be admin\"\n        );\n        locked = _locked;\n    }\n\n\n    /**\n     * @notice Used to check whether an address has the minter role\n     * @param _address EOA or contract being checked\n     * @return bool True if the account has the role or false if it does not\n     */\n    function hasVaultMinterRole(address _address) public view returns (bool) {\n        return accessControls.hasRole(VAULT_MINTER_ROLE, _address);\n    }\n\n\n\n    /**\n     * @notice Creates a new escrow corresponding to template Id.\n     * @param _templateId Template id of the escrow to create.\n     * @return newEscrow Escrow address.\n     */\n    function createEscrow(uint256 _templateId) external returns (address newEscrow) {\n\n        /// @dev If the contract is locked, only admin and minters can deploy. \n        if (locked) {\n            require(accessControls.hasAdminRole(msg.sender) \n                    || accessControls.hasMinterRole(msg.sender)\n                    || hasVaultMinterRole(msg.sender),\n                \"MISOFermenter: Sender must be minter if locked\"\n            );\n        }\n\n        require(escrowTemplates[_templateId]!= address(0));\n        newEscrow = createClone(escrowTemplates[_templateId]);\n\n\n        isChildEscrow[address(newEscrow)] = Fermenter(true,_templateId,escrows.length);\n        escrows.push(newEscrow);\n        emit EscrowCreated(msg.sender,address(newEscrow),escrowTemplates[_templateId]);\n    }\n\n    /**\n     * @notice Function to add a escrow template to create through factory.\n     * @dev Should have operator access.\n     * @param _escrowTemplate Escrow template to create a token.\n     */\n    function addEscrowTemplate(address _escrowTemplate) external {\n         require(\n            accessControls.hasOperatorRole(msg.sender),\n            \"MISOFermenter: Sender must be operator\"\n        );\n        escrowTemplateId++;\n        escrowTemplates[escrowTemplateId] = _escrowTemplate;\n        escrowTemplateToId[_escrowTemplate] = escrowTemplateId;\n        emit EscrowTemplateAdded(_escrowTemplate, escrowTemplateId);\n    }\n\n    /**\n     * @notice Function to remove a escrow template.\n     * @dev Should have operator access.\n     * @param _templateId Refers to template that is to be deleted.\n     */\n    function removeEscrowTemplate(uint256 _templateId) external {\n        require(\n            accessControls.hasOperatorRole(msg.sender),\n            \"MISOFermenter: Sender must be operator\"\n        );\n        require(escrowTemplates[_templateId] != address(0));\n        address template = escrowTemplates[_templateId];\n        escrowTemplates[_templateId] = address(0);\n        delete escrowTemplateToId[template];\n        emit EscrowTemplateRemoved(template, _templateId);\n    }\n\n    /**\n     * @notice Get the address of the escrow template based on template ID.\n     * @param _templateId Escrow template ID.\n     * @return Address of the required template ID.\n     */\n    function getEscrowTemplate(uint256 _templateId) external view returns (address) {\n        return escrowTemplates[_templateId];\n    }\n\n    /**\n     * @notice Get the ID based on template address.\n     * @param _escrowTemplate Escrow template address.\n     * @return templateId ID of the required template address.\n     */\n    function getTemplateId(address _escrowTemplate) external view returns (uint256 templateId) {\n        return escrowTemplateToId[_escrowTemplate];\n    }\n\n    /**\n     * @notice Get the total number of escrows in the factory.\n     * @return Escrow count.\n     */\n    function numberOfTokens() external view returns (uint256) {\n        return escrows.length;\n    }\n\n\n}\n",
  "sourcePath": "contracts/MISOFermenter.sol",
  "type": "contract"
}