{
  "abi": [
    {
      "inputs": [],
      "stateMutability": "nonpayable",
      "type": "constructor"
    },
    {
      "anonymous": false,
      "inputs": [
        {
          "indexed": true,
          "internalType": "address",
          "name": "owner",
          "type": "address"
        },
        {
          "indexed": false,
          "internalType": "address",
          "name": "accessControls",
          "type": "address"
        },
        {
          "indexed": false,
          "internalType": "address",
          "name": "admin",
          "type": "address"
        },
        {
          "indexed": false,
          "internalType": "address",
          "name": "accessTemplate",
          "type": "address"
        }
      ],
      "name": "AccessControlCreated",
      "type": "event"
    },
    {
      "anonymous": false,
      "inputs": [
        {
          "indexed": false,
          "internalType": "address",
          "name": "oldAccessControl",
          "type": "address"
        },
        {
          "indexed": false,
          "internalType": "address",
          "name": "newAccessControl",
          "type": "address"
        }
      ],
      "name": "AccessControlTemplateAdded",
      "type": "event"
    },
    {
      "anonymous": false,
      "inputs": [
        {
          "indexed": false,
          "internalType": "address",
          "name": "access",
          "type": "address"
        },
        {
          "indexed": false,
          "internalType": "uint256",
          "name": "templateId",
          "type": "uint256"
        }
      ],
      "name": "AccessControlTemplateRemoved",
      "type": "event"
    },
    {
      "anonymous": false,
      "inputs": [
        {
          "indexed": false,
          "internalType": "address",
          "name": "oldDev",
          "type": "address"
        },
        {
          "indexed": false,
          "internalType": "address",
          "name": "newDev",
          "type": "address"
        }
      ],
      "name": "DevAddressUpdated",
      "type": "event"
    },
    {
      "anonymous": false,
      "inputs": [
        {
          "indexed": false,
          "internalType": "uint256",
          "name": "oldFee",
          "type": "uint256"
        },
        {
          "indexed": false,
          "internalType": "uint256",
          "name": "newFee",
          "type": "uint256"
        }
      ],
      "name": "MinimumFeeUpdated",
      "type": "event"
    },
    {
      "anonymous": false,
      "inputs": [
        {
          "indexed": false,
          "internalType": "address",
          "name": "sender",
          "type": "address"
        }
      ],
      "name": "MisoInitAccessFactory",
      "type": "event"
    },
    {
      "inputs": [],
      "name": "accessControlTemplate",
      "outputs": [
        {
          "internalType": "address",
          "name": "",
          "type": "address"
        }
      ],
      "stateMutability": "view",
      "type": "function"
    },
    {
      "inputs": [],
      "name": "accessControls",
      "outputs": [
        {
          "internalType": "contract MISOAccessControls",
          "name": "",
          "type": "address"
        }
      ],
      "stateMutability": "view",
      "type": "function"
    },
    {
      "inputs": [
        {
          "internalType": "uint256",
          "name": "",
          "type": "uint256"
        }
      ],
      "name": "children",
      "outputs": [
        {
          "internalType": "address",
          "name": "",
          "type": "address"
        }
      ],
      "stateMutability": "view",
      "type": "function"
    },
    {
      "inputs": [
        {
          "internalType": "address",
          "name": "_admin",
          "type": "address"
        }
      ],
      "name": "deployAccessControl",
      "outputs": [
        {
          "internalType": "address",
          "name": "access",
          "type": "address"
        }
      ],
      "stateMutability": "payable",
      "type": "function"
    },
    {
      "inputs": [],
      "name": "devaddr",
      "outputs": [
        {
          "internalType": "address",
          "name": "",
          "type": "address"
        }
      ],
      "stateMutability": "view",
      "type": "function"
    },
    {
      "inputs": [
        {
          "internalType": "uint256",
          "name": "_minimumFee",
          "type": "uint256"
        },
        {
          "internalType": "address",
          "name": "_accessControls",
          "type": "address"
        }
      ],
      "name": "initMISOAccessFactory",
      "outputs": [],
      "stateMutability": "nonpayable",
      "type": "function"
    },
    {
      "inputs": [
        {
          "internalType": "address",
          "name": "",
          "type": "address"
        }
      ],
      "name": "isChild",
      "outputs": [
        {
          "internalType": "bool",
          "name": "",
          "type": "bool"
        }
      ],
      "stateMutability": "view",
      "type": "function"
    },
    {
      "inputs": [],
      "name": "minimumFee",
      "outputs": [
        {
          "internalType": "uint256",
          "name": "",
          "type": "uint256"
        }
      ],
      "stateMutability": "view",
      "type": "function"
    },
    {
      "inputs": [],
      "name": "numberOfChildren",
      "outputs": [
        {
          "internalType": "uint256",
          "name": "",
          "type": "uint256"
        }
      ],
      "stateMutability": "view",
      "type": "function"
    },
    {
      "inputs": [
        {
          "internalType": "address",
          "name": "_devaddr",
          "type": "address"
        }
      ],
      "name": "setDev",
      "outputs": [],
      "stateMutability": "nonpayable",
      "type": "function"
    },
    {
      "inputs": [
        {
          "internalType": "uint256",
          "name": "_minimumFee",
          "type": "uint256"
        }
      ],
      "name": "setMinimumFee",
      "outputs": [],
      "stateMutability": "nonpayable",
      "type": "function"
    },
    {
      "inputs": [
        {
          "internalType": "address",
          "name": "_template",
          "type": "address"
        }
      ],
      "name": "updateAccessTemplate",
      "outputs": [],
      "stateMutability": "nonpayable",
      "type": "function"
    }
  ],
  "bytecode": "608060405234801561001057600080fd5b50610a04806100206000396000f3fe6080604052600436106100a75760003560e01c80637002ce42116100645780637002ce42146101c2578063748365ef146101ec5780637943e04b14610201578063d477f05f14610216578063d49e77cd14610249578063fc91a8971461025e576100a7565b8063182a7506146100ac5780631a7626e7146100d857806349607420146100ff578063534349f5146101415780635bd75e45146101565780636d657e9614610189575b600080fd5b3480156100b857600080fd5b506100d6600480360360208110156100cf57600080fd5b50356102a5565b005b3480156100e457600080fd5b506100ed610399565b60408051918252519081900360200190f35b6101256004803603602081101561011557600080fd5b50356001600160a01b031661039f565b604080516001600160a01b039092168252519081900360200190f35b34801561014d57600080fd5b506100ed6105a8565b34801561016257600080fd5b506100d66004803603602081101561017957600080fd5b50356001600160a01b03166105ae565b34801561019557600080fd5b506100d6600480360360408110156101ac57600080fd5b50803590602001356001600160a01b03166106dd565b3480156101ce57600080fd5b50610125600480360360208110156101e557600080fd5b5035610760565b3480156101f857600080fd5b50610125610787565b34801561020d57600080fd5b50610125610796565b34801561022257600080fd5b506100d66004803603602081101561023957600080fd5b50356001600160a01b03166107a5565b34801561025557600080fd5b506101256108c1565b34801561026a57600080fd5b506102916004803603602081101561028157600080fd5b50356001600160a01b03166108d0565b604080519115158252519081900360200190f35b6000546040805163c395fcb360e01b815233600482015290516001600160a01b039092169163c395fcb391602480820192602092909190829003018186803b1580156102f057600080fd5b505afa158015610304573d6000803e3d6000fd5b505050506040513d602081101561031a57600080fd5b50516103575760405162461bcd60e51b815260040180806020018281038252603581526020018061099a6035913960400191505060405180910390fd5b600254604080519182526020820183905280517fcc2f49c6214278ae5862935eff953448e8e69118d10abfafaf63ea6aa35255cb9281900390910190a1600255565b60025481565b60006002543410156103f8576040805162461bcd60e51b815260206004820152601d60248201527f4d696e696d756d20666565206e6565647320746f20626520706169642e000000604482015290519081900360640190fd5b6001546001600160a01b031661043f5760405162461bcd60e51b81526004018080602001828103825260268152602001806109746026913960400191505060405180910390fd5b600154610454906001600160a01b03166108e5565b6001600160a01b03808216600081815260056020526040808220805460ff191660019081179091556004805491820181558084527f8a35acfbc15ff81a39ae7d344fd709f28e8600b4aa8c65c6b64bfe7fe36bd19b90910180546001600160a01b03191685179055815163e6594abd60e01b81529488169085015251939450909263e6594abd92602480820193929182900301818387803b1580156104f857600080fd5b505af115801561050c573d6000803e3d6000fd5b5050600154604080516001600160a01b03868116825287811660208301529290921682820152513393507f04bab762abec794d3bbbbb6c239930bfa67fcb065ac0544dc86d570d286c2ddf92509081900360600190a234156105a3576003546040516001600160a01b03909116903480156108fc02916000818181858888f193505050501580156105a1573d6000803e3d6000fd5b505b919050565b60045490565b6000546040805163c395fcb360e01b815233600482015290516001600160a01b039092169163c395fcb391602480820192602092909190829003018186803b1580156105f957600080fd5b505afa15801561060d573d6000803e3d6000fd5b505050506040513d602081101561062357600080fd5b50516106605760405162461bcd60e51b815260040180806020018281038252603c815260200180610938603c913960400191505060405180910390fd5b6001600160a01b03811661067357600080fd5b600154604080516001600160a01b039283168152918316602083015280517fbf2021603fd1f7522ea24bb278e25cb332de4ad13e99ed41c6cbebf37005bbbf9281900390910190a1600180546001600160a01b0319166001600160a01b0392909216919091179055565b600154600160a01b900460ff16156106f457600080fd5b6001805460ff60a01b1916600160a01b1790556002829055600080546001600160a01b0383166001600160a01b03199091161790556040805133815290517f160479302f22eec0a2327a51401f61e05f763ca151a30f7a556841d31dc2f45a9181900360200190a15050565b6004818154811061076d57fe5b6000918252602090912001546001600160a01b0316905081565b6000546001600160a01b031681565b6001546001600160a01b031681565b6000546040805163c395fcb360e01b815233600482015290516001600160a01b039092169163c395fcb391602480820192602092909190829003018186803b1580156107f057600080fd5b505afa158015610804573d6000803e3d6000fd5b505050506040513d602081101561081a57600080fd5b50516108575760405162461bcd60e51b815260040180806020018281038252603581526020018061099a6035913960400191505060405180910390fd5b600354604080516001600160a01b039283168152918316602083015280517f52882fe9c8937a186eb2653e68b33629cf58f0c3e09b567f0d1db958d3a6c3f09281900390910190a1600380546001600160a01b0319166001600160a01b0392909216919091179055565b6003546001600160a01b031681565b60056020526000908152604090205460ff1681565b6000808260601b9050604051733d602d80600a3d3981f3363d3d373d3d3d363d7360601b81528160148201526e5af43d82803e903d91602b57fd5bf360881b60288201526037816000f094935050505056fe4d49534f416363657373466163746f72792e75706461746541636365737354656d706c6174653a2053656e646572206d7573742062652061646d696e41636365737320636f6e74726f6c2074656d706c61746520646f6573206e6f742065786973744d49534f416363657373466163746f72792e7365744d696e696d756d4665653a2053656e646572206d7573742062652061646d696ea26469706673582212203077282bda74ad804c25c0049e7c3d7209b15a94b4c813fc485adea68a75b97464736f6c634300060c0033",
  "bytecodeSha1": "ab3640994c45f7a103ce4a7c2ced7aca1e926bad",
  "compiler": {
    "evm_version": "istanbul",
    "optimizer": {
      "enabled": true,
      "runs": 200
    },
    "version": "0.6.12+commit.27d51765"
  },
  "contractName": "MISOAccessFactory",
  "language": "Solidity",
  "natspec": {
    "kind": "dev",
    "methods": {
      "accessControlTemplate()": {
        "notice": "Address of the template for access controls."
      },
      "accessControls()": {
        "notice": "Responsible for access rights to the contract."
      },
      "children(uint256)": {
        "notice": "AccessControls created using the factory."
      },
      "deployAccessControl(address)": {
        "details": "Initializes access with parameters passed.",
        "notice": "Creates access corresponding to template id.",
        "params": {
          "_admin": "Address of admin access."
        }
      },
      "devaddr()": {
        "notice": "Devs address."
      },
      "initMISOAccessFactory(uint256,address)": {
        "details": "Can only be initialized once.",
        "notice": "Single gateway to initialize the MISO AccessControl Factory with proper address and set minimum fee.",
        "params": {
          "_accessControls": "Address of the access controls.",
          "_minimumFee": "Minimum fee number."
        }
      },
      "isChild(address)": {
        "notice": "Tracks if a contract is made by the factory."
      },
      "minimumFee()": {
        "notice": "Minimum fee number."
      },
      "numberOfChildren()": {
        "notice": "Get the total number of children in the factory."
      },
      "setDev(address)": {
        "details": "Should have operator access.",
        "notice": "Sets dev address.",
        "params": {
          "_devaddr": "Devs address."
        }
      },
      "setMinimumFee(uint256)": {
        "details": "Should have operator access.",
        "notice": "Sets minimum fee.",
        "params": {
          "_minimumFee": "Minimum fee number."
        }
      },
      "updateAccessTemplate(address)": {
        "details": "Should have operator access.",
        "notice": "Function to add new contract templates for the factory.",
        "params": {
          "_template": "Template to create new access controls."
        }
      }
    },
    "version": 1
  },
  "opcodes": "PUSH1 0x80 PUSH1 0x40 MSTORE PUSH1 0x4 CALLDATASIZE LT PUSH2 0xA7 JUMPI PUSH1 0x0 CALLDATALOAD PUSH1 0xE0 SHR DUP1 PUSH4 0x7002CE42 GT PUSH2 0x64 JUMPI DUP1 PUSH4 0x7002CE42 EQ PUSH2 0x1C2 JUMPI DUP1 PUSH4 0x748365EF EQ PUSH2 0x1EC JUMPI DUP1 PUSH4 0x7943E04B EQ PUSH2 0x201 JUMPI DUP1 PUSH4 0xD477F05F EQ PUSH2 0x216 JUMPI DUP1 PUSH4 0xD49E77CD EQ PUSH2 0x249 JUMPI DUP1 PUSH4 0xFC91A897 EQ PUSH2 0x25E JUMPI PUSH2 0xA7 JUMP JUMPDEST DUP1 PUSH4 0x182A7506 EQ PUSH2 0xAC JUMPI DUP1 PUSH4 0x1A7626E7 EQ PUSH2 0xD8 JUMPI DUP1 PUSH4 0x49607420 EQ PUSH2 0xFF JUMPI DUP1 PUSH4 0x534349F5 EQ PUSH2 0x141 JUMPI DUP1 PUSH4 0x5BD75E45 EQ PUSH2 0x156 JUMPI DUP1 PUSH4 0x6D657E96 EQ PUSH2 0x189 JUMPI JUMPDEST PUSH1 0x0 DUP1 REVERT JUMPDEST CALLVALUE DUP1 ISZERO PUSH2 0xB8 JUMPI PUSH1 0x0 DUP1 REVERT JUMPDEST POP PUSH2 0xD6 PUSH1 0x4 DUP1 CALLDATASIZE SUB PUSH1 0x20 DUP2 LT ISZERO PUSH2 0xCF JUMPI PUSH1 0x0 DUP1 REVERT JUMPDEST POP CALLDATALOAD PUSH2 0x2A5 JUMP JUMPDEST STOP JUMPDEST CALLVALUE DUP1 ISZERO PUSH2 0xE4 JUMPI PUSH1 0x0 DUP1 REVERT JUMPDEST POP PUSH2 0xED PUSH2 0x399 JUMP JUMPDEST PUSH1 0x40 DUP1 MLOAD SWAP2 DUP3 MSTORE MLOAD SWAP1 DUP2 SWAP1 SUB PUSH1 0x20 ADD SWAP1 RETURN JUMPDEST PUSH2 0x125 PUSH1 0x4 DUP1 CALLDATASIZE SUB PUSH1 0x20 DUP2 LT ISZERO PUSH2 0x115 JUMPI PUSH1 0x0 DUP1 REVERT JUMPDEST POP CALLDATALOAD PUSH1 0x1 PUSH1 0x1 PUSH1 0xA0 SHL SUB AND PUSH2 0x39F JUMP JUMPDEST PUSH1 0x40 DUP1 MLOAD PUSH1 0x1 PUSH1 0x1 PUSH1 0xA0 SHL SUB SWAP1 SWAP3 AND DUP3 MSTORE MLOAD SWAP1 DUP2 SWAP1 SUB PUSH1 0x20 ADD SWAP1 RETURN JUMPDEST CALLVALUE DUP1 ISZERO PUSH2 0x14D JUMPI PUSH1 0x0 DUP1 REVERT JUMPDEST POP PUSH2 0xED PUSH2 0x5A8 JUMP JUMPDEST CALLVALUE DUP1 ISZERO PUSH2 0x162 JUMPI PUSH1 0x0 DUP1 REVERT JUMPDEST POP PUSH2 0xD6 PUSH1 0x4 DUP1 CALLDATASIZE SUB PUSH1 0x20 DUP2 LT ISZERO PUSH2 0x179 JUMPI PUSH1 0x0 DUP1 REVERT JUMPDEST POP CALLDATALOAD PUSH1 0x1 PUSH1 0x1 PUSH1 0xA0 SHL SUB AND PUSH2 0x5AE JUMP JUMPDEST CALLVALUE DUP1 ISZERO PUSH2 0x195 JUMPI PUSH1 0x0 DUP1 REVERT JUMPDEST POP PUSH2 0xD6 PUSH1 0x4 DUP1 CALLDATASIZE SUB PUSH1 0x40 DUP2 LT ISZERO PUSH2 0x1AC JUMPI PUSH1 0x0 DUP1 REVERT JUMPDEST POP DUP1 CALLDATALOAD SWAP1 PUSH1 0x20 ADD CALLDATALOAD PUSH1 0x1 PUSH1 0x1 PUSH1 0xA0 SHL SUB AND PUSH2 0x6DD JUMP JUMPDEST CALLVALUE DUP1 ISZERO PUSH2 0x1CE JUMPI PUSH1 0x0 DUP1 REVERT JUMPDEST POP PUSH2 0x125 PUSH1 0x4 DUP1 CALLDATASIZE SUB PUSH1 0x20 DUP2 LT ISZERO PUSH2 0x1E5 JUMPI PUSH1 0x0 DUP1 REVERT JUMPDEST POP CALLDATALOAD PUSH2 0x760 JUMP JUMPDEST CALLVALUE DUP1 ISZERO PUSH2 0x1F8 JUMPI PUSH1 0x0 DUP1 REVERT JUMPDEST POP PUSH2 0x125 PUSH2 0x787 JUMP JUMPDEST CALLVALUE DUP1 ISZERO PUSH2 0x20D JUMPI PUSH1 0x0 DUP1 REVERT JUMPDEST POP PUSH2 0x125 PUSH2 0x796 JUMP JUMPDEST CALLVALUE DUP1 ISZERO PUSH2 0x222 JUMPI PUSH1 0x0 DUP1 REVERT JUMPDEST POP PUSH2 0xD6 PUSH1 0x4 DUP1 CALLDATASIZE SUB PUSH1 0x20 DUP2 LT ISZERO PUSH2 0x239 JUMPI PUSH1 0x0 DUP1 REVERT JUMPDEST POP CALLDATALOAD PUSH1 0x1 PUSH1 0x1 PUSH1 0xA0 SHL SUB AND PUSH2 0x7A5 JUMP JUMPDEST CALLVALUE DUP1 ISZERO PUSH2 0x255 JUMPI PUSH1 0x0 DUP1 REVERT JUMPDEST POP PUSH2 0x125 PUSH2 0x8C1 JUMP JUMPDEST CALLVALUE DUP1 ISZERO PUSH2 0x26A JUMPI PUSH1 0x0 DUP1 REVERT JUMPDEST POP PUSH2 0x291 PUSH1 0x4 DUP1 CALLDATASIZE SUB PUSH1 0x20 DUP2 LT ISZERO PUSH2 0x281 JUMPI PUSH1 0x0 DUP1 REVERT JUMPDEST POP CALLDATALOAD PUSH1 0x1 PUSH1 0x1 PUSH1 0xA0 SHL SUB AND PUSH2 0x8D0 JUMP JUMPDEST PUSH1 0x40 DUP1 MLOAD SWAP2 ISZERO ISZERO DUP3 MSTORE MLOAD SWAP1 DUP2 SWAP1 SUB PUSH1 0x20 ADD SWAP1 RETURN JUMPDEST PUSH1 0x0 SLOAD PUSH1 0x40 DUP1 MLOAD PUSH4 0xC395FCB3 PUSH1 0xE0 SHL DUP2 MSTORE CALLER PUSH1 0x4 DUP3 ADD MSTORE SWAP1 MLOAD PUSH1 0x1 PUSH1 0x1 PUSH1 0xA0 SHL SUB SWAP1 SWAP3 AND SWAP2 PUSH4 0xC395FCB3 SWAP2 PUSH1 0x24 DUP1 DUP3 ADD SWAP3 PUSH1 0x20 SWAP3 SWAP1 SWAP2 SWAP1 DUP3 SWAP1 SUB ADD DUP2 DUP7 DUP1 EXTCODESIZE ISZERO DUP1 ISZERO PUSH2 0x2F0 JUMPI PUSH1 0x0 DUP1 REVERT JUMPDEST POP GAS STATICCALL ISZERO DUP1 ISZERO PUSH2 0x304 JUMPI RETURNDATASIZE PUSH1 0x0 DUP1 RETURNDATACOPY RETURNDATASIZE PUSH1 0x0 REVERT JUMPDEST POP POP POP POP PUSH1 0x40 MLOAD RETURNDATASIZE PUSH1 0x20 DUP2 LT ISZERO PUSH2 0x31A JUMPI PUSH1 0x0 DUP1 REVERT JUMPDEST POP MLOAD PUSH2 0x357 JUMPI PUSH1 0x40 MLOAD PUSH3 0x461BCD PUSH1 0xE5 SHL DUP2 MSTORE PUSH1 0x4 ADD DUP1 DUP1 PUSH1 0x20 ADD DUP3 DUP2 SUB DUP3 MSTORE PUSH1 0x35 DUP2 MSTORE PUSH1 0x20 ADD DUP1 PUSH2 0x99A PUSH1 0x35 SWAP2 CODECOPY PUSH1 0x40 ADD SWAP2 POP POP PUSH1 0x40 MLOAD DUP1 SWAP2 SUB SWAP1 REVERT JUMPDEST PUSH1 0x2 SLOAD PUSH1 0x40 DUP1 MLOAD SWAP2 DUP3 MSTORE PUSH1 0x20 DUP3 ADD DUP4 SWAP1 MSTORE DUP1 MLOAD PUSH32 0xCC2F49C6214278AE5862935EFF953448E8E69118D10ABFAFAF63EA6AA35255CB SWAP3 DUP2 SWAP1 SUB SWAP1 SWAP2 ADD SWAP1 LOG1 PUSH1 0x2 SSTORE JUMP JUMPDEST PUSH1 0x2 SLOAD DUP2 JUMP JUMPDEST PUSH1 0x0 PUSH1 0x2 SLOAD CALLVALUE LT ISZERO PUSH2 0x3F8 JUMPI PUSH1 0x40 DUP1 MLOAD PUSH3 0x461BCD PUSH1 0xE5 SHL DUP2 MSTORE PUSH1 0x20 PUSH1 0x4 DUP3 ADD MSTORE PUSH1 0x1D PUSH1 0x24 DUP3 ADD MSTORE PUSH32 0x4D696E696D756D20666565206E6565647320746F20626520706169642E000000 PUSH1 0x44 DUP3 ADD MSTORE SWAP1 MLOAD SWAP1 DUP2 SWAP1 SUB PUSH1 0x64 ADD SWAP1 REVERT JUMPDEST PUSH1 0x1 SLOAD PUSH1 0x1 PUSH1 0x1 PUSH1 0xA0 SHL SUB AND PUSH2 0x43F JUMPI PUSH1 0x40 MLOAD PUSH3 0x461BCD PUSH1 0xE5 SHL DUP2 MSTORE PUSH1 0x4 ADD DUP1 DUP1 PUSH1 0x20 ADD DUP3 DUP2 SUB DUP3 MSTORE PUSH1 0x26 DUP2 MSTORE PUSH1 0x20 ADD DUP1 PUSH2 0x974 PUSH1 0x26 SWAP2 CODECOPY PUSH1 0x40 ADD SWAP2 POP POP PUSH1 0x40 MLOAD DUP1 SWAP2 SUB SWAP1 REVERT JUMPDEST PUSH1 0x1 SLOAD PUSH2 0x454 SWAP1 PUSH1 0x1 PUSH1 0x1 PUSH1 0xA0 SHL SUB AND PUSH2 0x8E5 JUMP JUMPDEST PUSH1 0x1 PUSH1 0x1 PUSH1 0xA0 SHL SUB DUP1 DUP3 AND PUSH1 0x0 DUP2 DUP2 MSTORE PUSH1 0x5 PUSH1 0x20 MSTORE PUSH1 0x40 DUP1 DUP3 KECCAK256 DUP1 SLOAD PUSH1 0xFF NOT AND PUSH1 0x1 SWAP1 DUP2 OR SWAP1 SWAP2 SSTORE PUSH1 0x4 DUP1 SLOAD SWAP2 DUP3 ADD DUP2 SSTORE DUP1 DUP5 MSTORE PUSH32 0x8A35ACFBC15FF81A39AE7D344FD709F28E8600B4AA8C65C6B64BFE7FE36BD19B SWAP1 SWAP2 ADD DUP1 SLOAD PUSH1 0x1 PUSH1 0x1 PUSH1 0xA0 SHL SUB NOT AND DUP6 OR SWAP1 SSTORE DUP2 MLOAD PUSH4 0xE6594ABD PUSH1 0xE0 SHL DUP2 MSTORE SWAP5 DUP9 AND SWAP1 DUP6 ADD MSTORE MLOAD SWAP4 SWAP5 POP SWAP1 SWAP3 PUSH4 0xE6594ABD SWAP3 PUSH1 0x24 DUP1 DUP3 ADD SWAP4 SWAP3 SWAP2 DUP3 SWAP1 SUB ADD DUP2 DUP4 DUP8 DUP1 EXTCODESIZE ISZERO DUP1 ISZERO PUSH2 0x4F8 JUMPI PUSH1 0x0 DUP1 REVERT JUMPDEST POP GAS CALL ISZERO DUP1 ISZERO PUSH2 0x50C JUMPI RETURNDATASIZE PUSH1 0x0 DUP1 RETURNDATACOPY RETURNDATASIZE PUSH1 0x0 REVERT JUMPDEST POP POP PUSH1 0x1 SLOAD PUSH1 0x40 DUP1 MLOAD PUSH1 0x1 PUSH1 0x1 PUSH1 0xA0 SHL SUB DUP7 DUP2 AND DUP3 MSTORE DUP8 DUP2 AND PUSH1 0x20 DUP4 ADD MSTORE SWAP3 SWAP1 SWAP3 AND DUP3 DUP3 ADD MSTORE MLOAD CALLER SWAP4 POP PUSH32 0x4BAB762ABEC794D3BBBBB6C239930BFA67FCB065AC0544DC86D570D286C2DDF SWAP3 POP SWAP1 DUP2 SWAP1 SUB PUSH1 0x60 ADD SWAP1 LOG2 CALLVALUE ISZERO PUSH2 0x5A3 JUMPI PUSH1 0x3 SLOAD PUSH1 0x40 MLOAD PUSH1 0x1 PUSH1 0x1 PUSH1 0xA0 SHL SUB SWAP1 SWAP2 AND SWAP1 CALLVALUE DUP1 ISZERO PUSH2 0x8FC MUL SWAP2 PUSH1 0x0 DUP2 DUP2 DUP2 DUP6 DUP9 DUP9 CALL SWAP4 POP POP POP POP ISZERO DUP1 ISZERO PUSH2 0x5A1 JUMPI RETURNDATASIZE PUSH1 0x0 DUP1 RETURNDATACOPY RETURNDATASIZE PUSH1 0x0 REVERT JUMPDEST POP JUMPDEST SWAP2 SWAP1 POP JUMP JUMPDEST PUSH1 0x4 SLOAD SWAP1 JUMP JUMPDEST PUSH1 0x0 SLOAD PUSH1 0x40 DUP1 MLOAD PUSH4 0xC395FCB3 PUSH1 0xE0 SHL DUP2 MSTORE CALLER PUSH1 0x4 DUP3 ADD MSTORE SWAP1 MLOAD PUSH1 0x1 PUSH1 0x1 PUSH1 0xA0 SHL SUB SWAP1 SWAP3 AND SWAP2 PUSH4 0xC395FCB3 SWAP2 PUSH1 0x24 DUP1 DUP3 ADD SWAP3 PUSH1 0x20 SWAP3 SWAP1 SWAP2 SWAP1 DUP3 SWAP1 SUB ADD DUP2 DUP7 DUP1 EXTCODESIZE ISZERO DUP1 ISZERO PUSH2 0x5F9 JUMPI PUSH1 0x0 DUP1 REVERT JUMPDEST POP GAS STATICCALL ISZERO DUP1 ISZERO PUSH2 0x60D JUMPI RETURNDATASIZE PUSH1 0x0 DUP1 RETURNDATACOPY RETURNDATASIZE PUSH1 0x0 REVERT JUMPDEST POP POP POP POP PUSH1 0x40 MLOAD RETURNDATASIZE PUSH1 0x20 DUP2 LT ISZERO PUSH2 0x623 JUMPI PUSH1 0x0 DUP1 REVERT JUMPDEST POP MLOAD PUSH2 0x660 JUMPI PUSH1 0x40 MLOAD PUSH3 0x461BCD PUSH1 0xE5 SHL DUP2 MSTORE PUSH1 0x4 ADD DUP1 DUP1 PUSH1 0x20 ADD DUP3 DUP2 SUB DUP3 MSTORE PUSH1 0x3C DUP2 MSTORE PUSH1 0x20 ADD DUP1 PUSH2 0x938 PUSH1 0x3C SWAP2 CODECOPY PUSH1 0x40 ADD SWAP2 POP POP PUSH1 0x40 MLOAD DUP1 SWAP2 SUB SWAP1 REVERT JUMPDEST PUSH1 0x1 PUSH1 0x1 PUSH1 0xA0 SHL SUB DUP2 AND PUSH2 0x673 JUMPI PUSH1 0x0 DUP1 REVERT JUMPDEST PUSH1 0x1 SLOAD PUSH1 0x40 DUP1 MLOAD PUSH1 0x1 PUSH1 0x1 PUSH1 0xA0 SHL SUB SWAP3 DUP4 AND DUP2 MSTORE SWAP2 DUP4 AND PUSH1 0x20 DUP4 ADD MSTORE DUP1 MLOAD PUSH32 0xBF2021603FD1F7522EA24BB278E25CB332DE4AD13E99ED41C6CBEBF37005BBBF SWAP3 DUP2 SWAP1 SUB SWAP1 SWAP2 ADD SWAP1 LOG1 PUSH1 0x1 DUP1 SLOAD PUSH1 0x1 PUSH1 0x1 PUSH1 0xA0 SHL SUB NOT AND PUSH1 0x1 PUSH1 0x1 PUSH1 0xA0 SHL SUB SWAP3 SWAP1 SWAP3 AND SWAP2 SWAP1 SWAP2 OR SWAP1 SSTORE JUMP JUMPDEST PUSH1 0x1 SLOAD PUSH1 0x1 PUSH1 0xA0 SHL SWAP1 DIV PUSH1 0xFF AND ISZERO PUSH2 0x6F4 JUMPI PUSH1 0x0 DUP1 REVERT JUMPDEST PUSH1 0x1 DUP1 SLOAD PUSH1 0xFF PUSH1 0xA0 SHL NOT AND PUSH1 0x1 PUSH1 0xA0 SHL OR SWAP1 SSTORE PUSH1 0x2 DUP3 SWAP1 SSTORE PUSH1 0x0 DUP1 SLOAD PUSH1 0x1 PUSH1 0x1 PUSH1 0xA0 SHL SUB DUP4 AND PUSH1 0x1 PUSH1 0x1 PUSH1 0xA0 SHL SUB NOT SWAP1 SWAP2 AND OR SWAP1 SSTORE PUSH1 0x40 DUP1 MLOAD CALLER DUP2 MSTORE SWAP1 MLOAD PUSH32 0x160479302F22EEC0A2327A51401F61E05F763CA151A30F7A556841D31DC2F45A SWAP2 DUP2 SWAP1 SUB PUSH1 0x20 ADD SWAP1 LOG1 POP POP JUMP JUMPDEST PUSH1 0x4 DUP2 DUP2 SLOAD DUP2 LT PUSH2 0x76D JUMPI INVALID JUMPDEST PUSH1 0x0 SWAP2 DUP3 MSTORE PUSH1 0x20 SWAP1 SWAP2 KECCAK256 ADD SLOAD PUSH1 0x1 PUSH1 0x1 PUSH1 0xA0 SHL SUB AND SWAP1 POP DUP2 JUMP JUMPDEST PUSH1 0x0 SLOAD PUSH1 0x1 PUSH1 0x1 PUSH1 0xA0 SHL SUB AND DUP2 JUMP JUMPDEST PUSH1 0x1 SLOAD PUSH1 0x1 PUSH1 0x1 PUSH1 0xA0 SHL SUB AND DUP2 JUMP JUMPDEST PUSH1 0x0 SLOAD PUSH1 0x40 DUP1 MLOAD PUSH4 0xC395FCB3 PUSH1 0xE0 SHL DUP2 MSTORE CALLER PUSH1 0x4 DUP3 ADD MSTORE SWAP1 MLOAD PUSH1 0x1 PUSH1 0x1 PUSH1 0xA0 SHL SUB SWAP1 SWAP3 AND SWAP2 PUSH4 0xC395FCB3 SWAP2 PUSH1 0x24 DUP1 DUP3 ADD SWAP3 PUSH1 0x20 SWAP3 SWAP1 SWAP2 SWAP1 DUP3 SWAP1 SUB ADD DUP2 DUP7 DUP1 EXTCODESIZE ISZERO DUP1 ISZERO PUSH2 0x7F0 JUMPI PUSH1 0x0 DUP1 REVERT JUMPDEST POP GAS STATICCALL ISZERO DUP1 ISZERO PUSH2 0x804 JUMPI RETURNDATASIZE PUSH1 0x0 DUP1 RETURNDATACOPY RETURNDATASIZE PUSH1 0x0 REVERT JUMPDEST POP POP POP POP PUSH1 0x40 MLOAD RETURNDATASIZE PUSH1 0x20 DUP2 LT ISZERO PUSH2 0x81A JUMPI PUSH1 0x0 DUP1 REVERT JUMPDEST POP MLOAD PUSH2 0x857 JUMPI PUSH1 0x40 MLOAD PUSH3 0x461BCD PUSH1 0xE5 SHL DUP2 MSTORE PUSH1 0x4 ADD DUP1 DUP1 PUSH1 0x20 ADD DUP3 DUP2 SUB DUP3 MSTORE PUSH1 0x35 DUP2 MSTORE PUSH1 0x20 ADD DUP1 PUSH2 0x99A PUSH1 0x35 SWAP2 CODECOPY PUSH1 0x40 ADD SWAP2 POP POP PUSH1 0x40 MLOAD DUP1 SWAP2 SUB SWAP1 REVERT JUMPDEST PUSH1 0x3 SLOAD PUSH1 0x40 DUP1 MLOAD PUSH1 0x1 PUSH1 0x1 PUSH1 0xA0 SHL SUB SWAP3 DUP4 AND DUP2 MSTORE SWAP2 DUP4 AND PUSH1 0x20 DUP4 ADD MSTORE DUP1 MLOAD PUSH32 0x52882FE9C8937A186EB2653E68B33629CF58F0C3E09B567F0D1DB958D3A6C3F0 SWAP3 DUP2 SWAP1 SUB SWAP1 SWAP2 ADD SWAP1 LOG1 PUSH1 0x3 DUP1 SLOAD PUSH1 0x1 PUSH1 0x1 PUSH1 0xA0 SHL SUB NOT AND PUSH1 0x1 PUSH1 0x1 PUSH1 0xA0 SHL SUB SWAP3 SWAP1 SWAP3 AND SWAP2 SWAP1 SWAP2 OR SWAP1 SSTORE JUMP JUMPDEST PUSH1 0x3 SLOAD PUSH1 0x1 PUSH1 0x1 PUSH1 0xA0 SHL SUB AND DUP2 JUMP JUMPDEST PUSH1 0x5 PUSH1 0x20 MSTORE PUSH1 0x0 SWAP1 DUP2 MSTORE PUSH1 0x40 SWAP1 KECCAK256 SLOAD PUSH1 0xFF AND DUP2 JUMP JUMPDEST PUSH1 0x0 DUP1 DUP3 PUSH1 0x60 SHL SWAP1 POP PUSH1 0x40 MLOAD PUSH20 0x3D602D80600A3D3981F3363D3D373D3D3D363D73 PUSH1 0x60 SHL DUP2 MSTORE DUP2 PUSH1 0x14 DUP3 ADD MSTORE PUSH15 0x5AF43D82803E903D91602B57FD5BF3 PUSH1 0x88 SHL PUSH1 0x28 DUP3 ADD MSTORE PUSH1 0x37 DUP2 PUSH1 0x0 CREATE SWAP5 SWAP4 POP POP POP POP JUMP INVALID 0x4D 0x49 MSTORE8 0x4F COINBASE PUSH4 0x63657373 CHAINID PUSH2 0x6374 PUSH16 0x72792E75706461746541636365737354 PUSH6 0x6D706C617465 GASPRICE KECCAK256 MSTORE8 PUSH6 0x6E646572206D PUSH22 0x73742062652061646D696E41636365737320636F6E74 PUSH19 0x6F6C2074656D706C61746520646F6573206E6F PUSH21 0x2065786973744D49534F416363657373466163746F PUSH19 0x792E7365744D696E696D756D4665653A205365 PUSH15 0x646572206D7573742062652061646D PUSH10 0x6EA26469706673582212 KECCAK256 ADDRESS PUSH24 0x282BDA74AD804C25C0049E7C3D7209B15A94B4C813FC485A 0xDE 0xA6 DUP11 PUSH22 0xB97464736F6C634300060C0033000000000000000000 ",
  "sha1": "ec4270a2ea743000673c95c44e224d414ef0935d",
  "source": "// SPDX-License-Identifier: GPL-3.0-only\npragma solidity 0.6.12;\n\nimport \"../Utils/CloneFactory.sol\";\nimport \"./MISOAccessControls.sol\";\n\n\ncontract MISOAccessFactory is CloneFactory {\n\n    /// @notice Responsible for access rights to the contract.\n    MISOAccessControls public accessControls;\n\n    /// @notice Address of the template for access controls.\n    address public accessControlTemplate;\n\n    /// @notice Whether initialized or not.\n    bool private initialised;\n\n    /// @notice Minimum fee number.\n    uint256 public minimumFee;\n\n    /// @notice Devs address.\n    address public devaddr;\n\n    /// @notice AccessControls created using the factory.\n    address[] public children;\n\n    /// @notice Tracks if a contract is made by the factory.\n    mapping(address => bool) public isChild;\n\n    /// @notice Event emitted when first initializing Miso AccessControl Factory.\n    event MisoInitAccessFactory(address sender);\n\n    /// @notice Event emitted when a access is created using template id.\n    event AccessControlCreated(address indexed owner,  address accessControls, address admin, address accessTemplate);\n\n    /// @notice Event emitted when a access template is added.\n    event AccessControlTemplateAdded(address oldAccessControl, address newAccessControl);\n\n    /// @notice Event emitted when a access template is removed.\n    event AccessControlTemplateRemoved(address access, uint256 templateId);\n\n    /// @notice Event emitted when a access template is removed.\n    event MinimumFeeUpdated(uint oldFee, uint newFee);\n\n    /// @notice Event emitted when a access template is removed.\n    event DevAddressUpdated(address oldDev, address newDev);\n\n\n    constructor() public {\n    }\n\n    /**\n     * @notice Single gateway to initialize the MISO AccessControl Factory with proper address and set minimum fee.\n     * @dev Can only be initialized once.\n     * @param _minimumFee Minimum fee number.\n     * @param _accessControls Address of the access controls.\n     */\n    function initMISOAccessFactory(uint256 _minimumFee, address _accessControls) external {\n        require(!initialised);\n        initialised = true;\n        minimumFee = _minimumFee;\n        accessControls = MISOAccessControls(_accessControls);\n        emit MisoInitAccessFactory(msg.sender);\n    }\n\n    /// @notice Get the total number of children in the factory.\n    function numberOfChildren() external view returns (uint256) {\n        return children.length;\n    }\n\n    /**\n     * @notice Creates access corresponding to template id.\n     * @dev Initializes access with parameters passed.\n     * @param _admin Address of admin access.\n     */\n    function deployAccessControl(address _admin) external payable returns (address access) {\n        require(msg.value >= minimumFee, \"Minimum fee needs to be paid.\");\n        require(accessControlTemplate != address(0), \"Access control template does not exist\");\n        access = createClone(accessControlTemplate);\n        isChild[address(access)] = true;\n        children.push(address(access));\n        MISOAccessControls(access).initAccessControls(_admin);\n        emit AccessControlCreated(msg.sender, address(access), _admin, accessControlTemplate);\n        if (msg.value > 0) {\n            payable(devaddr).transfer(msg.value);\n        }\n    }\n\n    /**\n     * @notice Function to add new contract templates for the factory.\n     * @dev Should have operator access.\n     * @param _template Template to create new access controls.\n     */\n    function updateAccessTemplate(address _template) external {\n        require(\n            accessControls.hasAdminRole(msg.sender),\n            \"MISOAccessFactory.updateAccessTemplate: Sender must be admin\"\n        );\n        require(_template != address(0));\n        emit AccessControlTemplateAdded(accessControlTemplate, _template);\n        accessControlTemplate = _template;\n    }\n\n    /**\n     * @notice Sets dev address.\n     * @dev Should have operator access.\n     * @param _devaddr Devs address.\n     */\n    function setDev(address _devaddr) external {\n        require(\n            accessControls.hasAdminRole(msg.sender),\n            \"MISOAccessFactory.setMinimumFee: Sender must be admin\"\n        );\n        emit DevAddressUpdated(devaddr, _devaddr);\n        devaddr = _devaddr;\n    }\n\n    /**\n     * @notice Sets minimum fee.\n     * @dev Should have operator access.\n     * @param _minimumFee Minimum fee number.\n     */\n    function setMinimumFee(uint256 _minimumFee) external {\n        require(\n            accessControls.hasAdminRole(msg.sender),\n            \"MISOAccessFactory.setMinimumFee: Sender must be admin\"\n        );\n        emit MinimumFeeUpdated(minimumFee, _minimumFee);\n        minimumFee = _minimumFee;\n    }\n}\n",
  "sourcePath": "contracts/Access/MISOAccessFactory.sol",
  "type": "contract"
}