{
  "abi": [
    {
      "inputs": [
        {
          "internalType": "address",
          "name": "_wethAddress",
          "type": "address"
        },
        {
          "internalType": "address",
          "name": "_uniqueAddressesHelperAddress",
          "type": "address"
        }
      ],
      "stateMutability": "nonpayable",
      "type": "constructor"
    },
    {
      "inputs": [],
      "name": "owner",
      "outputs": [
        {
          "internalType": "address",
          "name": "",
          "type": "address"
        }
      ],
      "stateMutability": "view",
      "type": "function"
    },
    {
      "inputs": [
        {
          "internalType": "address",
          "name": "factoryAddress",
          "type": "address"
        },
        {
          "internalType": "uint256",
          "name": "pageSize",
          "type": "uint256"
        },
        {
          "internalType": "uint256",
          "name": "offset",
          "type": "uint256"
        }
      ],
      "name": "pagesLength",
      "outputs": [
        {
          "internalType": "uint256",
          "name": "",
          "type": "uint256"
        }
      ],
      "stateMutability": "view",
      "type": "function"
    },
    {
      "inputs": [
        {
          "internalType": "address",
          "name": "factoryAddress",
          "type": "address"
        },
        {
          "internalType": "uint256",
          "name": "pageSize",
          "type": "uint256"
        }
      ],
      "name": "pagesLength",
      "outputs": [
        {
          "internalType": "uint256",
          "name": "",
          "type": "uint256"
        }
      ],
      "stateMutability": "view",
      "type": "function"
    },
    {
      "inputs": [
        {
          "internalType": "address",
          "name": "factoryAddress",
          "type": "address"
        }
      ],
      "name": "pairsAddresses",
      "outputs": [
        {
          "internalType": "address[]",
          "name": "",
          "type": "address[]"
        }
      ],
      "stateMutability": "view",
      "type": "function"
    },
    {
      "inputs": [
        {
          "internalType": "address",
          "name": "factoryAddress",
          "type": "address"
        },
        {
          "internalType": "uint256",
          "name": "pageSize",
          "type": "uint256"
        },
        {
          "internalType": "uint256",
          "name": "pageNbr",
          "type": "uint256"
        },
        {
          "internalType": "uint256",
          "name": "offset",
          "type": "uint256"
        }
      ],
      "name": "pairsAddresses",
      "outputs": [
        {
          "internalType": "address[]",
          "name": "",
          "type": "address[]"
        }
      ],
      "stateMutability": "view",
      "type": "function"
    },
    {
      "inputs": [
        {
          "internalType": "address",
          "name": "factoryAddress",
          "type": "address"
        },
        {
          "internalType": "uint256",
          "name": "pageSize",
          "type": "uint256"
        },
        {
          "internalType": "uint256",
          "name": "pageNbr",
          "type": "uint256"
        }
      ],
      "name": "pairsAddresses",
      "outputs": [
        {
          "internalType": "address[]",
          "name": "",
          "type": "address[]"
        }
      ],
      "stateMutability": "view",
      "type": "function"
    },
    {
      "inputs": [
        {
          "internalType": "address",
          "name": "factoryAddress",
          "type": "address"
        }
      ],
      "name": "pairsLength",
      "outputs": [
        {
          "internalType": "uint256",
          "name": "",
          "type": "uint256"
        }
      ],
      "stateMutability": "view",
      "type": "function"
    },
    {
      "inputs": [
        {
          "internalType": "address",
          "name": "factoryAddress",
          "type": "address"
        }
      ],
      "name": "tokensAddresses",
      "outputs": [
        {
          "internalType": "address[]",
          "name": "",
          "type": "address[]"
        }
      ],
      "stateMutability": "view",
      "type": "function"
    },
    {
      "inputs": [
        {
          "internalType": "address",
          "name": "factoryAddress",
          "type": "address"
        },
        {
          "internalType": "uint256",
          "name": "pageSize",
          "type": "uint256"
        },
        {
          "internalType": "uint256",
          "name": "pageNbr",
          "type": "uint256"
        },
        {
          "internalType": "uint256",
          "name": "offset",
          "type": "uint256"
        }
      ],
      "name": "tokensAddresses",
      "outputs": [
        {
          "internalType": "address[]",
          "name": "",
          "type": "address[]"
        }
      ],
      "stateMutability": "view",
      "type": "function"
    },
    {
      "inputs": [
        {
          "internalType": "address",
          "name": "factoryAddress",
          "type": "address"
        },
        {
          "internalType": "uint256",
          "name": "pageSize",
          "type": "uint256"
        },
        {
          "internalType": "uint256",
          "name": "pageNbr",
          "type": "uint256"
        }
      ],
      "name": "tokensAddresses",
      "outputs": [
        {
          "internalType": "address[]",
          "name": "",
          "type": "address[]"
        }
      ],
      "stateMutability": "view",
      "type": "function"
    },
    {
      "inputs": [],
      "name": "uniqueAddressesHelperAddress",
      "outputs": [
        {
          "internalType": "address",
          "name": "",
          "type": "address"
        }
      ],
      "stateMutability": "view",
      "type": "function"
    },
    {
      "inputs": [
        {
          "internalType": "bytes32",
          "name": "slot",
          "type": "bytes32"
        },
        {
          "internalType": "bytes32",
          "name": "value",
          "type": "bytes32"
        }
      ],
      "name": "updateSlot",
      "outputs": [],
      "stateMutability": "nonpayable",
      "type": "function"
    },
    {
      "inputs": [],
      "name": "wethAddress",
      "outputs": [
        {
          "internalType": "address",
          "name": "",
          "type": "address"
        }
      ],
      "stateMutability": "view",
      "type": "function"
    }
  ],
  "bytecode": "608060405234801561001057600080fd5b50604051610bb9380380610bb98339818101604052604081101561003357600080fd5b508051602090910151600280546001600160a01b039283166001600160a01b031991821617918290556003805482169284169290921790915560018054929093169116179055610b31806100886000396000f3fe608060405234801561001057600080fd5b50600436106100cf5760003560e01c80636b5de5721161008c57806391ea83e81161006657806391ea83e81461027e578063b3119993146102a3578063bb261c9a146102d5578063ecb74b8614610307576100cf565b80636b5de5721461021857806373dee485146102505780638da5cb5b14610276576100cf565b80631b9dd067146100d45780632a0d40f8146101185780633687bb4b1461018e57806346677af3146101b45780634f0e0ef3146101ec578063699fd8c314610210575b600080fd5b610106600480360360608110156100ea57600080fd5b506001600160a01b038135169060208101359060400135610333565b60408051918252519081900360200190f35b61013e6004803603602081101561012e57600080fd5b50356001600160a01b031661035c565b60408051602080825283518183015283519192839290830191858101910280838360005b8381101561017a578181015183820152602001610162565b505050509050019250505060405180910390f35b61013e600480360360208110156101a457600080fd5b50356001600160a01b031661037f565b61013e600480360360808110156101ca57600080fd5b506001600160a01b038135169060208101359060408101359060600135610397565b6101f46105d8565b604080516001600160a01b039092168252519081900360200190f35b6101f46105e7565b61013e6004803603608081101561022e57600080fd5b506001600160a01b0381351690602081013590604081013590606001356105f6565b6101066004803603602081101561026657600080fd5b50356001600160a01b0316610a20565b6101f4610a8d565b6102a16004803603604081101561029457600080fd5b5080359060200135610a9c565b005b61013e600480360360608110156102b957600080fd5b506001600160a01b038135169060208101359060400135610ab7565b61013e600480360360608110156102eb57600080fd5b506001600160a01b038135169060208101359060400135610ac6565b6101066004803603604081101561031d57600080fd5b506001600160a01b038135169060200135610ad5565b60008061033f85610a20565b90506000848483038161034e57fe5b046001019695505050505050565b6060600061036983610a20565b905061037883826000806105f6565b9392505050565b6060600061038c83610a20565b905061037883826000805b606060006103a486610a20565b9050838502830180860160001983018111156103c1575060001982015b60608367ffffffffffffffff811180156103da57600080fd5b50604051908082528060200260200182016040528015610404578160200160208202803683370190505b50905060005b82848201116104bb5760008a6001600160a01b0316631e3dd18b8684016040518263ffffffff1660e01b81526004018082815260200191505060206040518083038186803b15801561045b57600080fd5b505afa15801561046f573d6000803e3d6000fd5b505050506040513d602081101561048557600080fd5b50518351909150819084908490811061049a57fe5b6001600160a01b03909216602092830291909101909101525060010161040a565b6060826040516020018080602001828103825283818151815260200191508051906020019060200280838360005b838110156105015781810151838201526020016104e9565b5050505090500192505050604051602081830303815290604052905081604082015280806020019051602081101561053857600080fd5b810190808051604051939291908464010000000082111561055857600080fd5b90830190602082018581111561056d57600080fd5b825186602082028301116401000000008211171561058a57600080fd5b82525081516020918201928201910280838360005b838110156105b757818101518382015260200161059f565b5050505090500160405250505092508296505050505050505b949350505050565b6001546001600160a01b031681565b6002546001600160a01b031681565b60608061060586868686610397565b80519091506001600282020160608167ffffffffffffffff8111801561062a57600080fd5b50604051908082528060200260200182016040528015610654578160200160208202803683370190505b5090508261067757505060408051600081526020810190915292506105d0915050565b60015481516001600160a01b0390911690829060009061069357fe5b6001600160a01b0390921660209283029190910190910152600160005b848110156108435760008682815181106106c657fe5b6020026020010151905060008190506000816001600160a01b0316630dfe16816040518163ffffffff1660e01b815260040160206040518083038186803b15801561071057600080fd5b505afa158015610724573d6000803e3d6000fd5b505050506040513d602081101561073a57600080fd5b50516040805163d21220a760e01b815290519192506000916001600160a01b0385169163d21220a7916004808301926020929190829003018186803b15801561078257600080fd5b505afa158015610796573d6000803e3d6000fd5b505050506040513d60208110156107ac57600080fd5b50516001549091506001600160a01b038381169116146107f257818787815181106107d357fe5b6001600160a01b03909216602092830291909101909101526001909501945b6001546001600160a01b03828116911614610833578087878151811061081457fe5b6001600160a01b03909216602092830291909101909101526001909501945b5050600190920191506106b09050565b506060826040516020018080602001828103825283818151815260200191508051906020019060200280838360005b8381101561088a578181015183820152602001610872565b50505050905001925050506040516020818303038152906040529050816040820152600360009054906101000a90046001600160a01b03166001600160a01b031663d9f5ff418280602001905160208110156108e557600080fd5b810190808051604051939291908464010000000082111561090557600080fd5b90830190602082018581111561091a57600080fd5b825186602082028301116401000000008211171561093757600080fd5b82525081516020918201928201910280838360005b8381101561096457818101518382015260200161094c565b505050509050016040525050506040518263ffffffff1660e01b81526004018080602001828103825283818151815260200191508051906020019060200280838360005b838110156109c05781810151838201526020016109a8565b505050509050019250505060006040518083038186803b1580156109e357600080fd5b505afa1580156109f7573d6000803e3d6000fd5b505050506040513d6000823e601f3d908101601f19168201604052602081101561053857600080fd5b6000816001600160a01b031663574f2ba36040518163ffffffff1660e01b815260040160206040518083038186803b158015610a5b57600080fd5b505afa158015610a6f573d6000803e3d6000fd5b505050506040513d6020811015610a8557600080fd5b505192915050565b6000546001600160a01b031681565b6000546001600160a01b03163314610ab357600080fd5b9055565b60606105d08484846000610397565b60606105d084848460006105f6565b600080610ae184610a20565b90506000838281610aee57fe5b046001019594505050505056fea26469706673582212200e6f0512be6b38f59e879a1c923f6a12a2390fcc8a1d56d4365fe0a197315a8964736f6c634300060c0033",
  "bytecodeSha1": "60c9eeeecea40482c9b50a555156743916ec9d7d",
  "compiler": {
    "evm_version": "istanbul",
    "optimizer": {
      "enabled": true,
      "runs": 200
    },
    "version": "0.6.12+commit.27d51765"
  },
  "contractName": "PairsHelper",
  "language": "Solidity",
  "natspec": {
    "kind": "dev",
    "methods": {},
    "version": 1
  },
  "opcodes": "PUSH1 0x80 PUSH1 0x40 MSTORE CALLVALUE DUP1 ISZERO PUSH2 0x10 JUMPI PUSH1 0x0 DUP1 REVERT JUMPDEST POP PUSH1 0x4 CALLDATASIZE LT PUSH2 0xCF JUMPI PUSH1 0x0 CALLDATALOAD PUSH1 0xE0 SHR DUP1 PUSH4 0x6B5DE572 GT PUSH2 0x8C JUMPI DUP1 PUSH4 0x91EA83E8 GT PUSH2 0x66 JUMPI DUP1 PUSH4 0x91EA83E8 EQ PUSH2 0x27E JUMPI DUP1 PUSH4 0xB3119993 EQ PUSH2 0x2A3 JUMPI DUP1 PUSH4 0xBB261C9A EQ PUSH2 0x2D5 JUMPI DUP1 PUSH4 0xECB74B86 EQ PUSH2 0x307 JUMPI PUSH2 0xCF JUMP JUMPDEST DUP1 PUSH4 0x6B5DE572 EQ PUSH2 0x218 JUMPI DUP1 PUSH4 0x73DEE485 EQ PUSH2 0x250 JUMPI DUP1 PUSH4 0x8DA5CB5B EQ PUSH2 0x276 JUMPI PUSH2 0xCF JUMP JUMPDEST DUP1 PUSH4 0x1B9DD067 EQ PUSH2 0xD4 JUMPI DUP1 PUSH4 0x2A0D40F8 EQ PUSH2 0x118 JUMPI DUP1 PUSH4 0x3687BB4B EQ PUSH2 0x18E JUMPI DUP1 PUSH4 0x46677AF3 EQ PUSH2 0x1B4 JUMPI DUP1 PUSH4 0x4F0E0EF3 EQ PUSH2 0x1EC JUMPI DUP1 PUSH4 0x699FD8C3 EQ PUSH2 0x210 JUMPI JUMPDEST PUSH1 0x0 DUP1 REVERT JUMPDEST PUSH2 0x106 PUSH1 0x4 DUP1 CALLDATASIZE SUB PUSH1 0x60 DUP2 LT ISZERO PUSH2 0xEA JUMPI PUSH1 0x0 DUP1 REVERT JUMPDEST POP PUSH1 0x1 PUSH1 0x1 PUSH1 0xA0 SHL SUB DUP2 CALLDATALOAD AND SWAP1 PUSH1 0x20 DUP2 ADD CALLDATALOAD SWAP1 PUSH1 0x40 ADD CALLDATALOAD PUSH2 0x333 JUMP JUMPDEST PUSH1 0x40 DUP1 MLOAD SWAP2 DUP3 MSTORE MLOAD SWAP1 DUP2 SWAP1 SUB PUSH1 0x20 ADD SWAP1 RETURN JUMPDEST PUSH2 0x13E PUSH1 0x4 DUP1 CALLDATASIZE SUB PUSH1 0x20 DUP2 LT ISZERO PUSH2 0x12E JUMPI PUSH1 0x0 DUP1 REVERT JUMPDEST POP CALLDATALOAD PUSH1 0x1 PUSH1 0x1 PUSH1 0xA0 SHL SUB AND PUSH2 0x35C JUMP JUMPDEST PUSH1 0x40 DUP1 MLOAD PUSH1 0x20 DUP1 DUP3 MSTORE DUP4 MLOAD DUP2 DUP4 ADD MSTORE DUP4 MLOAD SWAP2 SWAP3 DUP4 SWAP3 SWAP1 DUP4 ADD SWAP2 DUP6 DUP2 ADD SWAP2 MUL DUP1 DUP4 DUP4 PUSH1 0x0 JUMPDEST DUP4 DUP2 LT ISZERO PUSH2 0x17A JUMPI DUP2 DUP2 ADD MLOAD DUP4 DUP3 ADD MSTORE PUSH1 0x20 ADD PUSH2 0x162 JUMP JUMPDEST POP POP POP POP SWAP1 POP ADD SWAP3 POP POP POP PUSH1 0x40 MLOAD DUP1 SWAP2 SUB SWAP1 RETURN JUMPDEST PUSH2 0x13E PUSH1 0x4 DUP1 CALLDATASIZE SUB PUSH1 0x20 DUP2 LT ISZERO PUSH2 0x1A4 JUMPI PUSH1 0x0 DUP1 REVERT JUMPDEST POP CALLDATALOAD PUSH1 0x1 PUSH1 0x1 PUSH1 0xA0 SHL SUB AND PUSH2 0x37F JUMP JUMPDEST PUSH2 0x13E PUSH1 0x4 DUP1 CALLDATASIZE SUB PUSH1 0x80 DUP2 LT ISZERO PUSH2 0x1CA JUMPI PUSH1 0x0 DUP1 REVERT JUMPDEST POP PUSH1 0x1 PUSH1 0x1 PUSH1 0xA0 SHL SUB DUP2 CALLDATALOAD AND SWAP1 PUSH1 0x20 DUP2 ADD CALLDATALOAD SWAP1 PUSH1 0x40 DUP2 ADD CALLDATALOAD SWAP1 PUSH1 0x60 ADD CALLDATALOAD PUSH2 0x397 JUMP JUMPDEST PUSH2 0x1F4 PUSH2 0x5D8 JUMP JUMPDEST PUSH1 0x40 DUP1 MLOAD PUSH1 0x1 PUSH1 0x1 PUSH1 0xA0 SHL SUB SWAP1 SWAP3 AND DUP3 MSTORE MLOAD SWAP1 DUP2 SWAP1 SUB PUSH1 0x20 ADD SWAP1 RETURN JUMPDEST PUSH2 0x1F4 PUSH2 0x5E7 JUMP JUMPDEST PUSH2 0x13E PUSH1 0x4 DUP1 CALLDATASIZE SUB PUSH1 0x80 DUP2 LT ISZERO PUSH2 0x22E JUMPI PUSH1 0x0 DUP1 REVERT JUMPDEST POP PUSH1 0x1 PUSH1 0x1 PUSH1 0xA0 SHL SUB DUP2 CALLDATALOAD AND SWAP1 PUSH1 0x20 DUP2 ADD CALLDATALOAD SWAP1 PUSH1 0x40 DUP2 ADD CALLDATALOAD SWAP1 PUSH1 0x60 ADD CALLDATALOAD PUSH2 0x5F6 JUMP JUMPDEST PUSH2 0x106 PUSH1 0x4 DUP1 CALLDATASIZE SUB PUSH1 0x20 DUP2 LT ISZERO PUSH2 0x266 JUMPI PUSH1 0x0 DUP1 REVERT JUMPDEST POP CALLDATALOAD PUSH1 0x1 PUSH1 0x1 PUSH1 0xA0 SHL SUB AND PUSH2 0xA20 JUMP JUMPDEST PUSH2 0x1F4 PUSH2 0xA8D JUMP JUMPDEST PUSH2 0x2A1 PUSH1 0x4 DUP1 CALLDATASIZE SUB PUSH1 0x40 DUP2 LT ISZERO PUSH2 0x294 JUMPI PUSH1 0x0 DUP1 REVERT JUMPDEST POP DUP1 CALLDATALOAD SWAP1 PUSH1 0x20 ADD CALLDATALOAD PUSH2 0xA9C JUMP JUMPDEST STOP JUMPDEST PUSH2 0x13E PUSH1 0x4 DUP1 CALLDATASIZE SUB PUSH1 0x60 DUP2 LT ISZERO PUSH2 0x2B9 JUMPI PUSH1 0x0 DUP1 REVERT JUMPDEST POP PUSH1 0x1 PUSH1 0x1 PUSH1 0xA0 SHL SUB DUP2 CALLDATALOAD AND SWAP1 PUSH1 0x20 DUP2 ADD CALLDATALOAD SWAP1 PUSH1 0x40 ADD CALLDATALOAD PUSH2 0xAB7 JUMP JUMPDEST PUSH2 0x13E PUSH1 0x4 DUP1 CALLDATASIZE SUB PUSH1 0x60 DUP2 LT ISZERO PUSH2 0x2EB JUMPI PUSH1 0x0 DUP1 REVERT JUMPDEST POP PUSH1 0x1 PUSH1 0x1 PUSH1 0xA0 SHL SUB DUP2 CALLDATALOAD AND SWAP1 PUSH1 0x20 DUP2 ADD CALLDATALOAD SWAP1 PUSH1 0x40 ADD CALLDATALOAD PUSH2 0xAC6 JUMP JUMPDEST PUSH2 0x106 PUSH1 0x4 DUP1 CALLDATASIZE SUB PUSH1 0x40 DUP2 LT ISZERO PUSH2 0x31D JUMPI PUSH1 0x0 DUP1 REVERT JUMPDEST POP PUSH1 0x1 PUSH1 0x1 PUSH1 0xA0 SHL SUB DUP2 CALLDATALOAD AND SWAP1 PUSH1 0x20 ADD CALLDATALOAD PUSH2 0xAD5 JUMP JUMPDEST PUSH1 0x0 DUP1 PUSH2 0x33F DUP6 PUSH2 0xA20 JUMP JUMPDEST SWAP1 POP PUSH1 0x0 DUP5 DUP5 DUP4 SUB DUP2 PUSH2 0x34E JUMPI INVALID JUMPDEST DIV PUSH1 0x1 ADD SWAP7 SWAP6 POP POP POP POP POP POP JUMP JUMPDEST PUSH1 0x60 PUSH1 0x0 PUSH2 0x369 DUP4 PUSH2 0xA20 JUMP JUMPDEST SWAP1 POP PUSH2 0x378 DUP4 DUP3 PUSH1 0x0 DUP1 PUSH2 0x5F6 JUMP JUMPDEST SWAP4 SWAP3 POP POP POP JUMP JUMPDEST PUSH1 0x60 PUSH1 0x0 PUSH2 0x38C DUP4 PUSH2 0xA20 JUMP JUMPDEST SWAP1 POP PUSH2 0x378 DUP4 DUP3 PUSH1 0x0 DUP1 JUMPDEST PUSH1 0x60 PUSH1 0x0 PUSH2 0x3A4 DUP7 PUSH2 0xA20 JUMP JUMPDEST SWAP1 POP DUP4 DUP6 MUL DUP4 ADD DUP1 DUP7 ADD PUSH1 0x0 NOT DUP4 ADD DUP2 GT ISZERO PUSH2 0x3C1 JUMPI POP PUSH1 0x0 NOT DUP3 ADD JUMPDEST PUSH1 0x60 DUP4 PUSH8 0xFFFFFFFFFFFFFFFF DUP2 GT DUP1 ISZERO PUSH2 0x3DA JUMPI PUSH1 0x0 DUP1 REVERT JUMPDEST POP PUSH1 0x40 MLOAD SWAP1 DUP1 DUP3 MSTORE DUP1 PUSH1 0x20 MUL PUSH1 0x20 ADD DUP3 ADD PUSH1 0x40 MSTORE DUP1 ISZERO PUSH2 0x404 JUMPI DUP2 PUSH1 0x20 ADD PUSH1 0x20 DUP3 MUL DUP1 CALLDATASIZE DUP4 CALLDATACOPY ADD SWAP1 POP JUMPDEST POP SWAP1 POP PUSH1 0x0 JUMPDEST DUP3 DUP5 DUP3 ADD GT PUSH2 0x4BB JUMPI PUSH1 0x0 DUP11 PUSH1 0x1 PUSH1 0x1 PUSH1 0xA0 SHL SUB AND PUSH4 0x1E3DD18B DUP7 DUP5 ADD PUSH1 0x40 MLOAD DUP3 PUSH4 0xFFFFFFFF AND PUSH1 0xE0 SHL DUP2 MSTORE PUSH1 0x4 ADD DUP1 DUP3 DUP2 MSTORE PUSH1 0x20 ADD SWAP2 POP POP PUSH1 0x20 PUSH1 0x40 MLOAD DUP1 DUP4 SUB DUP2 DUP7 DUP1 EXTCODESIZE ISZERO DUP1 ISZERO PUSH2 0x45B JUMPI PUSH1 0x0 DUP1 REVERT JUMPDEST POP GAS STATICCALL ISZERO DUP1 ISZERO PUSH2 0x46F JUMPI RETURNDATASIZE PUSH1 0x0 DUP1 RETURNDATACOPY RETURNDATASIZE PUSH1 0x0 REVERT JUMPDEST POP POP POP POP PUSH1 0x40 MLOAD RETURNDATASIZE PUSH1 0x20 DUP2 LT ISZERO PUSH2 0x485 JUMPI PUSH1 0x0 DUP1 REVERT JUMPDEST POP MLOAD DUP4 MLOAD SWAP1 SWAP2 POP DUP2 SWAP1 DUP5 SWAP1 DUP5 SWAP1 DUP2 LT PUSH2 0x49A JUMPI INVALID JUMPDEST PUSH1 0x1 PUSH1 0x1 PUSH1 0xA0 SHL SUB SWAP1 SWAP3 AND PUSH1 0x20 SWAP3 DUP4 MUL SWAP2 SWAP1 SWAP2 ADD SWAP1 SWAP2 ADD MSTORE POP PUSH1 0x1 ADD PUSH2 0x40A JUMP JUMPDEST PUSH1 0x60 DUP3 PUSH1 0x40 MLOAD PUSH1 0x20 ADD DUP1 DUP1 PUSH1 0x20 ADD DUP3 DUP2 SUB DUP3 MSTORE DUP4 DUP2 DUP2 MLOAD DUP2 MSTORE PUSH1 0x20 ADD SWAP2 POP DUP1 MLOAD SWAP1 PUSH1 0x20 ADD SWAP1 PUSH1 0x20 MUL DUP1 DUP4 DUP4 PUSH1 0x0 JUMPDEST DUP4 DUP2 LT ISZERO PUSH2 0x501 JUMPI DUP2 DUP2 ADD MLOAD DUP4 DUP3 ADD MSTORE PUSH1 0x20 ADD PUSH2 0x4E9 JUMP JUMPDEST POP POP POP POP SWAP1 POP ADD SWAP3 POP POP POP PUSH1 0x40 MLOAD PUSH1 0x20 DUP2 DUP4 SUB SUB DUP2 MSTORE SWAP1 PUSH1 0x40 MSTORE SWAP1 POP DUP2 PUSH1 0x40 DUP3 ADD MSTORE DUP1 DUP1 PUSH1 0x20 ADD SWAP1 MLOAD PUSH1 0x20 DUP2 LT ISZERO PUSH2 0x538 JUMPI PUSH1 0x0 DUP1 REVERT JUMPDEST DUP2 ADD SWAP1 DUP1 DUP1 MLOAD PUSH1 0x40 MLOAD SWAP4 SWAP3 SWAP2 SWAP1 DUP5 PUSH5 0x100000000 DUP3 GT ISZERO PUSH2 0x558 JUMPI PUSH1 0x0 DUP1 REVERT JUMPDEST SWAP1 DUP4 ADD SWAP1 PUSH1 0x20 DUP3 ADD DUP6 DUP2 GT ISZERO PUSH2 0x56D JUMPI PUSH1 0x0 DUP1 REVERT JUMPDEST DUP3 MLOAD DUP7 PUSH1 0x20 DUP3 MUL DUP4 ADD GT PUSH5 0x100000000 DUP3 GT OR ISZERO PUSH2 0x58A JUMPI PUSH1 0x0 DUP1 REVERT JUMPDEST DUP3 MSTORE POP DUP2 MLOAD PUSH1 0x20 SWAP2 DUP3 ADD SWAP3 DUP3 ADD SWAP2 MUL DUP1 DUP4 DUP4 PUSH1 0x0 JUMPDEST DUP4 DUP2 LT ISZERO PUSH2 0x5B7 JUMPI DUP2 DUP2 ADD MLOAD DUP4 DUP3 ADD MSTORE PUSH1 0x20 ADD PUSH2 0x59F JUMP JUMPDEST POP POP POP POP SWAP1 POP ADD PUSH1 0x40 MSTORE POP POP POP SWAP3 POP DUP3 SWAP7 POP POP POP POP POP POP POP JUMPDEST SWAP5 SWAP4 POP POP POP POP JUMP JUMPDEST PUSH1 0x1 SLOAD PUSH1 0x1 PUSH1 0x1 PUSH1 0xA0 SHL SUB AND DUP2 JUMP JUMPDEST PUSH1 0x2 SLOAD PUSH1 0x1 PUSH1 0x1 PUSH1 0xA0 SHL SUB AND DUP2 JUMP JUMPDEST PUSH1 0x60 DUP1 PUSH2 0x605 DUP7 DUP7 DUP7 DUP7 PUSH2 0x397 JUMP JUMPDEST DUP1 MLOAD SWAP1 SWAP2 POP PUSH1 0x1 PUSH1 0x2 DUP3 MUL ADD PUSH1 0x60 DUP2 PUSH8 0xFFFFFFFFFFFFFFFF DUP2 GT DUP1 ISZERO PUSH2 0x62A JUMPI PUSH1 0x0 DUP1 REVERT JUMPDEST POP PUSH1 0x40 MLOAD SWAP1 DUP1 DUP3 MSTORE DUP1 PUSH1 0x20 MUL PUSH1 0x20 ADD DUP3 ADD PUSH1 0x40 MSTORE DUP1 ISZERO PUSH2 0x654 JUMPI DUP2 PUSH1 0x20 ADD PUSH1 0x20 DUP3 MUL DUP1 CALLDATASIZE DUP4 CALLDATACOPY ADD SWAP1 POP JUMPDEST POP SWAP1 POP DUP3 PUSH2 0x677 JUMPI POP POP PUSH1 0x40 DUP1 MLOAD PUSH1 0x0 DUP2 MSTORE PUSH1 0x20 DUP2 ADD SWAP1 SWAP2 MSTORE SWAP3 POP PUSH2 0x5D0 SWAP2 POP POP JUMP JUMPDEST PUSH1 0x1 SLOAD DUP2 MLOAD PUSH1 0x1 PUSH1 0x1 PUSH1 0xA0 SHL SUB SWAP1 SWAP2 AND SWAP1 DUP3 SWAP1 PUSH1 0x0 SWAP1 PUSH2 0x693 JUMPI INVALID JUMPDEST PUSH1 0x1 PUSH1 0x1 PUSH1 0xA0 SHL SUB SWAP1 SWAP3 AND PUSH1 0x20 SWAP3 DUP4 MUL SWAP2 SWAP1 SWAP2 ADD SWAP1 SWAP2 ADD MSTORE PUSH1 0x1 PUSH1 0x0 JUMPDEST DUP5 DUP2 LT ISZERO PUSH2 0x843 JUMPI PUSH1 0x0 DUP7 DUP3 DUP2 MLOAD DUP2 LT PUSH2 0x6C6 JUMPI INVALID JUMPDEST PUSH1 0x20 MUL PUSH1 0x20 ADD ADD MLOAD SWAP1 POP PUSH1 0x0 DUP2 SWAP1 POP PUSH1 0x0 DUP2 PUSH1 0x1 PUSH1 0x1 PUSH1 0xA0 SHL SUB AND PUSH4 0xDFE1681 PUSH1 0x40 MLOAD DUP2 PUSH4 0xFFFFFFFF AND PUSH1 0xE0 SHL DUP2 MSTORE PUSH1 0x4 ADD PUSH1 0x20 PUSH1 0x40 MLOAD DUP1 DUP4 SUB DUP2 DUP7 DUP1 EXTCODESIZE ISZERO DUP1 ISZERO PUSH2 0x710 JUMPI PUSH1 0x0 DUP1 REVERT JUMPDEST POP GAS STATICCALL ISZERO DUP1 ISZERO PUSH2 0x724 JUMPI RETURNDATASIZE PUSH1 0x0 DUP1 RETURNDATACOPY RETURNDATASIZE PUSH1 0x0 REVERT JUMPDEST POP POP POP POP PUSH1 0x40 MLOAD RETURNDATASIZE PUSH1 0x20 DUP2 LT ISZERO PUSH2 0x73A JUMPI PUSH1 0x0 DUP1 REVERT JUMPDEST POP MLOAD PUSH1 0x40 DUP1 MLOAD PUSH4 0xD21220A7 PUSH1 0xE0 SHL DUP2 MSTORE SWAP1 MLOAD SWAP2 SWAP3 POP PUSH1 0x0 SWAP2 PUSH1 0x1 PUSH1 0x1 PUSH1 0xA0 SHL SUB DUP6 AND SWAP2 PUSH4 0xD21220A7 SWAP2 PUSH1 0x4 DUP1 DUP4 ADD SWAP3 PUSH1 0x20 SWAP3 SWAP2 SWAP1 DUP3 SWAP1 SUB ADD DUP2 DUP7 DUP1 EXTCODESIZE ISZERO DUP1 ISZERO PUSH2 0x782 JUMPI PUSH1 0x0 DUP1 REVERT JUMPDEST POP GAS STATICCALL ISZERO DUP1 ISZERO PUSH2 0x796 JUMPI RETURNDATASIZE PUSH1 0x0 DUP1 RETURNDATACOPY RETURNDATASIZE PUSH1 0x0 REVERT JUMPDEST POP POP POP POP PUSH1 0x40 MLOAD RETURNDATASIZE PUSH1 0x20 DUP2 LT ISZERO PUSH2 0x7AC JUMPI PUSH1 0x0 DUP1 REVERT JUMPDEST POP MLOAD PUSH1 0x1 SLOAD SWAP1 SWAP2 POP PUSH1 0x1 PUSH1 0x1 PUSH1 0xA0 SHL SUB DUP4 DUP2 AND SWAP2 AND EQ PUSH2 0x7F2 JUMPI DUP2 DUP8 DUP8 DUP2 MLOAD DUP2 LT PUSH2 0x7D3 JUMPI INVALID JUMPDEST PUSH1 0x1 PUSH1 0x1 PUSH1 0xA0 SHL SUB SWAP1 SWAP3 AND PUSH1 0x20 SWAP3 DUP4 MUL SWAP2 SWAP1 SWAP2 ADD SWAP1 SWAP2 ADD MSTORE PUSH1 0x1 SWAP1 SWAP6 ADD SWAP5 JUMPDEST PUSH1 0x1 SLOAD PUSH1 0x1 PUSH1 0x1 PUSH1 0xA0 SHL SUB DUP3 DUP2 AND SWAP2 AND EQ PUSH2 0x833 JUMPI DUP1 DUP8 DUP8 DUP2 MLOAD DUP2 LT PUSH2 0x814 JUMPI INVALID JUMPDEST PUSH1 0x1 PUSH1 0x1 PUSH1 0xA0 SHL SUB SWAP1 SWAP3 AND PUSH1 0x20 SWAP3 DUP4 MUL SWAP2 SWAP1 SWAP2 ADD SWAP1 SWAP2 ADD MSTORE PUSH1 0x1 SWAP1 SWAP6 ADD SWAP5 JUMPDEST POP POP PUSH1 0x1 SWAP1 SWAP3 ADD SWAP2 POP PUSH2 0x6B0 SWAP1 POP JUMP JUMPDEST POP PUSH1 0x60 DUP3 PUSH1 0x40 MLOAD PUSH1 0x20 ADD DUP1 DUP1 PUSH1 0x20 ADD DUP3 DUP2 SUB DUP3 MSTORE DUP4 DUP2 DUP2 MLOAD DUP2 MSTORE PUSH1 0x20 ADD SWAP2 POP DUP1 MLOAD SWAP1 PUSH1 0x20 ADD SWAP1 PUSH1 0x20 MUL DUP1 DUP4 DUP4 PUSH1 0x0 JUMPDEST DUP4 DUP2 LT ISZERO PUSH2 0x88A JUMPI DUP2 DUP2 ADD MLOAD DUP4 DUP3 ADD MSTORE PUSH1 0x20 ADD PUSH2 0x872 JUMP JUMPDEST POP POP POP POP SWAP1 POP ADD SWAP3 POP POP POP PUSH1 0x40 MLOAD PUSH1 0x20 DUP2 DUP4 SUB SUB DUP2 MSTORE SWAP1 PUSH1 0x40 MSTORE SWAP1 POP DUP2 PUSH1 0x40 DUP3 ADD MSTORE PUSH1 0x3 PUSH1 0x0 SWAP1 SLOAD SWAP1 PUSH2 0x100 EXP SWAP1 DIV PUSH1 0x1 PUSH1 0x1 PUSH1 0xA0 SHL SUB AND PUSH1 0x1 PUSH1 0x1 PUSH1 0xA0 SHL SUB AND PUSH4 0xD9F5FF41 DUP3 DUP1 PUSH1 0x20 ADD SWAP1 MLOAD PUSH1 0x20 DUP2 LT ISZERO PUSH2 0x8E5 JUMPI PUSH1 0x0 DUP1 REVERT JUMPDEST DUP2 ADD SWAP1 DUP1 DUP1 MLOAD PUSH1 0x40 MLOAD SWAP4 SWAP3 SWAP2 SWAP1 DUP5 PUSH5 0x100000000 DUP3 GT ISZERO PUSH2 0x905 JUMPI PUSH1 0x0 DUP1 REVERT JUMPDEST SWAP1 DUP4 ADD SWAP1 PUSH1 0x20 DUP3 ADD DUP6 DUP2 GT ISZERO PUSH2 0x91A JUMPI PUSH1 0x0 DUP1 REVERT JUMPDEST DUP3 MLOAD DUP7 PUSH1 0x20 DUP3 MUL DUP4 ADD GT PUSH5 0x100000000 DUP3 GT OR ISZERO PUSH2 0x937 JUMPI PUSH1 0x0 DUP1 REVERT JUMPDEST DUP3 MSTORE POP DUP2 MLOAD PUSH1 0x20 SWAP2 DUP3 ADD SWAP3 DUP3 ADD SWAP2 MUL DUP1 DUP4 DUP4 PUSH1 0x0 JUMPDEST DUP4 DUP2 LT ISZERO PUSH2 0x964 JUMPI DUP2 DUP2 ADD MLOAD DUP4 DUP3 ADD MSTORE PUSH1 0x20 ADD PUSH2 0x94C JUMP JUMPDEST POP POP POP POP SWAP1 POP ADD PUSH1 0x40 MSTORE POP POP POP PUSH1 0x40 MLOAD DUP3 PUSH4 0xFFFFFFFF AND PUSH1 0xE0 SHL DUP2 MSTORE PUSH1 0x4 ADD DUP1 DUP1 PUSH1 0x20 ADD DUP3 DUP2 SUB DUP3 MSTORE DUP4 DUP2 DUP2 MLOAD DUP2 MSTORE PUSH1 0x20 ADD SWAP2 POP DUP1 MLOAD SWAP1 PUSH1 0x20 ADD SWAP1 PUSH1 0x20 MUL DUP1 DUP4 DUP4 PUSH1 0x0 JUMPDEST DUP4 DUP2 LT ISZERO PUSH2 0x9C0 JUMPI DUP2 DUP2 ADD MLOAD DUP4 DUP3 ADD MSTORE PUSH1 0x20 ADD PUSH2 0x9A8 JUMP JUMPDEST POP POP POP POP SWAP1 POP ADD SWAP3 POP POP POP PUSH1 0x0 PUSH1 0x40 MLOAD DUP1 DUP4 SUB DUP2 DUP7 DUP1 EXTCODESIZE ISZERO DUP1 ISZERO PUSH2 0x9E3 JUMPI PUSH1 0x0 DUP1 REVERT JUMPDEST POP GAS STATICCALL ISZERO DUP1 ISZERO PUSH2 0x9F7 JUMPI RETURNDATASIZE PUSH1 0x0 DUP1 RETURNDATACOPY RETURNDATASIZE PUSH1 0x0 REVERT JUMPDEST POP POP POP POP PUSH1 0x40 MLOAD RETURNDATASIZE PUSH1 0x0 DUP3 RETURNDATACOPY PUSH1 0x1F RETURNDATASIZE SWAP1 DUP2 ADD PUSH1 0x1F NOT AND DUP3 ADD PUSH1 0x40 MSTORE PUSH1 0x20 DUP2 LT ISZERO PUSH2 0x538 JUMPI PUSH1 0x0 DUP1 REVERT JUMPDEST PUSH1 0x0 DUP2 PUSH1 0x1 PUSH1 0x1 PUSH1 0xA0 SHL SUB AND PUSH4 0x574F2BA3 PUSH1 0x40 MLOAD DUP2 PUSH4 0xFFFFFFFF AND PUSH1 0xE0 SHL DUP2 MSTORE PUSH1 0x4 ADD PUSH1 0x20 PUSH1 0x40 MLOAD DUP1 DUP4 SUB DUP2 DUP7 DUP1 EXTCODESIZE ISZERO DUP1 ISZERO PUSH2 0xA5B JUMPI PUSH1 0x0 DUP1 REVERT JUMPDEST POP GAS STATICCALL ISZERO DUP1 ISZERO PUSH2 0xA6F JUMPI RETURNDATASIZE PUSH1 0x0 DUP1 RETURNDATACOPY RETURNDATASIZE PUSH1 0x0 REVERT JUMPDEST POP POP POP POP PUSH1 0x40 MLOAD RETURNDATASIZE PUSH1 0x20 DUP2 LT ISZERO PUSH2 0xA85 JUMPI PUSH1 0x0 DUP1 REVERT JUMPDEST POP MLOAD SWAP3 SWAP2 POP POP JUMP JUMPDEST PUSH1 0x0 SLOAD PUSH1 0x1 PUSH1 0x1 PUSH1 0xA0 SHL SUB AND DUP2 JUMP JUMPDEST PUSH1 0x0 SLOAD PUSH1 0x1 PUSH1 0x1 PUSH1 0xA0 SHL SUB AND CALLER EQ PUSH2 0xAB3 JUMPI PUSH1 0x0 DUP1 REVERT JUMPDEST SWAP1 SSTORE JUMP JUMPDEST PUSH1 0x60 PUSH2 0x5D0 DUP5 DUP5 DUP5 PUSH1 0x0 PUSH2 0x397 JUMP JUMPDEST PUSH1 0x60 PUSH2 0x5D0 DUP5 DUP5 DUP5 PUSH1 0x0 PUSH2 0x5F6 JUMP JUMPDEST PUSH1 0x0 DUP1 PUSH2 0xAE1 DUP5 PUSH2 0xA20 JUMP JUMPDEST SWAP1 POP PUSH1 0x0 DUP4 DUP3 DUP2 PUSH2 0xAEE JUMPI INVALID JUMPDEST DIV PUSH1 0x1 ADD SWAP6 SWAP5 POP POP POP POP POP JUMP INVALID LOG2 PUSH5 0x6970667358 0x22 SLT KECCAK256 0xE PUSH16 0x512BE6B38F59E879A1C923F6A12A239 0xF 0xCC DUP11 SAR JUMP 0xD4 CALLDATASIZE 0x5F 0xE0 LOG1 SWAP8 BALANCE GAS DUP10 PUSH5 0x736F6C6343 STOP MOD 0xC STOP CALLER ",
  "sha1": "621e226d5764c16fa8563f787e5f14cb98c6ce42",
  "source": "// SPDX-License-Identifier: GPL-3.0-only\npragma solidity 0.6.12;\n\nimport \"../interfaces/IERC20.sol\";\n\n\ninterface IUniswapV2Factory {\n    function getPair(address tokenA, address tokenB)\n        external\n        view\n        returns (address pair);\n\n    function allPairs(uint256) external view returns (address pair);\n    function allPairsLength() external view returns (uint256);\n}\n\ninterface IUniswapV2Router {\n    function WETH() external pure returns (address);\n}\n\ninterface IUniswapV2Pair {\n    function token0() external view returns (address);\n    function token1() external view returns (address);\n}\n\ninterface IUniqueAddressesHelper {\n    function uniqueAddresses(address[] memory)\n        external\n        view\n        returns (address[] memory);\n}\n\ncontract PairsHelper {\n    address public owner;\n    address public wethAddress;\n    address public uniqueAddressesHelperAddress;\n    IUniqueAddressesHelper uniqueAddressesHelper;\n\n    constructor(address _wethAddress, address _uniqueAddressesHelperAddress) public {\n        uniqueAddressesHelperAddress = _uniqueAddressesHelperAddress;\n        uniqueAddressesHelper = IUniqueAddressesHelper(\n            uniqueAddressesHelperAddress\n        );\n        wethAddress = _wethAddress;\n    }\n\n    function pairsLength(address factoryAddress) public view returns (uint256) {\n        return IUniswapV2Factory(factoryAddress).allPairsLength();\n    }\n\n    function pagesLength(\n        address factoryAddress,\n        uint256 pageSize,\n        uint256 offset\n    ) public view returns (uint256) {\n        uint256 _pairsLength = pairsLength(factoryAddress);\n        uint256 _pagesLength = (_pairsLength - offset) / pageSize;\n        return _pagesLength + 1;\n    }\n\n    function pagesLength(address factoryAddress, uint256 pageSize)\n        public\n        view\n        returns (uint256)\n    {\n        uint256 _pairsLength = pairsLength(factoryAddress);\n        uint256 _pagesLength = _pairsLength / pageSize;\n        return _pagesLength + 1;\n    }\n\n    function pairsAddresses(\n        address factoryAddress,\n        uint256 pageSize,\n        uint256 pageNbr,\n        uint256 offset\n    ) public view returns (address[] memory) {\n        uint256 _pairsLength = pairsLength(factoryAddress);\n        uint256 startIdx = (pageNbr * pageSize) + offset;\n        uint256 endIdx = startIdx + pageSize;\n        if (endIdx > _pairsLength - 1) {\n            endIdx = _pairsLength - 1;\n        }\n        address[] memory _pairsAddresses = new address[](_pairsLength);\n        uint256 pairIdx;\n        for (; pairIdx + startIdx <= endIdx; pairIdx++) {\n            address pairAddress =\n                IUniswapV2Factory(factoryAddress).allPairs(pairIdx + startIdx);\n            _pairsAddresses[pairIdx] = pairAddress;\n        }\n        bytes memory pairsAddressesEncoded = abi.encode(_pairsAddresses);\n        assembly {\n            mstore(add(pairsAddressesEncoded, 0x40), pairIdx)\n        }\n        _pairsAddresses = abi.decode(pairsAddressesEncoded, (address[]));\n        return _pairsAddresses;\n    }\n\n    function tokensAddresses(\n        address factoryAddress,\n        uint256 pageSize,\n        uint256 pageNbr,\n        uint256 offset\n    ) public view returns (address[] memory) {\n        address[] memory _pairsAddresses =\n            pairsAddresses(factoryAddress, pageSize, pageNbr, offset);\n        uint256 _pairsLength = _pairsAddresses.length;\n        uint256 maxTokensLength = (_pairsLength * 2) + 1;\n        address[] memory _tokensAddresses = new address[](maxTokensLength);\n\n        if (_pairsLength == 0) {\n            return new address[](0);\n        }\n        _tokensAddresses[0] = wethAddress;\n        uint256 tokenIdx = 1;\n        for (uint256 pairIdx = 0; pairIdx < _pairsLength; pairIdx++) {\n            address pairAddress = _pairsAddresses[pairIdx];\n            IUniswapV2Pair pair = IUniswapV2Pair(pairAddress);\n            address token0Address = pair.token0();\n            address token1Address = pair.token1();\n            if (token0Address != wethAddress) {\n                _tokensAddresses[tokenIdx] = token0Address;\n                tokenIdx++;\n            }\n            if (token1Address != wethAddress) {\n                _tokensAddresses[tokenIdx] = token1Address;\n                tokenIdx++;\n            }\n        }\n        bytes memory tokensAddressesEncoded = abi.encode(_tokensAddresses);\n        assembly {\n            mstore(add(tokensAddressesEncoded, 0x40), tokenIdx)\n        }\n        _tokensAddresses = uniqueAddressesHelper.uniqueAddresses(\n            abi.decode(tokensAddressesEncoded, (address[]))\n        );\n        return _tokensAddresses;\n    }\n\n    function tokensAddresses(\n        address factoryAddress,\n        uint256 pageSize,\n        uint256 pageNbr\n    ) public view returns (address[] memory) {\n        return tokensAddresses(factoryAddress, pageSize, pageNbr, 0);\n    }\n\n    function tokensAddresses(address factoryAddress)\n        public\n        view\n        returns (address[] memory)\n    {\n        uint256 _pairsLength = pairsLength(factoryAddress);\n        return tokensAddresses(factoryAddress, _pairsLength, 0, 0);\n    }\n\n    function pairsAddresses(\n        address factoryAddress,\n        uint256 pageSize,\n        uint256 pageNbr\n    ) public view returns (address[] memory) {\n        return pairsAddresses(factoryAddress, pageSize, pageNbr, 0);\n    }\n\n    function pairsAddresses(address factoryAddress)\n        public\n        view\n        returns (address[] memory)\n    {\n        uint256 _pairsLength = pairsLength(factoryAddress);\n        return pairsAddresses(factoryAddress, _pairsLength, 0, 0);\n    }\n\n    function updateSlot(bytes32 slot, bytes32 value) external {\n        require(msg.sender == owner);\n        assembly {\n            sstore(slot, value)\n        }\n    }\n}",
  "sourcePath": "contracts/Helper/PairsHelper.sol",
  "type": "contract"
}