{
  "abi": [
    {
      "inputs": [],
      "stateMutability": "nonpayable",
      "type": "constructor"
    },
    {
      "inputs": [
        {
          "internalType": "address",
          "name": "_account",
          "type": "address"
        },
        {
          "internalType": "uint256",
          "name": "_amount",
          "type": "uint256"
        }
      ],
      "name": "hasPoints",
      "outputs": [
        {
          "internalType": "bool",
          "name": "",
          "type": "bool"
        }
      ],
      "stateMutability": "view",
      "type": "function"
    },
    {
      "inputs": [
        {
          "internalType": "contract IERC20",
          "name": "_token",
          "type": "address"
        }
      ],
      "name": "initPointList",
      "outputs": [],
      "stateMutability": "nonpayable",
      "type": "function"
    },
    {
      "inputs": [
        {
          "internalType": "address",
          "name": "_account",
          "type": "address"
        }
      ],
      "name": "isInList",
      "outputs": [
        {
          "internalType": "bool",
          "name": "",
          "type": "bool"
        }
      ],
      "stateMutability": "view",
      "type": "function"
    },
    {
      "inputs": [],
      "name": "token",
      "outputs": [
        {
          "internalType": "contract IERC20",
          "name": "",
          "type": "address"
        }
      ],
      "stateMutability": "view",
      "type": "function"
    }
  ],
  "bytecode": "608060405234801561001057600080fd5b506102d7806100206000396000f3fe608060405234801561001057600080fd5b506004361061004c5760003560e01c80631cd53d5514610051578063283ba19b14610091578063fa33bcf3146100b9578063fc0c546a146100df575b600080fd5b61007d6004803603604081101561006757600080fd5b506001600160a01b038135169060200135610103565b604080519115158252519081900360200190f35b6100b7600480360360208110156100a757600080fd5b50356001600160a01b0316610189565b005b61007d600480360360208110156100cf57600080fd5b50356001600160a01b031661020e565b6100e7610292565b604080516001600160a01b039092168252519081900360200190f35b60008054604080516370a0823160e01b81526001600160a01b0386811660048301529151859392909216916370a0823191602480820192602092909190829003018186803b15801561015457600080fd5b505afa158015610168573d6000803e3d6000fd5b505050506040513d602081101561017e57600080fd5b505110159392505050565b600054600160a01b900460ff16156101de576040805162461bcd60e51b8152602060048201526013602482015272105b1c9958591e481a5b9a5d1a585b1a5cd959606a1b604482015290519081900360640190fd5b6000805460ff60a01b196001600160a01b039093166001600160a01b03199091161791909116600160a01b179055565b60008054604080516370a0823160e01b81526001600160a01b0385811660048301529151849392909216916370a0823191602480820192602092909190829003018186803b15801561025f57600080fd5b505afa158015610273573d6000803e3d6000fd5b505050506040513d602081101561028957600080fd5b50511192915050565b6000546001600160a01b03168156fea2646970667358221220d0b06497bbf77e8634ec6ab4b3d32dd5fc9eaa65ed60e5cee58ef5600d8bf86b64736f6c634300060c0033",
  "bytecodeSha1": "4a67f82c58d7ff6f6d1ac4d060633e66f3c9df9b",
  "compiler": {
    "evm_version": "istanbul",
    "optimizer": {
      "enabled": true,
      "runs": 200
    },
    "version": "0.6.12+commit.27d51765"
  },
  "contractName": "TokenList",
  "language": "Solidity",
  "natspec": {
    "kind": "dev",
    "methods": {
      "hasPoints(address,uint256)": {
        "notice": "Checks if account has more or equal points (tokens) as the number given.",
        "params": {
          "_account": "Account address.",
          "_amount": "Desired amount of points."
        },
        "returns": {
          "_0": "bool True or False."
        }
      },
      "initPointList(address)": {
        "notice": "Initializes token point list with reference token.",
        "params": {
          "_token": "Token address."
        }
      },
      "isInList(address)": {
        "notice": "Checks if account address is in the list (has any tokens).",
        "params": {
          "_account": "Account address."
        },
        "returns": {
          "_0": "bool True or False."
        }
      },
      "token()": {
        "notice": "Token contract for point list reference - can be ERC20, ERC721 or other tokens with `balanceOf()` check."
      }
    },
    "notice": "TokenPointList - MISO Point List that references a given `token` balance to return approvals.",
    "version": 1
  },
  "opcodes": "PUSH1 0x80 PUSH1 0x40 MSTORE CALLVALUE DUP1 ISZERO PUSH2 0x10 JUMPI PUSH1 0x0 DUP1 REVERT JUMPDEST POP PUSH1 0x4 CALLDATASIZE LT PUSH2 0x4C JUMPI PUSH1 0x0 CALLDATALOAD PUSH1 0xE0 SHR DUP1 PUSH4 0x1CD53D55 EQ PUSH2 0x51 JUMPI DUP1 PUSH4 0x283BA19B EQ PUSH2 0x91 JUMPI DUP1 PUSH4 0xFA33BCF3 EQ PUSH2 0xB9 JUMPI DUP1 PUSH4 0xFC0C546A EQ PUSH2 0xDF JUMPI JUMPDEST PUSH1 0x0 DUP1 REVERT JUMPDEST PUSH2 0x7D PUSH1 0x4 DUP1 CALLDATASIZE SUB PUSH1 0x40 DUP2 LT ISZERO PUSH2 0x67 JUMPI PUSH1 0x0 DUP1 REVERT JUMPDEST POP PUSH1 0x1 PUSH1 0x1 PUSH1 0xA0 SHL SUB DUP2 CALLDATALOAD AND SWAP1 PUSH1 0x20 ADD CALLDATALOAD PUSH2 0x103 JUMP JUMPDEST PUSH1 0x40 DUP1 MLOAD SWAP2 ISZERO ISZERO DUP3 MSTORE MLOAD SWAP1 DUP2 SWAP1 SUB PUSH1 0x20 ADD SWAP1 RETURN JUMPDEST PUSH2 0xB7 PUSH1 0x4 DUP1 CALLDATASIZE SUB PUSH1 0x20 DUP2 LT ISZERO PUSH2 0xA7 JUMPI PUSH1 0x0 DUP1 REVERT JUMPDEST POP CALLDATALOAD PUSH1 0x1 PUSH1 0x1 PUSH1 0xA0 SHL SUB AND PUSH2 0x189 JUMP JUMPDEST STOP JUMPDEST PUSH2 0x7D PUSH1 0x4 DUP1 CALLDATASIZE SUB PUSH1 0x20 DUP2 LT ISZERO PUSH2 0xCF JUMPI PUSH1 0x0 DUP1 REVERT JUMPDEST POP CALLDATALOAD PUSH1 0x1 PUSH1 0x1 PUSH1 0xA0 SHL SUB AND PUSH2 0x20E JUMP JUMPDEST PUSH2 0xE7 PUSH2 0x292 JUMP JUMPDEST PUSH1 0x40 DUP1 MLOAD PUSH1 0x1 PUSH1 0x1 PUSH1 0xA0 SHL SUB SWAP1 SWAP3 AND DUP3 MSTORE MLOAD SWAP1 DUP2 SWAP1 SUB PUSH1 0x20 ADD SWAP1 RETURN JUMPDEST PUSH1 0x0 DUP1 SLOAD PUSH1 0x40 DUP1 MLOAD PUSH4 0x70A08231 PUSH1 0xE0 SHL DUP2 MSTORE PUSH1 0x1 PUSH1 0x1 PUSH1 0xA0 SHL SUB DUP7 DUP2 AND PUSH1 0x4 DUP4 ADD MSTORE SWAP2 MLOAD DUP6 SWAP4 SWAP3 SWAP1 SWAP3 AND SWAP2 PUSH4 0x70A08231 SWAP2 PUSH1 0x24 DUP1 DUP3 ADD SWAP3 PUSH1 0x20 SWAP3 SWAP1 SWAP2 SWAP1 DUP3 SWAP1 SUB ADD DUP2 DUP7 DUP1 EXTCODESIZE ISZERO DUP1 ISZERO PUSH2 0x154 JUMPI PUSH1 0x0 DUP1 REVERT JUMPDEST POP GAS STATICCALL ISZERO DUP1 ISZERO PUSH2 0x168 JUMPI RETURNDATASIZE PUSH1 0x0 DUP1 RETURNDATACOPY RETURNDATASIZE PUSH1 0x0 REVERT JUMPDEST POP POP POP POP PUSH1 0x40 MLOAD RETURNDATASIZE PUSH1 0x20 DUP2 LT ISZERO PUSH2 0x17E JUMPI PUSH1 0x0 DUP1 REVERT JUMPDEST POP MLOAD LT ISZERO SWAP4 SWAP3 POP POP POP JUMP JUMPDEST PUSH1 0x0 SLOAD PUSH1 0x1 PUSH1 0xA0 SHL SWAP1 DIV PUSH1 0xFF AND ISZERO PUSH2 0x1DE JUMPI PUSH1 0x40 DUP1 MLOAD PUSH3 0x461BCD PUSH1 0xE5 SHL DUP2 MSTORE PUSH1 0x20 PUSH1 0x4 DUP3 ADD MSTORE PUSH1 0x13 PUSH1 0x24 DUP3 ADD MSTORE PUSH19 0x105B1C9958591E481A5B9A5D1A585B1A5CD959 PUSH1 0x6A SHL PUSH1 0x44 DUP3 ADD MSTORE SWAP1 MLOAD SWAP1 DUP2 SWAP1 SUB PUSH1 0x64 ADD SWAP1 REVERT JUMPDEST PUSH1 0x0 DUP1 SLOAD PUSH1 0xFF PUSH1 0xA0 SHL NOT PUSH1 0x1 PUSH1 0x1 PUSH1 0xA0 SHL SUB SWAP1 SWAP4 AND PUSH1 0x1 PUSH1 0x1 PUSH1 0xA0 SHL SUB NOT SWAP1 SWAP2 AND OR SWAP2 SWAP1 SWAP2 AND PUSH1 0x1 PUSH1 0xA0 SHL OR SWAP1 SSTORE JUMP JUMPDEST PUSH1 0x0 DUP1 SLOAD PUSH1 0x40 DUP1 MLOAD PUSH4 0x70A08231 PUSH1 0xE0 SHL DUP2 MSTORE PUSH1 0x1 PUSH1 0x1 PUSH1 0xA0 SHL SUB DUP6 DUP2 AND PUSH1 0x4 DUP4 ADD MSTORE SWAP2 MLOAD DUP5 SWAP4 SWAP3 SWAP1 SWAP3 AND SWAP2 PUSH4 0x70A08231 SWAP2 PUSH1 0x24 DUP1 DUP3 ADD SWAP3 PUSH1 0x20 SWAP3 SWAP1 SWAP2 SWAP1 DUP3 SWAP1 SUB ADD DUP2 DUP7 DUP1 EXTCODESIZE ISZERO DUP1 ISZERO PUSH2 0x25F JUMPI PUSH1 0x0 DUP1 REVERT JUMPDEST POP GAS STATICCALL ISZERO DUP1 ISZERO PUSH2 0x273 JUMPI RETURNDATASIZE PUSH1 0x0 DUP1 RETURNDATACOPY RETURNDATASIZE PUSH1 0x0 REVERT JUMPDEST POP POP POP POP PUSH1 0x40 MLOAD RETURNDATASIZE PUSH1 0x20 DUP2 LT ISZERO PUSH2 0x289 JUMPI PUSH1 0x0 DUP1 REVERT JUMPDEST POP MLOAD GT SWAP3 SWAP2 POP POP JUMP JUMPDEST PUSH1 0x0 SLOAD PUSH1 0x1 PUSH1 0x1 PUSH1 0xA0 SHL SUB AND DUP2 JUMP INVALID LOG2 PUSH5 0x6970667358 0x22 SLT KECCAK256 0xD0 0xB0 PUSH5 0x97BBF77E86 CALLVALUE 0xEC PUSH11 0xB4B3D32DD5FC9EAA65ED60 0xE5 0xCE 0xE5 DUP15 CREATE2 PUSH1 0xD DUP12 0xF8 PUSH12 0x64736F6C634300060C003300 ",
  "sha1": "5c68be1849232bdbaeab7bfb64a9404fd532601a",
  "source": "// SPDX-License-Identifier: GPL-3.0-only\npragma solidity 0.6.12;\n\nimport \"../interfaces/IPointList.sol\";\nimport \"../interfaces/IERC20.sol\";\n\n/**\n * @notice TokenPointList - MISO Point List that references a given `token` balance to return approvals.\n */\ncontract TokenList {\n    /// @notice Token contract for point list reference - can be ERC20, ERC721 or other tokens with `balanceOf()` check.\n    IERC20 public token;\n    \n    /// @notice Whether initialised or not.\n    bool private initialised;\n\n    constructor() public {\n    }\n\n    /**\n     * @notice Initializes token point list with reference token.\n     * @param _token Token address.\n     */\n    function initPointList(IERC20 _token) public {\n        require(!initialised, \"Already initialised\");\n        token = _token;\n        initialised = true;\n    }\n\n    /**\n     * @notice Checks if account address is in the list (has any tokens).\n     * @param _account Account address.\n     * @return bool True or False.\n     */\n    function isInList(address _account) public view returns (bool) {\n        return token.balanceOf(_account) > 0;\n    }\n\n    /**\n     * @notice Checks if account has more or equal points (tokens) as the number given.\n     * @param _account Account address.\n     * @param _amount Desired amount of points.\n     * @return bool True or False.\n     */\n    function hasPoints(address _account, uint256 _amount) public view returns (bool) {\n        return token.balanceOf(_account) >= _amount;\n    }\n}\n",
  "sourcePath": "contracts/Access/TokenList.sol",
  "type": "contract"
}