{
  "abi": [
    {
      "anonymous": false,
      "inputs": [
        {
          "indexed": false,
          "internalType": "address",
          "name": "tokenAddress",
          "type": "address"
        },
        {
          "indexed": false,
          "internalType": "address",
          "name": "user",
          "type": "address"
        },
        {
          "indexed": false,
          "internalType": "uint256",
          "name": "amount",
          "type": "uint256"
        }
      ],
      "name": "onLock",
      "type": "event"
    },
    {
      "anonymous": false,
      "inputs": [
        {
          "indexed": false,
          "internalType": "address",
          "name": "tokenAddress",
          "type": "address"
        },
        {
          "indexed": false,
          "internalType": "uint256",
          "name": "amount",
          "type": "uint256"
        }
      ],
      "name": "onUnlock",
      "type": "event"
    },
    {
      "inputs": [
        {
          "internalType": "uint256",
          "name": "",
          "type": "uint256"
        }
      ],
      "name": "allDepositIds",
      "outputs": [
        {
          "internalType": "uint256",
          "name": "",
          "type": "uint256"
        }
      ],
      "stateMutability": "view",
      "type": "function"
    },
    {
      "inputs": [],
      "name": "depositId",
      "outputs": [
        {
          "internalType": "uint256",
          "name": "",
          "type": "uint256"
        }
      ],
      "stateMutability": "view",
      "type": "function"
    },
    {
      "inputs": [
        {
          "internalType": "uint256",
          "name": "_index",
          "type": "uint256"
        },
        {
          "internalType": "address",
          "name": "_tokenAddress",
          "type": "address"
        },
        {
          "internalType": "address",
          "name": "_user",
          "type": "address"
        }
      ],
      "name": "getItemAtUserIndex",
      "outputs": [
        {
          "internalType": "uint256",
          "name": "",
          "type": "uint256"
        },
        {
          "internalType": "uint256",
          "name": "",
          "type": "uint256"
        },
        {
          "internalType": "address",
          "name": "",
          "type": "address"
        },
        {
          "internalType": "uint256",
          "name": "",
          "type": "uint256"
        }
      ],
      "stateMutability": "view",
      "type": "function"
    },
    {
      "inputs": [
        {
          "internalType": "uint256",
          "name": "_id",
          "type": "uint256"
        }
      ],
      "name": "getLockedItemAtId",
      "outputs": [
        {
          "internalType": "uint256",
          "name": "",
          "type": "uint256"
        },
        {
          "internalType": "uint256",
          "name": "",
          "type": "uint256"
        },
        {
          "internalType": "address",
          "name": "",
          "type": "address"
        },
        {
          "internalType": "uint256",
          "name": "",
          "type": "uint256"
        }
      ],
      "stateMutability": "view",
      "type": "function"
    },
    {
      "inputs": [
        {
          "internalType": "address",
          "name": "_user",
          "type": "address"
        },
        {
          "internalType": "uint256",
          "name": "_index",
          "type": "uint256"
        }
      ],
      "name": "getUserLockedItemAtIndex",
      "outputs": [
        {
          "internalType": "address",
          "name": "",
          "type": "address"
        }
      ],
      "stateMutability": "view",
      "type": "function"
    },
    {
      "inputs": [
        {
          "internalType": "address",
          "name": "_tokenAddress",
          "type": "address"
        },
        {
          "internalType": "uint256",
          "name": "_amount",
          "type": "uint256"
        },
        {
          "internalType": "uint256",
          "name": "_unlockTime",
          "type": "uint256"
        },
        {
          "internalType": "address payable",
          "name": "_withdrawer",
          "type": "address"
        }
      ],
      "name": "lockTokens",
      "outputs": [
        {
          "internalType": "uint256",
          "name": "_id",
          "type": "uint256"
        }
      ],
      "stateMutability": "nonpayable",
      "type": "function"
    },
    {
      "inputs": [
        {
          "internalType": "uint256",
          "name": "",
          "type": "uint256"
        }
      ],
      "name": "lockedItem",
      "outputs": [
        {
          "internalType": "uint256",
          "name": "amount",
          "type": "uint256"
        },
        {
          "internalType": "uint256",
          "name": "unlockTime",
          "type": "uint256"
        },
        {
          "internalType": "address",
          "name": "owner",
          "type": "address"
        },
        {
          "internalType": "uint256",
          "name": "userIndex",
          "type": "uint256"
        }
      ],
      "stateMutability": "view",
      "type": "function"
    },
    {
      "inputs": [
        {
          "internalType": "address",
          "name": "_tokenAddress",
          "type": "address"
        },
        {
          "internalType": "uint256",
          "name": "_index",
          "type": "uint256"
        },
        {
          "internalType": "uint256",
          "name": "_id",
          "type": "uint256"
        },
        {
          "internalType": "uint256",
          "name": "_amount",
          "type": "uint256"
        }
      ],
      "name": "withdrawTokens",
      "outputs": [],
      "stateMutability": "nonpayable",
      "type": "function"
    }
  ],
  "bytecode": "608060405234801561001057600080fd5b50610ab7806100206000396000f3fe608060405234801561001057600080fd5b50600436106100885760003560e01c8063402dc2661161005b578063402dc2661461017b57806392f00d26146101c35780639852099c146101f7578063c9028aff146101ff57610088565b80630613aea81461008d5780630aa393f3146100d8578063211c7fcd1461012457806322e35e011461015e575b600080fd5b6100aa600480360360208110156100a357600080fd5b503561021c565b6040805194855260208501939093526001600160a01b03909116838301526060830152519081900360800190f35b610112600480360360808110156100ee57600080fd5b506001600160a01b038135811691602081013591604082013591606001351661024e565b60408051918252519081900360200190f35b61015c6004803603608081101561013a57600080fd5b506001600160a01b038135169060208101359060408101359060600135610419565b005b6100aa6004803603602081101561017457600080fd5b503561063b565b6101a76004803603604081101561019157600080fd5b506001600160a01b03813516906020013561066d565b604080516001600160a01b039092168252519081900360200190f35b6100aa600480360360608110156101d957600080fd5b508035906001600160a01b036020820135811691604001351661069c565b610112610719565b6101126004803603602081101561021557600080fd5b503561071f565b600360208190526000918252604090912080546001820154600283015492909301549092916001600160a01b03169084565b600080841161029b576040805162461bcd60e51b8152602060048201526014602482015273746f6b656e20616d6f756e74206973205a65726f60601b604482015290519081900360640190fd5b6402540be40083106102de5760405162461bcd60e51b8152600401808060200182810382526033815260200180610a4f6033913960400191505060405180910390fd5b6001600160a01b0382166102f157600080fd5b6102fc85338661073d565b506001805481018082556000818152600360209081526040808320888155808601889055600290810180546001600160a01b0319166001600160a01b03891690811790915581548088019092557f405787fa12a823e0f2b7631cc41b3ba8828b3321ca811111fa75cd3aa3bb5ace9091018590558352908290529020909161038690820187610865565b506001600160a01b03861660008181526020838152604080832080546001810182558185528385200187905554868452600380845293829020600019919091019381018490555481519485523392850192909252838101919091525190917fe0896ee63a02ae59823954043dfd52f907878dd98d69cb0f77a9b5c4f48efdaf919081900360600190a15050949350505050565b60008111610465576040805162461bcd60e51b8152602060048201526014602482015273746f6b656e20616d6f756e74206973205a65726f60601b604482015290519081900360640190fd5b336000908152602081815260408083206001600160a01b0388168452909152812080548590811061049257fe5b60009182526020808320909101548083526003909152604090912090915083821480156104cb575060028101546001600160a01b031633145b61050c576040805162461bcd60e51b815260206004820152600d60248201526c0989e8696409a92a69a82a8869609b1b604482015290519081900360640190fd5b42816001015410610557576040805162461bcd60e51b815260206004820152601060248201526f139bdd081d5b9b1bd8dad959081e595d60821b604482015290519081900360640190fd5b80546105639084610881565b8082556105e457336000908152602081815260408083206001600160a01b038a168452909152902080548190600019810190811061059d57fe5b90600052602060002001548187815481106105b457fe5b9060005260206000200181905550808054806105cc57fe5b60019003818190600052602060002001600090559055505b6105ef8633856108de565b604080516001600160a01b03881681526020810185905281517f75140be428252b59ceb5a81ae184b42fe610b766a7d42b7c7c5e16698b1d0841929181900390910190a1505050505050565b6000908152600360208190526040909120805460018201546002830154929093015490936001600160a01b0390921691565b6001600160a01b0382166000908152602081905260408120610692600182018461095a565b9150505b92915050565b6001600160a01b03808216600090815260208181526040808320938616835292905290812080548291829182918291899081106106d557fe5b6000918252602080832091909101548083526003909152604090912080546001820154600290920154909b919a506001600160a01b03169850909650945050505050565b60015481565b6002818154811061072c57fe5b600091825260209091200154905081565b604080516001600160a01b038481166024830152306044830152606480830185905283518084039091018152608490920183526020820180516001600160e01b03166323b872dd60e01b178152925182516000946060949389169392918291908083835b602083106107c05780518252601f1990920191602091820191016107a1565b6001836020036101000a0380198251168184511680821785525050505050509050019150506000604051808303816000865af19150503d8060008114610822576040519150601f19603f3d011682016040523d82523d6000602084013e610827565b606091505b5091509150818015610855575080511580610855575080806020019051602081101561085257600080fd5b50515b61085e57600080fd5b5050505050565b600061087a836001600160a01b038416610966565b9392505050565b6000828211156108d8576040805162461bcd60e51b815260206004820152601e60248201527f536166654d6174683a207375627472616374696f6e206f766572666c6f770000604482015290519081900360640190fd5b50900390565b604080516001600160a01b038481166024830152604480830185905283518084039091018152606490920183526020820180516001600160e01b031663a9059cbb60e01b17815292518251600094606094938916939291829190808383602083106107c05780518252601f1990920191602091820191016107a1565b600061087a83836109b0565b60006109728383610a14565b6109a857508154600181810184556000848152602080822090930184905584548482528286019093526040902091909155610696565b506000610696565b815460009082106109f25760405162461bcd60e51b8152600401808060200182810382526022815260200180610a2d6022913960400191505060405180910390fd5b826000018281548110610a0157fe5b9060005260206000200154905092915050565b6000908152600191909101602052604090205415159056fe456e756d657261626c655365743a20696e646578206f7574206f6620626f756e6473456e74657220616e20756e69782074696d657374616d7020696e207365636f6e64732c206e6f74206d696c697365636f6e6473a2646970667358221220d13d3525b34bdb957637b58918cad383bf597915d1bd1f240e9ad8f28a51061f64736f6c634300060c0033",
  "bytecodeSha1": "7dbe72d61c53876305740cc08429de77fd2b0d2d",
  "compiler": {
    "evm_version": "istanbul",
    "optimizer": {
      "enabled": true,
      "runs": 200
    },
    "version": "0.6.12+commit.27d51765"
  },
  "contractName": "TokenVault",
  "language": "Solidity",
  "natspec": {
    "kind": "dev",
    "methods": {
      "allDepositIds(uint256)": {
        "notice": "An array of all the deposit Ids."
      },
      "depositId()": {
        "notice": "Id number of the vault deposit."
      },
      "getItemAtUserIndex(uint256,address,address)": {
        "notice": "Function to retrieve data from the Item under user index number.",
        "params": {
          "_index": "Index number of the list with Item ids.",
          "_tokenAddress": "Address of the token corresponding to this Item.",
          "_user": "User address."
        },
        "returns": {
          "_0": "Items token amount number, Items unlock timestamp, Items owner address, Items Id number"
        }
      },
      "getLockedItemAtId(uint256)": {
        "notice": "Function to retrieve all the data from Item struct under given Id.",
        "params": {
          "_id": "Id number."
        },
        "returns": {
          "_0": "All the data for this Id (token amount number, unlock time number, owner address and user index number)"
        }
      },
      "getUserLockedItemAtIndex(address,uint256)": {
        "notice": "Function to retrieve token address at desired index for the specified user.",
        "params": {
          "_index": "Index number.",
          "_user": "User address."
        },
        "returns": {
          "_0": "Token address."
        }
      },
      "lockTokens(address,uint256,uint256,address)": {
        "notice": "Function for locking tokens in the vault.",
        "params": {
          "_amount": "Number of tokens locked.",
          "_tokenAddress": "Address of the token locked.",
          "_unlockTime": "Timestamp number marking when tokens get unlocked.",
          "_withdrawer": "Address where tokens can be withdrawn after unlocking."
        }
      },
      "lockedItem(uint256)": {
        "notice": "Mapping from item Id to the Item struct."
      },
      "withdrawTokens(address,uint256,uint256,uint256)": {
        "notice": "Function for withdrawing tokens from the vault.",
        "params": {
          "_amount": "Number of tokens to withdraw.",
          "_id": "Id number.",
          "_index": "Index number of the list with Ids.",
          "_tokenAddress": "Address of the token to withdraw."
        }
      }
    },
    "version": 1
  },
  "opcodes": "PUSH1 0x80 PUSH1 0x40 MSTORE CALLVALUE DUP1 ISZERO PUSH2 0x10 JUMPI PUSH1 0x0 DUP1 REVERT JUMPDEST POP PUSH1 0x4 CALLDATASIZE LT PUSH2 0x88 JUMPI PUSH1 0x0 CALLDATALOAD PUSH1 0xE0 SHR DUP1 PUSH4 0x402DC266 GT PUSH2 0x5B JUMPI DUP1 PUSH4 0x402DC266 EQ PUSH2 0x17B JUMPI DUP1 PUSH4 0x92F00D26 EQ PUSH2 0x1C3 JUMPI DUP1 PUSH4 0x9852099C EQ PUSH2 0x1F7 JUMPI DUP1 PUSH4 0xC9028AFF EQ PUSH2 0x1FF JUMPI PUSH2 0x88 JUMP JUMPDEST DUP1 PUSH4 0x613AEA8 EQ PUSH2 0x8D JUMPI DUP1 PUSH4 0xAA393F3 EQ PUSH2 0xD8 JUMPI DUP1 PUSH4 0x211C7FCD EQ PUSH2 0x124 JUMPI DUP1 PUSH4 0x22E35E01 EQ PUSH2 0x15E JUMPI JUMPDEST PUSH1 0x0 DUP1 REVERT JUMPDEST PUSH2 0xAA PUSH1 0x4 DUP1 CALLDATASIZE SUB PUSH1 0x20 DUP2 LT ISZERO PUSH2 0xA3 JUMPI PUSH1 0x0 DUP1 REVERT JUMPDEST POP CALLDATALOAD PUSH2 0x21C JUMP JUMPDEST PUSH1 0x40 DUP1 MLOAD SWAP5 DUP6 MSTORE PUSH1 0x20 DUP6 ADD SWAP4 SWAP1 SWAP4 MSTORE PUSH1 0x1 PUSH1 0x1 PUSH1 0xA0 SHL SUB SWAP1 SWAP2 AND DUP4 DUP4 ADD MSTORE PUSH1 0x60 DUP4 ADD MSTORE MLOAD SWAP1 DUP2 SWAP1 SUB PUSH1 0x80 ADD SWAP1 RETURN JUMPDEST PUSH2 0x112 PUSH1 0x4 DUP1 CALLDATASIZE SUB PUSH1 0x80 DUP2 LT ISZERO PUSH2 0xEE JUMPI PUSH1 0x0 DUP1 REVERT JUMPDEST POP PUSH1 0x1 PUSH1 0x1 PUSH1 0xA0 SHL SUB DUP2 CALLDATALOAD DUP2 AND SWAP2 PUSH1 0x20 DUP2 ADD CALLDATALOAD SWAP2 PUSH1 0x40 DUP3 ADD CALLDATALOAD SWAP2 PUSH1 0x60 ADD CALLDATALOAD AND PUSH2 0x24E JUMP JUMPDEST PUSH1 0x40 DUP1 MLOAD SWAP2 DUP3 MSTORE MLOAD SWAP1 DUP2 SWAP1 SUB PUSH1 0x20 ADD SWAP1 RETURN JUMPDEST PUSH2 0x15C PUSH1 0x4 DUP1 CALLDATASIZE SUB PUSH1 0x80 DUP2 LT ISZERO PUSH2 0x13A JUMPI PUSH1 0x0 DUP1 REVERT JUMPDEST POP PUSH1 0x1 PUSH1 0x1 PUSH1 0xA0 SHL SUB DUP2 CALLDATALOAD AND SWAP1 PUSH1 0x20 DUP2 ADD CALLDATALOAD SWAP1 PUSH1 0x40 DUP2 ADD CALLDATALOAD SWAP1 PUSH1 0x60 ADD CALLDATALOAD PUSH2 0x419 JUMP JUMPDEST STOP JUMPDEST PUSH2 0xAA PUSH1 0x4 DUP1 CALLDATASIZE SUB PUSH1 0x20 DUP2 LT ISZERO PUSH2 0x174 JUMPI PUSH1 0x0 DUP1 REVERT JUMPDEST POP CALLDATALOAD PUSH2 0x63B JUMP JUMPDEST PUSH2 0x1A7 PUSH1 0x4 DUP1 CALLDATASIZE SUB PUSH1 0x40 DUP2 LT ISZERO PUSH2 0x191 JUMPI PUSH1 0x0 DUP1 REVERT JUMPDEST POP PUSH1 0x1 PUSH1 0x1 PUSH1 0xA0 SHL SUB DUP2 CALLDATALOAD AND SWAP1 PUSH1 0x20 ADD CALLDATALOAD PUSH2 0x66D JUMP JUMPDEST PUSH1 0x40 DUP1 MLOAD PUSH1 0x1 PUSH1 0x1 PUSH1 0xA0 SHL SUB SWAP1 SWAP3 AND DUP3 MSTORE MLOAD SWAP1 DUP2 SWAP1 SUB PUSH1 0x20 ADD SWAP1 RETURN JUMPDEST PUSH2 0xAA PUSH1 0x4 DUP1 CALLDATASIZE SUB PUSH1 0x60 DUP2 LT ISZERO PUSH2 0x1D9 JUMPI PUSH1 0x0 DUP1 REVERT JUMPDEST POP DUP1 CALLDATALOAD SWAP1 PUSH1 0x1 PUSH1 0x1 PUSH1 0xA0 SHL SUB PUSH1 0x20 DUP3 ADD CALLDATALOAD DUP2 AND SWAP2 PUSH1 0x40 ADD CALLDATALOAD AND PUSH2 0x69C JUMP JUMPDEST PUSH2 0x112 PUSH2 0x719 JUMP JUMPDEST PUSH2 0x112 PUSH1 0x4 DUP1 CALLDATASIZE SUB PUSH1 0x20 DUP2 LT ISZERO PUSH2 0x215 JUMPI PUSH1 0x0 DUP1 REVERT JUMPDEST POP CALLDATALOAD PUSH2 0x71F JUMP JUMPDEST PUSH1 0x3 PUSH1 0x20 DUP2 SWAP1 MSTORE PUSH1 0x0 SWAP2 DUP3 MSTORE PUSH1 0x40 SWAP1 SWAP2 KECCAK256 DUP1 SLOAD PUSH1 0x1 DUP3 ADD SLOAD PUSH1 0x2 DUP4 ADD SLOAD SWAP3 SWAP1 SWAP4 ADD SLOAD SWAP1 SWAP3 SWAP2 PUSH1 0x1 PUSH1 0x1 PUSH1 0xA0 SHL SUB AND SWAP1 DUP5 JUMP JUMPDEST PUSH1 0x0 DUP1 DUP5 GT PUSH2 0x29B JUMPI PUSH1 0x40 DUP1 MLOAD PUSH3 0x461BCD PUSH1 0xE5 SHL DUP2 MSTORE PUSH1 0x20 PUSH1 0x4 DUP3 ADD MSTORE PUSH1 0x14 PUSH1 0x24 DUP3 ADD MSTORE PUSH20 0x746F6B656E20616D6F756E74206973205A65726F PUSH1 0x60 SHL PUSH1 0x44 DUP3 ADD MSTORE SWAP1 MLOAD SWAP1 DUP2 SWAP1 SUB PUSH1 0x64 ADD SWAP1 REVERT JUMPDEST PUSH5 0x2540BE400 DUP4 LT PUSH2 0x2DE JUMPI PUSH1 0x40 MLOAD PUSH3 0x461BCD PUSH1 0xE5 SHL DUP2 MSTORE PUSH1 0x4 ADD DUP1 DUP1 PUSH1 0x20 ADD DUP3 DUP2 SUB DUP3 MSTORE PUSH1 0x33 DUP2 MSTORE PUSH1 0x20 ADD DUP1 PUSH2 0xA4F PUSH1 0x33 SWAP2 CODECOPY PUSH1 0x40 ADD SWAP2 POP POP PUSH1 0x40 MLOAD DUP1 SWAP2 SUB SWAP1 REVERT JUMPDEST PUSH1 0x1 PUSH1 0x1 PUSH1 0xA0 SHL SUB DUP3 AND PUSH2 0x2F1 JUMPI PUSH1 0x0 DUP1 REVERT JUMPDEST PUSH2 0x2FC DUP6 CALLER DUP7 PUSH2 0x73D JUMP JUMPDEST POP PUSH1 0x1 DUP1 SLOAD DUP2 ADD DUP1 DUP3 SSTORE PUSH1 0x0 DUP2 DUP2 MSTORE PUSH1 0x3 PUSH1 0x20 SWAP1 DUP2 MSTORE PUSH1 0x40 DUP1 DUP4 KECCAK256 DUP9 DUP2 SSTORE DUP1 DUP7 ADD DUP9 SWAP1 SSTORE PUSH1 0x2 SWAP1 DUP2 ADD DUP1 SLOAD PUSH1 0x1 PUSH1 0x1 PUSH1 0xA0 SHL SUB NOT AND PUSH1 0x1 PUSH1 0x1 PUSH1 0xA0 SHL SUB DUP10 AND SWAP1 DUP2 OR SWAP1 SWAP2 SSTORE DUP2 SLOAD DUP1 DUP9 ADD SWAP1 SWAP3 SSTORE PUSH32 0x405787FA12A823E0F2B7631CC41B3BA8828B3321CA811111FA75CD3AA3BB5ACE SWAP1 SWAP2 ADD DUP6 SWAP1 SSTORE DUP4 MSTORE SWAP1 DUP3 SWAP1 MSTORE SWAP1 KECCAK256 SWAP1 SWAP2 PUSH2 0x386 SWAP1 DUP3 ADD DUP8 PUSH2 0x865 JUMP JUMPDEST POP PUSH1 0x1 PUSH1 0x1 PUSH1 0xA0 SHL SUB DUP7 AND PUSH1 0x0 DUP2 DUP2 MSTORE PUSH1 0x20 DUP4 DUP2 MSTORE PUSH1 0x40 DUP1 DUP4 KECCAK256 DUP1 SLOAD PUSH1 0x1 DUP2 ADD DUP3 SSTORE DUP2 DUP6 MSTORE DUP4 DUP6 KECCAK256 ADD DUP8 SWAP1 SSTORE SLOAD DUP7 DUP5 MSTORE PUSH1 0x3 DUP1 DUP5 MSTORE SWAP4 DUP3 SWAP1 KECCAK256 PUSH1 0x0 NOT SWAP2 SWAP1 SWAP2 ADD SWAP4 DUP2 ADD DUP5 SWAP1 SSTORE SLOAD DUP2 MLOAD SWAP5 DUP6 MSTORE CALLER SWAP3 DUP6 ADD SWAP3 SWAP1 SWAP3 MSTORE DUP4 DUP2 ADD SWAP2 SWAP1 SWAP2 MSTORE MLOAD SWAP1 SWAP2 PUSH32 0xE0896EE63A02AE59823954043DFD52F907878DD98D69CB0F77A9B5C4F48EFDAF SWAP2 SWAP1 DUP2 SWAP1 SUB PUSH1 0x60 ADD SWAP1 LOG1 POP POP SWAP5 SWAP4 POP POP POP POP JUMP JUMPDEST PUSH1 0x0 DUP2 GT PUSH2 0x465 JUMPI PUSH1 0x40 DUP1 MLOAD PUSH3 0x461BCD PUSH1 0xE5 SHL DUP2 MSTORE PUSH1 0x20 PUSH1 0x4 DUP3 ADD MSTORE PUSH1 0x14 PUSH1 0x24 DUP3 ADD MSTORE PUSH20 0x746F6B656E20616D6F756E74206973205A65726F PUSH1 0x60 SHL PUSH1 0x44 DUP3 ADD MSTORE SWAP1 MLOAD SWAP1 DUP2 SWAP1 SUB PUSH1 0x64 ADD SWAP1 REVERT JUMPDEST CALLER PUSH1 0x0 SWAP1 DUP2 MSTORE PUSH1 0x20 DUP2 DUP2 MSTORE PUSH1 0x40 DUP1 DUP4 KECCAK256 PUSH1 0x1 PUSH1 0x1 PUSH1 0xA0 SHL SUB DUP9 AND DUP5 MSTORE SWAP1 SWAP2 MSTORE DUP2 KECCAK256 DUP1 SLOAD DUP6 SWAP1 DUP2 LT PUSH2 0x492 JUMPI INVALID JUMPDEST PUSH1 0x0 SWAP2 DUP3 MSTORE PUSH1 0x20 DUP1 DUP4 KECCAK256 SWAP1 SWAP2 ADD SLOAD DUP1 DUP4 MSTORE PUSH1 0x3 SWAP1 SWAP2 MSTORE PUSH1 0x40 SWAP1 SWAP2 KECCAK256 SWAP1 SWAP2 POP DUP4 DUP3 EQ DUP1 ISZERO PUSH2 0x4CB JUMPI POP PUSH1 0x2 DUP2 ADD SLOAD PUSH1 0x1 PUSH1 0x1 PUSH1 0xA0 SHL SUB AND CALLER EQ JUMPDEST PUSH2 0x50C JUMPI PUSH1 0x40 DUP1 MLOAD PUSH3 0x461BCD PUSH1 0xE5 SHL DUP2 MSTORE PUSH1 0x20 PUSH1 0x4 DUP3 ADD MSTORE PUSH1 0xD PUSH1 0x24 DUP3 ADD MSTORE PUSH13 0x989E8696409A92A69A82A8869 PUSH1 0x9B SHL PUSH1 0x44 DUP3 ADD MSTORE SWAP1 MLOAD SWAP1 DUP2 SWAP1 SUB PUSH1 0x64 ADD SWAP1 REVERT JUMPDEST TIMESTAMP DUP2 PUSH1 0x1 ADD SLOAD LT PUSH2 0x557 JUMPI PUSH1 0x40 DUP1 MLOAD PUSH3 0x461BCD PUSH1 0xE5 SHL DUP2 MSTORE PUSH1 0x20 PUSH1 0x4 DUP3 ADD MSTORE PUSH1 0x10 PUSH1 0x24 DUP3 ADD MSTORE PUSH16 0x139BDD081D5B9B1BD8DAD959081E595D PUSH1 0x82 SHL PUSH1 0x44 DUP3 ADD MSTORE SWAP1 MLOAD SWAP1 DUP2 SWAP1 SUB PUSH1 0x64 ADD SWAP1 REVERT JUMPDEST DUP1 SLOAD PUSH2 0x563 SWAP1 DUP5 PUSH2 0x881 JUMP JUMPDEST DUP1 DUP3 SSTORE PUSH2 0x5E4 JUMPI CALLER PUSH1 0x0 SWAP1 DUP2 MSTORE PUSH1 0x20 DUP2 DUP2 MSTORE PUSH1 0x40 DUP1 DUP4 KECCAK256 PUSH1 0x1 PUSH1 0x1 PUSH1 0xA0 SHL SUB DUP11 AND DUP5 MSTORE SWAP1 SWAP2 MSTORE SWAP1 KECCAK256 DUP1 SLOAD DUP2 SWAP1 PUSH1 0x0 NOT DUP2 ADD SWAP1 DUP2 LT PUSH2 0x59D JUMPI INVALID JUMPDEST SWAP1 PUSH1 0x0 MSTORE PUSH1 0x20 PUSH1 0x0 KECCAK256 ADD SLOAD DUP2 DUP8 DUP2 SLOAD DUP2 LT PUSH2 0x5B4 JUMPI INVALID JUMPDEST SWAP1 PUSH1 0x0 MSTORE PUSH1 0x20 PUSH1 0x0 KECCAK256 ADD DUP2 SWAP1 SSTORE POP DUP1 DUP1 SLOAD DUP1 PUSH2 0x5CC JUMPI INVALID JUMPDEST PUSH1 0x1 SWAP1 SUB DUP2 DUP2 SWAP1 PUSH1 0x0 MSTORE PUSH1 0x20 PUSH1 0x0 KECCAK256 ADD PUSH1 0x0 SWAP1 SSTORE SWAP1 SSTORE POP JUMPDEST PUSH2 0x5EF DUP7 CALLER DUP6 PUSH2 0x8DE JUMP JUMPDEST PUSH1 0x40 DUP1 MLOAD PUSH1 0x1 PUSH1 0x1 PUSH1 0xA0 SHL SUB DUP9 AND DUP2 MSTORE PUSH1 0x20 DUP2 ADD DUP6 SWAP1 MSTORE DUP2 MLOAD PUSH32 0x75140BE428252B59CEB5A81AE184B42FE610B766A7D42B7C7C5E16698B1D0841 SWAP3 SWAP2 DUP2 SWAP1 SUB SWAP1 SWAP2 ADD SWAP1 LOG1 POP POP POP POP POP POP JUMP JUMPDEST PUSH1 0x0 SWAP1 DUP2 MSTORE PUSH1 0x3 PUSH1 0x20 DUP2 SWAP1 MSTORE PUSH1 0x40 SWAP1 SWAP2 KECCAK256 DUP1 SLOAD PUSH1 0x1 DUP3 ADD SLOAD PUSH1 0x2 DUP4 ADD SLOAD SWAP3 SWAP1 SWAP4 ADD SLOAD SWAP1 SWAP4 PUSH1 0x1 PUSH1 0x1 PUSH1 0xA0 SHL SUB SWAP1 SWAP3 AND SWAP2 JUMP JUMPDEST PUSH1 0x1 PUSH1 0x1 PUSH1 0xA0 SHL SUB DUP3 AND PUSH1 0x0 SWAP1 DUP2 MSTORE PUSH1 0x20 DUP2 SWAP1 MSTORE PUSH1 0x40 DUP2 KECCAK256 PUSH2 0x692 PUSH1 0x1 DUP3 ADD DUP5 PUSH2 0x95A JUMP JUMPDEST SWAP2 POP POP JUMPDEST SWAP3 SWAP2 POP POP JUMP JUMPDEST PUSH1 0x1 PUSH1 0x1 PUSH1 0xA0 SHL SUB DUP1 DUP3 AND PUSH1 0x0 SWAP1 DUP2 MSTORE PUSH1 0x20 DUP2 DUP2 MSTORE PUSH1 0x40 DUP1 DUP4 KECCAK256 SWAP4 DUP7 AND DUP4 MSTORE SWAP3 SWAP1 MSTORE SWAP1 DUP2 KECCAK256 DUP1 SLOAD DUP3 SWAP2 DUP3 SWAP2 DUP3 SWAP2 DUP3 SWAP2 DUP10 SWAP1 DUP2 LT PUSH2 0x6D5 JUMPI INVALID JUMPDEST PUSH1 0x0 SWAP2 DUP3 MSTORE PUSH1 0x20 DUP1 DUP4 KECCAK256 SWAP2 SWAP1 SWAP2 ADD SLOAD DUP1 DUP4 MSTORE PUSH1 0x3 SWAP1 SWAP2 MSTORE PUSH1 0x40 SWAP1 SWAP2 KECCAK256 DUP1 SLOAD PUSH1 0x1 DUP3 ADD SLOAD PUSH1 0x2 SWAP1 SWAP3 ADD SLOAD SWAP1 SWAP12 SWAP2 SWAP11 POP PUSH1 0x1 PUSH1 0x1 PUSH1 0xA0 SHL SUB AND SWAP9 POP SWAP1 SWAP7 POP SWAP5 POP POP POP POP POP JUMP JUMPDEST PUSH1 0x1 SLOAD DUP2 JUMP JUMPDEST PUSH1 0x2 DUP2 DUP2 SLOAD DUP2 LT PUSH2 0x72C JUMPI INVALID JUMPDEST PUSH1 0x0 SWAP2 DUP3 MSTORE PUSH1 0x20 SWAP1 SWAP2 KECCAK256 ADD SLOAD SWAP1 POP DUP2 JUMP JUMPDEST PUSH1 0x40 DUP1 MLOAD PUSH1 0x1 PUSH1 0x1 PUSH1 0xA0 SHL SUB DUP5 DUP2 AND PUSH1 0x24 DUP4 ADD MSTORE ADDRESS PUSH1 0x44 DUP4 ADD MSTORE PUSH1 0x64 DUP1 DUP4 ADD DUP6 SWAP1 MSTORE DUP4 MLOAD DUP1 DUP5 SUB SWAP1 SWAP2 ADD DUP2 MSTORE PUSH1 0x84 SWAP1 SWAP3 ADD DUP4 MSTORE PUSH1 0x20 DUP3 ADD DUP1 MLOAD PUSH1 0x1 PUSH1 0x1 PUSH1 0xE0 SHL SUB AND PUSH4 0x23B872DD PUSH1 0xE0 SHL OR DUP2 MSTORE SWAP3 MLOAD DUP3 MLOAD PUSH1 0x0 SWAP5 PUSH1 0x60 SWAP5 SWAP4 DUP10 AND SWAP4 SWAP3 SWAP2 DUP3 SWAP2 SWAP1 DUP1 DUP4 DUP4 JUMPDEST PUSH1 0x20 DUP4 LT PUSH2 0x7C0 JUMPI DUP1 MLOAD DUP3 MSTORE PUSH1 0x1F NOT SWAP1 SWAP3 ADD SWAP2 PUSH1 0x20 SWAP2 DUP3 ADD SWAP2 ADD PUSH2 0x7A1 JUMP JUMPDEST PUSH1 0x1 DUP4 PUSH1 0x20 SUB PUSH2 0x100 EXP SUB DUP1 NOT DUP3 MLOAD AND DUP2 DUP5 MLOAD AND DUP1 DUP3 OR DUP6 MSTORE POP POP POP POP POP POP SWAP1 POP ADD SWAP2 POP POP PUSH1 0x0 PUSH1 0x40 MLOAD DUP1 DUP4 SUB DUP2 PUSH1 0x0 DUP7 GAS CALL SWAP2 POP POP RETURNDATASIZE DUP1 PUSH1 0x0 DUP2 EQ PUSH2 0x822 JUMPI PUSH1 0x40 MLOAD SWAP2 POP PUSH1 0x1F NOT PUSH1 0x3F RETURNDATASIZE ADD AND DUP3 ADD PUSH1 0x40 MSTORE RETURNDATASIZE DUP3 MSTORE RETURNDATASIZE PUSH1 0x0 PUSH1 0x20 DUP5 ADD RETURNDATACOPY PUSH2 0x827 JUMP JUMPDEST PUSH1 0x60 SWAP2 POP JUMPDEST POP SWAP2 POP SWAP2 POP DUP2 DUP1 ISZERO PUSH2 0x855 JUMPI POP DUP1 MLOAD ISZERO DUP1 PUSH2 0x855 JUMPI POP DUP1 DUP1 PUSH1 0x20 ADD SWAP1 MLOAD PUSH1 0x20 DUP2 LT ISZERO PUSH2 0x852 JUMPI PUSH1 0x0 DUP1 REVERT JUMPDEST POP MLOAD JUMPDEST PUSH2 0x85E JUMPI PUSH1 0x0 DUP1 REVERT JUMPDEST POP POP POP POP POP JUMP JUMPDEST PUSH1 0x0 PUSH2 0x87A DUP4 PUSH1 0x1 PUSH1 0x1 PUSH1 0xA0 SHL SUB DUP5 AND PUSH2 0x966 JUMP JUMPDEST SWAP4 SWAP3 POP POP POP JUMP JUMPDEST PUSH1 0x0 DUP3 DUP3 GT ISZERO PUSH2 0x8D8 JUMPI PUSH1 0x40 DUP1 MLOAD PUSH3 0x461BCD PUSH1 0xE5 SHL DUP2 MSTORE PUSH1 0x20 PUSH1 0x4 DUP3 ADD MSTORE PUSH1 0x1E PUSH1 0x24 DUP3 ADD MSTORE PUSH32 0x536166654D6174683A207375627472616374696F6E206F766572666C6F770000 PUSH1 0x44 DUP3 ADD MSTORE SWAP1 MLOAD SWAP1 DUP2 SWAP1 SUB PUSH1 0x64 ADD SWAP1 REVERT JUMPDEST POP SWAP1 SUB SWAP1 JUMP JUMPDEST PUSH1 0x40 DUP1 MLOAD PUSH1 0x1 PUSH1 0x1 PUSH1 0xA0 SHL SUB DUP5 DUP2 AND PUSH1 0x24 DUP4 ADD MSTORE PUSH1 0x44 DUP1 DUP4 ADD DUP6 SWAP1 MSTORE DUP4 MLOAD DUP1 DUP5 SUB SWAP1 SWAP2 ADD DUP2 MSTORE PUSH1 0x64 SWAP1 SWAP3 ADD DUP4 MSTORE PUSH1 0x20 DUP3 ADD DUP1 MLOAD PUSH1 0x1 PUSH1 0x1 PUSH1 0xE0 SHL SUB AND PUSH4 0xA9059CBB PUSH1 0xE0 SHL OR DUP2 MSTORE SWAP3 MLOAD DUP3 MLOAD PUSH1 0x0 SWAP5 PUSH1 0x60 SWAP5 SWAP4 DUP10 AND SWAP4 SWAP3 SWAP2 DUP3 SWAP2 SWAP1 DUP1 DUP4 DUP4 PUSH1 0x20 DUP4 LT PUSH2 0x7C0 JUMPI DUP1 MLOAD DUP3 MSTORE PUSH1 0x1F NOT SWAP1 SWAP3 ADD SWAP2 PUSH1 0x20 SWAP2 DUP3 ADD SWAP2 ADD PUSH2 0x7A1 JUMP JUMPDEST PUSH1 0x0 PUSH2 0x87A DUP4 DUP4 PUSH2 0x9B0 JUMP JUMPDEST PUSH1 0x0 PUSH2 0x972 DUP4 DUP4 PUSH2 0xA14 JUMP JUMPDEST PUSH2 0x9A8 JUMPI POP DUP2 SLOAD PUSH1 0x1 DUP2 DUP2 ADD DUP5 SSTORE PUSH1 0x0 DUP5 DUP2 MSTORE PUSH1 0x20 DUP1 DUP3 KECCAK256 SWAP1 SWAP4 ADD DUP5 SWAP1 SSTORE DUP5 SLOAD DUP5 DUP3 MSTORE DUP3 DUP7 ADD SWAP1 SWAP4 MSTORE PUSH1 0x40 SWAP1 KECCAK256 SWAP2 SWAP1 SWAP2 SSTORE PUSH2 0x696 JUMP JUMPDEST POP PUSH1 0x0 PUSH2 0x696 JUMP JUMPDEST DUP2 SLOAD PUSH1 0x0 SWAP1 DUP3 LT PUSH2 0x9F2 JUMPI PUSH1 0x40 MLOAD PUSH3 0x461BCD PUSH1 0xE5 SHL DUP2 MSTORE PUSH1 0x4 ADD DUP1 DUP1 PUSH1 0x20 ADD DUP3 DUP2 SUB DUP3 MSTORE PUSH1 0x22 DUP2 MSTORE PUSH1 0x20 ADD DUP1 PUSH2 0xA2D PUSH1 0x22 SWAP2 CODECOPY PUSH1 0x40 ADD SWAP2 POP POP PUSH1 0x40 MLOAD DUP1 SWAP2 SUB SWAP1 REVERT JUMPDEST DUP3 PUSH1 0x0 ADD DUP3 DUP2 SLOAD DUP2 LT PUSH2 0xA01 JUMPI INVALID JUMPDEST SWAP1 PUSH1 0x0 MSTORE PUSH1 0x20 PUSH1 0x0 KECCAK256 ADD SLOAD SWAP1 POP SWAP3 SWAP2 POP POP JUMP JUMPDEST PUSH1 0x0 SWAP1 DUP2 MSTORE PUSH1 0x1 SWAP2 SWAP1 SWAP2 ADD PUSH1 0x20 MSTORE PUSH1 0x40 SWAP1 KECCAK256 SLOAD ISZERO ISZERO SWAP1 JUMP INVALID GASLIMIT PUSH15 0x756D657261626C655365743A20696E PUSH5 0x6578206F75 PUSH21 0x206F6620626F756E6473456E74657220616E20756E PUSH10 0x782074696D657374616D PUSH17 0x20696E207365636F6E64732C206E6F7420 PUSH14 0x696C697365636F6E6473A2646970 PUSH7 0x7358221220D13D CALLDATALOAD 0x25 0xB3 0x4B 0xDB SWAP6 PUSH23 0x37B58918CAD383BF597915D1BD1F240E9AD8F28A51061F PUSH5 0x736F6C6343 STOP MOD 0xC STOP CALLER ",
  "sha1": "56af23b6e9a1b05bb3eb956cf461b4022ab8190b",
  "source": "pragma solidity 0.6.12;\n\nimport \"../interfaces/IERC20.sol\";\nimport \"../Utils/SafeMathPlus.sol\";\nimport \"../Utils/SafeTransfer.sol\";\nimport \"../OpenZeppelin/math/SafeMath.sol\";\nimport \"../OpenZeppelin/utils/EnumerableSet.sol\";\n\n\ncontract TokenVault is SafeTransfer {\n    using SafeMath for uint256;\n    using EnumerableSet for EnumerableSet.AddressSet;\n\n    /// @notice Struct representing each batch of tokens locked in the vault.\n    struct Item {\n        uint256 amount;\n        uint256 unlockTime;\n        address owner;\n        uint256 userIndex;\n    }\n\n    /// @notice Struct that keeps track of assets belonging to a particular user.\n    struct UserInfo {\n        mapping(address => uint256[]) lockToItems;\n        EnumerableSet.AddressSet lockedItemsWithUser;\n    }\n\n    /// @notice Mapping from user address to UserInfo struct.\n    mapping (address => UserInfo) users;\n\n    /// @notice Id number of the vault deposit.\n    uint256 public depositId;\n\n    /// @notice An array of all the deposit Ids.\n    uint256[] public allDepositIds;\n\n    /// @notice Mapping from item Id to the Item struct.\n    mapping (uint256 => Item) public lockedItem;\n\n    /// @notice Emitted when tokens are locked inside the vault.\n    event onLock(address tokenAddress, address user, uint256 amount);\n\n    /// @notice Emitted when tokens are unlocked from the vault.\n    event onUnlock(address tokenAddress,uint256 amount);\n\n    /**\n     * @notice Function for locking tokens in the vault.\n     * @param _tokenAddress Address of the token locked.\n     * @param _amount Number of tokens locked.\n     * @param _unlockTime Timestamp number marking when tokens get unlocked.\n     * @param _withdrawer Address where tokens can be withdrawn after unlocking.\n     */\n    function lockTokens(\n        address _tokenAddress,\n        uint256 _amount,\n        uint256 _unlockTime,\n        address payable _withdrawer\n    )\n        public returns (uint256 _id)\n    {\n        require(_amount > 0, 'token amount is Zero');\n        require(_unlockTime < 10000000000, 'Enter an unix timestamp in seconds, not miliseconds');\n        require(_withdrawer != address(0));\n        _safeTransferFrom(_tokenAddress, msg.sender, _amount);\n\n        _id = ++depositId;\n\n        lockedItem[_id].amount = _amount;\n        lockedItem[_id].unlockTime = _unlockTime;\n        lockedItem[_id].owner = _withdrawer;\n\n        allDepositIds.push(_id);\n\n        UserInfo storage userItem = users[_withdrawer];\n        userItem.lockedItemsWithUser.add(_tokenAddress);\n        userItem.lockToItems[_tokenAddress].push(_id);\n        uint256 userIndex = userItem.lockToItems[_tokenAddress].length - 1;\n        lockedItem[_id].userIndex = userIndex;\n\n        emit onLock(_tokenAddress, msg.sender,lockedItem[_id].amount);\n    }\n\n    /**\n     * @notice Function for withdrawing tokens from the vault.\n     * @param _tokenAddress Address of the token to withdraw.\n     * @param _index Index number of the list with Ids.\n     * @param _id Id number.\n     * @param _amount Number of tokens to withdraw.\n     */\n    function withdrawTokens(\n        address _tokenAddress,\n        uint256 _index,\n        uint256 _id,\n        uint256 _amount\n    )\n        external\n    {\n        require(_amount > 0, 'token amount is Zero');\n        uint256 id = users[msg.sender].lockToItems[_tokenAddress][_index];\n        Item storage userItem = lockedItem[id];\n        require(id == _id && userItem.owner == msg.sender, 'LOCK MISMATCH');\n        require(userItem.unlockTime < block.timestamp, 'Not unlocked yet');\n        userItem.amount = userItem.amount.sub(_amount);\n\n        if(userItem.amount == 0) {\n            uint256[] storage userItems = users[msg.sender].lockToItems[_tokenAddress];\n            userItems[_index] = userItems[userItems.length -1];\n            userItems.pop();\n        }\n\n        _safeTransfer(_tokenAddress, msg.sender, _amount);\n\n        emit onUnlock(_tokenAddress, _amount);\n    }\n\n    /**\n     * @notice Function to retrieve data from the Item under user index number.\n     * @param _index Index number of the list with Item ids.\n     * @param _tokenAddress Address of the token corresponding to this Item.\n     * @param _user User address.\n     * @return Items token amount number, Items unlock timestamp, Items owner address, Items Id number\n     */\n    function getItemAtUserIndex(\n        uint256 _index,\n        address _tokenAddress,\n        address _user\n    )\n        external view returns (uint256, uint256, address, uint256)\n    {\n        uint256 id = users[_user].lockToItems[_tokenAddress][_index];\n        Item storage item = lockedItem[id];\n        return (item.amount, item.unlockTime, item.owner, id);\n    }\n\n    /**\n     * @notice Function to retrieve token address at desired index for the specified user.\n     * @param _user User address.\n     * @param _index Index number.\n     * @return Token address.\n     */\n    function getUserLockedItemAtIndex(address _user, uint256 _index) external view returns (address) {\n        UserInfo storage user = users[_user];\n        return user.lockedItemsWithUser.at(_index);\n    }\n\n    /**\n     * @notice Function to retrieve all the data from Item struct under given Id.\n     * @param _id Id number.\n     * @return All the data for this Id (token amount number, unlock time number, owner address and user index number)\n     */\n    function getLockedItemAtId(uint256 _id) external view returns (uint256, uint256, address, uint256) {\n        Item storage item = lockedItem[_id];\n        return (item.amount, item.unlockTime, item.owner, item.userIndex);\n    }\n}\n",
  "sourcePath": "contracts/Vault/TokenVault.sol",
  "type": "contract"
}