{
  "abi": [
    {
      "inputs": [
        {
          "internalType": "address",
          "name": "_token",
          "type": "address"
        },
        {
          "internalType": "address",
          "name": "_owner",
          "type": "address"
        },
        {
          "internalType": "address",
          "name": "_spender",
          "type": "address"
        }
      ],
      "name": "allowance",
      "outputs": [
        {
          "internalType": "uint256",
          "name": "",
          "type": "uint256"
        }
      ],
      "stateMutability": "view",
      "type": "function"
    },
    {
      "inputs": [
        {
          "internalType": "address",
          "name": "_address",
          "type": "address"
        }
      ],
      "name": "getTokenInfo",
      "outputs": [
        {
          "components": [
            {
              "internalType": "address",
              "name": "addr",
              "type": "address"
            },
            {
              "internalType": "uint256",
              "name": "decimals",
              "type": "uint256"
            },
            {
              "internalType": "string",
              "name": "name",
              "type": "string"
            },
            {
              "internalType": "string",
              "name": "symbol",
              "type": "string"
            }
          ],
          "internalType": "struct TokenHelper.TokenInfo",
          "name": "",
          "type": "tuple"
        }
      ],
      "stateMutability": "view",
      "type": "function"
    },
    {
      "inputs": [
        {
          "internalType": "address[]",
          "name": "addresses",
          "type": "address[]"
        }
      ],
      "name": "getTokensInfo",
      "outputs": [
        {
          "components": [
            {
              "internalType": "address",
              "name": "addr",
              "type": "address"
            },
            {
              "internalType": "uint256",
              "name": "decimals",
              "type": "uint256"
            },
            {
              "internalType": "string",
              "name": "name",
              "type": "string"
            },
            {
              "internalType": "string",
              "name": "symbol",
              "type": "string"
            }
          ],
          "internalType": "struct TokenHelper.TokenInfo[]",
          "name": "",
          "type": "tuple[]"
        }
      ],
      "stateMutability": "view",
      "type": "function"
    }
  ],
  "bytecode": "608060405234801561001057600080fd5b5061074d806100206000396000f3fe608060405234801561001057600080fd5b50600436106100415760003560e01c80631f69565f1461004657806346a0fe471461006f578063927da1051461008f575b600080fd5b6100596100543660046103c2565b6100af565b6040516100669190610684565b60405180910390f35b61008261007d366004610429565b610245565b6040516100669190610624565b6100a261009d3660046103e4565b6102eb565b6040516100669190610697565b6100b7610374565b6100bf610374565b6001600160a01b038316808252604080516306fdde0360e01b815290518592916306fdde03916004808301926000929190829003018186803b15801561010457600080fd5b505afa158015610118573d6000803e3d6000fd5b505050506040513d6000823e601f3d908101601f1916820160405261014091908101906104c6565b8260400181905250806001600160a01b03166395d89b416040518163ffffffff1660e01b815260040160006040518083038186803b15801561018157600080fd5b505afa158015610195573d6000803e3d6000fd5b505050506040513d6000823e601f3d908101601f191682016040526101bd91908101906104c6565b8260600181905250806001600160a01b031663313ce5676040518163ffffffff1660e01b815260040160206040518083038186803b1580156101fe57600080fd5b505afa158015610212573d6000803e3d6000fd5b505050506040513d601f19601f82011682018060405250810190610236919061056a565b60ff1660208301525092915050565b606080825167ffffffffffffffff8111801561026057600080fd5b5060405190808252806020026020018201604052801561029a57816020015b610287610374565b81526020019060019003908161027f5790505b50905060005b83518110156102e4576102c58482815181106102b857fe5b60200260200101516100af565b8282815181106102d157fe5b60209081029190910101526001016102a0565b5092915050565b604051636eb1769f60e11b81526000906001600160a01b0385169063dd62ed3e9061031c908690869060040161060a565b60206040518083038186803b15801561033457600080fd5b505afa158015610348573d6000803e3d6000fd5b505050506040513d601f19601f8201168201806040525081019061036c9190610552565b949350505050565b604051806080016040528060006001600160a01b031681526020016000815260200160608152602001606081525090565b80356001600160a01b03811681146103bc57600080fd5b92915050565b6000602082840312156103d3578081fd5b6103dd83836103a5565b9392505050565b6000806000606084860312156103f8578182fd5b61040285856103a5565b925061041185602086016103a5565b915061042085604086016103a5565b90509250925092565b6000602080838503121561043b578182fd5b823567ffffffffffffffff811115610451578283fd5b8301601f81018513610461578283fd5b803561047461046f826106c7565b6106a0565b8181528381019083850185840285018601891015610490578687fd5b8694505b838510156104ba576104a689826103a5565b835260019490940193918501918501610494565b50979650505050505050565b6000602082840312156104d7578081fd5b815167ffffffffffffffff808211156104ee578283fd5b818401915084601f830112610501578283fd5b81518181111561050f578384fd5b610522601f8201601f19166020016106a0565b9150808252856020828501011115610538578384fd5b6105498160208401602086016106e7565b50949350505050565b600060208284031215610563578081fd5b5051919050565b60006020828403121561057b578081fd5b815160ff811681146103dd578182fd5b600081518084526105a38160208601602086016106e7565b601f01601f19169290920160200192915050565b600060018060a01b038251168352602082015160208401526040820151608060408501526105e8608085018261058b565b905060608301518482036060860152610601828261058b565b95945050505050565b6001600160a01b0392831681529116602082015260400190565b6000602080830181845280855180835260408601915060408482028701019250838701855b8281101561067757603f198886030184526106658583516105b7565b94509285019290850190600101610649565b5092979650505050505050565b6000602082526103dd60208301846105b7565b90815260200190565b60405181810167ffffffffffffffff811182821017156106bf57600080fd5b604052919050565b600067ffffffffffffffff8211156106dd578081fd5b5060209081020190565b60005b838110156107025781810151838201526020016106ea565b83811115610711576000848401525b5050505056fea26469706673582212208bdc781d60adebaf8fdbd3363def0da55f6014a2d0b15ec92f45f42f6ff9182264736f6c634300060c0033",
  "bytecodeSha1": "653dc62ce57659b27670ff2112e870a12aee6822",
  "compiler": {
    "evm_version": "istanbul",
    "optimizer": {
      "enabled": true,
      "runs": 200
    },
    "version": "0.6.12+commit.27d51765"
  },
  "contractName": "TokenHelper",
  "language": "Solidity",
  "natspec": {
    "kind": "dev",
    "methods": {},
    "version": 1
  },
  "opcodes": "PUSH1 0x80 PUSH1 0x40 MSTORE CALLVALUE DUP1 ISZERO PUSH2 0x10 JUMPI PUSH1 0x0 DUP1 REVERT JUMPDEST POP PUSH1 0x4 CALLDATASIZE LT PUSH2 0x41 JUMPI PUSH1 0x0 CALLDATALOAD PUSH1 0xE0 SHR DUP1 PUSH4 0x1F69565F EQ PUSH2 0x46 JUMPI DUP1 PUSH4 0x46A0FE47 EQ PUSH2 0x6F JUMPI DUP1 PUSH4 0x927DA105 EQ PUSH2 0x8F JUMPI JUMPDEST PUSH1 0x0 DUP1 REVERT JUMPDEST PUSH2 0x59 PUSH2 0x54 CALLDATASIZE PUSH1 0x4 PUSH2 0x3C2 JUMP JUMPDEST PUSH2 0xAF JUMP JUMPDEST PUSH1 0x40 MLOAD PUSH2 0x66 SWAP2 SWAP1 PUSH2 0x684 JUMP JUMPDEST PUSH1 0x40 MLOAD DUP1 SWAP2 SUB SWAP1 RETURN JUMPDEST PUSH2 0x82 PUSH2 0x7D CALLDATASIZE PUSH1 0x4 PUSH2 0x429 JUMP JUMPDEST PUSH2 0x245 JUMP JUMPDEST PUSH1 0x40 MLOAD PUSH2 0x66 SWAP2 SWAP1 PUSH2 0x624 JUMP JUMPDEST PUSH2 0xA2 PUSH2 0x9D CALLDATASIZE PUSH1 0x4 PUSH2 0x3E4 JUMP JUMPDEST PUSH2 0x2EB JUMP JUMPDEST PUSH1 0x40 MLOAD PUSH2 0x66 SWAP2 SWAP1 PUSH2 0x697 JUMP JUMPDEST PUSH2 0xB7 PUSH2 0x374 JUMP JUMPDEST PUSH2 0xBF PUSH2 0x374 JUMP JUMPDEST PUSH1 0x1 PUSH1 0x1 PUSH1 0xA0 SHL SUB DUP4 AND DUP1 DUP3 MSTORE PUSH1 0x40 DUP1 MLOAD PUSH4 0x6FDDE03 PUSH1 0xE0 SHL DUP2 MSTORE SWAP1 MLOAD DUP6 SWAP3 SWAP2 PUSH4 0x6FDDE03 SWAP2 PUSH1 0x4 DUP1 DUP4 ADD SWAP3 PUSH1 0x0 SWAP3 SWAP2 SWAP1 DUP3 SWAP1 SUB ADD DUP2 DUP7 DUP1 EXTCODESIZE ISZERO DUP1 ISZERO PUSH2 0x104 JUMPI PUSH1 0x0 DUP1 REVERT JUMPDEST POP GAS STATICCALL ISZERO DUP1 ISZERO PUSH2 0x118 JUMPI RETURNDATASIZE PUSH1 0x0 DUP1 RETURNDATACOPY RETURNDATASIZE PUSH1 0x0 REVERT JUMPDEST POP POP POP POP PUSH1 0x40 MLOAD RETURNDATASIZE PUSH1 0x0 DUP3 RETURNDATACOPY PUSH1 0x1F RETURNDATASIZE SWAP1 DUP2 ADD PUSH1 0x1F NOT AND DUP3 ADD PUSH1 0x40 MSTORE PUSH2 0x140 SWAP2 SWAP1 DUP2 ADD SWAP1 PUSH2 0x4C6 JUMP JUMPDEST DUP3 PUSH1 0x40 ADD DUP2 SWAP1 MSTORE POP DUP1 PUSH1 0x1 PUSH1 0x1 PUSH1 0xA0 SHL SUB AND PUSH4 0x95D89B41 PUSH1 0x40 MLOAD DUP2 PUSH4 0xFFFFFFFF AND PUSH1 0xE0 SHL DUP2 MSTORE PUSH1 0x4 ADD PUSH1 0x0 PUSH1 0x40 MLOAD DUP1 DUP4 SUB DUP2 DUP7 DUP1 EXTCODESIZE ISZERO DUP1 ISZERO PUSH2 0x181 JUMPI PUSH1 0x0 DUP1 REVERT JUMPDEST POP GAS STATICCALL ISZERO DUP1 ISZERO PUSH2 0x195 JUMPI RETURNDATASIZE PUSH1 0x0 DUP1 RETURNDATACOPY RETURNDATASIZE PUSH1 0x0 REVERT JUMPDEST POP POP POP POP PUSH1 0x40 MLOAD RETURNDATASIZE PUSH1 0x0 DUP3 RETURNDATACOPY PUSH1 0x1F RETURNDATASIZE SWAP1 DUP2 ADD PUSH1 0x1F NOT AND DUP3 ADD PUSH1 0x40 MSTORE PUSH2 0x1BD SWAP2 SWAP1 DUP2 ADD SWAP1 PUSH2 0x4C6 JUMP JUMPDEST DUP3 PUSH1 0x60 ADD DUP2 SWAP1 MSTORE POP DUP1 PUSH1 0x1 PUSH1 0x1 PUSH1 0xA0 SHL SUB AND PUSH4 0x313CE567 PUSH1 0x40 MLOAD DUP2 PUSH4 0xFFFFFFFF AND PUSH1 0xE0 SHL DUP2 MSTORE PUSH1 0x4 ADD PUSH1 0x20 PUSH1 0x40 MLOAD DUP1 DUP4 SUB DUP2 DUP7 DUP1 EXTCODESIZE ISZERO DUP1 ISZERO PUSH2 0x1FE JUMPI PUSH1 0x0 DUP1 REVERT JUMPDEST POP GAS STATICCALL ISZERO DUP1 ISZERO PUSH2 0x212 JUMPI RETURNDATASIZE PUSH1 0x0 DUP1 RETURNDATACOPY RETURNDATASIZE PUSH1 0x0 REVERT JUMPDEST POP POP POP POP PUSH1 0x40 MLOAD RETURNDATASIZE PUSH1 0x1F NOT PUSH1 0x1F DUP3 ADD AND DUP3 ADD DUP1 PUSH1 0x40 MSTORE POP DUP2 ADD SWAP1 PUSH2 0x236 SWAP2 SWAP1 PUSH2 0x56A JUMP JUMPDEST PUSH1 0xFF AND PUSH1 0x20 DUP4 ADD MSTORE POP SWAP3 SWAP2 POP POP JUMP JUMPDEST PUSH1 0x60 DUP1 DUP3 MLOAD PUSH8 0xFFFFFFFFFFFFFFFF DUP2 GT DUP1 ISZERO PUSH2 0x260 JUMPI PUSH1 0x0 DUP1 REVERT JUMPDEST POP PUSH1 0x40 MLOAD SWAP1 DUP1 DUP3 MSTORE DUP1 PUSH1 0x20 MUL PUSH1 0x20 ADD DUP3 ADD PUSH1 0x40 MSTORE DUP1 ISZERO PUSH2 0x29A JUMPI DUP2 PUSH1 0x20 ADD JUMPDEST PUSH2 0x287 PUSH2 0x374 JUMP JUMPDEST DUP2 MSTORE PUSH1 0x20 ADD SWAP1 PUSH1 0x1 SWAP1 SUB SWAP1 DUP2 PUSH2 0x27F JUMPI SWAP1 POP JUMPDEST POP SWAP1 POP PUSH1 0x0 JUMPDEST DUP4 MLOAD DUP2 LT ISZERO PUSH2 0x2E4 JUMPI PUSH2 0x2C5 DUP5 DUP3 DUP2 MLOAD DUP2 LT PUSH2 0x2B8 JUMPI INVALID JUMPDEST PUSH1 0x20 MUL PUSH1 0x20 ADD ADD MLOAD PUSH2 0xAF JUMP JUMPDEST DUP3 DUP3 DUP2 MLOAD DUP2 LT PUSH2 0x2D1 JUMPI INVALID JUMPDEST PUSH1 0x20 SWAP1 DUP2 MUL SWAP2 SWAP1 SWAP2 ADD ADD MSTORE PUSH1 0x1 ADD PUSH2 0x2A0 JUMP JUMPDEST POP SWAP3 SWAP2 POP POP JUMP JUMPDEST PUSH1 0x40 MLOAD PUSH4 0x6EB1769F PUSH1 0xE1 SHL DUP2 MSTORE PUSH1 0x0 SWAP1 PUSH1 0x1 PUSH1 0x1 PUSH1 0xA0 SHL SUB DUP6 AND SWAP1 PUSH4 0xDD62ED3E SWAP1 PUSH2 0x31C SWAP1 DUP7 SWAP1 DUP7 SWAP1 PUSH1 0x4 ADD PUSH2 0x60A JUMP JUMPDEST PUSH1 0x20 PUSH1 0x40 MLOAD DUP1 DUP4 SUB DUP2 DUP7 DUP1 EXTCODESIZE ISZERO DUP1 ISZERO PUSH2 0x334 JUMPI PUSH1 0x0 DUP1 REVERT JUMPDEST POP GAS STATICCALL ISZERO DUP1 ISZERO PUSH2 0x348 JUMPI RETURNDATASIZE PUSH1 0x0 DUP1 RETURNDATACOPY RETURNDATASIZE PUSH1 0x0 REVERT JUMPDEST POP POP POP POP PUSH1 0x40 MLOAD RETURNDATASIZE PUSH1 0x1F NOT PUSH1 0x1F DUP3 ADD AND DUP3 ADD DUP1 PUSH1 0x40 MSTORE POP DUP2 ADD SWAP1 PUSH2 0x36C SWAP2 SWAP1 PUSH2 0x552 JUMP JUMPDEST SWAP5 SWAP4 POP POP POP POP JUMP JUMPDEST PUSH1 0x40 MLOAD DUP1 PUSH1 0x80 ADD PUSH1 0x40 MSTORE DUP1 PUSH1 0x0 PUSH1 0x1 PUSH1 0x1 PUSH1 0xA0 SHL SUB AND DUP2 MSTORE PUSH1 0x20 ADD PUSH1 0x0 DUP2 MSTORE PUSH1 0x20 ADD PUSH1 0x60 DUP2 MSTORE PUSH1 0x20 ADD PUSH1 0x60 DUP2 MSTORE POP SWAP1 JUMP JUMPDEST DUP1 CALLDATALOAD PUSH1 0x1 PUSH1 0x1 PUSH1 0xA0 SHL SUB DUP2 AND DUP2 EQ PUSH2 0x3BC JUMPI PUSH1 0x0 DUP1 REVERT JUMPDEST SWAP3 SWAP2 POP POP JUMP JUMPDEST PUSH1 0x0 PUSH1 0x20 DUP3 DUP5 SUB SLT ISZERO PUSH2 0x3D3 JUMPI DUP1 DUP2 REVERT JUMPDEST PUSH2 0x3DD DUP4 DUP4 PUSH2 0x3A5 JUMP JUMPDEST SWAP4 SWAP3 POP POP POP JUMP JUMPDEST PUSH1 0x0 DUP1 PUSH1 0x0 PUSH1 0x60 DUP5 DUP7 SUB SLT ISZERO PUSH2 0x3F8 JUMPI DUP2 DUP3 REVERT JUMPDEST PUSH2 0x402 DUP6 DUP6 PUSH2 0x3A5 JUMP JUMPDEST SWAP3 POP PUSH2 0x411 DUP6 PUSH1 0x20 DUP7 ADD PUSH2 0x3A5 JUMP JUMPDEST SWAP2 POP PUSH2 0x420 DUP6 PUSH1 0x40 DUP7 ADD PUSH2 0x3A5 JUMP JUMPDEST SWAP1 POP SWAP3 POP SWAP3 POP SWAP3 JUMP JUMPDEST PUSH1 0x0 PUSH1 0x20 DUP1 DUP4 DUP6 SUB SLT ISZERO PUSH2 0x43B JUMPI DUP2 DUP3 REVERT JUMPDEST DUP3 CALLDATALOAD PUSH8 0xFFFFFFFFFFFFFFFF DUP2 GT ISZERO PUSH2 0x451 JUMPI DUP3 DUP4 REVERT JUMPDEST DUP4 ADD PUSH1 0x1F DUP2 ADD DUP6 SGT PUSH2 0x461 JUMPI DUP3 DUP4 REVERT JUMPDEST DUP1 CALLDATALOAD PUSH2 0x474 PUSH2 0x46F DUP3 PUSH2 0x6C7 JUMP JUMPDEST PUSH2 0x6A0 JUMP JUMPDEST DUP2 DUP2 MSTORE DUP4 DUP2 ADD SWAP1 DUP4 DUP6 ADD DUP6 DUP5 MUL DUP6 ADD DUP7 ADD DUP10 LT ISZERO PUSH2 0x490 JUMPI DUP7 DUP8 REVERT JUMPDEST DUP7 SWAP5 POP JUMPDEST DUP4 DUP6 LT ISZERO PUSH2 0x4BA JUMPI PUSH2 0x4A6 DUP10 DUP3 PUSH2 0x3A5 JUMP JUMPDEST DUP4 MSTORE PUSH1 0x1 SWAP5 SWAP1 SWAP5 ADD SWAP4 SWAP2 DUP6 ADD SWAP2 DUP6 ADD PUSH2 0x494 JUMP JUMPDEST POP SWAP8 SWAP7 POP POP POP POP POP POP POP JUMP JUMPDEST PUSH1 0x0 PUSH1 0x20 DUP3 DUP5 SUB SLT ISZERO PUSH2 0x4D7 JUMPI DUP1 DUP2 REVERT JUMPDEST DUP2 MLOAD PUSH8 0xFFFFFFFFFFFFFFFF DUP1 DUP3 GT ISZERO PUSH2 0x4EE JUMPI DUP3 DUP4 REVERT JUMPDEST DUP2 DUP5 ADD SWAP2 POP DUP5 PUSH1 0x1F DUP4 ADD SLT PUSH2 0x501 JUMPI DUP3 DUP4 REVERT JUMPDEST DUP2 MLOAD DUP2 DUP2 GT ISZERO PUSH2 0x50F JUMPI DUP4 DUP5 REVERT JUMPDEST PUSH2 0x522 PUSH1 0x1F DUP3 ADD PUSH1 0x1F NOT AND PUSH1 0x20 ADD PUSH2 0x6A0 JUMP JUMPDEST SWAP2 POP DUP1 DUP3 MSTORE DUP6 PUSH1 0x20 DUP3 DUP6 ADD ADD GT ISZERO PUSH2 0x538 JUMPI DUP4 DUP5 REVERT JUMPDEST PUSH2 0x549 DUP2 PUSH1 0x20 DUP5 ADD PUSH1 0x20 DUP7 ADD PUSH2 0x6E7 JUMP JUMPDEST POP SWAP5 SWAP4 POP POP POP POP JUMP JUMPDEST PUSH1 0x0 PUSH1 0x20 DUP3 DUP5 SUB SLT ISZERO PUSH2 0x563 JUMPI DUP1 DUP2 REVERT JUMPDEST POP MLOAD SWAP2 SWAP1 POP JUMP JUMPDEST PUSH1 0x0 PUSH1 0x20 DUP3 DUP5 SUB SLT ISZERO PUSH2 0x57B JUMPI DUP1 DUP2 REVERT JUMPDEST DUP2 MLOAD PUSH1 0xFF DUP2 AND DUP2 EQ PUSH2 0x3DD JUMPI DUP2 DUP3 REVERT JUMPDEST PUSH1 0x0 DUP2 MLOAD DUP1 DUP5 MSTORE PUSH2 0x5A3 DUP2 PUSH1 0x20 DUP7 ADD PUSH1 0x20 DUP7 ADD PUSH2 0x6E7 JUMP JUMPDEST PUSH1 0x1F ADD PUSH1 0x1F NOT AND SWAP3 SWAP1 SWAP3 ADD PUSH1 0x20 ADD SWAP3 SWAP2 POP POP JUMP JUMPDEST PUSH1 0x0 PUSH1 0x1 DUP1 PUSH1 0xA0 SHL SUB DUP3 MLOAD AND DUP4 MSTORE PUSH1 0x20 DUP3 ADD MLOAD PUSH1 0x20 DUP5 ADD MSTORE PUSH1 0x40 DUP3 ADD MLOAD PUSH1 0x80 PUSH1 0x40 DUP6 ADD MSTORE PUSH2 0x5E8 PUSH1 0x80 DUP6 ADD DUP3 PUSH2 0x58B JUMP JUMPDEST SWAP1 POP PUSH1 0x60 DUP4 ADD MLOAD DUP5 DUP3 SUB PUSH1 0x60 DUP7 ADD MSTORE PUSH2 0x601 DUP3 DUP3 PUSH2 0x58B JUMP JUMPDEST SWAP6 SWAP5 POP POP POP POP POP JUMP JUMPDEST PUSH1 0x1 PUSH1 0x1 PUSH1 0xA0 SHL SUB SWAP3 DUP4 AND DUP2 MSTORE SWAP2 AND PUSH1 0x20 DUP3 ADD MSTORE PUSH1 0x40 ADD SWAP1 JUMP JUMPDEST PUSH1 0x0 PUSH1 0x20 DUP1 DUP4 ADD DUP2 DUP5 MSTORE DUP1 DUP6 MLOAD DUP1 DUP4 MSTORE PUSH1 0x40 DUP7 ADD SWAP2 POP PUSH1 0x40 DUP5 DUP3 MUL DUP8 ADD ADD SWAP3 POP DUP4 DUP8 ADD DUP6 JUMPDEST DUP3 DUP2 LT ISZERO PUSH2 0x677 JUMPI PUSH1 0x3F NOT DUP9 DUP7 SUB ADD DUP5 MSTORE PUSH2 0x665 DUP6 DUP4 MLOAD PUSH2 0x5B7 JUMP JUMPDEST SWAP5 POP SWAP3 DUP6 ADD SWAP3 SWAP1 DUP6 ADD SWAP1 PUSH1 0x1 ADD PUSH2 0x649 JUMP JUMPDEST POP SWAP3 SWAP8 SWAP7 POP POP POP POP POP POP POP JUMP JUMPDEST PUSH1 0x0 PUSH1 0x20 DUP3 MSTORE PUSH2 0x3DD PUSH1 0x20 DUP4 ADD DUP5 PUSH2 0x5B7 JUMP JUMPDEST SWAP1 DUP2 MSTORE PUSH1 0x20 ADD SWAP1 JUMP JUMPDEST PUSH1 0x40 MLOAD DUP2 DUP2 ADD PUSH8 0xFFFFFFFFFFFFFFFF DUP2 GT DUP3 DUP3 LT OR ISZERO PUSH2 0x6BF JUMPI PUSH1 0x0 DUP1 REVERT JUMPDEST PUSH1 0x40 MSTORE SWAP2 SWAP1 POP JUMP JUMPDEST PUSH1 0x0 PUSH8 0xFFFFFFFFFFFFFFFF DUP3 GT ISZERO PUSH2 0x6DD JUMPI DUP1 DUP2 REVERT JUMPDEST POP PUSH1 0x20 SWAP1 DUP2 MUL ADD SWAP1 JUMP JUMPDEST PUSH1 0x0 JUMPDEST DUP4 DUP2 LT ISZERO PUSH2 0x702 JUMPI DUP2 DUP2 ADD MLOAD DUP4 DUP3 ADD MSTORE PUSH1 0x20 ADD PUSH2 0x6EA JUMP JUMPDEST DUP4 DUP2 GT ISZERO PUSH2 0x711 JUMPI PUSH1 0x0 DUP5 DUP5 ADD MSTORE JUMPDEST POP POP POP POP JUMP INVALID LOG2 PUSH5 0x6970667358 0x22 SLT KECCAK256 DUP12 0xDC PUSH25 0x1D60ADEBAF8FDBD3363DEF0DA55F6014A2D0B15EC92F45F42F PUSH16 0xF9182264736F6C634300060C00330000 ",
  "sha1": "390cfdb26302af5b4919534fd00a094493854e63",
  "source": "// SPDX-License-Identifier: GPL-3.0-only\npragma solidity 0.6.12;\npragma experimental ABIEncoderV2;\n\nimport \"../Access/MISOAccessControls.sol\";\n\n//==================\n//    Uniswap V2       \n//==================\n\ninterface IUniswapFactory {\n    function getPair(address token0, address token1) external view returns (address);\n}\n\ninterface IUniswapPair {\n    function balanceOf(address owner) external view returns (uint);\n    function allowance(address owner) external view returns (uint);\n    function token0() external view returns (address);\n    function token1() external view returns (address);\n    function getReserves() external view returns (uint112 reserve0, uint112 reserve1, uint32 blockTimestampLast);\n    function price0CumulativeLast() external view returns (uint);\n    function price1CumulativeLast() external view returns (uint);\n    function kLast() external view returns (uint);\n}\n\n//==================\n//    Documents       \n//==================\n\ninterface IDocument {\n    function getDocument(string calldata _name) external view returns (string memory, uint256);\n    function getDocumentCount() external view returns (uint256);\n    function getDocumentName(uint256 index) external view returns (string memory);    \n}\n\ncontract DocumentHepler {\n    struct Document {\n        string name;\n        string data;\n        uint256 lastModified;\n    }\n\n    function getDocuments(address _document) public view returns(Document[] memory) {\n        IDocument document = IDocument(_document);\n        uint256 documentCount = document.getDocumentCount();\n\n        Document[] memory documents = new Document[](documentCount);\n\n        for(uint256 i = 0; i < documentCount; i++) {\n            string memory documentName = document.getDocumentName(i);\n            (\n                documents[i].data,\n                documents[i].lastModified\n            ) = document.getDocument(documentName);\n            documents[i].name = documentName;\n        }\n        return documents;\n    }\n}\n\n\n//==================\n//     Tokens\n//==================\n\ninterface IERC20 {\n    function balanceOf(address account) external view returns (uint256);\n    function allowance(address owner, address spender) external view returns (uint256);\n    function name() external view returns (string memory);\n    function symbol() external view returns (string memory);\n    function decimals() external view returns (uint8);\n}\n\ninterface IMisoTokenFactory {\n    function getTokens() external view returns (address[] memory);\n    function tokens(uint256) external view returns (address);\n    function numberOfTokens() external view returns (uint256);\n} \n\ncontract TokenHelper {\n    struct TokenInfo {\n        address addr;\n        uint256 decimals;\n        string name;\n        string symbol;\n    }\n\n    function getTokensInfo(address[] memory addresses) public view returns (TokenInfo[] memory)\n    {\n        TokenInfo[] memory infos = new TokenInfo[](addresses.length);\n\n        for (uint256 i = 0; i < addresses.length; i++) {\n            infos[i] = getTokenInfo(addresses[i]);\n        }\n\n        return infos;\n    }\n\n    function getTokenInfo(address _address) public view returns (TokenInfo memory) {\n        TokenInfo memory info;\n        IERC20 token = IERC20(_address);\n\n        info.addr = _address;\n        info.name = token.name();\n        info.symbol = token.symbol();\n        info.decimals = token.decimals();\n\n        return info;\n    }\n\n    function allowance(address _token, address _owner, address _spender) public view returns(uint256) {\n        return IERC20(_token).allowance(_owner, _spender);\n    }\n\n}\n\n\n//==================\n//      Base\n//==================\n\ncontract BaseHelper {\n    IMisoMarketFactory public market;\n    IMisoTokenFactory public tokenFactory;\n    IMisoFarmFactory public farmFactory;\n    address public launcher;\n\n    /// @notice Responsible for access rights to the contract\n    MISOAccessControls public accessControls;\n\n    function setContracts(\n        address _tokenFactory,\n        address _market,\n        address _launcher,\n        address _farmFactory\n    ) public {\n        require(\n            accessControls.hasAdminRole(msg.sender),\n            \"MISOHelper: Sender must be Admin\"\n        );\n        if (_market != address(0)) {\n            market = IMisoMarketFactory(_market);\n        }\n        if (_tokenFactory != address(0)) {\n            tokenFactory = IMisoTokenFactory(_tokenFactory);\n        }\n        if (_launcher != address(0)) {\n            launcher = _launcher;\n        }\n        if (_farmFactory != address(0)) {\n            farmFactory = IMisoFarmFactory(_farmFactory);\n        }\n    }\n}\n\n\n//==================\n//      Farms       \n//==================\n\ninterface IMisoFarmFactory {\n    function getTemplateId(address _farm) external view returns(uint256);\n    function numberOfFarms() external view returns(uint256);\n    function farms(uint256 _farmId) external view returns(address);\n}\n\ninterface IFarm {\n    function poolInfo(uint256 pid) external view returns(\n        address lpToken,\n        uint256 allocPoint,\n        uint256 lastRewardBlock,\n        uint256 accRewardsPerShare\n    );\n    function rewards() external view returns(address);\n    function poolLength() external view returns (uint256);\n    function rewardsPerBlock() external view returns (uint256);\n    function bonusMultiplier() external view returns (uint256);\n    function userInfo(uint256 pid, address _user) external view returns (uint256, uint256);\n    function pendingRewards(uint256 _pid, address _user) external view returns (uint256);\n}\n\ncontract FarmHelper is BaseHelper, TokenHelper {\n    struct FarmInfo {\n        address addr;\n        uint256 templateId;\n        uint256 rewardsPerBlock;\n        uint256 bonusMultiplier;\n        TokenInfo rewardToken;\n        PoolInfo[] pools;\n    }\n\n    struct PoolInfo {\n        address lpToken;\n        uint256 allocPoint;\n        uint256 lastRewardBlock;\n        uint256 accRewardsPerShare;\n        uint256 totalStaked;\n        TokenInfo stakingToken;\n    }\n\n    struct UserPoolInfo {\n        address farm;\n        uint256 pid;\n        uint256 totalStaked;\n        uint256 lpBalance;\n        uint256 lpAllowance;\n        uint256 rewardDebt;\n        uint256 pendingRewards;\n    }\n\n    struct UserPoolsInfo {\n        address farm;\n        uint256[] pids;\n        uint256[] totalStaked;\n        uint256[] pendingRewards;\n    }\n\n    function getPools(address _farm) public view returns(PoolInfo[] memory) {\n        IFarm farm = IFarm(_farm);\n        uint256 poolLength = farm.poolLength();\n        PoolInfo[] memory pools = new PoolInfo[](poolLength);\n        \n        for(uint256 i = 0; i < poolLength; i++) {\n            (\n                pools[i].lpToken,\n                pools[i].allocPoint,\n                pools[i].lastRewardBlock,\n                pools[i].accRewardsPerShare\n            ) = farm.poolInfo(i);\n            pools[i].totalStaked = IERC20(pools[i].lpToken).balanceOf(_farm);\n            pools[i].stakingToken = getTokenInfo(pools[i].lpToken);\n        }\n        return pools;\n    }\n\n\n    function getFarms() public view returns(FarmInfo[] memory) {\n        uint256 numberOfFarms = farmFactory.numberOfFarms();\n\n        FarmInfo[] memory infos = new FarmInfo[](numberOfFarms);\n\n        for (uint256 i = 0; i < numberOfFarms; i++) {\n            address farmAddr = farmFactory.farms(i);\n            uint256 templateId = farmFactory.getTemplateId(farmAddr);\n            infos[i] = _farmInfo(farmAddr);\n        }\n\n        return infos;\n    }\n\n    function getFarms(\n        uint256 pageSize,\n        uint256 pageNbr,\n        uint256 offset\n    ) public view returns(FarmInfo[] memory) {\n        uint256 numberOfFarms = farmFactory.numberOfFarms();\n        uint256 startIdx = (pageNbr * pageSize) + offset;\n        uint256 endIdx = startIdx + pageSize;\n\n        FarmInfo[] memory infos;\n\n        if (endIdx > numberOfFarms) {\n            endIdx = numberOfFarms;\n        }\n        if(endIdx < startIdx) {\n            return infos;\n        }\n        infos = new FarmInfo[](endIdx - startIdx);\n\n        for (uint256 farmIdx = 0; farmIdx + startIdx < endIdx; farmIdx++) {\n            address farmAddr = farmFactory.farms(farmIdx + startIdx);\n            infos[farmIdx] = _farmInfo(farmAddr);\n        }\n\n        return infos;\n    }\n\n    function getFarms(\n        uint256 pageSize,\n        uint256 pageNbr\n    ) public view returns(FarmInfo[] memory) {\n        return getFarms(pageSize, pageNbr, 0);\n    }\n\n    function _farmInfo(address _farmAddr) private view returns(FarmInfo memory farmInfo) {\n            IFarm farm = IFarm(_farmAddr);\n\n            farmInfo.addr = _farmAddr;\n            farmInfo.templateId = farmFactory.getTemplateId(_farmAddr);\n            farmInfo.rewardsPerBlock = farm.rewardsPerBlock();\n            farmInfo.bonusMultiplier = farm.bonusMultiplier();\n            farmInfo.rewardToken = getTokenInfo(farm.rewards());\n            farmInfo.pools = getPools(_farmAddr);\n    }\n\n    function getFarmDetail(address _farm, address _user) \n        public\n        view\n        returns(FarmInfo memory farmInfo, UserPoolInfo[] memory userInfos) \n    {\n        IFarm farm = IFarm(_farm);\n        farmInfo.addr = _farm;\n        farmInfo.templateId = farmFactory.getTemplateId(_farm);\n        farmInfo.rewardsPerBlock = farm.rewardsPerBlock();\n        farmInfo.bonusMultiplier = farm.bonusMultiplier();\n        farmInfo.rewardToken = getTokenInfo(farm.rewards());\n        farmInfo.pools = getPools(_farm);\n\n        if(_user != address(0)) {\n            PoolInfo[] memory pools = farmInfo.pools;\n            userInfos = new UserPoolInfo[](pools.length);\n            for(uint i = 0; i < pools.length; i++) {\n                UserPoolInfo memory userInfo = userInfos[i];\n                address stakingToken = pools[i].stakingToken.addr;\n                (userInfo.totalStaked, userInfo.rewardDebt) = farm.userInfo(i, _user);\n                userInfo.lpBalance = IERC20(stakingToken).balanceOf(_user);\n                userInfo.lpAllowance = IERC20(stakingToken).allowance(_user, _farm);\n                userInfo.pendingRewards = farm.pendingRewards(i, _user);\n                (userInfo.totalStaked,) = farm.userInfo(i, _user);\n                userInfo.farm = _farm;\n                userInfo.pid = i;\n                userInfos[i] = userInfo;\n            }\n        }\n        return (farmInfo, userInfos);\n    }\n\n    function getUserPoolsInfos(address _user) public view returns(UserPoolsInfo[] memory) {\n        uint256 numberOfFarms = farmFactory.numberOfFarms();\n\n        UserPoolsInfo[] memory infos = new UserPoolsInfo[](numberOfFarms);\n\n        for (uint256 i = 0; i < numberOfFarms; i++) {\n            address farmAddr = farmFactory.farms(i);\n            IFarm farm = IFarm(farmAddr);\n            uint256 poolLength = farm.poolLength();\n            uint256[] memory totalStaked = new uint256[](poolLength);\n            uint256[] memory pendingRewards = new uint256[](poolLength);\n            uint256[] memory pids = new uint256[](poolLength);\n\n            for(uint256 j = 0; j < poolLength; j++) {\n                (address stakingToken,,,) = farm.poolInfo(j);\n                (totalStaked[j],) = farm.userInfo(j, _user);\n                pendingRewards[j] = farm.pendingRewards(j, _user);\n                pids[j] = j;\n            }\n            infos[i].totalStaked = totalStaked;\n            infos[i].pendingRewards = pendingRewards;\n            infos[i].pids = pids;\n            infos[i].farm = farmAddr;\n        }\n        return infos;\n    }\n}\n\n//==================\n//     Markets       \n//==================\n\ninterface IBaseAuction {\n    function getBaseInformation() external view returns (\n            address auctionToken,\n            uint64 startTime,\n            uint64 endTime,\n            bool finalized\n        );\n}\n\ninterface IMisoMarketFactory {\n    function getMarketTemplateId(address _auction) external view returns(uint64);\n    function getMarkets() external view returns(address[] memory);\n    function numberOfAuctions() external view returns(uint256);\n    function auctions(uint256) external view returns(address);\n}\n\ninterface IMisoMarket {\n    function paymentCurrency() external view returns (address) ;\n    function auctionToken() external view returns (address) ;\n    function marketPrice() external view returns (uint128, uint128);\n    function marketInfo()\n        external\n        view\n        returns (\n        uint64 startTime,\n        uint64 endTime,\n        uint128 totalTokens\n        );\n    function auctionSuccessful() external view returns (bool);\n    function commitments(address user) external view returns (uint256);\n    function claimed(address user) external view returns (uint256);\n    function tokensClaimable(address user) external view returns (uint256);\n    function hasAdminRole(address user) external view returns (bool);\n}\n\ninterface ICrowdsale is IMisoMarket {\n    function marketStatus() external view returns(\n        uint128 commitmentsTotal,\n        bool finalized,\n        bool usePointList\n    );\n}\n\ninterface IDutchAuction is IMisoMarket {\n    function marketStatus() external view returns(\n        uint128 commitmentsTotal,\n        bool finalized,\n        bool usePointList\n    );\n    // function totalTokensCommitted() external view returns (uint256);\n    // function clearingPrice() external view returns (uint256);\n}\n\ninterface IBatchAuction is IMisoMarket {\n    function marketStatus() external view returns(\n        uint256 commitmentsTotal,\n        uint256 minimumCommitmentAmount,\n        bool finalized,\n        bool usePointList\n    );\n}\n\ninterface IHyperbolicAuction is IMisoMarket {\n    function marketStatus() external view returns(\n        uint128 commitmentsTotal,\n        bool finalized,\n        bool usePointList\n    );\n}\n\ncontract MarketHelper is BaseHelper, TokenHelper, DocumentHepler {\n\n    address constant ETH_ADDRESS = 0xEeeeeEeeeEeEeeEeEeEeeEEEeeeeEeeeeeeeEEeE;\n\n    struct CrowdsaleInfo {\n        address addr;\n        address paymentCurrency;\n        uint128 commitmentsTotal;\n        uint128 totalTokens;\n        uint128 rate;\n        uint128 goal;\n        uint64 startTime;\n        uint64 endTime;\n        bool finalized;\n        bool usePointList;\n        bool auctionSuccessful;\n        TokenInfo tokenInfo;\n        TokenInfo paymentCurrencyInfo;\n        Document[] documents;\n    }\n\n    struct DutchAuctionInfo {\n        address addr;\n        address paymentCurrency;\n        uint64 startTime;\n        uint64 endTime;\n        uint128 totalTokens;\n        uint128 startPrice;\n        uint128 minimumPrice;\n        uint128 commitmentsTotal;\n        // uint256 totalTokensCommitted;\n        bool finalized;\n        bool usePointList;\n        bool auctionSuccessful;\n        TokenInfo tokenInfo;\n        TokenInfo paymentCurrencyInfo;\n        Document[] documents;\n    }\n\n    struct BatchAuctionInfo {\n        address addr;\n        address paymentCurrency;\n        uint64 startTime;\n        uint64 endTime;\n        uint128 totalTokens;\n        uint256 commitmentsTotal;\n        uint256 minimumCommitmentAmount;\n        bool finalized;\n        bool usePointList;\n        bool auctionSuccessful;\n        TokenInfo tokenInfo;\n        TokenInfo paymentCurrencyInfo;\n        Document[] documents;\n    }\n\n    struct HyperbolicAuctionInfo {\n        address addr;\n        address paymentCurrency;\n        uint64 startTime;\n        uint64 endTime;\n        uint128 totalTokens;\n        uint128 minimumPrice;\n        uint128 alpha;\n        uint128 commitmentsTotal;\n        bool finalized;\n        bool usePointList;\n        bool auctionSuccessful;\n        TokenInfo tokenInfo;\n        TokenInfo paymentCurrencyInfo;\n        Document[] documents;\n    }\n\n    struct MarketBaseInfo {\n        address addr;\n        uint64 templateId;\n        uint64 startTime;\n        uint64 endTime;\n        bool finalized;\n        TokenInfo tokenInfo;\n    }\n\n    struct PLInfo {\n        TokenInfo token0;\n        TokenInfo token1;\n        address pairToken;\n        address operator;\n        uint256 locktime;\n        uint256 unlock;\n        uint256 deadline;\n        uint256 launchwindow;\n        uint256 expiry;\n        uint256 liquidityAdded;\n        uint256 launched;\n    }\n\n    struct UserMarketInfo {\n        uint256 commitments;\n        uint256 tokensClaimable;\n        uint256 claimed;\n        bool isAdmin;\n    }\n\n    function getMarkets(\n        uint256 pageSize,\n        uint256 pageNbr,\n        uint256 offset\n    ) public view returns (MarketBaseInfo[] memory) {\n        uint256 marketsLength = market.numberOfAuctions();\n        uint256 startIdx = (pageNbr * pageSize) + offset;\n        uint256 endIdx = startIdx + pageSize;\n        MarketBaseInfo[] memory infos;\n        if (endIdx > marketsLength) {\n            endIdx = marketsLength;\n        }\n        if(endIdx < startIdx) {\n            return infos;\n        }\n        infos = new MarketBaseInfo[](endIdx - startIdx);\n\n        for (uint256 marketIdx = 0; marketIdx + startIdx < endIdx; marketIdx++) {\n            address marketAddress = market.auctions(marketIdx + startIdx);\n            infos[marketIdx] = _getMarketInfo(marketAddress);\n        }\n\n        return infos;\n    }\n\n    function getMarkets(\n        uint256 pageSize,\n        uint256 pageNbr\n    ) public view returns (MarketBaseInfo[] memory) {\n        return getMarkets(pageSize, pageNbr, 0);\n    }\n\n    function getMarkets() public view returns (MarketBaseInfo[] memory) {\n        address[] memory markets = market.getMarkets();\n        MarketBaseInfo[] memory infos = new MarketBaseInfo[](markets.length);\n\n        for (uint256 i = 0; i < markets.length; i++) {\n            MarketBaseInfo memory marketInfo = _getMarketInfo(markets[i]);\n            infos[i] = marketInfo;\n        }\n\n        return infos;\n    }\n\n    function _getMarketInfo(address _marketAddress) private view returns (MarketBaseInfo memory marketInfo) {\n            uint64 templateId = market.getMarketTemplateId(_marketAddress);\n            address auctionToken;\n            uint64 startTime;\n            uint64 endTime;\n            bool finalized;\n            (auctionToken, startTime, endTime, finalized) = IBaseAuction(_marketAddress)\n                .getBaseInformation();\n            TokenInfo memory tokenInfo = getTokenInfo(auctionToken);\n\n            marketInfo.addr = _marketAddress;\n            marketInfo.templateId = templateId;\n            marketInfo.startTime = startTime;\n            marketInfo.endTime = endTime;\n            marketInfo.finalized = finalized;\n            marketInfo.tokenInfo = tokenInfo;  \n    }\n\n    function getCrowdsaleInfo(address _crowdsale) public view returns (CrowdsaleInfo memory) {\n        ICrowdsale crowdsale = ICrowdsale(_crowdsale);\n        CrowdsaleInfo memory info;\n\n        info.addr = address(crowdsale);\n        (info.commitmentsTotal, info.finalized, info.usePointList) = crowdsale.marketStatus();\n        (info.startTime, info.endTime, info.totalTokens) = crowdsale.marketInfo();\n        (info.rate, info.goal) = crowdsale.marketPrice();\n        (info.auctionSuccessful) = crowdsale.auctionSuccessful();\n        info.tokenInfo = getTokenInfo(crowdsale.auctionToken());\n\n        address paymentCurrency = crowdsale.paymentCurrency();\n        TokenInfo memory paymentCurrencyInfo;\n        if(paymentCurrency == ETH_ADDRESS) {\n            paymentCurrencyInfo = _getETHInfo();\n        } else {\n            paymentCurrencyInfo = getTokenInfo(paymentCurrency);\n        }\n        info.paymentCurrencyInfo = paymentCurrencyInfo;\n\n        info.documents = getDocuments(_crowdsale);\n\n        return info;\n    }\n\n    function getDutchAuctionInfo(address payable _dutchAuction) public view returns (DutchAuctionInfo memory)\n    {\n        IDutchAuction dutchAuction = IDutchAuction(_dutchAuction);\n        DutchAuctionInfo memory info;\n\n        info.addr = address(dutchAuction);\n        (info.startTime, info.endTime, info.totalTokens) = dutchAuction.marketInfo();\n        (info.startPrice, info.minimumPrice) = dutchAuction.marketPrice();\n        (info.auctionSuccessful) = dutchAuction.auctionSuccessful();\n        (\n            info.commitmentsTotal,\n            info.finalized,\n            info.usePointList\n        ) = dutchAuction.marketStatus();\n        info.tokenInfo = getTokenInfo(dutchAuction.auctionToken());\n\n        address paymentCurrency = dutchAuction.paymentCurrency();\n        TokenInfo memory paymentCurrencyInfo;\n        if(paymentCurrency == ETH_ADDRESS) {\n            paymentCurrencyInfo = _getETHInfo();\n        } else {\n            paymentCurrencyInfo = getTokenInfo(paymentCurrency);\n        }\n        info.paymentCurrencyInfo = paymentCurrencyInfo;\n        info.documents = getDocuments(_dutchAuction);\n\n        return info;\n    }\n\n    function getBatchAuctionInfo(address payable _batchAuction) public view returns (BatchAuctionInfo memory) \n    {\n        IBatchAuction batchAuction = IBatchAuction(_batchAuction);\n        BatchAuctionInfo memory info;\n        \n        info.addr = address(batchAuction);\n        (info.startTime, info.endTime, info.totalTokens) = batchAuction.marketInfo();\n        (info.auctionSuccessful) = batchAuction.auctionSuccessful();\n        (\n            info.commitmentsTotal,\n            info.minimumCommitmentAmount,\n            info.finalized,\n            info.usePointList\n        ) = batchAuction.marketStatus();\n        info.tokenInfo = getTokenInfo(batchAuction.auctionToken());\n        address paymentCurrency = batchAuction.paymentCurrency();\n        TokenInfo memory paymentCurrencyInfo;\n        if(paymentCurrency == ETH_ADDRESS) {\n            paymentCurrencyInfo = _getETHInfo();\n        } else {\n            paymentCurrencyInfo = getTokenInfo(paymentCurrency);\n        }\n        info.paymentCurrencyInfo = paymentCurrencyInfo;\n        info.documents = getDocuments(_batchAuction);\n\n        return info;\n    }\n\n    function getHyperbolicAuctionInfo(address payable _hyperbolicAuction) public view returns (HyperbolicAuctionInfo memory)\n    {\n        IHyperbolicAuction hyperbolicAuction = IHyperbolicAuction(_hyperbolicAuction);\n        HyperbolicAuctionInfo memory info;\n\n        info.addr = address(hyperbolicAuction);\n        (info.startTime, info.endTime, info.totalTokens) = hyperbolicAuction.marketInfo();\n        (info.minimumPrice, info.alpha) = hyperbolicAuction.marketPrice();\n        (info.auctionSuccessful) = hyperbolicAuction.auctionSuccessful();\n        (\n            info.commitmentsTotal,\n            info.finalized,\n            info.usePointList\n        ) = hyperbolicAuction.marketStatus();\n        info.tokenInfo = getTokenInfo(hyperbolicAuction.auctionToken());\n        \n        address paymentCurrency = hyperbolicAuction.paymentCurrency();\n        TokenInfo memory paymentCurrencyInfo;\n        if(paymentCurrency == ETH_ADDRESS) {\n            paymentCurrencyInfo = _getETHInfo();\n        } else {\n            paymentCurrencyInfo = getTokenInfo(paymentCurrency);\n        }\n        info.paymentCurrencyInfo = paymentCurrencyInfo;\n        info.documents = getDocuments(_hyperbolicAuction);\n\n        return info;\n    }\n\n    function getUserMarketInfo(address _action, address _user) public view returns(UserMarketInfo memory userInfo) {\n        IMisoMarket market = IMisoMarket(_action);\n        userInfo.commitments = market.commitments(_user);\n        userInfo.tokensClaimable = market.tokensClaimable(_user);\n        userInfo.claimed = market.claimed(_user);\n        userInfo.isAdmin = market.hasAdminRole(_user);\n    }\n\n    function _getETHInfo() private pure returns(TokenInfo memory token) {\n            token.addr = ETH_ADDRESS;\n            token.name = \"ETHEREUM\";\n            token.symbol = \"ETH\";\n            token.decimals = 18;\n    }\n\n}\n\ncontract MISOHelper is MarketHelper, FarmHelper {\n\n    constructor(\n        address _accessControls,\n        address _tokenFactory,\n        address _market,\n        address _launcher,\n        address _farmFactory\n    ) public { \n        require(_accessControls != address(0));\n        accessControls = MISOAccessControls(_accessControls);\n        tokenFactory = IMisoTokenFactory(_tokenFactory);\n        market = IMisoMarketFactory(_market);\n        launcher = _launcher;\n        farmFactory = IMisoFarmFactory(_farmFactory);\n    }\n\n    function getTokens() public view returns(TokenInfo[] memory) {\n        address[] memory tokens = tokenFactory.getTokens();\n        TokenInfo[] memory infos = getTokensInfo(tokens);\n\n        infos = getTokensInfo(tokens);\n\n        return infos;\n    }\n\n    function getTokens(\n        uint256 pageSize,\n        uint256 pageNbr,\n        uint256 offset\n    ) public view returns(TokenInfo[] memory) {\n        uint256 tokensLength = tokenFactory.numberOfTokens();\n\n        uint256 startIdx = (pageNbr * pageSize) + offset;\n        uint256 endIdx = startIdx + pageSize;\n        TokenInfo[] memory infos;\n        if (endIdx > tokensLength) {\n            endIdx = tokensLength;\n        }\n        if(endIdx < startIdx) {\n            return infos;\n        }\n        infos = new TokenInfo[](endIdx - startIdx);\n\n        for (uint256 tokenIdx = 0; tokenIdx + startIdx < endIdx; tokenIdx++) {\n            address tokenAddress = tokenFactory.tokens(tokenIdx + startIdx);\n            infos[tokenIdx] = getTokenInfo(tokenAddress);\n        }\n\n        return infos;\n    }\n\n    function getTokens(\n        uint256 pageSize,\n        uint256 pageNbr\n    ) public view returns(TokenInfo[] memory) {\n        return getTokens(pageSize, pageNbr, 0);\n    }\n\n}\n",
  "sourcePath": "contracts/Helper/MISOHelper.sol",
  "type": "contract"
}