{"bytecode":"608060405234801561001057600080fd5b506001600555614a97806100256000396000f3fe6080604052600436106103e85760003560e01c80638a845fc011610208578063c92bce8711610118578063dde51f6d116100ab578063f04899d31161007a578063f04899d314610b43578063f08b82e614610b58578063f5b541a614610b6d578063f910691314610b82578063fc4e3e0a14610ba2576103f7565b8063dde51f6d14610abe578063e0e081d714610ade578063e6594abd14610b03578063e8fcf72314610b23576103f7565b8063d547741f116100e7578063d547741f14610a3e578063d69d3e6214610a5e578063dc97e08214610a7e578063dccfe31014610a9e576103f7565b8063c92bce87146109c8578063ca15c873146109e8578063d2423b5114610a08578063d539139314610a29576103f7565b80639c64d0ae1161019b578063b3f05b971161016a578063b3f05b9714610933578063b7928b1d14610948578063c395fcb314610968578063c6b547e614610988578063c884ef83146109a8576103f7565b80639c64d0ae146108bc5780639fa5f50b146108dc578063a217fddf146108fe578063adbf377614610913576103f7565b806391d14854116101d757806391d14854146108475780639478941c1461086757806399fdb320146108875780639a87222c1461089c576103f7565b80638a845fc0146107dd5780638d8f2adb146107fd5780638fa8b790146108125780639010d07c14610827576103f7565b806349df728c116103035780636ae260c1116102965780637ccb6a64116102655780637ccb6a64146107505780637ff9b5961461077e57806381353c8e14610793578063857d2608146107b357806386433374146107c8576103f7565b80636ae260c1146106ce57806374cf9fc5146106ee5780637525b0bd146107105780637c516e9414610730576103f7565b80634ddf47d4116102d25780634ddf47d414610666578063521eb2731461067957806354f1e1261461068e5780636595171c146106ae576103f7565b806349df728c146105f15780634b3e6abb146106115780634bb278f3146106315780634dc80e1514610646576103f7565b80632f2ff15d1161037b5780633b33fe731161034a5780633b33fe731461057a5780633d15cc6d1461059a5780633d1c2273146105bc5780633f16431a146105d1576103f7565b80632f2ff15d14610500578063314148e21461052057806336568abe1461054557806336d0054b14610565576103f7565b80631b3e460e116103b75780631b3e460e1461048b578063212f8a81146104ad578063248a9ca3146104cd57806329762960146104ed576103f7565b8063031bee00146103fc578063099db01714610429578063113b0ab2146104565780631702645514610476576103f7565b366103f7576103f5610bc2565b005b600080fd5b34801561040857600080fd5b50610411610be3565b604051610420939291906147cc565b60405180910390f35b34801561043557600080fd5b506104496104443660046133e1565b610c10565b6040516104209190613b5c565b34801561046257600080fd5b506104496104713660046133e1565b610c32565b34801561048257600080fd5b50610449610c4c565b34801561049757600080fd5b506104a0610c6a565b6040516104209190613b67565b3480156104b957600080fd5b506103f56104c83660046134e7565b610c6f565b3480156104d957600080fd5b506104a06104e8366004613611565b610d2e565b6103f56104fb3660046134af565b610d43565b34801561050c57600080fd5b506103f561051b366004613629565b610de9565b34801561052c57600080fd5b50610535610e2d565b6040516104209493929190613a30565b34801561055157600080fd5b506103f5610560366004613629565b610e5e565b34801561057157600080fd5b50610449610ea0565b34801561058657600080fd5b506103f5610595366004613611565b610ed6565b3480156105a657600080fd5b506105af610f72565b6040516104209190613945565b3480156105c857600080fd5b506104a0610f81565b3480156105dd57600080fd5b506103f56105ec3660046133e1565b610f87565b3480156105fd57600080fd5b506103f561060c3660046133e1565b610fe9565b34801561061d57600080fd5b506103f561062c3660046135d9565b61115c565b34801561063d57600080fd5b506103f5611188565b34801561065257600080fd5b506104a06106613660046133e1565b611332565b6103f561067436600461366e565b610de5565b34801561068557600080fd5b506105af611438565b34801561069a57600080fd5b506103f56106a93660046133e1565b611447565b3480156106ba57600080fd5b506103f56106c93660046133e1565b6114a9565b3480156106da57600080fd5b506103f56106e936600461364d565b6114fe565b3480156106fa57600080fd5b5061070361165d565b6040516104209190613b70565b34801561071c57600080fd5b506103f561072b366004613404565b611680565b34801561073c57600080fd5b506103f561074b3660046136ad565b6119b6565b34801561075c57600080fd5b5061077061076b36600461366e565b611a2a565b604051610420929190613bb2565b34801561078a57600080fd5b506104a0611b17565b34801561079f57600080fd5b506103f56107ae36600461366e565b611b50565b3480156107bf57600080fd5b506104a0611b8d565b3480156107d457600080fd5b50610449611b9f565b3480156107e957600080fd5b506103f56107f83660046133e1565b611bb7565b34801561080957600080fd5b506103f5611c19565b34801561081e57600080fd5b506103f5611c24565b34801561083357600080fd5b506105af61084236600461364d565b611d1d565b34801561085357600080fd5b50610449610862366004613629565b611d3e565b34801561087357600080fd5b506103f56108823660046133e1565b611d56565b34801561089357600080fd5b506105af611db8565b3480156108a857600080fd5b506103f56108b73660046133e1565b611dc7565b3480156108c857600080fd5b506103f56108d736600461372f565b611e4a565b3480156108e857600080fd5b506108f1611e6e565b6040516104209190613afc565b34801561090a57600080fd5b506104a0611f46565b34801561091f57600080fd5b506103f561092e3660046133e1565b611f4b565b34801561093f57600080fd5b50610449611fad565b34801561095457600080fd5b506103f56109633660046133e1565b611fb6565b34801561097457600080fd5b506104496109833660046133e1565b612018565b34801561099457600080fd5b506107036109a3366004613611565b612024565b3480156109b457600080fd5b506104a06109c33660046133e1565b6120ef565b3480156109d457600080fd5b506103f56109e3366004613571565b612101565b3480156109f457600080fd5b506104a0610a03366004613611565b612173565b610a1b610a16366004613528565b61218a565b604051610420929190613a62565b348015610a3557600080fd5b506104a061231a565b348015610a4a57600080fd5b506103f5610a59366004613629565b61232c565b348015610a6a57600080fd5b506103f5610a793660046133e1565b612366565b348015610a8a57600080fd5b506103f5610a9936600461383d565b612384565b348015610aaa57600080fd5b506103f5610ab93660046133e1565b61238f565b348015610aca57600080fd5b506103f5610ad936600461366e565b6123e4565b348015610aea57600080fd5b50610af3612400565b6040516104209493929190614793565b348015610b0f57600080fd5b506103f5610b1e3660046133e1565b61242a565b348015610b2f57600080fd5b506104a0610b3e3660046133e1565b61248d565b348015610b4f57600080fd5b506105af61249f565b348015610b6457600080fd5b506104a06124ae565b348015610b7957600080fd5b506104a06124c4565b348015610b8e57600080fd5b50610703610b9d366004613404565b6124d6565b348015610bae57600080fd5b50610449610bbd3660046133e1565b61251a565b60405162461bcd60e51b8152600401610bda90613e50565b60405180910390fd5b6006546001600160401b0380821691600160401b810490911690600160801b90046001600160801b031683565b6000610c2a6000805160206148e783398151915283611d3e565b90505b919050565b6000610c2a6000805160206148a783398151915283611d3e565b60065442600160401b9091046001600160401b031662093a80011090565b600381565b60026005541415610c925760405162461bcd60e51b8152600401610bda90614626565b6002600555600a546001600160a01b031673eeeeeeeeeeeeeeeeeeeeeeeeeeeeeeeeeeeeeeee1415610cd65760405162461bcd60e51b8152600401610bda9061465d565b80610ce357610ce3610bc2565b60008211610d035760405162461bcd60e51b8152600401610bda90614420565b600a54610d1a906001600160a01b03163384612534565b610d248383612611565b5050600160055550565b60009081526020819052604090206002015490565b600a546001600160a01b031673eeeeeeeeeeeeeeeeeeeeeeeeeeeeeeeeeeeeeeee14610d815760405162461bcd60e51b8152600401610bda9061438f565b60003411610da15760405162461bcd60e51b8152600401610bda90614420565b80610dae57610dae610bc2565b610db88234612611565b600754476001600160801b039091161115610de55760405162461bcd60e51b8152600401610bda90613dfd565b5050565b600082815260208190526040902060020154610e07906108626127bd565b610e235760405162461bcd60e51b8152600401610bda90613cfc565b610de582826127c1565b6009546006546008546001600160a01b03909216926001600160401b0380831693600160401b909304169160ff1690565b610e666127bd565b6001600160a01b0316816001600160a01b031614610e965760405162461bcd60e51b8152600401610bda90614716565b610de5828261282a565b6007546000906001600160801b03600160801b82048116911610801590610ed157506007546001600160801b031615155b905090565b610edf33612018565b610ee857600080fd5b6007546001600160801b031615610f115760405162461bcd60e51b8152600401610bda906142bc565b610f1a81612893565b600780546001600160801b03928316600160801b0292169190911790556040517f1fd3f6b4312b53d1521fb9dab5af66131ff5b6141870420ded20e5ffb42f6cf290610f67908390613b67565b60405180910390a150565b600a546001600160a01b031681565b60045490565b610f9f6000805160206148a783398151915282610de9565b610fa76127bd565b6001600160a01b0316816001600160a01b03167f1d5f9ec24c6f91be922ea13ceaad919ad6554a41b5c26087f96289a9baf98ad260405160405180910390a350565b6002600554141561100c5760405162461bcd60e51b8152600401610bda90614626565b6002600555611019610ea0565b156110c25760085460ff166110405760405162461bcd60e51b8152600401610bda90614238565b600061104b82611332565b90506000811161106d5760405162461bcd60e51b8152600401610bda906146e1565b6001600160a01b0382166000908152600e602052604090205461109090826128c0565b6001600160a01b038084166000908152600e60205260409020919091556009546110bc911683836128e3565b50611154565b600654600160401b90046001600160401b031642116110f35760405162461bcd60e51b8152600401610bda90614171565b6001600160a01b0381166000908152600d6020526040902054806111295760405162461bcd60e51b8152600401610bda90614105565b6001600160a01b038083166000908152600d6020526040812055600a54611152911683836128e3565b505b506001600555565b61116533612018565b61116e57600080fd5b600880549115156101000261ff0019909216919091179055565b600260055414156111ab5760405162461bcd60e51b8152600401610bda90614626565b60026005556111b933612018565b806111ce5750600c546001600160a01b031633145b806111dd57506111dd33610c32565b806111eb57506111eb610c4c565b6112075760405162461bcd60e51b8152600401610bda906144d9565b60085460ff161561122a5760405162461bcd60e51b8152600401610bda90613db2565b600654600160801b90046001600160801b03166112595760405162461bcd60e51b8152600401610bda9061405e565b600654600160401b90046001600160401b0316421161128a5760405162461bcd60e51b8152600401610bda90614171565b611292610ea0565b156112c557600a54600c546007546112c0926001600160a01b039081169216906001600160801b03166128e3565b6112f5565b600954600c546006546112f5926001600160a01b03908116921690600160801b90046001600160801b03166128e3565b6008805460ff191660011790556040517f32bebcfd2d04dbae321298091d96d2cb1d07279f59718cd83bd98245b8b82b5a90600090a16001600555565b6001600160a01b0381166000908152600d602052604081205461135757506000610c2d565b6009546040516370a0823160e01b81526000916001600160a01b0316906370a0823190611388903090600401613945565b60206040518083038186803b1580156113a057600080fd5b505afa1580156113b4573d6000803e3d6000fd5b505050506040513d601f19601f820116820180604052508101906113d89190613825565b6001600160a01b0384166000908152600d60205260409020549091506113fd90612927565b6001600160a01b0384166000908152600e602052604090205490925061142490839061295f565b915080821115611432578091505b50919050565b600c546001600160a01b031681565b61145f6000805160206148e78339815191528261232c565b6114676127bd565b6001600160a01b0316816001600160a01b03167f56692a161ffec953ddf9def93b958ea8d1ec95e21b80870c66be91a4374dc4e360405160405180910390a350565b6114b4600082610de9565b6114bc6127bd565b6001600160a01b0316816001600160a01b03167f2570ac42fd8b322dc453ada624dc2ed0e9bdd67f16f201a25bbd30468f2aa18760405160405180910390a350565b61150733612018565b61151057600080fd5b6402540be40082106115345760405162461bcd60e51b8152600401610bda90613d4b565b6402540be40081106115585760405162461bcd60e51b8152600401610bda90613d4b565b428210156115785760405162461bcd60e51b8152600401610bda906145d7565b8181116115975760405162461bcd60e51b8152600401610bda90613f82565b6007546001600160801b0316156115c05760405162461bcd60e51b8152600401610bda906142bc565b6115c982612982565b6006805467ffffffffffffffff19166001600160401b03929092169190911790556115f381612982565b600680546001600160401b0392909216600160401b0267ffffffffffffffff60401b199092169190911790556040517f5725d1e4352d6944889e54837ffaefde55cdc0b55796b831365d61cd4c87fdb89061165190849084906147be565b60405180910390a15050565b606060405180610180016040528061015b815260200161490761015b9139905090565b6402540be40086106116a45760405162461bcd60e51b8152600401610bda90613d4b565b428710156116c45760405162461bcd60e51b8152600401610bda906145d7565b8686116116e35760405162461bcd60e51b8152600401610bda90613eff565b600088116117035760405162461bcd60e51b8152600401610bda906141e4565b6001600160a01b0383166117295760405162461bcd60e51b8152600401610bda90614087565b6001600160a01b03811661174f5760405162461bcd60e51b8152600401610bda906143d8565b886001600160a01b031663313ce5676040518163ffffffff1660e01b815260040160206040518083038186803b15801561178857600080fd5b505afa15801561179c573d6000803e3d6000fd5b505050506040513d601f19601f820116820180604052508101906117c09190613861565b60ff166012146117e25760405162461bcd60e51b8152600401610bda9061426f565b6001600160a01b03851673eeeeeeeeeeeeeeeeeeeeeeeeeeeeeeeeeeeeeeee14611899576000856001600160a01b031663313ce5676040518163ffffffff1660e01b815260040160206040518083038186803b15801561184157600080fd5b505afa158015611855573d6000803e3d6000fd5b505050506040513d601f19601f820116820180604052508101906118799190613861565b60ff16116118995760405162461bcd60e51b8152600401610bda9061430d565b6118a284612893565b600780546001600160801b03928316600160801b0292169190911790556118c887612982565b6006805467ffffffffffffffff19166001600160401b03929092169190911790556118f286612982565b600680546001600160401b0392909216600160401b0267ffffffffffffffff60401b1990921691909117905561192788612893565b600680546001600160801b03928316600160801b029216919091179055600980546001600160a01b03808c166001600160a01b031992831617909255600a8054888416908316179055600c80549284169290911691909117905561198a8361242a565b611993826129ab565b6009546119aa906001600160a01b03168b8a612534565b50505050505050505050565b60405163d505accf60e01b81526001600160a01b0389169063d505accf906119ee908a908a908a908a908a908a908a906004016139d6565b600060405180830381600087803b158015611a0857600080fd5b505af1158015611a1c573d6000803e3d6000fd5b505050505050505050505050565b6060600060028484604051611a409291906138a9565b908152602001604051809103902060010160028585604051611a639291906138a9565b908152604080516020928190038301812054845460026101006001831615026000190190911604601f810185900485028301850190935282825264010000000090046001600160401b03169290918491830182828015611b045780601f10611ad957610100808354040283529160200191611b04565b820191906000526020600020905b815481529060010190602001808311611ae757829003601f168201915b50505050509150915091505b9250929050565b600654600754600091610ed1916001600160801b03600160801b909204821691611b4a9116670de0b6b3a76400006129e9565b90612a20565b6000808080808080808080611b678b8d018d613404565b9950995099509950995099509950995099509950611a1c8a8a8a8a8a8a8a8a8a8a611680565b6000805160206148a783398151915281565b600654600160401b90046001600160401b0316421190565b611bcf6000805160206148a78339815191528261232c565b611bd76127bd565b6001600160a01b0316816001600160a01b03167fe5f1aa9e528307345194b88b24a32401c13926e0823060f1049d9b26c0bb62b260405160405180910390a350565b611c2233610fe9565b565b60026005541415611c475760405162461bcd60e51b8152600401610bda90614626565b6002600555611c5533612018565b611c5e57600080fd5b60085460079060ff1615611c845760405162461bcd60e51b8152600401610bda90613ec8565b80546001600160801b031615611cac5760405162461bcd60e51b8152600401610bda90614552565b600954600c54600654611cdc926001600160a01b03908116921690600160801b90046001600160801b03166128e3565b6001818101805460ff191690911790556040517fa5fb31e47bd1eca58bf14a3312d5e6aeafdc4ee787c8ed348c15c2b092324d9390600090a1506001600555565b6000828152602081905260408120611d359083612a52565b90505b92915050565b6000828152602081905260408120611d359083612a5e565b611d6e6000805160206148c78339815191528261232c565b611d766127bd565b6001600160a01b0316816001600160a01b03167f70b25138b6fadeb9992d18b9653564271823e34b3e3257515d12a6d4b15fcddf60405160405180910390a350565b6009546001600160a01b031681565b611dd033612018565b611dd957600080fd5b6001600160a01b038116611dff5760405162461bcd60e51b8152600401610bda906143d8565b600c80546001600160a01b0319166001600160a01b0383161790556040517f34ae2bad9265f0212d4cf341708b8250949164bb54f9d0e4f442024f83bb2f9090610f67908390613945565b611e5333612018565b611e5c57600080fd5b611e6884848484612a73565b50505050565b60606004805480602002602001604051908101604052809291908181526020016000905b82821015611f3d5760008481526020908190208301805460408051601f6002600019610100600187161502019094169390930492830185900485028101850190915281815292830182828015611f295780601f10611efe57610100808354040283529160200191611f29565b820191906000526020600020905b815481529060010190602001808311611f0c57829003601f168201915b505050505081526020019060010190611e92565b50505050905090565b600081565b611f636000805160206148e783398151915282610de9565b611f6b6127bd565b6001600160a01b0316816001600160a01b03167f0be6ab9784c7401fafb73f7bc47bc67cc4ef8c47a60ad3cb66d1de0353a0784c60405160405180910390a350565b60085460ff1690565b611fce6000805160206148c783398151915282610de9565b611fd66127bd565b6001600160a01b0316816001600160a01b03167f2d45ee102874989882745a26688d0b4fffee125a18df26536b12582c7fde4e1760405160405180910390a350565b6000610c2a8183611d3e565b60045460609082106120485760405162461bcd60e51b8152600401610bda906144ac565b6004828154811061205557fe5b600091825260209182902001805460408051601f60026000196101006001871615020190941693909304928301859004850281018501909152818152928301828280156120e35780601f106120b8576101008083540402835291602001916120e3565b820191906000526020600020905b8154815290600101906020018083116120c657829003601f168201915b50505050509050919050565b600e6020526000908152604090205481565b61210a33612018565b61211357600080fd5b8260005b8181101561216b5761216386868381811061212e57fe5b905060200281019061214091906147f8565b86868581811061214c57fe5b905060200281019061215e91906147f8565b612a73565b600101612117565b505050505050565b6000818152602081905260408120610c2a90612cc5565b606080836001600160401b03811180156121a357600080fd5b506040519080825280602002602001820160405280156121cd578160200160208202803683370190505b509150836001600160401b03811180156121e657600080fd5b5060405190808252806020026020018201604052801561221a57816020015b60608152602001906001900390816122055790505b50905060005b8481101561231157600060603088888581811061223957fe5b905060200281019061224b91906147f8565b6040516122599291906138a9565b600060405180830381855af49150503d8060008114612294576040519150601f19603f3d011682016040523d82523d6000602084013e612299565b606091505b509150915081806122a8575085155b6122b182612cd0565b906122cf5760405162461bcd60e51b8152600401610bda9190613b70565b50818584815181106122dd57fe5b602002602001019015159081151581525050808484815181106122fc57fe5b60209081029190910101525050600101612220565b50935093915050565b6000805160206148e783398151915281565b60008281526020819052604090206002015461234a906108626127bd565b610e965760405162461bcd60e51b8152600401610bda9061400e565b61236f33612018565b61237857600080fd5b612381816129ab565b50565b610de5338383610c6f565b61239a60008261232c565b6123a26127bd565b6001600160a01b0316816001600160a01b03167f21ba1239795d4e22874e3dc55f0a9d7b65bfb23069d32965d7c23be9524ccf9560405160405180910390a350565b6123ed33612018565b6123f657600080fd5b610de58282612d30565b6007546008546001600160801b0380831692600160801b9004169060ff8082169161010090041684565b60015460ff161561244d5760405162461bcd60e51b8152600401610bda90613c8d565b6001600160a01b0381166124735760405162461bcd60e51b8152600401610bda906141bb565b61247e600082610e23565b506001805460ff191681179055565b600d6020526000908152604090205481565b600b546001600160a01b031681565b600654600160801b90046001600160801b031690565b6000805160206148c783398151915281565b60608a8a8a8a8a8a8a8a8a8a6040516020016124fb9a9998979695949392919061397d565b60405160208183030381529060405290509a9950505050505050505050565b6000610c2a6000805160206148c783398151915283611d3e565b60006060846001600160a01b03166323b872dd85308660405160240161255c93929190613959565b6040516020818303038152906040529060e01b6020820180516001600160e01b03838183161783525050505060405161259591906138b9565b6000604051808303816000865af19150503d80600081146125d2576040519150601f19603f3d011682016040523d82523d6000602084013e6125d7565b606091505b509150915081801561260157508051158061260157508080602001905181019061260191906135f5565b61260a57600080fd5b5050505050565b6006546001600160401b0316421080159061263e5750600654600160401b90046001600160401b03164211155b61265a5760405162461bcd60e51b8152600401610bda90614594565b6001600160a01b0382166000908152600d602052604081205461267d90836128c0565b600854909150610100900460ff161561271b57600b54604051631cd53d5560e01b81526001600160a01b0390911690631cd53d55906126c29086908590600401613a17565b60206040518083038186803b1580156126da57600080fd5b505afa1580156126ee573d6000803e3d6000fd5b505050506040513d601f19601f8201168201806040525081019061271291906135f5565b61271b57600080fd5b6001600160a01b0383166000908152600d6020526040902081905560075461275590612750906001600160801b0316846128c0565b612893565b600780546fffffffffffffffffffffffffffffffff19166001600160801b03929092169190911790556040517f077511a636ba1f10551cc7b89c13ff66a6ac9344e8a917527817a9690b15af7a906127b09085908590613a17565b60405180910390a1505050565b3390565b60008281526020819052604090206127d99082612f61565b15610de5576127e66127bd565b6001600160a01b0316816001600160a01b0316837f2f8788117e7eff1d82e926ec794901d17c78024a50270940304540a733656f0d60405160405180910390a45050565b60008281526020819052604090206128429082612f76565b15610de55761284f6127bd565b6001600160a01b0316816001600160a01b0316837ff6391f5c32d9c69d2a47ea670b442974b53935d1edc7fd64eb21e047a839171b60405160405180910390a45050565b60006001600160801b038211156128bc5760405162461bcd60e51b8152600401610bda90613fd7565b5090565b81810181811015611d385760405162461bcd60e51b8152600401610bda906140ce565b6001600160a01b03831673eeeeeeeeeeeeeeeeeeeeeeeeeeeeeeeeeeeeeeee1415612917576129128282612f8b565b612922565b612922838383613018565b505050565b6007546000906001600160801b031661294257506000610c2d565b610c2a61294d611b17565b611b4a84670de0b6b3a76400006129e9565b80820382811115611d385760405162461bcd60e51b8152600401610bda90613c5e565b60006001600160401b038211156128bc5760405162461bcd60e51b8152600401610bda90614358565b6001600160a01b0381161561238157600b80546001600160a01b0383166001600160a01b03199091161790556008805461ff00191661010017905550565b6000811580612a0457505080820282828281612a0157fe5b04145b611d385760405162461bcd60e51b8152600401610bda906146aa565b6000808211612a415760405162461bcd60e51b8152600401610bda90614765565b818381612a4a57fe5b049392505050565b6000611d35838361303e565b6000611d35836001600160a01b038416613083565b82612a905760405162461bcd60e51b8152600401610bda9061413a565b80612aad5760405162461bcd60e51b8152600401610bda9061451b565b60006001600160401b031660028585604051612aca9291906138a9565b908152604051908190036020019020546001600160401b03640100000000909104161415612b705760048054600181018255600091909152612b2f907f8a35acfbc15ff81a39ae7d344fd709f28e8600b4aa8c65c6b64bfe7fe36bd19b0185856131af565b50600454604051600290612b4690879087906138a9565b908152604051908190036020019020805463ffffffff9290921663ffffffff199092169190911790555b604051806060016040528060028686604051612b8d9291906138a9565b90815260408051602092819003830190205463ffffffff168352426001600160401b0316838301528051601f860183900483028101830182528581529201919085908590819084018382808284376000920191909152505050915250604051600290612bfc90879087906138a9565b9081526040805191829003602090810190922083518154858501516001600160401b0316640100000000026bffffffffffffffff000000001963ffffffff90931663ffffffff1990921691909117919091161781559083015180519192612c6b92600185019290910190613229565b5050604051612c7e9150859085906138a9565b60405180910390207fbaa206e5ea800eb88bce099f453fee53295b793b9d5d1cfc4ce4b6db06a34f538383604051612cb7929190613b83565b60405180910390a250505050565b6000610c2a8261309b565b6060604482511015612d16575060408051808201909152601d81527f5472616e73616374696f6e2072657665727465642073696c656e746c790000006020820152610c2d565b60048201915081806020019051810190610c2a919061378b565b60006001600160401b031660028383604051612d4d9291906138a9565b908152604051908190036020019020546001600160401b03640100000000909104161415612d8d5760405162461bcd60e51b8152600401610bda90613f53565b6000600160028484604051612da39291906138a9565b9081526040519081900360200190205460045463ffffffff918216929092039250821660001990910114612e8457600480546000198101908110612de357fe5b9060005260206000200160048263ffffffff1681548110612e0057fe5b906000526020600020019080546001816001161561010002031660029004612e29929190613297565b5080600101600260048363ffffffff1681548110612e4357fe5b90600052602060002001604051612e5a91906138d5565b908152604051908190036020019020805463ffffffff9290921663ffffffff199092169190911790555b6004805480612e8f57fe5b600190038181906000526020600020016000612eab919061330c565b90558282604051612ebd9291906138a9565b60405180910390207f4b5338540b4d1c0f6dd0308a25f633b7ff60472f894d711cff9dd64e35c613b260028585604051612ef89291906138a9565b9081526020016040518091039020600101604051612f169190613bd4565b60405180910390a260028383604051612f309291906138a9565b90815260405190819003602001902080546bffffffffffffffffffffffff19168155600061260a600183018261330c565b6000611d35836001600160a01b03841661309f565b6000611d35836001600160a01b0384166130e9565b604080516000808252602082019092526001600160a01b038416908390604051612fb591906138b9565b60006040518083038185875af1925050503d8060008114612ff2576040519150601f19603f3d011682016040523d82523d6000602084013e612ff7565b606091505b50509050806129225760405162461bcd60e51b8152600401610bda90614469565b60006060846001600160a01b031663a9059cbb858560405160240161255c929190613a17565b815460009082106130615760405162461bcd60e51b8152600401610bda90613cba565b82600001828154811061307057fe5b9060005260206000200154905092915050565b60009081526001919091016020526040902054151590565b5490565b60006130ab8383613083565b6130e157508154600181810184556000848152602080822090930184905584548482528286019093526040902091909155611d38565b506000611d38565b600081815260018301602052604081205480156131a5578354600019808301919081019060009087908390811061311c57fe5b906000526020600020015490508087600001848154811061313957fe5b60009182526020808320909101929092558281526001898101909252604090209084019055865487908061316957fe5b60019003818190600052602060002001600090559055866001016000878152602001908152602001600020600090556001945050505050611d38565b6000915050611d38565b828054600181600116156101000203166002900490600052602060002090601f016020900481019282601f106131f05782800160ff1982351617855561321d565b8280016001018555821561321d579182015b8281111561321d578235825591602001919060010190613202565b506128bc92915061334c565b828054600181600116156101000203166002900490600052602060002090601f016020900481019282601f1061326a57805160ff191683800117855561321d565b8280016001018555821561321d579182015b8281111561321d57825182559160200191906001019061327c565b828054600181600116156101000203166002900490600052602060002090601f016020900481019282601f106132d0578054855561321d565b8280016001018555821561321d57600052602060002091601f016020900482015b8281111561321d5782548255916001019190600101906132f1565b50805460018160011615610100020316600290046000825580601f106133325750612381565b601f01602090049060005260206000209081019061238191905b5b808211156128bc576000815560010161334d565b60008083601f840112613372578182fd5b5081356001600160401b03811115613388578182fd5b6020830191508360208083028501011115611b1057600080fd5b60008083601f8401126133b3578182fd5b5081356001600160401b038111156133c9578182fd5b602083019150836020828501011115611b1057600080fd5b6000602082840312156133f2578081fd5b81356133fd81614874565b9392505050565b6000806000806000806000806000806101408b8d031215613423578586fd5b8a3561342e81614874565b995060208b013561343e81614874565b985060408b0135975060608b0135965060808b0135955060a08b013561346381614874565b945060c08b0135935060e08b013561347a81614874565b92506101008b013561348b81614874565b91506101208b013561349c81614874565b809150509295989b9194979a5092959850565b600080604083850312156134c1578182fd5b82356134cc81614874565b915060208301356134dc81614889565b809150509250929050565b6000806000606084860312156134fb578283fd5b833561350681614874565b925060208401359150604084013561351d81614889565b809150509250925092565b60008060006040848603121561353c578081fd5b83356001600160401b03811115613551578182fd5b61355d86828701613361565b909450925050602084013561351d81614889565b60008060008060408587031215613586578182fd5b84356001600160401b038082111561359c578384fd5b6135a888838901613361565b909650945060208701359150808211156135c0578384fd5b506135cd87828801613361565b95989497509550505050565b6000602082840312156135ea578081fd5b81356133fd81614889565b600060208284031215613606578081fd5b81516133fd81614889565b600060208284031215613622578081fd5b5035919050565b6000806040838503121561363b578182fd5b8235915060208301356134dc81614874565b6000806040838503121561365f578182fd5b50508035926020909101359150565b60008060208385031215613680578182fd5b82356001600160401b03811115613695578283fd5b6136a1858286016133a2565b90969095509350505050565b600080600080600080600080610100898b0312156136c9578182fd5b88356136d481614874565b975060208901356136e481614874565b965060408901356136f481614874565b9550606089013594506080890135935060a089013561371281614897565b979a969950949793969295929450505060c08201359160e0013590565b60008060008060408587031215613744578182fd5b84356001600160401b038082111561375a578384fd5b613766888389016133a2565b9096509450602087013591508082111561377e578384fd5b506135cd878288016133a2565b60006020828403121561379c578081fd5b81516001600160401b03808211156137b2578283fd5b818401915084601f8301126137c5578283fd5b8151818111156137d3578384fd5b604051601f8201601f1916810160200183811182821017156137f3578586fd5b60405281815283820160200187101561380a578485fd5b61381b826020830160208701614848565b9695505050505050565b600060208284031215613836578081fd5b5051919050565b6000806040838503121561384f578182fd5b8235915060208301356134dc81614889565b600060208284031215613872578081fd5b81516133fd81614897565b60008151808452613895816020860160208601614848565b601f01601f19169290920160200192915050565b6000828483379101908152919050565b600082516138cb818460208701614848565b9190910192915050565b60008083546001808216600081146138f4576001811461390b5761393a565b60ff198316865260028304607f168601935061393a565b600283048786526020808720875b838110156139325781548a820152908501908201613919565b505050860193505b509195945050505050565b6001600160a01b0391909116815260200190565b6001600160a01b039384168152919092166020820152604081019190915260600190565b6001600160a01b039a8b168152988a1660208a015260408901979097526060880195909552608087019390935290861660a086015260c0850152841660e084015283166101008301529091166101208201526101400190565b6001600160a01b0397881681529590961660208601526040850193909352606084019190915260ff16608083015260a082015260c081019190915260e00190565b6001600160a01b03929092168252602082015260400190565b6001600160a01b039490941684526001600160401b039283166020850152911660408301521515606082015260800190565b604080825283519082018190526000906020906060840190828701845b82811015613a9d578151151584529284019290840190600101613a7f565b50505083810382850152808551613ab48184613b67565b91508192508381028201848801865b83811015613aed578583038552613adb83835161387d565b94870194925090860190600101613ac3565b50909998505050505050505050565b6000602080830181845280855180835260408601915060408482028701019250838701855b82811015613b4f57603f19888603018452613b3d85835161387d565b94509285019290850190600101613b21565b5092979650505050505050565b901515815260200190565b90815260200190565b600060208252611d35602083018461387d565b60006020825282602083015282846040840137818301604090810191909152601f909201601f19160101919050565b600060408252613bc5604083018561387d565b90508260208301529392505050565b60006020808301818452828554600180821660008114613bfb5760018114613c1957613c51565b60028304607f16855260ff1983166040890152606088019350613c51565b60028304808652613c298a61483c565b885b82811015613c475781548b820160400152908401908801613c2b565b8a01604001955050505b5091979650505050505050565b602080825260159082015274426f72696e674d6174683a20556e646572666c6f7760581b604082015260600190565b602080825260139082015272105b1c9958591e481a5b9a5d1a585b1a5cd959606a1b604082015260600190565b60208082526022908201527f456e756d657261626c655365743a20696e646578206f7574206f6620626f756e604082015261647360f01b606082015260800190565b6020808252602f908201527f416363657373436f6e74726f6c3a2073656e646572206d75737420626520616e60408201526e0818591b5a5b881d1bc819dc985b9d608a1b606082015260800190565b60208082526041908201527f426174636841756374696f6e3a20656e74657220616e20756e69782074696d6560408201527f7374616d7020696e207365636f6e64732c206e6f74206d696c697365636f6e646060820152607360f81b608082015260a00190565b6020808252602b908201527f426174636841756374696f6e3a2041756374696f6e2068617320616c7265616460408201526a1e48199a5b985b1a5e995960aa1b606082015260800190565b60208082526033908201527f426174636841756374696f6e3a2054686520636f6d6d6974746564204554482060408201527265786365656473207468652062616c616e636560681b606082015260800190565b60208082526052908201527f4e6f2061677265656d656e742070726f76696465642c20706c6561736520726560408201527f766965772074686520736d61727420636f6e7472616374206265666f726520696060820152711b9d195c9858dd1a5b99c81dda5d1a081a5d60721b608082015260a00190565b6020808252601f908201527f426174636841756374696f6e3a20616c72656164792066696e616c697a656400604082015260600190565b60208082526034908201527f426174636841756374696f6e3a20656e642074696d65206d757374206265206f6040820152736c646572207468616e2073746172742074696d6560601b606082015260800190565b602080825260159082015274111bd8dd5b595b9d081cda1bdd5b1908195e1a5cdd605a1b604082015260600190565b60208082526035908201527f426174636841756374696f6e3a20656e642074696d65206d757374206265206f6040820152746c646572207468616e20737461727420707269636560581b606082015260800190565b6020808252601c908201527f426f72696e674d6174683a2075696e74313238204f766572666c6f7700000000604082015260600190565b60208082526030908201527f416363657373436f6e74726f6c3a2073656e646572206d75737420626520616e60408201526f2061646d696e20746f207265766f6b6560801b606082015260800190565b6020808252600f908201526e139bdd081a5b9a5d1a585b1a5e9959608a1b604082015260600190565b60208082526027908201527f426174636841756374696f6e3a2061646d696e20697320746865207a65726f206040820152666164647265737360c81b606082015260800190565b60208082526018908201527f426f72696e674d6174683a20416464204f766572666c6f770000000000000000604082015260600190565b6020808252818101527f426174636841756374696f6e3a204e6f2066756e647320636f6d6d6974746564604082015260600190565b60208082526018908201527f5a65726f206e616d65206973206e6f7420616c6c6f7765640000000000000000604082015260600190565b6020808252602a908201527f426174636841756374696f6e3a2041756374696f6e20686173206e6f742066696040820152691b9a5cda1959081e595d60b21b606082015260800190565b6020808252600f908201526e125b98dbdc9c9958dd081a5b9c1d5d608a1b604082015260600190565b60208082526034908201527f426174636841756374696f6e3a20746f74616c20746f6b656e73206d7573742060408201527362652067726561746572207468616e207a65726f60601b606082015260800190565b6020808252601b908201527f426174636841756374696f6e3a206e6f742066696e616c697a65640000000000604082015260600190565b6020808252602d908201527f426174636841756374696f6e3a20546f6b656e20646f6573206e6f742068617660408201526c6520313820646563696d616c7360981b606082015260800190565b60208082526031908201527f426174636841756374696f6e3a2061756374696f6e2063616e6e6f74206861766040820152701948185b1c9958591e481cdd185c9d1959607a1b606082015260800190565b6020808252602b908201527f426174636841756374696f6e3a205061796d656e742063757272656e6379206960408201526a073206e6f742045524332360ac1b606082015260800190565b6020808252601b908201527f426f72696e674d6174683a2075696e743634204f766572666c6f770000000000604082015260600190565b60208082526029908201527f426174636841756374696f6e3a207061796d656e742063757272656e637920696040820152680e640dcdee8408aa8960bb1b606082015260800190565b60208082526028908201527f426174636841756374696f6e3a2077616c6c657420697320746865207a65726f604082015267206164647265737360c01b606082015260800190565b60208082526029908201527f426174636841756374696f6e3a2056616c7565206d757374206265206869676860408201526806572207468616e20360bc1b606082015260800190565b60208082526023908201527f5472616e7366657248656c7065723a204554485f5452414e534645525f46414960408201526213115160ea1b606082015260800190565b602080825260139082015272496e646578206f7574206f6620626f756e647360681b604082015260600190565b60208082526022908201527f426174636841756374696f6e3a2053656e646572206d7573742062652061646d60408201526134b760f11b606082015260800190565b6020808252601a908201527f53686f756c64206e6f74206265206120656d7074792064617461000000000000604082015260600190565b60208082526022908201527f426174636841756374696f6e3a2046756e647320616c72656164792072616973604082015261195960f21b606082015260800190565b60208082526023908201527f426174636841756374696f6e3a206f7574736964652061756374696f6e20686f60408201526275727360e81b606082015260800190565b6020808252602f908201527f426174636841756374696f6e3a2073746172742074696d65206973206265666f60408201526e72652063757272656e742074696d6560881b606082015260800190565b6020808252601f908201527f5265656e7472616e637947756172643a207265656e7472616e742063616c6c00604082015260600190565b6020808252602d908201527f426174636841756374696f6e3a205061796d656e742063757272656e6379206960408201526c39903737ba1030903a37b5b2b760991b606082015260800190565b60208082526018908201527f426f72696e674d6174683a204d756c204f766572666c6f770000000000000000604082015260600190565b6020808252818101527f426174636841756374696f6e3a204e6f20746f6b656e7320746f20636c61696d604082015260600190565b6020808252602f908201527f416363657373436f6e74726f6c3a2063616e206f6e6c792072656e6f756e636560408201526e103937b632b9903337b91039b2b63360891b606082015260800190565b602080825260149082015273426f72696e674d6174683a20446976207a65726f60601b604082015260600190565b6001600160801b03948516815292909316602083015215156040820152901515606082015260800190565b918252602082015260400190565b6001600160401b0393841681529190921660208201526001600160801b03909116604082015260600190565b6000808335601e1984360301811261480e578283fd5b8301803591506001600160401b03821115614827578283fd5b602001915036819003821315611b1057600080fd5b60009081526020902090565b60005b8381101561486357818101518382015260200161484b565b83811115611e685750506000910152565b6001600160a01b038116811461238157600080fd5b801515811461238157600080fd5b60ff8116811461238157600080fdfe9d49f397ae9ef1a834b569acb967799a367061e305932181a44f5773da873bfd97667070c54ef182b0f5858b034beac1b6f3089aa2d3188bb1e8929f4fa9b9299f2df0fed2c77648de5860a4cc508cd0818c85b8b8a1ab4ceeef8d981c8956a64920756e6465727374616e642074686174204920616d20696e746572616374696e672077697468206120736d61727420636f6e74726163742e204920756e6465727374616e64207468617420746f6b656e7320636f6d6d6974656420617265207375626a65637420746f2074686520746f6b656e2069737375657220616e64206c6f63616c206c617773207768657265206170706c696361626c652e204920686176652072657669657765642074686520636f6465206f66207468697320736d61727420636f6e747261637420616e6420756e6465727374616e642069742066756c6c792e204920616772656520746f206e6f7420686f6c6420646576656c6f70657273206f72206f746865722070656f706c65206173736f6369617465642077697468207468652070726f6a656374206c6961626c6520666f7220616e79206c6f73736573206f72206d6973756e6465727374616e64696e6773a2646970667358221220ccf15e7ea4d62de55a170db01f4ae52f112628b8bd424468742f3cdac4710f6664736f6c634300060c0033","bytecodeSha1":"468757d864644eb4260043cd4075d51c3e33d55f","type":"contract","abi":[{"anonymous":false,"inputs":[{"indexed":false,"internalType":"address","name":"addr","type":"address"},{"indexed":false,"internalType":"uint256","name":"commitment","type":"uint256"}],"name":"AddedCommitment","type":"event"},{"anonymous":false,"inputs":[{"indexed":true,"internalType":"address","name":"beneficiary","type":"address"},{"indexed":true,"internalType":"address","name":"caller","type":"address"}],"name":"AdminRoleGranted","type":"event"},{"anonymous":false,"inputs":[{"indexed":true,"internalType":"address","name":"beneficiary","type":"address"},{"indexed":true,"internalType":"address","name":"caller","type":"address"}],"name":"AdminRoleRemoved","type":"event"},{"anonymous":false,"inputs":[],"name":"AuctionCancelled","type":"event"},{"anonymous":false,"inputs":[],"name":"AuctionFinalized","type":"event"},{"anonymous":false,"inputs":[{"indexed":false,"internalType":"uint256","name":"minimumCommitmentAmount","type":"uint256"}],"name":"AuctionPriceUpdated","type":"event"},{"anonymous":false,"inputs":[{"indexed":false,"internalType":"uint256","name":"startTime","type":"uint256"},{"indexed":false,"internalType":"uint256","name":"endTime","type":"uint256"}],"name":"AuctionTimeUpdated","type":"event"},{"anonymous":false,"inputs":[{"indexed":false,"internalType":"address","name":"wallet","type":"address"}],"name":"AuctionWalletUpdated","type":"event"},{"anonymous":false,"inputs":[{"indexed":true,"internalType":"string","name":"_name","type":"string"},{"indexed":false,"internalType":"string","name":"_data","type":"string"}],"name":"DocumentRemoved","type":"event"},{"anonymous":false,"inputs":[{"indexed":true,"internalType":"string","name":"_name","type":"string"},{"indexed":false,"internalType":"string","name":"_data","type":"string"}],"name":"DocumentUpdated","type":"event"},{"anonymous":false,"inputs":[{"indexed":true,"internalType":"address","name":"beneficiary","type":"address"},{"indexed":true,"internalType":"address","name":"caller","type":"address"}],"name":"MinterRoleGranted","type":"event"},{"anonymous":false,"inputs":[{"indexed":true,"internalType":"address","name":"beneficiary","type":"address"},{"indexed":true,"internalType":"address","name":"caller","type":"address"}],"name":"MinterRoleRemoved","type":"event"},{"anonymous":false,"inputs":[{"indexed":true,"internalType":"address","name":"beneficiary","type":"address"},{"indexed":true,"internalType":"address","name":"caller","type":"address"}],"name":"OperatorRoleGranted","type":"event"},{"anonymous":false,"inputs":[{"indexed":true,"internalType":"address","name":"beneficiary","type":"address"},{"indexed":true,"internalType":"address","name":"caller","type":"address"}],"name":"OperatorRoleRemoved","type":"event"},{"anonymous":false,"inputs":[{"indexed":true,"internalType":"bytes32","name":"role","type":"bytes32"},{"indexed":true,"internalType":"bytes32","name":"previousAdminRole","type":"bytes32"},{"indexed":true,"internalType":"bytes32","name":"newAdminRole","type":"bytes32"}],"name":"RoleAdminChanged","type":"event"},{"anonymous":false,"inputs":[{"indexed":true,"internalType":"bytes32","name":"role","type":"bytes32"},{"indexed":true,"internalType":"address","name":"account","type":"address"},{"indexed":true,"internalType":"address","name":"sender","type":"address"}],"name":"RoleGranted","type":"event"},{"anonymous":false,"inputs":[{"indexed":true,"internalType":"bytes32","name":"role","type":"bytes32"},{"indexed":true,"internalType":"address","name":"account","type":"address"},{"indexed":true,"internalType":"address","name":"sender","type":"address"}],"name":"RoleRevoked","type":"event"},{"anonymous":false,"inputs":[{"indexed":true,"internalType":"address","name":"beneficiary","type":"address"},{"indexed":true,"internalType":"address","name":"caller","type":"address"}],"name":"SmartContractRoleGranted","type":"event"},{"anonymous":false,"inputs":[{"indexed":true,"internalType":"address","name":"beneficiary","type":"address"},{"indexed":true,"internalType":"address","name":"caller","type":"address"}],"name":"SmartContractRoleRemoved","type":"event"},{"inputs":[],"name":"DEFAULT_ADMIN_ROLE","outputs":[{"internalType":"bytes32","name":"","type":"bytes32"}],"stateMutability":"view","type":"function"},{"inputs":[],"name":"MINTER_ROLE","outputs":[{"internalType":"bytes32","name":"","type":"bytes32"}],"stateMutability":"view","type":"function"},{"inputs":[],"name":"OPERATOR_ROLE","outputs":[{"internalType":"bytes32","name":"","type":"bytes32"}],"stateMutability":"view","type":"function"},{"inputs":[],"name":"SMART_CONTRACT_ROLE","outputs":[{"internalType":"bytes32","name":"","type":"bytes32"}],"stateMutability":"view","type":"function"},{"inputs":[{"internalType":"address","name":"_address","type":"address"}],"name":"addAdminRole","outputs":[],"stateMutability":"nonpayable","type":"function"},{"inputs":[{"internalType":"address","name":"_address","type":"address"}],"name":"addMinterRole","outputs":[],"stateMutability":"nonpayable","type":"function"},{"inputs":[{"internalType":"address","name":"_address","type":"address"}],"name":"addOperatorRole","outputs":[],"stateMutability":"nonpayable","type":"function"},{"inputs":[{"internalType":"address","name":"_address","type":"address"}],"name":"addSmartContractRole","outputs":[],"stateMutability":"nonpayable","type":"function"},{"inputs":[],"name":"auctionEnded","outputs":[{"internalType":"bool","name":"","type":"bool"}],"stateMutability":"view","type":"function"},{"inputs":[],"name":"auctionSuccessful","outputs":[{"internalType":"bool","name":"","type":"bool"}],"stateMutability":"view","type":"function"},{"inputs":[],"name":"auctionToken","outputs":[{"internalType":"address","name":"","type":"address"}],"stateMutability":"view","type":"function"},{"inputs":[{"internalType":"bytes[]","name":"calls","type":"bytes[]"},{"internalType":"bool","name":"revertOnFail","type":"bool"}],"name":"batch","outputs":[{"internalType":"bool[]","name":"successes","type":"bool[]"},{"internalType":"bytes[]","name":"results","type":"bytes[]"}],"stateMutability":"payable","type":"function"},{"inputs":[],"name":"cancelAuction","outputs":[],"stateMutability":"nonpayable","type":"function"},{"inputs":[{"internalType":"address","name":"","type":"address"}],"name":"claimed","outputs":[{"internalType":"uint256","name":"","type":"uint256"}],"stateMutability":"view","type":"function"},{"inputs":[{"internalType":"address payable","name":"_beneficiary","type":"address"},{"internalType":"bool","name":"readAndAgreedToMarketParticipationAgreement","type":"bool"}],"name":"commitEth","outputs":[],"stateMutability":"payable","type":"function"},{"inputs":[{"internalType":"uint256","name":"_amount","type":"uint256"},{"internalType":"bool","name":"readAndAgreedToMarketParticipationAgreement","type":"bool"}],"name":"commitTokens","outputs":[],"stateMutability":"nonpayable","type":"function"},{"inputs":[{"internalType":"address","name":"_from","type":"address"},{"internalType":"uint256","name":"_amount","type":"uint256"},{"internalType":"bool","name":"readAndAgreedToMarketParticipationAgreement","type":"bool"}],"name":"commitTokensFrom","outputs":[],"stateMutability":"nonpayable","type":"function"},{"inputs":[{"internalType":"address","name":"","type":"address"}],"name":"commitments","outputs":[{"internalType":"uint256","name":"","type":"uint256"}],"stateMutability":"view","type":"function"},{"inputs":[{"internalType":"bool","name":"_status","type":"bool"}],"name":"enableList","outputs":[],"stateMutability":"nonpayable","type":"function"},{"inputs":[],"name":"finalize","outputs":[],"stateMutability":"nonpayable","type":"function"},{"inputs":[],"name":"finalizeTimeExpired","outputs":[{"internalType":"bool","name":"","type":"bool"}],"stateMutability":"view","type":"function"},{"inputs":[],"name":"finalized","outputs":[{"internalType":"bool","name":"","type":"bool"}],"stateMutability":"view","type":"function"},{"inputs":[],"name":"getAllDocuments","outputs":[{"internalType":"string[]","name":"","type":"string[]"}],"stateMutability":"view","type":"function"},{"inputs":[],"name":"getBaseInformation","outputs":[{"internalType":"address","name":"token","type":"address"},{"internalType":"uint64","name":"startTime","type":"uint64"},{"internalType":"uint64","name":"endTime","type":"uint64"},{"internalType":"bool","name":"marketFinalized","type":"bool"}],"stateMutability":"view","type":"function"},{"inputs":[{"internalType":"address","name":"_funder","type":"address"},{"internalType":"address","name":"_token","type":"address"},{"internalType":"uint256","name":"_totalTokens","type":"uint256"},{"internalType":"uint256","name":"_startTime","type":"uint256"},{"internalType":"uint256","name":"_endTime","type":"uint256"},{"internalType":"address","name":"_paymentCurrency","type":"address"},{"internalType":"uint256","name":"_minimumCommitmentAmount","type":"uint256"},{"internalType":"address","name":"_admin","type":"address"},{"internalType":"address","name":"_pointList","type":"address"},{"internalType":"address payable","name":"_wallet","type":"address"}],"name":"getBatchAuctionInitData","outputs":[{"internalType":"bytes","name":"_data","type":"bytes"}],"stateMutability":"pure","type":"function"},{"inputs":[{"internalType":"string","name":"_name","type":"string"}],"name":"getDocument","outputs":[{"internalType":"string","name":"","type":"string"},{"internalType":"uint256","name":"","type":"uint256"}],"stateMutability":"view","type":"function"},{"inputs":[],"name":"getDocumentCount","outputs":[{"internalType":"uint256","name":"","type":"uint256"}],"stateMutability":"view","type":"function"},{"inputs":[{"internalType":"uint256","name":"_index","type":"uint256"}],"name":"getDocumentName","outputs":[{"internalType":"string","name":"","type":"string"}],"stateMutability":"view","type":"function"},{"inputs":[{"internalType":"bytes32","name":"role","type":"bytes32"}],"name":"getRoleAdmin","outputs":[{"internalType":"bytes32","name":"","type":"bytes32"}],"stateMutability":"view","type":"function"},{"inputs":[{"internalType":"bytes32","name":"role","type":"bytes32"},{"internalType":"uint256","name":"index","type":"uint256"}],"name":"getRoleMember","outputs":[{"internalType":"address","name":"","type":"address"}],"stateMutability":"view","type":"function"},{"inputs":[{"internalType":"bytes32","name":"role","type":"bytes32"}],"name":"getRoleMemberCount","outputs":[{"internalType":"uint256","name":"","type":"uint256"}],"stateMutability":"view","type":"function"},{"inputs":[],"name":"getTotalTokens","outputs":[{"internalType":"uint256","name":"","type":"uint256"}],"stateMutability":"view","type":"function"},{"inputs":[{"internalType":"bytes32","name":"role","type":"bytes32"},{"internalType":"address","name":"account","type":"address"}],"name":"grantRole","outputs":[],"stateMutability":"nonpayable","type":"function"},{"inputs":[{"internalType":"address","name":"_address","type":"address"}],"name":"hasAdminRole","outputs":[{"internalType":"bool","name":"","type":"bool"}],"stateMutability":"view","type":"function"},{"inputs":[{"internalType":"address","name":"_address","type":"address"}],"name":"hasMinterRole","outputs":[{"internalType":"bool","name":"","type":"bool"}],"stateMutability":"view","type":"function"},{"inputs":[{"internalType":"address","name":"_address","type":"address"}],"name":"hasOperatorRole","outputs":[{"internalType":"bool","name":"","type":"bool"}],"stateMutability":"view","type":"function"},{"inputs":[{"internalType":"bytes32","name":"role","type":"bytes32"},{"internalType":"address","name":"account","type":"address"}],"name":"hasRole","outputs":[{"internalType":"bool","name":"","type":"bool"}],"stateMutability":"view","type":"function"},{"inputs":[{"internalType":"address","name":"_address","type":"address"}],"name":"hasSmartContractRole","outputs":[{"internalType":"bool","name":"","type":"bool"}],"stateMutability":"view","type":"function"},{"inputs":[{"internalType":"bytes","name":"_data","type":"bytes"}],"name":"init","outputs":[],"stateMutability":"payable","type":"function"},{"inputs":[{"internalType":"address","name":"_admin","type":"address"}],"name":"initAccessControls","outputs":[],"stateMutability":"nonpayable","type":"function"},{"inputs":[{"internalType":"address","name":"_funder","type":"address"},{"internalType":"address","name":"_token","type":"address"},{"internalType":"uint256","name":"_totalTokens","type":"uint256"},{"internalType":"uint256","name":"_startTime","type":"uint256"},{"internalType":"uint256","name":"_endTime","type":"uint256"},{"internalType":"address","name":"_paymentCurrency","type":"address"},{"internalType":"uint256","name":"_minimumCommitmentAmount","type":"uint256"},{"internalType":"address","name":"_admin","type":"address"},{"internalType":"address","name":"_pointList","type":"address"},{"internalType":"address payable","name":"_wallet","type":"address"}],"name":"initAuction","outputs":[],"stateMutability":"nonpayable","type":"function"},{"inputs":[{"internalType":"bytes","name":"_data","type":"bytes"}],"name":"initMarket","outputs":[],"stateMutability":"nonpayable","type":"function"},{"inputs":[],"name":"marketInfo","outputs":[{"internalType":"uint64","name":"startTime","type":"uint64"},{"internalType":"uint64","name":"endTime","type":"uint64"},{"internalType":"uint128","name":"totalTokens","type":"uint128"}],"stateMutability":"view","type":"function"},{"inputs":[],"name":"marketParticipationAgreement","outputs":[{"internalType":"string","name":"","type":"string"}],"stateMutability":"pure","type":"function"},{"inputs":[],"name":"marketStatus","outputs":[{"internalType":"uint128","name":"commitmentsTotal","type":"uint128"},{"internalType":"uint128","name":"minimumCommitmentAmount","type":"uint128"},{"internalType":"bool","name":"finalized","type":"bool"},{"internalType":"bool","name":"usePointList","type":"bool"}],"stateMutability":"view","type":"function"},{"inputs":[],"name":"marketTemplate","outputs":[{"internalType":"uint256","name":"","type":"uint256"}],"stateMutability":"view","type":"function"},{"inputs":[],"name":"paymentCurrency","outputs":[{"internalType":"address","name":"","type":"address"}],"stateMutability":"view","type":"function"},{"inputs":[{"internalType":"contract IERC20","name":"token","type":"address"},{"internalType":"address","name":"from","type":"address"},{"internalType":"address","name":"to","type":"address"},{"internalType":"uint256","name":"amount","type":"uint256"},{"internalType":"uint256","name":"deadline","type":"uint256"},{"internalType":"uint8","name":"v","type":"uint8"},{"internalType":"bytes32","name":"r","type":"bytes32"},{"internalType":"bytes32","name":"s","type":"bytes32"}],"name":"permitToken","outputs":[],"stateMutability":"nonpayable","type":"function"},{"inputs":[],"name":"pointList","outputs":[{"internalType":"address","name":"","type":"address"}],"stateMutability":"view","type":"function"},{"inputs":[{"internalType":"address","name":"_address","type":"address"}],"name":"removeAdminRole","outputs":[],"stateMutability":"nonpayable","type":"function"},{"inputs":[{"internalType":"string","name":"_name","type":"string"}],"name":"removeDocument","outputs":[],"stateMutability":"nonpayable","type":"function"},{"inputs":[{"internalType":"address","name":"_address","type":"address"}],"name":"removeMinterRole","outputs":[],"stateMutability":"nonpayable","type":"function"},{"inputs":[{"internalType":"address","name":"_address","type":"address"}],"name":"removeOperatorRole","outputs":[],"stateMutability":"nonpayable","type":"function"},{"inputs":[{"internalType":"address","name":"_address","type":"address"}],"name":"removeSmartContractRole","outputs":[],"stateMutability":"nonpayable","type":"function"},{"inputs":[{"internalType":"bytes32","name":"role","type":"bytes32"},{"internalType":"address","name":"account","type":"address"}],"name":"renounceRole","outputs":[],"stateMutability":"nonpayable","type":"function"},{"inputs":[{"internalType":"bytes32","name":"role","type":"bytes32"},{"internalType":"address","name":"account","type":"address"}],"name":"revokeRole","outputs":[],"stateMutability":"nonpayable","type":"function"},{"inputs":[{"internalType":"uint256","name":"_minimumCommitmentAmount","type":"uint256"}],"name":"setAuctionPrice","outputs":[],"stateMutability":"nonpayable","type":"function"},{"inputs":[{"internalType":"uint256","name":"_startTime","type":"uint256"},{"internalType":"uint256","name":"_endTime","type":"uint256"}],"name":"setAuctionTime","outputs":[],"stateMutability":"nonpayable","type":"function"},{"inputs":[{"internalType":"address payable","name":"_wallet","type":"address"}],"name":"setAuctionWallet","outputs":[],"stateMutability":"nonpayable","type":"function"},{"inputs":[{"internalType":"string","name":"_name","type":"string"},{"internalType":"string","name":"_data","type":"string"}],"name":"setDocument","outputs":[],"stateMutability":"nonpayable","type":"function"},{"inputs":[{"internalType":"string[]","name":"_name","type":"string[]"},{"internalType":"string[]","name":"_data","type":"string[]"}],"name":"setDocuments","outputs":[],"stateMutability":"nonpayable","type":"function"},{"inputs":[{"internalType":"address","name":"_list","type":"address"}],"name":"setList","outputs":[],"stateMutability":"nonpayable","type":"function"},{"inputs":[],"name":"tokenPrice","outputs":[{"internalType":"uint256","name":"","type":"uint256"}],"stateMutability":"view","type":"function"},{"inputs":[{"internalType":"address","name":"_user","type":"address"}],"name":"tokensClaimable","outputs":[{"internalType":"uint256","name":"claimerCommitment","type":"uint256"}],"stateMutability":"view","type":"function"},{"inputs":[],"name":"wallet","outputs":[{"internalType":"address payable","name":"","type":"address"}],"stateMutability":"view","type":"function"},{"inputs":[{"internalType":"address payable","name":"beneficiary","type":"address"}],"name":"withdrawTokens","outputs":[],"stateMutability":"nonpayable","type":"function"},{"inputs":[],"name":"withdrawTokens","outputs":[],"stateMutability":"nonpayable","type":"function"},{"stateMutability":"payable","type":"receive"}],"compiler":{"version":"0.6.12+commit.27d51765","evm_version":"istanbul","optimizer":{"enabled":true,"runs":200}},"contractName":"BatchAuction","language":"Solidity","natspec":{"methods":{"addAdminRole(address)":{"notice":"Grants the admin role to an address.","details":"The sender must have the admin role.","params":{"_address":"EOA or contract receiving the new role."}},"addMinterRole(address)":{"notice":"Grants the minter role to an address","details":"The sender must have the admin role","params":{"_address":"EOA or contract receiving the new role"}},"addOperatorRole(address)":{"notice":"Grants the operator role to an address","details":"The sender must have the admin role","params":{"_address":"EOA or contract receiving the new role"}},"addSmartContractRole(address)":{"notice":"Grants the smart contract role to an address","details":"The sender must have the admin role","params":{"_address":"EOA or contract receiving the new role"}},"auctionEnded()":{"notice":"Checks if the auction has ended.","returns":{"_0":"bool True if current time is greater than auction end time."}},"auctionSuccessful()":{"notice":"Checks if raised more than minimum amount.","returns":{"_0":"True if tokens sold greater than or equals to the minimum commitment amount."}},"batch(bytes[],bool)":{"notice":"Allows batched call to self (this contract).","params":{"calls":"An array of inputs for each call.","revertOnFail":"If True then reverts after a failed call and stops doing further calls."},"returns":{"results":"An array with the returned data of each function call, mapped one-to-one to `calls`.","successes":"An array indicating the success of a call, mapped one-to-one to `calls`."}},"cancelAuction()":{"notice":"Cancel Auction","details":"Admin can cancel the auction before it starts"},"commitEth(address,bool)":{"notice":"Commit ETH to buy tokens on auction.","params":{"_beneficiary":"Auction participant ETH address."}},"commitTokens(uint256,bool)":{"notice":"Buy Tokens by commiting approved ERC20 tokens to this contract address.","params":{"_amount":"Amount of tokens to commit."}},"commitTokensFrom(address,uint256,bool)":{"notice":"Checks if amount not 0 and makes the transfer and adds commitment.","details":"Users must approve contract prior to committing tokens to auction.","params":{"_amount":"Amount of approved ERC20 tokens.","_from":"User ERC20 address."}},"finalize()":{"notice":"Auction finishes successfully above the reserve","details":"Transfer contract funds to initialized wallet."},"finalized()":{"notice":"Checks if the auction has been finalised.","returns":{"_0":"bool True if auction has been finalised."}},"getAllDocuments()":{"notice":"Used to retrieve a full list of documents attached to the smart contract.","returns":{"_0":"string List of all documents names present in the contract."}},"getDocument(string)":{"notice":"Used to return the details of a document with a known name (`string`).","params":{"_name":"Name of the document"},"returns":{"_0":"string The data associated with the document.","_1":"uint256 the timestamp at which the document was last modified."}},"getDocumentCount()":{"notice":"Used to retrieve the total documents in the smart contract.","returns":{"_0":"uint256 Count of the document names present in the contract."}},"getDocumentName(uint256)":{"notice":"Used to retrieve the document name from index in the smart contract.","returns":{"_0":"string Name of the document name."}},"getRoleAdmin(bytes32)":{"details":"Returns the admin role that controls `role`. See {grantRole} and {revokeRole}. To change a role's admin, use {_setRoleAdmin}."},"getRoleMember(bytes32,uint256)":{"details":"Returns one of the accounts that have `role`. `index` must be a value between 0 and {getRoleMemberCount}, non-inclusive. Role bearers are not sorted in any particular way, and their ordering may change at any point. WARNING: When using {getRoleMember} and {getRoleMemberCount}, make sure you perform all queries on the same block. See the following https://forum.openzeppelin.com/t/iterating-over-elements-on-enumerableset-in-openzeppelin-contracts/2296[forum post] for more information."},"getRoleMemberCount(bytes32)":{"details":"Returns the number of accounts that have `role`. Can be used together with {getRoleMember} to enumerate all bearers of a role."},"grantRole(bytes32,address)":{"details":"Grants `role` to `account`. If `account` had not been already granted `role`, emits a {RoleGranted} event. Requirements: - the caller must have ``role``'s admin role."},"hasAdminRole(address)":{"notice":"Used to check whether an address has the admin role.","params":{"_address":"EOA or contract being checked."},"returns":{"_0":"bool True if the account has the role or false if it does not."}},"hasMinterRole(address)":{"notice":"Used to check whether an address has the minter role","params":{"_address":"EOA or contract being checked"},"returns":{"_0":"bool True if the account has the role or false if it does not"}},"hasOperatorRole(address)":{"notice":"Used to check whether an address has the operator role","params":{"_address":"EOA or contract being checked"},"returns":{"_0":"bool True if the account has the role or false if it does not"}},"hasRole(bytes32,address)":{"details":"Returns `true` if `account` has been granted `role`."},"hasSmartContractRole(address)":{"notice":"Used to check whether an address has the smart contract role","params":{"_address":"EOA or contract being checked"},"returns":{"_0":"bool True if the account has the role or false if it does not"}},"initAccessControls(address)":{"notice":"Initializes access controls.","params":{"_admin":"Admins address."}},"initAuction(address,address,uint256,uint256,uint256,address,uint256,address,address,address)":{"notice":"Initializes main contract variables and transfers funds for the auction.","details":"Init function.","params":{"_admin":"Address that can finalize auction.","_endTime":"Auction end time.","_funder":"The address that funds the token for BatchAuction.","_minimumCommitmentAmount":"Minimum amount collected at which the auction will be successful.","_paymentCurrency":"The currency the BatchAuction accepts for payment. Can be ETH or token address.","_startTime":"Auction start time.","_token":"Address of the token being sold.","_totalTokens":"The total number of tokens to sell in auction.","_wallet":"Address where collected funds will be forwarded to."}},"marketParticipationAgreement()":{"details":"Attribution to the awesome delta.financial contracts"},"removeAdminRole(address)":{"notice":"Removes the admin role from an address.","details":"The sender must have the admin role.","params":{"_address":"EOA or contract affected."}},"removeMinterRole(address)":{"notice":"Removes the minter role from an address","details":"The sender must have the admin role","params":{"_address":"EOA or contract affected"}},"removeOperatorRole(address)":{"notice":"Removes the operator role from an address","details":"The sender must have the admin role","params":{"_address":"EOA or contract affected"}},"removeSmartContractRole(address)":{"notice":"Removes the smart contract role from an address","details":"The sender must have the admin role","params":{"_address":"EOA or contract affected"}},"renounceRole(bytes32,address)":{"details":"Revokes `role` from the calling account. Roles are often managed via {grantRole} and {revokeRole}: this function's purpose is to provide a mechanism for accounts to lose their privileges if they are compromised (such as when a trusted device is misplaced). If the calling account had been granted `role`, emits a {RoleRevoked} event. Requirements: - the caller must be `account`."},"revokeRole(bytes32,address)":{"details":"Revokes `role` from `account`. If `account` had been granted `role`, emits a {RoleRevoked} event. Requirements: - the caller must have ``role``'s admin role."},"setAuctionPrice(uint256)":{"notice":"Admin can set start and min price through this function.","params":{"_minimumCommitmentAmount":"Auction minimum raised target."}},"setAuctionTime(uint256,uint256)":{"notice":"Admin can set start and end time through this function.","params":{"_endTime":"Auction end time.","_startTime":"Auction start time."}},"setAuctionWallet(address)":{"notice":"Admin can set the auction wallet through this function.","params":{"_wallet":"Auction wallet is where funds will be sent."}},"tokenPrice()":{"notice":"Calculates the price of each token from all commitments.","returns":{"_0":"Token price."}},"tokensClaimable(address)":{"notice":"How many tokens the user is able to claim.","params":{"_user":"Auction participant address."},"returns":{"claimerCommitment":"Tokens left to claim."}},"pointList()":{"notice":"Address that manages auction approvals."},"claimed(address)":{"notice":"Amount of tokens to claim per address."},"marketTemplate()":{"notice":"MISOMarket template id for the factory contract."},"finalizeTimeExpired()":{"notice":"Returns true if 7 days have passed since the end of the auction"},"permitToken(address,address,address,uint256,uint256,uint8,bytes32,bytes32)":{"notice":"Call wrapper that performs `ERC20.permit` on `token`. Lookup `IERC20.permit`."},"withdrawTokens()":{"notice":"Withdraws bought tokens, or returns commitment if the sale is unsuccessful."},"withdrawTokens(address)":{"notice":"Withdraw your tokens once the Auction has ended."},"MINTER_ROLE()":{"notice":"Role definitions"},"paymentCurrency()":{"notice":"The currency the BatchAuction accepts for payment. Can be ETH or token address."}},"kind":"dev","notice":"Attribution to delta.financialAttribution to dutchswap.com","version":1,"stateVariables":{"ETH_ADDRESS":{"details":"The placeholder ETH address."},"marketTemplate":{"details":"For different marketplace types, this must be incremented."}}},"opcodes":"PUSH1 0x80 PUSH1 0x40 MSTORE PUSH1 0x4 CALLDATASIZE LT PUSH2 0x3E8 JUMPI PUSH1 0x0 CALLDATALOAD PUSH1 0xE0 SHR DUP1 PUSH4 0x8A845FC0 GT PUSH2 0x208 JUMPI DUP1 PUSH4 0xC92BCE87 GT PUSH2 0x118 JUMPI DUP1 PUSH4 0xDDE51F6D GT PUSH2 0xAB JUMPI DUP1 PUSH4 0xF04899D3 GT PUSH2 0x7A JUMPI DUP1 PUSH4 0xF04899D3 EQ PUSH2 0xB43 JUMPI DUP1 PUSH4 0xF08B82E6 EQ PUSH2 0xB58 JUMPI DUP1 PUSH4 0xF5B541A6 EQ PUSH2 0xB6D JUMPI DUP1 PUSH4 0xF9106913 EQ PUSH2 0xB82 JUMPI DUP1 PUSH4 0xFC4E3E0A EQ PUSH2 0xBA2 JUMPI PUSH2 0x3F7 JUMP JUMPDEST DUP1 PUSH4 0xDDE51F6D EQ PUSH2 0xABE JUMPI DUP1 PUSH4 0xE0E081D7 EQ PUSH2 0xADE JUMPI DUP1 PUSH4 0xE6594ABD EQ PUSH2 0xB03 JUMPI DUP1 PUSH4 0xE8FCF723 EQ PUSH2 0xB23 JUMPI PUSH2 0x3F7 JUMP JUMPDEST DUP1 PUSH4 0xD547741F GT PUSH2 0xE7 JUMPI DUP1 PUSH4 0xD547741F EQ PUSH2 0xA3E JUMPI DUP1 PUSH4 0xD69D3E62 EQ PUSH2 0xA5E JUMPI DUP1 PUSH4 0xDC97E082 EQ PUSH2 0xA7E JUMPI DUP1 PUSH4 0xDCCFE310 EQ PUSH2 0xA9E JUMPI PUSH2 0x3F7 JUMP JUMPDEST DUP1 PUSH4 0xC92BCE87 EQ PUSH2 0x9C8 JUMPI DUP1 PUSH4 0xCA15C873 EQ PUSH2 0x9E8 JUMPI DUP1 PUSH4 0xD2423B51 EQ PUSH2 0xA08 JUMPI DUP1 PUSH4 0xD5391393 EQ PUSH2 0xA29 JUMPI PUSH2 0x3F7 JUMP JUMPDEST DUP1 PUSH4 0x9C64D0AE GT PUSH2 0x19B JUMPI DUP1 PUSH4 0xB3F05B97 GT PUSH2 0x16A JUMPI DUP1 PUSH4 0xB3F05B97 EQ PUSH2 0x933 JUMPI DUP1 PUSH4 0xB7928B1D EQ PUSH2 0x948 JUMPI DUP1 PUSH4 0xC395FCB3 EQ PUSH2 0x968 JUMPI DUP1 PUSH4 0xC6B547E6 EQ PUSH2 0x988 JUMPI DUP1 PUSH4 0xC884EF83 EQ PUSH2 0x9A8 JUMPI PUSH2 0x3F7 JUMP JUMPDEST DUP1 PUSH4 0x9C64D0AE EQ PUSH2 0x8BC JUMPI DUP1 PUSH4 0x9FA5F50B EQ PUSH2 0x8DC JUMPI DUP1 PUSH4 0xA217FDDF EQ PUSH2 0x8FE JUMPI DUP1 PUSH4 0xADBF3776 EQ PUSH2 0x913 JUMPI PUSH2 0x3F7 JUMP JUMPDEST DUP1 PUSH4 0x91D14854 GT PUSH2 0x1D7 JUMPI DUP1 PUSH4 0x91D14854 EQ PUSH2 0x847 JUMPI DUP1 PUSH4 0x9478941C EQ PUSH2 0x867 JUMPI DUP1 PUSH4 0x99FDB320 EQ PUSH2 0x887 JUMPI DUP1 PUSH4 0x9A87222C EQ PUSH2 0x89C JUMPI PUSH2 0x3F7 JUMP JUMPDEST DUP1 PUSH4 0x8A845FC0 EQ PUSH2 0x7DD JUMPI DUP1 PUSH4 0x8D8F2ADB EQ PUSH2 0x7FD JUMPI DUP1 PUSH4 0x8FA8B790 EQ PUSH2 0x812 JUMPI DUP1 PUSH4 0x9010D07C EQ PUSH2 0x827 JUMPI PUSH2 0x3F7 JUMP JUMPDEST DUP1 PUSH4 0x49DF728C GT PUSH2 0x303 JUMPI DUP1 PUSH4 0x6AE260C1 GT PUSH2 0x296 JUMPI DUP1 PUSH4 0x7CCB6A64 GT PUSH2 0x265 JUMPI DUP1 PUSH4 0x7CCB6A64 EQ PUSH2 0x750 JUMPI DUP1 PUSH4 0x7FF9B596 EQ PUSH2 0x77E JUMPI DUP1 PUSH4 0x81353C8E EQ PUSH2 0x793 JUMPI DUP1 PUSH4 0x857D2608 EQ PUSH2 0x7B3 JUMPI DUP1 PUSH4 0x86433374 EQ PUSH2 0x7C8 JUMPI PUSH2 0x3F7 JUMP JUMPDEST DUP1 PUSH4 0x6AE260C1 EQ PUSH2 0x6CE JUMPI DUP1 PUSH4 0x74CF9FC5 EQ PUSH2 0x6EE JUMPI DUP1 PUSH4 0x7525B0BD EQ PUSH2 0x710 JUMPI DUP1 PUSH4 0x7C516E94 EQ PUSH2 0x730 JUMPI PUSH2 0x3F7 JUMP JUMPDEST DUP1 PUSH4 0x4DDF47D4 GT PUSH2 0x2D2 JUMPI DUP1 PUSH4 0x4DDF47D4 EQ PUSH2 0x666 JUMPI DUP1 PUSH4 0x521EB273 EQ PUSH2 0x679 JUMPI DUP1 PUSH4 0x54F1E126 EQ PUSH2 0x68E JUMPI DUP1 PUSH4 0x6595171C EQ PUSH2 0x6AE JUMPI PUSH2 0x3F7 JUMP JUMPDEST DUP1 PUSH4 0x49DF728C EQ PUSH2 0x5F1 JUMPI DUP1 PUSH4 0x4B3E6ABB EQ PUSH2 0x611 JUMPI DUP1 PUSH4 0x4BB278F3 EQ PUSH2 0x631 JUMPI DUP1 PUSH4 0x4DC80E15 EQ PUSH2 0x646 JUMPI PUSH2 0x3F7 JUMP JUMPDEST DUP1 PUSH4 0x2F2FF15D GT PUSH2 0x37B JUMPI DUP1 PUSH4 0x3B33FE73 GT PUSH2 0x34A JUMPI DUP1 PUSH4 0x3B33FE73 EQ PUSH2 0x57A JUMPI DUP1 PUSH4 0x3D15CC6D EQ PUSH2 0x59A JUMPI DUP1 PUSH4 0x3D1C2273 EQ PUSH2 0x5BC JUMPI DUP1 PUSH4 0x3F16431A EQ PUSH2 0x5D1 JUMPI PUSH2 0x3F7 JUMP JUMPDEST DUP1 PUSH4 0x2F2FF15D EQ PUSH2 0x500 JUMPI DUP1 PUSH4 0x314148E2 EQ PUSH2 0x520 JUMPI DUP1 PUSH4 0x36568ABE EQ PUSH2 0x545 JUMPI DUP1 PUSH4 0x36D0054B EQ PUSH2 0x565 JUMPI PUSH2 0x3F7 JUMP JUMPDEST DUP1 PUSH4 0x1B3E460E GT PUSH2 0x3B7 JUMPI DUP1 PUSH4 0x1B3E460E EQ PUSH2 0x48B JUMPI DUP1 PUSH4 0x212F8A81 EQ PUSH2 0x4AD JUMPI DUP1 PUSH4 0x248A9CA3 EQ PUSH2 0x4CD JUMPI DUP1 PUSH4 0x29762960 EQ PUSH2 0x4ED JUMPI PUSH2 0x3F7 JUMP JUMPDEST DUP1 PUSH4 0x31BEE00 EQ PUSH2 0x3FC JUMPI DUP1 PUSH4 0x99DB017 EQ PUSH2 0x429 JUMPI DUP1 PUSH4 0x113B0AB2 EQ PUSH2 0x456 JUMPI DUP1 PUSH4 0x17026455 EQ PUSH2 0x476 JUMPI PUSH2 0x3F7 JUMP JUMPDEST CALLDATASIZE PUSH2 0x3F7 JUMPI PUSH2 0x3F5 PUSH2 0xBC2 JUMP JUMPDEST STOP JUMPDEST PUSH1 0x0 DUP1 REVERT JUMPDEST CALLVALUE DUP1 ISZERO PUSH2 0x408 JUMPI PUSH1 0x0 DUP1 REVERT JUMPDEST POP PUSH2 0x411 PUSH2 0xBE3 JUMP JUMPDEST PUSH1 0x40 MLOAD PUSH2 0x420 SWAP4 SWAP3 SWAP2 SWAP1 PUSH2 0x47CC JUMP JUMPDEST PUSH1 0x40 MLOAD DUP1 SWAP2 SUB SWAP1 RETURN JUMPDEST CALLVALUE DUP1 ISZERO PUSH2 0x435 JUMPI PUSH1 0x0 DUP1 REVERT JUMPDEST POP PUSH2 0x449 PUSH2 0x444 CALLDATASIZE PUSH1 0x4 PUSH2 0x33E1 JUMP JUMPDEST PUSH2 0xC10 JUMP JUMPDEST PUSH1 0x40 MLOAD PUSH2 0x420 SWAP2 SWAP1 PUSH2 0x3B5C JUMP JUMPDEST CALLVALUE DUP1 ISZERO PUSH2 0x462 JUMPI PUSH1 0x0 DUP1 REVERT JUMPDEST POP PUSH2 0x449 PUSH2 0x471 CALLDATASIZE PUSH1 0x4 PUSH2 0x33E1 JUMP JUMPDEST PUSH2 0xC32 JUMP JUMPDEST CALLVALUE DUP1 ISZERO PUSH2 0x482 JUMPI PUSH1 0x0 DUP1 REVERT JUMPDEST POP PUSH2 0x449 PUSH2 0xC4C JUMP JUMPDEST CALLVALUE DUP1 ISZERO PUSH2 0x497 JUMPI PUSH1 0x0 DUP1 REVERT JUMPDEST POP PUSH2 0x4A0 PUSH2 0xC6A JUMP JUMPDEST PUSH1 0x40 MLOAD PUSH2 0x420 SWAP2 SWAP1 PUSH2 0x3B67 JUMP JUMPDEST CALLVALUE DUP1 ISZERO PUSH2 0x4B9 JUMPI PUSH1 0x0 DUP1 REVERT JUMPDEST POP PUSH2 0x3F5 PUSH2 0x4C8 CALLDATASIZE PUSH1 0x4 PUSH2 0x34E7 JUMP JUMPDEST PUSH2 0xC6F JUMP JUMPDEST CALLVALUE DUP1 ISZERO PUSH2 0x4D9 JUMPI PUSH1 0x0 DUP1 REVERT JUMPDEST POP PUSH2 0x4A0 PUSH2 0x4E8 CALLDATASIZE PUSH1 0x4 PUSH2 0x3611 JUMP JUMPDEST PUSH2 0xD2E JUMP JUMPDEST PUSH2 0x3F5 PUSH2 0x4FB CALLDATASIZE PUSH1 0x4 PUSH2 0x34AF JUMP JUMPDEST PUSH2 0xD43 JUMP JUMPDEST CALLVALUE DUP1 ISZERO PUSH2 0x50C JUMPI PUSH1 0x0 DUP1 REVERT JUMPDEST POP PUSH2 0x3F5 PUSH2 0x51B CALLDATASIZE PUSH1 0x4 PUSH2 0x3629 JUMP JUMPDEST PUSH2 0xDE9 JUMP JUMPDEST CALLVALUE DUP1 ISZERO PUSH2 0x52C JUMPI PUSH1 0x0 DUP1 REVERT JUMPDEST POP PUSH2 0x535 PUSH2 0xE2D JUMP JUMPDEST PUSH1 0x40 MLOAD PUSH2 0x420 SWAP5 SWAP4 SWAP3 SWAP2 SWAP1 PUSH2 0x3A30 JUMP JUMPDEST CALLVALUE DUP1 ISZERO PUSH2 0x551 JUMPI PUSH1 0x0 DUP1 REVERT JUMPDEST POP PUSH2 0x3F5 PUSH2 0x560 CALLDATASIZE PUSH1 0x4 PUSH2 0x3629 JUMP JUMPDEST PUSH2 0xE5E JUMP JUMPDEST CALLVALUE DUP1 ISZERO PUSH2 0x571 JUMPI PUSH1 0x0 DUP1 REVERT JUMPDEST POP PUSH2 0x449 PUSH2 0xEA0 JUMP JUMPDEST CALLVALUE DUP1 ISZERO PUSH2 0x586 JUMPI PUSH1 0x0 DUP1 REVERT JUMPDEST POP PUSH2 0x3F5 PUSH2 0x595 CALLDATASIZE PUSH1 0x4 PUSH2 0x3611 JUMP JUMPDEST PUSH2 0xED6 JUMP JUMPDEST CALLVALUE DUP1 ISZERO PUSH2 0x5A6 JUMPI PUSH1 0x0 DUP1 REVERT JUMPDEST POP PUSH2 0x5AF PUSH2 0xF72 JUMP JUMPDEST PUSH1 0x40 MLOAD PUSH2 0x420 SWAP2 SWAP1 PUSH2 0x3945 JUMP JUMPDEST CALLVALUE DUP1 ISZERO PUSH2 0x5C8 JUMPI PUSH1 0x0 DUP1 REVERT JUMPDEST POP PUSH2 0x4A0 PUSH2 0xF81 JUMP JUMPDEST CALLVALUE DUP1 ISZERO PUSH2 0x5DD JUMPI PUSH1 0x0 DUP1 REVERT JUMPDEST POP PUSH2 0x3F5 PUSH2 0x5EC CALLDATASIZE PUSH1 0x4 PUSH2 0x33E1 JUMP JUMPDEST PUSH2 0xF87 JUMP JUMPDEST CALLVALUE DUP1 ISZERO PUSH2 0x5FD JUMPI PUSH1 0x0 DUP1 REVERT JUMPDEST POP PUSH2 0x3F5 PUSH2 0x60C CALLDATASIZE PUSH1 0x4 PUSH2 0x33E1 JUMP JUMPDEST PUSH2 0xFE9 JUMP JUMPDEST CALLVALUE DUP1 ISZERO PUSH2 0x61D JUMPI PUSH1 0x0 DUP1 REVERT JUMPDEST POP PUSH2 0x3F5 PUSH2 0x62C CALLDATASIZE PUSH1 0x4 PUSH2 0x35D9 JUMP JUMPDEST PUSH2 0x115C JUMP JUMPDEST CALLVALUE DUP1 ISZERO PUSH2 0x63D JUMPI PUSH1 0x0 DUP1 REVERT JUMPDEST POP PUSH2 0x3F5 PUSH2 0x1188 JUMP JUMPDEST CALLVALUE DUP1 ISZERO PUSH2 0x652 JUMPI PUSH1 0x0 DUP1 REVERT JUMPDEST POP PUSH2 0x4A0 PUSH2 0x661 CALLDATASIZE PUSH1 0x4 PUSH2 0x33E1 JUMP JUMPDEST PUSH2 0x1332 JUMP JUMPDEST PUSH2 0x3F5 PUSH2 0x674 CALLDATASIZE PUSH1 0x4 PUSH2 0x366E JUMP JUMPDEST PUSH2 0xDE5 JUMP JUMPDEST CALLVALUE DUP1 ISZERO PUSH2 0x685 JUMPI PUSH1 0x0 DUP1 REVERT JUMPDEST POP PUSH2 0x5AF PUSH2 0x1438 JUMP JUMPDEST CALLVALUE DUP1 ISZERO PUSH2 0x69A JUMPI PUSH1 0x0 DUP1 REVERT JUMPDEST POP PUSH2 0x3F5 PUSH2 0x6A9 CALLDATASIZE PUSH1 0x4 PUSH2 0x33E1 JUMP JUMPDEST PUSH2 0x1447 JUMP JUMPDEST CALLVALUE DUP1 ISZERO PUSH2 0x6BA JUMPI PUSH1 0x0 DUP1 REVERT JUMPDEST POP PUSH2 0x3F5 PUSH2 0x6C9 CALLDATASIZE PUSH1 0x4 PUSH2 0x33E1 JUMP JUMPDEST PUSH2 0x14A9 JUMP JUMPDEST CALLVALUE DUP1 ISZERO PUSH2 0x6DA JUMPI PUSH1 0x0 DUP1 REVERT JUMPDEST POP PUSH2 0x3F5 PUSH2 0x6E9 CALLDATASIZE PUSH1 0x4 PUSH2 0x364D JUMP JUMPDEST PUSH2 0x14FE JUMP JUMPDEST CALLVALUE DUP1 ISZERO PUSH2 0x6FA JUMPI PUSH1 0x0 DUP1 REVERT JUMPDEST POP PUSH2 0x703 PUSH2 0x165D JUMP JUMPDEST PUSH1 0x40 MLOAD PUSH2 0x420 SWAP2 SWAP1 PUSH2 0x3B70 JUMP JUMPDEST CALLVALUE DUP1 ISZERO PUSH2 0x71C JUMPI PUSH1 0x0 DUP1 REVERT JUMPDEST POP PUSH2 0x3F5 PUSH2 0x72B CALLDATASIZE PUSH1 0x4 PUSH2 0x3404 JUMP JUMPDEST PUSH2 0x1680 JUMP JUMPDEST CALLVALUE DUP1 ISZERO PUSH2 0x73C JUMPI PUSH1 0x0 DUP1 REVERT JUMPDEST POP PUSH2 0x3F5 PUSH2 0x74B CALLDATASIZE PUSH1 0x4 PUSH2 0x36AD JUMP JUMPDEST PUSH2 0x19B6 JUMP JUMPDEST CALLVALUE DUP1 ISZERO PUSH2 0x75C JUMPI PUSH1 0x0 DUP1 REVERT JUMPDEST POP PUSH2 0x770 PUSH2 0x76B CALLDATASIZE PUSH1 0x4 PUSH2 0x366E JUMP JUMPDEST PUSH2 0x1A2A JUMP JUMPDEST PUSH1 0x40 MLOAD PUSH2 0x420 SWAP3 SWAP2 SWAP1 PUSH2 0x3BB2 JUMP JUMPDEST CALLVALUE DUP1 ISZERO PUSH2 0x78A JUMPI PUSH1 0x0 DUP1 REVERT JUMPDEST POP PUSH2 0x4A0 PUSH2 0x1B17 JUMP JUMPDEST CALLVALUE DUP1 ISZERO PUSH2 0x79F JUMPI PUSH1 0x0 DUP1 REVERT JUMPDEST POP PUSH2 0x3F5 PUSH2 0x7AE CALLDATASIZE PUSH1 0x4 PUSH2 0x366E JUMP JUMPDEST PUSH2 0x1B50 JUMP JUMPDEST CALLVALUE DUP1 ISZERO PUSH2 0x7BF JUMPI PUSH1 0x0 DUP1 REVERT JUMPDEST POP PUSH2 0x4A0 PUSH2 0x1B8D JUMP JUMPDEST CALLVALUE DUP1 ISZERO PUSH2 0x7D4 JUMPI PUSH1 0x0 DUP1 REVERT JUMPDEST POP PUSH2 0x449 PUSH2 0x1B9F JUMP JUMPDEST CALLVALUE DUP1 ISZERO PUSH2 0x7E9 JUMPI PUSH1 0x0 DUP1 REVERT JUMPDEST POP PUSH2 0x3F5 PUSH2 0x7F8 CALLDATASIZE PUSH1 0x4 PUSH2 0x33E1 JUMP JUMPDEST PUSH2 0x1BB7 JUMP JUMPDEST CALLVALUE DUP1 ISZERO PUSH2 0x809 JUMPI PUSH1 0x0 DUP1 REVERT JUMPDEST POP PUSH2 0x3F5 PUSH2 0x1C19 JUMP JUMPDEST CALLVALUE DUP1 ISZERO PUSH2 0x81E JUMPI PUSH1 0x0 DUP1 REVERT JUMPDEST POP PUSH2 0x3F5 PUSH2 0x1C24 JUMP JUMPDEST CALLVALUE DUP1 ISZERO PUSH2 0x833 JUMPI PUSH1 0x0 DUP1 REVERT JUMPDEST POP PUSH2 0x5AF PUSH2 0x842 CALLDATASIZE PUSH1 0x4 PUSH2 0x364D JUMP JUMPDEST PUSH2 0x1D1D JUMP JUMPDEST CALLVALUE DUP1 ISZERO PUSH2 0x853 JUMPI PUSH1 0x0 DUP1 REVERT JUMPDEST POP PUSH2 0x449 PUSH2 0x862 CALLDATASIZE PUSH1 0x4 PUSH2 0x3629 JUMP JUMPDEST PUSH2 0x1D3E JUMP JUMPDEST CALLVALUE DUP1 ISZERO PUSH2 0x873 JUMPI PUSH1 0x0 DUP1 REVERT JUMPDEST POP PUSH2 0x3F5 PUSH2 0x882 CALLDATASIZE PUSH1 0x4 PUSH2 0x33E1 JUMP JUMPDEST PUSH2 0x1D56 JUMP JUMPDEST CALLVALUE DUP1 ISZERO PUSH2 0x893 JUMPI PUSH1 0x0 DUP1 REVERT JUMPDEST POP PUSH2 0x5AF PUSH2 0x1DB8 JUMP JUMPDEST CALLVALUE DUP1 ISZERO PUSH2 0x8A8 JUMPI PUSH1 0x0 DUP1 REVERT JUMPDEST POP PUSH2 0x3F5 PUSH2 0x8B7 CALLDATASIZE PUSH1 0x4 PUSH2 0x33E1 JUMP JUMPDEST PUSH2 0x1DC7 JUMP JUMPDEST CALLVALUE DUP1 ISZERO PUSH2 0x8C8 JUMPI PUSH1 0x0 DUP1 REVERT JUMPDEST POP PUSH2 0x3F5 PUSH2 0x8D7 CALLDATASIZE PUSH1 0x4 PUSH2 0x372F JUMP JUMPDEST PUSH2 0x1E4A JUMP JUMPDEST CALLVALUE DUP1 ISZERO PUSH2 0x8E8 JUMPI PUSH1 0x0 DUP1 REVERT JUMPDEST POP PUSH2 0x8F1 PUSH2 0x1E6E JUMP JUMPDEST PUSH1 0x40 MLOAD PUSH2 0x420 SWAP2 SWAP1 PUSH2 0x3AFC JUMP JUMPDEST CALLVALUE DUP1 ISZERO PUSH2 0x90A JUMPI PUSH1 0x0 DUP1 REVERT JUMPDEST POP PUSH2 0x4A0 PUSH2 0x1F46 JUMP JUMPDEST CALLVALUE DUP1 ISZERO PUSH2 0x91F JUMPI PUSH1 0x0 DUP1 REVERT JUMPDEST POP PUSH2 0x3F5 PUSH2 0x92E CALLDATASIZE PUSH1 0x4 PUSH2 0x33E1 JUMP JUMPDEST PUSH2 0x1F4B JUMP JUMPDEST CALLVALUE DUP1 ISZERO PUSH2 0x93F JUMPI PUSH1 0x0 DUP1 REVERT JUMPDEST POP PUSH2 0x449 PUSH2 0x1FAD JUMP JUMPDEST CALLVALUE DUP1 ISZERO PUSH2 0x954 JUMPI PUSH1 0x0 DUP1 REVERT JUMPDEST POP PUSH2 0x3F5 PUSH2 0x963 CALLDATASIZE PUSH1 0x4 PUSH2 0x33E1 JUMP JUMPDEST PUSH2 0x1FB6 JUMP JUMPDEST CALLVALUE DUP1 ISZERO PUSH2 0x974 JUMPI PUSH1 0x0 DUP1 REVERT JUMPDEST POP PUSH2 0x449 PUSH2 0x983 CALLDATASIZE PUSH1 0x4 PUSH2 0x33E1 JUMP JUMPDEST PUSH2 0x2018 JUMP JUMPDEST CALLVALUE DUP1 ISZERO PUSH2 0x994 JUMPI PUSH1 0x0 DUP1 REVERT JUMPDEST POP PUSH2 0x703 PUSH2 0x9A3 CALLDATASIZE PUSH1 0x4 PUSH2 0x3611 JUMP JUMPDEST PUSH2 0x2024 JUMP JUMPDEST CALLVALUE DUP1 ISZERO PUSH2 0x9B4 JUMPI PUSH1 0x0 DUP1 REVERT JUMPDEST POP PUSH2 0x4A0 PUSH2 0x9C3 CALLDATASIZE PUSH1 0x4 PUSH2 0x33E1 JUMP JUMPDEST PUSH2 0x20EF JUMP JUMPDEST CALLVALUE DUP1 ISZERO PUSH2 0x9D4 JUMPI PUSH1 0x0 DUP1 REVERT JUMPDEST POP PUSH2 0x3F5 PUSH2 0x9E3 CALLDATASIZE PUSH1 0x4 PUSH2 0x3571 JUMP JUMPDEST PUSH2 0x2101 JUMP JUMPDEST CALLVALUE DUP1 ISZERO PUSH2 0x9F4 JUMPI PUSH1 0x0 DUP1 REVERT JUMPDEST POP PUSH2 0x4A0 PUSH2 0xA03 CALLDATASIZE PUSH1 0x4 PUSH2 0x3611 JUMP JUMPDEST PUSH2 0x2173 JUMP JUMPDEST PUSH2 0xA1B PUSH2 0xA16 CALLDATASIZE PUSH1 0x4 PUSH2 0x3528 JUMP JUMPDEST PUSH2 0x218A JUMP JUMPDEST PUSH1 0x40 MLOAD PUSH2 0x420 SWAP3 SWAP2 SWAP1 PUSH2 0x3A62 JUMP JUMPDEST CALLVALUE DUP1 ISZERO PUSH2 0xA35 JUMPI PUSH1 0x0 DUP1 REVERT JUMPDEST POP PUSH2 0x4A0 PUSH2 0x231A JUMP JUMPDEST CALLVALUE DUP1 ISZERO PUSH2 0xA4A JUMPI PUSH1 0x0 DUP1 REVERT JUMPDEST POP PUSH2 0x3F5 PUSH2 0xA59 CALLDATASIZE PUSH1 0x4 PUSH2 0x3629 JUMP JUMPDEST PUSH2 0x232C JUMP JUMPDEST CALLVALUE DUP1 ISZERO PUSH2 0xA6A JUMPI PUSH1 0x0 DUP1 REVERT JUMPDEST POP PUSH2 0x3F5 PUSH2 0xA79 CALLDATASIZE PUSH1 0x4 PUSH2 0x33E1 JUMP JUMPDEST PUSH2 0x2366 JUMP JUMPDEST CALLVALUE DUP1 ISZERO PUSH2 0xA8A JUMPI PUSH1 0x0 DUP1 REVERT JUMPDEST POP PUSH2 0x3F5 PUSH2 0xA99 CALLDATASIZE PUSH1 0x4 PUSH2 0x383D JUMP JUMPDEST PUSH2 0x2384 JUMP JUMPDEST CALLVALUE DUP1 ISZERO PUSH2 0xAAA JUMPI PUSH1 0x0 DUP1 REVERT JUMPDEST POP PUSH2 0x3F5 PUSH2 0xAB9 CALLDATASIZE PUSH1 0x4 PUSH2 0x33E1 JUMP JUMPDEST PUSH2 0x238F JUMP JUMPDEST CALLVALUE DUP1 ISZERO PUSH2 0xACA JUMPI PUSH1 0x0 DUP1 REVERT JUMPDEST POP PUSH2 0x3F5 PUSH2 0xAD9 CALLDATASIZE PUSH1 0x4 PUSH2 0x366E JUMP JUMPDEST PUSH2 0x23E4 JUMP JUMPDEST CALLVALUE DUP1 ISZERO PUSH2 0xAEA JUMPI PUSH1 0x0 DUP1 REVERT JUMPDEST POP PUSH2 0xAF3 PUSH2 0x2400 JUMP JUMPDEST PUSH1 0x40 MLOAD PUSH2 0x420 SWAP5 SWAP4 SWAP3 SWAP2 SWAP1 PUSH2 0x4793 JUMP JUMPDEST CALLVALUE DUP1 ISZERO PUSH2 0xB0F JUMPI PUSH1 0x0 DUP1 REVERT JUMPDEST POP PUSH2 0x3F5 PUSH2 0xB1E CALLDATASIZE PUSH1 0x4 PUSH2 0x33E1 JUMP JUMPDEST PUSH2 0x242A JUMP JUMPDEST CALLVALUE DUP1 ISZERO PUSH2 0xB2F JUMPI PUSH1 0x0 DUP1 REVERT JUMPDEST POP PUSH2 0x4A0 PUSH2 0xB3E CALLDATASIZE PUSH1 0x4 PUSH2 0x33E1 JUMP JUMPDEST PUSH2 0x248D JUMP JUMPDEST CALLVALUE DUP1 ISZERO PUSH2 0xB4F JUMPI PUSH1 0x0 DUP1 REVERT JUMPDEST POP PUSH2 0x5AF PUSH2 0x249F JUMP JUMPDEST CALLVALUE DUP1 ISZERO PUSH2 0xB64 JUMPI PUSH1 0x0 DUP1 REVERT JUMPDEST POP PUSH2 0x4A0 PUSH2 0x24AE JUMP JUMPDEST CALLVALUE DUP1 ISZERO PUSH2 0xB79 JUMPI PUSH1 0x0 DUP1 REVERT JUMPDEST POP PUSH2 0x4A0 PUSH2 0x24C4 JUMP JUMPDEST CALLVALUE DUP1 ISZERO PUSH2 0xB8E JUMPI PUSH1 0x0 DUP1 REVERT JUMPDEST POP PUSH2 0x703 PUSH2 0xB9D CALLDATASIZE PUSH1 0x4 PUSH2 0x3404 JUMP JUMPDEST PUSH2 0x24D6 JUMP JUMPDEST CALLVALUE DUP1 ISZERO PUSH2 0xBAE JUMPI PUSH1 0x0 DUP1 REVERT JUMPDEST POP PUSH2 0x449 PUSH2 0xBBD CALLDATASIZE PUSH1 0x4 PUSH2 0x33E1 JUMP JUMPDEST PUSH2 0x251A JUMP JUMPDEST PUSH1 0x40 MLOAD PUSH3 0x461BCD PUSH1 0xE5 SHL DUP2 MSTORE PUSH1 0x4 ADD PUSH2 0xBDA SWAP1 PUSH2 0x3E50 JUMP JUMPDEST PUSH1 0x40 MLOAD DUP1 SWAP2 SUB SWAP1 REVERT JUMPDEST PUSH1 0x6 SLOAD PUSH1 0x1 PUSH1 0x1 PUSH1 0x40 SHL SUB DUP1 DUP3 AND SWAP2 PUSH1 0x1 PUSH1 0x40 SHL DUP2 DIV SWAP1 SWAP2 AND SWAP1 PUSH1 0x1 PUSH1 0x80 SHL SWAP1 DIV PUSH1 0x1 PUSH1 0x1 PUSH1 0x80 SHL SUB AND DUP4 JUMP JUMPDEST PUSH1 0x0 PUSH2 0xC2A PUSH1 0x0 DUP1 MLOAD PUSH1 0x20 PUSH2 0x48E7 DUP4 CODECOPY DUP2 MLOAD SWAP2 MSTORE DUP4 PUSH2 0x1D3E JUMP JUMPDEST SWAP1 POP JUMPDEST SWAP2 SWAP1 POP JUMP JUMPDEST PUSH1 0x0 PUSH2 0xC2A PUSH1 0x0 DUP1 MLOAD PUSH1 0x20 PUSH2 0x48A7 DUP4 CODECOPY DUP2 MLOAD SWAP2 MSTORE DUP4 PUSH2 0x1D3E JUMP JUMPDEST PUSH1 0x6 SLOAD TIMESTAMP PUSH1 0x1 PUSH1 0x40 SHL SWAP1 SWAP2 DIV PUSH1 0x1 PUSH1 0x1 PUSH1 0x40 SHL SUB AND PUSH3 0x93A80 ADD LT SWAP1 JUMP JUMPDEST PUSH1 0x3 DUP2 JUMP JUMPDEST PUSH1 0x2 PUSH1 0x5 SLOAD EQ ISZERO PUSH2 0xC92 JUMPI PUSH1 0x40 MLOAD PUSH3 0x461BCD PUSH1 0xE5 SHL DUP2 MSTORE PUSH1 0x4 ADD PUSH2 0xBDA SWAP1 PUSH2 0x4626 JUMP JUMPDEST PUSH1 0x2 PUSH1 0x5 SSTORE PUSH1 0xA SLOAD PUSH1 0x1 PUSH1 0x1 PUSH1 0xA0 SHL SUB AND PUSH20 0xEEEEEEEEEEEEEEEEEEEEEEEEEEEEEEEEEEEEEEEE EQ ISZERO PUSH2 0xCD6 JUMPI PUSH1 0x40 MLOAD PUSH3 0x461BCD PUSH1 0xE5 SHL DUP2 MSTORE PUSH1 0x4 ADD PUSH2 0xBDA SWAP1 PUSH2 0x465D JUMP JUMPDEST DUP1 PUSH2 0xCE3 JUMPI PUSH2 0xCE3 PUSH2 0xBC2 JUMP JUMPDEST PUSH1 0x0 DUP3 GT PUSH2 0xD03 JUMPI PUSH1 0x40 MLOAD PUSH3 0x461BCD PUSH1 0xE5 SHL DUP2 MSTORE PUSH1 0x4 ADD PUSH2 0xBDA SWAP1 PUSH2 0x4420 JUMP JUMPDEST PUSH1 0xA SLOAD PUSH2 0xD1A SWAP1 PUSH1 0x1 PUSH1 0x1 PUSH1 0xA0 SHL SUB AND CALLER DUP5 PUSH2 0x2534 JUMP JUMPDEST PUSH2 0xD24 DUP4 DUP4 PUSH2 0x2611 JUMP JUMPDEST POP POP PUSH1 0x1 PUSH1 0x5 SSTORE POP JUMP JUMPDEST PUSH1 0x0 SWAP1 DUP2 MSTORE PUSH1 0x20 DUP2 SWAP1 MSTORE PUSH1 0x40 SWAP1 KECCAK256 PUSH1 0x2 ADD SLOAD SWAP1 JUMP JUMPDEST PUSH1 0xA SLOAD PUSH1 0x1 PUSH1 0x1 PUSH1 0xA0 SHL SUB AND PUSH20 0xEEEEEEEEEEEEEEEEEEEEEEEEEEEEEEEEEEEEEEEE EQ PUSH2 0xD81 JUMPI PUSH1 0x40 MLOAD PUSH3 0x461BCD PUSH1 0xE5 SHL DUP2 MSTORE PUSH1 0x4 ADD PUSH2 0xBDA SWAP1 PUSH2 0x438F JUMP JUMPDEST PUSH1 0x0 CALLVALUE GT PUSH2 0xDA1 JUMPI PUSH1 0x40 MLOAD PUSH3 0x461BCD PUSH1 0xE5 SHL DUP2 MSTORE PUSH1 0x4 ADD PUSH2 0xBDA SWAP1 PUSH2 0x4420 JUMP JUMPDEST DUP1 PUSH2 0xDAE JUMPI PUSH2 0xDAE PUSH2 0xBC2 JUMP JUMPDEST PUSH2 0xDB8 DUP3 CALLVALUE PUSH2 0x2611 JUMP JUMPDEST PUSH1 0x7 SLOAD SELFBALANCE PUSH1 0x1 PUSH1 0x1 PUSH1 0x80 SHL SUB SWAP1 SWAP2 AND GT ISZERO PUSH2 0xDE5 JUMPI PUSH1 0x40 MLOAD PUSH3 0x461BCD PUSH1 0xE5 SHL DUP2 MSTORE PUSH1 0x4 ADD PUSH2 0xBDA SWAP1 PUSH2 0x3DFD JUMP JUMPDEST POP POP JUMP JUMPDEST PUSH1 0x0 DUP3 DUP2 MSTORE PUSH1 0x20 DUP2 SWAP1 MSTORE PUSH1 0x40 SWAP1 KECCAK256 PUSH1 0x2 ADD SLOAD PUSH2 0xE07 SWAP1 PUSH2 0x862 PUSH2 0x27BD JUMP JUMPDEST PUSH2 0xE23 JUMPI PUSH1 0x40 MLOAD PUSH3 0x461BCD PUSH1 0xE5 SHL DUP2 MSTORE PUSH1 0x4 ADD PUSH2 0xBDA SWAP1 PUSH2 0x3CFC JUMP JUMPDEST PUSH2 0xDE5 DUP3 DUP3 PUSH2 0x27C1 JUMP JUMPDEST PUSH1 0x9 SLOAD PUSH1 0x6 SLOAD PUSH1 0x8 SLOAD PUSH1 0x1 PUSH1 0x1 PUSH1 0xA0 SHL SUB SWAP1 SWAP3 AND SWAP3 PUSH1 0x1 PUSH1 0x1 PUSH1 0x40 SHL SUB DUP1 DUP4 AND SWAP4 PUSH1 0x1 PUSH1 0x40 SHL SWAP1 SWAP4 DIV AND SWAP2 PUSH1 0xFF AND SWAP1 JUMP JUMPDEST PUSH2 0xE66 PUSH2 0x27BD JUMP JUMPDEST PUSH1 0x1 PUSH1 0x1 PUSH1 0xA0 SHL SUB AND DUP2 PUSH1 0x1 PUSH1 0x1 PUSH1 0xA0 SHL SUB AND EQ PUSH2 0xE96 JUMPI PUSH1 0x40 MLOAD PUSH3 0x461BCD PUSH1 0xE5 SHL DUP2 MSTORE PUSH1 0x4 ADD PUSH2 0xBDA SWAP1 PUSH2 0x4716 JUMP JUMPDEST PUSH2 0xDE5 DUP3 DUP3 PUSH2 0x282A JUMP JUMPDEST PUSH1 0x7 SLOAD PUSH1 0x0 SWAP1 PUSH1 0x1 PUSH1 0x1 PUSH1 0x80 SHL SUB PUSH1 0x1 PUSH1 0x80 SHL DUP3 DIV DUP2 AND SWAP2 AND LT DUP1 ISZERO SWAP1 PUSH2 0xED1 JUMPI POP PUSH1 0x7 SLOAD PUSH1 0x1 PUSH1 0x1 PUSH1 0x80 SHL SUB AND ISZERO ISZERO JUMPDEST SWAP1 POP SWAP1 JUMP JUMPDEST PUSH2 0xEDF CALLER PUSH2 0x2018 JUMP JUMPDEST PUSH2 0xEE8 JUMPI PUSH1 0x0 DUP1 REVERT JUMPDEST PUSH1 0x7 SLOAD PUSH1 0x1 PUSH1 0x1 PUSH1 0x80 SHL SUB AND ISZERO PUSH2 0xF11 JUMPI PUSH1 0x40 MLOAD PUSH3 0x461BCD PUSH1 0xE5 SHL DUP2 MSTORE PUSH1 0x4 ADD PUSH2 0xBDA SWAP1 PUSH2 0x42BC JUMP JUMPDEST PUSH2 0xF1A DUP2 PUSH2 0x2893 JUMP JUMPDEST PUSH1 0x7 DUP1 SLOAD PUSH1 0x1 PUSH1 0x1 PUSH1 0x80 SHL SUB SWAP3 DUP4 AND PUSH1 0x1 PUSH1 0x80 SHL MUL SWAP3 AND SWAP2 SWAP1 SWAP2 OR SWAP1 SSTORE PUSH1 0x40 MLOAD PUSH32 0x1FD3F6B4312B53D1521FB9DAB5AF66131FF5B6141870420DED20E5FFB42F6CF2 SWAP1 PUSH2 0xF67 SWAP1 DUP4 SWAP1 PUSH2 0x3B67 JUMP JUMPDEST PUSH1 0x40 MLOAD DUP1 SWAP2 SUB SWAP1 LOG1 POP JUMP JUMPDEST PUSH1 0xA SLOAD PUSH1 0x1 PUSH1 0x1 PUSH1 0xA0 SHL SUB AND DUP2 JUMP JUMPDEST PUSH1 0x4 SLOAD SWAP1 JUMP JUMPDEST PUSH2 0xF9F PUSH1 0x0 DUP1 MLOAD PUSH1 0x20 PUSH2 0x48A7 DUP4 CODECOPY DUP2 MLOAD SWAP2 MSTORE DUP3 PUSH2 0xDE9 JUMP JUMPDEST PUSH2 0xFA7 PUSH2 0x27BD JUMP JUMPDEST PUSH1 0x1 PUSH1 0x1 PUSH1 0xA0 SHL SUB AND DUP2 PUSH1 0x1 PUSH1 0x1 PUSH1 0xA0 SHL SUB AND PUSH32 0x1D5F9EC24C6F91BE922EA13CEAAD919AD6554A41B5C26087F96289A9BAF98AD2 PUSH1 0x40 MLOAD PUSH1 0x40 MLOAD DUP1 SWAP2 SUB SWAP1 LOG3 POP JUMP JUMPDEST PUSH1 0x2 PUSH1 0x5 SLOAD EQ ISZERO PUSH2 0x100C JUMPI PUSH1 0x40 MLOAD PUSH3 0x461BCD PUSH1 0xE5 SHL DUP2 MSTORE PUSH1 0x4 ADD PUSH2 0xBDA SWAP1 PUSH2 0x4626 JUMP JUMPDEST PUSH1 0x2 PUSH1 0x5 SSTORE PUSH2 0x1019 PUSH2 0xEA0 JUMP JUMPDEST ISZERO PUSH2 0x10C2 JUMPI PUSH1 0x8 SLOAD PUSH1 0xFF AND PUSH2 0x1040 JUMPI PUSH1 0x40 MLOAD PUSH3 0x461BCD PUSH1 0xE5 SHL DUP2 MSTORE PUSH1 0x4 ADD PUSH2 0xBDA SWAP1 PUSH2 0x4238 JUMP JUMPDEST PUSH1 0x0 PUSH2 0x104B DUP3 PUSH2 0x1332 JUMP JUMPDEST SWAP1 POP PUSH1 0x0 DUP2 GT PUSH2 0x106D JUMPI PUSH1 0x40 MLOAD PUSH3 0x461BCD PUSH1 0xE5 SHL DUP2 MSTORE PUSH1 0x4 ADD PUSH2 0xBDA SWAP1 PUSH2 0x46E1 JUMP JUMPDEST PUSH1 0x1 PUSH1 0x1 PUSH1 0xA0 SHL SUB DUP3 AND PUSH1 0x0 SWAP1 DUP2 MSTORE PUSH1 0xE PUSH1 0x20 MSTORE PUSH1 0x40 SWAP1 KECCAK256 SLOAD PUSH2 0x1090 SWAP1 DUP3 PUSH2 0x28C0 JUMP JUMPDEST PUSH1 0x1 PUSH1 0x1 PUSH1 0xA0 SHL SUB DUP1 DUP5 AND PUSH1 0x0 SWAP1 DUP2 MSTORE PUSH1 0xE PUSH1 0x20 MSTORE PUSH1 0x40 SWAP1 KECCAK256 SWAP2 SWAP1 SWAP2 SSTORE PUSH1 0x9 SLOAD PUSH2 0x10BC SWAP2 AND DUP4 DUP4 PUSH2 0x28E3 JUMP JUMPDEST POP PUSH2 0x1154 JUMP JUMPDEST PUSH1 0x6 SLOAD PUSH1 0x1 PUSH1 0x40 SHL SWAP1 DIV PUSH1 0x1 PUSH1 0x1 PUSH1 0x40 SHL SUB AND TIMESTAMP GT PUSH2 0x10F3 JUMPI PUSH1 0x40 MLOAD PUSH3 0x461BCD PUSH1 0xE5 SHL DUP2 MSTORE PUSH1 0x4 ADD PUSH2 0xBDA SWAP1 PUSH2 0x4171 JUMP JUMPDEST PUSH1 0x1 PUSH1 0x1 PUSH1 0xA0 SHL SUB DUP2 AND PUSH1 0x0 SWAP1 DUP2 MSTORE PUSH1 0xD PUSH1 0x20 MSTORE PUSH1 0x40 SWAP1 KECCAK256 SLOAD DUP1 PUSH2 0x1129 JUMPI PUSH1 0x40 MLOAD PUSH3 0x461BCD PUSH1 0xE5 SHL DUP2 MSTORE PUSH1 0x4 ADD PUSH2 0xBDA SWAP1 PUSH2 0x4105 JUMP JUMPDEST PUSH1 0x1 PUSH1 0x1 PUSH1 0xA0 SHL SUB DUP1 DUP4 AND PUSH1 0x0 SWAP1 DUP2 MSTORE PUSH1 0xD PUSH1 0x20 MSTORE PUSH1 0x40 DUP2 KECCAK256 SSTORE PUSH1 0xA SLOAD PUSH2 0x1152 SWAP2 AND DUP4 DUP4 PUSH2 0x28E3 JUMP JUMPDEST POP JUMPDEST POP PUSH1 0x1 PUSH1 0x5 SSTORE JUMP JUMPDEST PUSH2 0x1165 CALLER PUSH2 0x2018 JUMP JUMPDEST PUSH2 0x116E JUMPI PUSH1 0x0 DUP1 REVERT JUMPDEST PUSH1 0x8 DUP1 SLOAD SWAP2 ISZERO ISZERO PUSH2 0x100 MUL PUSH2 0xFF00 NOT SWAP1 SWAP3 AND SWAP2 SWAP1 SWAP2 OR SWAP1 SSTORE JUMP JUMPDEST PUSH1 0x2 PUSH1 0x5 SLOAD EQ ISZERO PUSH2 0x11AB JUMPI PUSH1 0x40 MLOAD PUSH3 0x461BCD PUSH1 0xE5 SHL DUP2 MSTORE PUSH1 0x4 ADD PUSH2 0xBDA SWAP1 PUSH2 0x4626 JUMP JUMPDEST PUSH1 0x2 PUSH1 0x5 SSTORE PUSH2 0x11B9 CALLER PUSH2 0x2018 JUMP JUMPDEST DUP1 PUSH2 0x11CE JUMPI POP PUSH1 0xC SLOAD PUSH1 0x1 PUSH1 0x1 PUSH1 0xA0 SHL SUB AND CALLER EQ JUMPDEST DUP1 PUSH2 0x11DD JUMPI POP PUSH2 0x11DD CALLER PUSH2 0xC32 JUMP JUMPDEST DUP1 PUSH2 0x11EB JUMPI POP PUSH2 0x11EB PUSH2 0xC4C JUMP JUMPDEST PUSH2 0x1207 JUMPI PUSH1 0x40 MLOAD PUSH3 0x461BCD PUSH1 0xE5 SHL DUP2 MSTORE PUSH1 0x4 ADD PUSH2 0xBDA SWAP1 PUSH2 0x44D9 JUMP JUMPDEST PUSH1 0x8 SLOAD PUSH1 0xFF AND ISZERO PUSH2 0x122A JUMPI PUSH1 0x40 MLOAD PUSH3 0x461BCD PUSH1 0xE5 SHL DUP2 MSTORE PUSH1 0x4 ADD PUSH2 0xBDA SWAP1 PUSH2 0x3DB2 JUMP JUMPDEST PUSH1 0x6 SLOAD PUSH1 0x1 PUSH1 0x80 SHL SWAP1 DIV PUSH1 0x1 PUSH1 0x1 PUSH1 0x80 SHL SUB AND PUSH2 0x1259 JUMPI PUSH1 0x40 MLOAD PUSH3 0x461BCD PUSH1 0xE5 SHL DUP2 MSTORE PUSH1 0x4 ADD PUSH2 0xBDA SWAP1 PUSH2 0x405E JUMP JUMPDEST PUSH1 0x6 SLOAD PUSH1 0x1 PUSH1 0x40 SHL SWAP1 DIV PUSH1 0x1 PUSH1 0x1 PUSH1 0x40 SHL SUB AND TIMESTAMP GT PUSH2 0x128A JUMPI PUSH1 0x40 MLOAD PUSH3 0x461BCD PUSH1 0xE5 SHL DUP2 MSTORE PUSH1 0x4 ADD PUSH2 0xBDA SWAP1 PUSH2 0x4171 JUMP JUMPDEST PUSH2 0x1292 PUSH2 0xEA0 JUMP JUMPDEST ISZERO PUSH2 0x12C5 JUMPI PUSH1 0xA SLOAD PUSH1 0xC SLOAD PUSH1 0x7 SLOAD PUSH2 0x12C0 SWAP3 PUSH1 0x1 PUSH1 0x1 PUSH1 0xA0 SHL SUB SWAP1 DUP2 AND SWAP3 AND SWAP1 PUSH1 0x1 PUSH1 0x1 PUSH1 0x80 SHL SUB AND PUSH2 0x28E3 JUMP JUMPDEST PUSH2 0x12F5 JUMP JUMPDEST PUSH1 0x9 SLOAD PUSH1 0xC SLOAD PUSH1 0x6 SLOAD PUSH2 0x12F5 SWAP3 PUSH1 0x1 PUSH1 0x1 PUSH1 0xA0 SHL SUB SWAP1 DUP2 AND SWAP3 AND SWAP1 PUSH1 0x1 PUSH1 0x80 SHL SWAP1 DIV PUSH1 0x1 PUSH1 0x1 PUSH1 0x80 SHL SUB AND PUSH2 0x28E3 JUMP JUMPDEST PUSH1 0x8 DUP1 SLOAD PUSH1 0xFF NOT AND PUSH1 0x1 OR SWAP1 SSTORE PUSH1 0x40 MLOAD PUSH32 0x32BEBCFD2D04DBAE321298091D96D2CB1D07279F59718CD83BD98245B8B82B5A SWAP1 PUSH1 0x0 SWAP1 LOG1 PUSH1 0x1 PUSH1 0x5 SSTORE JUMP JUMPDEST PUSH1 0x1 PUSH1 0x1 PUSH1 0xA0 SHL SUB DUP2 AND PUSH1 0x0 SWAP1 DUP2 MSTORE PUSH1 0xD PUSH1 0x20 MSTORE PUSH1 0x40 DUP2 KECCAK256 SLOAD PUSH2 0x1357 JUMPI POP PUSH1 0x0 PUSH2 0xC2D JUMP JUMPDEST PUSH1 0x9 SLOAD PUSH1 0x40 MLOAD PUSH4 0x70A08231 PUSH1 0xE0 SHL DUP2 MSTORE PUSH1 0x0 SWAP2 PUSH1 0x1 PUSH1 0x1 PUSH1 0xA0 SHL SUB AND SWAP1 PUSH4 0x70A08231 SWAP1 PUSH2 0x1388 SWAP1 ADDRESS SWAP1 PUSH1 0x4 ADD PUSH2 0x3945 JUMP JUMPDEST PUSH1 0x20 PUSH1 0x40 MLOAD DUP1 DUP4 SUB DUP2 DUP7 DUP1 EXTCODESIZE ISZERO DUP1 ISZERO PUSH2 0x13A0 JUMPI PUSH1 0x0 DUP1 REVERT JUMPDEST POP GAS STATICCALL ISZERO DUP1 ISZERO PUSH2 0x13B4 JUMPI RETURNDATASIZE PUSH1 0x0 DUP1 RETURNDATACOPY RETURNDATASIZE PUSH1 0x0 REVERT JUMPDEST POP POP POP POP PUSH1 0x40 MLOAD RETURNDATASIZE PUSH1 0x1F NOT PUSH1 0x1F DUP3 ADD AND DUP3 ADD DUP1 PUSH1 0x40 MSTORE POP DUP2 ADD SWAP1 PUSH2 0x13D8 SWAP2 SWAP1 PUSH2 0x3825 JUMP JUMPDEST PUSH1 0x1 PUSH1 0x1 PUSH1 0xA0 SHL SUB DUP5 AND PUSH1 0x0 SWAP1 DUP2 MSTORE PUSH1 0xD PUSH1 0x20 MSTORE PUSH1 0x40 SWAP1 KECCAK256 SLOAD SWAP1 SWAP2 POP PUSH2 0x13FD SWAP1 PUSH2 0x2927 JUMP JUMPDEST PUSH1 0x1 PUSH1 0x1 PUSH1 0xA0 SHL SUB DUP5 AND PUSH1 0x0 SWAP1 DUP2 MSTORE PUSH1 0xE PUSH1 0x20 MSTORE PUSH1 0x40 SWAP1 KECCAK256 SLOAD SWAP1 SWAP3 POP PUSH2 0x1424 SWAP1 DUP4 SWAP1 PUSH2 0x295F JUMP JUMPDEST SWAP2 POP DUP1 DUP3 GT ISZERO PUSH2 0x1432 JUMPI DUP1 SWAP2 POP JUMPDEST POP SWAP2 SWAP1 POP JUMP JUMPDEST PUSH1 0xC SLOAD PUSH1 0x1 PUSH1 0x1 PUSH1 0xA0 SHL SUB AND DUP2 JUMP JUMPDEST PUSH2 0x145F PUSH1 0x0 DUP1 MLOAD PUSH1 0x20 PUSH2 0x48E7 DUP4 CODECOPY DUP2 MLOAD SWAP2 MSTORE DUP3 PUSH2 0x232C JUMP JUMPDEST PUSH2 0x1467 PUSH2 0x27BD JUMP JUMPDEST PUSH1 0x1 PUSH1 0x1 PUSH1 0xA0 SHL SUB AND DUP2 PUSH1 0x1 PUSH1 0x1 PUSH1 0xA0 SHL SUB AND PUSH32 0x56692A161FFEC953DDF9DEF93B958EA8D1EC95E21B80870C66BE91A4374DC4E3 PUSH1 0x40 MLOAD PUSH1 0x40 MLOAD DUP1 SWAP2 SUB SWAP1 LOG3 POP JUMP JUMPDEST PUSH2 0x14B4 PUSH1 0x0 DUP3 PUSH2 0xDE9 JUMP JUMPDEST PUSH2 0x14BC PUSH2 0x27BD JUMP JUMPDEST PUSH1 0x1 PUSH1 0x1 PUSH1 0xA0 SHL SUB AND DUP2 PUSH1 0x1 PUSH1 0x1 PUSH1 0xA0 SHL SUB AND PUSH32 0x2570AC42FD8B322DC453ADA624DC2ED0E9BDD67F16F201A25BBD30468F2AA187 PUSH1 0x40 MLOAD PUSH1 0x40 MLOAD DUP1 SWAP2 SUB SWAP1 LOG3 POP JUMP JUMPDEST PUSH2 0x1507 CALLER PUSH2 0x2018 JUMP JUMPDEST PUSH2 0x1510 JUMPI PUSH1 0x0 DUP1 REVERT JUMPDEST PUSH5 0x2540BE400 DUP3 LT PUSH2 0x1534 JUMPI PUSH1 0x40 MLOAD PUSH3 0x461BCD PUSH1 0xE5 SHL DUP2 MSTORE PUSH1 0x4 ADD PUSH2 0xBDA SWAP1 PUSH2 0x3D4B JUMP JUMPDEST PUSH5 0x2540BE400 DUP2 LT PUSH2 0x1558 JUMPI PUSH1 0x40 MLOAD PUSH3 0x461BCD PUSH1 0xE5 SHL DUP2 MSTORE PUSH1 0x4 ADD PUSH2 0xBDA SWAP1 PUSH2 0x3D4B JUMP JUMPDEST TIMESTAMP DUP3 LT ISZERO PUSH2 0x1578 JUMPI PUSH1 0x40 MLOAD PUSH3 0x461BCD PUSH1 0xE5 SHL DUP2 MSTORE PUSH1 0x4 ADD PUSH2 0xBDA SWAP1 PUSH2 0x45D7 JUMP JUMPDEST DUP2 DUP2 GT PUSH2 0x1597 JUMPI PUSH1 0x40 MLOAD PUSH3 0x461BCD PUSH1 0xE5 SHL DUP2 MSTORE PUSH1 0x4 ADD PUSH2 0xBDA SWAP1 PUSH2 0x3F82 JUMP JUMPDEST PUSH1 0x7 SLOAD PUSH1 0x1 PUSH1 0x1 PUSH1 0x80 SHL SUB AND ISZERO PUSH2 0x15C0 JUMPI PUSH1 0x40 MLOAD PUSH3 0x461BCD PUSH1 0xE5 SHL DUP2 MSTORE PUSH1 0x4 ADD PUSH2 0xBDA SWAP1 PUSH2 0x42BC JUMP JUMPDEST PUSH2 0x15C9 DUP3 PUSH2 0x2982 JUMP JUMPDEST PUSH1 0x6 DUP1 SLOAD PUSH8 0xFFFFFFFFFFFFFFFF NOT AND PUSH1 0x1 PUSH1 0x1 PUSH1 0x40 SHL SUB SWAP3 SWAP1 SWAP3 AND SWAP2 SWAP1 SWAP2 OR SWAP1 SSTORE PUSH2 0x15F3 DUP2 PUSH2 0x2982 JUMP JUMPDEST PUSH1 0x6 DUP1 SLOAD PUSH1 0x1 PUSH1 0x1 PUSH1 0x40 SHL SUB SWAP3 SWAP1 SWAP3 AND PUSH1 0x1 PUSH1 0x40 SHL MUL PUSH8 0xFFFFFFFFFFFFFFFF PUSH1 0x40 SHL NOT SWAP1 SWAP3 AND SWAP2 SWAP1 SWAP2 OR SWAP1 SSTORE PUSH1 0x40 MLOAD PUSH32 0x5725D1E4352D6944889E54837FFAEFDE55CDC0B55796B831365D61CD4C87FDB8 SWAP1 PUSH2 0x1651 SWAP1 DUP5 SWAP1 DUP5 SWAP1 PUSH2 0x47BE JUMP JUMPDEST PUSH1 0x40 MLOAD DUP1 SWAP2 SUB SWAP1 LOG1 POP POP JUMP JUMPDEST PUSH1 0x60 PUSH1 0x40 MLOAD DUP1 PUSH2 0x180 ADD PUSH1 0x40 MSTORE DUP1 PUSH2 0x15B DUP2 MSTORE PUSH1 0x20 ADD PUSH2 0x4907 PUSH2 0x15B SWAP2 CODECOPY SWAP1 POP SWAP1 JUMP JUMPDEST PUSH5 0x2540BE400 DUP7 LT PUSH2 0x16A4 JUMPI PUSH1 0x40 MLOAD PUSH3 0x461BCD PUSH1 0xE5 SHL DUP2 MSTORE PUSH1 0x4 ADD PUSH2 0xBDA SWAP1 PUSH2 0x3D4B JUMP JUMPDEST TIMESTAMP DUP8 LT ISZERO PUSH2 0x16C4 JUMPI PUSH1 0x40 MLOAD PUSH3 0x461BCD PUSH1 0xE5 SHL DUP2 MSTORE PUSH1 0x4 ADD PUSH2 0xBDA SWAP1 PUSH2 0x45D7 JUMP JUMPDEST DUP7 DUP7 GT PUSH2 0x16E3 JUMPI PUSH1 0x40 MLOAD PUSH3 0x461BCD PUSH1 0xE5 SHL DUP2 MSTORE PUSH1 0x4 ADD PUSH2 0xBDA SWAP1 PUSH2 0x3EFF JUMP JUMPDEST PUSH1 0x0 DUP9 GT PUSH2 0x1703 JUMPI PUSH1 0x40 MLOAD PUSH3 0x461BCD PUSH1 0xE5 SHL DUP2 MSTORE PUSH1 0x4 ADD PUSH2 0xBDA SWAP1 PUSH2 0x41E4 JUMP JUMPDEST PUSH1 0x1 PUSH1 0x1 PUSH1 0xA0 SHL SUB DUP4 AND PUSH2 0x1729 JUMPI PUSH1 0x40 MLOAD PUSH3 0x461BCD PUSH1 0xE5 SHL DUP2 MSTORE PUSH1 0x4 ADD PUSH2 0xBDA SWAP1 PUSH2 0x4087 JUMP JUMPDEST PUSH1 0x1 PUSH1 0x1 PUSH1 0xA0 SHL SUB DUP2 AND PUSH2 0x174F JUMPI PUSH1 0x40 MLOAD PUSH3 0x461BCD PUSH1 0xE5 SHL DUP2 MSTORE PUSH1 0x4 ADD PUSH2 0xBDA SWAP1 PUSH2 0x43D8 JUMP JUMPDEST DUP9 PUSH1 0x1 PUSH1 0x1 PUSH1 0xA0 SHL SUB AND PUSH4 0x313CE567 PUSH1 0x40 MLOAD DUP2 PUSH4 0xFFFFFFFF AND PUSH1 0xE0 SHL DUP2 MSTORE PUSH1 0x4 ADD PUSH1 0x20 PUSH1 0x40 MLOAD DUP1 DUP4 SUB DUP2 DUP7 DUP1 EXTCODESIZE ISZERO DUP1 ISZERO PUSH2 0x1788 JUMPI PUSH1 0x0 DUP1 REVERT JUMPDEST POP GAS STATICCALL ISZERO DUP1 ISZERO PUSH2 0x179C JUMPI RETURNDATASIZE PUSH1 0x0 DUP1 RETURNDATACOPY RETURNDATASIZE PUSH1 0x0 REVERT JUMPDEST POP POP POP POP PUSH1 0x40 MLOAD RETURNDATASIZE PUSH1 0x1F NOT PUSH1 0x1F DUP3 ADD AND DUP3 ADD DUP1 PUSH1 0x40 MSTORE POP DUP2 ADD SWAP1 PUSH2 0x17C0 SWAP2 SWAP1 PUSH2 0x3861 JUMP JUMPDEST PUSH1 0xFF AND PUSH1 0x12 EQ PUSH2 0x17E2 JUMPI PUSH1 0x40 MLOAD PUSH3 0x461BCD PUSH1 0xE5 SHL DUP2 MSTORE PUSH1 0x4 ADD PUSH2 0xBDA SWAP1 PUSH2 0x426F JUMP JUMPDEST PUSH1 0x1 PUSH1 0x1 PUSH1 0xA0 SHL SUB DUP6 AND PUSH20 0xEEEEEEEEEEEEEEEEEEEEEEEEEEEEEEEEEEEEEEEE EQ PUSH2 0x1899 JUMPI PUSH1 0x0 DUP6 PUSH1 0x1 PUSH1 0x1 PUSH1 0xA0 SHL SUB AND PUSH4 0x313CE567 PUSH1 0x40 MLOAD DUP2 PUSH4 0xFFFFFFFF AND PUSH1 0xE0 SHL DUP2 MSTORE PUSH1 0x4 ADD PUSH1 0x20 PUSH1 0x40 MLOAD DUP1 DUP4 SUB DUP2 DUP7 DUP1 EXTCODESIZE ISZERO DUP1 ISZERO PUSH2 0x1841 JUMPI PUSH1 0x0 DUP1 REVERT JUMPDEST POP GAS STATICCALL ISZERO DUP1 ISZERO PUSH2 0x1855 JUMPI RETURNDATASIZE PUSH1 0x0 DUP1 RETURNDATACOPY RETURNDATASIZE PUSH1 0x0 REVERT JUMPDEST POP POP POP POP PUSH1 0x40 MLOAD RETURNDATASIZE PUSH1 0x1F NOT PUSH1 0x1F DUP3 ADD AND DUP3 ADD DUP1 PUSH1 0x40 MSTORE POP DUP2 ADD SWAP1 PUSH2 0x1879 SWAP2 SWAP1 PUSH2 0x3861 JUMP JUMPDEST PUSH1 0xFF AND GT PUSH2 0x1899 JUMPI PUSH1 0x40 MLOAD PUSH3 0x461BCD PUSH1 0xE5 SHL DUP2 MSTORE PUSH1 0x4 ADD PUSH2 0xBDA SWAP1 PUSH2 0x430D JUMP JUMPDEST PUSH2 0x18A2 DUP5 PUSH2 0x2893 JUMP JUMPDEST PUSH1 0x7 DUP1 SLOAD PUSH1 0x1 PUSH1 0x1 PUSH1 0x80 SHL SUB SWAP3 DUP4 AND PUSH1 0x1 PUSH1 0x80 SHL MUL SWAP3 AND SWAP2 SWAP1 SWAP2 OR SWAP1 SSTORE PUSH2 0x18C8 DUP8 PUSH2 0x2982 JUMP JUMPDEST PUSH1 0x6 DUP1 SLOAD PUSH8 0xFFFFFFFFFFFFFFFF NOT AND PUSH1 0x1 PUSH1 0x1 PUSH1 0x40 SHL SUB SWAP3 SWAP1 SWAP3 AND SWAP2 SWAP1 SWAP2 OR SWAP1 SSTORE PUSH2 0x18F2 DUP7 PUSH2 0x2982 JUMP JUMPDEST PUSH1 0x6 DUP1 SLOAD PUSH1 0x1 PUSH1 0x1 PUSH1 0x40 SHL SUB SWAP3 SWAP1 SWAP3 AND PUSH1 0x1 PUSH1 0x40 SHL MUL PUSH8 0xFFFFFFFFFFFFFFFF PUSH1 0x40 SHL NOT SWAP1 SWAP3 AND SWAP2 SWAP1 SWAP2 OR SWAP1 SSTORE PUSH2 0x1927 DUP9 PUSH2 0x2893 JUMP JUMPDEST PUSH1 0x6 DUP1 SLOAD PUSH1 0x1 PUSH1 0x1 PUSH1 0x80 SHL SUB SWAP3 DUP4 AND PUSH1 0x1 PUSH1 0x80 SHL MUL SWAP3 AND SWAP2 SWAP1 SWAP2 OR SWAP1 SSTORE PUSH1 0x9 DUP1 SLOAD PUSH1 0x1 PUSH1 0x1 PUSH1 0xA0 SHL SUB DUP1 DUP13 AND PUSH1 0x1 PUSH1 0x1 PUSH1 0xA0 SHL SUB NOT SWAP3 DUP4 AND OR SWAP1 SWAP3 SSTORE PUSH1 0xA DUP1 SLOAD DUP9 DUP5 AND SWAP1 DUP4 AND OR SWAP1 SSTORE PUSH1 0xC DUP1 SLOAD SWAP3 DUP5 AND SWAP3 SWAP1 SWAP2 AND SWAP2 SWAP1 SWAP2 OR SWAP1 SSTORE PUSH2 0x198A DUP4 PUSH2 0x242A JUMP JUMPDEST PUSH2 0x1993 DUP3 PUSH2 0x29AB JUMP JUMPDEST PUSH1 0x9 SLOAD PUSH2 0x19AA SWAP1 PUSH1 0x1 PUSH1 0x1 PUSH1 0xA0 SHL SUB AND DUP12 DUP11 PUSH2 0x2534 JUMP JUMPDEST POP POP POP POP POP POP POP POP POP POP JUMP JUMPDEST PUSH1 0x40 MLOAD PUSH4 0xD505ACCF PUSH1 0xE0 SHL DUP2 MSTORE PUSH1 0x1 PUSH1 0x1 PUSH1 0xA0 SHL SUB DUP10 AND SWAP1 PUSH4 0xD505ACCF SWAP1 PUSH2 0x19EE SWAP1 DUP11 SWAP1 DUP11 SWAP1 DUP11 SWAP1 DUP11 SWAP1 DUP11 SWAP1 DUP11 SWAP1 DUP11 SWAP1 PUSH1 0x4 ADD PUSH2 0x39D6 JUMP JUMPDEST PUSH1 0x0 PUSH1 0x40 MLOAD DUP1 DUP4 SUB DUP2 PUSH1 0x0 DUP8 DUP1 EXTCODESIZE ISZERO DUP1 ISZERO PUSH2 0x1A08 JUMPI PUSH1 0x0 DUP1 REVERT JUMPDEST POP GAS CALL ISZERO DUP1 ISZERO PUSH2 0x1A1C JUMPI RETURNDATASIZE PUSH1 0x0 DUP1 RETURNDATACOPY RETURNDATASIZE PUSH1 0x0 REVERT JUMPDEST POP POP POP POP POP POP POP POP POP POP POP POP JUMP JUMPDEST PUSH1 0x60 PUSH1 0x0 PUSH1 0x2 DUP5 DUP5 PUSH1 0x40 MLOAD PUSH2 0x1A40 SWAP3 SWAP2 SWAP1 PUSH2 0x38A9 JUMP JUMPDEST SWAP1 DUP2 MSTORE PUSH1 0x20 ADD PUSH1 0x40 MLOAD DUP1 SWAP2 SUB SWAP1 KECCAK256 PUSH1 0x1 ADD PUSH1 0x2 DUP6 DUP6 PUSH1 0x40 MLOAD PUSH2 0x1A63 SWAP3 SWAP2 SWAP1 PUSH2 0x38A9 JUMP JUMPDEST SWAP1 DUP2 MSTORE PUSH1 0x40 DUP1 MLOAD PUSH1 0x20 SWAP3 DUP2 SWAP1 SUB DUP4 ADD DUP2 KECCAK256 SLOAD DUP5 SLOAD PUSH1 0x2 PUSH2 0x100 PUSH1 0x1 DUP4 AND ISZERO MUL PUSH1 0x0 NOT ADD SWAP1 SWAP2 AND DIV PUSH1 0x1F DUP2 ADD DUP6 SWAP1 DIV DUP6 MUL DUP4 ADD DUP6 ADD SWAP1 SWAP4 MSTORE DUP3 DUP3 MSTORE PUSH5 0x100000000 SWAP1 DIV PUSH1 0x1 PUSH1 0x1 PUSH1 0x40 SHL SUB AND SWAP3 SWAP1 SWAP2 DUP5 SWAP2 DUP4 ADD DUP3 DUP3 DUP1 ISZERO PUSH2 0x1B04 JUMPI DUP1 PUSH1 0x1F LT PUSH2 0x1AD9 JUMPI PUSH2 0x100 DUP1 DUP4 SLOAD DIV MUL DUP4 MSTORE SWAP2 PUSH1 0x20 ADD SWAP2 PUSH2 0x1B04 JUMP JUMPDEST DUP3 ADD SWAP2 SWAP1 PUSH1 0x0 MSTORE PUSH1 0x20 PUSH1 0x0 KECCAK256 SWAP1 JUMPDEST DUP2 SLOAD DUP2 MSTORE SWAP1 PUSH1 0x1 ADD SWAP1 PUSH1 0x20 ADD DUP1 DUP4 GT PUSH2 0x1AE7 JUMPI DUP3 SWAP1 SUB PUSH1 0x1F AND DUP3 ADD SWAP2 JUMPDEST POP POP POP POP POP SWAP2 POP SWAP2 POP SWAP2 POP JUMPDEST SWAP3 POP SWAP3 SWAP1 POP JUMP JUMPDEST PUSH1 0x6 SLOAD PUSH1 0x7 SLOAD PUSH1 0x0 SWAP2 PUSH2 0xED1 SWAP2 PUSH1 0x1 PUSH1 0x1 PUSH1 0x80 SHL SUB PUSH1 0x1 PUSH1 0x80 SHL SWAP1 SWAP3 DIV DUP3 AND SWAP2 PUSH2 0x1B4A SWAP2 AND PUSH8 0xDE0B6B3A7640000 PUSH2 0x29E9 JUMP JUMPDEST SWAP1 PUSH2 0x2A20 JUMP JUMPDEST PUSH1 0x0 DUP1 DUP1 DUP1 DUP1 DUP1 DUP1 DUP1 DUP1 DUP1 PUSH2 0x1B67 DUP12 DUP14 ADD DUP14 PUSH2 0x3404 JUMP JUMPDEST SWAP10 POP SWAP10 POP SWAP10 POP SWAP10 POP SWAP10 POP SWAP10 POP SWAP10 POP SWAP10 POP SWAP10 POP SWAP10 POP PUSH2 0x1A1C DUP11 DUP11 DUP11 DUP11 DUP11 DUP11 DUP11 DUP11 DUP11 DUP11 PUSH2 0x1680 JUMP JUMPDEST PUSH1 0x0 DUP1 MLOAD PUSH1 0x20 PUSH2 0x48A7 DUP4 CODECOPY DUP2 MLOAD SWAP2 MSTORE DUP2 JUMP JUMPDEST PUSH1 0x6 SLOAD PUSH1 0x1 PUSH1 0x40 SHL SWAP1 DIV PUSH1 0x1 PUSH1 0x1 PUSH1 0x40 SHL SUB AND TIMESTAMP GT SWAP1 JUMP JUMPDEST PUSH2 0x1BCF PUSH1 0x0 DUP1 MLOAD PUSH1 0x20 PUSH2 0x48A7 DUP4 CODECOPY DUP2 MLOAD SWAP2 MSTORE DUP3 PUSH2 0x232C JUMP JUMPDEST PUSH2 0x1BD7 PUSH2 0x27BD JUMP JUMPDEST PUSH1 0x1 PUSH1 0x1 PUSH1 0xA0 SHL SUB AND DUP2 PUSH1 0x1 PUSH1 0x1 PUSH1 0xA0 SHL SUB AND PUSH32 0xE5F1AA9E528307345194B88B24A32401C13926E0823060F1049D9B26C0BB62B2 PUSH1 0x40 MLOAD PUSH1 0x40 MLOAD DUP1 SWAP2 SUB SWAP1 LOG3 POP JUMP JUMPDEST PUSH2 0x1C22 CALLER PUSH2 0xFE9 JUMP JUMPDEST JUMP JUMPDEST PUSH1 0x2 PUSH1 0x5 SLOAD EQ ISZERO PUSH2 0x1C47 JUMPI PUSH1 0x40 MLOAD PUSH3 0x461BCD PUSH1 0xE5 SHL DUP2 MSTORE PUSH1 0x4 ADD PUSH2 0xBDA SWAP1 PUSH2 0x4626 JUMP JUMPDEST PUSH1 0x2 PUSH1 0x5 SSTORE PUSH2 0x1C55 CALLER PUSH2 0x2018 JUMP JUMPDEST PUSH2 0x1C5E JUMPI PUSH1 0x0 DUP1 REVERT JUMPDEST PUSH1 0x8 SLOAD PUSH1 0x7 SWAP1 PUSH1 0xFF AND ISZERO PUSH2 0x1C84 JUMPI PUSH1 0x40 MLOAD PUSH3 0x461BCD PUSH1 0xE5 SHL DUP2 MSTORE PUSH1 0x4 ADD PUSH2 0xBDA SWAP1 PUSH2 0x3EC8 JUMP JUMPDEST DUP1 SLOAD PUSH1 0x1 PUSH1 0x1 PUSH1 0x80 SHL SUB AND ISZERO PUSH2 0x1CAC JUMPI PUSH1 0x40 MLOAD PUSH3 0x461BCD PUSH1 0xE5 SHL DUP2 MSTORE PUSH1 0x4 ADD PUSH2 0xBDA SWAP1 PUSH2 0x4552 JUMP JUMPDEST PUSH1 0x9 SLOAD PUSH1 0xC SLOAD PUSH1 0x6 SLOAD PUSH2 0x1CDC SWAP3 PUSH1 0x1 PUSH1 0x1 PUSH1 0xA0 SHL SUB SWAP1 DUP2 AND SWAP3 AND SWAP1 PUSH1 0x1 PUSH1 0x80 SHL SWAP1 DIV PUSH1 0x1 PUSH1 0x1 PUSH1 0x80 SHL SUB AND PUSH2 0x28E3 JUMP JUMPDEST PUSH1 0x1 DUP2 DUP2 ADD DUP1 SLOAD PUSH1 0xFF NOT AND SWAP1 SWAP2 OR SWAP1 SSTORE PUSH1 0x40 MLOAD PUSH32 0xA5FB31E47BD1ECA58BF14A3312D5E6AEAFDC4EE787C8ED348C15C2B092324D93 SWAP1 PUSH1 0x0 SWAP1 LOG1 POP PUSH1 0x1 PUSH1 0x5 SSTORE JUMP JUMPDEST PUSH1 0x0 DUP3 DUP2 MSTORE PUSH1 0x20 DUP2 SWAP1 MSTORE PUSH1 0x40 DUP2 KECCAK256 PUSH2 0x1D35 SWAP1 DUP4 PUSH2 0x2A52 JUMP JUMPDEST SWAP1 POP JUMPDEST SWAP3 SWAP2 POP POP JUMP JUMPDEST PUSH1 0x0 DUP3 DUP2 MSTORE PUSH1 0x20 DUP2 SWAP1 MSTORE PUSH1 0x40 DUP2 KECCAK256 PUSH2 0x1D35 SWAP1 DUP4 PUSH2 0x2A5E JUMP JUMPDEST PUSH2 0x1D6E PUSH1 0x0 DUP1 MLOAD PUSH1 0x20 PUSH2 0x48C7 DUP4 CODECOPY DUP2 MLOAD SWAP2 MSTORE DUP3 PUSH2 0x232C JUMP JUMPDEST PUSH2 0x1D76 PUSH2 0x27BD JUMP JUMPDEST PUSH1 0x1 PUSH1 0x1 PUSH1 0xA0 SHL SUB AND DUP2 PUSH1 0x1 PUSH1 0x1 PUSH1 0xA0 SHL SUB AND PUSH32 0x70B25138B6FADEB9992D18B9653564271823E34B3E3257515D12A6D4B15FCDDF PUSH1 0x40 MLOAD PUSH1 0x40 MLOAD DUP1 SWAP2 SUB SWAP1 LOG3 POP JUMP JUMPDEST PUSH1 0x9 SLOAD PUSH1 0x1 PUSH1 0x1 PUSH1 0xA0 SHL SUB AND DUP2 JUMP JUMPDEST PUSH2 0x1DD0 CALLER PUSH2 0x2018 JUMP JUMPDEST PUSH2 0x1DD9 JUMPI PUSH1 0x0 DUP1 REVERT JUMPDEST PUSH1 0x1 PUSH1 0x1 PUSH1 0xA0 SHL SUB DUP2 AND PUSH2 0x1DFF JUMPI PUSH1 0x40 MLOAD PUSH3 0x461BCD PUSH1 0xE5 SHL DUP2 MSTORE PUSH1 0x4 ADD PUSH2 0xBDA SWAP1 PUSH2 0x43D8 JUMP JUMPDEST PUSH1 0xC DUP1 SLOAD PUSH1 0x1 PUSH1 0x1 PUSH1 0xA0 SHL SUB NOT AND PUSH1 0x1 PUSH1 0x1 PUSH1 0xA0 SHL SUB DUP4 AND OR SWAP1 SSTORE PUSH1 0x40 MLOAD PUSH32 0x34AE2BAD9265F0212D4CF341708B8250949164BB54F9D0E4F442024F83BB2F90 SWAP1 PUSH2 0xF67 SWAP1 DUP4 SWAP1 PUSH2 0x3945 JUMP JUMPDEST PUSH2 0x1E53 CALLER PUSH2 0x2018 JUMP JUMPDEST PUSH2 0x1E5C JUMPI PUSH1 0x0 DUP1 REVERT JUMPDEST PUSH2 0x1E68 DUP5 DUP5 DUP5 DUP5 PUSH2 0x2A73 JUMP JUMPDEST POP POP POP POP JUMP JUMPDEST PUSH1 0x60 PUSH1 0x4 DUP1 SLOAD DUP1 PUSH1 0x20 MUL PUSH1 0x20 ADD PUSH1 0x40 MLOAD SWAP1 DUP2 ADD PUSH1 0x40 MSTORE DUP1 SWAP3 SWAP2 SWAP1 DUP2 DUP2 MSTORE PUSH1 0x20 ADD PUSH1 0x0 SWAP1 JUMPDEST DUP3 DUP3 LT ISZERO PUSH2 0x1F3D JUMPI PUSH1 0x0 DUP5 DUP2 MSTORE PUSH1 0x20 SWAP1 DUP2 SWAP1 KECCAK256 DUP4 ADD DUP1 SLOAD PUSH1 0x40 DUP1 MLOAD PUSH1 0x1F PUSH1 0x2 PUSH1 0x0 NOT PUSH2 0x100 PUSH1 0x1 DUP8 AND ISZERO MUL ADD SWAP1 SWAP5 AND SWAP4 SWAP1 SWAP4 DIV SWAP3 DUP4 ADD DUP6 SWAP1 DIV DUP6 MUL DUP2 ADD DUP6 ADD SWAP1 SWAP2 MSTORE DUP2 DUP2 MSTORE SWAP3 DUP4 ADD DUP3 DUP3 DUP1 ISZERO PUSH2 0x1F29 JUMPI DUP1 PUSH1 0x1F LT PUSH2 0x1EFE JUMPI PUSH2 0x100 DUP1 DUP4 SLOAD DIV MUL DUP4 MSTORE SWAP2 PUSH1 0x20 ADD SWAP2 PUSH2 0x1F29 JUMP JUMPDEST DUP3 ADD SWAP2 SWAP1 PUSH1 0x0 MSTORE PUSH1 0x20 PUSH1 0x0 KECCAK256 SWAP1 JUMPDEST DUP2 SLOAD DUP2 MSTORE SWAP1 PUSH1 0x1 ADD SWAP1 PUSH1 0x20 ADD DUP1 DUP4 GT PUSH2 0x1F0C JUMPI DUP3 SWAP1 SUB PUSH1 0x1F AND DUP3 ADD SWAP2 JUMPDEST POP POP POP POP POP DUP2 MSTORE PUSH1 0x20 ADD SWAP1 PUSH1 0x1 ADD SWAP1 PUSH2 0x1E92 JUMP JUMPDEST POP POP POP POP SWAP1 POP SWAP1 JUMP JUMPDEST PUSH1 0x0 DUP2 JUMP JUMPDEST PUSH2 0x1F63 PUSH1 0x0 DUP1 MLOAD PUSH1 0x20 PUSH2 0x48E7 DUP4 CODECOPY DUP2 MLOAD SWAP2 MSTORE DUP3 PUSH2 0xDE9 JUMP JUMPDEST PUSH2 0x1F6B PUSH2 0x27BD JUMP JUMPDEST PUSH1 0x1 PUSH1 0x1 PUSH1 0xA0 SHL SUB AND DUP2 PUSH1 0x1 PUSH1 0x1 PUSH1 0xA0 SHL SUB AND PUSH32 0xBE6AB9784C7401FAFB73F7BC47BC67CC4EF8C47A60AD3CB66D1DE0353A0784C PUSH1 0x40 MLOAD PUSH1 0x40 MLOAD DUP1 SWAP2 SUB SWAP1 LOG3 POP JUMP JUMPDEST PUSH1 0x8 SLOAD PUSH1 0xFF AND SWAP1 JUMP JUMPDEST PUSH2 0x1FCE PUSH1 0x0 DUP1 MLOAD PUSH1 0x20 PUSH2 0x48C7 DUP4 CODECOPY DUP2 MLOAD SWAP2 MSTORE DUP3 PUSH2 0xDE9 JUMP JUMPDEST PUSH2 0x1FD6 PUSH2 0x27BD JUMP JUMPDEST PUSH1 0x1 PUSH1 0x1 PUSH1 0xA0 SHL SUB AND DUP2 PUSH1 0x1 PUSH1 0x1 PUSH1 0xA0 SHL SUB AND PUSH32 0x2D45EE102874989882745A26688D0B4FFFEE125A18DF26536B12582C7FDE4E17 PUSH1 0x40 MLOAD PUSH1 0x40 MLOAD DUP1 SWAP2 SUB SWAP1 LOG3 POP JUMP JUMPDEST PUSH1 0x0 PUSH2 0xC2A DUP2 DUP4 PUSH2 0x1D3E JUMP JUMPDEST PUSH1 0x4 SLOAD PUSH1 0x60 SWAP1 DUP3 LT PUSH2 0x2048 JUMPI PUSH1 0x40 MLOAD PUSH3 0x461BCD PUSH1 0xE5 SHL DUP2 MSTORE PUSH1 0x4 ADD PUSH2 0xBDA SWAP1 PUSH2 0x44AC JUMP JUMPDEST PUSH1 0x4 DUP3 DUP2 SLOAD DUP2 LT PUSH2 0x2055 JUMPI INVALID JUMPDEST PUSH1 0x0 SWAP2 DUP3 MSTORE PUSH1 0x20 SWAP2 DUP3 SWAP1 KECCAK256 ADD DUP1 SLOAD PUSH1 0x40 DUP1 MLOAD PUSH1 0x1F PUSH1 0x2 PUSH1 0x0 NOT PUSH2 0x100 PUSH1 0x1 DUP8 AND ISZERO MUL ADD SWAP1 SWAP5 AND SWAP4 SWAP1 SWAP4 DIV SWAP3 DUP4 ADD DUP6 SWAP1 DIV DUP6 MUL DUP2 ADD DUP6 ADD SWAP1 SWAP2 MSTORE DUP2 DUP2 MSTORE SWAP3 DUP4 ADD DUP3 DUP3 DUP1 ISZERO PUSH2 0x20E3 JUMPI DUP1 PUSH1 0x1F LT PUSH2 0x20B8 JUMPI PUSH2 0x100 DUP1 DUP4 SLOAD DIV MUL DUP4 MSTORE SWAP2 PUSH1 0x20 ADD SWAP2 PUSH2 0x20E3 JUMP JUMPDEST DUP3 ADD SWAP2 SWAP1 PUSH1 0x0 MSTORE PUSH1 0x20 PUSH1 0x0 KECCAK256 SWAP1 JUMPDEST DUP2 SLOAD DUP2 MSTORE SWAP1 PUSH1 0x1 ADD SWAP1 PUSH1 0x20 ADD DUP1 DUP4 GT PUSH2 0x20C6 JUMPI DUP3 SWAP1 SUB PUSH1 0x1F AND DUP3 ADD SWAP2 JUMPDEST POP POP POP POP POP SWAP1 POP SWAP2 SWAP1 POP JUMP JUMPDEST PUSH1 0xE PUSH1 0x20 MSTORE PUSH1 0x0 SWAP1 DUP2 MSTORE PUSH1 0x40 SWAP1 KECCAK256 SLOAD DUP2 JUMP JUMPDEST PUSH2 0x210A CALLER PUSH2 0x2018 JUMP JUMPDEST PUSH2 0x2113 JUMPI PUSH1 0x0 DUP1 REVERT JUMPDEST DUP3 PUSH1 0x0 JUMPDEST DUP2 DUP2 LT ISZERO PUSH2 0x216B JUMPI PUSH2 0x2163 DUP7 DUP7 DUP4 DUP2 DUP2 LT PUSH2 0x212E JUMPI INVALID JUMPDEST SWAP1 POP PUSH1 0x20 MUL DUP2 ADD SWAP1 PUSH2 0x2140 SWAP2 SWAP1 PUSH2 0x47F8 JUMP JUMPDEST DUP7 DUP7 DUP6 DUP2 DUP2 LT PUSH2 0x214C JUMPI INVALID JUMPDEST SWAP1 POP PUSH1 0x20 MUL DUP2 ADD SWAP1 PUSH2 0x215E SWAP2 SWAP1 PUSH2 0x47F8 JUMP JUMPDEST PUSH2 0x2A73 JUMP JUMPDEST PUSH1 0x1 ADD PUSH2 0x2117 JUMP JUMPDEST POP POP POP POP POP POP JUMP JUMPDEST PUSH1 0x0 DUP2 DUP2 MSTORE PUSH1 0x20 DUP2 SWAP1 MSTORE PUSH1 0x40 DUP2 KECCAK256 PUSH2 0xC2A SWAP1 PUSH2 0x2CC5 JUMP JUMPDEST PUSH1 0x60 DUP1 DUP4 PUSH1 0x1 PUSH1 0x1 PUSH1 0x40 SHL SUB DUP2 GT DUP1 ISZERO PUSH2 0x21A3 JUMPI PUSH1 0x0 DUP1 REVERT JUMPDEST POP PUSH1 0x40 MLOAD SWAP1 DUP1 DUP3 MSTORE DUP1 PUSH1 0x20 MUL PUSH1 0x20 ADD DUP3 ADD PUSH1 0x40 MSTORE DUP1 ISZERO PUSH2 0x21CD JUMPI DUP2 PUSH1 0x20 ADD PUSH1 0x20 DUP3 MUL DUP1 CALLDATASIZE DUP4 CALLDATACOPY ADD SWAP1 POP JUMPDEST POP SWAP2 POP DUP4 PUSH1 0x1 PUSH1 0x1 PUSH1 0x40 SHL SUB DUP2 GT DUP1 ISZERO PUSH2 0x21E6 JUMPI PUSH1 0x0 DUP1 REVERT JUMPDEST POP PUSH1 0x40 MLOAD SWAP1 DUP1 DUP3 MSTORE DUP1 PUSH1 0x20 MUL PUSH1 0x20 ADD DUP3 ADD PUSH1 0x40 MSTORE DUP1 ISZERO PUSH2 0x221A JUMPI DUP2 PUSH1 0x20 ADD JUMPDEST PUSH1 0x60 DUP2 MSTORE PUSH1 0x20 ADD SWAP1 PUSH1 0x1 SWAP1 SUB SWAP1 DUP2 PUSH2 0x2205 JUMPI SWAP1 POP JUMPDEST POP SWAP1 POP PUSH1 0x0 JUMPDEST DUP5 DUP2 LT ISZERO PUSH2 0x2311 JUMPI PUSH1 0x0 PUSH1 0x60 ADDRESS DUP9 DUP9 DUP6 DUP2 DUP2 LT PUSH2 0x2239 JUMPI INVALID JUMPDEST SWAP1 POP PUSH1 0x20 MUL DUP2 ADD SWAP1 PUSH2 0x224B SWAP2 SWAP1 PUSH2 0x47F8 JUMP JUMPDEST PUSH1 0x40 MLOAD PUSH2 0x2259 SWAP3 SWAP2 SWAP1 PUSH2 0x38A9 JUMP JUMPDEST PUSH1 0x0 PUSH1 0x40 MLOAD DUP1 DUP4 SUB DUP2 DUP6 GAS DELEGATECALL SWAP2 POP POP RETURNDATASIZE DUP1 PUSH1 0x0 DUP2 EQ PUSH2 0x2294 JUMPI PUSH1 0x40 MLOAD SWAP2 POP PUSH1 0x1F NOT PUSH1 0x3F RETURNDATASIZE ADD AND DUP3 ADD PUSH1 0x40 MSTORE RETURNDATASIZE DUP3 MSTORE RETURNDATASIZE PUSH1 0x0 PUSH1 0x20 DUP5 ADD RETURNDATACOPY PUSH2 0x2299 JUMP JUMPDEST PUSH1 0x60 SWAP2 POP JUMPDEST POP SWAP2 POP SWAP2 POP DUP2 DUP1 PUSH2 0x22A8 JUMPI POP DUP6 ISZERO JUMPDEST PUSH2 0x22B1 DUP3 PUSH2 0x2CD0 JUMP JUMPDEST SWAP1 PUSH2 0x22CF JUMPI PUSH1 0x40 MLOAD PUSH3 0x461BCD PUSH1 0xE5 SHL DUP2 MSTORE PUSH1 0x4 ADD PUSH2 0xBDA SWAP2 SWAP1 PUSH2 0x3B70 JUMP JUMPDEST POP DUP2 DUP6 DUP5 DUP2 MLOAD DUP2 LT PUSH2 0x22DD JUMPI INVALID JUMPDEST PUSH1 0x20 MUL PUSH1 0x20 ADD ADD SWAP1 ISZERO ISZERO SWAP1 DUP2 ISZERO ISZERO DUP2 MSTORE POP POP DUP1 DUP5 DUP5 DUP2 MLOAD DUP2 LT PUSH2 0x22FC JUMPI INVALID JUMPDEST PUSH1 0x20 SWAP1 DUP2 MUL SWAP2 SWAP1 SWAP2 ADD ADD MSTORE POP POP PUSH1 0x1 ADD PUSH2 0x2220 JUMP JUMPDEST POP SWAP4 POP SWAP4 SWAP2 POP POP JUMP JUMPDEST PUSH1 0x0 DUP1 MLOAD PUSH1 0x20 PUSH2 0x48E7 DUP4 CODECOPY DUP2 MLOAD SWAP2 MSTORE DUP2 JUMP JUMPDEST PUSH1 0x0 DUP3 DUP2 MSTORE PUSH1 0x20 DUP2 SWAP1 MSTORE PUSH1 0x40 SWAP1 KECCAK256 PUSH1 0x2 ADD SLOAD PUSH2 0x234A SWAP1 PUSH2 0x862 PUSH2 0x27BD JUMP JUMPDEST PUSH2 0xE96 JUMPI PUSH1 0x40 MLOAD PUSH3 0x461BCD PUSH1 0xE5 SHL DUP2 MSTORE PUSH1 0x4 ADD PUSH2 0xBDA SWAP1 PUSH2 0x400E JUMP JUMPDEST PUSH2 0x236F CALLER PUSH2 0x2018 JUMP JUMPDEST PUSH2 0x2378 JUMPI PUSH1 0x0 DUP1 REVERT JUMPDEST PUSH2 0x2381 DUP2 PUSH2 0x29AB JUMP JUMPDEST POP JUMP JUMPDEST PUSH2 0xDE5 CALLER DUP4 DUP4 PUSH2 0xC6F JUMP JUMPDEST PUSH2 0x239A PUSH1 0x0 DUP3 PUSH2 0x232C JUMP JUMPDEST PUSH2 0x23A2 PUSH2 0x27BD JUMP JUMPDEST PUSH1 0x1 PUSH1 0x1 PUSH1 0xA0 SHL SUB AND DUP2 PUSH1 0x1 PUSH1 0x1 PUSH1 0xA0 SHL SUB AND PUSH32 0x21BA1239795D4E22874E3DC55F0A9D7B65BFB23069D32965D7C23BE9524CCF95 PUSH1 0x40 MLOAD PUSH1 0x40 MLOAD DUP1 SWAP2 SUB SWAP1 LOG3 POP JUMP JUMPDEST PUSH2 0x23ED CALLER PUSH2 0x2018 JUMP JUMPDEST PUSH2 0x23F6 JUMPI PUSH1 0x0 DUP1 REVERT JUMPDEST PUSH2 0xDE5 DUP3 DUP3 PUSH2 0x2D30 JUMP JUMPDEST PUSH1 0x7 SLOAD PUSH1 0x8 SLOAD PUSH1 0x1 PUSH1 0x1 PUSH1 0x80 SHL SUB DUP1 DUP4 AND SWAP3 PUSH1 0x1 PUSH1 0x80 SHL SWAP1 DIV AND SWAP1 PUSH1 0xFF DUP1 DUP3 AND SWAP2 PUSH2 0x100 SWAP1 DIV AND DUP5 JUMP JUMPDEST PUSH1 0x1 SLOAD PUSH1 0xFF AND ISZERO PUSH2 0x244D JUMPI PUSH1 0x40 MLOAD PUSH3 0x461BCD PUSH1 0xE5 SHL DUP2 MSTORE PUSH1 0x4 ADD PUSH2 0xBDA SWAP1 PUSH2 0x3C8D JUMP JUMPDEST PUSH1 0x1 PUSH1 0x1 PUSH1 0xA0 SHL SUB DUP2 AND PUSH2 0x2473 JUMPI PUSH1 0x40 MLOAD PUSH3 0x461BCD PUSH1 0xE5 SHL DUP2 MSTORE PUSH1 0x4 ADD PUSH2 0xBDA SWAP1 PUSH2 0x41BB JUMP JUMPDEST PUSH2 0x247E PUSH1 0x0 DUP3 PUSH2 0xE23 JUMP JUMPDEST POP PUSH1 0x1 DUP1 SLOAD PUSH1 0xFF NOT AND DUP2 OR SWAP1 SSTORE JUMP JUMPDEST PUSH1 0xD PUSH1 0x20 MSTORE PUSH1 0x0 SWAP1 DUP2 MSTORE PUSH1 0x40 SWAP1 KECCAK256 SLOAD DUP2 JUMP JUMPDEST PUSH1 0xB SLOAD PUSH1 0x1 PUSH1 0x1 PUSH1 0xA0 SHL SUB AND DUP2 JUMP JUMPDEST PUSH1 0x6 SLOAD PUSH1 0x1 PUSH1 0x80 SHL SWAP1 DIV PUSH1 0x1 PUSH1 0x1 PUSH1 0x80 SHL SUB AND SWAP1 JUMP JUMPDEST PUSH1 0x0 DUP1 MLOAD PUSH1 0x20 PUSH2 0x48C7 DUP4 CODECOPY DUP2 MLOAD SWAP2 MSTORE DUP2 JUMP JUMPDEST PUSH1 0x60 DUP11 DUP11 DUP11 DUP11 DUP11 DUP11 DUP11 DUP11 DUP11 DUP11 PUSH1 0x40 MLOAD PUSH1 0x20 ADD PUSH2 0x24FB SWAP11 SWAP10 SWAP9 SWAP8 SWAP7 SWAP6 SWAP5 SWAP4 SWAP3 SWAP2 SWAP1 PUSH2 0x397D JUMP JUMPDEST PUSH1 0x40 MLOAD PUSH1 0x20 DUP2 DUP4 SUB SUB DUP2 MSTORE SWAP1 PUSH1 0x40 MSTORE SWAP1 POP SWAP11 SWAP10 POP POP POP POP POP POP POP POP POP POP JUMP JUMPDEST PUSH1 0x0 PUSH2 0xC2A PUSH1 0x0 DUP1 MLOAD PUSH1 0x20 PUSH2 0x48C7 DUP4 CODECOPY DUP2 MLOAD SWAP2 MSTORE DUP4 PUSH2 0x1D3E JUMP JUMPDEST PUSH1 0x0 PUSH1 0x60 DUP5 PUSH1 0x1 PUSH1 0x1 PUSH1 0xA0 SHL SUB AND PUSH4 0x23B872DD DUP6 ADDRESS DUP7 PUSH1 0x40 MLOAD PUSH1 0x24 ADD PUSH2 0x255C SWAP4 SWAP3 SWAP2 SWAP1 PUSH2 0x3959 JUMP JUMPDEST PUSH1 0x40 MLOAD PUSH1 0x20 DUP2 DUP4 SUB SUB DUP2 MSTORE SWAP1 PUSH1 0x40 MSTORE SWAP1 PUSH1 0xE0 SHL PUSH1 0x20 DUP3 ADD DUP1 MLOAD PUSH1 0x1 PUSH1 0x1 PUSH1 0xE0 SHL SUB DUP4 DUP2 DUP4 AND OR DUP4 MSTORE POP POP POP POP PUSH1 0x40 MLOAD PUSH2 0x2595 SWAP2 SWAP1 PUSH2 0x38B9 JUMP JUMPDEST PUSH1 0x0 PUSH1 0x40 MLOAD DUP1 DUP4 SUB DUP2 PUSH1 0x0 DUP7 GAS CALL SWAP2 POP POP RETURNDATASIZE DUP1 PUSH1 0x0 DUP2 EQ PUSH2 0x25D2 JUMPI PUSH1 0x40 MLOAD SWAP2 POP PUSH1 0x1F NOT PUSH1 0x3F RETURNDATASIZE ADD AND DUP3 ADD PUSH1 0x40 MSTORE RETURNDATASIZE DUP3 MSTORE RETURNDATASIZE PUSH1 0x0 PUSH1 0x20 DUP5 ADD RETURNDATACOPY PUSH2 0x25D7 JUMP JUMPDEST PUSH1 0x60 SWAP2 POP JUMPDEST POP SWAP2 POP SWAP2 POP DUP2 DUP1 ISZERO PUSH2 0x2601 JUMPI POP DUP1 MLOAD ISZERO DUP1 PUSH2 0x2601 JUMPI POP DUP1 DUP1 PUSH1 0x20 ADD SWAP1 MLOAD DUP2 ADD SWAP1 PUSH2 0x2601 SWAP2 SWAP1 PUSH2 0x35F5 JUMP JUMPDEST PUSH2 0x260A JUMPI PUSH1 0x0 DUP1 REVERT JUMPDEST POP POP POP POP POP JUMP JUMPDEST PUSH1 0x6 SLOAD PUSH1 0x1 PUSH1 0x1 PUSH1 0x40 SHL SUB AND TIMESTAMP LT DUP1 ISZERO SWAP1 PUSH2 0x263E JUMPI POP PUSH1 0x6 SLOAD PUSH1 0x1 PUSH1 0x40 SHL SWAP1 DIV PUSH1 0x1 PUSH1 0x1 PUSH1 0x40 SHL SUB AND TIMESTAMP GT ISZERO JUMPDEST PUSH2 0x265A JUMPI PUSH1 0x40 MLOAD PUSH3 0x461BCD PUSH1 0xE5 SHL DUP2 MSTORE PUSH1 0x4 ADD PUSH2 0xBDA SWAP1 PUSH2 0x4594 JUMP JUMPDEST PUSH1 0x1 PUSH1 0x1 PUSH1 0xA0 SHL SUB DUP3 AND PUSH1 0x0 SWAP1 DUP2 MSTORE PUSH1 0xD PUSH1 0x20 MSTORE PUSH1 0x40 DUP2 KECCAK256 SLOAD PUSH2 0x267D SWAP1 DUP4 PUSH2 0x28C0 JUMP JUMPDEST PUSH1 0x8 SLOAD SWAP1 SWAP2 POP PUSH2 0x100 SWAP1 DIV PUSH1 0xFF AND ISZERO PUSH2 0x271B JUMPI PUSH1 0xB SLOAD PUSH1 0x40 MLOAD PUSH4 0x1CD53D55 PUSH1 0xE0 SHL DUP2 MSTORE PUSH1 0x1 PUSH1 0x1 PUSH1 0xA0 SHL SUB SWAP1 SWAP2 AND SWAP1 PUSH4 0x1CD53D55 SWAP1 PUSH2 0x26C2 SWAP1 DUP7 SWAP1 DUP6 SWAP1 PUSH1 0x4 ADD PUSH2 0x3A17 JUMP JUMPDEST PUSH1 0x20 PUSH1 0x40 MLOAD DUP1 DUP4 SUB DUP2 DUP7 DUP1 EXTCODESIZE ISZERO DUP1 ISZERO PUSH2 0x26DA JUMPI PUSH1 0x0 DUP1 REVERT JUMPDEST POP GAS STATICCALL ISZERO DUP1 ISZERO PUSH2 0x26EE JUMPI RETURNDATASIZE PUSH1 0x0 DUP1 RETURNDATACOPY RETURNDATASIZE PUSH1 0x0 REVERT JUMPDEST POP POP POP POP PUSH1 0x40 MLOAD RETURNDATASIZE PUSH1 0x1F NOT PUSH1 0x1F DUP3 ADD AND DUP3 ADD DUP1 PUSH1 0x40 MSTORE POP DUP2 ADD SWAP1 PUSH2 0x2712 SWAP2 SWAP1 PUSH2 0x35F5 JUMP JUMPDEST PUSH2 0x271B JUMPI PUSH1 0x0 DUP1 REVERT JUMPDEST PUSH1 0x1 PUSH1 0x1 PUSH1 0xA0 SHL SUB DUP4 AND PUSH1 0x0 SWAP1 DUP2 MSTORE PUSH1 0xD PUSH1 0x20 MSTORE PUSH1 0x40 SWAP1 KECCAK256 DUP2 SWAP1 SSTORE PUSH1 0x7 SLOAD PUSH2 0x2755 SWAP1 PUSH2 0x2750 SWAP1 PUSH1 0x1 PUSH1 0x1 PUSH1 0x80 SHL SUB AND DUP5 PUSH2 0x28C0 JUMP JUMPDEST PUSH2 0x2893 JUMP JUMPDEST PUSH1 0x7 DUP1 SLOAD PUSH16 0xFFFFFFFFFFFFFFFFFFFFFFFFFFFFFFFF NOT AND PUSH1 0x1 PUSH1 0x1 PUSH1 0x80 SHL SUB SWAP3 SWAP1 SWAP3 AND SWAP2 SWAP1 SWAP2 OR SWAP1 SSTORE PUSH1 0x40 MLOAD PUSH32 0x77511A636BA1F10551CC7B89C13FF66A6AC9344E8A917527817A9690B15AF7A SWAP1 PUSH2 0x27B0 SWAP1 DUP6 SWAP1 DUP6 SWAP1 PUSH2 0x3A17 JUMP JUMPDEST PUSH1 0x40 MLOAD DUP1 SWAP2 SUB SWAP1 LOG1 POP POP POP JUMP JUMPDEST CALLER SWAP1 JUMP JUMPDEST PUSH1 0x0 DUP3 DUP2 MSTORE PUSH1 0x20 DUP2 SWAP1 MSTORE PUSH1 0x40 SWAP1 KECCAK256 PUSH2 0x27D9 SWAP1 DUP3 PUSH2 0x2F61 JUMP JUMPDEST ISZERO PUSH2 0xDE5 JUMPI PUSH2 0x27E6 PUSH2 0x27BD JUMP JUMPDEST PUSH1 0x1 PUSH1 0x1 PUSH1 0xA0 SHL SUB AND DUP2 PUSH1 0x1 PUSH1 0x1 PUSH1 0xA0 SHL SUB AND DUP4 PUSH32 0x2F8788117E7EFF1D82E926EC794901D17C78024A50270940304540A733656F0D PUSH1 0x40 MLOAD PUSH1 0x40 MLOAD DUP1 SWAP2 SUB SWAP1 LOG4 POP POP JUMP JUMPDEST PUSH1 0x0 DUP3 DUP2 MSTORE PUSH1 0x20 DUP2 SWAP1 MSTORE PUSH1 0x40 SWAP1 KECCAK256 PUSH2 0x2842 SWAP1 DUP3 PUSH2 0x2F76 JUMP JUMPDEST ISZERO PUSH2 0xDE5 JUMPI PUSH2 0x284F PUSH2 0x27BD JUMP JUMPDEST PUSH1 0x1 PUSH1 0x1 PUSH1 0xA0 SHL SUB AND DUP2 PUSH1 0x1 PUSH1 0x1 PUSH1 0xA0 SHL SUB AND DUP4 PUSH32 0xF6391F5C32D9C69D2A47EA670B442974B53935D1EDC7FD64EB21E047A839171B PUSH1 0x40 MLOAD PUSH1 0x40 MLOAD DUP1 SWAP2 SUB SWAP1 LOG4 POP POP JUMP JUMPDEST PUSH1 0x0 PUSH1 0x1 PUSH1 0x1 PUSH1 0x80 SHL SUB DUP3 GT ISZERO PUSH2 0x28BC JUMPI PUSH1 0x40 MLOAD PUSH3 0x461BCD PUSH1 0xE5 SHL DUP2 MSTORE PUSH1 0x4 ADD PUSH2 0xBDA SWAP1 PUSH2 0x3FD7 JUMP JUMPDEST POP SWAP1 JUMP JUMPDEST DUP2 DUP2 ADD DUP2 DUP2 LT ISZERO PUSH2 0x1D38 JUMPI PUSH1 0x40 MLOAD PUSH3 0x461BCD PUSH1 0xE5 SHL DUP2 MSTORE PUSH1 0x4 ADD PUSH2 0xBDA SWAP1 PUSH2 0x40CE JUMP JUMPDEST PUSH1 0x1 PUSH1 0x1 PUSH1 0xA0 SHL SUB DUP4 AND PUSH20 0xEEEEEEEEEEEEEEEEEEEEEEEEEEEEEEEEEEEEEEEE EQ ISZERO PUSH2 0x2917 JUMPI PUSH2 0x2912 DUP3 DUP3 PUSH2 0x2F8B JUMP JUMPDEST PUSH2 0x2922 JUMP JUMPDEST PUSH2 0x2922 DUP4 DUP4 DUP4 PUSH2 0x3018 JUMP JUMPDEST POP POP POP JUMP JUMPDEST PUSH1 0x7 SLOAD PUSH1 0x0 SWAP1 PUSH1 0x1 PUSH1 0x1 PUSH1 0x80 SHL SUB AND PUSH2 0x2942 JUMPI POP PUSH1 0x0 PUSH2 0xC2D JUMP JUMPDEST PUSH2 0xC2A PUSH2 0x294D PUSH2 0x1B17 JUMP JUMPDEST PUSH2 0x1B4A DUP5 PUSH8 0xDE0B6B3A7640000 PUSH2 0x29E9 JUMP JUMPDEST DUP1 DUP3 SUB DUP3 DUP2 GT ISZERO PUSH2 0x1D38 JUMPI PUSH1 0x40 MLOAD PUSH3 0x461BCD PUSH1 0xE5 SHL DUP2 MSTORE PUSH1 0x4 ADD PUSH2 0xBDA SWAP1 PUSH2 0x3C5E JUMP JUMPDEST PUSH1 0x0 PUSH1 0x1 PUSH1 0x1 PUSH1 0x40 SHL SUB DUP3 GT ISZERO PUSH2 0x28BC JUMPI PUSH1 0x40 MLOAD PUSH3 0x461BCD PUSH1 0xE5 SHL DUP2 MSTORE PUSH1 0x4 ADD PUSH2 0xBDA SWAP1 PUSH2 0x4358 JUMP JUMPDEST PUSH1 0x1 PUSH1 0x1 PUSH1 0xA0 SHL SUB DUP2 AND ISZERO PUSH2 0x2381 JUMPI PUSH1 0xB DUP1 SLOAD PUSH1 0x1 PUSH1 0x1 PUSH1 0xA0 SHL SUB DUP4 AND PUSH1 0x1 PUSH1 0x1 PUSH1 0xA0 SHL SUB NOT SWAP1 SWAP2 AND OR SWAP1 SSTORE PUSH1 0x8 DUP1 SLOAD PUSH2 0xFF00 NOT AND PUSH2 0x100 OR SWAP1 SSTORE POP JUMP JUMPDEST PUSH1 0x0 DUP2 ISZERO DUP1 PUSH2 0x2A04 JUMPI POP POP DUP1 DUP3 MUL DUP3 DUP3 DUP3 DUP2 PUSH2 0x2A01 JUMPI INVALID JUMPDEST DIV EQ JUMPDEST PUSH2 0x1D38 JUMPI PUSH1 0x40 MLOAD PUSH3 0x461BCD PUSH1 0xE5 SHL DUP2 MSTORE PUSH1 0x4 ADD PUSH2 0xBDA SWAP1 PUSH2 0x46AA JUMP JUMPDEST PUSH1 0x0 DUP1 DUP3 GT PUSH2 0x2A41 JUMPI PUSH1 0x40 MLOAD PUSH3 0x461BCD PUSH1 0xE5 SHL DUP2 MSTORE PUSH1 0x4 ADD PUSH2 0xBDA SWAP1 PUSH2 0x4765 JUMP JUMPDEST DUP2 DUP4 DUP2 PUSH2 0x2A4A JUMPI INVALID JUMPDEST DIV SWAP4 SWAP3 POP POP POP JUMP JUMPDEST PUSH1 0x0 PUSH2 0x1D35 DUP4 DUP4 PUSH2 0x303E JUMP JUMPDEST PUSH1 0x0 PUSH2 0x1D35 DUP4 PUSH1 0x1 PUSH1 0x1 PUSH1 0xA0 SHL SUB DUP5 AND PUSH2 0x3083 JUMP JUMPDEST DUP3 PUSH2 0x2A90 JUMPI PUSH1 0x40 MLOAD PUSH3 0x461BCD PUSH1 0xE5 SHL DUP2 MSTORE PUSH1 0x4 ADD PUSH2 0xBDA SWAP1 PUSH2 0x413A JUMP JUMPDEST DUP1 PUSH2 0x2AAD JUMPI PUSH1 0x40 MLOAD PUSH3 0x461BCD PUSH1 0xE5 SHL DUP2 MSTORE PUSH1 0x4 ADD PUSH2 0xBDA SWAP1 PUSH2 0x451B JUMP JUMPDEST PUSH1 0x0 PUSH1 0x1 PUSH1 0x1 PUSH1 0x40 SHL SUB AND PUSH1 0x2 DUP6 DUP6 PUSH1 0x40 MLOAD PUSH2 0x2ACA SWAP3 SWAP2 SWAP1 PUSH2 0x38A9 JUMP JUMPDEST SWAP1 DUP2 MSTORE PUSH1 0x40 MLOAD SWAP1 DUP2 SWAP1 SUB PUSH1 0x20 ADD SWAP1 KECCAK256 SLOAD PUSH1 0x1 PUSH1 0x1 PUSH1 0x40 SHL SUB PUSH5 0x100000000 SWAP1 SWAP2 DIV AND EQ ISZERO PUSH2 0x2B70 JUMPI PUSH1 0x4 DUP1 SLOAD PUSH1 0x1 DUP2 ADD DUP3 SSTORE PUSH1 0x0 SWAP2 SWAP1 SWAP2 MSTORE PUSH2 0x2B2F SWAP1 PUSH32 0x8A35ACFBC15FF81A39AE7D344FD709F28E8600B4AA8C65C6B64BFE7FE36BD19B ADD DUP6 DUP6 PUSH2 0x31AF JUMP JUMPDEST POP PUSH1 0x4 SLOAD PUSH1 0x40 MLOAD PUSH1 0x2 SWAP1 PUSH2 0x2B46 SWAP1 DUP8 SWAP1 DUP8 SWAP1 PUSH2 0x38A9 JUMP JUMPDEST SWAP1 DUP2 MSTORE PUSH1 0x40 MLOAD SWAP1 DUP2 SWAP1 SUB PUSH1 0x20 ADD SWAP1 KECCAK256 DUP1 SLOAD PUSH4 0xFFFFFFFF SWAP3 SWAP1 SWAP3 AND PUSH4 0xFFFFFFFF NOT SWAP1 SWAP3 AND SWAP2 SWAP1 SWAP2 OR SWAP1 SSTORE JUMPDEST PUSH1 0x40 MLOAD DUP1 PUSH1 0x60 ADD PUSH1 0x40 MSTORE DUP1 PUSH1 0x2 DUP7 DUP7 PUSH1 0x40 MLOAD PUSH2 0x2B8D SWAP3 SWAP2 SWAP1 PUSH2 0x38A9 JUMP JUMPDEST SWAP1 DUP2 MSTORE PUSH1 0x40 DUP1 MLOAD PUSH1 0x20 SWAP3 DUP2 SWAP1 SUB DUP4 ADD SWAP1 KECCAK256 SLOAD PUSH4 0xFFFFFFFF AND DUP4 MSTORE TIMESTAMP PUSH1 0x1 PUSH1 0x1 PUSH1 0x40 SHL SUB AND DUP4 DUP4 ADD MSTORE DUP1 MLOAD PUSH1 0x1F DUP7 ADD DUP4 SWAP1 DIV DUP4 MUL DUP2 ADD DUP4 ADD DUP3 MSTORE DUP6 DUP2 MSTORE SWAP3 ADD SWAP2 SWAP1 DUP6 SWAP1 DUP6 SWAP1 DUP2 SWAP1 DUP5 ADD DUP4 DUP3 DUP1 DUP3 DUP5 CALLDATACOPY PUSH1 0x0 SWAP3 ADD SWAP2 SWAP1 SWAP2 MSTORE POP POP POP SWAP2 MSTORE POP PUSH1 0x40 MLOAD PUSH1 0x2 SWAP1 PUSH2 0x2BFC SWAP1 DUP8 SWAP1 DUP8 SWAP1 PUSH2 0x38A9 JUMP JUMPDEST SWAP1 DUP2 MSTORE PUSH1 0x40 DUP1 MLOAD SWAP2 DUP3 SWAP1 SUB PUSH1 0x20 SWAP1 DUP2 ADD SWAP1 SWAP3 KECCAK256 DUP4 MLOAD DUP2 SLOAD DUP6 DUP6 ADD MLOAD PUSH1 0x1 PUSH1 0x1 PUSH1 0x40 SHL SUB AND PUSH5 0x100000000 MUL PUSH12 0xFFFFFFFFFFFFFFFF00000000 NOT PUSH4 0xFFFFFFFF SWAP1 SWAP4 AND PUSH4 0xFFFFFFFF NOT SWAP1 SWAP3 AND SWAP2 SWAP1 SWAP2 OR SWAP2 SWAP1 SWAP2 AND OR DUP2 SSTORE SWAP1 DUP4 ADD MLOAD DUP1 MLOAD SWAP2 SWAP3 PUSH2 0x2C6B SWAP3 PUSH1 0x1 DUP6 ADD SWAP3 SWAP1 SWAP2 ADD SWAP1 PUSH2 0x3229 JUMP JUMPDEST POP POP PUSH1 0x40 MLOAD PUSH2 0x2C7E SWAP2 POP DUP6 SWAP1 DUP6 SWAP1 PUSH2 0x38A9 JUMP JUMPDEST PUSH1 0x40 MLOAD DUP1 SWAP2 SUB SWAP1 KECCAK256 PUSH32 0xBAA206E5EA800EB88BCE099F453FEE53295B793B9D5D1CFC4CE4B6DB06A34F53 DUP4 DUP4 PUSH1 0x40 MLOAD PUSH2 0x2CB7 SWAP3 SWAP2 SWAP1 PUSH2 0x3B83 JUMP JUMPDEST PUSH1 0x40 MLOAD DUP1 SWAP2 SUB SWAP1 LOG2 POP POP POP POP JUMP JUMPDEST PUSH1 0x0 PUSH2 0xC2A DUP3 PUSH2 0x309B JUMP JUMPDEST PUSH1 0x60 PUSH1 0x44 DUP3 MLOAD LT ISZERO PUSH2 0x2D16 JUMPI POP PUSH1 0x40 DUP1 MLOAD DUP1 DUP3 ADD SWAP1 SWAP2 MSTORE PUSH1 0x1D DUP2 MSTORE PUSH32 0x5472616E73616374696F6E2072657665727465642073696C656E746C79000000 PUSH1 0x20 DUP3 ADD MSTORE PUSH2 0xC2D JUMP JUMPDEST PUSH1 0x4 DUP3 ADD SWAP2 POP DUP2 DUP1 PUSH1 0x20 ADD SWAP1 MLOAD DUP2 ADD SWAP1 PUSH2 0xC2A SWAP2 SWAP1 PUSH2 0x378B JUMP JUMPDEST PUSH1 0x0 PUSH1 0x1 PUSH1 0x1 PUSH1 0x40 SHL SUB AND PUSH1 0x2 DUP4 DUP4 PUSH1 0x40 MLOAD PUSH2 0x2D4D SWAP3 SWAP2 SWAP1 PUSH2 0x38A9 JUMP JUMPDEST SWAP1 DUP2 MSTORE PUSH1 0x40 MLOAD SWAP1 DUP2 SWAP1 SUB PUSH1 0x20 ADD SWAP1 KECCAK256 SLOAD PUSH1 0x1 PUSH1 0x1 PUSH1 0x40 SHL SUB PUSH5 0x100000000 SWAP1 SWAP2 DIV AND EQ ISZERO PUSH2 0x2D8D JUMPI PUSH1 0x40 MLOAD PUSH3 0x461BCD PUSH1 0xE5 SHL DUP2 MSTORE PUSH1 0x4 ADD PUSH2 0xBDA SWAP1 PUSH2 0x3F53 JUMP JUMPDEST PUSH1 0x0 PUSH1 0x1 PUSH1 0x2 DUP5 DUP5 PUSH1 0x40 MLOAD PUSH2 0x2DA3 SWAP3 SWAP2 SWAP1 PUSH2 0x38A9 JUMP JUMPDEST SWAP1 DUP2 MSTORE PUSH1 0x40 MLOAD SWAP1 DUP2 SWAP1 SUB PUSH1 0x20 ADD SWAP1 KECCAK256 SLOAD PUSH1 0x4 SLOAD PUSH4 0xFFFFFFFF SWAP2 DUP3 AND SWAP3 SWAP1 SWAP3 SUB SWAP3 POP DUP3 AND PUSH1 0x0 NOT SWAP1 SWAP2 ADD EQ PUSH2 0x2E84 JUMPI PUSH1 0x4 DUP1 SLOAD PUSH1 0x0 NOT DUP2 ADD SWAP1 DUP2 LT PUSH2 0x2DE3 JUMPI INVALID JUMPDEST SWAP1 PUSH1 0x0 MSTORE PUSH1 0x20 PUSH1 0x0 KECCAK256 ADD PUSH1 0x4 DUP3 PUSH4 0xFFFFFFFF AND DUP2 SLOAD DUP2 LT PUSH2 0x2E00 JUMPI INVALID JUMPDEST SWAP1 PUSH1 0x0 MSTORE PUSH1 0x20 PUSH1 0x0 KECCAK256 ADD SWAP1 DUP1 SLOAD PUSH1 0x1 DUP2 PUSH1 0x1 AND ISZERO PUSH2 0x100 MUL SUB AND PUSH1 0x2 SWAP1 DIV PUSH2 0x2E29 SWAP3 SWAP2 SWAP1 PUSH2 0x3297 JUMP JUMPDEST POP DUP1 PUSH1 0x1 ADD PUSH1 0x2 PUSH1 0x4 DUP4 PUSH4 0xFFFFFFFF AND DUP2 SLOAD DUP2 LT PUSH2 0x2E43 JUMPI INVALID JUMPDEST SWAP1 PUSH1 0x0 MSTORE PUSH1 0x20 PUSH1 0x0 KECCAK256 ADD PUSH1 0x40 MLOAD PUSH2 0x2E5A SWAP2 SWAP1 PUSH2 0x38D5 JUMP JUMPDEST SWAP1 DUP2 MSTORE PUSH1 0x40 MLOAD SWAP1 DUP2 SWAP1 SUB PUSH1 0x20 ADD SWAP1 KECCAK256 DUP1 SLOAD PUSH4 0xFFFFFFFF SWAP3 SWAP1 SWAP3 AND PUSH4 0xFFFFFFFF NOT SWAP1 SWAP3 AND SWAP2 SWAP1 SWAP2 OR SWAP1 SSTORE JUMPDEST PUSH1 0x4 DUP1 SLOAD DUP1 PUSH2 0x2E8F JUMPI INVALID JUMPDEST PUSH1 0x1 SWAP1 SUB DUP2 DUP2 SWAP1 PUSH1 0x0 MSTORE PUSH1 0x20 PUSH1 0x0 KECCAK256 ADD PUSH1 0x0 PUSH2 0x2EAB SWAP2 SWAP1 PUSH2 0x330C JUMP JUMPDEST SWAP1 SSTORE DUP3 DUP3 PUSH1 0x40 MLOAD PUSH2 0x2EBD SWAP3 SWAP2 SWAP1 PUSH2 0x38A9 JUMP JUMPDEST PUSH1 0x40 MLOAD DUP1 SWAP2 SUB SWAP1 KECCAK256 PUSH32 0x4B5338540B4D1C0F6DD0308A25F633B7FF60472F894D711CFF9DD64E35C613B2 PUSH1 0x2 DUP6 DUP6 PUSH1 0x40 MLOAD PUSH2 0x2EF8 SWAP3 SWAP2 SWAP1 PUSH2 0x38A9 JUMP JUMPDEST SWAP1 DUP2 MSTORE PUSH1 0x20 ADD PUSH1 0x40 MLOAD DUP1 SWAP2 SUB SWAP1 KECCAK256 PUSH1 0x1 ADD PUSH1 0x40 MLOAD PUSH2 0x2F16 SWAP2 SWAP1 PUSH2 0x3BD4 JUMP JUMPDEST PUSH1 0x40 MLOAD DUP1 SWAP2 SUB SWAP1 LOG2 PUSH1 0x2 DUP4 DUP4 PUSH1 0x40 MLOAD PUSH2 0x2F30 SWAP3 SWAP2 SWAP1 PUSH2 0x38A9 JUMP JUMPDEST SWAP1 DUP2 MSTORE PUSH1 0x40 MLOAD SWAP1 DUP2 SWAP1 SUB PUSH1 0x20 ADD SWAP1 KECCAK256 DUP1 SLOAD PUSH12 0xFFFFFFFFFFFFFFFFFFFFFFFF NOT AND DUP2 SSTORE PUSH1 0x0 PUSH2 0x260A PUSH1 0x1 DUP4 ADD DUP3 PUSH2 0x330C JUMP JUMPDEST PUSH1 0x0 PUSH2 0x1D35 DUP4 PUSH1 0x1 PUSH1 0x1 PUSH1 0xA0 SHL SUB DUP5 AND PUSH2 0x309F JUMP JUMPDEST PUSH1 0x0 PUSH2 0x1D35 DUP4 PUSH1 0x1 PUSH1 0x1 PUSH1 0xA0 SHL SUB DUP5 AND PUSH2 0x30E9 JUMP JUMPDEST PUSH1 0x40 DUP1 MLOAD PUSH1 0x0 DUP1 DUP3 MSTORE PUSH1 0x20 DUP3 ADD SWAP1 SWAP3 MSTORE PUSH1 0x1 PUSH1 0x1 PUSH1 0xA0 SHL SUB DUP5 AND SWAP1 DUP4 SWAP1 PUSH1 0x40 MLOAD PUSH2 0x2FB5 SWAP2 SWAP1 PUSH2 0x38B9 JUMP JUMPDEST PUSH1 0x0 PUSH1 0x40 MLOAD DUP1 DUP4 SUB DUP2 DUP6 DUP8 GAS CALL SWAP3 POP POP POP RETURNDATASIZE DUP1 PUSH1 0x0 DUP2 EQ PUSH2 0x2FF2 JUMPI PUSH1 0x40 MLOAD SWAP2 POP PUSH1 0x1F NOT PUSH1 0x3F RETURNDATASIZE ADD AND DUP3 ADD PUSH1 0x40 MSTORE RETURNDATASIZE DUP3 MSTORE RETURNDATASIZE PUSH1 0x0 PUSH1 0x20 DUP5 ADD RETURNDATACOPY PUSH2 0x2FF7 JUMP JUMPDEST PUSH1 0x60 SWAP2 POP JUMPDEST POP POP SWAP1 POP DUP1 PUSH2 0x2922 JUMPI PUSH1 0x40 MLOAD PUSH3 0x461BCD PUSH1 0xE5 SHL DUP2 MSTORE PUSH1 0x4 ADD PUSH2 0xBDA SWAP1 PUSH2 0x4469 JUMP JUMPDEST PUSH1 0x0 PUSH1 0x60 DUP5 PUSH1 0x1 PUSH1 0x1 PUSH1 0xA0 SHL SUB AND PUSH4 0xA9059CBB DUP6 DUP6 PUSH1 0x40 MLOAD PUSH1 0x24 ADD PUSH2 0x255C SWAP3 SWAP2 SWAP1 PUSH2 0x3A17 JUMP JUMPDEST DUP2 SLOAD PUSH1 0x0 SWAP1 DUP3 LT PUSH2 0x3061 JUMPI PUSH1 0x40 MLOAD PUSH3 0x461BCD PUSH1 0xE5 SHL DUP2 MSTORE PUSH1 0x4 ADD PUSH2 0xBDA SWAP1 PUSH2 0x3CBA JUMP JUMPDEST DUP3 PUSH1 0x0 ADD DUP3 DUP2 SLOAD DUP2 LT PUSH2 0x3070 JUMPI INVALID JUMPDEST SWAP1 PUSH1 0x0 MSTORE PUSH1 0x20 PUSH1 0x0 KECCAK256 ADD SLOAD SWAP1 POP SWAP3 SWAP2 POP POP JUMP JUMPDEST PUSH1 0x0 SWAP1 DUP2 MSTORE PUSH1 0x1 SWAP2 SWAP1 SWAP2 ADD PUSH1 0x20 MSTORE PUSH1 0x40 SWAP1 KECCAK256 SLOAD ISZERO ISZERO SWAP1 JUMP JUMPDEST SLOAD SWAP1 JUMP JUMPDEST PUSH1 0x0 PUSH2 0x30AB DUP4 DUP4 PUSH2 0x3083 JUMP JUMPDEST PUSH2 0x30E1 JUMPI POP DUP2 SLOAD PUSH1 0x1 DUP2 DUP2 ADD DUP5 SSTORE PUSH1 0x0 DUP5 DUP2 MSTORE PUSH1 0x20 DUP1 DUP3 KECCAK256 SWAP1 SWAP4 ADD DUP5 SWAP1 SSTORE DUP5 SLOAD DUP5 DUP3 MSTORE DUP3 DUP7 ADD SWAP1 SWAP4 MSTORE PUSH1 0x40 SWAP1 KECCAK256 SWAP2 SWAP1 SWAP2 SSTORE PUSH2 0x1D38 JUMP JUMPDEST POP PUSH1 0x0 PUSH2 0x1D38 JUMP JUMPDEST PUSH1 0x0 DUP2 DUP2 MSTORE PUSH1 0x1 DUP4 ADD PUSH1 0x20 MSTORE PUSH1 0x40 DUP2 KECCAK256 SLOAD DUP1 ISZERO PUSH2 0x31A5 JUMPI DUP4 SLOAD PUSH1 0x0 NOT DUP1 DUP4 ADD SWAP2 SWAP1 DUP2 ADD SWAP1 PUSH1 0x0 SWAP1 DUP8 SWAP1 DUP4 SWAP1 DUP2 LT PUSH2 0x311C JUMPI INVALID JUMPDEST SWAP1 PUSH1 0x0 MSTORE PUSH1 0x20 PUSH1 0x0 KECCAK256 ADD SLOAD SWAP1 POP DUP1 DUP8 PUSH1 0x0 ADD DUP5 DUP2 SLOAD DUP2 LT PUSH2 0x3139 JUMPI INVALID JUMPDEST PUSH1 0x0 SWAP2 DUP3 MSTORE PUSH1 0x20 DUP1 DUP4 KECCAK256 SWAP1 SWAP2 ADD SWAP3 SWAP1 SWAP3 SSTORE DUP3 DUP2 MSTORE PUSH1 0x1 DUP10 DUP2 ADD SWAP1 SWAP3 MSTORE PUSH1 0x40 SWAP1 KECCAK256 SWAP1 DUP5 ADD SWAP1 SSTORE DUP7 SLOAD DUP8 SWAP1 DUP1 PUSH2 0x3169 JUMPI INVALID JUMPDEST PUSH1 0x1 SWAP1 SUB DUP2 DUP2 SWAP1 PUSH1 0x0 MSTORE PUSH1 0x20 PUSH1 0x0 KECCAK256 ADD PUSH1 0x0 SWAP1 SSTORE SWAP1 SSTORE DUP7 PUSH1 0x1 ADD PUSH1 0x0 DUP8 DUP2 MSTORE PUSH1 0x20 ADD SWAP1 DUP2 MSTORE PUSH1 0x20 ADD PUSH1 0x0 KECCAK256 PUSH1 0x0 SWAP1 SSTORE PUSH1 0x1 SWAP5 POP POP POP POP POP PUSH2 0x1D38 JUMP JUMPDEST PUSH1 0x0 SWAP2 POP POP PUSH2 0x1D38 JUMP JUMPDEST DUP3 DUP1 SLOAD PUSH1 0x1 DUP2 PUSH1 0x1 AND ISZERO PUSH2 0x100 MUL SUB AND PUSH1 0x2 SWAP1 DIV SWAP1 PUSH1 0x0 MSTORE PUSH1 0x20 PUSH1 0x0 KECCAK256 SWAP1 PUSH1 0x1F ADD PUSH1 0x20 SWAP1 DIV DUP2 ADD SWAP3 DUP3 PUSH1 0x1F LT PUSH2 0x31F0 JUMPI DUP3 DUP1 ADD PUSH1 0xFF NOT DUP3 CALLDATALOAD AND OR DUP6 SSTORE PUSH2 0x321D JUMP JUMPDEST DUP3 DUP1 ADD PUSH1 0x1 ADD DUP6 SSTORE DUP3 ISZERO PUSH2 0x321D JUMPI SWAP2 DUP3 ADD JUMPDEST DUP3 DUP2 GT ISZERO PUSH2 0x321D JUMPI DUP3 CALLDATALOAD DUP3 SSTORE SWAP2 PUSH1 0x20 ADD SWAP2 SWAP1 PUSH1 0x1 ADD SWAP1 PUSH2 0x3202 JUMP JUMPDEST POP PUSH2 0x28BC SWAP3 SWAP2 POP PUSH2 0x334C JUMP JUMPDEST DUP3 DUP1 SLOAD PUSH1 0x1 DUP2 PUSH1 0x1 AND ISZERO PUSH2 0x100 MUL SUB AND PUSH1 0x2 SWAP1 DIV SWAP1 PUSH1 0x0 MSTORE PUSH1 0x20 PUSH1 0x0 KECCAK256 SWAP1 PUSH1 0x1F ADD PUSH1 0x20 SWAP1 DIV DUP2 ADD SWAP3 DUP3 PUSH1 0x1F LT PUSH2 0x326A JUMPI DUP1 MLOAD PUSH1 0xFF NOT AND DUP4 DUP1 ADD OR DUP6 SSTORE PUSH2 0x321D JUMP JUMPDEST DUP3 DUP1 ADD PUSH1 0x1 ADD DUP6 SSTORE DUP3 ISZERO PUSH2 0x321D JUMPI SWAP2 DUP3 ADD JUMPDEST DUP3 DUP2 GT ISZERO PUSH2 0x321D JUMPI DUP3 MLOAD DUP3 SSTORE SWAP2 PUSH1 0x20 ADD SWAP2 SWAP1 PUSH1 0x1 ADD SWAP1 PUSH2 0x327C JUMP JUMPDEST DUP3 DUP1 SLOAD PUSH1 0x1 DUP2 PUSH1 0x1 AND ISZERO PUSH2 0x100 MUL SUB AND PUSH1 0x2 SWAP1 DIV SWAP1 PUSH1 0x0 MSTORE PUSH1 0x20 PUSH1 0x0 KECCAK256 SWAP1 PUSH1 0x1F ADD PUSH1 0x20 SWAP1 DIV DUP2 ADD SWAP3 DUP3 PUSH1 0x1F LT PUSH2 0x32D0 JUMPI DUP1 SLOAD DUP6 SSTORE PUSH2 0x321D JUMP JUMPDEST DUP3 DUP1 ADD PUSH1 0x1 ADD DUP6 SSTORE DUP3 ISZERO PUSH2 0x321D JUMPI PUSH1 0x0 MSTORE PUSH1 0x20 PUSH1 0x0 KECCAK256 SWAP2 PUSH1 0x1F ADD PUSH1 0x20 SWAP1 DIV DUP3 ADD JUMPDEST DUP3 DUP2 GT ISZERO PUSH2 0x321D JUMPI DUP3 SLOAD DUP3 SSTORE SWAP2 PUSH1 0x1 ADD SWAP2 SWAP1 PUSH1 0x1 ADD SWAP1 PUSH2 0x32F1 JUMP JUMPDEST POP DUP1 SLOAD PUSH1 0x1 DUP2 PUSH1 0x1 AND ISZERO PUSH2 0x100 MUL SUB AND PUSH1 0x2 SWAP1 DIV PUSH1 0x0 DUP3 SSTORE DUP1 PUSH1 0x1F LT PUSH2 0x3332 JUMPI POP PUSH2 0x2381 JUMP JUMPDEST PUSH1 0x1F ADD PUSH1 0x20 SWAP1 DIV SWAP1 PUSH1 0x0 MSTORE PUSH1 0x20 PUSH1 0x0 KECCAK256 SWAP1 DUP2 ADD SWAP1 PUSH2 0x2381 SWAP2 SWAP1 JUMPDEST JUMPDEST DUP1 DUP3 GT ISZERO PUSH2 0x28BC JUMPI PUSH1 0x0 DUP2 SSTORE PUSH1 0x1 ADD PUSH2 0x334D JUMP JUMPDEST PUSH1 0x0 DUP1 DUP4 PUSH1 0x1F DUP5 ADD SLT PUSH2 0x3372 JUMPI DUP2 DUP3 REVERT JUMPDEST POP DUP2 CALLDATALOAD PUSH1 0x1 PUSH1 0x1 PUSH1 0x40 SHL SUB DUP2 GT ISZERO PUSH2 0x3388 JUMPI DUP2 DUP3 REVERT JUMPDEST PUSH1 0x20 DUP4 ADD SWAP2 POP DUP4 PUSH1 0x20 DUP1 DUP4 MUL DUP6 ADD ADD GT ISZERO PUSH2 0x1B10 JUMPI PUSH1 0x0 DUP1 REVERT JUMPDEST PUSH1 0x0 DUP1 DUP4 PUSH1 0x1F DUP5 ADD SLT PUSH2 0x33B3 JUMPI DUP2 DUP3 REVERT JUMPDEST POP DUP2 CALLDATALOAD PUSH1 0x1 PUSH1 0x1 PUSH1 0x40 SHL SUB DUP2 GT ISZERO PUSH2 0x33C9 JUMPI DUP2 DUP3 REVERT JUMPDEST PUSH1 0x20 DUP4 ADD SWAP2 POP DUP4 PUSH1 0x20 DUP3 DUP6 ADD ADD GT ISZERO PUSH2 0x1B10 JUMPI PUSH1 0x0 DUP1 REVERT JUMPDEST PUSH1 0x0 PUSH1 0x20 DUP3 DUP5 SUB SLT ISZERO PUSH2 0x33F2 JUMPI DUP1 DUP2 REVERT JUMPDEST DUP2 CALLDATALOAD PUSH2 0x33FD DUP2 PUSH2 0x4874 JUMP JUMPDEST SWAP4 SWAP3 POP POP POP JUMP JUMPDEST PUSH1 0x0 DUP1 PUSH1 0x0 DUP1 PUSH1 0x0 DUP1 PUSH1 0x0 DUP1 PUSH1 0x0 DUP1 PUSH2 0x140 DUP12 DUP14 SUB SLT ISZERO PUSH2 0x3423 JUMPI DUP6 DUP7 REVERT JUMPDEST DUP11 CALLDATALOAD PUSH2 0x342E DUP2 PUSH2 0x4874 JUMP JUMPDEST SWAP10 POP PUSH1 0x20 DUP12 ADD CALLDATALOAD PUSH2 0x343E DUP2 PUSH2 0x4874 JUMP JUMPDEST SWAP9 POP PUSH1 0x40 DUP12 ADD CALLDATALOAD SWAP8 POP PUSH1 0x60 DUP12 ADD CALLDATALOAD SWAP7 POP PUSH1 0x80 DUP12 ADD CALLDATALOAD SWAP6 POP PUSH1 0xA0 DUP12 ADD CALLDATALOAD PUSH2 0x3463 DUP2 PUSH2 0x4874 JUMP JUMPDEST SWAP5 POP PUSH1 0xC0 DUP12 ADD CALLDATALOAD SWAP4 POP PUSH1 0xE0 DUP12 ADD CALLDATALOAD PUSH2 0x347A DUP2 PUSH2 0x4874 JUMP JUMPDEST SWAP3 POP PUSH2 0x100 DUP12 ADD CALLDATALOAD PUSH2 0x348B DUP2 PUSH2 0x4874 JUMP JUMPDEST SWAP2 POP PUSH2 0x120 DUP12 ADD CALLDATALOAD PUSH2 0x349C DUP2 PUSH2 0x4874 JUMP JUMPDEST DUP1 SWAP2 POP POP SWAP3 SWAP6 SWAP9 SWAP12 SWAP2 SWAP5 SWAP8 SWAP11 POP SWAP3 SWAP6 SWAP9 POP JUMP JUMPDEST PUSH1 0x0 DUP1 PUSH1 0x40 DUP4 DUP6 SUB SLT ISZERO PUSH2 0x34C1 JUMPI DUP2 DUP3 REVERT JUMPDEST DUP3 CALLDATALOAD PUSH2 0x34CC DUP2 PUSH2 0x4874 JUMP JUMPDEST SWAP2 POP PUSH1 0x20 DUP4 ADD CALLDATALOAD PUSH2 0x34DC DUP2 PUSH2 0x4889 JUMP JUMPDEST DUP1 SWAP2 POP POP SWAP3 POP SWAP3 SWAP1 POP JUMP JUMPDEST PUSH1 0x0 DUP1 PUSH1 0x0 PUSH1 0x60 DUP5 DUP7 SUB SLT ISZERO PUSH2 0x34FB JUMPI DUP3 DUP4 REVERT JUMPDEST DUP4 CALLDATALOAD PUSH2 0x3506 DUP2 PUSH2 0x4874 JUMP JUMPDEST SWAP3 POP PUSH1 0x20 DUP5 ADD CALLDATALOAD SWAP2 POP PUSH1 0x40 DUP5 ADD CALLDATALOAD PUSH2 0x351D DUP2 PUSH2 0x4889 JUMP JUMPDEST DUP1 SWAP2 POP POP SWAP3 POP SWAP3 POP SWAP3 JUMP JUMPDEST PUSH1 0x0 DUP1 PUSH1 0x0 PUSH1 0x40 DUP5 DUP7 SUB SLT ISZERO PUSH2 0x353C JUMPI DUP1 DUP2 REVERT JUMPDEST DUP4 CALLDATALOAD PUSH1 0x1 PUSH1 0x1 PUSH1 0x40 SHL SUB DUP2 GT ISZERO PUSH2 0x3551 JUMPI DUP2 DUP3 REVERT JUMPDEST PUSH2 0x355D DUP7 DUP3 DUP8 ADD PUSH2 0x3361 JUMP JUMPDEST SWAP1 SWAP5 POP SWAP3 POP POP PUSH1 0x20 DUP5 ADD CALLDATALOAD PUSH2 0x351D DUP2 PUSH2 0x4889 JUMP JUMPDEST PUSH1 0x0 DUP1 PUSH1 0x0 DUP1 PUSH1 0x40 DUP6 DUP8 SUB SLT ISZERO PUSH2 0x3586 JUMPI DUP2 DUP3 REVERT JUMPDEST DUP5 CALLDATALOAD PUSH1 0x1 PUSH1 0x1 PUSH1 0x40 SHL SUB DUP1 DUP3 GT ISZERO PUSH2 0x359C JUMPI DUP4 DUP5 REVERT JUMPDEST PUSH2 0x35A8 DUP9 DUP4 DUP10 ADD PUSH2 0x3361 JUMP JUMPDEST SWAP1 SWAP7 POP SWAP5 POP PUSH1 0x20 DUP8 ADD CALLDATALOAD SWAP2 POP DUP1 DUP3 GT ISZERO PUSH2 0x35C0 JUMPI DUP4 DUP5 REVERT JUMPDEST POP PUSH2 0x35CD DUP8 DUP3 DUP9 ADD PUSH2 0x3361 JUMP JUMPDEST SWAP6 SWAP9 SWAP5 SWAP8 POP SWAP6 POP POP POP POP JUMP JUMPDEST PUSH1 0x0 PUSH1 0x20 DUP3 DUP5 SUB SLT ISZERO PUSH2 0x35EA JUMPI DUP1 DUP2 REVERT JUMPDEST DUP2 CALLDATALOAD PUSH2 0x33FD DUP2 PUSH2 0x4889 JUMP JUMPDEST PUSH1 0x0 PUSH1 0x20 DUP3 DUP5 SUB SLT ISZERO PUSH2 0x3606 JUMPI DUP1 DUP2 REVERT JUMPDEST DUP2 MLOAD PUSH2 0x33FD DUP2 PUSH2 0x4889 JUMP JUMPDEST PUSH1 0x0 PUSH1 0x20 DUP3 DUP5 SUB SLT ISZERO PUSH2 0x3622 JUMPI DUP1 DUP2 REVERT JUMPDEST POP CALLDATALOAD SWAP2 SWAP1 POP JUMP JUMPDEST PUSH1 0x0 DUP1 PUSH1 0x40 DUP4 DUP6 SUB SLT ISZERO PUSH2 0x363B JUMPI DUP2 DUP3 REVERT JUMPDEST DUP3 CALLDATALOAD SWAP2 POP PUSH1 0x20 DUP4 ADD CALLDATALOAD PUSH2 0x34DC DUP2 PUSH2 0x4874 JUMP JUMPDEST PUSH1 0x0 DUP1 PUSH1 0x40 DUP4 DUP6 SUB SLT ISZERO PUSH2 0x365F JUMPI DUP2 DUP3 REVERT JUMPDEST POP POP DUP1 CALLDATALOAD SWAP3 PUSH1 0x20 SWAP1 SWAP2 ADD CALLDATALOAD SWAP2 POP JUMP JUMPDEST PUSH1 0x0 DUP1 PUSH1 0x20 DUP4 DUP6 SUB SLT ISZERO PUSH2 0x3680 JUMPI DUP2 DUP3 REVERT JUMPDEST DUP3 CALLDATALOAD PUSH1 0x1 PUSH1 0x1 PUSH1 0x40 SHL SUB DUP2 GT ISZERO PUSH2 0x3695 JUMPI DUP3 DUP4 REVERT JUMPDEST PUSH2 0x36A1 DUP6 DUP3 DUP7 ADD PUSH2 0x33A2 JUMP JUMPDEST SWAP1 SWAP7 SWAP1 SWAP6 POP SWAP4 POP POP POP POP JUMP JUMPDEST PUSH1 0x0 DUP1 PUSH1 0x0 DUP1 PUSH1 0x0 DUP1 PUSH1 0x0 DUP1 PUSH2 0x100 DUP10 DUP12 SUB SLT ISZERO PUSH2 0x36C9 JUMPI DUP2 DUP3 REVERT JUMPDEST DUP9 CALLDATALOAD PUSH2 0x36D4 DUP2 PUSH2 0x4874 JUMP JUMPDEST SWAP8 POP PUSH1 0x20 DUP10 ADD CALLDATALOAD PUSH2 0x36E4 DUP2 PUSH2 0x4874 JUMP JUMPDEST SWAP7 POP PUSH1 0x40 DUP10 ADD CALLDATALOAD PUSH2 0x36F4 DUP2 PUSH2 0x4874 JUMP JUMPDEST SWAP6 POP PUSH1 0x60 DUP10 ADD CALLDATALOAD SWAP5 POP PUSH1 0x80 DUP10 ADD CALLDATALOAD SWAP4 POP PUSH1 0xA0 DUP10 ADD CALLDATALOAD PUSH2 0x3712 DUP2 PUSH2 0x4897 JUMP JUMPDEST SWAP8 SWAP11 SWAP7 SWAP10 POP SWAP5 SWAP8 SWAP4 SWAP7 SWAP3 SWAP6 SWAP3 SWAP5 POP POP POP PUSH1 0xC0 DUP3 ADD CALLDATALOAD SWAP2 PUSH1 0xE0 ADD CALLDATALOAD SWAP1 JUMP JUMPDEST PUSH1 0x0 DUP1 PUSH1 0x0 DUP1 PUSH1 0x40 DUP6 DUP8 SUB SLT ISZERO PUSH2 0x3744 JUMPI DUP2 DUP3 REVERT JUMPDEST DUP5 CALLDATALOAD PUSH1 0x1 PUSH1 0x1 PUSH1 0x40 SHL SUB DUP1 DUP3 GT ISZERO PUSH2 0x375A JUMPI DUP4 DUP5 REVERT JUMPDEST PUSH2 0x3766 DUP9 DUP4 DUP10 ADD PUSH2 0x33A2 JUMP JUMPDEST SWAP1 SWAP7 POP SWAP5 POP PUSH1 0x20 DUP8 ADD CALLDATALOAD SWAP2 POP DUP1 DUP3 GT ISZERO PUSH2 0x377E JUMPI DUP4 DUP5 REVERT JUMPDEST POP PUSH2 0x35CD DUP8 DUP3 DUP9 ADD PUSH2 0x33A2 JUMP JUMPDEST PUSH1 0x0 PUSH1 0x20 DUP3 DUP5 SUB SLT ISZERO PUSH2 0x379C JUMPI DUP1 DUP2 REVERT JUMPDEST DUP2 MLOAD PUSH1 0x1 PUSH1 0x1 PUSH1 0x40 SHL SUB DUP1 DUP3 GT ISZERO PUSH2 0x37B2 JUMPI DUP3 DUP4 REVERT JUMPDEST DUP2 DUP5 ADD SWAP2 POP DUP5 PUSH1 0x1F DUP4 ADD SLT PUSH2 0x37C5 JUMPI DUP3 DUP4 REVERT JUMPDEST DUP2 MLOAD DUP2 DUP2 GT ISZERO PUSH2 0x37D3 JUMPI DUP4 DUP5 REVERT JUMPDEST PUSH1 0x40 MLOAD PUSH1 0x1F DUP3 ADD PUSH1 0x1F NOT AND DUP2 ADD PUSH1 0x20 ADD DUP4 DUP2 GT DUP3 DUP3 LT OR ISZERO PUSH2 0x37F3 JUMPI DUP6 DUP7 REVERT JUMPDEST PUSH1 0x40 MSTORE DUP2 DUP2 MSTORE DUP4 DUP3 ADD PUSH1 0x20 ADD DUP8 LT ISZERO PUSH2 0x380A JUMPI DUP5 DUP6 REVERT JUMPDEST PUSH2 0x381B DUP3 PUSH1 0x20 DUP4 ADD PUSH1 0x20 DUP8 ADD PUSH2 0x4848 JUMP JUMPDEST SWAP7 SWAP6 POP POP POP POP POP POP JUMP JUMPDEST PUSH1 0x0 PUSH1 0x20 DUP3 DUP5 SUB SLT ISZERO PUSH2 0x3836 JUMPI DUP1 DUP2 REVERT JUMPDEST POP MLOAD SWAP2 SWAP1 POP JUMP JUMPDEST PUSH1 0x0 DUP1 PUSH1 0x40 DUP4 DUP6 SUB SLT ISZERO PUSH2 0x384F JUMPI DUP2 DUP3 REVERT JUMPDEST DUP3 CALLDATALOAD SWAP2 POP PUSH1 0x20 DUP4 ADD CALLDATALOAD PUSH2 0x34DC DUP2 PUSH2 0x4889 JUMP JUMPDEST PUSH1 0x0 PUSH1 0x20 DUP3 DUP5 SUB SLT ISZERO PUSH2 0x3872 JUMPI DUP1 DUP2 REVERT JUMPDEST DUP2 MLOAD PUSH2 0x33FD DUP2 PUSH2 0x4897 JUMP JUMPDEST PUSH1 0x0 DUP2 MLOAD DUP1 DUP5 MSTORE PUSH2 0x3895 DUP2 PUSH1 0x20 DUP7 ADD PUSH1 0x20 DUP7 ADD PUSH2 0x4848 JUMP JUMPDEST PUSH1 0x1F ADD PUSH1 0x1F NOT AND SWAP3 SWAP1 SWAP3 ADD PUSH1 0x20 ADD SWAP3 SWAP2 POP POP JUMP JUMPDEST PUSH1 0x0 DUP3 DUP5 DUP4 CALLDATACOPY SWAP2 ADD SWAP1 DUP2 MSTORE SWAP2 SWAP1 POP JUMP JUMPDEST PUSH1 0x0 DUP3 MLOAD PUSH2 0x38CB DUP2 DUP5 PUSH1 0x20 DUP8 ADD PUSH2 0x4848 JUMP JUMPDEST SWAP2 SWAP1 SWAP2 ADD SWAP3 SWAP2 POP POP JUMP JUMPDEST PUSH1 0x0 DUP1 DUP4 SLOAD PUSH1 0x1 DUP1 DUP3 AND PUSH1 0x0 DUP2 EQ PUSH2 0x38F4 JUMPI PUSH1 0x1 DUP2 EQ PUSH2 0x390B JUMPI PUSH2 0x393A JUMP JUMPDEST PUSH1 0xFF NOT DUP4 AND DUP7 MSTORE PUSH1 0x2 DUP4 DIV PUSH1 0x7F AND DUP7 ADD SWAP4 POP PUSH2 0x393A JUMP JUMPDEST PUSH1 0x2 DUP4 DIV DUP8 DUP7 MSTORE PUSH1 0x20 DUP1 DUP8 KECCAK256 DUP8 JUMPDEST DUP4 DUP2 LT ISZERO PUSH2 0x3932 JUMPI DUP2 SLOAD DUP11 DUP3 ADD MSTORE SWAP1 DUP6 ADD SWAP1 DUP3 ADD PUSH2 0x3919 JUMP JUMPDEST POP POP POP DUP7 ADD SWAP4 POP JUMPDEST POP SWAP2 SWAP6 SWAP5 POP POP POP POP POP JUMP JUMPDEST PUSH1 0x1 PUSH1 0x1 PUSH1 0xA0 SHL SUB SWAP2 SWAP1 SWAP2 AND DUP2 MSTORE PUSH1 0x20 ADD SWAP1 JUMP JUMPDEST PUSH1 0x1 PUSH1 0x1 PUSH1 0xA0 SHL SUB SWAP4 DUP5 AND DUP2 MSTORE SWAP2 SWAP1 SWAP3 AND PUSH1 0x20 DUP3 ADD MSTORE PUSH1 0x40 DUP2 ADD SWAP2 SWAP1 SWAP2 MSTORE PUSH1 0x60 ADD SWAP1 JUMP JUMPDEST PUSH1 0x1 PUSH1 0x1 PUSH1 0xA0 SHL SUB SWAP11 DUP12 AND DUP2 MSTORE SWAP9 DUP11 AND PUSH1 0x20 DUP11 ADD MSTORE PUSH1 0x40 DUP10 ADD SWAP8 SWAP1 SWAP8 MSTORE PUSH1 0x60 DUP9 ADD SWAP6 SWAP1 SWAP6 MSTORE PUSH1 0x80 DUP8 ADD SWAP4 SWAP1 SWAP4 MSTORE SWAP1 DUP7 AND PUSH1 0xA0 DUP7 ADD MSTORE PUSH1 0xC0 DUP6 ADD MSTORE DUP5 AND PUSH1 0xE0 DUP5 ADD MSTORE DUP4 AND PUSH2 0x100 DUP4 ADD MSTORE SWAP1 SWAP2 AND PUSH2 0x120 DUP3 ADD MSTORE PUSH2 0x140 ADD SWAP1 JUMP JUMPDEST PUSH1 0x1 PUSH1 0x1 PUSH1 0xA0 SHL SUB SWAP8 DUP9 AND DUP2 MSTORE SWAP6 SWAP1 SWAP7 AND PUSH1 0x20 DUP7 ADD MSTORE PUSH1 0x40 DUP6 ADD SWAP4 SWAP1 SWAP4 MSTORE PUSH1 0x60 DUP5 ADD SWAP2 SWAP1 SWAP2 MSTORE PUSH1 0xFF AND PUSH1 0x80 DUP4 ADD MSTORE PUSH1 0xA0 DUP3 ADD MSTORE PUSH1 0xC0 DUP2 ADD SWAP2 SWAP1 SWAP2 MSTORE PUSH1 0xE0 ADD SWAP1 JUMP JUMPDEST PUSH1 0x1 PUSH1 0x1 PUSH1 0xA0 SHL SUB SWAP3 SWAP1 SWAP3 AND DUP3 MSTORE PUSH1 0x20 DUP3 ADD MSTORE PUSH1 0x40 ADD SWAP1 JUMP JUMPDEST PUSH1 0x1 PUSH1 0x1 PUSH1 0xA0 SHL SUB SWAP5 SWAP1 SWAP5 AND DUP5 MSTORE PUSH1 0x1 PUSH1 0x1 PUSH1 0x40 SHL SUB SWAP3 DUP4 AND PUSH1 0x20 DUP6 ADD MSTORE SWAP2 AND PUSH1 0x40 DUP4 ADD MSTORE ISZERO ISZERO PUSH1 0x60 DUP3 ADD MSTORE PUSH1 0x80 ADD SWAP1 JUMP JUMPDEST PUSH1 0x40 DUP1 DUP3 MSTORE DUP4 MLOAD SWAP1 DUP3 ADD DUP2 SWAP1 MSTORE PUSH1 0x0 SWAP1 PUSH1 0x20 SWAP1 PUSH1 0x60 DUP5 ADD SWAP1 DUP3 DUP8 ADD DUP5 JUMPDEST DUP3 DUP2 LT ISZERO PUSH2 0x3A9D JUMPI DUP2 MLOAD ISZERO ISZERO DUP5 MSTORE SWAP3 DUP5 ADD SWAP3 SWAP1 DUP5 ADD SWAP1 PUSH1 0x1 ADD PUSH2 0x3A7F JUMP JUMPDEST POP POP POP DUP4 DUP2 SUB DUP3 DUP6 ADD MSTORE DUP1 DUP6 MLOAD PUSH2 0x3AB4 DUP2 DUP5 PUSH2 0x3B67 JUMP JUMPDEST SWAP2 POP DUP2 SWAP3 POP DUP4 DUP2 MUL DUP3 ADD DUP5 DUP9 ADD DUP7 JUMPDEST DUP4 DUP2 LT ISZERO PUSH2 0x3AED JUMPI DUP6 DUP4 SUB DUP6 MSTORE PUSH2 0x3ADB DUP4 DUP4 MLOAD PUSH2 0x387D JUMP JUMPDEST SWAP5 DUP8 ADD SWAP5 SWAP3 POP SWAP1 DUP7 ADD SWAP1 PUSH1 0x1 ADD PUSH2 0x3AC3 JUMP JUMPDEST POP SWAP1 SWAP10 SWAP9 POP POP POP POP POP POP POP POP POP JUMP JUMPDEST PUSH1 0x0 PUSH1 0x20 DUP1 DUP4 ADD DUP2 DUP5 MSTORE DUP1 DUP6 MLOAD DUP1 DUP4 MSTORE PUSH1 0x40 DUP7 ADD SWAP2 POP PUSH1 0x40 DUP5 DUP3 MUL DUP8 ADD ADD SWAP3 POP DUP4 DUP8 ADD DUP6 JUMPDEST DUP3 DUP2 LT ISZERO PUSH2 0x3B4F JUMPI PUSH1 0x3F NOT DUP9 DUP7 SUB ADD DUP5 MSTORE PUSH2 0x3B3D DUP6 DUP4 MLOAD PUSH2 0x387D JUMP JUMPDEST SWAP5 POP SWAP3 DUP6 ADD SWAP3 SWAP1 DUP6 ADD SWAP1 PUSH1 0x1 ADD PUSH2 0x3B21 JUMP JUMPDEST POP SWAP3 SWAP8 SWAP7 POP POP POP POP POP POP POP JUMP JUMPDEST SWAP1 ISZERO ISZERO DUP2 MSTORE PUSH1 0x20 ADD SWAP1 JUMP JUMPDEST SWAP1 DUP2 MSTORE PUSH1 0x20 ADD SWAP1 JUMP JUMPDEST PUSH1 0x0 PUSH1 0x20 DUP3 MSTORE PUSH2 0x1D35 PUSH1 0x20 DUP4 ADD DUP5 PUSH2 0x387D JUMP JUMPDEST PUSH1 0x0 PUSH1 0x20 DUP3 MSTORE DUP3 PUSH1 0x20 DUP4 ADD MSTORE DUP3 DUP5 PUSH1 0x40 DUP5 ADD CALLDATACOPY DUP2 DUP4 ADD PUSH1 0x40 SWAP1 DUP2 ADD SWAP2 SWAP1 SWAP2 MSTORE PUSH1 0x1F SWAP1 SWAP3 ADD PUSH1 0x1F NOT AND ADD ADD SWAP2 SWAP1 POP JUMP JUMPDEST PUSH1 0x0 PUSH1 0x40 DUP3 MSTORE PUSH2 0x3BC5 PUSH1 0x40 DUP4 ADD DUP6 PUSH2 0x387D JUMP JUMPDEST SWAP1 POP DUP3 PUSH1 0x20 DUP4 ADD MSTORE SWAP4 SWAP3 POP POP POP JUMP JUMPDEST PUSH1 0x0 PUSH1 0x20 DUP1 DUP4 ADD DUP2 DUP5 MSTORE DUP3 DUP6 SLOAD PUSH1 0x1 DUP1 DUP3 AND PUSH1 0x0 DUP2 EQ PUSH2 0x3BFB JUMPI PUSH1 0x1 DUP2 EQ PUSH2 0x3C19 JUMPI PUSH2 0x3C51 JUMP JUMPDEST PUSH1 0x2 DUP4 DIV PUSH1 0x7F AND DUP6 MSTORE PUSH1 0xFF NOT DUP4 AND PUSH1 0x40 DUP10 ADD MSTORE PUSH1 0x60 DUP9 ADD SWAP4 POP PUSH2 0x3C51 JUMP JUMPDEST PUSH1 0x2 DUP4 DIV DUP1 DUP7 MSTORE PUSH2 0x3C29 DUP11 PUSH2 0x483C JUMP JUMPDEST DUP9 JUMPDEST DUP3 DUP2 LT ISZERO PUSH2 0x3C47 JUMPI DUP2 SLOAD DUP12 DUP3 ADD PUSH1 0x40 ADD MSTORE SWAP1 DUP5 ADD SWAP1 DUP9 ADD PUSH2 0x3C2B JUMP JUMPDEST DUP11 ADD PUSH1 0x40 ADD SWAP6 POP POP POP JUMPDEST POP SWAP2 SWAP8 SWAP7 POP POP POP POP POP POP POP JUMP JUMPDEST PUSH1 0x20 DUP1 DUP3 MSTORE PUSH1 0x15 SWAP1 DUP3 ADD MSTORE PUSH21 0x426F72696E674D6174683A20556E646572666C6F77 PUSH1 0x58 SHL PUSH1 0x40 DUP3 ADD MSTORE PUSH1 0x60 ADD SWAP1 JUMP JUMPDEST PUSH1 0x20 DUP1 DUP3 MSTORE PUSH1 0x13 SWAP1 DUP3 ADD MSTORE PUSH19 0x105B1C9958591E481A5B9A5D1A585B1A5CD959 PUSH1 0x6A SHL PUSH1 0x40 DUP3 ADD MSTORE PUSH1 0x60 ADD SWAP1 JUMP JUMPDEST PUSH1 0x20 DUP1 DUP3 MSTORE PUSH1 0x22 SWAP1 DUP3 ADD MSTORE PUSH32 0x456E756D657261626C655365743A20696E646578206F7574206F6620626F756E PUSH1 0x40 DUP3 ADD MSTORE PUSH2 0x6473 PUSH1 0xF0 SHL PUSH1 0x60 DUP3 ADD MSTORE PUSH1 0x80 ADD SWAP1 JUMP JUMPDEST PUSH1 0x20 DUP1 DUP3 MSTORE PUSH1 0x2F SWAP1 DUP3 ADD MSTORE PUSH32 0x416363657373436F6E74726F6C3A2073656E646572206D75737420626520616E PUSH1 0x40 DUP3 ADD MSTORE PUSH15 0x818591B5A5B881D1BC819DC985B9D PUSH1 0x8A SHL PUSH1 0x60 DUP3 ADD MSTORE PUSH1 0x80 ADD SWAP1 JUMP JUMPDEST PUSH1 0x20 DUP1 DUP3 MSTORE PUSH1 0x41 SWAP1 DUP3 ADD MSTORE PUSH32 0x426174636841756374696F6E3A20656E74657220616E20756E69782074696D65 PUSH1 0x40 DUP3 ADD MSTORE PUSH32 0x7374616D7020696E207365636F6E64732C206E6F74206D696C697365636F6E64 PUSH1 0x60 DUP3 ADD MSTORE PUSH1 0x73 PUSH1 0xF8 SHL PUSH1 0x80 DUP3 ADD MSTORE PUSH1 0xA0 ADD SWAP1 JUMP JUMPDEST PUSH1 0x20 DUP1 DUP3 MSTORE PUSH1 0x2B SWAP1 DUP3 ADD MSTORE PUSH32 0x426174636841756374696F6E3A2041756374696F6E2068617320616C72656164 PUSH1 0x40 DUP3 ADD MSTORE PUSH11 0x1E48199A5B985B1A5E9959 PUSH1 0xAA SHL PUSH1 0x60 DUP3 ADD MSTORE PUSH1 0x80 ADD SWAP1 JUMP JUMPDEST PUSH1 0x20 DUP1 DUP3 MSTORE PUSH1 0x33 SWAP1 DUP3 ADD MSTORE PUSH32 0x426174636841756374696F6E3A2054686520636F6D6D69747465642045544820 PUSH1 0x40 DUP3 ADD MSTORE PUSH19 0x65786365656473207468652062616C616E6365 PUSH1 0x68 SHL PUSH1 0x60 DUP3 ADD MSTORE PUSH1 0x80 ADD SWAP1 JUMP JUMPDEST PUSH1 0x20 DUP1 DUP3 MSTORE PUSH1 0x52 SWAP1 DUP3 ADD MSTORE PUSH32 0x4E6F2061677265656D656E742070726F76696465642C20706C65617365207265 PUSH1 0x40 DUP3 ADD MSTORE PUSH32 0x766965772074686520736D61727420636F6E7472616374206265666F72652069 PUSH1 0x60 DUP3 ADD MSTORE PUSH18 0x1B9D195C9858DD1A5B99C81DDA5D1A081A5D PUSH1 0x72 SHL PUSH1 0x80 DUP3 ADD MSTORE PUSH1 0xA0 ADD SWAP1 JUMP JUMPDEST PUSH1 0x20 DUP1 DUP3 MSTORE PUSH1 0x1F SWAP1 DUP3 ADD MSTORE PUSH32 0x426174636841756374696F6E3A20616C72656164792066696E616C697A656400 PUSH1 0x40 DUP3 ADD MSTORE PUSH1 0x60 ADD SWAP1 JUMP JUMPDEST PUSH1 0x20 DUP1 DUP3 MSTORE PUSH1 0x34 SWAP1 DUP3 ADD MSTORE PUSH32 0x426174636841756374696F6E3A20656E642074696D65206D757374206265206F PUSH1 0x40 DUP3 ADD MSTORE PUSH20 0x6C646572207468616E2073746172742074696D65 PUSH1 0x60 SHL PUSH1 0x60 DUP3 ADD MSTORE PUSH1 0x80 ADD SWAP1 JUMP JUMPDEST PUSH1 0x20 DUP1 DUP3 MSTORE PUSH1 0x15 SWAP1 DUP3 ADD MSTORE PUSH21 0x111BD8DD5B595B9D081CDA1BDD5B1908195E1A5CDD PUSH1 0x5A SHL PUSH1 0x40 DUP3 ADD MSTORE PUSH1 0x60 ADD SWAP1 JUMP JUMPDEST PUSH1 0x20 DUP1 DUP3 MSTORE PUSH1 0x35 SWAP1 DUP3 ADD MSTORE PUSH32 0x426174636841756374696F6E3A20656E642074696D65206D757374206265206F PUSH1 0x40 DUP3 ADD MSTORE PUSH21 0x6C646572207468616E207374617274207072696365 PUSH1 0x58 SHL PUSH1 0x60 DUP3 ADD MSTORE PUSH1 0x80 ADD SWAP1 JUMP JUMPDEST PUSH1 0x20 DUP1 DUP3 MSTORE PUSH1 0x1C SWAP1 DUP3 ADD MSTORE PUSH32 0x426F72696E674D6174683A2075696E74313238204F766572666C6F7700000000 PUSH1 0x40 DUP3 ADD MSTORE PUSH1 0x60 ADD SWAP1 JUMP JUMPDEST PUSH1 0x20 DUP1 DUP3 MSTORE PUSH1 0x30 SWAP1 DUP3 ADD MSTORE PUSH32 0x416363657373436F6E74726F6C3A2073656E646572206D75737420626520616E PUSH1 0x40 DUP3 ADD MSTORE PUSH16 0x2061646D696E20746F207265766F6B65 PUSH1 0x80 SHL PUSH1 0x60 DUP3 ADD MSTORE PUSH1 0x80 ADD SWAP1 JUMP JUMPDEST PUSH1 0x20 DUP1 DUP3 MSTORE PUSH1 0xF SWAP1 DUP3 ADD MSTORE PUSH15 0x139BDD081A5B9A5D1A585B1A5E9959 PUSH1 0x8A SHL PUSH1 0x40 DUP3 ADD MSTORE PUSH1 0x60 ADD SWAP1 JUMP JUMPDEST PUSH1 0x20 DUP1 DUP3 MSTORE PUSH1 0x27 SWAP1 DUP3 ADD MSTORE PUSH32 0x426174636841756374696F6E3A2061646D696E20697320746865207A65726F20 PUSH1 0x40 DUP3 ADD MSTORE PUSH7 0x61646472657373 PUSH1 0xC8 SHL PUSH1 0x60 DUP3 ADD MSTORE PUSH1 0x80 ADD SWAP1 JUMP JUMPDEST PUSH1 0x20 DUP1 DUP3 MSTORE PUSH1 0x18 SWAP1 DUP3 ADD MSTORE PUSH32 0x426F72696E674D6174683A20416464204F766572666C6F770000000000000000 PUSH1 0x40 DUP3 ADD MSTORE PUSH1 0x60 ADD SWAP1 JUMP JUMPDEST PUSH1 0x20 DUP1 DUP3 MSTORE DUP2 DUP2 ADD MSTORE PUSH32 0x426174636841756374696F6E3A204E6F2066756E647320636F6D6D6974746564 PUSH1 0x40 DUP3 ADD MSTORE PUSH1 0x60 ADD SWAP1 JUMP JUMPDEST PUSH1 0x20 DUP1 DUP3 MSTORE PUSH1 0x18 SWAP1 DUP3 ADD MSTORE PUSH32 0x5A65726F206E616D65206973206E6F7420616C6C6F7765640000000000000000 PUSH1 0x40 DUP3 ADD MSTORE PUSH1 0x60 ADD SWAP1 JUMP JUMPDEST PUSH1 0x20 DUP1 DUP3 MSTORE PUSH1 0x2A SWAP1 DUP3 ADD MSTORE PUSH32 0x426174636841756374696F6E3A2041756374696F6E20686173206E6F74206669 PUSH1 0x40 DUP3 ADD MSTORE PUSH10 0x1B9A5CDA1959081E595D PUSH1 0xB2 SHL PUSH1 0x60 DUP3 ADD MSTORE PUSH1 0x80 ADD SWAP1 JUMP JUMPDEST PUSH1 0x20 DUP1 DUP3 MSTORE PUSH1 0xF SWAP1 DUP3 ADD MSTORE PUSH15 0x125B98DBDC9C9958DD081A5B9C1D5D PUSH1 0x8A SHL PUSH1 0x40 DUP3 ADD MSTORE PUSH1 0x60 ADD SWAP1 JUMP JUMPDEST PUSH1 0x20 DUP1 DUP3 MSTORE PUSH1 0x34 SWAP1 DUP3 ADD MSTORE PUSH32 0x426174636841756374696F6E3A20746F74616C20746F6B656E73206D75737420 PUSH1 0x40 DUP3 ADD MSTORE PUSH20 0x62652067726561746572207468616E207A65726F PUSH1 0x60 SHL PUSH1 0x60 DUP3 ADD MSTORE PUSH1 0x80 ADD SWAP1 JUMP JUMPDEST PUSH1 0x20 DUP1 DUP3 MSTORE PUSH1 0x1B SWAP1 DUP3 ADD MSTORE PUSH32 0x426174636841756374696F6E3A206E6F742066696E616C697A65640000000000 PUSH1 0x40 DUP3 ADD MSTORE PUSH1 0x60 ADD SWAP1 JUMP JUMPDEST PUSH1 0x20 DUP1 DUP3 MSTORE PUSH1 0x2D SWAP1 DUP3 ADD MSTORE PUSH32 0x426174636841756374696F6E3A20546F6B656E20646F6573206E6F7420686176 PUSH1 0x40 DUP3 ADD MSTORE PUSH13 0x6520313820646563696D616C73 PUSH1 0x98 SHL PUSH1 0x60 DUP3 ADD MSTORE PUSH1 0x80 ADD SWAP1 JUMP JUMPDEST PUSH1 0x20 DUP1 DUP3 MSTORE PUSH1 0x31 SWAP1 DUP3 ADD MSTORE PUSH32 0x426174636841756374696F6E3A2061756374696F6E2063616E6E6F7420686176 PUSH1 0x40 DUP3 ADD MSTORE PUSH17 0x1948185B1C9958591E481CDD185C9D1959 PUSH1 0x7A SHL PUSH1 0x60 DUP3 ADD MSTORE PUSH1 0x80 ADD SWAP1 JUMP JUMPDEST PUSH1 0x20 DUP1 DUP3 MSTORE PUSH1 0x2B SWAP1 DUP3 ADD MSTORE PUSH32 0x426174636841756374696F6E3A205061796D656E742063757272656E63792069 PUSH1 0x40 DUP3 ADD MSTORE PUSH11 0x73206E6F7420455243323 PUSH1 0xAC SHL PUSH1 0x60 DUP3 ADD MSTORE PUSH1 0x80 ADD SWAP1 JUMP JUMPDEST PUSH1 0x20 DUP1 DUP3 MSTORE PUSH1 0x1B SWAP1 DUP3 ADD MSTORE PUSH32 0x426F72696E674D6174683A2075696E743634204F766572666C6F770000000000 PUSH1 0x40 DUP3 ADD MSTORE PUSH1 0x60 ADD SWAP1 JUMP JUMPDEST PUSH1 0x20 DUP1 DUP3 MSTORE PUSH1 0x29 SWAP1 DUP3 ADD MSTORE PUSH32 0x426174636841756374696F6E3A207061796D656E742063757272656E63792069 PUSH1 0x40 DUP3 ADD MSTORE PUSH9 0xE640DCDEE8408AA89 PUSH1 0xBB SHL PUSH1 0x60 DUP3 ADD MSTORE PUSH1 0x80 ADD SWAP1 JUMP JUMPDEST PUSH1 0x20 DUP1 DUP3 MSTORE PUSH1 0x28 SWAP1 DUP3 ADD MSTORE PUSH32 0x426174636841756374696F6E3A2077616C6C657420697320746865207A65726F PUSH1 0x40 DUP3 ADD MSTORE PUSH8 0x2061646472657373 PUSH1 0xC0 SHL PUSH1 0x60 DUP3 ADD MSTORE PUSH1 0x80 ADD SWAP1 JUMP JUMPDEST PUSH1 0x20 DUP1 DUP3 MSTORE PUSH1 0x29 SWAP1 DUP3 ADD MSTORE PUSH32 0x426174636841756374696F6E3A2056616C7565206D7573742062652068696768 PUSH1 0x40 DUP3 ADD MSTORE PUSH9 0x6572207468616E203 PUSH1 0xBC SHL PUSH1 0x60 DUP3 ADD MSTORE PUSH1 0x80 ADD SWAP1 JUMP JUMPDEST PUSH1 0x20 DUP1 DUP3 MSTORE PUSH1 0x23 SWAP1 DUP3 ADD MSTORE PUSH32 0x5472616E7366657248656C7065723A204554485F5452414E534645525F464149 PUSH1 0x40 DUP3 ADD MSTORE PUSH3 0x131151 PUSH1 0xEA SHL PUSH1 0x60 DUP3 ADD MSTORE PUSH1 0x80 ADD SWAP1 JUMP JUMPDEST PUSH1 0x20 DUP1 DUP3 MSTORE PUSH1 0x13 SWAP1 DUP3 ADD MSTORE PUSH19 0x496E646578206F7574206F6620626F756E6473 PUSH1 0x68 SHL PUSH1 0x40 DUP3 ADD MSTORE PUSH1 0x60 ADD SWAP1 JUMP JUMPDEST PUSH1 0x20 DUP1 DUP3 MSTORE PUSH1 0x22 SWAP1 DUP3 ADD MSTORE PUSH32 0x426174636841756374696F6E3A2053656E646572206D7573742062652061646D PUSH1 0x40 DUP3 ADD MSTORE PUSH2 0x34B7 PUSH1 0xF1 SHL PUSH1 0x60 DUP3 ADD MSTORE PUSH1 0x80 ADD SWAP1 JUMP JUMPDEST PUSH1 0x20 DUP1 DUP3 MSTORE PUSH1 0x1A SWAP1 DUP3 ADD MSTORE PUSH32 0x53686F756C64206E6F74206265206120656D7074792064617461000000000000 PUSH1 0x40 DUP3 ADD MSTORE PUSH1 0x60 ADD SWAP1 JUMP JUMPDEST PUSH1 0x20 DUP1 DUP3 MSTORE PUSH1 0x22 SWAP1 DUP3 ADD MSTORE PUSH32 0x426174636841756374696F6E3A2046756E647320616C72656164792072616973 PUSH1 0x40 DUP3 ADD MSTORE PUSH2 0x1959 PUSH1 0xF2 SHL PUSH1 0x60 DUP3 ADD MSTORE PUSH1 0x80 ADD SWAP1 JUMP JUMPDEST PUSH1 0x20 DUP1 DUP3 MSTORE PUSH1 0x23 SWAP1 DUP3 ADD MSTORE PUSH32 0x426174636841756374696F6E3A206F7574736964652061756374696F6E20686F PUSH1 0x40 DUP3 ADD MSTORE PUSH3 0x757273 PUSH1 0xE8 SHL PUSH1 0x60 DUP3 ADD MSTORE PUSH1 0x80 ADD SWAP1 JUMP JUMPDEST PUSH1 0x20 DUP1 DUP3 MSTORE PUSH1 0x2F SWAP1 DUP3 ADD MSTORE PUSH32 0x426174636841756374696F6E3A2073746172742074696D65206973206265666F PUSH1 0x40 DUP3 ADD MSTORE PUSH15 0x72652063757272656E742074696D65 PUSH1 0x88 SHL PUSH1 0x60 DUP3 ADD MSTORE PUSH1 0x80 ADD SWAP1 JUMP JUMPDEST PUSH1 0x20 DUP1 DUP3 MSTORE PUSH1 0x1F SWAP1 DUP3 ADD MSTORE PUSH32 0x5265656E7472616E637947756172643A207265656E7472616E742063616C6C00 PUSH1 0x40 DUP3 ADD MSTORE PUSH1 0x60 ADD SWAP1 JUMP JUMPDEST PUSH1 0x20 DUP1 DUP3 MSTORE PUSH1 0x2D SWAP1 DUP3 ADD MSTORE PUSH32 0x426174636841756374696F6E3A205061796D656E742063757272656E63792069 PUSH1 0x40 DUP3 ADD MSTORE PUSH13 0x39903737BA1030903A37B5B2B7 PUSH1 0x99 SHL PUSH1 0x60 DUP3 ADD MSTORE PUSH1 0x80 ADD SWAP1 JUMP JUMPDEST PUSH1 0x20 DUP1 DUP3 MSTORE PUSH1 0x18 SWAP1 DUP3 ADD MSTORE PUSH32 0x426F72696E674D6174683A204D756C204F766572666C6F770000000000000000 PUSH1 0x40 DUP3 ADD MSTORE PUSH1 0x60 ADD SWAP1 JUMP JUMPDEST PUSH1 0x20 DUP1 DUP3 MSTORE DUP2 DUP2 ADD MSTORE PUSH32 0x426174636841756374696F6E3A204E6F20746F6B656E7320746F20636C61696D PUSH1 0x40 DUP3 ADD MSTORE PUSH1 0x60 ADD SWAP1 JUMP JUMPDEST PUSH1 0x20 DUP1 DUP3 MSTORE PUSH1 0x2F SWAP1 DUP3 ADD MSTORE PUSH32 0x416363657373436F6E74726F6C3A2063616E206F6E6C792072656E6F756E6365 PUSH1 0x40 DUP3 ADD MSTORE PUSH15 0x103937B632B9903337B91039B2B633 PUSH1 0x89 SHL PUSH1 0x60 DUP3 ADD MSTORE PUSH1 0x80 ADD SWAP1 JUMP JUMPDEST PUSH1 0x20 DUP1 DUP3 MSTORE PUSH1 0x14 SWAP1 DUP3 ADD MSTORE PUSH20 0x426F72696E674D6174683A20446976207A65726F PUSH1 0x60 SHL PUSH1 0x40 DUP3 ADD MSTORE PUSH1 0x60 ADD SWAP1 JUMP JUMPDEST PUSH1 0x1 PUSH1 0x1 PUSH1 0x80 SHL SUB SWAP5 DUP6 AND DUP2 MSTORE SWAP3 SWAP1 SWAP4 AND PUSH1 0x20 DUP4 ADD MSTORE ISZERO ISZERO PUSH1 0x40 DUP3 ADD MSTORE SWAP1 ISZERO ISZERO PUSH1 0x60 DUP3 ADD MSTORE PUSH1 0x80 ADD SWAP1 JUMP JUMPDEST SWAP2 DUP3 MSTORE PUSH1 0x20 DUP3 ADD MSTORE PUSH1 0x40 ADD SWAP1 JUMP JUMPDEST PUSH1 0x1 PUSH1 0x1 PUSH1 0x40 SHL SUB SWAP4 DUP5 AND DUP2 MSTORE SWAP2 SWAP1 SWAP3 AND PUSH1 0x20 DUP3 ADD MSTORE PUSH1 0x1 PUSH1 0x1 PUSH1 0x80 SHL SUB SWAP1 SWAP2 AND PUSH1 0x40 DUP3 ADD MSTORE PUSH1 0x60 ADD SWAP1 JUMP JUMPDEST PUSH1 0x0 DUP1 DUP4 CALLDATALOAD PUSH1 0x1E NOT DUP5 CALLDATASIZE SUB ADD DUP2 SLT PUSH2 0x480E JUMPI DUP3 DUP4 REVERT JUMPDEST DUP4 ADD DUP1 CALLDATALOAD SWAP2 POP PUSH1 0x1 PUSH1 0x1 PUSH1 0x40 SHL SUB DUP3 GT ISZERO PUSH2 0x4827 JUMPI DUP3 DUP4 REVERT JUMPDEST PUSH1 0x20 ADD SWAP2 POP CALLDATASIZE DUP2 SWAP1 SUB DUP3 SGT ISZERO PUSH2 0x1B10 JUMPI PUSH1 0x0 DUP1 REVERT JUMPDEST PUSH1 0x0 SWAP1 DUP2 MSTORE PUSH1 0x20 SWAP1 KECCAK256 SWAP1 JUMP JUMPDEST PUSH1 0x0 JUMPDEST DUP4 DUP2 LT ISZERO PUSH2 0x4863 JUMPI DUP2 DUP2 ADD MLOAD DUP4 DUP3 ADD MSTORE PUSH1 0x20 ADD PUSH2 0x484B JUMP JUMPDEST DUP4 DUP2 GT ISZERO PUSH2 0x1E68 JUMPI POP POP PUSH1 0x0 SWAP2 ADD MSTORE JUMP JUMPDEST PUSH1 0x1 PUSH1 0x1 PUSH1 0xA0 SHL SUB DUP2 AND DUP2 EQ PUSH2 0x2381 JUMPI PUSH1 0x0 DUP1 REVERT JUMPDEST DUP1 ISZERO ISZERO DUP2 EQ PUSH2 0x2381 JUMPI PUSH1 0x0 DUP1 REVERT JUMPDEST PUSH1 0xFF DUP2 AND DUP2 EQ PUSH2 0x2381 JUMPI PUSH1 0x0 DUP1 REVERT INVALID SWAP14 0x49 RETURN SWAP8 0xAE SWAP15 CALL 0xA8 CALLVALUE 0xB5 PUSH10 0xACB967799A367061E305 SWAP4 0x21 DUP2 LOG4 0x4F JUMPI PUSH20 0xDA873BFD97667070C54EF182B0F5858B034BEAC1 0xB6 RETURN ADDMOD SWAP11 LOG2 0xD3 XOR DUP12 0xB1 0xE8 SWAP3 SWAP16 0x4F 0xA9 0xB9 0x29 SWAP16 0x2D CREATE INVALID 0xD2 0xC7 PUSH23 0x48DE5860A4CC508CD0818C85B8B8A1AB4CEEEF8D981C89 JUMP 0xA6 0x49 KECCAK256 PUSH22 0x6E6465727374616E642074686174204920616D20696E PUSH21 0x6572616374696E672077697468206120736D617274 KECCAK256 PUSH4 0x6F6E7472 PUSH2 0x6374 0x2E KECCAK256 0x49 KECCAK256 PUSH22 0x6E6465727374616E64207468617420746F6B656E7320 PUSH4 0x6F6D6D69 PUSH21 0x656420617265207375626A65637420746F20746865 KECCAK256 PUSH21 0x6F6B656E2069737375657220616E64206C6F63616C KECCAK256 PUSH13 0x61777320776865726520617070 PUSH13 0x696361626C652E204920686176 PUSH6 0x207265766965 PUSH24 0x65642074686520636F6465206F66207468697320736D6172 PUSH21 0x20636F6E747261637420616E6420756E6465727374 PUSH2 0x6E64 KECCAK256 PUSH10 0x742066756C6C792E2049 KECCAK256 PUSH2 0x6772 PUSH6 0x6520746F206E PUSH16 0x7420686F6C6420646576656C6F706572 PUSH20 0x206F72206F746865722070656F706C6520617373 PUSH16 0x63696174656420776974682074686520 PUSH17 0x726F6A656374206C6961626C6520666F72 KECCAK256 PUSH2 0x6E79 KECCAK256 PUSH13 0x6F73736573206F72206D697375 PUSH15 0x6465727374616E64696E6773A26469 PUSH17 0x667358221220CCF15E7EA4D62DE55A170D 0xB0 0x1F 0x4A 0xE5 0x2F GT 0x26 0x28 0xB8 0xBD TIMESTAMP DIFFICULTY PUSH9 0x742F3CDAC4710F6664 PUSH20 0x6F6C634300060C00330000000000000000000000 ","sha1":"b76ca667a0b8f89679b21a48ccf9961f7931c161","source":"pragma solidity 0.6.12;\npragma experimental ABIEncoderV2;\n\n//----------------------------------------------------------------------------------\n//    I n s t a n t\n//\n//        .:mmm.         .:mmm:.       .ii.  .:SSSSSSSSSSSSS.     .oOOOOOOOOOOOo.  \n//      .mMM'':Mm.     .:MM'':Mm:.     .II:  :SSs..........     .oOO'''''''''''OOo.\n//    .:Mm'   ':Mm.   .:Mm'   'MM:.    .II:  'sSSSSSSSSSSSSS:.  :OO.           .OO:\n//  .'mMm'     ':MM:.:MMm'     ':MM:.  .II:  .:...........:SS.  'OOo:.........:oOO'\n//  'mMm'        ':MMmm'         'mMm:  II:  'sSSSSSSSSSSSSS'     'oOOOOOOOOOOOO'  \n//\n//----------------------------------------------------------------------------------\n//\n// Chef Gonpachi's Batch Auction\n//\n// An auction where contributions are swaped for a batch of tokens pro-rata\n// \n// This program is free software: you can redistribute it and/or modify\n// it under the terms of the GNU General Public License as published by\n// the Free Software Foundation, either version 3 of the License\n//\n// This program is distributed in the hope that it will be useful,\n// but WITHOUT ANY WARRANTY; without even the implied warranty of\n// MERCHANTABILITY or FITNESS FOR A PARTICULAR PURPOSE.  See the\n// GNU General Public License for more details.\n//\n// The above copyright notice and this permission notice shall be included \n// in all copies or substantial portions of the Software.\n//\n// Made for Sushi.com \n// \n// Enjoy. (c) Chef Gonpachi, Kusatoshi, SSMikazu 2021 \n// <https://github.com/chefgonpachi/MISO/>\n//\n// ---------------------------------------------------------------------\n// SPDX-License-Identifier: GPL-3.0                        \n// ---------------------------------------------------------------------\n\nimport \"../OpenZeppelin/utils/ReentrancyGuard.sol\";\nimport \"../Access/MISOAccessControls.sol\";\nimport \"../Utils/SafeTransfer.sol\";\nimport \"../Utils/BoringBatchable.sol\";\nimport \"../Utils/BoringMath.sol\";\nimport \"../Utils/BoringERC20.sol\";\nimport \"../Utils/Documents.sol\";\nimport \"../interfaces/IPointList.sol\";\nimport \"../interfaces/IMisoMarket.sol\";\n\n/// @notice Attribution to delta.financial\n/// @notice Attribution to dutchswap.com\n\n\ncontract BatchAuction is  IMisoMarket, MISOAccessControls, BoringBatchable, SafeTransfer, Documents, ReentrancyGuard  {\n\n    using BoringMath for uint256;\n    using BoringMath128 for uint128;\n    using BoringMath64 for uint64;\n    using BoringERC20 for IERC20;\n\n    /// @notice MISOMarket template id for the factory contract.\n    /// @dev For different marketplace types, this must be incremented.\n    uint256 public constant override marketTemplate = 3;\n\n    /// @dev The placeholder ETH address.\n    address private constant ETH_ADDRESS = 0xEeeeeEeeeEeEeeEeEeEeeEEEeeeeEeeeeeeeEEeE;\n\n    /// @notice Main market variables.\n    struct MarketInfo {\n        uint64 startTime;\n        uint64 endTime; \n        uint128 totalTokens;\n    }\n    MarketInfo public marketInfo;\n\n    /// @notice Market dynamic variables.\n    struct MarketStatus {\n        uint128 commitmentsTotal;\n        uint128 minimumCommitmentAmount;\n        bool finalized;\n        bool usePointList;\n    }\n\n    MarketStatus public marketStatus;\n\n    address public auctionToken;\n    /// @notice The currency the BatchAuction accepts for payment. Can be ETH or token address.\n    address public paymentCurrency;\n    /// @notice Address that manages auction approvals.\n    address public pointList;\n    address payable public wallet; // Where the auction funds will get paid\n\n    mapping(address => uint256) public commitments;\n    /// @notice Amount of tokens to claim per address.\n    mapping(address => uint256) public claimed;\n\n    /// @notice Event for updating auction times.  Needs to be before auction starts.\n    event AuctionTimeUpdated(uint256 startTime, uint256 endTime); \n    /// @notice Event for updating auction prices. Needs to be before auction starts.\n    event AuctionPriceUpdated(uint256 minimumCommitmentAmount); \n    /// @notice Event for updating auction wallet. Needs to be before auction starts.\n    event AuctionWalletUpdated(address wallet); \n\n    /// @notice Event for adding a commitment.\n    event AddedCommitment(address addr, uint256 commitment);\n    /// @notice Event for finalization of the auction.\n    event AuctionFinalized();\n    /// @notice Event for cancellation of the auction.\n    event AuctionCancelled();\n\n    /**\n     * @notice Initializes main contract variables and transfers funds for the auction.\n     * @dev Init function.\n     * @param _funder The address that funds the token for BatchAuction.\n     * @param _token Address of the token being sold.\n     * @param _totalTokens The total number of tokens to sell in auction.\n     * @param _startTime Auction start time.\n     * @param _endTime Auction end time.\n     * @param _paymentCurrency The currency the BatchAuction accepts for payment. Can be ETH or token address.\n     * @param _minimumCommitmentAmount Minimum amount collected at which the auction will be successful.\n     * @param _admin Address that can finalize auction.\n     * @param _wallet Address where collected funds will be forwarded to.\n     */\n    function initAuction(\n        address _funder,\n        address _token,\n        uint256 _totalTokens,\n        uint256 _startTime,\n        uint256 _endTime,\n        address _paymentCurrency,\n        uint256 _minimumCommitmentAmount,\n        address _admin,\n        address _pointList,\n        address payable _wallet\n    ) public {\n        require(_endTime < 10000000000, \"BatchAuction: enter an unix timestamp in seconds, not miliseconds\");\n        require(_startTime >= block.timestamp, \"BatchAuction: start time is before current time\");\n        require(_endTime > _startTime, \"BatchAuction: end time must be older than start time\");\n        require(_totalTokens > 0,\"BatchAuction: total tokens must be greater than zero\");\n        require(_admin != address(0), \"BatchAuction: admin is the zero address\");\n        require(_wallet != address(0), \"BatchAuction: wallet is the zero address\");\n        require(IERC20(_token).decimals() == 18, \"BatchAuction: Token does not have 18 decimals\");\n        if (_paymentCurrency != ETH_ADDRESS) {\n            require(IERC20(_paymentCurrency).decimals() > 0, \"BatchAuction: Payment currency is not ERC20\");\n        }\n\n        marketStatus.minimumCommitmentAmount = BoringMath.to128(_minimumCommitmentAmount);\n        \n        marketInfo.startTime = BoringMath.to64(_startTime);\n        marketInfo.endTime = BoringMath.to64(_endTime);\n        marketInfo.totalTokens = BoringMath.to128(_totalTokens);\n\n        auctionToken = _token;\n        paymentCurrency = _paymentCurrency;\n        wallet = _wallet;\n\n        initAccessControls(_admin);\n\n        _setList(_pointList);\n        _safeTransferFrom(auctionToken, _funder, _totalTokens);\n    }\n\n\n    ///--------------------------------------------------------\n    /// Commit to buying tokens!\n    ///--------------------------------------------------------\n\n    receive() external payable {\n        revertBecauseUserDidNotProvideAgreement();\n    }\n    \n    /** \n     * @dev Attribution to the awesome delta.financial contracts\n    */  \n    function marketParticipationAgreement() public pure returns (string memory) {\n        return \"I understand that I am interacting with a smart contract. I understand that tokens commited are subject to the token issuer and local laws where applicable. I have reviewed the code of this smart contract and understand it fully. I agree to not hold developers or other people associated with the project liable for any losses or misunderstandings\";\n    }\n    /** \n     * @dev Not using modifiers is a purposeful choice for code readability.\n    */ \n    function revertBecauseUserDidNotProvideAgreement() internal pure {\n        revert(\"No agreement provided, please review the smart contract before interacting with it\");\n    }\n\n    /**\n     * @notice Commit ETH to buy tokens on auction.\n     * @param _beneficiary Auction participant ETH address.\n     */\n    function commitEth(address payable _beneficiary, bool readAndAgreedToMarketParticipationAgreement) public payable {\n        require(paymentCurrency == ETH_ADDRESS, \"BatchAuction: payment currency is not ETH\");\n\n        require(msg.value > 0, \"BatchAuction: Value must be higher than 0\");\n        if(readAndAgreedToMarketParticipationAgreement == false) {\n            revertBecauseUserDidNotProvideAgreement();\n        }\n        _addCommitment(_beneficiary, msg.value);\n\n        /// @notice Revert if commitmentsTotal exceeds the balance\n        require(marketStatus.commitmentsTotal <= address(this).balance, \"BatchAuction: The committed ETH exceeds the balance\");\n    }\n\n    /**\n     * @notice Buy Tokens by commiting approved ERC20 tokens to this contract address.\n     * @param _amount Amount of tokens to commit.\n     */\n    function commitTokens(uint256 _amount, bool readAndAgreedToMarketParticipationAgreement) public {\n        commitTokensFrom(msg.sender, _amount, readAndAgreedToMarketParticipationAgreement);\n    }\n\n    /**\n     * @notice Checks if amount not 0 and makes the transfer and adds commitment.\n     * @dev Users must approve contract prior to committing tokens to auction.\n     * @param _from User ERC20 address.\n     * @param _amount Amount of approved ERC20 tokens.\n     */\n    function commitTokensFrom(address _from, uint256 _amount, bool readAndAgreedToMarketParticipationAgreement) public   nonReentrant  {\n        require(paymentCurrency != ETH_ADDRESS, \"BatchAuction: Payment currency is not a token\");\n        if(readAndAgreedToMarketParticipationAgreement == false) {\n            revertBecauseUserDidNotProvideAgreement();\n        }\n        require(_amount> 0, \"BatchAuction: Value must be higher than 0\");\n        _safeTransferFrom(paymentCurrency, msg.sender, _amount);\n        _addCommitment(_from, _amount);\n\n    }\n\n\n    /// @notice Commits to an amount during an auction\n    /**\n     * @notice Updates commitment for this address and total commitment of the auction.\n     * @param _addr Auction participant address.\n     * @param _commitment The amount to commit.\n     */\n    function _addCommitment(address _addr, uint256 _commitment) internal {\n        require(block.timestamp >= marketInfo.startTime && block.timestamp <= marketInfo.endTime, \"BatchAuction: outside auction hours\"); \n\n        uint256 newCommitment = commitments[_addr].add(_commitment);\n        if (marketStatus.usePointList) {\n            require(IPointList(pointList).hasPoints(_addr, newCommitment));\n        }\n        commitments[_addr] = newCommitment;\n        marketStatus.commitmentsTotal = BoringMath.to128(uint256(marketStatus.commitmentsTotal).add(_commitment));\n        emit AddedCommitment(_addr, _commitment);\n    }\n\n    /**\n     * @notice Calculates amount of auction tokens for user to receive.\n     * @param amount Amount of tokens to commit.\n     * @return Auction token amount.\n     */\n    function _getTokenAmount(uint256 amount) internal view returns (uint256) { \n        if (marketStatus.commitmentsTotal == 0) return 0;\n        return amount.mul(1e18).div(tokenPrice());\n    }\n\n    /**\n     * @notice Calculates the price of each token from all commitments.\n     * @return Token price.\n     */\n    function tokenPrice() public view returns (uint256) {\n        return uint256(marketStatus.commitmentsTotal)\n            .mul(1e18).div(uint256(marketInfo.totalTokens));\n    }\n\n\n    ///--------------------------------------------------------\n    /// Finalize Auction\n    ///--------------------------------------------------------\n\n    /// @notice Auction finishes successfully above the reserve\n    /// @dev Transfer contract funds to initialized wallet.\n    function finalize() public    nonReentrant \n    {\n        require(hasAdminRole(msg.sender) \n                || wallet == msg.sender\n                || hasSmartContractRole(msg.sender) \n                || finalizeTimeExpired(),  \"BatchAuction: Sender must be admin\");\n        require(!marketStatus.finalized, \"BatchAuction: Auction has already finalized\");\n        require(marketInfo.totalTokens > 0, \"Not initialized\");\n        require(block.timestamp > marketInfo.endTime, \"BatchAuction: Auction has not finished yet\");\n        if (auctionSuccessful()) {\n            /// @dev Successful auction\n            /// @dev Transfer contributed tokens to wallet.\n            _safeTokenPayment(paymentCurrency, wallet, uint256(marketStatus.commitmentsTotal));\n        } else {\n            /// @dev Failed auction\n            /// @dev Return auction tokens back to wallet.\n            _safeTokenPayment(auctionToken, wallet, marketInfo.totalTokens);\n        }\n        marketStatus.finalized = true;\n        emit AuctionFinalized();\n    }\n\n    /**\n     * @notice Cancel Auction\n     * @dev Admin can cancel the auction before it starts\n     */\n    function cancelAuction() public   nonReentrant  \n    {\n        require(hasAdminRole(msg.sender));\n        MarketStatus storage status = marketStatus;\n        require(!status.finalized, \"BatchAuction: already finalized\");\n        require( uint256(status.commitmentsTotal) == 0, \"BatchAuction: Funds already raised\" );\n\n        _safeTokenPayment(auctionToken, wallet, uint256(marketInfo.totalTokens));\n\n        status.finalized = true;\n        emit AuctionCancelled();\n    }\n\n    /// @notice Withdraws bought tokens, or returns commitment if the sale is unsuccessful.\n    function withdrawTokens() public  {\n        withdrawTokens(msg.sender);\n    }\n\n    /// @notice Withdraw your tokens once the Auction has ended.\n    function withdrawTokens(address payable beneficiary) public   nonReentrant  {\n        if (auctionSuccessful()) {\n            require(marketStatus.finalized, \"BatchAuction: not finalized\");\n            /// @dev Successful auction! Transfer claimed tokens.\n            uint256 tokensToClaim = tokensClaimable(beneficiary);\n            require(tokensToClaim > 0, \"BatchAuction: No tokens to claim\");\n            claimed[beneficiary] = claimed[beneficiary].add(tokensToClaim);\n\n            _safeTokenPayment(auctionToken, beneficiary, tokensToClaim);\n        } else {\n            /// @dev Auction did not meet reserve price.\n            /// @dev Return committed funds back to user.\n            require(block.timestamp > marketInfo.endTime, \"BatchAuction: Auction has not finished yet\");\n            uint256 fundsCommitted = commitments[beneficiary];\n            require(fundsCommitted > 0, \"BatchAuction: No funds committed\");\n            commitments[beneficiary] = 0; // Stop multiple withdrawals and free some gas\n            _safeTokenPayment(paymentCurrency, beneficiary, fundsCommitted);\n        }\n    }\n\n\n    /**\n     * @notice How many tokens the user is able to claim.\n     * @param _user Auction participant address.\n     * @return  claimerCommitment Tokens left to claim.\n     */\n    function tokensClaimable(address _user) public view returns (uint256 claimerCommitment) {\n        if (commitments[_user] == 0) return 0;\n        uint256 unclaimedTokens = IERC20(auctionToken).balanceOf(address(this));\n        claimerCommitment = _getTokenAmount(commitments[_user]);\n        claimerCommitment = claimerCommitment.sub(claimed[_user]);\n\n        if(claimerCommitment > unclaimedTokens){\n            claimerCommitment = unclaimedTokens;\n        }\n    }\n    \n    /**\n     * @notice Checks if raised more than minimum amount.\n     * @return True if tokens sold greater than or equals to the minimum commitment amount.\n     */\n    function auctionSuccessful() public view returns (bool) {\n        return uint256(marketStatus.commitmentsTotal) >= uint256(marketStatus.minimumCommitmentAmount) && uint256(marketStatus.commitmentsTotal) > 0;\n    }\n\n    /**\n     * @notice Checks if the auction has ended.\n     * @return bool True if current time is greater than auction end time.\n     */\n    function auctionEnded() public view returns (bool) {\n        return block.timestamp > marketInfo.endTime;\n    }\n\n    /**\n     * @notice Checks if the auction has been finalised.\n     * @return bool True if auction has been finalised.\n     */\n    function finalized() public view returns (bool) {\n        return marketStatus.finalized;\n    }\n\n    /// @notice Returns true if 7 days have passed since the end of the auction\n    function finalizeTimeExpired() public view returns (bool) {\n        return uint256(marketInfo.endTime) + 7 days < block.timestamp;\n    }\n\n\n    //--------------------------------------------------------\n    // Documents\n    //--------------------------------------------------------\n\n    function setDocument(string calldata _name, string calldata _data) external {\n        require(hasAdminRole(msg.sender) );\n        _setDocument( _name, _data);\n    }\n\n    function setDocuments(string[] calldata _name, string[] calldata _data) external {\n        require(hasAdminRole(msg.sender) );\n        uint256 numDocs = _name.length;\n        for (uint256 i = 0; i < numDocs; i++) {\n            _setDocument( _name[i], _data[i]);\n        }\n    }\n\n    function removeDocument(string calldata _name) external {\n        require(hasAdminRole(msg.sender));\n        _removeDocument(_name);\n    }\n\n\n    //--------------------------------------------------------\n    // Point Lists\n    //--------------------------------------------------------\n\n\n    function setList(address _list) external {\n        require(hasAdminRole(msg.sender));\n        _setList(_list);\n    }\n\n    function enableList(bool _status) external {\n        require(hasAdminRole(msg.sender));\n        marketStatus.usePointList = _status;\n    }\n\n    function _setList(address _pointList) private {\n        if (_pointList != address(0)) {\n            pointList = _pointList;\n            marketStatus.usePointList = true;\n        }\n    }\n\n    //--------------------------------------------------------\n    // Setter Functions\n    //--------------------------------------------------------\n\n    /**\n     * @notice Admin can set start and end time through this function.\n     * @param _startTime Auction start time.\n     * @param _endTime Auction end time.\n     */\n    function setAuctionTime(uint256 _startTime, uint256 _endTime) external {\n        require(hasAdminRole(msg.sender));\n        require(_startTime < 10000000000, \"BatchAuction: enter an unix timestamp in seconds, not miliseconds\");\n        require(_endTime < 10000000000, \"BatchAuction: enter an unix timestamp in seconds, not miliseconds\");\n        require(_startTime >= block.timestamp, \"BatchAuction: start time is before current time\");\n        require(_endTime > _startTime, \"BatchAuction: end time must be older than start price\");\n\n        require(marketStatus.commitmentsTotal == 0, \"BatchAuction: auction cannot have already started\");\n\n        marketInfo.startTime = BoringMath.to64(_startTime);\n        marketInfo.endTime = BoringMath.to64(_endTime);\n        \n        emit AuctionTimeUpdated(_startTime,_endTime);\n    }\n\n    /**\n     * @notice Admin can set start and min price through this function.\n     * @param _minimumCommitmentAmount Auction minimum raised target.\n     */\n    function setAuctionPrice(uint256 _minimumCommitmentAmount) external {\n        require(hasAdminRole(msg.sender));\n\n        require(marketStatus.commitmentsTotal == 0, \"BatchAuction: auction cannot have already started\");\n\n        marketStatus.minimumCommitmentAmount = BoringMath.to128(_minimumCommitmentAmount);\n\n        emit AuctionPriceUpdated(_minimumCommitmentAmount);\n    }\n\n    /**\n     * @notice Admin can set the auction wallet through this function.\n     * @param _wallet Auction wallet is where funds will be sent.\n     */\n    function setAuctionWallet(address payable _wallet) external {\n        require(hasAdminRole(msg.sender));\n        require(_wallet != address(0), \"BatchAuction: wallet is the zero address\");\n\n        wallet = _wallet;\n\n        emit AuctionWalletUpdated(_wallet);\n    }\n\n\n    //--------------------------------------------------------\n    // Market Launchers\n    //--------------------------------------------------------\n\n    function init(bytes calldata _data) external override payable {\n    }\n\n    function initMarket(\n        bytes calldata _data\n    ) public override {\n        (\n        address _funder,\n        address _token,\n        uint256 _totalTokens,\n        uint256 _startTime,\n        uint256 _endTime,\n        address _paymentCurrency,\n        uint256 _minimumCommitmentAmount,\n        address _admin,\n        address _pointList,\n        address payable _wallet\n        ) = abi.decode(_data, (\n            address,\n            address,\n            uint256,\n            uint256,\n            uint256,\n            address,\n            uint256,\n            address,\n            address,\n            address\n        ));\n        initAuction(_funder, _token, _totalTokens, _startTime, _endTime, _paymentCurrency, _minimumCommitmentAmount, _admin, _pointList,  _wallet);\n    }\n\n     function getBatchAuctionInitData(\n       address _funder,\n        address _token,\n        uint256 _totalTokens,\n        uint256 _startTime,\n        uint256 _endTime,\n        address _paymentCurrency,\n        uint256 _minimumCommitmentAmount,\n        address _admin,\n        address _pointList,\n        address payable _wallet\n    )\n        external\n        pure\n        returns (bytes memory _data)\n    {\n        return abi.encode(\n            _funder,\n            _token,\n            _totalTokens,\n            _startTime,\n            _endTime,\n            _paymentCurrency,\n            _minimumCommitmentAmount,\n            _admin,\n            _pointList,\n            _wallet\n            );\n    }\n\n    function getBaseInformation() external view returns(\n        address token, \n        uint64 startTime,\n        uint64 endTime,\n        bool marketFinalized\n    ) {\n        return (auctionToken, marketInfo.startTime, marketInfo.endTime, marketStatus.finalized);\n    }\n\n    function getTotalTokens() external view returns(uint256) {\n        return uint256(marketInfo.totalTokens);\n    }\n\n}\n","sourcePath":"contracts/Auctions/BatchAuction.sol","deployment":{"address":"0x0394E112202c183354B597c56d4c1f6B77094a80","chainid":"4002","blockHeight":6461022}}