{"bytecode":"608060405234801561001057600080fd5b506151aa806100206000396000f3fe608060405234801561001057600080fd5b506004361061002b5760003560e01c8063773c954614610030575b600080fd5b610038610054565b604080516001600160a01b039092168252519081900360200190f35b600060405161006290610084565b604051809103906000f08015801561007e573d6000803e3d6000fd5b50905090565b6150e3806100928339019056fe608060405234801561001057600080fd5b5060016005556150be806100256000396000f3fe6080604052600436106104355760003560e01c80638a845fc011610229578063c6b547e61161012e578063dc97e082116100b6578063e8fcf7231161007a578063e8fcf72314610c3b578063f04899d314610c5b578063f08b82e614610c70578063f5b541a614610c85578063fc4e3e0a14610c9a57610444565b8063dc97e08214610b97578063dccfe31014610bb7578063dde51f6d14610bd7578063e0e081d714610bf7578063e6594abd14610c1b57610444565b8063d2423b51116100fd578063d2423b5114610b0c578063d539139314610b2d578063d547741f14610b42578063d69d3e6214610b62578063d7568b6e14610b8257610444565b8063c6b547e614610a8c578063c884ef8314610aac578063c92bce8714610acc578063ca15c87314610aec57610444565b80639c64d0ae116101b1578063adbf377611610180578063adbf3776146109f7578063b1f1621814610a17578063b3f05b9714610a37578063b7928b1d14610a4c578063c395fcb314610a6c57610444565b80639c64d0ae1461098b5780639fa5f50b146109ab578063a217fddf146109cd578063a9d87ee6146109e257610444565b8063919e93b5116101f8578063919e93b51461090157806391d14854146109165780639478941c1461093657806399fdb320146109565780639a87222c1461096b57610444565b80638a845fc0146108975780638d8f2adb146108b75780638fa8b790146108cc5780639010d07c146108e157610444565b806347535d7b1161033a5780636ae260c1116102c25780637ff9b596116102865780637ff9b5961461081857806381353c8e1461082d57806384720f161461084d578063857d26081461086d578063864333741461088257610444565b80636ae260c11461076857806373973fcb1461078857806374cf9fc5146107a85780637c516e94146107ca5780637ccb6a64146107ea57610444565b80634dc80e15116103095780634dc80e15146106e05780634ddf47d414610700578063521eb2731461071357806354f1e126146107285780636595171c1461074857610444565b806347535d7b1461067657806349df728c1461068b5780634b3e6abb146106ab5780634bb278f3146106cb57610444565b80632f2ff15d116103bd57806336d0054b1161038c57806336d0054b146105e75780633d15cc6d146105fc5780633d1c22731461061e5780633f16431a1461063357806345a153881461065357610444565b80632f2ff15d1461056d578063314148e21461058d57806332a0f2d7146105b257806336568abe146105c757610444565b80631b3e460e116104045780631b3e460e146104d8578063212f8a81146104fa578063248a9ca31461051a57806324e4025b1461053a578063297629601461055a57610444565b8063031bee0014610449578063099db01714610476578063113b0ab2146104a357806317026455146104c357610444565b3661044457610442610cba565b005b600080fd5b34801561045557600080fd5b5061045e610cdb565b60405161046d93929190614dfd565b60405180910390f35b34801561048257600080fd5b506104966104913660046139c8565b610d08565b60405161046d9190614175565b3480156104af57600080fd5b506104966104be3660046139c8565b610d2a565b3480156104cf57600080fd5b50610496610d44565b3480156104e457600080fd5b506104ed610d63565b60405161046d9190614180565b34801561050657600080fd5b50610442610515366004613afa565b610d68565b34801561052657600080fd5b506104ed610535366004613c24565b610e1b565b34801561054657600080fd5b50610442610555366004613c60565b610e30565b610442610568366004613aa1565b610f37565b34801561057957600080fd5b50610442610588366004613c3c565b61101e565b34801561059957600080fd5b506105a2611066565b60405161046d9493929190614049565b3480156105be57600080fd5b506104ed61109e565b3480156105d357600080fd5b506104426105e2366004613c3c565b6110cd565b3480156105f357600080fd5b5061049661110f565b34801561060857600080fd5b50610611611128565b60405161046d9190613f58565b34801561062a57600080fd5b506104ed611137565b34801561063f57600080fd5b5061044261064e3660046139c8565b61113d565b34801561065f57600080fd5b5061066861119f565b60405161046d929190614dd5565b34801561068257600080fd5b506104966111b9565b34801561069757600080fd5b506104426106a63660046139c8565b6111ee565b3480156106b757600080fd5b506104426106c6366004613bec565b611338565b3480156106d757600080fd5b50610442611368565b3480156106ec57600080fd5b506104ed6106fb3660046139c8565b61151e565b61044261070e366004613c81565b611062565b34801561071f57600080fd5b50610611611648565b34801561073457600080fd5b506104426107433660046139c8565b611657565b34801561075457600080fd5b506104426107633660046139c8565b6116b9565b34801561077457600080fd5b50610442610783366004613c60565b61170e565b34801561079457600080fd5b506104ed6107a3366004613c24565b611861565b3480156107b457600080fd5b506107bd6118db565b60405161046d9190614189565b3480156107d657600080fd5b506104426107e5366004613cc0565b6118fe565b3480156107f657600080fd5b5061080a610805366004613c81565b611972565b60405161046d9291906141cb565b34801561082457600080fd5b506104ed611a5f565b34801561083957600080fd5b50610442610848366004613c81565b611a92565b34801561085957600080fd5b506107bd610868366004613ad9565b611ae2565b34801561087957600080fd5b506104ed611b29565b34801561088e57600080fd5b50610496611b3b565b3480156108a357600080fd5b506104426108b23660046139c8565b611b64565b3480156108c357600080fd5b50610442611bc6565b3480156108d857600080fd5b50610442611bd1565b3480156108ed57600080fd5b506106116108fc366004613c60565b611cd0565b34801561090d57600080fd5b506104ed611cf1565b34801561092257600080fd5b50610496610931366004613c3c565b611d1c565b34801561094257600080fd5b506104426109513660046139c8565b611d34565b34801561096257600080fd5b50610611611d96565b34801561097757600080fd5b506104426109863660046139c8565b611da5565b34801561099757600080fd5b506104426109a6366004613d42565b611e33565b3480156109b757600080fd5b506109c0611e51565b60405161046d9190614115565b3480156109d957600080fd5b506104ed611f29565b3480156109ee57600080fd5b506104ed611f2e565b348015610a0357600080fd5b50610442610a123660046139c8565b611f8f565b348015610a2357600080fd5b50610442610a32366004613ad9565b611ff1565b348015610a4357600080fd5b50610496612384565b348015610a5857600080fd5b50610442610a673660046139c8565b612394565b348015610a7857600080fd5b50610496610a873660046139c8565b6123f6565b348015610a9857600080fd5b506107bd610aa7366004613c24565b612402565b348015610ab857600080fd5b506104ed610ac73660046139c8565b6124cd565b348015610ad857600080fd5b50610442610ae7366004613b84565b6124df565b348015610af857600080fd5b506104ed610b07366004613c24565b612551565b610b1f610b1a366004613b3b565b612568565b60405161046d92919061407b565b348015610b3957600080fd5b506104ed6126f8565b348015610b4e57600080fd5b50610442610b5d366004613c3c565b61270a565b348015610b6e57600080fd5b50610442610b7d3660046139c8565b612744565b348015610b8e57600080fd5b506104ed612762565b348015610ba357600080fd5b50610442610bb2366004613e50565b61283a565b348015610bc357600080fd5b50610442610bd23660046139c8565b612845565b348015610be357600080fd5b50610442610bf2366004613c81565b61289a565b348015610c0357600080fd5b50610c0c6128b6565b60405161046d93929190614db2565b348015610c2757600080fd5b50610442610c363660046139c8565b6128db565b348015610c4757600080fd5b506104ed610c563660046139c8565b61293e565b348015610c6757600080fd5b50610611612950565b348015610c7c57600080fd5b506104ed61295f565b348015610c9157600080fd5b506104ed612975565b348015610ca657600080fd5b50610496610cb53660046139c8565b612987565b60405162461bcd60e51b8152600401610cd290614667565b60405180910390fd5b6006546001600160401b0380821691600160401b810490911690600160801b90046001600160801b031683565b6000610d22600080516020614f1883398151915283611d1c565b90505b919050565b6000610d22600080516020614ed883398151915283611d1c565b60065442600160401b9091046001600160401b031662093a8001105b90565b600281565b60026005541415610d8b5760405162461bcd60e51b8152600401610cd290614bd2565b6002600555600a546001600160a01b031673eeeeeeeeeeeeeeeeeeeeeeeeeeeeeeeeeeeeeeee1415610dcf5760405162461bcd60e51b8152600401610cd290614277565b80610ddc57610ddc610cba565b6000610de783611861565b90508015610e1057600a54610e06906001600160a01b031633836129a1565b610e108482612a7e565b505060016005555050565b60009081526020819052604090206002015490565b610e39336123f6565b610e4257600080fd5b808211610e615760405162461bcd60e51b8152600401610cd290614c91565b60008111610e815760405162461bcd60e51b8152600401610cd2906144cd565b6008546001600160801b031615610eaa5760405162461bcd60e51b8152600401610cd290614c09565b610eb382612c21565b600780546001600160801b0319166001600160801b0392909216919091179055610edc81612c21565b600780546001600160801b03928316600160801b0292169190911790556040517f622a57040c34e45abc5fadeb22e4c3c687cf48a096c86694cd21a7be9e7851ee90610f2b9084908490614def565b60405180910390a15050565b600a546001600160a01b031673eeeeeeeeeeeeeeeeeeeeeeeeeeeeeeeeeeeeeeee14610f755760405162461bcd60e51b8152600401610cd290614972565b80610f8257610f82610cba565b6000610f8d34611861565b90506000610f9b3483612c4e565b90508115610fad57610fad8483612a7e565b8015610feb576040516001600160a01b0385169082156108fc029083906000818181858888f19350505050158015610fe9573d6000803e3d6000fd5b505b600854476001600160801b0390911611156110185760405162461bcd60e51b8152600401610cd29061451f565b50505050565b60008281526020819052604090206002015461103c90610931612c71565b6110585760405162461bcd60e51b8152600401610cd290614433565b6110628282612c75565b5050565b6009546006546008546001600160a01b03909216926001600160401b0380831693600160401b9093041691600160801b900460ff1690565b6000806110a9611a5f565b905060006110b5611f2e565b90508082116110c457806110c6565b815b9250505090565b6110d5612c71565b6001600160a01b0316816001600160a01b0316146111055760405162461bcd60e51b8152600401610cd290614d35565b6110628282612cde565b600061111961109e565b611121611a5f565b1015905090565b600a546001600160a01b031681565b60045490565b611155600080516020614ed88339815191528261101e565b61115d612c71565b6001600160a01b0316816001600160a01b03167f1d5f9ec24c6f91be922ea13ceaad919ad6554a41b5c26087f96289a9baf98ad260405160405180910390a350565b6007546001600160801b0380821691600160801b90041682565b6006546000906001600160401b031642108015906111e95750600654600160401b90046001600160401b03164211155b905090565b600260055414156112115760405162461bcd60e51b8152600401610cd290614bd2565b600260055561121e61110f565b156112ce57600854600160801b900460ff1661124c5760405162461bcd60e51b8152600401610cd290614a5d565b60006112578261151e565b9050600081116112795760405162461bcd60e51b8152600401610cd290614347565b6001600160a01b0382166000908152600e602052604090205461129c9082612d47565b6001600160a01b038084166000908152600e60205260409020919091556009546112c891168383612d6a565b50611330565b600654600160401b90046001600160401b031642116112ff5760405162461bcd60e51b8152600401610cd290614b3b565b6001600160a01b038082166000908152600d602052604081208054919055600a54909161132e91168383612d6a565b505b506001600555565b611341336123f6565b61134a57600080fd5b60088054911515600160881b0260ff60881b19909216919091179055565b6002600554141561138b5760405162461bcd60e51b8152600401610cd290614bd2565b6002600555611399336123f6565b806113a857506113a833610d2a565b806113bd5750600b546001600160a01b031633145b806113cb57506113cb610d44565b6113e75760405162461bcd60e51b8152600401610cd2906149c3565b600654600160801b90046001600160801b03166114165760405162461bcd60e51b8152600401610cd290614838565b60088054600160801b900460ff16156114415760405162461bcd60e51b8152600401610cd290614572565b61144961110f565b1561147b57600a54600b548254611476926001600160a01b039081169216906001600160801b0316612d6a565b6114dc565b600654600160401b90046001600160401b031642116114ac5760405162461bcd60e51b8152600401610cd290614b3b565b600954600b546006546114dc926001600160a01b03908116921690600160801b90046001600160801b0316612d6a565b805460ff60801b1916600160801b1781556040517f32bebcfd2d04dbae321298091d96d2cb1d07279f59718cd83bd98245b8b82b5a90600090a1506001600555565b6001600160a01b0381166000908152600d602052604081205461154357506000610d25565b6009546040516370a0823160e01b81526000916001600160a01b0316906370a0823190611574903090600401613f58565b60206040518083038186803b15801561158c57600080fd5b505afa1580156115a0573d6000803e3d6000fd5b505050506040513d601f19601f820116820180604052508101906115c49190613e38565b6008546006546001600160a01b0386166000908152600d602052604090205492935061160d926001600160801b039283169261160792600160801b900416612dae565b90612de5565b6001600160a01b0384166000908152600e6020526040902054909250611634908390612c4e565b915080821115611642578091505b50919050565b600b546001600160a01b031681565b61166f600080516020614f188339815191528261270a565b611677612c71565b6001600160a01b0316816001600160a01b03167f56692a161ffec953ddf9def93b958ea8d1ec95e21b80870c66be91a4374dc4e360405160405180910390a350565b6116c460008261101e565b6116cc612c71565b6001600160a01b0316816001600160a01b03167f2570ac42fd8b322dc453ada624dc2ed0e9bdd67f16f201a25bbd30468f2aa18760405160405180910390a350565b611717336123f6565b61172057600080fd5b6402540be40082106117445760405162461bcd60e51b8152600401610cd2906145b9565b6402540be40081106117685760405162461bcd60e51b8152600401610cd2906145b9565b428210156117885760405162461bcd60e51b8152600401610cd2906146df565b8181116117a75760405162461bcd60e51b8152600401610cd2906142c4565b6008546001600160801b0316156117d05760405162461bcd60e51b8152600401610cd290614c09565b6117d982612e17565b6006805467ffffffffffffffff19166001600160401b039290921691909117905561180381612e17565b600680546001600160401b0392909216600160401b0267ffffffffffffffff60401b199092169190911790556040517f5725d1e4352d6944889e54837ffaefde55cdc0b55796b831365d61cd4c87fdb890610f2b9084908490614def565b600080611894670de0b6b3a764000061160761187b61109e565b600654600160801b90046001600160801b031690612dae565b60085490915081906118af906001600160801b031685612d47565b11156118d4576008546118cc9082906001600160801b0316612c4e565b915050610d25565b5090919050565b60606040518061018001604052806101518152602001614f386101519139905090565b60405163d505accf60e01b81526001600160a01b0389169063d505accf90611936908a908a908a908a908a908a908a90600401613fef565b600060405180830381600087803b15801561195057600080fd5b505af1158015611964573d6000803e3d6000fd5b505050505050505050505050565b6060600060028484604051611988929190613ebc565b9081526020016040518091039020600101600285856040516119ab929190613ebc565b908152604080516020928190038301812054845460026101006001831615026000190190911604601f810185900485028301850190935282825264010000000090046001600160401b03169290918491830182828015611a4c5780601f10611a2157610100808354040283529160200191611a4c565b820191906000526020600020905b815481529060010190602001808311611a2f57829003601f168201915b50505050509150915091505b9250929050565b6006546008546000916111e9916001600160801b03600160801b9092048216916116079116670de0b6b3a7640000612dae565b600080808080808080808080611aaa8c8e018e6139eb565b9a509a509a509a509a509a509a509a509a509a509a50611ad38b8b8b8b8b8b8b8b8b8b8b611ff1565b50505050505050505050505050565b60608b8b8b8b8b8b8b8b8b8b8b604051602001611b099b9a99989796959493929190613f90565b60405160208183030381529060405290509b9a5050505050505050505050565b600080516020614ed883398151915281565b6000611b4561110f565b806111e9575050600654600160401b90046001600160401b0316421190565b611b7c600080516020614ed88339815191528261270a565b611b84612c71565b6001600160a01b0316816001600160a01b03167fe5f1aa9e528307345194b88b24a32401c13926e0823060f1049d9b26c0bb62b260405160405180910390a350565b611bcf336111ee565b565b60026005541415611bf45760405162461bcd60e51b8152600401610cd290614bd2565b6002600555611c02336123f6565b611c0b57600080fd5b60088054600160801b900460ff1615611c365760405162461bcd60e51b8152600401610cd290614572565b80546001600160801b031615611c5e5760405162461bcd60e51b8152600401610cd290614620565b600954600b54600654611c8e926001600160a01b03908116921690600160801b90046001600160801b0316612d6a565b805460ff60801b1916600160801b1781556040517fa5fb31e47bd1eca58bf14a3312d5e6aeafdc4ee787c8ed348c15c2b092324d9390600090a1506001600555565b6000828152602081905260408120611ce89083612e40565b90505b92915050565b60006111e9611cfe61109e565b600854611607906001600160801b0316670de0b6b3a7640000612dae565b6000828152602081905260408120611ce89083612e4c565b611d4c600080516020614ef88339815191528261270a565b611d54612c71565b6001600160a01b0316816001600160a01b03167f70b25138b6fadeb9992d18b9653564271823e34b3e3257515d12a6d4b15fcddf60405160405180910390a350565b6009546001600160a01b031681565b611dae336123f6565b611db757600080fd5b6001600160a01b038116611ddd5760405162461bcd60e51b8152600401610cd29061437c565b600b80546001600160a01b0319166001600160a01b0383161790556040517f34ae2bad9265f0212d4cf341708b8250949164bb54f9d0e4f442024f83bb2f9090611e28908390613f58565b60405180910390a150565b611e3c336123f6565b611e4557600080fd5b61101884848484612e61565b60606004805480602002602001604051908101604052809291908181526020016000905b82821015611f205760008481526020908190208301805460408051601f6002600019610100600187161502019094169390930492830185900485028101850190915281815292830182828015611f0c5780601f10611ee157610100808354040283529160200191611f0c565b820191906000526020600020905b815481529060010190602001808311611eef57829003601f168201915b505050505081526020019060010190611e75565b50505050905090565b600081565b6006546000906001600160401b03164211611f5557506007546001600160801b0316610d60565b600654600160401b90046001600160401b03164210611f875750600754600160801b90046001600160801b0316610d60565b6111e96130b3565b611fa7600080516020614f188339815191528261101e565b611faf612c71565b6001600160a01b0316816001600160a01b03167f0be6ab9784c7401fafb73f7bc47bc67cc4ef8c47a60ad3cb66d1de0353a0784c60405160405180910390a350565b6402540be40087106120155760405162461bcd60e51b8152600401610cd2906145b9565b428810156120355760405162461bcd60e51b8152600401610cd2906146df565b8787116120545760405162461bcd60e51b8152600401610cd290614a08565b600089116120745760405162461bcd60e51b8152600401610cd29061475d565b8385116120935760405162461bcd60e51b8152600401610cd290614c91565b600084116120b35760405162461bcd60e51b8152600401610cd2906144cd565b6001600160a01b0383166120d95760405162461bcd60e51b8152600401610cd290614cee565b6001600160a01b0381166120ff5760405162461bcd60e51b8152600401610cd29061437c565b896001600160a01b031663313ce5676040518163ffffffff1660e01b815260040160206040518083038186803b15801561213857600080fd5b505afa15801561214c573d6000803e3d6000fd5b505050506040513d601f19601f820116820180604052508101906121709190613e74565b60ff166012146121925760405162461bcd60e51b8152600401610cd290614b85565b6001600160a01b03861673eeeeeeeeeeeeeeeeeeeeeeeeeeeeeeeeeeeeeeee14612249576000866001600160a01b031663313ce5676040518163ffffffff1660e01b815260040160206040518083038186803b1580156121f157600080fd5b505afa158015612205573d6000803e3d6000fd5b505050506040513d601f19601f820116820180604052508101906122299190613e74565b60ff16116122495760405162461bcd60e51b8152600401610cd290614482565b61225288612e17565b6006805467ffffffffffffffff19166001600160401b039290921691909117905561227c87612e17565b600680546001600160401b0392909216600160401b0267ffffffffffffffff60401b199092169190911790556122b189612c21565b600680546001600160801b03928316600160801b0292169190911790556122d785612c21565b600780546001600160801b0319166001600160801b039290921691909117905561230084612c21565b600780546001600160801b03928316600160801b029216919091179055600980546001600160a01b03808d166001600160a01b031992831617909255600a8054898416908316179055600b805492841692909116919091179055612363836128db565b61236c826131d5565b6123778a8c8b6129a1565b5050505050505050505050565b600854600160801b900460ff1690565b6123ac600080516020614ef88339815191528261101e565b6123b4612c71565b6001600160a01b0316816001600160a01b03167f2d45ee102874989882745a26688d0b4fffee125a18df26536b12582c7fde4e1760405160405180910390a350565b6000610d228183611d1c565b60045460609082106124265760405162461bcd60e51b8152600401610cd290614ad7565b6004828154811061243357fe5b600091825260209182902001805460408051601f60026000196101006001871615020190941693909304928301859004850281018501909152818152928301828280156124c15780601f10612496576101008083540402835291602001916124c1565b820191906000526020600020905b8154815290600101906020018083116124a457829003601f168201915b50505050509050919050565b600e6020526000908152604090205481565b6124e8336123f6565b6124f157600080fd5b8260005b818110156125495761254186868381811061250c57fe5b905060200281019061251e9190614e29565b86868581811061252a57fe5b905060200281019061253c9190614e29565b612e61565b6001016124f5565b505050505050565b6000818152602081905260408120610d2290613217565b606080836001600160401b038111801561258157600080fd5b506040519080825280602002602001820160405280156125ab578160200160208202803683370190505b509150836001600160401b03811180156125c457600080fd5b506040519080825280602002602001820160405280156125f857816020015b60608152602001906001900390816125e35790505b50905060005b848110156126ef57600060603088888581811061261757fe5b90506020028101906126299190614e29565b604051612637929190613ebc565b600060405180830381855af49150503d8060008114612672576040519150601f19603f3d011682016040523d82523d6000602084013e612677565b606091505b50915091508180612686575085155b61268f82613222565b906126ad5760405162461bcd60e51b8152600401610cd29190614189565b50818584815181106126bb57fe5b602002602001019015159081151581525050808484815181106126da57fe5b602090810291909101015250506001016125fe565b50935093915050565b600080516020614f1883398151915281565b60008281526020819052604090206002015461272890610931612c71565b6111055760405162461bcd60e51b8152600401610cd2906147e8565b61274d336123f6565b61275657600080fd5b61275f816131d5565b50565b600061276c61375f565b50604080516060810182526006546001600160401b038082168352600160401b8204166020830152600160801b90046001600160801b0316918101919091526127b361377f565b50604080518082019091526007546001600160801b03808216808452600160801b90920416602083018190526000916127eb91613282565b6001600160801b03169050600061281c846000015185602001516001600160401b03166132b190919063ffffffff16565b6001600160401b0316905080828161283057fe5b0494505050505090565b611062338383610d68565b61285060008261270a565b612858612c71565b6001600160a01b0316816001600160a01b03167f21ba1239795d4e22874e3dc55f0a9d7b65bfb23069d32965d7c23be9524ccf9560405160405180910390a350565b6128a3336123f6565b6128ac57600080fd5b61106282826132e0565b6008546001600160801b0381169060ff600160801b8204811691600160881b90041683565b60015460ff16156128fe5760405162461bcd60e51b8152600401610cd2906143c4565b6001600160a01b0381166129245760405162461bcd60e51b8152600401610cd2906148cf565b61292f600082611058565b506001805460ff191681179055565b600d6020526000908152604090205481565b600c546001600160a01b031681565b600654600160801b90046001600160801b031690565b600080516020614ef883398151915281565b6000610d22600080516020614ef883398151915283611d1c565b60006060846001600160a01b03166323b872dd8530866040516024016129c993929190613f6c565b6040516020818303038152906040529060e01b6020820180516001600160e01b038381831617835250505050604051612a029190613ecc565b6000604051808303816000865af19150503d8060008114612a3f576040519150601f19603f3d011682016040523d82523d6000602084013e612a44565b606091505b5091509150818015612a6e575080511580612a6e575080806020019051810190612a6e9190613c08565b612a7757600080fd5b5050505050565b6006546001600160401b03164210801590612aab5750600654600160401b90046001600160401b03164211155b612ac75760405162461bcd60e51b8152600401610cd2906148f8565b6001600160a01b0382166000908152600d602052604081205460089190612aee9084612d47565b8254909150600160881b900460ff1615612b8d57600c54604051631cd53d5560e01b81526001600160a01b0390911690631cd53d5590612b349087908590600401614030565b60206040518083038186803b158015612b4c57600080fd5b505afa158015612b60573d6000803e3d6000fd5b505050506040513d601f19601f82011682018060405250810190612b849190613c08565b612b8d57600080fd5b6001600160a01b0384166000908152600d602052604090208190558154612bc690612bc1906001600160801b031685612d47565b612c21565b82546001600160801b0319166001600160801b03919091161782556040517f077511a636ba1f10551cc7b89c13ff66a6ac9344e8a917527817a9690b15af7a90612c139086908690614030565b60405180910390a150505050565b60006001600160801b03821115612c4a5760405162461bcd60e51b8152600401610cd2906147b1565b5090565b80820382811115611ceb5760405162461bcd60e51b8152600401610cd290614318565b3390565b6000828152602081905260409020612c8d9082613511565b1561106257612c9a612c71565b6001600160a01b0316816001600160a01b0316837f2f8788117e7eff1d82e926ec794901d17c78024a50270940304540a733656f0d60405160405180910390a45050565b6000828152602081905260409020612cf69082613526565b1561106257612d03612c71565b6001600160a01b0316816001600160a01b0316837ff6391f5c32d9c69d2a47ea670b442974b53935d1edc7fd64eb21e047a839171b60405160405180910390a45050565b81810181811015611ceb5760405162461bcd60e51b8152600401610cd290614861565b6001600160a01b03831673eeeeeeeeeeeeeeeeeeeeeeeeeeeeeeeeeeeeeeee1415612d9e57612d99828261353b565b612da9565b612da98383836135c8565b505050565b6000811580612dc957505080820282828281612dc657fe5b04145b611ceb5760405162461bcd60e51b8152600401610cd290614c5a565b6000808211612e065760405162461bcd60e51b8152600401610cd290614d84565b818381612e0f57fe5b049392505050565b60006001600160401b03821115612c4a5760405162461bcd60e51b8152600401610cd29061493b565b6000611ce883836135ee565b6000611ce8836001600160a01b038416613633565b82612e7e5760405162461bcd60e51b8152600401610cd290614898565b80612e9b5760405162461bcd60e51b8152600401610cd290614b04565b60006001600160401b031660028585604051612eb8929190613ebc565b908152604051908190036020019020546001600160401b03640100000000909104161415612f5e5760048054600181018255600091909152612f1d907f8a35acfbc15ff81a39ae7d344fd709f28e8600b4aa8c65c6b64bfe7fe36bd19b018585613796565b50600454604051600290612f349087908790613ebc565b908152604051908190036020019020805463ffffffff9290921663ffffffff199092169190911790555b604051806060016040528060028686604051612f7b929190613ebc565b90815260408051602092819003830190205463ffffffff168352426001600160401b0316838301528051601f860183900483028101830182528581529201919085908590819084018382808284376000920191909152505050915250604051600290612fea9087908790613ebc565b9081526040805191829003602090810190922083518154858501516001600160401b0316640100000000026bffffffffffffffff000000001963ffffffff90931663ffffffff199092169190911791909116178155908301518051919261305992600185019290910190613810565b505060405161306c915085908590613ebc565b60405180910390207fbaa206e5ea800eb88bce099f453fee53295b793b9d5d1cfc4ce4b6db06a34f5383836040516130a592919061419c565b60405180910390a250505050565b60006130bd61375f565b50604080516060810182526006546001600160401b038082168352600160401b8204166020830152600160801b90046001600160801b03169181019190915261310461377f565b50604080518082019091526007546001600160801b038082168352600160801b9091041660208083019190915282519083015160009161314d916001600160401b0316906132b1565b6001600160401b03166131ac61317d846020015185600001516001600160801b031661328290919063ffffffff16565b6001600160801b03166131a686600001516001600160401b031642612c4e90919063ffffffff16565b90612dae565b816131b357fe5b835191900491506131cd906001600160801b031682612c4e565b935050505090565b6001600160a01b0381161561275f57600c80546001600160a01b0383166001600160a01b03199091161790556008805460ff60881b1916600160881b17905550565b6000610d228261364b565b6060604482511015613268575060408051808201909152601d81527f5472616e73616374696f6e2072657665727465642073696c656e746c790000006020820152610d25565b60048201915081806020019051810190610d229190613d9e565b8082036001600160801b038084169082161115611ceb5760405162461bcd60e51b8152600401610cd290614318565b8082036001600160401b038084169082161115611ceb5760405162461bcd60e51b8152600401610cd290614318565b60006001600160401b0316600283836040516132fd929190613ebc565b908152604051908190036020019020546001600160401b0364010000000090910416141561333d5760405162461bcd60e51b8152600401610cd29061472e565b6000600160028484604051613353929190613ebc565b9081526040519081900360200190205460045463ffffffff9182169290920392508216600019909101146134345760048054600019810190811061339357fe5b9060005260206000200160048263ffffffff16815481106133b057fe5b9060005260206000200190805460018160011615610100020316600290046133d992919061387e565b5080600101600260048363ffffffff16815481106133f357fe5b9060005260206000200160405161340a9190613ee8565b908152604051908190036020019020805463ffffffff9290921663ffffffff199092169190911790555b600480548061343f57fe5b60019003818190600052602060002001600061345b91906138f3565b9055828260405161346d929190613ebc565b60405180910390207f4b5338540b4d1c0f6dd0308a25f633b7ff60472f894d711cff9dd64e35c613b2600285856040516134a8929190613ebc565b90815260200160405180910390206001016040516134c691906141ed565b60405180910390a2600283836040516134e0929190613ebc565b90815260405190819003602001902080546bffffffffffffffffffffffff191681556000612a7760018301826138f3565b6000611ce8836001600160a01b03841661364f565b6000611ce8836001600160a01b038416613699565b604080516000808252602082019092526001600160a01b0384169083906040516135659190613ecc565b60006040518083038185875af1925050503d80600081146135a2576040519150601f19603f3d011682016040523d82523d6000602084013e6135a7565b606091505b5050905080612da95760405162461bcd60e51b8152600401610cd290614a94565b60006060846001600160a01b031663a9059cbb85856040516024016129c9929190614030565b815460009082106136115760405162461bcd60e51b8152600401610cd2906143f1565b82600001828154811061362057fe5b9060005260206000200154905092915050565b60009081526001919091016020526040902054151590565b5490565b600061365b8383613633565b61369157508154600181810184556000848152602080822090930184905584548482528286019093526040902091909155611ceb565b506000611ceb565b6000818152600183016020526040812054801561375557835460001980830191908101906000908790839081106136cc57fe5b90600052602060002001549050808760000184815481106136e957fe5b60009182526020808320909101929092558281526001898101909252604090209084019055865487908061371957fe5b60019003818190600052602060002001600090559055866001016000878152602001908152602001600020600090556001945050505050611ceb565b6000915050611ceb565b604080516060810182526000808252602082018190529181019190915290565b604080518082019091526000808252602082015290565b828054600181600116156101000203166002900490600052602060002090601f016020900481019282601f106137d75782800160ff19823516178555613804565b82800160010185558215613804579182015b828111156138045782358255916020019190600101906137e9565b50612c4a929150613933565b828054600181600116156101000203166002900490600052602060002090601f016020900481019282601f1061385157805160ff1916838001178555613804565b82800160010185558215613804579182015b82811115613804578251825591602001919060010190613863565b828054600181600116156101000203166002900490600052602060002090601f016020900481019282601f106138b75780548555613804565b8280016001018555821561380457600052602060002091601f016020900482015b828111156138045782548255916001019190600101906138d8565b50805460018160011615610100020316600290046000825580601f10613919575061275f565b601f01602090049060005260206000209081019061275f91905b5b80821115612c4a5760008155600101613934565b60008083601f840112613959578182fd5b5081356001600160401b0381111561396f578182fd5b6020830191508360208083028501011115611a5857600080fd5b60008083601f84011261399a578182fd5b5081356001600160401b038111156139b0578182fd5b602083019150836020828501011115611a5857600080fd5b6000602082840312156139d9578081fd5b81356139e481614ea5565b9392505050565b60008060008060008060008060008060006101608c8e031215613a0c578687fd5b8b35613a1781614ea5565b9a5060208c0135613a2781614ea5565b995060408c0135985060608c0135975060808c0135965060a08c0135613a4c81614ea5565b955060c08c0135945060e08c013593506101008c0135613a6b81614ea5565b92506101208c0135613a7c81614ea5565b91506101408c0135613a8d81614ea5565b809150509295989b509295989b9093969950565b60008060408385031215613ab3578182fd5b8235613abe81614ea5565b91506020830135613ace81614eba565b809150509250929050565b60008060008060008060008060008060006101608c8e031215613a0c578081fd5b600080600060608486031215613b0e578283fd5b8335613b1981614ea5565b9250602084013591506040840135613b3081614eba565b809150509250925092565b600080600060408486031215613b4f578081fd5b83356001600160401b03811115613b64578182fd5b613b7086828701613948565b9094509250506020840135613b3081614eba565b60008060008060408587031215613b99578182fd5b84356001600160401b0380821115613baf578384fd5b613bbb88838901613948565b90965094506020870135915080821115613bd3578384fd5b50613be087828801613948565b95989497509550505050565b600060208284031215613bfd578081fd5b81356139e481614eba565b600060208284031215613c19578081fd5b81516139e481614eba565b600060208284031215613c35578081fd5b5035919050565b60008060408385031215613c4e578182fd5b823591506020830135613ace81614ea5565b60008060408385031215613c72578182fd5b50508035926020909101359150565b60008060208385031215613c93578182fd5b82356001600160401b03811115613ca8578283fd5b613cb485828601613989565b90969095509350505050565b600080600080600080600080610100898b031215613cdc578182fd5b8835613ce781614ea5565b97506020890135613cf781614ea5565b96506040890135613d0781614ea5565b9550606089013594506080890135935060a0890135613d2581614ec8565b979a969950949793969295929450505060c08201359160e0013590565b60008060008060408587031215613d57578182fd5b84356001600160401b0380821115613d6d578384fd5b613d7988838901613989565b90965094506020870135915080821115613d91578384fd5b50613be087828801613989565b600060208284031215613daf578081fd5b81516001600160401b0380821115613dc5578283fd5b818401915084601f830112613dd8578283fd5b815181811115613de6578384fd5b604051601f8201601f191681016020018381118282101715613e06578586fd5b604052818152838201602001871015613e1d578485fd5b613e2e826020830160208701614e79565b9695505050505050565b600060208284031215613e49578081fd5b5051919050565b60008060408385031215613e62578182fd5b823591506020830135613ace81614eba565b600060208284031215613e85578081fd5b81516139e481614ec8565b60008151808452613ea8816020860160208601614e79565b601f01601f19169290920160200192915050565b6000828483379101908152919050565b60008251613ede818460208701614e79565b9190910192915050565b6000808354600180821660008114613f075760018114613f1e57613f4d565b60ff198316865260028304607f1686019350613f4d565b600283048786526020808720875b83811015613f455781548a820152908501908201613f2c565b505050860193505b509195945050505050565b6001600160a01b0391909116815260200190565b6001600160a01b039384168152919092166020820152604081019190915260600190565b6001600160a01b039b8c168152998b1660208b015260408a01989098526060890196909652608088019490945291871660a087015260c086015260e0850152841661010084015283166101208301529091166101408201526101600190565b6001600160a01b0397881681529590961660208601526040850193909352606084019190915260ff16608083015260a082015260c081019190915260e00190565b6001600160a01b03929092168252602082015260400190565b6001600160a01b039490941684526001600160401b039283166020850152911660408301521515606082015260800190565b604080825283519082018190526000906020906060840190828701845b828110156140b6578151151584529284019290840190600101614098565b505050838103828501528085516140cd8184614180565b91508192508381028201848801865b838110156141065785830385526140f4838351613e90565b948701949250908601906001016140dc565b50909998505050505050505050565b6000602080830181845280855180835260408601915060408482028701019250838701855b8281101561416857603f19888603018452614156858351613e90565b9450928501929085019060010161413a565b5092979650505050505050565b901515815260200190565b90815260200190565b600060208252611ce86020830184613e90565b60006020825282602083015282846040840137818301604090810191909152601f909201601f19160101919050565b6000604082526141de6040830185613e90565b90508260208301529392505050565b6000602080830181845282855460018082166000811461421457600181146142325761426a565b60028304607f16855260ff198316604089015260608801935061426a565b600283048086526142428a614e6d565b885b828110156142605781548b820160400152908401908801614244565b8a01604001955050505b5091979650505050505050565b6020808252602d908201527f447574636841756374696f6e3a205061796d656e742063757272656e6379206960408201526c39903737ba1030903a37b5b2b760991b606082015260800190565b60208082526034908201527f447574636841756374696f6e3a20656e642074696d65206d757374206265206f6040820152736c646572207468616e2073746172742074696d6560601b606082015260800190565b602080825260159082015274426f72696e674d6174683a20556e646572666c6f7760581b604082015260600190565b6020808252818101527f447574636841756374696f6e3a204e6f20746f6b656e7320746f20636c61696d604082015260600190565b60208082526028908201527f447574636841756374696f6e3a2077616c6c657420697320746865207a65726f604082015267206164647265737360c01b606082015260800190565b602080825260139082015272105b1c9958591e481a5b9a5d1a585b1a5cd959606a1b604082015260600190565b60208082526022908201527f456e756d657261626c655365743a20696e646578206f7574206f6620626f756e604082015261647360f01b606082015260800190565b6020808252602f908201527f416363657373436f6e74726f6c3a2073656e646572206d75737420626520616e60408201526e0818591b5a5b881d1bc819dc985b9d608a1b606082015260800190565b6020808252602b908201527f447574636841756374696f6e3a205061796d656e742063757272656e6379206960408201526a073206e6f742045524332360ac1b606082015260800190565b60208082526032908201527f447574636841756374696f6e3a206d696e696d756d207072696365206d75737460408201527102062652067726561746572207468616e20360741b606082015260800190565b60208082526033908201527f447574636841756374696f6e3a2054686520636f6d6d6974746564204554482060408201527265786365656473207468652062616c616e636560681b606082015260800190565b60208082526027908201527f447574636841756374696f6e3a2061756374696f6e20616c72656164792066696040820152661b985b1a5e995960ca1b606082015260800190565b60208082526041908201527f447574636841756374696f6e3a20656e74657220616e20756e69782074696d6560408201527f7374616d7020696e207365636f6e64732c206e6f74206d696c697365636f6e646060820152607360f81b608082015260a00190565b60208082526027908201527f447574636841756374696f6e3a2061756374696f6e20616c726561647920636f6040820152661b5b5a5d1d195960ca1b606082015260800190565b60208082526052908201527f4e6f2061677265656d656e742070726f76696465642c20706c6561736520726560408201527f766965772074686520736d61727420636f6e7472616374206265666f726520696060820152711b9d195c9858dd1a5b99c81dda5d1a081a5d60721b608082015260a00190565b6020808252602f908201527f447574636841756374696f6e3a2073746172742074696d65206973206265666f60408201526e72652063757272656e742074696d6560881b606082015260800190565b602080825260159082015274111bd8dd5b595b9d081cda1bdd5b1908195e1a5cdd605a1b604082015260600190565b60208082526034908201527f447574636841756374696f6e3a20746f74616c20746f6b656e73206d7573742060408201527362652067726561746572207468616e207a65726f60601b606082015260800190565b6020808252601c908201527f426f72696e674d6174683a2075696e74313238204f766572666c6f7700000000604082015260600190565b60208082526030908201527f416363657373436f6e74726f6c3a2073656e646572206d75737420626520616e60408201526f2061646d696e20746f207265766f6b6560801b606082015260800190565b6020808252600f908201526e139bdd081a5b9a5d1a585b1a5e9959608a1b604082015260600190565b60208082526018908201527f426f72696e674d6174683a20416464204f766572666c6f770000000000000000604082015260600190565b60208082526018908201527f5a65726f206e616d65206973206e6f7420616c6c6f7765640000000000000000604082015260600190565b6020808252600f908201526e125b98dbdc9c9958dd081a5b9c1d5d608a1b604082015260600190565b60208082526023908201527f447574636841756374696f6e3a206f7574736964652061756374696f6e20686f60408201526275727360e81b606082015260800190565b6020808252601b908201527f426f72696e674d6174683a2075696e743634204f766572666c6f770000000000604082015260600190565b60208082526031908201527f447574636841756374696f6e3a207061796d656e742063757272656e6379206960408201527073206e6f7420455448206164647265737360781b606082015260800190565b60208082526025908201527f447574636841756374696f6e3a2073656e646572206d75737420626520616e2060408201526430b236b4b760d91b606082015260800190565b60208082526035908201527f447574636841756374696f6e3a20656e642074696d65206d757374206265206f6040820152746c646572207468616e20737461727420707269636560581b606082015260800190565b6020808252601b908201527f447574636841756374696f6e3a206e6f742066696e616c697a65640000000000604082015260600190565b60208082526023908201527f5472616e7366657248656c7065723a204554485f5452414e534645525f46414960408201526213115160ea1b606082015260800190565b602080825260139082015272496e646578206f7574206f6620626f756e647360681b604082015260600190565b6020808252601a908201527f53686f756c64206e6f74206265206120656d7074792064617461000000000000604082015260600190565b6020808252602a908201527f447574636841756374696f6e3a2061756374696f6e20686173206e6f742066696040820152691b9a5cda1959081e595d60b21b606082015260800190565b6020808252602d908201527f447574636841756374696f6e3a20546f6b656e20646f6573206e6f742068617660408201526c6520313820646563696d616c7360981b606082015260800190565b6020808252601f908201527f5265656e7472616e637947756172643a207265656e7472616e742063616c6c00604082015260600190565b60208082526031908201527f447574636841756374696f6e3a2061756374696f6e2063616e6e6f74206861766040820152701948185b1c9958591e481cdd185c9d1959607a1b606082015260800190565b60208082526018908201527f426f72696e674d6174683a204d756c204f766572666c6f770000000000000000604082015260600190565b6020808252603b908201527f447574636841756374696f6e3a207374617274207072696365206d757374206260408201527f6520686967686572207468616e206d696e696d756d2070726963650000000000606082015260800190565b60208082526027908201527f447574636841756374696f6e3a2061646d696e20697320746865207a65726f206040820152666164647265737360c81b606082015260800190565b6020808252602f908201527f416363657373436f6e74726f6c3a2063616e206f6e6c792072656e6f756e636560408201526e103937b632b9903337b91039b2b63360891b606082015260800190565b602080825260149082015273426f72696e674d6174683a20446976207a65726f60601b604082015260600190565b6001600160801b0393909316835290151560208301521515604082015260600190565b6001600160801b0392831681529116602082015260400190565b918252602082015260400190565b6001600160401b0393841681529190921660208201526001600160801b03909116604082015260600190565b6000808335601e19843603018112614e3f578283fd5b8301803591506001600160401b03821115614e58578283fd5b602001915036819003821315611a5857600080fd5b60009081526020902090565b60005b83811015614e94578181015183820152602001614e7c565b838111156110185750506000910152565b6001600160a01b038116811461275f57600080fd5b801515811461275f57600080fd5b60ff8116811461275f57600080fdfe9d49f397ae9ef1a834b569acb967799a367061e305932181a44f5773da873bfd97667070c54ef182b0f5858b034beac1b6f3089aa2d3188bb1e8929f4fa9b9299f2df0fed2c77648de5860a4cc508cd0818c85b8b8a1ab4ceeef8d981c8956a64920756e6465727374616e6420746861742049276d20696e746572616374696e672077697468206120736d61727420636f6e74726163742e204920756e6465727374616e64207468617420746f6b656e7320636f6d6d697474656420617265207375626a65637420746f2074686520746f6b656e2069737375657220616e64206c6f63616c206c617773207768657265206170706c696361626c652e204920726576696577656420636f6465206f662074686520736d61727420636f6e747261637420616e6420756e6465727374616e642069742066756c6c792e204920616772656520746f206e6f7420686f6c6420646576656c6f70657273206f72206f746865722070656f706c65206173736f6369617465642077697468207468652070726f6a656374206c6961626c6520666f7220616e79206c6f73736573206f72206d6973756e6465727374616e64696e6773a2646970667358221220c2de964f8ecb2bc55bdd1dfdae5374b3384504b8f9585adc5f906be5f9650edf64736f6c634300060c0033a2646970667358221220d0cc3768f6b9c83b81401672ce82ada81da9213d9de3400c0183d45d0c03391964736f6c634300060c0033","bytecodeSha1":"17c9b0b572400e3d461ad3ce8a2aa4cf7b0c53cd","type":"contract","abi":[{"inputs":[],"name":"deployAuction","outputs":[{"internalType":"address","name":"","type":"address"}],"stateMutability":"nonpayable","type":"function"}],"compiler":{"version":"0.6.12+commit.27d51765","evm_version":"istanbul","optimizer":{"enabled":true,"runs":200}},"contractName":"DutchAuctionFactory","language":"Solidity","natspec":{"methods":{},"kind":"dev","version":1},"opcodes":"PUSH1 0x80 PUSH1 0x40 MSTORE CALLVALUE DUP1 ISZERO PUSH2 0x10 JUMPI PUSH1 0x0 DUP1 REVERT JUMPDEST POP PUSH1 0x4 CALLDATASIZE LT PUSH2 0x2B JUMPI PUSH1 0x0 CALLDATALOAD PUSH1 0xE0 SHR DUP1 PUSH4 0x773C9546 EQ PUSH2 0x30 JUMPI JUMPDEST PUSH1 0x0 DUP1 REVERT JUMPDEST PUSH2 0x38 PUSH2 0x54 JUMP JUMPDEST PUSH1 0x40 DUP1 MLOAD PUSH1 0x1 PUSH1 0x1 PUSH1 0xA0 SHL SUB SWAP1 SWAP3 AND DUP3 MSTORE MLOAD SWAP1 DUP2 SWAP1 SUB PUSH1 0x20 ADD SWAP1 RETURN JUMPDEST PUSH1 0x0 PUSH1 0x40 MLOAD PUSH2 0x62 SWAP1 PUSH2 0x84 JUMP JUMPDEST PUSH1 0x40 MLOAD DUP1 SWAP2 SUB SWAP1 PUSH1 0x0 CREATE DUP1 ISZERO DUP1 ISZERO PUSH2 0x7E JUMPI RETURNDATASIZE PUSH1 0x0 DUP1 RETURNDATACOPY RETURNDATASIZE PUSH1 0x0 REVERT JUMPDEST POP SWAP1 POP SWAP1 JUMP JUMPDEST PUSH2 0x50E3 DUP1 PUSH2 0x92 DUP4 CODECOPY ADD SWAP1 JUMP INVALID PUSH1 0x80 PUSH1 0x40 MSTORE CALLVALUE DUP1 ISZERO PUSH2 0x10 JUMPI PUSH1 0x0 DUP1 REVERT JUMPDEST POP PUSH1 0x1 PUSH1 0x5 SSTORE PUSH2 0x50BE DUP1 PUSH2 0x25 PUSH1 0x0 CODECOPY PUSH1 0x0 RETURN INVALID PUSH1 0x80 PUSH1 0x40 MSTORE PUSH1 0x4 CALLDATASIZE LT PUSH2 0x435 JUMPI PUSH1 0x0 CALLDATALOAD PUSH1 0xE0 SHR DUP1 PUSH4 0x8A845FC0 GT PUSH2 0x229 JUMPI DUP1 PUSH4 0xC6B547E6 GT PUSH2 0x12E JUMPI DUP1 PUSH4 0xDC97E082 GT PUSH2 0xB6 JUMPI DUP1 PUSH4 0xE8FCF723 GT PUSH2 0x7A JUMPI DUP1 PUSH4 0xE8FCF723 EQ PUSH2 0xC3B JUMPI DUP1 PUSH4 0xF04899D3 EQ PUSH2 0xC5B JUMPI DUP1 PUSH4 0xF08B82E6 EQ PUSH2 0xC70 JUMPI DUP1 PUSH4 0xF5B541A6 EQ PUSH2 0xC85 JUMPI DUP1 PUSH4 0xFC4E3E0A EQ PUSH2 0xC9A JUMPI PUSH2 0x444 JUMP JUMPDEST DUP1 PUSH4 0xDC97E082 EQ PUSH2 0xB97 JUMPI DUP1 PUSH4 0xDCCFE310 EQ PUSH2 0xBB7 JUMPI DUP1 PUSH4 0xDDE51F6D EQ PUSH2 0xBD7 JUMPI DUP1 PUSH4 0xE0E081D7 EQ PUSH2 0xBF7 JUMPI DUP1 PUSH4 0xE6594ABD EQ PUSH2 0xC1B JUMPI PUSH2 0x444 JUMP JUMPDEST DUP1 PUSH4 0xD2423B51 GT PUSH2 0xFD JUMPI DUP1 PUSH4 0xD2423B51 EQ PUSH2 0xB0C JUMPI DUP1 PUSH4 0xD5391393 EQ PUSH2 0xB2D JUMPI DUP1 PUSH4 0xD547741F EQ PUSH2 0xB42 JUMPI DUP1 PUSH4 0xD69D3E62 EQ PUSH2 0xB62 JUMPI DUP1 PUSH4 0xD7568B6E EQ PUSH2 0xB82 JUMPI PUSH2 0x444 JUMP JUMPDEST DUP1 PUSH4 0xC6B547E6 EQ PUSH2 0xA8C JUMPI DUP1 PUSH4 0xC884EF83 EQ PUSH2 0xAAC JUMPI DUP1 PUSH4 0xC92BCE87 EQ PUSH2 0xACC JUMPI DUP1 PUSH4 0xCA15C873 EQ PUSH2 0xAEC JUMPI PUSH2 0x444 JUMP JUMPDEST DUP1 PUSH4 0x9C64D0AE GT PUSH2 0x1B1 JUMPI DUP1 PUSH4 0xADBF3776 GT PUSH2 0x180 JUMPI DUP1 PUSH4 0xADBF3776 EQ PUSH2 0x9F7 JUMPI DUP1 PUSH4 0xB1F16218 EQ PUSH2 0xA17 JUMPI DUP1 PUSH4 0xB3F05B97 EQ PUSH2 0xA37 JUMPI DUP1 PUSH4 0xB7928B1D EQ PUSH2 0xA4C JUMPI DUP1 PUSH4 0xC395FCB3 EQ PUSH2 0xA6C JUMPI PUSH2 0x444 JUMP JUMPDEST DUP1 PUSH4 0x9C64D0AE EQ PUSH2 0x98B JUMPI DUP1 PUSH4 0x9FA5F50B EQ PUSH2 0x9AB JUMPI DUP1 PUSH4 0xA217FDDF EQ PUSH2 0x9CD JUMPI DUP1 PUSH4 0xA9D87EE6 EQ PUSH2 0x9E2 JUMPI PUSH2 0x444 JUMP JUMPDEST DUP1 PUSH4 0x919E93B5 GT PUSH2 0x1F8 JUMPI DUP1 PUSH4 0x919E93B5 EQ PUSH2 0x901 JUMPI DUP1 PUSH4 0x91D14854 EQ PUSH2 0x916 JUMPI DUP1 PUSH4 0x9478941C EQ PUSH2 0x936 JUMPI DUP1 PUSH4 0x99FDB320 EQ PUSH2 0x956 JUMPI DUP1 PUSH4 0x9A87222C EQ PUSH2 0x96B JUMPI PUSH2 0x444 JUMP JUMPDEST DUP1 PUSH4 0x8A845FC0 EQ PUSH2 0x897 JUMPI DUP1 PUSH4 0x8D8F2ADB EQ PUSH2 0x8B7 JUMPI DUP1 PUSH4 0x8FA8B790 EQ PUSH2 0x8CC JUMPI DUP1 PUSH4 0x9010D07C EQ PUSH2 0x8E1 JUMPI PUSH2 0x444 JUMP JUMPDEST DUP1 PUSH4 0x47535D7B GT PUSH2 0x33A JUMPI DUP1 PUSH4 0x6AE260C1 GT PUSH2 0x2C2 JUMPI DUP1 PUSH4 0x7FF9B596 GT PUSH2 0x286 JUMPI DUP1 PUSH4 0x7FF9B596 EQ PUSH2 0x818 JUMPI DUP1 PUSH4 0x81353C8E EQ PUSH2 0x82D JUMPI DUP1 PUSH4 0x84720F16 EQ PUSH2 0x84D JUMPI DUP1 PUSH4 0x857D2608 EQ PUSH2 0x86D JUMPI DUP1 PUSH4 0x86433374 EQ PUSH2 0x882 JUMPI PUSH2 0x444 JUMP JUMPDEST DUP1 PUSH4 0x6AE260C1 EQ PUSH2 0x768 JUMPI DUP1 PUSH4 0x73973FCB EQ PUSH2 0x788 JUMPI DUP1 PUSH4 0x74CF9FC5 EQ PUSH2 0x7A8 JUMPI DUP1 PUSH4 0x7C516E94 EQ PUSH2 0x7CA JUMPI DUP1 PUSH4 0x7CCB6A64 EQ PUSH2 0x7EA JUMPI PUSH2 0x444 JUMP JUMPDEST DUP1 PUSH4 0x4DC80E15 GT PUSH2 0x309 JUMPI DUP1 PUSH4 0x4DC80E15 EQ PUSH2 0x6E0 JUMPI DUP1 PUSH4 0x4DDF47D4 EQ PUSH2 0x700 JUMPI DUP1 PUSH4 0x521EB273 EQ PUSH2 0x713 JUMPI DUP1 PUSH4 0x54F1E126 EQ PUSH2 0x728 JUMPI DUP1 PUSH4 0x6595171C EQ PUSH2 0x748 JUMPI PUSH2 0x444 JUMP JUMPDEST DUP1 PUSH4 0x47535D7B EQ PUSH2 0x676 JUMPI DUP1 PUSH4 0x49DF728C EQ PUSH2 0x68B JUMPI DUP1 PUSH4 0x4B3E6ABB EQ PUSH2 0x6AB JUMPI DUP1 PUSH4 0x4BB278F3 EQ PUSH2 0x6CB JUMPI PUSH2 0x444 JUMP JUMPDEST DUP1 PUSH4 0x2F2FF15D GT PUSH2 0x3BD JUMPI DUP1 PUSH4 0x36D0054B GT PUSH2 0x38C JUMPI DUP1 PUSH4 0x36D0054B EQ PUSH2 0x5E7 JUMPI DUP1 PUSH4 0x3D15CC6D EQ PUSH2 0x5FC JUMPI DUP1 PUSH4 0x3D1C2273 EQ PUSH2 0x61E JUMPI DUP1 PUSH4 0x3F16431A EQ PUSH2 0x633 JUMPI DUP1 PUSH4 0x45A15388 EQ PUSH2 0x653 JUMPI PUSH2 0x444 JUMP JUMPDEST DUP1 PUSH4 0x2F2FF15D EQ PUSH2 0x56D JUMPI DUP1 PUSH4 0x314148E2 EQ PUSH2 0x58D JUMPI DUP1 PUSH4 0x32A0F2D7 EQ PUSH2 0x5B2 JUMPI DUP1 PUSH4 0x36568ABE EQ PUSH2 0x5C7 JUMPI PUSH2 0x444 JUMP JUMPDEST DUP1 PUSH4 0x1B3E460E GT PUSH2 0x404 JUMPI DUP1 PUSH4 0x1B3E460E EQ PUSH2 0x4D8 JUMPI DUP1 PUSH4 0x212F8A81 EQ PUSH2 0x4FA JUMPI DUP1 PUSH4 0x248A9CA3 EQ PUSH2 0x51A JUMPI DUP1 PUSH4 0x24E4025B EQ PUSH2 0x53A JUMPI DUP1 PUSH4 0x29762960 EQ PUSH2 0x55A JUMPI PUSH2 0x444 JUMP JUMPDEST DUP1 PUSH4 0x31BEE00 EQ PUSH2 0x449 JUMPI DUP1 PUSH4 0x99DB017 EQ PUSH2 0x476 JUMPI DUP1 PUSH4 0x113B0AB2 EQ PUSH2 0x4A3 JUMPI DUP1 PUSH4 0x17026455 EQ PUSH2 0x4C3 JUMPI PUSH2 0x444 JUMP JUMPDEST CALLDATASIZE PUSH2 0x444 JUMPI PUSH2 0x442 PUSH2 0xCBA JUMP JUMPDEST STOP JUMPDEST PUSH1 0x0 DUP1 REVERT JUMPDEST CALLVALUE DUP1 ISZERO PUSH2 0x455 JUMPI PUSH1 0x0 DUP1 REVERT JUMPDEST POP PUSH2 0x45E PUSH2 0xCDB JUMP JUMPDEST PUSH1 0x40 MLOAD PUSH2 0x46D SWAP4 SWAP3 SWAP2 SWAP1 PUSH2 0x4DFD JUMP JUMPDEST PUSH1 0x40 MLOAD DUP1 SWAP2 SUB SWAP1 RETURN JUMPDEST CALLVALUE DUP1 ISZERO PUSH2 0x482 JUMPI PUSH1 0x0 DUP1 REVERT JUMPDEST POP PUSH2 0x496 PUSH2 0x491 CALLDATASIZE PUSH1 0x4 PUSH2 0x39C8 JUMP JUMPDEST PUSH2 0xD08 JUMP JUMPDEST PUSH1 0x40 MLOAD PUSH2 0x46D SWAP2 SWAP1 PUSH2 0x4175 JUMP JUMPDEST CALLVALUE DUP1 ISZERO PUSH2 0x4AF JUMPI PUSH1 0x0 DUP1 REVERT JUMPDEST POP PUSH2 0x496 PUSH2 0x4BE CALLDATASIZE PUSH1 0x4 PUSH2 0x39C8 JUMP JUMPDEST PUSH2 0xD2A JUMP JUMPDEST CALLVALUE DUP1 ISZERO PUSH2 0x4CF JUMPI PUSH1 0x0 DUP1 REVERT JUMPDEST POP PUSH2 0x496 PUSH2 0xD44 JUMP JUMPDEST CALLVALUE DUP1 ISZERO PUSH2 0x4E4 JUMPI PUSH1 0x0 DUP1 REVERT JUMPDEST POP PUSH2 0x4ED PUSH2 0xD63 JUMP JUMPDEST PUSH1 0x40 MLOAD PUSH2 0x46D SWAP2 SWAP1 PUSH2 0x4180 JUMP JUMPDEST CALLVALUE DUP1 ISZERO PUSH2 0x506 JUMPI PUSH1 0x0 DUP1 REVERT JUMPDEST POP PUSH2 0x442 PUSH2 0x515 CALLDATASIZE PUSH1 0x4 PUSH2 0x3AFA JUMP JUMPDEST PUSH2 0xD68 JUMP JUMPDEST CALLVALUE DUP1 ISZERO PUSH2 0x526 JUMPI PUSH1 0x0 DUP1 REVERT JUMPDEST POP PUSH2 0x4ED PUSH2 0x535 CALLDATASIZE PUSH1 0x4 PUSH2 0x3C24 JUMP JUMPDEST PUSH2 0xE1B JUMP JUMPDEST CALLVALUE DUP1 ISZERO PUSH2 0x546 JUMPI PUSH1 0x0 DUP1 REVERT JUMPDEST POP PUSH2 0x442 PUSH2 0x555 CALLDATASIZE PUSH1 0x4 PUSH2 0x3C60 JUMP JUMPDEST PUSH2 0xE30 JUMP JUMPDEST PUSH2 0x442 PUSH2 0x568 CALLDATASIZE PUSH1 0x4 PUSH2 0x3AA1 JUMP JUMPDEST PUSH2 0xF37 JUMP JUMPDEST CALLVALUE DUP1 ISZERO PUSH2 0x579 JUMPI PUSH1 0x0 DUP1 REVERT JUMPDEST POP PUSH2 0x442 PUSH2 0x588 CALLDATASIZE PUSH1 0x4 PUSH2 0x3C3C JUMP JUMPDEST PUSH2 0x101E JUMP JUMPDEST CALLVALUE DUP1 ISZERO PUSH2 0x599 JUMPI PUSH1 0x0 DUP1 REVERT JUMPDEST POP PUSH2 0x5A2 PUSH2 0x1066 JUMP JUMPDEST PUSH1 0x40 MLOAD PUSH2 0x46D SWAP5 SWAP4 SWAP3 SWAP2 SWAP1 PUSH2 0x4049 JUMP JUMPDEST CALLVALUE DUP1 ISZERO PUSH2 0x5BE JUMPI PUSH1 0x0 DUP1 REVERT JUMPDEST POP PUSH2 0x4ED PUSH2 0x109E JUMP JUMPDEST CALLVALUE DUP1 ISZERO PUSH2 0x5D3 JUMPI PUSH1 0x0 DUP1 REVERT JUMPDEST POP PUSH2 0x442 PUSH2 0x5E2 CALLDATASIZE PUSH1 0x4 PUSH2 0x3C3C JUMP JUMPDEST PUSH2 0x10CD JUMP JUMPDEST CALLVALUE DUP1 ISZERO PUSH2 0x5F3 JUMPI PUSH1 0x0 DUP1 REVERT JUMPDEST POP PUSH2 0x496 PUSH2 0x110F JUMP JUMPDEST CALLVALUE DUP1 ISZERO PUSH2 0x608 JUMPI PUSH1 0x0 DUP1 REVERT JUMPDEST POP PUSH2 0x611 PUSH2 0x1128 JUMP JUMPDEST PUSH1 0x40 MLOAD PUSH2 0x46D SWAP2 SWAP1 PUSH2 0x3F58 JUMP JUMPDEST CALLVALUE DUP1 ISZERO PUSH2 0x62A JUMPI PUSH1 0x0 DUP1 REVERT JUMPDEST POP PUSH2 0x4ED PUSH2 0x1137 JUMP JUMPDEST CALLVALUE DUP1 ISZERO PUSH2 0x63F JUMPI PUSH1 0x0 DUP1 REVERT JUMPDEST POP PUSH2 0x442 PUSH2 0x64E CALLDATASIZE PUSH1 0x4 PUSH2 0x39C8 JUMP JUMPDEST PUSH2 0x113D JUMP JUMPDEST CALLVALUE DUP1 ISZERO PUSH2 0x65F JUMPI PUSH1 0x0 DUP1 REVERT JUMPDEST POP PUSH2 0x668 PUSH2 0x119F JUMP JUMPDEST PUSH1 0x40 MLOAD PUSH2 0x46D SWAP3 SWAP2 SWAP1 PUSH2 0x4DD5 JUMP JUMPDEST CALLVALUE DUP1 ISZERO PUSH2 0x682 JUMPI PUSH1 0x0 DUP1 REVERT JUMPDEST POP PUSH2 0x496 PUSH2 0x11B9 JUMP JUMPDEST CALLVALUE DUP1 ISZERO PUSH2 0x697 JUMPI PUSH1 0x0 DUP1 REVERT JUMPDEST POP PUSH2 0x442 PUSH2 0x6A6 CALLDATASIZE PUSH1 0x4 PUSH2 0x39C8 JUMP JUMPDEST PUSH2 0x11EE JUMP JUMPDEST CALLVALUE DUP1 ISZERO PUSH2 0x6B7 JUMPI PUSH1 0x0 DUP1 REVERT JUMPDEST POP PUSH2 0x442 PUSH2 0x6C6 CALLDATASIZE PUSH1 0x4 PUSH2 0x3BEC JUMP JUMPDEST PUSH2 0x1338 JUMP JUMPDEST CALLVALUE DUP1 ISZERO PUSH2 0x6D7 JUMPI PUSH1 0x0 DUP1 REVERT JUMPDEST POP PUSH2 0x442 PUSH2 0x1368 JUMP JUMPDEST CALLVALUE DUP1 ISZERO PUSH2 0x6EC JUMPI PUSH1 0x0 DUP1 REVERT JUMPDEST POP PUSH2 0x4ED PUSH2 0x6FB CALLDATASIZE PUSH1 0x4 PUSH2 0x39C8 JUMP JUMPDEST PUSH2 0x151E JUMP JUMPDEST PUSH2 0x442 PUSH2 0x70E CALLDATASIZE PUSH1 0x4 PUSH2 0x3C81 JUMP JUMPDEST PUSH2 0x1062 JUMP JUMPDEST CALLVALUE DUP1 ISZERO PUSH2 0x71F JUMPI PUSH1 0x0 DUP1 REVERT JUMPDEST POP PUSH2 0x611 PUSH2 0x1648 JUMP JUMPDEST CALLVALUE DUP1 ISZERO PUSH2 0x734 JUMPI PUSH1 0x0 DUP1 REVERT JUMPDEST POP PUSH2 0x442 PUSH2 0x743 CALLDATASIZE PUSH1 0x4 PUSH2 0x39C8 JUMP JUMPDEST PUSH2 0x1657 JUMP JUMPDEST CALLVALUE DUP1 ISZERO PUSH2 0x754 JUMPI PUSH1 0x0 DUP1 REVERT JUMPDEST POP PUSH2 0x442 PUSH2 0x763 CALLDATASIZE PUSH1 0x4 PUSH2 0x39C8 JUMP JUMPDEST PUSH2 0x16B9 JUMP JUMPDEST CALLVALUE DUP1 ISZERO PUSH2 0x774 JUMPI PUSH1 0x0 DUP1 REVERT JUMPDEST POP PUSH2 0x442 PUSH2 0x783 CALLDATASIZE PUSH1 0x4 PUSH2 0x3C60 JUMP JUMPDEST PUSH2 0x170E JUMP JUMPDEST CALLVALUE DUP1 ISZERO PUSH2 0x794 JUMPI PUSH1 0x0 DUP1 REVERT JUMPDEST POP PUSH2 0x4ED PUSH2 0x7A3 CALLDATASIZE PUSH1 0x4 PUSH2 0x3C24 JUMP JUMPDEST PUSH2 0x1861 JUMP JUMPDEST CALLVALUE DUP1 ISZERO PUSH2 0x7B4 JUMPI PUSH1 0x0 DUP1 REVERT JUMPDEST POP PUSH2 0x7BD PUSH2 0x18DB JUMP JUMPDEST PUSH1 0x40 MLOAD PUSH2 0x46D SWAP2 SWAP1 PUSH2 0x4189 JUMP JUMPDEST CALLVALUE DUP1 ISZERO PUSH2 0x7D6 JUMPI PUSH1 0x0 DUP1 REVERT JUMPDEST POP PUSH2 0x442 PUSH2 0x7E5 CALLDATASIZE PUSH1 0x4 PUSH2 0x3CC0 JUMP JUMPDEST PUSH2 0x18FE JUMP JUMPDEST CALLVALUE DUP1 ISZERO PUSH2 0x7F6 JUMPI PUSH1 0x0 DUP1 REVERT JUMPDEST POP PUSH2 0x80A PUSH2 0x805 CALLDATASIZE PUSH1 0x4 PUSH2 0x3C81 JUMP JUMPDEST PUSH2 0x1972 JUMP JUMPDEST PUSH1 0x40 MLOAD PUSH2 0x46D SWAP3 SWAP2 SWAP1 PUSH2 0x41CB JUMP JUMPDEST CALLVALUE DUP1 ISZERO PUSH2 0x824 JUMPI PUSH1 0x0 DUP1 REVERT JUMPDEST POP PUSH2 0x4ED PUSH2 0x1A5F JUMP JUMPDEST CALLVALUE DUP1 ISZERO PUSH2 0x839 JUMPI PUSH1 0x0 DUP1 REVERT JUMPDEST POP PUSH2 0x442 PUSH2 0x848 CALLDATASIZE PUSH1 0x4 PUSH2 0x3C81 JUMP JUMPDEST PUSH2 0x1A92 JUMP JUMPDEST CALLVALUE DUP1 ISZERO PUSH2 0x859 JUMPI PUSH1 0x0 DUP1 REVERT JUMPDEST POP PUSH2 0x7BD PUSH2 0x868 CALLDATASIZE PUSH1 0x4 PUSH2 0x3AD9 JUMP JUMPDEST PUSH2 0x1AE2 JUMP JUMPDEST CALLVALUE DUP1 ISZERO PUSH2 0x879 JUMPI PUSH1 0x0 DUP1 REVERT JUMPDEST POP PUSH2 0x4ED PUSH2 0x1B29 JUMP JUMPDEST CALLVALUE DUP1 ISZERO PUSH2 0x88E JUMPI PUSH1 0x0 DUP1 REVERT JUMPDEST POP PUSH2 0x496 PUSH2 0x1B3B JUMP JUMPDEST CALLVALUE DUP1 ISZERO PUSH2 0x8A3 JUMPI PUSH1 0x0 DUP1 REVERT JUMPDEST POP PUSH2 0x442 PUSH2 0x8B2 CALLDATASIZE PUSH1 0x4 PUSH2 0x39C8 JUMP JUMPDEST PUSH2 0x1B64 JUMP JUMPDEST CALLVALUE DUP1 ISZERO PUSH2 0x8C3 JUMPI PUSH1 0x0 DUP1 REVERT JUMPDEST POP PUSH2 0x442 PUSH2 0x1BC6 JUMP JUMPDEST CALLVALUE DUP1 ISZERO PUSH2 0x8D8 JUMPI PUSH1 0x0 DUP1 REVERT JUMPDEST POP PUSH2 0x442 PUSH2 0x1BD1 JUMP JUMPDEST CALLVALUE DUP1 ISZERO PUSH2 0x8ED JUMPI PUSH1 0x0 DUP1 REVERT JUMPDEST POP PUSH2 0x611 PUSH2 0x8FC CALLDATASIZE PUSH1 0x4 PUSH2 0x3C60 JUMP JUMPDEST PUSH2 0x1CD0 JUMP JUMPDEST CALLVALUE DUP1 ISZERO PUSH2 0x90D JUMPI PUSH1 0x0 DUP1 REVERT JUMPDEST POP PUSH2 0x4ED PUSH2 0x1CF1 JUMP JUMPDEST CALLVALUE DUP1 ISZERO PUSH2 0x922 JUMPI PUSH1 0x0 DUP1 REVERT JUMPDEST POP PUSH2 0x496 PUSH2 0x931 CALLDATASIZE PUSH1 0x4 PUSH2 0x3C3C JUMP JUMPDEST PUSH2 0x1D1C JUMP JUMPDEST CALLVALUE DUP1 ISZERO PUSH2 0x942 JUMPI PUSH1 0x0 DUP1 REVERT JUMPDEST POP PUSH2 0x442 PUSH2 0x951 CALLDATASIZE PUSH1 0x4 PUSH2 0x39C8 JUMP JUMPDEST PUSH2 0x1D34 JUMP JUMPDEST CALLVALUE DUP1 ISZERO PUSH2 0x962 JUMPI PUSH1 0x0 DUP1 REVERT JUMPDEST POP PUSH2 0x611 PUSH2 0x1D96 JUMP JUMPDEST CALLVALUE DUP1 ISZERO PUSH2 0x977 JUMPI PUSH1 0x0 DUP1 REVERT JUMPDEST POP PUSH2 0x442 PUSH2 0x986 CALLDATASIZE PUSH1 0x4 PUSH2 0x39C8 JUMP JUMPDEST PUSH2 0x1DA5 JUMP JUMPDEST CALLVALUE DUP1 ISZERO PUSH2 0x997 JUMPI PUSH1 0x0 DUP1 REVERT JUMPDEST POP PUSH2 0x442 PUSH2 0x9A6 CALLDATASIZE PUSH1 0x4 PUSH2 0x3D42 JUMP JUMPDEST PUSH2 0x1E33 JUMP JUMPDEST CALLVALUE DUP1 ISZERO PUSH2 0x9B7 JUMPI PUSH1 0x0 DUP1 REVERT JUMPDEST POP PUSH2 0x9C0 PUSH2 0x1E51 JUMP JUMPDEST PUSH1 0x40 MLOAD PUSH2 0x46D SWAP2 SWAP1 PUSH2 0x4115 JUMP JUMPDEST CALLVALUE DUP1 ISZERO PUSH2 0x9D9 JUMPI PUSH1 0x0 DUP1 REVERT JUMPDEST POP PUSH2 0x4ED PUSH2 0x1F29 JUMP JUMPDEST CALLVALUE DUP1 ISZERO PUSH2 0x9EE JUMPI PUSH1 0x0 DUP1 REVERT JUMPDEST POP PUSH2 0x4ED PUSH2 0x1F2E JUMP JUMPDEST CALLVALUE DUP1 ISZERO PUSH2 0xA03 JUMPI PUSH1 0x0 DUP1 REVERT JUMPDEST POP PUSH2 0x442 PUSH2 0xA12 CALLDATASIZE PUSH1 0x4 PUSH2 0x39C8 JUMP JUMPDEST PUSH2 0x1F8F JUMP JUMPDEST CALLVALUE DUP1 ISZERO PUSH2 0xA23 JUMPI PUSH1 0x0 DUP1 REVERT JUMPDEST POP PUSH2 0x442 PUSH2 0xA32 CALLDATASIZE PUSH1 0x4 PUSH2 0x3AD9 JUMP JUMPDEST PUSH2 0x1FF1 JUMP JUMPDEST CALLVALUE DUP1 ISZERO PUSH2 0xA43 JUMPI PUSH1 0x0 DUP1 REVERT JUMPDEST POP PUSH2 0x496 PUSH2 0x2384 JUMP JUMPDEST CALLVALUE DUP1 ISZERO PUSH2 0xA58 JUMPI PUSH1 0x0 DUP1 REVERT JUMPDEST POP PUSH2 0x442 PUSH2 0xA67 CALLDATASIZE PUSH1 0x4 PUSH2 0x39C8 JUMP JUMPDEST PUSH2 0x2394 JUMP JUMPDEST CALLVALUE DUP1 ISZERO PUSH2 0xA78 JUMPI PUSH1 0x0 DUP1 REVERT JUMPDEST POP PUSH2 0x496 PUSH2 0xA87 CALLDATASIZE PUSH1 0x4 PUSH2 0x39C8 JUMP JUMPDEST PUSH2 0x23F6 JUMP JUMPDEST CALLVALUE DUP1 ISZERO PUSH2 0xA98 JUMPI PUSH1 0x0 DUP1 REVERT JUMPDEST POP PUSH2 0x7BD PUSH2 0xAA7 CALLDATASIZE PUSH1 0x4 PUSH2 0x3C24 JUMP JUMPDEST PUSH2 0x2402 JUMP JUMPDEST CALLVALUE DUP1 ISZERO PUSH2 0xAB8 JUMPI PUSH1 0x0 DUP1 REVERT JUMPDEST POP PUSH2 0x4ED PUSH2 0xAC7 CALLDATASIZE PUSH1 0x4 PUSH2 0x39C8 JUMP JUMPDEST PUSH2 0x24CD JUMP JUMPDEST CALLVALUE DUP1 ISZERO PUSH2 0xAD8 JUMPI PUSH1 0x0 DUP1 REVERT JUMPDEST POP PUSH2 0x442 PUSH2 0xAE7 CALLDATASIZE PUSH1 0x4 PUSH2 0x3B84 JUMP JUMPDEST PUSH2 0x24DF JUMP JUMPDEST CALLVALUE DUP1 ISZERO PUSH2 0xAF8 JUMPI PUSH1 0x0 DUP1 REVERT JUMPDEST POP PUSH2 0x4ED PUSH2 0xB07 CALLDATASIZE PUSH1 0x4 PUSH2 0x3C24 JUMP JUMPDEST PUSH2 0x2551 JUMP JUMPDEST PUSH2 0xB1F PUSH2 0xB1A CALLDATASIZE PUSH1 0x4 PUSH2 0x3B3B JUMP JUMPDEST PUSH2 0x2568 JUMP JUMPDEST PUSH1 0x40 MLOAD PUSH2 0x46D SWAP3 SWAP2 SWAP1 PUSH2 0x407B JUMP JUMPDEST CALLVALUE DUP1 ISZERO PUSH2 0xB39 JUMPI PUSH1 0x0 DUP1 REVERT JUMPDEST POP PUSH2 0x4ED PUSH2 0x26F8 JUMP JUMPDEST CALLVALUE DUP1 ISZERO PUSH2 0xB4E JUMPI PUSH1 0x0 DUP1 REVERT JUMPDEST POP PUSH2 0x442 PUSH2 0xB5D CALLDATASIZE PUSH1 0x4 PUSH2 0x3C3C JUMP JUMPDEST PUSH2 0x270A JUMP JUMPDEST CALLVALUE DUP1 ISZERO PUSH2 0xB6E JUMPI PUSH1 0x0 DUP1 REVERT JUMPDEST POP PUSH2 0x442 PUSH2 0xB7D CALLDATASIZE PUSH1 0x4 PUSH2 0x39C8 JUMP JUMPDEST PUSH2 0x2744 JUMP JUMPDEST CALLVALUE DUP1 ISZERO PUSH2 0xB8E JUMPI PUSH1 0x0 DUP1 REVERT JUMPDEST POP PUSH2 0x4ED PUSH2 0x2762 JUMP JUMPDEST CALLVALUE DUP1 ISZERO PUSH2 0xBA3 JUMPI PUSH1 0x0 DUP1 REVERT JUMPDEST POP PUSH2 0x442 PUSH2 0xBB2 CALLDATASIZE PUSH1 0x4 PUSH2 0x3E50 JUMP JUMPDEST PUSH2 0x283A JUMP JUMPDEST CALLVALUE DUP1 ISZERO PUSH2 0xBC3 JUMPI PUSH1 0x0 DUP1 REVERT JUMPDEST POP PUSH2 0x442 PUSH2 0xBD2 CALLDATASIZE PUSH1 0x4 PUSH2 0x39C8 JUMP JUMPDEST PUSH2 0x2845 JUMP JUMPDEST CALLVALUE DUP1 ISZERO PUSH2 0xBE3 JUMPI PUSH1 0x0 DUP1 REVERT JUMPDEST POP PUSH2 0x442 PUSH2 0xBF2 CALLDATASIZE PUSH1 0x4 PUSH2 0x3C81 JUMP JUMPDEST PUSH2 0x289A JUMP JUMPDEST CALLVALUE DUP1 ISZERO PUSH2 0xC03 JUMPI PUSH1 0x0 DUP1 REVERT JUMPDEST POP PUSH2 0xC0C PUSH2 0x28B6 JUMP JUMPDEST PUSH1 0x40 MLOAD PUSH2 0x46D SWAP4 SWAP3 SWAP2 SWAP1 PUSH2 0x4DB2 JUMP JUMPDEST CALLVALUE DUP1 ISZERO PUSH2 0xC27 JUMPI PUSH1 0x0 DUP1 REVERT JUMPDEST POP PUSH2 0x442 PUSH2 0xC36 CALLDATASIZE PUSH1 0x4 PUSH2 0x39C8 JUMP JUMPDEST PUSH2 0x28DB JUMP JUMPDEST CALLVALUE DUP1 ISZERO PUSH2 0xC47 JUMPI PUSH1 0x0 DUP1 REVERT JUMPDEST POP PUSH2 0x4ED PUSH2 0xC56 CALLDATASIZE PUSH1 0x4 PUSH2 0x39C8 JUMP JUMPDEST PUSH2 0x293E JUMP JUMPDEST CALLVALUE DUP1 ISZERO PUSH2 0xC67 JUMPI PUSH1 0x0 DUP1 REVERT JUMPDEST POP PUSH2 0x611 PUSH2 0x2950 JUMP JUMPDEST CALLVALUE DUP1 ISZERO PUSH2 0xC7C JUMPI PUSH1 0x0 DUP1 REVERT JUMPDEST POP PUSH2 0x4ED PUSH2 0x295F JUMP JUMPDEST CALLVALUE DUP1 ISZERO PUSH2 0xC91 JUMPI PUSH1 0x0 DUP1 REVERT JUMPDEST POP PUSH2 0x4ED PUSH2 0x2975 JUMP JUMPDEST CALLVALUE DUP1 ISZERO PUSH2 0xCA6 JUMPI PUSH1 0x0 DUP1 REVERT JUMPDEST POP PUSH2 0x496 PUSH2 0xCB5 CALLDATASIZE PUSH1 0x4 PUSH2 0x39C8 JUMP JUMPDEST PUSH2 0x2987 JUMP JUMPDEST PUSH1 0x40 MLOAD PUSH3 0x461BCD PUSH1 0xE5 SHL DUP2 MSTORE PUSH1 0x4 ADD PUSH2 0xCD2 SWAP1 PUSH2 0x4667 JUMP JUMPDEST PUSH1 0x40 MLOAD DUP1 SWAP2 SUB SWAP1 REVERT JUMPDEST PUSH1 0x6 SLOAD PUSH1 0x1 PUSH1 0x1 PUSH1 0x40 SHL SUB DUP1 DUP3 AND SWAP2 PUSH1 0x1 PUSH1 0x40 SHL DUP2 DIV SWAP1 SWAP2 AND SWAP1 PUSH1 0x1 PUSH1 0x80 SHL SWAP1 DIV PUSH1 0x1 PUSH1 0x1 PUSH1 0x80 SHL SUB AND DUP4 JUMP JUMPDEST PUSH1 0x0 PUSH2 0xD22 PUSH1 0x0 DUP1 MLOAD PUSH1 0x20 PUSH2 0x4F18 DUP4 CODECOPY DUP2 MLOAD SWAP2 MSTORE DUP4 PUSH2 0x1D1C JUMP JUMPDEST SWAP1 POP JUMPDEST SWAP2 SWAP1 POP JUMP JUMPDEST PUSH1 0x0 PUSH2 0xD22 PUSH1 0x0 DUP1 MLOAD PUSH1 0x20 PUSH2 0x4ED8 DUP4 CODECOPY DUP2 MLOAD SWAP2 MSTORE DUP4 PUSH2 0x1D1C JUMP JUMPDEST PUSH1 0x6 SLOAD TIMESTAMP PUSH1 0x1 PUSH1 0x40 SHL SWAP1 SWAP2 DIV PUSH1 0x1 PUSH1 0x1 PUSH1 0x40 SHL SUB AND PUSH3 0x93A80 ADD LT JUMPDEST SWAP1 JUMP JUMPDEST PUSH1 0x2 DUP2 JUMP JUMPDEST PUSH1 0x2 PUSH1 0x5 SLOAD EQ ISZERO PUSH2 0xD8B JUMPI PUSH1 0x40 MLOAD PUSH3 0x461BCD PUSH1 0xE5 SHL DUP2 MSTORE PUSH1 0x4 ADD PUSH2 0xCD2 SWAP1 PUSH2 0x4BD2 JUMP JUMPDEST PUSH1 0x2 PUSH1 0x5 SSTORE PUSH1 0xA SLOAD PUSH1 0x1 PUSH1 0x1 PUSH1 0xA0 SHL SUB AND PUSH20 0xEEEEEEEEEEEEEEEEEEEEEEEEEEEEEEEEEEEEEEEE EQ ISZERO PUSH2 0xDCF JUMPI PUSH1 0x40 MLOAD PUSH3 0x461BCD PUSH1 0xE5 SHL DUP2 MSTORE PUSH1 0x4 ADD PUSH2 0xCD2 SWAP1 PUSH2 0x4277 JUMP JUMPDEST DUP1 PUSH2 0xDDC JUMPI PUSH2 0xDDC PUSH2 0xCBA JUMP JUMPDEST PUSH1 0x0 PUSH2 0xDE7 DUP4 PUSH2 0x1861 JUMP JUMPDEST SWAP1 POP DUP1 ISZERO PUSH2 0xE10 JUMPI PUSH1 0xA SLOAD PUSH2 0xE06 SWAP1 PUSH1 0x1 PUSH1 0x1 PUSH1 0xA0 SHL SUB AND CALLER DUP4 PUSH2 0x29A1 JUMP JUMPDEST PUSH2 0xE10 DUP5 DUP3 PUSH2 0x2A7E JUMP JUMPDEST POP POP PUSH1 0x1 PUSH1 0x5 SSTORE POP POP JUMP JUMPDEST PUSH1 0x0 SWAP1 DUP2 MSTORE PUSH1 0x20 DUP2 SWAP1 MSTORE PUSH1 0x40 SWAP1 KECCAK256 PUSH1 0x2 ADD SLOAD SWAP1 JUMP JUMPDEST PUSH2 0xE39 CALLER PUSH2 0x23F6 JUMP JUMPDEST PUSH2 0xE42 JUMPI PUSH1 0x0 DUP1 REVERT JUMPDEST DUP1 DUP3 GT PUSH2 0xE61 JUMPI PUSH1 0x40 MLOAD PUSH3 0x461BCD PUSH1 0xE5 SHL DUP2 MSTORE PUSH1 0x4 ADD PUSH2 0xCD2 SWAP1 PUSH2 0x4C91 JUMP JUMPDEST PUSH1 0x0 DUP2 GT PUSH2 0xE81 JUMPI PUSH1 0x40 MLOAD PUSH3 0x461BCD PUSH1 0xE5 SHL DUP2 MSTORE PUSH1 0x4 ADD PUSH2 0xCD2 SWAP1 PUSH2 0x44CD JUMP JUMPDEST PUSH1 0x8 SLOAD PUSH1 0x1 PUSH1 0x1 PUSH1 0x80 SHL SUB AND ISZERO PUSH2 0xEAA JUMPI PUSH1 0x40 MLOAD PUSH3 0x461BCD PUSH1 0xE5 SHL DUP2 MSTORE PUSH1 0x4 ADD PUSH2 0xCD2 SWAP1 PUSH2 0x4C09 JUMP JUMPDEST PUSH2 0xEB3 DUP3 PUSH2 0x2C21 JUMP JUMPDEST PUSH1 0x7 DUP1 SLOAD PUSH1 0x1 PUSH1 0x1 PUSH1 0x80 SHL SUB NOT AND PUSH1 0x1 PUSH1 0x1 PUSH1 0x80 SHL SUB SWAP3 SWAP1 SWAP3 AND SWAP2 SWAP1 SWAP2 OR SWAP1 SSTORE PUSH2 0xEDC DUP2 PUSH2 0x2C21 JUMP JUMPDEST PUSH1 0x7 DUP1 SLOAD PUSH1 0x1 PUSH1 0x1 PUSH1 0x80 SHL SUB SWAP3 DUP4 AND PUSH1 0x1 PUSH1 0x80 SHL MUL SWAP3 AND SWAP2 SWAP1 SWAP2 OR SWAP1 SSTORE PUSH1 0x40 MLOAD PUSH32 0x622A57040C34E45ABC5FADEB22E4C3C687CF48A096C86694CD21A7BE9E7851EE SWAP1 PUSH2 0xF2B SWAP1 DUP5 SWAP1 DUP5 SWAP1 PUSH2 0x4DEF JUMP JUMPDEST PUSH1 0x40 MLOAD DUP1 SWAP2 SUB SWAP1 LOG1 POP POP JUMP JUMPDEST PUSH1 0xA SLOAD PUSH1 0x1 PUSH1 0x1 PUSH1 0xA0 SHL SUB AND PUSH20 0xEEEEEEEEEEEEEEEEEEEEEEEEEEEEEEEEEEEEEEEE EQ PUSH2 0xF75 JUMPI PUSH1 0x40 MLOAD PUSH3 0x461BCD PUSH1 0xE5 SHL DUP2 MSTORE PUSH1 0x4 ADD PUSH2 0xCD2 SWAP1 PUSH2 0x4972 JUMP JUMPDEST DUP1 PUSH2 0xF82 JUMPI PUSH2 0xF82 PUSH2 0xCBA JUMP JUMPDEST PUSH1 0x0 PUSH2 0xF8D CALLVALUE PUSH2 0x1861 JUMP JUMPDEST SWAP1 POP PUSH1 0x0 PUSH2 0xF9B CALLVALUE DUP4 PUSH2 0x2C4E JUMP JUMPDEST SWAP1 POP DUP2 ISZERO PUSH2 0xFAD JUMPI PUSH2 0xFAD DUP5 DUP4 PUSH2 0x2A7E JUMP JUMPDEST DUP1 ISZERO PUSH2 0xFEB JUMPI PUSH1 0x40 MLOAD PUSH1 0x1 PUSH1 0x1 PUSH1 0xA0 SHL SUB DUP6 AND SWAP1 DUP3 ISZERO PUSH2 0x8FC MUL SWAP1 DUP4 SWAP1 PUSH1 0x0 DUP2 DUP2 DUP2 DUP6 DUP9 DUP9 CALL SWAP4 POP POP POP POP ISZERO DUP1 ISZERO PUSH2 0xFE9 JUMPI RETURNDATASIZE PUSH1 0x0 DUP1 RETURNDATACOPY RETURNDATASIZE PUSH1 0x0 REVERT JUMPDEST POP JUMPDEST PUSH1 0x8 SLOAD SELFBALANCE PUSH1 0x1 PUSH1 0x1 PUSH1 0x80 SHL SUB SWAP1 SWAP2 AND GT ISZERO PUSH2 0x1018 JUMPI PUSH1 0x40 MLOAD PUSH3 0x461BCD PUSH1 0xE5 SHL DUP2 MSTORE PUSH1 0x4 ADD PUSH2 0xCD2 SWAP1 PUSH2 0x451F JUMP JUMPDEST POP POP POP POP JUMP JUMPDEST PUSH1 0x0 DUP3 DUP2 MSTORE PUSH1 0x20 DUP2 SWAP1 MSTORE PUSH1 0x40 SWAP1 KECCAK256 PUSH1 0x2 ADD SLOAD PUSH2 0x103C SWAP1 PUSH2 0x931 PUSH2 0x2C71 JUMP JUMPDEST PUSH2 0x1058 JUMPI PUSH1 0x40 MLOAD PUSH3 0x461BCD PUSH1 0xE5 SHL DUP2 MSTORE PUSH1 0x4 ADD PUSH2 0xCD2 SWAP1 PUSH2 0x4433 JUMP JUMPDEST PUSH2 0x1062 DUP3 DUP3 PUSH2 0x2C75 JUMP JUMPDEST POP POP JUMP JUMPDEST PUSH1 0x9 SLOAD PUSH1 0x6 SLOAD PUSH1 0x8 SLOAD PUSH1 0x1 PUSH1 0x1 PUSH1 0xA0 SHL SUB SWAP1 SWAP3 AND SWAP3 PUSH1 0x1 PUSH1 0x1 PUSH1 0x40 SHL SUB DUP1 DUP4 AND SWAP4 PUSH1 0x1 PUSH1 0x40 SHL SWAP1 SWAP4 DIV AND SWAP2 PUSH1 0x1 PUSH1 0x80 SHL SWAP1 DIV PUSH1 0xFF AND SWAP1 JUMP JUMPDEST PUSH1 0x0 DUP1 PUSH2 0x10A9 PUSH2 0x1A5F JUMP JUMPDEST SWAP1 POP PUSH1 0x0 PUSH2 0x10B5 PUSH2 0x1F2E JUMP JUMPDEST SWAP1 POP DUP1 DUP3 GT PUSH2 0x10C4 JUMPI DUP1 PUSH2 0x10C6 JUMP JUMPDEST DUP2 JUMPDEST SWAP3 POP POP POP SWAP1 JUMP JUMPDEST PUSH2 0x10D5 PUSH2 0x2C71 JUMP JUMPDEST PUSH1 0x1 PUSH1 0x1 PUSH1 0xA0 SHL SUB AND DUP2 PUSH1 0x1 PUSH1 0x1 PUSH1 0xA0 SHL SUB AND EQ PUSH2 0x1105 JUMPI PUSH1 0x40 MLOAD PUSH3 0x461BCD PUSH1 0xE5 SHL DUP2 MSTORE PUSH1 0x4 ADD PUSH2 0xCD2 SWAP1 PUSH2 0x4D35 JUMP JUMPDEST PUSH2 0x1062 DUP3 DUP3 PUSH2 0x2CDE JUMP JUMPDEST PUSH1 0x0 PUSH2 0x1119 PUSH2 0x109E JUMP JUMPDEST PUSH2 0x1121 PUSH2 0x1A5F JUMP JUMPDEST LT ISZERO SWAP1 POP SWAP1 JUMP JUMPDEST PUSH1 0xA SLOAD PUSH1 0x1 PUSH1 0x1 PUSH1 0xA0 SHL SUB AND DUP2 JUMP JUMPDEST PUSH1 0x4 SLOAD SWAP1 JUMP JUMPDEST PUSH2 0x1155 PUSH1 0x0 DUP1 MLOAD PUSH1 0x20 PUSH2 0x4ED8 DUP4 CODECOPY DUP2 MLOAD SWAP2 MSTORE DUP3 PUSH2 0x101E JUMP JUMPDEST PUSH2 0x115D PUSH2 0x2C71 JUMP JUMPDEST PUSH1 0x1 PUSH1 0x1 PUSH1 0xA0 SHL SUB AND DUP2 PUSH1 0x1 PUSH1 0x1 PUSH1 0xA0 SHL SUB AND PUSH32 0x1D5F9EC24C6F91BE922EA13CEAAD919AD6554A41B5C26087F96289A9BAF98AD2 PUSH1 0x40 MLOAD PUSH1 0x40 MLOAD DUP1 SWAP2 SUB SWAP1 LOG3 POP JUMP JUMPDEST PUSH1 0x7 SLOAD PUSH1 0x1 PUSH1 0x1 PUSH1 0x80 SHL SUB DUP1 DUP3 AND SWAP2 PUSH1 0x1 PUSH1 0x80 SHL SWAP1 DIV AND DUP3 JUMP JUMPDEST PUSH1 0x6 SLOAD PUSH1 0x0 SWAP1 PUSH1 0x1 PUSH1 0x1 PUSH1 0x40 SHL SUB AND TIMESTAMP LT DUP1 ISZERO SWAP1 PUSH2 0x11E9 JUMPI POP PUSH1 0x6 SLOAD PUSH1 0x1 PUSH1 0x40 SHL SWAP1 DIV PUSH1 0x1 PUSH1 0x1 PUSH1 0x40 SHL SUB AND TIMESTAMP GT ISZERO JUMPDEST SWAP1 POP SWAP1 JUMP JUMPDEST PUSH1 0x2 PUSH1 0x5 SLOAD EQ ISZERO PUSH2 0x1211 JUMPI PUSH1 0x40 MLOAD PUSH3 0x461BCD PUSH1 0xE5 SHL DUP2 MSTORE PUSH1 0x4 ADD PUSH2 0xCD2 SWAP1 PUSH2 0x4BD2 JUMP JUMPDEST PUSH1 0x2 PUSH1 0x5 SSTORE PUSH2 0x121E PUSH2 0x110F JUMP JUMPDEST ISZERO PUSH2 0x12CE JUMPI PUSH1 0x8 SLOAD PUSH1 0x1 PUSH1 0x80 SHL SWAP1 DIV PUSH1 0xFF AND PUSH2 0x124C JUMPI PUSH1 0x40 MLOAD PUSH3 0x461BCD PUSH1 0xE5 SHL DUP2 MSTORE PUSH1 0x4 ADD PUSH2 0xCD2 SWAP1 PUSH2 0x4A5D JUMP JUMPDEST PUSH1 0x0 PUSH2 0x1257 DUP3 PUSH2 0x151E JUMP JUMPDEST SWAP1 POP PUSH1 0x0 DUP2 GT PUSH2 0x1279 JUMPI PUSH1 0x40 MLOAD PUSH3 0x461BCD PUSH1 0xE5 SHL DUP2 MSTORE PUSH1 0x4 ADD PUSH2 0xCD2 SWAP1 PUSH2 0x4347 JUMP JUMPDEST PUSH1 0x1 PUSH1 0x1 PUSH1 0xA0 SHL SUB DUP3 AND PUSH1 0x0 SWAP1 DUP2 MSTORE PUSH1 0xE PUSH1 0x20 MSTORE PUSH1 0x40 SWAP1 KECCAK256 SLOAD PUSH2 0x129C SWAP1 DUP3 PUSH2 0x2D47 JUMP JUMPDEST PUSH1 0x1 PUSH1 0x1 PUSH1 0xA0 SHL SUB DUP1 DUP5 AND PUSH1 0x0 SWAP1 DUP2 MSTORE PUSH1 0xE PUSH1 0x20 MSTORE PUSH1 0x40 SWAP1 KECCAK256 SWAP2 SWAP1 SWAP2 SSTORE PUSH1 0x9 SLOAD PUSH2 0x12C8 SWAP2 AND DUP4 DUP4 PUSH2 0x2D6A JUMP JUMPDEST POP PUSH2 0x1330 JUMP JUMPDEST PUSH1 0x6 SLOAD PUSH1 0x1 PUSH1 0x40 SHL SWAP1 DIV PUSH1 0x1 PUSH1 0x1 PUSH1 0x40 SHL SUB AND TIMESTAMP GT PUSH2 0x12FF JUMPI PUSH1 0x40 MLOAD PUSH3 0x461BCD PUSH1 0xE5 SHL DUP2 MSTORE PUSH1 0x4 ADD PUSH2 0xCD2 SWAP1 PUSH2 0x4B3B JUMP JUMPDEST PUSH1 0x1 PUSH1 0x1 PUSH1 0xA0 SHL SUB DUP1 DUP3 AND PUSH1 0x0 SWAP1 DUP2 MSTORE PUSH1 0xD PUSH1 0x20 MSTORE PUSH1 0x40 DUP2 KECCAK256 DUP1 SLOAD SWAP2 SWAP1 SSTORE PUSH1 0xA SLOAD SWAP1 SWAP2 PUSH2 0x132E SWAP2 AND DUP4 DUP4 PUSH2 0x2D6A JUMP JUMPDEST POP JUMPDEST POP PUSH1 0x1 PUSH1 0x5 SSTORE JUMP JUMPDEST PUSH2 0x1341 CALLER PUSH2 0x23F6 JUMP JUMPDEST PUSH2 0x134A JUMPI PUSH1 0x0 DUP1 REVERT JUMPDEST PUSH1 0x8 DUP1 SLOAD SWAP2 ISZERO ISZERO PUSH1 0x1 PUSH1 0x88 SHL MUL PUSH1 0xFF PUSH1 0x88 SHL NOT SWAP1 SWAP3 AND SWAP2 SWAP1 SWAP2 OR SWAP1 SSTORE JUMP JUMPDEST PUSH1 0x2 PUSH1 0x5 SLOAD EQ ISZERO PUSH2 0x138B JUMPI PUSH1 0x40 MLOAD PUSH3 0x461BCD PUSH1 0xE5 SHL DUP2 MSTORE PUSH1 0x4 ADD PUSH2 0xCD2 SWAP1 PUSH2 0x4BD2 JUMP JUMPDEST PUSH1 0x2 PUSH1 0x5 SSTORE PUSH2 0x1399 CALLER PUSH2 0x23F6 JUMP JUMPDEST DUP1 PUSH2 0x13A8 JUMPI POP PUSH2 0x13A8 CALLER PUSH2 0xD2A JUMP JUMPDEST DUP1 PUSH2 0x13BD JUMPI POP PUSH1 0xB SLOAD PUSH1 0x1 PUSH1 0x1 PUSH1 0xA0 SHL SUB AND CALLER EQ JUMPDEST DUP1 PUSH2 0x13CB JUMPI POP PUSH2 0x13CB PUSH2 0xD44 JUMP JUMPDEST PUSH2 0x13E7 JUMPI PUSH1 0x40 MLOAD PUSH3 0x461BCD PUSH1 0xE5 SHL DUP2 MSTORE PUSH1 0x4 ADD PUSH2 0xCD2 SWAP1 PUSH2 0x49C3 JUMP JUMPDEST PUSH1 0x6 SLOAD PUSH1 0x1 PUSH1 0x80 SHL SWAP1 DIV PUSH1 0x1 PUSH1 0x1 PUSH1 0x80 SHL SUB AND PUSH2 0x1416 JUMPI PUSH1 0x40 MLOAD PUSH3 0x461BCD PUSH1 0xE5 SHL DUP2 MSTORE PUSH1 0x4 ADD PUSH2 0xCD2 SWAP1 PUSH2 0x4838 JUMP JUMPDEST PUSH1 0x8 DUP1 SLOAD PUSH1 0x1 PUSH1 0x80 SHL SWAP1 DIV PUSH1 0xFF AND ISZERO PUSH2 0x1441 JUMPI PUSH1 0x40 MLOAD PUSH3 0x461BCD PUSH1 0xE5 SHL DUP2 MSTORE PUSH1 0x4 ADD PUSH2 0xCD2 SWAP1 PUSH2 0x4572 JUMP JUMPDEST PUSH2 0x1449 PUSH2 0x110F JUMP JUMPDEST ISZERO PUSH2 0x147B JUMPI PUSH1 0xA SLOAD PUSH1 0xB SLOAD DUP3 SLOAD PUSH2 0x1476 SWAP3 PUSH1 0x1 PUSH1 0x1 PUSH1 0xA0 SHL SUB SWAP1 DUP2 AND SWAP3 AND SWAP1 PUSH1 0x1 PUSH1 0x1 PUSH1 0x80 SHL SUB AND PUSH2 0x2D6A JUMP JUMPDEST PUSH2 0x14DC JUMP JUMPDEST PUSH1 0x6 SLOAD PUSH1 0x1 PUSH1 0x40 SHL SWAP1 DIV PUSH1 0x1 PUSH1 0x1 PUSH1 0x40 SHL SUB AND TIMESTAMP GT PUSH2 0x14AC JUMPI PUSH1 0x40 MLOAD PUSH3 0x461BCD PUSH1 0xE5 SHL DUP2 MSTORE PUSH1 0x4 ADD PUSH2 0xCD2 SWAP1 PUSH2 0x4B3B JUMP JUMPDEST PUSH1 0x9 SLOAD PUSH1 0xB SLOAD PUSH1 0x6 SLOAD PUSH2 0x14DC SWAP3 PUSH1 0x1 PUSH1 0x1 PUSH1 0xA0 SHL SUB SWAP1 DUP2 AND SWAP3 AND SWAP1 PUSH1 0x1 PUSH1 0x80 SHL SWAP1 DIV PUSH1 0x1 PUSH1 0x1 PUSH1 0x80 SHL SUB AND PUSH2 0x2D6A JUMP JUMPDEST DUP1 SLOAD PUSH1 0xFF PUSH1 0x80 SHL NOT AND PUSH1 0x1 PUSH1 0x80 SHL OR DUP2 SSTORE PUSH1 0x40 MLOAD PUSH32 0x32BEBCFD2D04DBAE321298091D96D2CB1D07279F59718CD83BD98245B8B82B5A SWAP1 PUSH1 0x0 SWAP1 LOG1 POP PUSH1 0x1 PUSH1 0x5 SSTORE JUMP JUMPDEST PUSH1 0x1 PUSH1 0x1 PUSH1 0xA0 SHL SUB DUP2 AND PUSH1 0x0 SWAP1 DUP2 MSTORE PUSH1 0xD PUSH1 0x20 MSTORE PUSH1 0x40 DUP2 KECCAK256 SLOAD PUSH2 0x1543 JUMPI POP PUSH1 0x0 PUSH2 0xD25 JUMP JUMPDEST PUSH1 0x9 SLOAD PUSH1 0x40 MLOAD PUSH4 0x70A08231 PUSH1 0xE0 SHL DUP2 MSTORE PUSH1 0x0 SWAP2 PUSH1 0x1 PUSH1 0x1 PUSH1 0xA0 SHL SUB AND SWAP1 PUSH4 0x70A08231 SWAP1 PUSH2 0x1574 SWAP1 ADDRESS SWAP1 PUSH1 0x4 ADD PUSH2 0x3F58 JUMP JUMPDEST PUSH1 0x20 PUSH1 0x40 MLOAD DUP1 DUP4 SUB DUP2 DUP7 DUP1 EXTCODESIZE ISZERO DUP1 ISZERO PUSH2 0x158C JUMPI PUSH1 0x0 DUP1 REVERT JUMPDEST POP GAS STATICCALL ISZERO DUP1 ISZERO PUSH2 0x15A0 JUMPI RETURNDATASIZE PUSH1 0x0 DUP1 RETURNDATACOPY RETURNDATASIZE PUSH1 0x0 REVERT JUMPDEST POP POP POP POP PUSH1 0x40 MLOAD RETURNDATASIZE PUSH1 0x1F NOT PUSH1 0x1F DUP3 ADD AND DUP3 ADD DUP1 PUSH1 0x40 MSTORE POP DUP2 ADD SWAP1 PUSH2 0x15C4 SWAP2 SWAP1 PUSH2 0x3E38 JUMP JUMPDEST PUSH1 0x8 SLOAD PUSH1 0x6 SLOAD PUSH1 0x1 PUSH1 0x1 PUSH1 0xA0 SHL SUB DUP7 AND PUSH1 0x0 SWAP1 DUP2 MSTORE PUSH1 0xD PUSH1 0x20 MSTORE PUSH1 0x40 SWAP1 KECCAK256 SLOAD SWAP3 SWAP4 POP PUSH2 0x160D SWAP3 PUSH1 0x1 PUSH1 0x1 PUSH1 0x80 SHL SUB SWAP3 DUP4 AND SWAP3 PUSH2 0x1607 SWAP3 PUSH1 0x1 PUSH1 0x80 SHL SWAP1 DIV AND PUSH2 0x2DAE JUMP JUMPDEST SWAP1 PUSH2 0x2DE5 JUMP JUMPDEST PUSH1 0x1 PUSH1 0x1 PUSH1 0xA0 SHL SUB DUP5 AND PUSH1 0x0 SWAP1 DUP2 MSTORE PUSH1 0xE PUSH1 0x20 MSTORE PUSH1 0x40 SWAP1 KECCAK256 SLOAD SWAP1 SWAP3 POP PUSH2 0x1634 SWAP1 DUP4 SWAP1 PUSH2 0x2C4E JUMP JUMPDEST SWAP2 POP DUP1 DUP3 GT ISZERO PUSH2 0x1642 JUMPI DUP1 SWAP2 POP JUMPDEST POP SWAP2 SWAP1 POP JUMP JUMPDEST PUSH1 0xB SLOAD PUSH1 0x1 PUSH1 0x1 PUSH1 0xA0 SHL SUB AND DUP2 JUMP JUMPDEST PUSH2 0x166F PUSH1 0x0 DUP1 MLOAD PUSH1 0x20 PUSH2 0x4F18 DUP4 CODECOPY DUP2 MLOAD SWAP2 MSTORE DUP3 PUSH2 0x270A JUMP JUMPDEST PUSH2 0x1677 PUSH2 0x2C71 JUMP JUMPDEST PUSH1 0x1 PUSH1 0x1 PUSH1 0xA0 SHL SUB AND DUP2 PUSH1 0x1 PUSH1 0x1 PUSH1 0xA0 SHL SUB AND PUSH32 0x56692A161FFEC953DDF9DEF93B958EA8D1EC95E21B80870C66BE91A4374DC4E3 PUSH1 0x40 MLOAD PUSH1 0x40 MLOAD DUP1 SWAP2 SUB SWAP1 LOG3 POP JUMP JUMPDEST PUSH2 0x16C4 PUSH1 0x0 DUP3 PUSH2 0x101E JUMP JUMPDEST PUSH2 0x16CC PUSH2 0x2C71 JUMP JUMPDEST PUSH1 0x1 PUSH1 0x1 PUSH1 0xA0 SHL SUB AND DUP2 PUSH1 0x1 PUSH1 0x1 PUSH1 0xA0 SHL SUB AND PUSH32 0x2570AC42FD8B322DC453ADA624DC2ED0E9BDD67F16F201A25BBD30468F2AA187 PUSH1 0x40 MLOAD PUSH1 0x40 MLOAD DUP1 SWAP2 SUB SWAP1 LOG3 POP JUMP JUMPDEST PUSH2 0x1717 CALLER PUSH2 0x23F6 JUMP JUMPDEST PUSH2 0x1720 JUMPI PUSH1 0x0 DUP1 REVERT JUMPDEST PUSH5 0x2540BE400 DUP3 LT PUSH2 0x1744 JUMPI PUSH1 0x40 MLOAD PUSH3 0x461BCD PUSH1 0xE5 SHL DUP2 MSTORE PUSH1 0x4 ADD PUSH2 0xCD2 SWAP1 PUSH2 0x45B9 JUMP JUMPDEST PUSH5 0x2540BE400 DUP2 LT PUSH2 0x1768 JUMPI PUSH1 0x40 MLOAD PUSH3 0x461BCD PUSH1 0xE5 SHL DUP2 MSTORE PUSH1 0x4 ADD PUSH2 0xCD2 SWAP1 PUSH2 0x45B9 JUMP JUMPDEST TIMESTAMP DUP3 LT ISZERO PUSH2 0x1788 JUMPI PUSH1 0x40 MLOAD PUSH3 0x461BCD PUSH1 0xE5 SHL DUP2 MSTORE PUSH1 0x4 ADD PUSH2 0xCD2 SWAP1 PUSH2 0x46DF JUMP JUMPDEST DUP2 DUP2 GT PUSH2 0x17A7 JUMPI PUSH1 0x40 MLOAD PUSH3 0x461BCD PUSH1 0xE5 SHL DUP2 MSTORE PUSH1 0x4 ADD PUSH2 0xCD2 SWAP1 PUSH2 0x42C4 JUMP JUMPDEST PUSH1 0x8 SLOAD PUSH1 0x1 PUSH1 0x1 PUSH1 0x80 SHL SUB AND ISZERO PUSH2 0x17D0 JUMPI PUSH1 0x40 MLOAD PUSH3 0x461BCD PUSH1 0xE5 SHL DUP2 MSTORE PUSH1 0x4 ADD PUSH2 0xCD2 SWAP1 PUSH2 0x4C09 JUMP JUMPDEST PUSH2 0x17D9 DUP3 PUSH2 0x2E17 JUMP JUMPDEST PUSH1 0x6 DUP1 SLOAD PUSH8 0xFFFFFFFFFFFFFFFF NOT AND PUSH1 0x1 PUSH1 0x1 PUSH1 0x40 SHL SUB SWAP3 SWAP1 SWAP3 AND SWAP2 SWAP1 SWAP2 OR SWAP1 SSTORE PUSH2 0x1803 DUP2 PUSH2 0x2E17 JUMP JUMPDEST PUSH1 0x6 DUP1 SLOAD PUSH1 0x1 PUSH1 0x1 PUSH1 0x40 SHL SUB SWAP3 SWAP1 SWAP3 AND PUSH1 0x1 PUSH1 0x40 SHL MUL PUSH8 0xFFFFFFFFFFFFFFFF PUSH1 0x40 SHL NOT SWAP1 SWAP3 AND SWAP2 SWAP1 SWAP2 OR SWAP1 SSTORE PUSH1 0x40 MLOAD PUSH32 0x5725D1E4352D6944889E54837FFAEFDE55CDC0B55796B831365D61CD4C87FDB8 SWAP1 PUSH2 0xF2B SWAP1 DUP5 SWAP1 DUP5 SWAP1 PUSH2 0x4DEF JUMP JUMPDEST PUSH1 0x0 DUP1 PUSH2 0x1894 PUSH8 0xDE0B6B3A7640000 PUSH2 0x1607 PUSH2 0x187B PUSH2 0x109E JUMP JUMPDEST PUSH1 0x6 SLOAD PUSH1 0x1 PUSH1 0x80 SHL SWAP1 DIV PUSH1 0x1 PUSH1 0x1 PUSH1 0x80 SHL SUB AND SWAP1 PUSH2 0x2DAE JUMP JUMPDEST PUSH1 0x8 SLOAD SWAP1 SWAP2 POP DUP2 SWAP1 PUSH2 0x18AF SWAP1 PUSH1 0x1 PUSH1 0x1 PUSH1 0x80 SHL SUB AND DUP6 PUSH2 0x2D47 JUMP JUMPDEST GT ISZERO PUSH2 0x18D4 JUMPI PUSH1 0x8 SLOAD PUSH2 0x18CC SWAP1 DUP3 SWAP1 PUSH1 0x1 PUSH1 0x1 PUSH1 0x80 SHL SUB AND PUSH2 0x2C4E JUMP JUMPDEST SWAP2 POP POP PUSH2 0xD25 JUMP JUMPDEST POP SWAP1 SWAP2 SWAP1 POP JUMP JUMPDEST PUSH1 0x60 PUSH1 0x40 MLOAD DUP1 PUSH2 0x180 ADD PUSH1 0x40 MSTORE DUP1 PUSH2 0x151 DUP2 MSTORE PUSH1 0x20 ADD PUSH2 0x4F38 PUSH2 0x151 SWAP2 CODECOPY SWAP1 POP SWAP1 JUMP JUMPDEST PUSH1 0x40 MLOAD PUSH4 0xD505ACCF PUSH1 0xE0 SHL DUP2 MSTORE PUSH1 0x1 PUSH1 0x1 PUSH1 0xA0 SHL SUB DUP10 AND SWAP1 PUSH4 0xD505ACCF SWAP1 PUSH2 0x1936 SWAP1 DUP11 SWAP1 DUP11 SWAP1 DUP11 SWAP1 DUP11 SWAP1 DUP11 SWAP1 DUP11 SWAP1 DUP11 SWAP1 PUSH1 0x4 ADD PUSH2 0x3FEF JUMP JUMPDEST PUSH1 0x0 PUSH1 0x40 MLOAD DUP1 DUP4 SUB DUP2 PUSH1 0x0 DUP8 DUP1 EXTCODESIZE ISZERO DUP1 ISZERO PUSH2 0x1950 JUMPI PUSH1 0x0 DUP1 REVERT JUMPDEST POP GAS CALL ISZERO DUP1 ISZERO PUSH2 0x1964 JUMPI RETURNDATASIZE PUSH1 0x0 DUP1 RETURNDATACOPY RETURNDATASIZE PUSH1 0x0 REVERT JUMPDEST POP POP POP POP POP POP POP POP POP POP POP POP JUMP JUMPDEST PUSH1 0x60 PUSH1 0x0 PUSH1 0x2 DUP5 DUP5 PUSH1 0x40 MLOAD PUSH2 0x1988 SWAP3 SWAP2 SWAP1 PUSH2 0x3EBC JUMP JUMPDEST SWAP1 DUP2 MSTORE PUSH1 0x20 ADD PUSH1 0x40 MLOAD DUP1 SWAP2 SUB SWAP1 KECCAK256 PUSH1 0x1 ADD PUSH1 0x2 DUP6 DUP6 PUSH1 0x40 MLOAD PUSH2 0x19AB SWAP3 SWAP2 SWAP1 PUSH2 0x3EBC JUMP JUMPDEST SWAP1 DUP2 MSTORE PUSH1 0x40 DUP1 MLOAD PUSH1 0x20 SWAP3 DUP2 SWAP1 SUB DUP4 ADD DUP2 KECCAK256 SLOAD DUP5 SLOAD PUSH1 0x2 PUSH2 0x100 PUSH1 0x1 DUP4 AND ISZERO MUL PUSH1 0x0 NOT ADD SWAP1 SWAP2 AND DIV PUSH1 0x1F DUP2 ADD DUP6 SWAP1 DIV DUP6 MUL DUP4 ADD DUP6 ADD SWAP1 SWAP4 MSTORE DUP3 DUP3 MSTORE PUSH5 0x100000000 SWAP1 DIV PUSH1 0x1 PUSH1 0x1 PUSH1 0x40 SHL SUB AND SWAP3 SWAP1 SWAP2 DUP5 SWAP2 DUP4 ADD DUP3 DUP3 DUP1 ISZERO PUSH2 0x1A4C JUMPI DUP1 PUSH1 0x1F LT PUSH2 0x1A21 JUMPI PUSH2 0x100 DUP1 DUP4 SLOAD DIV MUL DUP4 MSTORE SWAP2 PUSH1 0x20 ADD SWAP2 PUSH2 0x1A4C JUMP JUMPDEST DUP3 ADD SWAP2 SWAP1 PUSH1 0x0 MSTORE PUSH1 0x20 PUSH1 0x0 KECCAK256 SWAP1 JUMPDEST DUP2 SLOAD DUP2 MSTORE SWAP1 PUSH1 0x1 ADD SWAP1 PUSH1 0x20 ADD DUP1 DUP4 GT PUSH2 0x1A2F JUMPI DUP3 SWAP1 SUB PUSH1 0x1F AND DUP3 ADD SWAP2 JUMPDEST POP POP POP POP POP SWAP2 POP SWAP2 POP SWAP2 POP JUMPDEST SWAP3 POP SWAP3 SWAP1 POP JUMP JUMPDEST PUSH1 0x6 SLOAD PUSH1 0x8 SLOAD PUSH1 0x0 SWAP2 PUSH2 0x11E9 SWAP2 PUSH1 0x1 PUSH1 0x1 PUSH1 0x80 SHL SUB PUSH1 0x1 PUSH1 0x80 SHL SWAP1 SWAP3 DIV DUP3 AND SWAP2 PUSH2 0x1607 SWAP2 AND PUSH8 0xDE0B6B3A7640000 PUSH2 0x2DAE JUMP JUMPDEST PUSH1 0x0 DUP1 DUP1 DUP1 DUP1 DUP1 DUP1 DUP1 DUP1 DUP1 DUP1 PUSH2 0x1AAA DUP13 DUP15 ADD DUP15 PUSH2 0x39EB JUMP JUMPDEST SWAP11 POP SWAP11 POP SWAP11 POP SWAP11 POP SWAP11 POP SWAP11 POP SWAP11 POP SWAP11 POP SWAP11 POP SWAP11 POP SWAP11 POP PUSH2 0x1AD3 DUP12 DUP12 DUP12 DUP12 DUP12 DUP12 DUP12 DUP12 DUP12 DUP12 DUP12 PUSH2 0x1FF1 JUMP JUMPDEST POP POP POP POP POP POP POP POP POP POP POP POP POP JUMP JUMPDEST PUSH1 0x60 DUP12 DUP12 DUP12 DUP12 DUP12 DUP12 DUP12 DUP12 DUP12 DUP12 DUP12 PUSH1 0x40 MLOAD PUSH1 0x20 ADD PUSH2 0x1B09 SWAP12 SWAP11 SWAP10 SWAP9 SWAP8 SWAP7 SWAP6 SWAP5 SWAP4 SWAP3 SWAP2 SWAP1 PUSH2 0x3F90 JUMP JUMPDEST PUSH1 0x40 MLOAD PUSH1 0x20 DUP2 DUP4 SUB SUB DUP2 MSTORE SWAP1 PUSH1 0x40 MSTORE SWAP1 POP SWAP12 SWAP11 POP POP POP POP POP POP POP POP POP POP POP JUMP JUMPDEST PUSH1 0x0 DUP1 MLOAD PUSH1 0x20 PUSH2 0x4ED8 DUP4 CODECOPY DUP2 MLOAD SWAP2 MSTORE DUP2 JUMP JUMPDEST PUSH1 0x0 PUSH2 0x1B45 PUSH2 0x110F JUMP JUMPDEST DUP1 PUSH2 0x11E9 JUMPI POP POP PUSH1 0x6 SLOAD PUSH1 0x1 PUSH1 0x40 SHL SWAP1 DIV PUSH1 0x1 PUSH1 0x1 PUSH1 0x40 SHL SUB AND TIMESTAMP GT SWAP1 JUMP JUMPDEST PUSH2 0x1B7C PUSH1 0x0 DUP1 MLOAD PUSH1 0x20 PUSH2 0x4ED8 DUP4 CODECOPY DUP2 MLOAD SWAP2 MSTORE DUP3 PUSH2 0x270A JUMP JUMPDEST PUSH2 0x1B84 PUSH2 0x2C71 JUMP JUMPDEST PUSH1 0x1 PUSH1 0x1 PUSH1 0xA0 SHL SUB AND DUP2 PUSH1 0x1 PUSH1 0x1 PUSH1 0xA0 SHL SUB AND PUSH32 0xE5F1AA9E528307345194B88B24A32401C13926E0823060F1049D9B26C0BB62B2 PUSH1 0x40 MLOAD PUSH1 0x40 MLOAD DUP1 SWAP2 SUB SWAP1 LOG3 POP JUMP JUMPDEST PUSH2 0x1BCF CALLER PUSH2 0x11EE JUMP JUMPDEST JUMP JUMPDEST PUSH1 0x2 PUSH1 0x5 SLOAD EQ ISZERO PUSH2 0x1BF4 JUMPI PUSH1 0x40 MLOAD PUSH3 0x461BCD PUSH1 0xE5 SHL DUP2 MSTORE PUSH1 0x4 ADD PUSH2 0xCD2 SWAP1 PUSH2 0x4BD2 JUMP JUMPDEST PUSH1 0x2 PUSH1 0x5 SSTORE PUSH2 0x1C02 CALLER PUSH2 0x23F6 JUMP JUMPDEST PUSH2 0x1C0B JUMPI PUSH1 0x0 DUP1 REVERT JUMPDEST PUSH1 0x8 DUP1 SLOAD PUSH1 0x1 PUSH1 0x80 SHL SWAP1 DIV PUSH1 0xFF AND ISZERO PUSH2 0x1C36 JUMPI PUSH1 0x40 MLOAD PUSH3 0x461BCD PUSH1 0xE5 SHL DUP2 MSTORE PUSH1 0x4 ADD PUSH2 0xCD2 SWAP1 PUSH2 0x4572 JUMP JUMPDEST DUP1 SLOAD PUSH1 0x1 PUSH1 0x1 PUSH1 0x80 SHL SUB AND ISZERO PUSH2 0x1C5E JUMPI PUSH1 0x40 MLOAD PUSH3 0x461BCD PUSH1 0xE5 SHL DUP2 MSTORE PUSH1 0x4 ADD PUSH2 0xCD2 SWAP1 PUSH2 0x4620 JUMP JUMPDEST PUSH1 0x9 SLOAD PUSH1 0xB SLOAD PUSH1 0x6 SLOAD PUSH2 0x1C8E SWAP3 PUSH1 0x1 PUSH1 0x1 PUSH1 0xA0 SHL SUB SWAP1 DUP2 AND SWAP3 AND SWAP1 PUSH1 0x1 PUSH1 0x80 SHL SWAP1 DIV PUSH1 0x1 PUSH1 0x1 PUSH1 0x80 SHL SUB AND PUSH2 0x2D6A JUMP JUMPDEST DUP1 SLOAD PUSH1 0xFF PUSH1 0x80 SHL NOT AND PUSH1 0x1 PUSH1 0x80 SHL OR DUP2 SSTORE PUSH1 0x40 MLOAD PUSH32 0xA5FB31E47BD1ECA58BF14A3312D5E6AEAFDC4EE787C8ED348C15C2B092324D93 SWAP1 PUSH1 0x0 SWAP1 LOG1 POP PUSH1 0x1 PUSH1 0x5 SSTORE JUMP JUMPDEST PUSH1 0x0 DUP3 DUP2 MSTORE PUSH1 0x20 DUP2 SWAP1 MSTORE PUSH1 0x40 DUP2 KECCAK256 PUSH2 0x1CE8 SWAP1 DUP4 PUSH2 0x2E40 JUMP JUMPDEST SWAP1 POP JUMPDEST SWAP3 SWAP2 POP POP JUMP JUMPDEST PUSH1 0x0 PUSH2 0x11E9 PUSH2 0x1CFE PUSH2 0x109E JUMP JUMPDEST PUSH1 0x8 SLOAD PUSH2 0x1607 SWAP1 PUSH1 0x1 PUSH1 0x1 PUSH1 0x80 SHL SUB AND PUSH8 0xDE0B6B3A7640000 PUSH2 0x2DAE JUMP JUMPDEST PUSH1 0x0 DUP3 DUP2 MSTORE PUSH1 0x20 DUP2 SWAP1 MSTORE PUSH1 0x40 DUP2 KECCAK256 PUSH2 0x1CE8 SWAP1 DUP4 PUSH2 0x2E4C JUMP JUMPDEST PUSH2 0x1D4C PUSH1 0x0 DUP1 MLOAD PUSH1 0x20 PUSH2 0x4EF8 DUP4 CODECOPY DUP2 MLOAD SWAP2 MSTORE DUP3 PUSH2 0x270A JUMP JUMPDEST PUSH2 0x1D54 PUSH2 0x2C71 JUMP JUMPDEST PUSH1 0x1 PUSH1 0x1 PUSH1 0xA0 SHL SUB AND DUP2 PUSH1 0x1 PUSH1 0x1 PUSH1 0xA0 SHL SUB AND PUSH32 0x70B25138B6FADEB9992D18B9653564271823E34B3E3257515D12A6D4B15FCDDF PUSH1 0x40 MLOAD PUSH1 0x40 MLOAD DUP1 SWAP2 SUB SWAP1 LOG3 POP JUMP JUMPDEST PUSH1 0x9 SLOAD PUSH1 0x1 PUSH1 0x1 PUSH1 0xA0 SHL SUB AND DUP2 JUMP JUMPDEST PUSH2 0x1DAE CALLER PUSH2 0x23F6 JUMP JUMPDEST PUSH2 0x1DB7 JUMPI PUSH1 0x0 DUP1 REVERT JUMPDEST PUSH1 0x1 PUSH1 0x1 PUSH1 0xA0 SHL SUB DUP2 AND PUSH2 0x1DDD JUMPI PUSH1 0x40 MLOAD PUSH3 0x461BCD PUSH1 0xE5 SHL DUP2 MSTORE PUSH1 0x4 ADD PUSH2 0xCD2 SWAP1 PUSH2 0x437C JUMP JUMPDEST PUSH1 0xB DUP1 SLOAD PUSH1 0x1 PUSH1 0x1 PUSH1 0xA0 SHL SUB NOT AND PUSH1 0x1 PUSH1 0x1 PUSH1 0xA0 SHL SUB DUP4 AND OR SWAP1 SSTORE PUSH1 0x40 MLOAD PUSH32 0x34AE2BAD9265F0212D4CF341708B8250949164BB54F9D0E4F442024F83BB2F90 SWAP1 PUSH2 0x1E28 SWAP1 DUP4 SWAP1 PUSH2 0x3F58 JUMP JUMPDEST PUSH1 0x40 MLOAD DUP1 SWAP2 SUB SWAP1 LOG1 POP JUMP JUMPDEST PUSH2 0x1E3C CALLER PUSH2 0x23F6 JUMP JUMPDEST PUSH2 0x1E45 JUMPI PUSH1 0x0 DUP1 REVERT JUMPDEST PUSH2 0x1018 DUP5 DUP5 DUP5 DUP5 PUSH2 0x2E61 JUMP JUMPDEST PUSH1 0x60 PUSH1 0x4 DUP1 SLOAD DUP1 PUSH1 0x20 MUL PUSH1 0x20 ADD PUSH1 0x40 MLOAD SWAP1 DUP2 ADD PUSH1 0x40 MSTORE DUP1 SWAP3 SWAP2 SWAP1 DUP2 DUP2 MSTORE PUSH1 0x20 ADD PUSH1 0x0 SWAP1 JUMPDEST DUP3 DUP3 LT ISZERO PUSH2 0x1F20 JUMPI PUSH1 0x0 DUP5 DUP2 MSTORE PUSH1 0x20 SWAP1 DUP2 SWAP1 KECCAK256 DUP4 ADD DUP1 SLOAD PUSH1 0x40 DUP1 MLOAD PUSH1 0x1F PUSH1 0x2 PUSH1 0x0 NOT PUSH2 0x100 PUSH1 0x1 DUP8 AND ISZERO MUL ADD SWAP1 SWAP5 AND SWAP4 SWAP1 SWAP4 DIV SWAP3 DUP4 ADD DUP6 SWAP1 DIV DUP6 MUL DUP2 ADD DUP6 ADD SWAP1 SWAP2 MSTORE DUP2 DUP2 MSTORE SWAP3 DUP4 ADD DUP3 DUP3 DUP1 ISZERO PUSH2 0x1F0C JUMPI DUP1 PUSH1 0x1F LT PUSH2 0x1EE1 JUMPI PUSH2 0x100 DUP1 DUP4 SLOAD DIV MUL DUP4 MSTORE SWAP2 PUSH1 0x20 ADD SWAP2 PUSH2 0x1F0C JUMP JUMPDEST DUP3 ADD SWAP2 SWAP1 PUSH1 0x0 MSTORE PUSH1 0x20 PUSH1 0x0 KECCAK256 SWAP1 JUMPDEST DUP2 SLOAD DUP2 MSTORE SWAP1 PUSH1 0x1 ADD SWAP1 PUSH1 0x20 ADD DUP1 DUP4 GT PUSH2 0x1EEF JUMPI DUP3 SWAP1 SUB PUSH1 0x1F AND DUP3 ADD SWAP2 JUMPDEST POP POP POP POP POP DUP2 MSTORE PUSH1 0x20 ADD SWAP1 PUSH1 0x1 ADD SWAP1 PUSH2 0x1E75 JUMP JUMPDEST POP POP POP POP SWAP1 POP SWAP1 JUMP JUMPDEST PUSH1 0x0 DUP2 JUMP JUMPDEST PUSH1 0x6 SLOAD PUSH1 0x0 SWAP1 PUSH1 0x1 PUSH1 0x1 PUSH1 0x40 SHL SUB AND TIMESTAMP GT PUSH2 0x1F55 JUMPI POP PUSH1 0x7 SLOAD PUSH1 0x1 PUSH1 0x1 PUSH1 0x80 SHL SUB AND PUSH2 0xD60 JUMP JUMPDEST PUSH1 0x6 SLOAD PUSH1 0x1 PUSH1 0x40 SHL SWAP1 DIV PUSH1 0x1 PUSH1 0x1 PUSH1 0x40 SHL SUB AND TIMESTAMP LT PUSH2 0x1F87 JUMPI POP PUSH1 0x7 SLOAD PUSH1 0x1 PUSH1 0x80 SHL SWAP1 DIV PUSH1 0x1 PUSH1 0x1 PUSH1 0x80 SHL SUB AND PUSH2 0xD60 JUMP JUMPDEST PUSH2 0x11E9 PUSH2 0x30B3 JUMP JUMPDEST PUSH2 0x1FA7 PUSH1 0x0 DUP1 MLOAD PUSH1 0x20 PUSH2 0x4F18 DUP4 CODECOPY DUP2 MLOAD SWAP2 MSTORE DUP3 PUSH2 0x101E JUMP JUMPDEST PUSH2 0x1FAF PUSH2 0x2C71 JUMP JUMPDEST PUSH1 0x1 PUSH1 0x1 PUSH1 0xA0 SHL SUB AND DUP2 PUSH1 0x1 PUSH1 0x1 PUSH1 0xA0 SHL SUB AND PUSH32 0xBE6AB9784C7401FAFB73F7BC47BC67CC4EF8C47A60AD3CB66D1DE0353A0784C PUSH1 0x40 MLOAD PUSH1 0x40 MLOAD DUP1 SWAP2 SUB SWAP1 LOG3 POP JUMP JUMPDEST PUSH5 0x2540BE400 DUP8 LT PUSH2 0x2015 JUMPI PUSH1 0x40 MLOAD PUSH3 0x461BCD PUSH1 0xE5 SHL DUP2 MSTORE PUSH1 0x4 ADD PUSH2 0xCD2 SWAP1 PUSH2 0x45B9 JUMP JUMPDEST TIMESTAMP DUP9 LT ISZERO PUSH2 0x2035 JUMPI PUSH1 0x40 MLOAD PUSH3 0x461BCD PUSH1 0xE5 SHL DUP2 MSTORE PUSH1 0x4 ADD PUSH2 0xCD2 SWAP1 PUSH2 0x46DF JUMP JUMPDEST DUP8 DUP8 GT PUSH2 0x2054 JUMPI PUSH1 0x40 MLOAD PUSH3 0x461BCD PUSH1 0xE5 SHL DUP2 MSTORE PUSH1 0x4 ADD PUSH2 0xCD2 SWAP1 PUSH2 0x4A08 JUMP JUMPDEST PUSH1 0x0 DUP10 GT PUSH2 0x2074 JUMPI PUSH1 0x40 MLOAD PUSH3 0x461BCD PUSH1 0xE5 SHL DUP2 MSTORE PUSH1 0x4 ADD PUSH2 0xCD2 SWAP1 PUSH2 0x475D JUMP JUMPDEST DUP4 DUP6 GT PUSH2 0x2093 JUMPI PUSH1 0x40 MLOAD PUSH3 0x461BCD PUSH1 0xE5 SHL DUP2 MSTORE PUSH1 0x4 ADD PUSH2 0xCD2 SWAP1 PUSH2 0x4C91 JUMP JUMPDEST PUSH1 0x0 DUP5 GT PUSH2 0x20B3 JUMPI PUSH1 0x40 MLOAD PUSH3 0x461BCD PUSH1 0xE5 SHL DUP2 MSTORE PUSH1 0x4 ADD PUSH2 0xCD2 SWAP1 PUSH2 0x44CD JUMP JUMPDEST PUSH1 0x1 PUSH1 0x1 PUSH1 0xA0 SHL SUB DUP4 AND PUSH2 0x20D9 JUMPI PUSH1 0x40 MLOAD PUSH3 0x461BCD PUSH1 0xE5 SHL DUP2 MSTORE PUSH1 0x4 ADD PUSH2 0xCD2 SWAP1 PUSH2 0x4CEE JUMP JUMPDEST PUSH1 0x1 PUSH1 0x1 PUSH1 0xA0 SHL SUB DUP2 AND PUSH2 0x20FF JUMPI PUSH1 0x40 MLOAD PUSH3 0x461BCD PUSH1 0xE5 SHL DUP2 MSTORE PUSH1 0x4 ADD PUSH2 0xCD2 SWAP1 PUSH2 0x437C JUMP JUMPDEST DUP10 PUSH1 0x1 PUSH1 0x1 PUSH1 0xA0 SHL SUB AND PUSH4 0x313CE567 PUSH1 0x40 MLOAD DUP2 PUSH4 0xFFFFFFFF AND PUSH1 0xE0 SHL DUP2 MSTORE PUSH1 0x4 ADD PUSH1 0x20 PUSH1 0x40 MLOAD DUP1 DUP4 SUB DUP2 DUP7 DUP1 EXTCODESIZE ISZERO DUP1 ISZERO PUSH2 0x2138 JUMPI PUSH1 0x0 DUP1 REVERT JUMPDEST POP GAS STATICCALL ISZERO DUP1 ISZERO PUSH2 0x214C JUMPI RETURNDATASIZE PUSH1 0x0 DUP1 RETURNDATACOPY RETURNDATASIZE PUSH1 0x0 REVERT JUMPDEST POP POP POP POP PUSH1 0x40 MLOAD RETURNDATASIZE PUSH1 0x1F NOT PUSH1 0x1F DUP3 ADD AND DUP3 ADD DUP1 PUSH1 0x40 MSTORE POP DUP2 ADD SWAP1 PUSH2 0x2170 SWAP2 SWAP1 PUSH2 0x3E74 JUMP JUMPDEST PUSH1 0xFF AND PUSH1 0x12 EQ PUSH2 0x2192 JUMPI PUSH1 0x40 MLOAD PUSH3 0x461BCD PUSH1 0xE5 SHL DUP2 MSTORE PUSH1 0x4 ADD PUSH2 0xCD2 SWAP1 PUSH2 0x4B85 JUMP JUMPDEST PUSH1 0x1 PUSH1 0x1 PUSH1 0xA0 SHL SUB DUP7 AND PUSH20 0xEEEEEEEEEEEEEEEEEEEEEEEEEEEEEEEEEEEEEEEE EQ PUSH2 0x2249 JUMPI PUSH1 0x0 DUP7 PUSH1 0x1 PUSH1 0x1 PUSH1 0xA0 SHL SUB AND PUSH4 0x313CE567 PUSH1 0x40 MLOAD DUP2 PUSH4 0xFFFFFFFF AND PUSH1 0xE0 SHL DUP2 MSTORE PUSH1 0x4 ADD PUSH1 0x20 PUSH1 0x40 MLOAD DUP1 DUP4 SUB DUP2 DUP7 DUP1 EXTCODESIZE ISZERO DUP1 ISZERO PUSH2 0x21F1 JUMPI PUSH1 0x0 DUP1 REVERT JUMPDEST POP GAS STATICCALL ISZERO DUP1 ISZERO PUSH2 0x2205 JUMPI RETURNDATASIZE PUSH1 0x0 DUP1 RETURNDATACOPY RETURNDATASIZE PUSH1 0x0 REVERT JUMPDEST POP POP POP POP PUSH1 0x40 MLOAD RETURNDATASIZE PUSH1 0x1F NOT PUSH1 0x1F DUP3 ADD AND DUP3 ADD DUP1 PUSH1 0x40 MSTORE POP DUP2 ADD SWAP1 PUSH2 0x2229 SWAP2 SWAP1 PUSH2 0x3E74 JUMP JUMPDEST PUSH1 0xFF AND GT PUSH2 0x2249 JUMPI PUSH1 0x40 MLOAD PUSH3 0x461BCD PUSH1 0xE5 SHL DUP2 MSTORE PUSH1 0x4 ADD PUSH2 0xCD2 SWAP1 PUSH2 0x4482 JUMP JUMPDEST PUSH2 0x2252 DUP9 PUSH2 0x2E17 JUMP JUMPDEST PUSH1 0x6 DUP1 SLOAD PUSH8 0xFFFFFFFFFFFFFFFF NOT AND PUSH1 0x1 PUSH1 0x1 PUSH1 0x40 SHL SUB SWAP3 SWAP1 SWAP3 AND SWAP2 SWAP1 SWAP2 OR SWAP1 SSTORE PUSH2 0x227C DUP8 PUSH2 0x2E17 JUMP JUMPDEST PUSH1 0x6 DUP1 SLOAD PUSH1 0x1 PUSH1 0x1 PUSH1 0x40 SHL SUB SWAP3 SWAP1 SWAP3 AND PUSH1 0x1 PUSH1 0x40 SHL MUL PUSH8 0xFFFFFFFFFFFFFFFF PUSH1 0x40 SHL NOT SWAP1 SWAP3 AND SWAP2 SWAP1 SWAP2 OR SWAP1 SSTORE PUSH2 0x22B1 DUP10 PUSH2 0x2C21 JUMP JUMPDEST PUSH1 0x6 DUP1 SLOAD PUSH1 0x1 PUSH1 0x1 PUSH1 0x80 SHL SUB SWAP3 DUP4 AND PUSH1 0x1 PUSH1 0x80 SHL MUL SWAP3 AND SWAP2 SWAP1 SWAP2 OR SWAP1 SSTORE PUSH2 0x22D7 DUP6 PUSH2 0x2C21 JUMP JUMPDEST PUSH1 0x7 DUP1 SLOAD PUSH1 0x1 PUSH1 0x1 PUSH1 0x80 SHL SUB NOT AND PUSH1 0x1 PUSH1 0x1 PUSH1 0x80 SHL SUB SWAP3 SWAP1 SWAP3 AND SWAP2 SWAP1 SWAP2 OR SWAP1 SSTORE PUSH2 0x2300 DUP5 PUSH2 0x2C21 JUMP JUMPDEST PUSH1 0x7 DUP1 SLOAD PUSH1 0x1 PUSH1 0x1 PUSH1 0x80 SHL SUB SWAP3 DUP4 AND PUSH1 0x1 PUSH1 0x80 SHL MUL SWAP3 AND SWAP2 SWAP1 SWAP2 OR SWAP1 SSTORE PUSH1 0x9 DUP1 SLOAD PUSH1 0x1 PUSH1 0x1 PUSH1 0xA0 SHL SUB DUP1 DUP14 AND PUSH1 0x1 PUSH1 0x1 PUSH1 0xA0 SHL SUB NOT SWAP3 DUP4 AND OR SWAP1 SWAP3 SSTORE PUSH1 0xA DUP1 SLOAD DUP10 DUP5 AND SWAP1 DUP4 AND OR SWAP1 SSTORE PUSH1 0xB DUP1 SLOAD SWAP3 DUP5 AND SWAP3 SWAP1 SWAP2 AND SWAP2 SWAP1 SWAP2 OR SWAP1 SSTORE PUSH2 0x2363 DUP4 PUSH2 0x28DB JUMP JUMPDEST PUSH2 0x236C DUP3 PUSH2 0x31D5 JUMP JUMPDEST PUSH2 0x2377 DUP11 DUP13 DUP12 PUSH2 0x29A1 JUMP JUMPDEST POP POP POP POP POP POP POP POP POP POP POP JUMP JUMPDEST PUSH1 0x8 SLOAD PUSH1 0x1 PUSH1 0x80 SHL SWAP1 DIV PUSH1 0xFF AND SWAP1 JUMP JUMPDEST PUSH2 0x23AC PUSH1 0x0 DUP1 MLOAD PUSH1 0x20 PUSH2 0x4EF8 DUP4 CODECOPY DUP2 MLOAD SWAP2 MSTORE DUP3 PUSH2 0x101E JUMP JUMPDEST PUSH2 0x23B4 PUSH2 0x2C71 JUMP JUMPDEST PUSH1 0x1 PUSH1 0x1 PUSH1 0xA0 SHL SUB AND DUP2 PUSH1 0x1 PUSH1 0x1 PUSH1 0xA0 SHL SUB AND PUSH32 0x2D45EE102874989882745A26688D0B4FFFEE125A18DF26536B12582C7FDE4E17 PUSH1 0x40 MLOAD PUSH1 0x40 MLOAD DUP1 SWAP2 SUB SWAP1 LOG3 POP JUMP JUMPDEST PUSH1 0x0 PUSH2 0xD22 DUP2 DUP4 PUSH2 0x1D1C JUMP JUMPDEST PUSH1 0x4 SLOAD PUSH1 0x60 SWAP1 DUP3 LT PUSH2 0x2426 JUMPI PUSH1 0x40 MLOAD PUSH3 0x461BCD PUSH1 0xE5 SHL DUP2 MSTORE PUSH1 0x4 ADD PUSH2 0xCD2 SWAP1 PUSH2 0x4AD7 JUMP JUMPDEST PUSH1 0x4 DUP3 DUP2 SLOAD DUP2 LT PUSH2 0x2433 JUMPI INVALID JUMPDEST PUSH1 0x0 SWAP2 DUP3 MSTORE PUSH1 0x20 SWAP2 DUP3 SWAP1 KECCAK256 ADD DUP1 SLOAD PUSH1 0x40 DUP1 MLOAD PUSH1 0x1F PUSH1 0x2 PUSH1 0x0 NOT PUSH2 0x100 PUSH1 0x1 DUP8 AND ISZERO MUL ADD SWAP1 SWAP5 AND SWAP4 SWAP1 SWAP4 DIV SWAP3 DUP4 ADD DUP6 SWAP1 DIV DUP6 MUL DUP2 ADD DUP6 ADD SWAP1 SWAP2 MSTORE DUP2 DUP2 MSTORE SWAP3 DUP4 ADD DUP3 DUP3 DUP1 ISZERO PUSH2 0x24C1 JUMPI DUP1 PUSH1 0x1F LT PUSH2 0x2496 JUMPI PUSH2 0x100 DUP1 DUP4 SLOAD DIV MUL DUP4 MSTORE SWAP2 PUSH1 0x20 ADD SWAP2 PUSH2 0x24C1 JUMP JUMPDEST DUP3 ADD SWAP2 SWAP1 PUSH1 0x0 MSTORE PUSH1 0x20 PUSH1 0x0 KECCAK256 SWAP1 JUMPDEST DUP2 SLOAD DUP2 MSTORE SWAP1 PUSH1 0x1 ADD SWAP1 PUSH1 0x20 ADD DUP1 DUP4 GT PUSH2 0x24A4 JUMPI DUP3 SWAP1 SUB PUSH1 0x1F AND DUP3 ADD SWAP2 JUMPDEST POP POP POP POP POP SWAP1 POP SWAP2 SWAP1 POP JUMP JUMPDEST PUSH1 0xE PUSH1 0x20 MSTORE PUSH1 0x0 SWAP1 DUP2 MSTORE PUSH1 0x40 SWAP1 KECCAK256 SLOAD DUP2 JUMP JUMPDEST PUSH2 0x24E8 CALLER PUSH2 0x23F6 JUMP JUMPDEST PUSH2 0x24F1 JUMPI PUSH1 0x0 DUP1 REVERT JUMPDEST DUP3 PUSH1 0x0 JUMPDEST DUP2 DUP2 LT ISZERO PUSH2 0x2549 JUMPI PUSH2 0x2541 DUP7 DUP7 DUP4 DUP2 DUP2 LT PUSH2 0x250C JUMPI INVALID JUMPDEST SWAP1 POP PUSH1 0x20 MUL DUP2 ADD SWAP1 PUSH2 0x251E SWAP2 SWAP1 PUSH2 0x4E29 JUMP JUMPDEST DUP7 DUP7 DUP6 DUP2 DUP2 LT PUSH2 0x252A JUMPI INVALID JUMPDEST SWAP1 POP PUSH1 0x20 MUL DUP2 ADD SWAP1 PUSH2 0x253C SWAP2 SWAP1 PUSH2 0x4E29 JUMP JUMPDEST PUSH2 0x2E61 JUMP JUMPDEST PUSH1 0x1 ADD PUSH2 0x24F5 JUMP JUMPDEST POP POP POP POP POP POP JUMP JUMPDEST PUSH1 0x0 DUP2 DUP2 MSTORE PUSH1 0x20 DUP2 SWAP1 MSTORE PUSH1 0x40 DUP2 KECCAK256 PUSH2 0xD22 SWAP1 PUSH2 0x3217 JUMP JUMPDEST PUSH1 0x60 DUP1 DUP4 PUSH1 0x1 PUSH1 0x1 PUSH1 0x40 SHL SUB DUP2 GT DUP1 ISZERO PUSH2 0x2581 JUMPI PUSH1 0x0 DUP1 REVERT JUMPDEST POP PUSH1 0x40 MLOAD SWAP1 DUP1 DUP3 MSTORE DUP1 PUSH1 0x20 MUL PUSH1 0x20 ADD DUP3 ADD PUSH1 0x40 MSTORE DUP1 ISZERO PUSH2 0x25AB JUMPI DUP2 PUSH1 0x20 ADD PUSH1 0x20 DUP3 MUL DUP1 CALLDATASIZE DUP4 CALLDATACOPY ADD SWAP1 POP JUMPDEST POP SWAP2 POP DUP4 PUSH1 0x1 PUSH1 0x1 PUSH1 0x40 SHL SUB DUP2 GT DUP1 ISZERO PUSH2 0x25C4 JUMPI PUSH1 0x0 DUP1 REVERT JUMPDEST POP PUSH1 0x40 MLOAD SWAP1 DUP1 DUP3 MSTORE DUP1 PUSH1 0x20 MUL PUSH1 0x20 ADD DUP3 ADD PUSH1 0x40 MSTORE DUP1 ISZERO PUSH2 0x25F8 JUMPI DUP2 PUSH1 0x20 ADD JUMPDEST PUSH1 0x60 DUP2 MSTORE PUSH1 0x20 ADD SWAP1 PUSH1 0x1 SWAP1 SUB SWAP1 DUP2 PUSH2 0x25E3 JUMPI SWAP1 POP JUMPDEST POP SWAP1 POP PUSH1 0x0 JUMPDEST DUP5 DUP2 LT ISZERO PUSH2 0x26EF JUMPI PUSH1 0x0 PUSH1 0x60 ADDRESS DUP9 DUP9 DUP6 DUP2 DUP2 LT PUSH2 0x2617 JUMPI INVALID JUMPDEST SWAP1 POP PUSH1 0x20 MUL DUP2 ADD SWAP1 PUSH2 0x2629 SWAP2 SWAP1 PUSH2 0x4E29 JUMP JUMPDEST PUSH1 0x40 MLOAD PUSH2 0x2637 SWAP3 SWAP2 SWAP1 PUSH2 0x3EBC JUMP JUMPDEST PUSH1 0x0 PUSH1 0x40 MLOAD DUP1 DUP4 SUB DUP2 DUP6 GAS DELEGATECALL SWAP2 POP POP RETURNDATASIZE DUP1 PUSH1 0x0 DUP2 EQ PUSH2 0x2672 JUMPI PUSH1 0x40 MLOAD SWAP2 POP PUSH1 0x1F NOT PUSH1 0x3F RETURNDATASIZE ADD AND DUP3 ADD PUSH1 0x40 MSTORE RETURNDATASIZE DUP3 MSTORE RETURNDATASIZE PUSH1 0x0 PUSH1 0x20 DUP5 ADD RETURNDATACOPY PUSH2 0x2677 JUMP JUMPDEST PUSH1 0x60 SWAP2 POP JUMPDEST POP SWAP2 POP SWAP2 POP DUP2 DUP1 PUSH2 0x2686 JUMPI POP DUP6 ISZERO JUMPDEST PUSH2 0x268F DUP3 PUSH2 0x3222 JUMP JUMPDEST SWAP1 PUSH2 0x26AD JUMPI PUSH1 0x40 MLOAD PUSH3 0x461BCD PUSH1 0xE5 SHL DUP2 MSTORE PUSH1 0x4 ADD PUSH2 0xCD2 SWAP2 SWAP1 PUSH2 0x4189 JUMP JUMPDEST POP DUP2 DUP6 DUP5 DUP2 MLOAD DUP2 LT PUSH2 0x26BB JUMPI INVALID JUMPDEST PUSH1 0x20 MUL PUSH1 0x20 ADD ADD SWAP1 ISZERO ISZERO SWAP1 DUP2 ISZERO ISZERO DUP2 MSTORE POP POP DUP1 DUP5 DUP5 DUP2 MLOAD DUP2 LT PUSH2 0x26DA JUMPI INVALID JUMPDEST PUSH1 0x20 SWAP1 DUP2 MUL SWAP2 SWAP1 SWAP2 ADD ADD MSTORE POP POP PUSH1 0x1 ADD PUSH2 0x25FE JUMP JUMPDEST POP SWAP4 POP SWAP4 SWAP2 POP POP JUMP JUMPDEST PUSH1 0x0 DUP1 MLOAD PUSH1 0x20 PUSH2 0x4F18 DUP4 CODECOPY DUP2 MLOAD SWAP2 MSTORE DUP2 JUMP JUMPDEST PUSH1 0x0 DUP3 DUP2 MSTORE PUSH1 0x20 DUP2 SWAP1 MSTORE PUSH1 0x40 SWAP1 KECCAK256 PUSH1 0x2 ADD SLOAD PUSH2 0x2728 SWAP1 PUSH2 0x931 PUSH2 0x2C71 JUMP JUMPDEST PUSH2 0x1105 JUMPI PUSH1 0x40 MLOAD PUSH3 0x461BCD PUSH1 0xE5 SHL DUP2 MSTORE PUSH1 0x4 ADD PUSH2 0xCD2 SWAP1 PUSH2 0x47E8 JUMP JUMPDEST PUSH2 0x274D CALLER PUSH2 0x23F6 JUMP JUMPDEST PUSH2 0x2756 JUMPI PUSH1 0x0 DUP1 REVERT JUMPDEST PUSH2 0x275F DUP2 PUSH2 0x31D5 JUMP JUMPDEST POP JUMP JUMPDEST PUSH1 0x0 PUSH2 0x276C PUSH2 0x375F JUMP JUMPDEST POP PUSH1 0x40 DUP1 MLOAD PUSH1 0x60 DUP2 ADD DUP3 MSTORE PUSH1 0x6 SLOAD PUSH1 0x1 PUSH1 0x1 PUSH1 0x40 SHL SUB DUP1 DUP3 AND DUP4 MSTORE PUSH1 0x1 PUSH1 0x40 SHL DUP3 DIV AND PUSH1 0x20 DUP4 ADD MSTORE PUSH1 0x1 PUSH1 0x80 SHL SWAP1 DIV PUSH1 0x1 PUSH1 0x1 PUSH1 0x80 SHL SUB AND SWAP2 DUP2 ADD SWAP2 SWAP1 SWAP2 MSTORE PUSH2 0x27B3 PUSH2 0x377F JUMP JUMPDEST POP PUSH1 0x40 DUP1 MLOAD DUP1 DUP3 ADD SWAP1 SWAP2 MSTORE PUSH1 0x7 SLOAD PUSH1 0x1 PUSH1 0x1 PUSH1 0x80 SHL SUB DUP1 DUP3 AND DUP1 DUP5 MSTORE PUSH1 0x1 PUSH1 0x80 SHL SWAP1 SWAP3 DIV AND PUSH1 0x20 DUP4 ADD DUP2 SWAP1 MSTORE PUSH1 0x0 SWAP2 PUSH2 0x27EB SWAP2 PUSH2 0x3282 JUMP JUMPDEST PUSH1 0x1 PUSH1 0x1 PUSH1 0x80 SHL SUB AND SWAP1 POP PUSH1 0x0 PUSH2 0x281C DUP5 PUSH1 0x0 ADD MLOAD DUP6 PUSH1 0x20 ADD MLOAD PUSH1 0x1 PUSH1 0x1 PUSH1 0x40 SHL SUB AND PUSH2 0x32B1 SWAP1 SWAP2 SWAP1 PUSH4 0xFFFFFFFF AND JUMP JUMPDEST PUSH1 0x1 PUSH1 0x1 PUSH1 0x40 SHL SUB AND SWAP1 POP DUP1 DUP3 DUP2 PUSH2 0x2830 JUMPI INVALID JUMPDEST DIV SWAP5 POP POP POP POP POP SWAP1 JUMP JUMPDEST PUSH2 0x1062 CALLER DUP4 DUP4 PUSH2 0xD68 JUMP JUMPDEST PUSH2 0x2850 PUSH1 0x0 DUP3 PUSH2 0x270A JUMP JUMPDEST PUSH2 0x2858 PUSH2 0x2C71 JUMP JUMPDEST PUSH1 0x1 PUSH1 0x1 PUSH1 0xA0 SHL SUB AND DUP2 PUSH1 0x1 PUSH1 0x1 PUSH1 0xA0 SHL SUB AND PUSH32 0x21BA1239795D4E22874E3DC55F0A9D7B65BFB23069D32965D7C23BE9524CCF95 PUSH1 0x40 MLOAD PUSH1 0x40 MLOAD DUP1 SWAP2 SUB SWAP1 LOG3 POP JUMP JUMPDEST PUSH2 0x28A3 CALLER PUSH2 0x23F6 JUMP JUMPDEST PUSH2 0x28AC JUMPI PUSH1 0x0 DUP1 REVERT JUMPDEST PUSH2 0x1062 DUP3 DUP3 PUSH2 0x32E0 JUMP JUMPDEST PUSH1 0x8 SLOAD PUSH1 0x1 PUSH1 0x1 PUSH1 0x80 SHL SUB DUP2 AND SWAP1 PUSH1 0xFF PUSH1 0x1 PUSH1 0x80 SHL DUP3 DIV DUP2 AND SWAP2 PUSH1 0x1 PUSH1 0x88 SHL SWAP1 DIV AND DUP4 JUMP JUMPDEST PUSH1 0x1 SLOAD PUSH1 0xFF AND ISZERO PUSH2 0x28FE JUMPI PUSH1 0x40 MLOAD PUSH3 0x461BCD PUSH1 0xE5 SHL DUP2 MSTORE PUSH1 0x4 ADD PUSH2 0xCD2 SWAP1 PUSH2 0x43C4 JUMP JUMPDEST PUSH1 0x1 PUSH1 0x1 PUSH1 0xA0 SHL SUB DUP2 AND PUSH2 0x2924 JUMPI PUSH1 0x40 MLOAD PUSH3 0x461BCD PUSH1 0xE5 SHL DUP2 MSTORE PUSH1 0x4 ADD PUSH2 0xCD2 SWAP1 PUSH2 0x48CF JUMP JUMPDEST PUSH2 0x292F PUSH1 0x0 DUP3 PUSH2 0x1058 JUMP JUMPDEST POP PUSH1 0x1 DUP1 SLOAD PUSH1 0xFF NOT AND DUP2 OR SWAP1 SSTORE JUMP JUMPDEST PUSH1 0xD PUSH1 0x20 MSTORE PUSH1 0x0 SWAP1 DUP2 MSTORE PUSH1 0x40 SWAP1 KECCAK256 SLOAD DUP2 JUMP JUMPDEST PUSH1 0xC SLOAD PUSH1 0x1 PUSH1 0x1 PUSH1 0xA0 SHL SUB AND DUP2 JUMP JUMPDEST PUSH1 0x6 SLOAD PUSH1 0x1 PUSH1 0x80 SHL SWAP1 DIV PUSH1 0x1 PUSH1 0x1 PUSH1 0x80 SHL SUB AND SWAP1 JUMP JUMPDEST PUSH1 0x0 DUP1 MLOAD PUSH1 0x20 PUSH2 0x4EF8 DUP4 CODECOPY DUP2 MLOAD SWAP2 MSTORE DUP2 JUMP JUMPDEST PUSH1 0x0 PUSH2 0xD22 PUSH1 0x0 DUP1 MLOAD PUSH1 0x20 PUSH2 0x4EF8 DUP4 CODECOPY DUP2 MLOAD SWAP2 MSTORE DUP4 PUSH2 0x1D1C JUMP JUMPDEST PUSH1 0x0 PUSH1 0x60 DUP5 PUSH1 0x1 PUSH1 0x1 PUSH1 0xA0 SHL SUB AND PUSH4 0x23B872DD DUP6 ADDRESS DUP7 PUSH1 0x40 MLOAD PUSH1 0x24 ADD PUSH2 0x29C9 SWAP4 SWAP3 SWAP2 SWAP1 PUSH2 0x3F6C JUMP JUMPDEST PUSH1 0x40 MLOAD PUSH1 0x20 DUP2 DUP4 SUB SUB DUP2 MSTORE SWAP1 PUSH1 0x40 MSTORE SWAP1 PUSH1 0xE0 SHL PUSH1 0x20 DUP3 ADD DUP1 MLOAD PUSH1 0x1 PUSH1 0x1 PUSH1 0xE0 SHL SUB DUP4 DUP2 DUP4 AND OR DUP4 MSTORE POP POP POP POP PUSH1 0x40 MLOAD PUSH2 0x2A02 SWAP2 SWAP1 PUSH2 0x3ECC JUMP JUMPDEST PUSH1 0x0 PUSH1 0x40 MLOAD DUP1 DUP4 SUB DUP2 PUSH1 0x0 DUP7 GAS CALL SWAP2 POP POP RETURNDATASIZE DUP1 PUSH1 0x0 DUP2 EQ PUSH2 0x2A3F JUMPI PUSH1 0x40 MLOAD SWAP2 POP PUSH1 0x1F NOT PUSH1 0x3F RETURNDATASIZE ADD AND DUP3 ADD PUSH1 0x40 MSTORE RETURNDATASIZE DUP3 MSTORE RETURNDATASIZE PUSH1 0x0 PUSH1 0x20 DUP5 ADD RETURNDATACOPY PUSH2 0x2A44 JUMP JUMPDEST PUSH1 0x60 SWAP2 POP JUMPDEST POP SWAP2 POP SWAP2 POP DUP2 DUP1 ISZERO PUSH2 0x2A6E JUMPI POP DUP1 MLOAD ISZERO DUP1 PUSH2 0x2A6E JUMPI POP DUP1 DUP1 PUSH1 0x20 ADD SWAP1 MLOAD DUP2 ADD SWAP1 PUSH2 0x2A6E SWAP2 SWAP1 PUSH2 0x3C08 JUMP JUMPDEST PUSH2 0x2A77 JUMPI PUSH1 0x0 DUP1 REVERT JUMPDEST POP POP POP POP POP JUMP JUMPDEST PUSH1 0x6 SLOAD PUSH1 0x1 PUSH1 0x1 PUSH1 0x40 SHL SUB AND TIMESTAMP LT DUP1 ISZERO SWAP1 PUSH2 0x2AAB JUMPI POP PUSH1 0x6 SLOAD PUSH1 0x1 PUSH1 0x40 SHL SWAP1 DIV PUSH1 0x1 PUSH1 0x1 PUSH1 0x40 SHL SUB AND TIMESTAMP GT ISZERO JUMPDEST PUSH2 0x2AC7 JUMPI PUSH1 0x40 MLOAD PUSH3 0x461BCD PUSH1 0xE5 SHL DUP2 MSTORE PUSH1 0x4 ADD PUSH2 0xCD2 SWAP1 PUSH2 0x48F8 JUMP JUMPDEST PUSH1 0x1 PUSH1 0x1 PUSH1 0xA0 SHL SUB DUP3 AND PUSH1 0x0 SWAP1 DUP2 MSTORE PUSH1 0xD PUSH1 0x20 MSTORE PUSH1 0x40 DUP2 KECCAK256 SLOAD PUSH1 0x8 SWAP2 SWAP1 PUSH2 0x2AEE SWAP1 DUP5 PUSH2 0x2D47 JUMP JUMPDEST DUP3 SLOAD SWAP1 SWAP2 POP PUSH1 0x1 PUSH1 0x88 SHL SWAP1 DIV PUSH1 0xFF AND ISZERO PUSH2 0x2B8D JUMPI PUSH1 0xC SLOAD PUSH1 0x40 MLOAD PUSH4 0x1CD53D55 PUSH1 0xE0 SHL DUP2 MSTORE PUSH1 0x1 PUSH1 0x1 PUSH1 0xA0 SHL SUB SWAP1 SWAP2 AND SWAP1 PUSH4 0x1CD53D55 SWAP1 PUSH2 0x2B34 SWAP1 DUP8 SWAP1 DUP6 SWAP1 PUSH1 0x4 ADD PUSH2 0x4030 JUMP JUMPDEST PUSH1 0x20 PUSH1 0x40 MLOAD DUP1 DUP4 SUB DUP2 DUP7 DUP1 EXTCODESIZE ISZERO DUP1 ISZERO PUSH2 0x2B4C JUMPI PUSH1 0x0 DUP1 REVERT JUMPDEST POP GAS STATICCALL ISZERO DUP1 ISZERO PUSH2 0x2B60 JUMPI RETURNDATASIZE PUSH1 0x0 DUP1 RETURNDATACOPY RETURNDATASIZE PUSH1 0x0 REVERT JUMPDEST POP POP POP POP PUSH1 0x40 MLOAD RETURNDATASIZE PUSH1 0x1F NOT PUSH1 0x1F DUP3 ADD AND DUP3 ADD DUP1 PUSH1 0x40 MSTORE POP DUP2 ADD SWAP1 PUSH2 0x2B84 SWAP2 SWAP1 PUSH2 0x3C08 JUMP JUMPDEST PUSH2 0x2B8D JUMPI PUSH1 0x0 DUP1 REVERT JUMPDEST PUSH1 0x1 PUSH1 0x1 PUSH1 0xA0 SHL SUB DUP5 AND PUSH1 0x0 SWAP1 DUP2 MSTORE PUSH1 0xD PUSH1 0x20 MSTORE PUSH1 0x40 SWAP1 KECCAK256 DUP2 SWAP1 SSTORE DUP2 SLOAD PUSH2 0x2BC6 SWAP1 PUSH2 0x2BC1 SWAP1 PUSH1 0x1 PUSH1 0x1 PUSH1 0x80 SHL SUB AND DUP6 PUSH2 0x2D47 JUMP JUMPDEST PUSH2 0x2C21 JUMP JUMPDEST DUP3 SLOAD PUSH1 0x1 PUSH1 0x1 PUSH1 0x80 SHL SUB NOT AND PUSH1 0x1 PUSH1 0x1 PUSH1 0x80 SHL SUB SWAP2 SWAP1 SWAP2 AND OR DUP3 SSTORE PUSH1 0x40 MLOAD PUSH32 0x77511A636BA1F10551CC7B89C13FF66A6AC9344E8A917527817A9690B15AF7A SWAP1 PUSH2 0x2C13 SWAP1 DUP7 SWAP1 DUP7 SWAP1 PUSH2 0x4030 JUMP JUMPDEST PUSH1 0x40 MLOAD DUP1 SWAP2 SUB SWAP1 LOG1 POP POP POP POP JUMP JUMPDEST PUSH1 0x0 PUSH1 0x1 PUSH1 0x1 PUSH1 0x80 SHL SUB DUP3 GT ISZERO PUSH2 0x2C4A JUMPI PUSH1 0x40 MLOAD PUSH3 0x461BCD PUSH1 0xE5 SHL DUP2 MSTORE PUSH1 0x4 ADD PUSH2 0xCD2 SWAP1 PUSH2 0x47B1 JUMP JUMPDEST POP SWAP1 JUMP JUMPDEST DUP1 DUP3 SUB DUP3 DUP2 GT ISZERO PUSH2 0x1CEB JUMPI PUSH1 0x40 MLOAD PUSH3 0x461BCD PUSH1 0xE5 SHL DUP2 MSTORE PUSH1 0x4 ADD PUSH2 0xCD2 SWAP1 PUSH2 0x4318 JUMP JUMPDEST CALLER SWAP1 JUMP JUMPDEST PUSH1 0x0 DUP3 DUP2 MSTORE PUSH1 0x20 DUP2 SWAP1 MSTORE PUSH1 0x40 SWAP1 KECCAK256 PUSH2 0x2C8D SWAP1 DUP3 PUSH2 0x3511 JUMP JUMPDEST ISZERO PUSH2 0x1062 JUMPI PUSH2 0x2C9A PUSH2 0x2C71 JUMP JUMPDEST PUSH1 0x1 PUSH1 0x1 PUSH1 0xA0 SHL SUB AND DUP2 PUSH1 0x1 PUSH1 0x1 PUSH1 0xA0 SHL SUB AND DUP4 PUSH32 0x2F8788117E7EFF1D82E926EC794901D17C78024A50270940304540A733656F0D PUSH1 0x40 MLOAD PUSH1 0x40 MLOAD DUP1 SWAP2 SUB SWAP1 LOG4 POP POP JUMP JUMPDEST PUSH1 0x0 DUP3 DUP2 MSTORE PUSH1 0x20 DUP2 SWAP1 MSTORE PUSH1 0x40 SWAP1 KECCAK256 PUSH2 0x2CF6 SWAP1 DUP3 PUSH2 0x3526 JUMP JUMPDEST ISZERO PUSH2 0x1062 JUMPI PUSH2 0x2D03 PUSH2 0x2C71 JUMP JUMPDEST PUSH1 0x1 PUSH1 0x1 PUSH1 0xA0 SHL SUB AND DUP2 PUSH1 0x1 PUSH1 0x1 PUSH1 0xA0 SHL SUB AND DUP4 PUSH32 0xF6391F5C32D9C69D2A47EA670B442974B53935D1EDC7FD64EB21E047A839171B PUSH1 0x40 MLOAD PUSH1 0x40 MLOAD DUP1 SWAP2 SUB SWAP1 LOG4 POP POP JUMP JUMPDEST DUP2 DUP2 ADD DUP2 DUP2 LT ISZERO PUSH2 0x1CEB JUMPI PUSH1 0x40 MLOAD PUSH3 0x461BCD PUSH1 0xE5 SHL DUP2 MSTORE PUSH1 0x4 ADD PUSH2 0xCD2 SWAP1 PUSH2 0x4861 JUMP JUMPDEST PUSH1 0x1 PUSH1 0x1 PUSH1 0xA0 SHL SUB DUP4 AND PUSH20 0xEEEEEEEEEEEEEEEEEEEEEEEEEEEEEEEEEEEEEEEE EQ ISZERO PUSH2 0x2D9E JUMPI PUSH2 0x2D99 DUP3 DUP3 PUSH2 0x353B JUMP JUMPDEST PUSH2 0x2DA9 JUMP JUMPDEST PUSH2 0x2DA9 DUP4 DUP4 DUP4 PUSH2 0x35C8 JUMP JUMPDEST POP POP POP JUMP JUMPDEST PUSH1 0x0 DUP2 ISZERO DUP1 PUSH2 0x2DC9 JUMPI POP POP DUP1 DUP3 MUL DUP3 DUP3 DUP3 DUP2 PUSH2 0x2DC6 JUMPI INVALID JUMPDEST DIV EQ JUMPDEST PUSH2 0x1CEB JUMPI PUSH1 0x40 MLOAD PUSH3 0x461BCD PUSH1 0xE5 SHL DUP2 MSTORE PUSH1 0x4 ADD PUSH2 0xCD2 SWAP1 PUSH2 0x4C5A JUMP JUMPDEST PUSH1 0x0 DUP1 DUP3 GT PUSH2 0x2E06 JUMPI PUSH1 0x40 MLOAD PUSH3 0x461BCD PUSH1 0xE5 SHL DUP2 MSTORE PUSH1 0x4 ADD PUSH2 0xCD2 SWAP1 PUSH2 0x4D84 JUMP JUMPDEST DUP2 DUP4 DUP2 PUSH2 0x2E0F JUMPI INVALID JUMPDEST DIV SWAP4 SWAP3 POP POP POP JUMP JUMPDEST PUSH1 0x0 PUSH1 0x1 PUSH1 0x1 PUSH1 0x40 SHL SUB DUP3 GT ISZERO PUSH2 0x2C4A JUMPI PUSH1 0x40 MLOAD PUSH3 0x461BCD PUSH1 0xE5 SHL DUP2 MSTORE PUSH1 0x4 ADD PUSH2 0xCD2 SWAP1 PUSH2 0x493B JUMP JUMPDEST PUSH1 0x0 PUSH2 0x1CE8 DUP4 DUP4 PUSH2 0x35EE JUMP JUMPDEST PUSH1 0x0 PUSH2 0x1CE8 DUP4 PUSH1 0x1 PUSH1 0x1 PUSH1 0xA0 SHL SUB DUP5 AND PUSH2 0x3633 JUMP JUMPDEST DUP3 PUSH2 0x2E7E JUMPI PUSH1 0x40 MLOAD PUSH3 0x461BCD PUSH1 0xE5 SHL DUP2 MSTORE PUSH1 0x4 ADD PUSH2 0xCD2 SWAP1 PUSH2 0x4898 JUMP JUMPDEST DUP1 PUSH2 0x2E9B JUMPI PUSH1 0x40 MLOAD PUSH3 0x461BCD PUSH1 0xE5 SHL DUP2 MSTORE PUSH1 0x4 ADD PUSH2 0xCD2 SWAP1 PUSH2 0x4B04 JUMP JUMPDEST PUSH1 0x0 PUSH1 0x1 PUSH1 0x1 PUSH1 0x40 SHL SUB AND PUSH1 0x2 DUP6 DUP6 PUSH1 0x40 MLOAD PUSH2 0x2EB8 SWAP3 SWAP2 SWAP1 PUSH2 0x3EBC JUMP JUMPDEST SWAP1 DUP2 MSTORE PUSH1 0x40 MLOAD SWAP1 DUP2 SWAP1 SUB PUSH1 0x20 ADD SWAP1 KECCAK256 SLOAD PUSH1 0x1 PUSH1 0x1 PUSH1 0x40 SHL SUB PUSH5 0x100000000 SWAP1 SWAP2 DIV AND EQ ISZERO PUSH2 0x2F5E JUMPI PUSH1 0x4 DUP1 SLOAD PUSH1 0x1 DUP2 ADD DUP3 SSTORE PUSH1 0x0 SWAP2 SWAP1 SWAP2 MSTORE PUSH2 0x2F1D SWAP1 PUSH32 0x8A35ACFBC15FF81A39AE7D344FD709F28E8600B4AA8C65C6B64BFE7FE36BD19B ADD DUP6 DUP6 PUSH2 0x3796 JUMP JUMPDEST POP PUSH1 0x4 SLOAD PUSH1 0x40 MLOAD PUSH1 0x2 SWAP1 PUSH2 0x2F34 SWAP1 DUP8 SWAP1 DUP8 SWAP1 PUSH2 0x3EBC JUMP JUMPDEST SWAP1 DUP2 MSTORE PUSH1 0x40 MLOAD SWAP1 DUP2 SWAP1 SUB PUSH1 0x20 ADD SWAP1 KECCAK256 DUP1 SLOAD PUSH4 0xFFFFFFFF SWAP3 SWAP1 SWAP3 AND PUSH4 0xFFFFFFFF NOT SWAP1 SWAP3 AND SWAP2 SWAP1 SWAP2 OR SWAP1 SSTORE JUMPDEST PUSH1 0x40 MLOAD DUP1 PUSH1 0x60 ADD PUSH1 0x40 MSTORE DUP1 PUSH1 0x2 DUP7 DUP7 PUSH1 0x40 MLOAD PUSH2 0x2F7B SWAP3 SWAP2 SWAP1 PUSH2 0x3EBC JUMP JUMPDEST SWAP1 DUP2 MSTORE PUSH1 0x40 DUP1 MLOAD PUSH1 0x20 SWAP3 DUP2 SWAP1 SUB DUP4 ADD SWAP1 KECCAK256 SLOAD PUSH4 0xFFFFFFFF AND DUP4 MSTORE TIMESTAMP PUSH1 0x1 PUSH1 0x1 PUSH1 0x40 SHL SUB AND DUP4 DUP4 ADD MSTORE DUP1 MLOAD PUSH1 0x1F DUP7 ADD DUP4 SWAP1 DIV DUP4 MUL DUP2 ADD DUP4 ADD DUP3 MSTORE DUP6 DUP2 MSTORE SWAP3 ADD SWAP2 SWAP1 DUP6 SWAP1 DUP6 SWAP1 DUP2 SWAP1 DUP5 ADD DUP4 DUP3 DUP1 DUP3 DUP5 CALLDATACOPY PUSH1 0x0 SWAP3 ADD SWAP2 SWAP1 SWAP2 MSTORE POP POP POP SWAP2 MSTORE POP PUSH1 0x40 MLOAD PUSH1 0x2 SWAP1 PUSH2 0x2FEA SWAP1 DUP8 SWAP1 DUP8 SWAP1 PUSH2 0x3EBC JUMP JUMPDEST SWAP1 DUP2 MSTORE PUSH1 0x40 DUP1 MLOAD SWAP2 DUP3 SWAP1 SUB PUSH1 0x20 SWAP1 DUP2 ADD SWAP1 SWAP3 KECCAK256 DUP4 MLOAD DUP2 SLOAD DUP6 DUP6 ADD MLOAD PUSH1 0x1 PUSH1 0x1 PUSH1 0x40 SHL SUB AND PUSH5 0x100000000 MUL PUSH12 0xFFFFFFFFFFFFFFFF00000000 NOT PUSH4 0xFFFFFFFF SWAP1 SWAP4 AND PUSH4 0xFFFFFFFF NOT SWAP1 SWAP3 AND SWAP2 SWAP1 SWAP2 OR SWAP2 SWAP1 SWAP2 AND OR DUP2 SSTORE SWAP1 DUP4 ADD MLOAD DUP1 MLOAD SWAP2 SWAP3 PUSH2 0x3059 SWAP3 PUSH1 0x1 DUP6 ADD SWAP3 SWAP1 SWAP2 ADD SWAP1 PUSH2 0x3810 JUMP JUMPDEST POP POP PUSH1 0x40 MLOAD PUSH2 0x306C SWAP2 POP DUP6 SWAP1 DUP6 SWAP1 PUSH2 0x3EBC JUMP JUMPDEST PUSH1 0x40 MLOAD DUP1 SWAP2 SUB SWAP1 KECCAK256 PUSH32 0xBAA206E5EA800EB88BCE099F453FEE53295B793B9D5D1CFC4CE4B6DB06A34F53 DUP4 DUP4 PUSH1 0x40 MLOAD PUSH2 0x30A5 SWAP3 SWAP2 SWAP1 PUSH2 0x419C JUMP JUMPDEST PUSH1 0x40 MLOAD DUP1 SWAP2 SUB SWAP1 LOG2 POP POP POP POP JUMP JUMPDEST PUSH1 0x0 PUSH2 0x30BD PUSH2 0x375F JUMP JUMPDEST POP PUSH1 0x40 DUP1 MLOAD PUSH1 0x60 DUP2 ADD DUP3 MSTORE PUSH1 0x6 SLOAD PUSH1 0x1 PUSH1 0x1 PUSH1 0x40 SHL SUB DUP1 DUP3 AND DUP4 MSTORE PUSH1 0x1 PUSH1 0x40 SHL DUP3 DIV AND PUSH1 0x20 DUP4 ADD MSTORE PUSH1 0x1 PUSH1 0x80 SHL SWAP1 DIV PUSH1 0x1 PUSH1 0x1 PUSH1 0x80 SHL SUB AND SWAP2 DUP2 ADD SWAP2 SWAP1 SWAP2 MSTORE PUSH2 0x3104 PUSH2 0x377F JUMP JUMPDEST POP PUSH1 0x40 DUP1 MLOAD DUP1 DUP3 ADD SWAP1 SWAP2 MSTORE PUSH1 0x7 SLOAD PUSH1 0x1 PUSH1 0x1 PUSH1 0x80 SHL SUB DUP1 DUP3 AND DUP4 MSTORE PUSH1 0x1 PUSH1 0x80 SHL SWAP1 SWAP2 DIV AND PUSH1 0x20 DUP1 DUP4 ADD SWAP2 SWAP1 SWAP2 MSTORE DUP3 MLOAD SWAP1 DUP4 ADD MLOAD PUSH1 0x0 SWAP2 PUSH2 0x314D SWAP2 PUSH1 0x1 PUSH1 0x1 PUSH1 0x40 SHL SUB AND SWAP1 PUSH2 0x32B1 JUMP JUMPDEST PUSH1 0x1 PUSH1 0x1 PUSH1 0x40 SHL SUB AND PUSH2 0x31AC PUSH2 0x317D DUP5 PUSH1 0x20 ADD MLOAD DUP6 PUSH1 0x0 ADD MLOAD PUSH1 0x1 PUSH1 0x1 PUSH1 0x80 SHL SUB AND PUSH2 0x3282 SWAP1 SWAP2 SWAP1 PUSH4 0xFFFFFFFF AND JUMP JUMPDEST PUSH1 0x1 PUSH1 0x1 PUSH1 0x80 SHL SUB AND PUSH2 0x31A6 DUP7 PUSH1 0x0 ADD MLOAD PUSH1 0x1 PUSH1 0x1 PUSH1 0x40 SHL SUB AND TIMESTAMP PUSH2 0x2C4E SWAP1 SWAP2 SWAP1 PUSH4 0xFFFFFFFF AND JUMP JUMPDEST SWAP1 PUSH2 0x2DAE JUMP JUMPDEST DUP2 PUSH2 0x31B3 JUMPI INVALID JUMPDEST DUP4 MLOAD SWAP2 SWAP1 DIV SWAP2 POP PUSH2 0x31CD SWAP1 PUSH1 0x1 PUSH1 0x1 PUSH1 0x80 SHL SUB AND DUP3 PUSH2 0x2C4E JUMP JUMPDEST SWAP4 POP POP POP POP SWAP1 JUMP JUMPDEST PUSH1 0x1 PUSH1 0x1 PUSH1 0xA0 SHL SUB DUP2 AND ISZERO PUSH2 0x275F JUMPI PUSH1 0xC DUP1 SLOAD PUSH1 0x1 PUSH1 0x1 PUSH1 0xA0 SHL SUB DUP4 AND PUSH1 0x1 PUSH1 0x1 PUSH1 0xA0 SHL SUB NOT SWAP1 SWAP2 AND OR SWAP1 SSTORE PUSH1 0x8 DUP1 SLOAD PUSH1 0xFF PUSH1 0x88 SHL NOT AND PUSH1 0x1 PUSH1 0x88 SHL OR SWAP1 SSTORE POP JUMP JUMPDEST PUSH1 0x0 PUSH2 0xD22 DUP3 PUSH2 0x364B JUMP JUMPDEST PUSH1 0x60 PUSH1 0x44 DUP3 MLOAD LT ISZERO PUSH2 0x3268 JUMPI POP PUSH1 0x40 DUP1 MLOAD DUP1 DUP3 ADD SWAP1 SWAP2 MSTORE PUSH1 0x1D DUP2 MSTORE PUSH32 0x5472616E73616374696F6E2072657665727465642073696C656E746C79000000 PUSH1 0x20 DUP3 ADD MSTORE PUSH2 0xD25 JUMP JUMPDEST PUSH1 0x4 DUP3 ADD SWAP2 POP DUP2 DUP1 PUSH1 0x20 ADD SWAP1 MLOAD DUP2 ADD SWAP1 PUSH2 0xD22 SWAP2 SWAP1 PUSH2 0x3D9E JUMP JUMPDEST DUP1 DUP3 SUB PUSH1 0x1 PUSH1 0x1 PUSH1 0x80 SHL SUB DUP1 DUP5 AND SWAP1 DUP3 AND GT ISZERO PUSH2 0x1CEB JUMPI PUSH1 0x40 MLOAD PUSH3 0x461BCD PUSH1 0xE5 SHL DUP2 MSTORE PUSH1 0x4 ADD PUSH2 0xCD2 SWAP1 PUSH2 0x4318 JUMP JUMPDEST DUP1 DUP3 SUB PUSH1 0x1 PUSH1 0x1 PUSH1 0x40 SHL SUB DUP1 DUP5 AND SWAP1 DUP3 AND GT ISZERO PUSH2 0x1CEB JUMPI PUSH1 0x40 MLOAD PUSH3 0x461BCD PUSH1 0xE5 SHL DUP2 MSTORE PUSH1 0x4 ADD PUSH2 0xCD2 SWAP1 PUSH2 0x4318 JUMP JUMPDEST PUSH1 0x0 PUSH1 0x1 PUSH1 0x1 PUSH1 0x40 SHL SUB AND PUSH1 0x2 DUP4 DUP4 PUSH1 0x40 MLOAD PUSH2 0x32FD SWAP3 SWAP2 SWAP1 PUSH2 0x3EBC JUMP JUMPDEST SWAP1 DUP2 MSTORE PUSH1 0x40 MLOAD SWAP1 DUP2 SWAP1 SUB PUSH1 0x20 ADD SWAP1 KECCAK256 SLOAD PUSH1 0x1 PUSH1 0x1 PUSH1 0x40 SHL SUB PUSH5 0x100000000 SWAP1 SWAP2 DIV AND EQ ISZERO PUSH2 0x333D JUMPI PUSH1 0x40 MLOAD PUSH3 0x461BCD PUSH1 0xE5 SHL DUP2 MSTORE PUSH1 0x4 ADD PUSH2 0xCD2 SWAP1 PUSH2 0x472E JUMP JUMPDEST PUSH1 0x0 PUSH1 0x1 PUSH1 0x2 DUP5 DUP5 PUSH1 0x40 MLOAD PUSH2 0x3353 SWAP3 SWAP2 SWAP1 PUSH2 0x3EBC JUMP JUMPDEST SWAP1 DUP2 MSTORE PUSH1 0x40 MLOAD SWAP1 DUP2 SWAP1 SUB PUSH1 0x20 ADD SWAP1 KECCAK256 SLOAD PUSH1 0x4 SLOAD PUSH4 0xFFFFFFFF SWAP2 DUP3 AND SWAP3 SWAP1 SWAP3 SUB SWAP3 POP DUP3 AND PUSH1 0x0 NOT SWAP1 SWAP2 ADD EQ PUSH2 0x3434 JUMPI PUSH1 0x4 DUP1 SLOAD PUSH1 0x0 NOT DUP2 ADD SWAP1 DUP2 LT PUSH2 0x3393 JUMPI INVALID JUMPDEST SWAP1 PUSH1 0x0 MSTORE PUSH1 0x20 PUSH1 0x0 KECCAK256 ADD PUSH1 0x4 DUP3 PUSH4 0xFFFFFFFF AND DUP2 SLOAD DUP2 LT PUSH2 0x33B0 JUMPI INVALID JUMPDEST SWAP1 PUSH1 0x0 MSTORE PUSH1 0x20 PUSH1 0x0 KECCAK256 ADD SWAP1 DUP1 SLOAD PUSH1 0x1 DUP2 PUSH1 0x1 AND ISZERO PUSH2 0x100 MUL SUB AND PUSH1 0x2 SWAP1 DIV PUSH2 0x33D9 SWAP3 SWAP2 SWAP1 PUSH2 0x387E JUMP JUMPDEST POP DUP1 PUSH1 0x1 ADD PUSH1 0x2 PUSH1 0x4 DUP4 PUSH4 0xFFFFFFFF AND DUP2 SLOAD DUP2 LT PUSH2 0x33F3 JUMPI INVALID JUMPDEST SWAP1 PUSH1 0x0 MSTORE PUSH1 0x20 PUSH1 0x0 KECCAK256 ADD PUSH1 0x40 MLOAD PUSH2 0x340A SWAP2 SWAP1 PUSH2 0x3EE8 JUMP JUMPDEST SWAP1 DUP2 MSTORE PUSH1 0x40 MLOAD SWAP1 DUP2 SWAP1 SUB PUSH1 0x20 ADD SWAP1 KECCAK256 DUP1 SLOAD PUSH4 0xFFFFFFFF SWAP3 SWAP1 SWAP3 AND PUSH4 0xFFFFFFFF NOT SWAP1 SWAP3 AND SWAP2 SWAP1 SWAP2 OR SWAP1 SSTORE JUMPDEST PUSH1 0x4 DUP1 SLOAD DUP1 PUSH2 0x343F JUMPI INVALID JUMPDEST PUSH1 0x1 SWAP1 SUB DUP2 DUP2 SWAP1 PUSH1 0x0 MSTORE PUSH1 0x20 PUSH1 0x0 KECCAK256 ADD PUSH1 0x0 PUSH2 0x345B SWAP2 SWAP1 PUSH2 0x38F3 JUMP JUMPDEST SWAP1 SSTORE DUP3 DUP3 PUSH1 0x40 MLOAD PUSH2 0x346D SWAP3 SWAP2 SWAP1 PUSH2 0x3EBC JUMP JUMPDEST PUSH1 0x40 MLOAD DUP1 SWAP2 SUB SWAP1 KECCAK256 PUSH32 0x4B5338540B4D1C0F6DD0308A25F633B7FF60472F894D711CFF9DD64E35C613B2 PUSH1 0x2 DUP6 DUP6 PUSH1 0x40 MLOAD PUSH2 0x34A8 SWAP3 SWAP2 SWAP1 PUSH2 0x3EBC JUMP JUMPDEST SWAP1 DUP2 MSTORE PUSH1 0x20 ADD PUSH1 0x40 MLOAD DUP1 SWAP2 SUB SWAP1 KECCAK256 PUSH1 0x1 ADD PUSH1 0x40 MLOAD PUSH2 0x34C6 SWAP2 SWAP1 PUSH2 0x41ED JUMP JUMPDEST PUSH1 0x40 MLOAD DUP1 SWAP2 SUB SWAP1 LOG2 PUSH1 0x2 DUP4 DUP4 PUSH1 0x40 MLOAD PUSH2 0x34E0 SWAP3 SWAP2 SWAP1 PUSH2 0x3EBC JUMP JUMPDEST SWAP1 DUP2 MSTORE PUSH1 0x40 MLOAD SWAP1 DUP2 SWAP1 SUB PUSH1 0x20 ADD SWAP1 KECCAK256 DUP1 SLOAD PUSH12 0xFFFFFFFFFFFFFFFFFFFFFFFF NOT AND DUP2 SSTORE PUSH1 0x0 PUSH2 0x2A77 PUSH1 0x1 DUP4 ADD DUP3 PUSH2 0x38F3 JUMP JUMPDEST PUSH1 0x0 PUSH2 0x1CE8 DUP4 PUSH1 0x1 PUSH1 0x1 PUSH1 0xA0 SHL SUB DUP5 AND PUSH2 0x364F JUMP JUMPDEST PUSH1 0x0 PUSH2 0x1CE8 DUP4 PUSH1 0x1 PUSH1 0x1 PUSH1 0xA0 SHL SUB DUP5 AND PUSH2 0x3699 JUMP JUMPDEST PUSH1 0x40 DUP1 MLOAD PUSH1 0x0 DUP1 DUP3 MSTORE PUSH1 0x20 DUP3 ADD SWAP1 SWAP3 MSTORE PUSH1 0x1 PUSH1 0x1 PUSH1 0xA0 SHL SUB DUP5 AND SWAP1 DUP4 SWAP1 PUSH1 0x40 MLOAD PUSH2 0x3565 SWAP2 SWAP1 PUSH2 0x3ECC JUMP JUMPDEST PUSH1 0x0 PUSH1 0x40 MLOAD DUP1 DUP4 SUB DUP2 DUP6 DUP8 GAS CALL SWAP3 POP POP POP RETURNDATASIZE DUP1 PUSH1 0x0 DUP2 EQ PUSH2 0x35A2 JUMPI PUSH1 0x40 MLOAD SWAP2 POP PUSH1 0x1F NOT PUSH1 0x3F RETURNDATASIZE ADD AND DUP3 ADD PUSH1 0x40 MSTORE RETURNDATASIZE DUP3 MSTORE RETURNDATASIZE PUSH1 0x0 PUSH1 0x20 DUP5 ADD RETURNDATACOPY PUSH2 0x35A7 JUMP JUMPDEST PUSH1 0x60 SWAP2 POP JUMPDEST POP POP SWAP1 POP DUP1 PUSH2 0x2DA9 JUMPI PUSH1 0x40 MLOAD PUSH3 0x461BCD PUSH1 0xE5 SHL DUP2 MSTORE PUSH1 0x4 ADD PUSH2 0xCD2 SWAP1 PUSH2 0x4A94 JUMP JUMPDEST PUSH1 0x0 PUSH1 0x60 DUP5 PUSH1 0x1 PUSH1 0x1 PUSH1 0xA0 SHL SUB AND PUSH4 0xA9059CBB DUP6 DUP6 PUSH1 0x40 MLOAD PUSH1 0x24 ADD PUSH2 0x29C9 SWAP3 SWAP2 SWAP1 PUSH2 0x4030 JUMP JUMPDEST DUP2 SLOAD PUSH1 0x0 SWAP1 DUP3 LT PUSH2 0x3611 JUMPI PUSH1 0x40 MLOAD PUSH3 0x461BCD PUSH1 0xE5 SHL DUP2 MSTORE PUSH1 0x4 ADD PUSH2 0xCD2 SWAP1 PUSH2 0x43F1 JUMP JUMPDEST DUP3 PUSH1 0x0 ADD DUP3 DUP2 SLOAD DUP2 LT PUSH2 0x3620 JUMPI INVALID JUMPDEST SWAP1 PUSH1 0x0 MSTORE PUSH1 0x20 PUSH1 0x0 KECCAK256 ADD SLOAD SWAP1 POP SWAP3 SWAP2 POP POP JUMP JUMPDEST PUSH1 0x0 SWAP1 DUP2 MSTORE PUSH1 0x1 SWAP2 SWAP1 SWAP2 ADD PUSH1 0x20 MSTORE PUSH1 0x40 SWAP1 KECCAK256 SLOAD ISZERO ISZERO SWAP1 JUMP JUMPDEST SLOAD SWAP1 JUMP JUMPDEST PUSH1 0x0 PUSH2 0x365B DUP4 DUP4 PUSH2 0x3633 JUMP JUMPDEST PUSH2 0x3691 JUMPI POP DUP2 SLOAD PUSH1 0x1 DUP2 DUP2 ADD DUP5 SSTORE PUSH1 0x0 DUP5 DUP2 MSTORE PUSH1 0x20 DUP1 DUP3 KECCAK256 SWAP1 SWAP4 ADD DUP5 SWAP1 SSTORE DUP5 SLOAD DUP5 DUP3 MSTORE DUP3 DUP7 ADD SWAP1 SWAP4 MSTORE PUSH1 0x40 SWAP1 KECCAK256 SWAP2 SWAP1 SWAP2 SSTORE PUSH2 0x1CEB JUMP JUMPDEST POP PUSH1 0x0 PUSH2 0x1CEB JUMP JUMPDEST PUSH1 0x0 DUP2 DUP2 MSTORE PUSH1 0x1 DUP4 ADD PUSH1 0x20 MSTORE PUSH1 0x40 DUP2 KECCAK256 SLOAD DUP1 ISZERO PUSH2 0x3755 JUMPI DUP4 SLOAD PUSH1 0x0 NOT DUP1 DUP4 ADD SWAP2 SWAP1 DUP2 ADD SWAP1 PUSH1 0x0 SWAP1 DUP8 SWAP1 DUP4 SWAP1 DUP2 LT PUSH2 0x36CC JUMPI INVALID JUMPDEST SWAP1 PUSH1 0x0 MSTORE PUSH1 0x20 PUSH1 0x0 KECCAK256 ADD SLOAD SWAP1 POP DUP1 DUP8 PUSH1 0x0 ADD DUP5 DUP2 SLOAD DUP2 LT PUSH2 0x36E9 JUMPI INVALID JUMPDEST PUSH1 0x0 SWAP2 DUP3 MSTORE PUSH1 0x20 DUP1 DUP4 KECCAK256 SWAP1 SWAP2 ADD SWAP3 SWAP1 SWAP3 SSTORE DUP3 DUP2 MSTORE PUSH1 0x1 DUP10 DUP2 ADD SWAP1 SWAP3 MSTORE PUSH1 0x40 SWAP1 KECCAK256 SWAP1 DUP5 ADD SWAP1 SSTORE DUP7 SLOAD DUP8 SWAP1 DUP1 PUSH2 0x3719 JUMPI INVALID JUMPDEST PUSH1 0x1 SWAP1 SUB DUP2 DUP2 SWAP1 PUSH1 0x0 MSTORE PUSH1 0x20 PUSH1 0x0 KECCAK256 ADD PUSH1 0x0 SWAP1 SSTORE SWAP1 SSTORE DUP7 PUSH1 0x1 ADD PUSH1 0x0 DUP8 DUP2 MSTORE PUSH1 0x20 ADD SWAP1 DUP2 MSTORE PUSH1 0x20 ADD PUSH1 0x0 KECCAK256 PUSH1 0x0 SWAP1 SSTORE PUSH1 0x1 SWAP5 POP POP POP POP POP PUSH2 0x1CEB JUMP JUMPDEST PUSH1 0x0 SWAP2 POP POP PUSH2 0x1CEB JUMP JUMPDEST PUSH1 0x40 DUP1 MLOAD PUSH1 0x60 DUP2 ADD DUP3 MSTORE PUSH1 0x0 DUP1 DUP3 MSTORE PUSH1 0x20 DUP3 ADD DUP2 SWAP1 MSTORE SWAP2 DUP2 ADD SWAP2 SWAP1 SWAP2 MSTORE SWAP1 JUMP JUMPDEST PUSH1 0x40 DUP1 MLOAD DUP1 DUP3 ADD SWAP1 SWAP2 MSTORE PUSH1 0x0 DUP1 DUP3 MSTORE PUSH1 0x20 DUP3 ADD MSTORE SWAP1 JUMP JUMPDEST DUP3 DUP1 SLOAD PUSH1 0x1 DUP2 PUSH1 0x1 AND ISZERO PUSH2 0x100 MUL SUB AND PUSH1 0x2 SWAP1 DIV SWAP1 PUSH1 0x0 MSTORE PUSH1 0x20 PUSH1 0x0 KECCAK256 SWAP1 PUSH1 0x1F ADD PUSH1 0x20 SWAP1 DIV DUP2 ADD SWAP3 DUP3 PUSH1 0x1F LT PUSH2 0x37D7 JUMPI DUP3 DUP1 ADD PUSH1 0xFF NOT DUP3 CALLDATALOAD AND OR DUP6 SSTORE PUSH2 0x3804 JUMP JUMPDEST DUP3 DUP1 ADD PUSH1 0x1 ADD DUP6 SSTORE DUP3 ISZERO PUSH2 0x3804 JUMPI SWAP2 DUP3 ADD JUMPDEST DUP3 DUP2 GT ISZERO PUSH2 0x3804 JUMPI DUP3 CALLDATALOAD DUP3 SSTORE SWAP2 PUSH1 0x20 ADD SWAP2 SWAP1 PUSH1 0x1 ADD SWAP1 PUSH2 0x37E9 JUMP JUMPDEST POP PUSH2 0x2C4A SWAP3 SWAP2 POP PUSH2 0x3933 JUMP JUMPDEST DUP3 DUP1 SLOAD PUSH1 0x1 DUP2 PUSH1 0x1 AND ISZERO PUSH2 0x100 MUL SUB AND PUSH1 0x2 SWAP1 DIV SWAP1 PUSH1 0x0 MSTORE PUSH1 0x20 PUSH1 0x0 KECCAK256 SWAP1 PUSH1 0x1F ADD PUSH1 0x20 SWAP1 DIV DUP2 ADD SWAP3 DUP3 PUSH1 0x1F LT PUSH2 0x3851 JUMPI DUP1 MLOAD PUSH1 0xFF NOT AND DUP4 DUP1 ADD OR DUP6 SSTORE PUSH2 0x3804 JUMP JUMPDEST DUP3 DUP1 ADD PUSH1 0x1 ADD DUP6 SSTORE DUP3 ISZERO PUSH2 0x3804 JUMPI SWAP2 DUP3 ADD JUMPDEST DUP3 DUP2 GT ISZERO PUSH2 0x3804 JUMPI DUP3 MLOAD DUP3 SSTORE SWAP2 PUSH1 0x20 ADD SWAP2 SWAP1 PUSH1 0x1 ADD SWAP1 PUSH2 0x3863 JUMP JUMPDEST DUP3 DUP1 SLOAD PUSH1 0x1 DUP2 PUSH1 0x1 AND ISZERO PUSH2 0x100 MUL SUB AND PUSH1 0x2 SWAP1 DIV SWAP1 PUSH1 0x0 MSTORE PUSH1 0x20 PUSH1 0x0 KECCAK256 SWAP1 PUSH1 0x1F ADD PUSH1 0x20 SWAP1 DIV DUP2 ADD SWAP3 DUP3 PUSH1 0x1F LT PUSH2 0x38B7 JUMPI DUP1 SLOAD DUP6 SSTORE PUSH2 0x3804 JUMP JUMPDEST DUP3 DUP1 ADD PUSH1 0x1 ADD DUP6 SSTORE DUP3 ISZERO PUSH2 0x3804 JUMPI PUSH1 0x0 MSTORE PUSH1 0x20 PUSH1 0x0 KECCAK256 SWAP2 PUSH1 0x1F ADD PUSH1 0x20 SWAP1 DIV DUP3 ADD JUMPDEST DUP3 DUP2 GT ISZERO PUSH2 0x3804 JUMPI DUP3 SLOAD DUP3 SSTORE SWAP2 PUSH1 0x1 ADD SWAP2 SWAP1 PUSH1 0x1 ADD SWAP1 PUSH2 0x38D8 JUMP JUMPDEST POP DUP1 SLOAD PUSH1 0x1 DUP2 PUSH1 0x1 AND ISZERO PUSH2 0x100 MUL SUB AND PUSH1 0x2 SWAP1 DIV PUSH1 0x0 DUP3 SSTORE DUP1 PUSH1 0x1F LT PUSH2 0x3919 JUMPI POP PUSH2 0x275F JUMP JUMPDEST PUSH1 0x1F ADD PUSH1 0x20 SWAP1 DIV SWAP1 PUSH1 0x0 MSTORE PUSH1 0x20 PUSH1 0x0 KECCAK256 SWAP1 DUP2 ADD SWAP1 PUSH2 0x275F SWAP2 SWAP1 JUMPDEST JUMPDEST DUP1 DUP3 GT ISZERO PUSH2 0x2C4A JUMPI PUSH1 0x0 DUP2 SSTORE PUSH1 0x1 ADD PUSH2 0x3934 JUMP JUMPDEST PUSH1 0x0 DUP1 DUP4 PUSH1 0x1F DUP5 ADD SLT PUSH2 0x3959 JUMPI DUP2 DUP3 REVERT JUMPDEST POP DUP2 CALLDATALOAD PUSH1 0x1 PUSH1 0x1 PUSH1 0x40 SHL SUB DUP2 GT ISZERO PUSH2 0x396F JUMPI DUP2 DUP3 REVERT JUMPDEST PUSH1 0x20 DUP4 ADD SWAP2 POP DUP4 PUSH1 0x20 DUP1 DUP4 MUL DUP6 ADD ADD GT ISZERO PUSH2 0x1A58 JUMPI PUSH1 0x0 DUP1 REVERT JUMPDEST PUSH1 0x0 DUP1 DUP4 PUSH1 0x1F DUP5 ADD SLT PUSH2 0x399A JUMPI DUP2 DUP3 REVERT JUMPDEST POP DUP2 CALLDATALOAD PUSH1 0x1 PUSH1 0x1 PUSH1 0x40 SHL SUB DUP2 GT ISZERO PUSH2 0x39B0 JUMPI DUP2 DUP3 REVERT JUMPDEST PUSH1 0x20 DUP4 ADD SWAP2 POP DUP4 PUSH1 0x20 DUP3 DUP6 ADD ADD GT ISZERO PUSH2 0x1A58 JUMPI PUSH1 0x0 DUP1 REVERT JUMPDEST PUSH1 0x0 PUSH1 0x20 DUP3 DUP5 SUB SLT ISZERO PUSH2 0x39D9 JUMPI DUP1 DUP2 REVERT JUMPDEST DUP2 CALLDATALOAD PUSH2 0x39E4 DUP2 PUSH2 0x4EA5 JUMP JUMPDEST SWAP4 SWAP3 POP POP POP JUMP JUMPDEST PUSH1 0x0 DUP1 PUSH1 0x0 DUP1 PUSH1 0x0 DUP1 PUSH1 0x0 DUP1 PUSH1 0x0 DUP1 PUSH1 0x0 PUSH2 0x160 DUP13 DUP15 SUB SLT ISZERO PUSH2 0x3A0C JUMPI DUP7 DUP8 REVERT JUMPDEST DUP12 CALLDATALOAD PUSH2 0x3A17 DUP2 PUSH2 0x4EA5 JUMP JUMPDEST SWAP11 POP PUSH1 0x20 DUP13 ADD CALLDATALOAD PUSH2 0x3A27 DUP2 PUSH2 0x4EA5 JUMP JUMPDEST SWAP10 POP PUSH1 0x40 DUP13 ADD CALLDATALOAD SWAP9 POP PUSH1 0x60 DUP13 ADD CALLDATALOAD SWAP8 POP PUSH1 0x80 DUP13 ADD CALLDATALOAD SWAP7 POP PUSH1 0xA0 DUP13 ADD CALLDATALOAD PUSH2 0x3A4C DUP2 PUSH2 0x4EA5 JUMP JUMPDEST SWAP6 POP PUSH1 0xC0 DUP13 ADD CALLDATALOAD SWAP5 POP PUSH1 0xE0 DUP13 ADD CALLDATALOAD SWAP4 POP PUSH2 0x100 DUP13 ADD CALLDATALOAD PUSH2 0x3A6B DUP2 PUSH2 0x4EA5 JUMP JUMPDEST SWAP3 POP PUSH2 0x120 DUP13 ADD CALLDATALOAD PUSH2 0x3A7C DUP2 PUSH2 0x4EA5 JUMP JUMPDEST SWAP2 POP PUSH2 0x140 DUP13 ADD CALLDATALOAD PUSH2 0x3A8D DUP2 PUSH2 0x4EA5 JUMP JUMPDEST DUP1 SWAP2 POP POP SWAP3 SWAP6 SWAP9 SWAP12 POP SWAP3 SWAP6 SWAP9 SWAP12 SWAP1 SWAP4 SWAP7 SWAP10 POP JUMP JUMPDEST PUSH1 0x0 DUP1 PUSH1 0x40 DUP4 DUP6 SUB SLT ISZERO PUSH2 0x3AB3 JUMPI DUP2 DUP3 REVERT JUMPDEST DUP3 CALLDATALOAD PUSH2 0x3ABE DUP2 PUSH2 0x4EA5 JUMP JUMPDEST SWAP2 POP PUSH1 0x20 DUP4 ADD CALLDATALOAD PUSH2 0x3ACE DUP2 PUSH2 0x4EBA JUMP JUMPDEST DUP1 SWAP2 POP POP SWAP3 POP SWAP3 SWAP1 POP JUMP JUMPDEST PUSH1 0x0 DUP1 PUSH1 0x0 DUP1 PUSH1 0x0 DUP1 PUSH1 0x0 DUP1 PUSH1 0x0 DUP1 PUSH1 0x0 PUSH2 0x160 DUP13 DUP15 SUB SLT ISZERO PUSH2 0x3A0C JUMPI DUP1 DUP2 REVERT JUMPDEST PUSH1 0x0 DUP1 PUSH1 0x0 PUSH1 0x60 DUP5 DUP7 SUB SLT ISZERO PUSH2 0x3B0E JUMPI DUP3 DUP4 REVERT JUMPDEST DUP4 CALLDATALOAD PUSH2 0x3B19 DUP2 PUSH2 0x4EA5 JUMP JUMPDEST SWAP3 POP PUSH1 0x20 DUP5 ADD CALLDATALOAD SWAP2 POP PUSH1 0x40 DUP5 ADD CALLDATALOAD PUSH2 0x3B30 DUP2 PUSH2 0x4EBA JUMP JUMPDEST DUP1 SWAP2 POP POP SWAP3 POP SWAP3 POP SWAP3 JUMP JUMPDEST PUSH1 0x0 DUP1 PUSH1 0x0 PUSH1 0x40 DUP5 DUP7 SUB SLT ISZERO PUSH2 0x3B4F JUMPI DUP1 DUP2 REVERT JUMPDEST DUP4 CALLDATALOAD PUSH1 0x1 PUSH1 0x1 PUSH1 0x40 SHL SUB DUP2 GT ISZERO PUSH2 0x3B64 JUMPI DUP2 DUP3 REVERT JUMPDEST PUSH2 0x3B70 DUP7 DUP3 DUP8 ADD PUSH2 0x3948 JUMP JUMPDEST SWAP1 SWAP5 POP SWAP3 POP POP PUSH1 0x20 DUP5 ADD CALLDATALOAD PUSH2 0x3B30 DUP2 PUSH2 0x4EBA JUMP JUMPDEST PUSH1 0x0 DUP1 PUSH1 0x0 DUP1 PUSH1 0x40 DUP6 DUP8 SUB SLT ISZERO PUSH2 0x3B99 JUMPI DUP2 DUP3 REVERT JUMPDEST DUP5 CALLDATALOAD PUSH1 0x1 PUSH1 0x1 PUSH1 0x40 SHL SUB DUP1 DUP3 GT ISZERO PUSH2 0x3BAF JUMPI DUP4 DUP5 REVERT JUMPDEST PUSH2 0x3BBB DUP9 DUP4 DUP10 ADD PUSH2 0x3948 JUMP JUMPDEST SWAP1 SWAP7 POP SWAP5 POP PUSH1 0x20 DUP8 ADD CALLDATALOAD SWAP2 POP DUP1 DUP3 GT ISZERO PUSH2 0x3BD3 JUMPI DUP4 DUP5 REVERT JUMPDEST POP PUSH2 0x3BE0 DUP8 DUP3 DUP9 ADD PUSH2 0x3948 JUMP JUMPDEST SWAP6 SWAP9 SWAP5 SWAP8 POP SWAP6 POP POP POP POP JUMP JUMPDEST PUSH1 0x0 PUSH1 0x20 DUP3 DUP5 SUB SLT ISZERO PUSH2 0x3BFD JUMPI DUP1 DUP2 REVERT JUMPDEST DUP2 CALLDATALOAD PUSH2 0x39E4 DUP2 PUSH2 0x4EBA JUMP JUMPDEST PUSH1 0x0 PUSH1 0x20 DUP3 DUP5 SUB SLT ISZERO PUSH2 0x3C19 JUMPI DUP1 DUP2 REVERT JUMPDEST DUP2 MLOAD PUSH2 0x39E4 DUP2 PUSH2 0x4EBA JUMP JUMPDEST PUSH1 0x0 PUSH1 0x20 DUP3 DUP5 SUB SLT ISZERO PUSH2 0x3C35 JUMPI DUP1 DUP2 REVERT JUMPDEST POP CALLDATALOAD SWAP2 SWAP1 POP JUMP JUMPDEST PUSH1 0x0 DUP1 PUSH1 0x40 DUP4 DUP6 SUB SLT ISZERO PUSH2 0x3C4E JUMPI DUP2 DUP3 REVERT JUMPDEST DUP3 CALLDATALOAD SWAP2 POP PUSH1 0x20 DUP4 ADD CALLDATALOAD PUSH2 0x3ACE DUP2 PUSH2 0x4EA5 JUMP JUMPDEST PUSH1 0x0 DUP1 PUSH1 0x40 DUP4 DUP6 SUB SLT ISZERO PUSH2 0x3C72 JUMPI DUP2 DUP3 REVERT JUMPDEST POP POP DUP1 CALLDATALOAD SWAP3 PUSH1 0x20 SWAP1 SWAP2 ADD CALLDATALOAD SWAP2 POP JUMP JUMPDEST PUSH1 0x0 DUP1 PUSH1 0x20 DUP4 DUP6 SUB SLT ISZERO PUSH2 0x3C93 JUMPI DUP2 DUP3 REVERT JUMPDEST DUP3 CALLDATALOAD PUSH1 0x1 PUSH1 0x1 PUSH1 0x40 SHL SUB DUP2 GT ISZERO PUSH2 0x3CA8 JUMPI DUP3 DUP4 REVERT JUMPDEST PUSH2 0x3CB4 DUP6 DUP3 DUP7 ADD PUSH2 0x3989 JUMP JUMPDEST SWAP1 SWAP7 SWAP1 SWAP6 POP SWAP4 POP POP POP POP JUMP JUMPDEST PUSH1 0x0 DUP1 PUSH1 0x0 DUP1 PUSH1 0x0 DUP1 PUSH1 0x0 DUP1 PUSH2 0x100 DUP10 DUP12 SUB SLT ISZERO PUSH2 0x3CDC JUMPI DUP2 DUP3 REVERT JUMPDEST DUP9 CALLDATALOAD PUSH2 0x3CE7 DUP2 PUSH2 0x4EA5 JUMP JUMPDEST SWAP8 POP PUSH1 0x20 DUP10 ADD CALLDATALOAD PUSH2 0x3CF7 DUP2 PUSH2 0x4EA5 JUMP JUMPDEST SWAP7 POP PUSH1 0x40 DUP10 ADD CALLDATALOAD PUSH2 0x3D07 DUP2 PUSH2 0x4EA5 JUMP JUMPDEST SWAP6 POP PUSH1 0x60 DUP10 ADD CALLDATALOAD SWAP5 POP PUSH1 0x80 DUP10 ADD CALLDATALOAD SWAP4 POP PUSH1 0xA0 DUP10 ADD CALLDATALOAD PUSH2 0x3D25 DUP2 PUSH2 0x4EC8 JUMP JUMPDEST SWAP8 SWAP11 SWAP7 SWAP10 POP SWAP5 SWAP8 SWAP4 SWAP7 SWAP3 SWAP6 SWAP3 SWAP5 POP POP POP PUSH1 0xC0 DUP3 ADD CALLDATALOAD SWAP2 PUSH1 0xE0 ADD CALLDATALOAD SWAP1 JUMP JUMPDEST PUSH1 0x0 DUP1 PUSH1 0x0 DUP1 PUSH1 0x40 DUP6 DUP8 SUB SLT ISZERO PUSH2 0x3D57 JUMPI DUP2 DUP3 REVERT JUMPDEST DUP5 CALLDATALOAD PUSH1 0x1 PUSH1 0x1 PUSH1 0x40 SHL SUB DUP1 DUP3 GT ISZERO PUSH2 0x3D6D JUMPI DUP4 DUP5 REVERT JUMPDEST PUSH2 0x3D79 DUP9 DUP4 DUP10 ADD PUSH2 0x3989 JUMP JUMPDEST SWAP1 SWAP7 POP SWAP5 POP PUSH1 0x20 DUP8 ADD CALLDATALOAD SWAP2 POP DUP1 DUP3 GT ISZERO PUSH2 0x3D91 JUMPI DUP4 DUP5 REVERT JUMPDEST POP PUSH2 0x3BE0 DUP8 DUP3 DUP9 ADD PUSH2 0x3989 JUMP JUMPDEST PUSH1 0x0 PUSH1 0x20 DUP3 DUP5 SUB SLT ISZERO PUSH2 0x3DAF JUMPI DUP1 DUP2 REVERT JUMPDEST DUP2 MLOAD PUSH1 0x1 PUSH1 0x1 PUSH1 0x40 SHL SUB DUP1 DUP3 GT ISZERO PUSH2 0x3DC5 JUMPI DUP3 DUP4 REVERT JUMPDEST DUP2 DUP5 ADD SWAP2 POP DUP5 PUSH1 0x1F DUP4 ADD SLT PUSH2 0x3DD8 JUMPI DUP3 DUP4 REVERT JUMPDEST DUP2 MLOAD DUP2 DUP2 GT ISZERO PUSH2 0x3DE6 JUMPI DUP4 DUP5 REVERT JUMPDEST PUSH1 0x40 MLOAD PUSH1 0x1F DUP3 ADD PUSH1 0x1F NOT AND DUP2 ADD PUSH1 0x20 ADD DUP4 DUP2 GT DUP3 DUP3 LT OR ISZERO PUSH2 0x3E06 JUMPI DUP6 DUP7 REVERT JUMPDEST PUSH1 0x40 MSTORE DUP2 DUP2 MSTORE DUP4 DUP3 ADD PUSH1 0x20 ADD DUP8 LT ISZERO PUSH2 0x3E1D JUMPI DUP5 DUP6 REVERT JUMPDEST PUSH2 0x3E2E DUP3 PUSH1 0x20 DUP4 ADD PUSH1 0x20 DUP8 ADD PUSH2 0x4E79 JUMP JUMPDEST SWAP7 SWAP6 POP POP POP POP POP POP JUMP JUMPDEST PUSH1 0x0 PUSH1 0x20 DUP3 DUP5 SUB SLT ISZERO PUSH2 0x3E49 JUMPI DUP1 DUP2 REVERT JUMPDEST POP MLOAD SWAP2 SWAP1 POP JUMP JUMPDEST PUSH1 0x0 DUP1 PUSH1 0x40 DUP4 DUP6 SUB SLT ISZERO PUSH2 0x3E62 JUMPI DUP2 DUP3 REVERT JUMPDEST DUP3 CALLDATALOAD SWAP2 POP PUSH1 0x20 DUP4 ADD CALLDATALOAD PUSH2 0x3ACE DUP2 PUSH2 0x4EBA JUMP JUMPDEST PUSH1 0x0 PUSH1 0x20 DUP3 DUP5 SUB SLT ISZERO PUSH2 0x3E85 JUMPI DUP1 DUP2 REVERT JUMPDEST DUP2 MLOAD PUSH2 0x39E4 DUP2 PUSH2 0x4EC8 JUMP JUMPDEST PUSH1 0x0 DUP2 MLOAD DUP1 DUP5 MSTORE PUSH2 0x3EA8 DUP2 PUSH1 0x20 DUP7 ADD PUSH1 0x20 DUP7 ADD PUSH2 0x4E79 JUMP JUMPDEST PUSH1 0x1F ADD PUSH1 0x1F NOT AND SWAP3 SWAP1 SWAP3 ADD PUSH1 0x20 ADD SWAP3 SWAP2 POP POP JUMP JUMPDEST PUSH1 0x0 DUP3 DUP5 DUP4 CALLDATACOPY SWAP2 ADD SWAP1 DUP2 MSTORE SWAP2 SWAP1 POP JUMP JUMPDEST PUSH1 0x0 DUP3 MLOAD PUSH2 0x3EDE DUP2 DUP5 PUSH1 0x20 DUP8 ADD PUSH2 0x4E79 JUMP JUMPDEST SWAP2 SWAP1 SWAP2 ADD SWAP3 SWAP2 POP POP JUMP JUMPDEST PUSH1 0x0 DUP1 DUP4 SLOAD PUSH1 0x1 DUP1 DUP3 AND PUSH1 0x0 DUP2 EQ PUSH2 0x3F07 JUMPI PUSH1 0x1 DUP2 EQ PUSH2 0x3F1E JUMPI PUSH2 0x3F4D JUMP JUMPDEST PUSH1 0xFF NOT DUP4 AND DUP7 MSTORE PUSH1 0x2 DUP4 DIV PUSH1 0x7F AND DUP7 ADD SWAP4 POP PUSH2 0x3F4D JUMP JUMPDEST PUSH1 0x2 DUP4 DIV DUP8 DUP7 MSTORE PUSH1 0x20 DUP1 DUP8 KECCAK256 DUP8 JUMPDEST DUP4 DUP2 LT ISZERO PUSH2 0x3F45 JUMPI DUP2 SLOAD DUP11 DUP3 ADD MSTORE SWAP1 DUP6 ADD SWAP1 DUP3 ADD PUSH2 0x3F2C JUMP JUMPDEST POP POP POP DUP7 ADD SWAP4 POP JUMPDEST POP SWAP2 SWAP6 SWAP5 POP POP POP POP POP JUMP JUMPDEST PUSH1 0x1 PUSH1 0x1 PUSH1 0xA0 SHL SUB SWAP2 SWAP1 SWAP2 AND DUP2 MSTORE PUSH1 0x20 ADD SWAP1 JUMP JUMPDEST PUSH1 0x1 PUSH1 0x1 PUSH1 0xA0 SHL SUB SWAP4 DUP5 AND DUP2 MSTORE SWAP2 SWAP1 SWAP3 AND PUSH1 0x20 DUP3 ADD MSTORE PUSH1 0x40 DUP2 ADD SWAP2 SWAP1 SWAP2 MSTORE PUSH1 0x60 ADD SWAP1 JUMP JUMPDEST PUSH1 0x1 PUSH1 0x1 PUSH1 0xA0 SHL SUB SWAP12 DUP13 AND DUP2 MSTORE SWAP10 DUP12 AND PUSH1 0x20 DUP12 ADD MSTORE PUSH1 0x40 DUP11 ADD SWAP9 SWAP1 SWAP9 MSTORE PUSH1 0x60 DUP10 ADD SWAP7 SWAP1 SWAP7 MSTORE PUSH1 0x80 DUP9 ADD SWAP5 SWAP1 SWAP5 MSTORE SWAP2 DUP8 AND PUSH1 0xA0 DUP8 ADD MSTORE PUSH1 0xC0 DUP7 ADD MSTORE PUSH1 0xE0 DUP6 ADD MSTORE DUP5 AND PUSH2 0x100 DUP5 ADD MSTORE DUP4 AND PUSH2 0x120 DUP4 ADD MSTORE SWAP1 SWAP2 AND PUSH2 0x140 DUP3 ADD MSTORE PUSH2 0x160 ADD SWAP1 JUMP JUMPDEST PUSH1 0x1 PUSH1 0x1 PUSH1 0xA0 SHL SUB SWAP8 DUP9 AND DUP2 MSTORE SWAP6 SWAP1 SWAP7 AND PUSH1 0x20 DUP7 ADD MSTORE PUSH1 0x40 DUP6 ADD SWAP4 SWAP1 SWAP4 MSTORE PUSH1 0x60 DUP5 ADD SWAP2 SWAP1 SWAP2 MSTORE PUSH1 0xFF AND PUSH1 0x80 DUP4 ADD MSTORE PUSH1 0xA0 DUP3 ADD MSTORE PUSH1 0xC0 DUP2 ADD SWAP2 SWAP1 SWAP2 MSTORE PUSH1 0xE0 ADD SWAP1 JUMP JUMPDEST PUSH1 0x1 PUSH1 0x1 PUSH1 0xA0 SHL SUB SWAP3 SWAP1 SWAP3 AND DUP3 MSTORE PUSH1 0x20 DUP3 ADD MSTORE PUSH1 0x40 ADD SWAP1 JUMP JUMPDEST PUSH1 0x1 PUSH1 0x1 PUSH1 0xA0 SHL SUB SWAP5 SWAP1 SWAP5 AND DUP5 MSTORE PUSH1 0x1 PUSH1 0x1 PUSH1 0x40 SHL SUB SWAP3 DUP4 AND PUSH1 0x20 DUP6 ADD MSTORE SWAP2 AND PUSH1 0x40 DUP4 ADD MSTORE ISZERO ISZERO PUSH1 0x60 DUP3 ADD MSTORE PUSH1 0x80 ADD SWAP1 JUMP JUMPDEST PUSH1 0x40 DUP1 DUP3 MSTORE DUP4 MLOAD SWAP1 DUP3 ADD DUP2 SWAP1 MSTORE PUSH1 0x0 SWAP1 PUSH1 0x20 SWAP1 PUSH1 0x60 DUP5 ADD SWAP1 DUP3 DUP8 ADD DUP5 JUMPDEST DUP3 DUP2 LT ISZERO PUSH2 0x40B6 JUMPI DUP2 MLOAD ISZERO ISZERO DUP5 MSTORE SWAP3 DUP5 ADD SWAP3 SWAP1 DUP5 ADD SWAP1 PUSH1 0x1 ADD PUSH2 0x4098 JUMP JUMPDEST POP POP POP DUP4 DUP2 SUB DUP3 DUP6 ADD MSTORE DUP1 DUP6 MLOAD PUSH2 0x40CD DUP2 DUP5 PUSH2 0x4180 JUMP JUMPDEST SWAP2 POP DUP2 SWAP3 POP DUP4 DUP2 MUL DUP3 ADD DUP5 DUP9 ADD DUP7 JUMPDEST DUP4 DUP2 LT ISZERO PUSH2 0x4106 JUMPI DUP6 DUP4 SUB DUP6 MSTORE PUSH2 0x40F4 DUP4 DUP4 MLOAD PUSH2 0x3E90 JUMP JUMPDEST SWAP5 DUP8 ADD SWAP5 SWAP3 POP SWAP1 DUP7 ADD SWAP1 PUSH1 0x1 ADD PUSH2 0x40DC JUMP JUMPDEST POP SWAP1 SWAP10 SWAP9 POP POP POP POP POP POP POP POP POP JUMP JUMPDEST PUSH1 0x0 PUSH1 0x20 DUP1 DUP4 ADD DUP2 DUP5 MSTORE DUP1 DUP6 MLOAD DUP1 DUP4 MSTORE PUSH1 0x40 DUP7 ADD SWAP2 POP PUSH1 0x40 DUP5 DUP3 MUL DUP8 ADD ADD SWAP3 POP DUP4 DUP8 ADD DUP6 JUMPDEST DUP3 DUP2 LT ISZERO PUSH2 0x4168 JUMPI PUSH1 0x3F NOT DUP9 DUP7 SUB ADD DUP5 MSTORE PUSH2 0x4156 DUP6 DUP4 MLOAD PUSH2 0x3E90 JUMP JUMPDEST SWAP5 POP SWAP3 DUP6 ADD SWAP3 SWAP1 DUP6 ADD SWAP1 PUSH1 0x1 ADD PUSH2 0x413A JUMP JUMPDEST POP SWAP3 SWAP8 SWAP7 POP POP POP POP POP POP POP JUMP JUMPDEST SWAP1 ISZERO ISZERO DUP2 MSTORE PUSH1 0x20 ADD SWAP1 JUMP JUMPDEST SWAP1 DUP2 MSTORE PUSH1 0x20 ADD SWAP1 JUMP JUMPDEST PUSH1 0x0 PUSH1 0x20 DUP3 MSTORE PUSH2 0x1CE8 PUSH1 0x20 DUP4 ADD DUP5 PUSH2 0x3E90 JUMP JUMPDEST PUSH1 0x0 PUSH1 0x20 DUP3 MSTORE DUP3 PUSH1 0x20 DUP4 ADD MSTORE DUP3 DUP5 PUSH1 0x40 DUP5 ADD CALLDATACOPY DUP2 DUP4 ADD PUSH1 0x40 SWAP1 DUP2 ADD SWAP2 SWAP1 SWAP2 MSTORE PUSH1 0x1F SWAP1 SWAP3 ADD PUSH1 0x1F NOT AND ADD ADD SWAP2 SWAP1 POP JUMP JUMPDEST PUSH1 0x0 PUSH1 0x40 DUP3 MSTORE PUSH2 0x41DE PUSH1 0x40 DUP4 ADD DUP6 PUSH2 0x3E90 JUMP JUMPDEST SWAP1 POP DUP3 PUSH1 0x20 DUP4 ADD MSTORE SWAP4 SWAP3 POP POP POP JUMP JUMPDEST PUSH1 0x0 PUSH1 0x20 DUP1 DUP4 ADD DUP2 DUP5 MSTORE DUP3 DUP6 SLOAD PUSH1 0x1 DUP1 DUP3 AND PUSH1 0x0 DUP2 EQ PUSH2 0x4214 JUMPI PUSH1 0x1 DUP2 EQ PUSH2 0x4232 JUMPI PUSH2 0x426A JUMP JUMPDEST PUSH1 0x2 DUP4 DIV PUSH1 0x7F AND DUP6 MSTORE PUSH1 0xFF NOT DUP4 AND PUSH1 0x40 DUP10 ADD MSTORE PUSH1 0x60 DUP9 ADD SWAP4 POP PUSH2 0x426A JUMP JUMPDEST PUSH1 0x2 DUP4 DIV DUP1 DUP7 MSTORE PUSH2 0x4242 DUP11 PUSH2 0x4E6D JUMP JUMPDEST DUP9 JUMPDEST DUP3 DUP2 LT ISZERO PUSH2 0x4260 JUMPI DUP2 SLOAD DUP12 DUP3 ADD PUSH1 0x40 ADD MSTORE SWAP1 DUP5 ADD SWAP1 DUP9 ADD PUSH2 0x4244 JUMP JUMPDEST DUP11 ADD PUSH1 0x40 ADD SWAP6 POP POP POP JUMPDEST POP SWAP2 SWAP8 SWAP7 POP POP POP POP POP POP POP JUMP JUMPDEST PUSH1 0x20 DUP1 DUP3 MSTORE PUSH1 0x2D SWAP1 DUP3 ADD MSTORE PUSH32 0x447574636841756374696F6E3A205061796D656E742063757272656E63792069 PUSH1 0x40 DUP3 ADD MSTORE PUSH13 0x39903737BA1030903A37B5B2B7 PUSH1 0x99 SHL PUSH1 0x60 DUP3 ADD MSTORE PUSH1 0x80 ADD SWAP1 JUMP JUMPDEST PUSH1 0x20 DUP1 DUP3 MSTORE PUSH1 0x34 SWAP1 DUP3 ADD MSTORE PUSH32 0x447574636841756374696F6E3A20656E642074696D65206D757374206265206F PUSH1 0x40 DUP3 ADD MSTORE PUSH20 0x6C646572207468616E2073746172742074696D65 PUSH1 0x60 SHL PUSH1 0x60 DUP3 ADD MSTORE PUSH1 0x80 ADD SWAP1 JUMP JUMPDEST PUSH1 0x20 DUP1 DUP3 MSTORE PUSH1 0x15 SWAP1 DUP3 ADD MSTORE PUSH21 0x426F72696E674D6174683A20556E646572666C6F77 PUSH1 0x58 SHL PUSH1 0x40 DUP3 ADD MSTORE PUSH1 0x60 ADD SWAP1 JUMP JUMPDEST PUSH1 0x20 DUP1 DUP3 MSTORE DUP2 DUP2 ADD MSTORE PUSH32 0x447574636841756374696F6E3A204E6F20746F6B656E7320746F20636C61696D PUSH1 0x40 DUP3 ADD MSTORE PUSH1 0x60 ADD SWAP1 JUMP JUMPDEST PUSH1 0x20 DUP1 DUP3 MSTORE PUSH1 0x28 SWAP1 DUP3 ADD MSTORE PUSH32 0x447574636841756374696F6E3A2077616C6C657420697320746865207A65726F PUSH1 0x40 DUP3 ADD MSTORE PUSH8 0x2061646472657373 PUSH1 0xC0 SHL PUSH1 0x60 DUP3 ADD MSTORE PUSH1 0x80 ADD SWAP1 JUMP JUMPDEST PUSH1 0x20 DUP1 DUP3 MSTORE PUSH1 0x13 SWAP1 DUP3 ADD MSTORE PUSH19 0x105B1C9958591E481A5B9A5D1A585B1A5CD959 PUSH1 0x6A SHL PUSH1 0x40 DUP3 ADD MSTORE PUSH1 0x60 ADD SWAP1 JUMP JUMPDEST PUSH1 0x20 DUP1 DUP3 MSTORE PUSH1 0x22 SWAP1 DUP3 ADD MSTORE PUSH32 0x456E756D657261626C655365743A20696E646578206F7574206F6620626F756E PUSH1 0x40 DUP3 ADD MSTORE PUSH2 0x6473 PUSH1 0xF0 SHL PUSH1 0x60 DUP3 ADD MSTORE PUSH1 0x80 ADD SWAP1 JUMP JUMPDEST PUSH1 0x20 DUP1 DUP3 MSTORE PUSH1 0x2F SWAP1 DUP3 ADD MSTORE PUSH32 0x416363657373436F6E74726F6C3A2073656E646572206D75737420626520616E PUSH1 0x40 DUP3 ADD MSTORE PUSH15 0x818591B5A5B881D1BC819DC985B9D PUSH1 0x8A SHL PUSH1 0x60 DUP3 ADD MSTORE PUSH1 0x80 ADD SWAP1 JUMP JUMPDEST PUSH1 0x20 DUP1 DUP3 MSTORE PUSH1 0x2B SWAP1 DUP3 ADD MSTORE PUSH32 0x447574636841756374696F6E3A205061796D656E742063757272656E63792069 PUSH1 0x40 DUP3 ADD MSTORE PUSH11 0x73206E6F7420455243323 PUSH1 0xAC SHL PUSH1 0x60 DUP3 ADD MSTORE PUSH1 0x80 ADD SWAP1 JUMP JUMPDEST PUSH1 0x20 DUP1 DUP3 MSTORE PUSH1 0x32 SWAP1 DUP3 ADD MSTORE PUSH32 0x447574636841756374696F6E3A206D696E696D756D207072696365206D757374 PUSH1 0x40 DUP3 ADD MSTORE PUSH18 0x2062652067726561746572207468616E203 PUSH1 0x74 SHL PUSH1 0x60 DUP3 ADD MSTORE PUSH1 0x80 ADD SWAP1 JUMP JUMPDEST PUSH1 0x20 DUP1 DUP3 MSTORE PUSH1 0x33 SWAP1 DUP3 ADD MSTORE PUSH32 0x447574636841756374696F6E3A2054686520636F6D6D69747465642045544820 PUSH1 0x40 DUP3 ADD MSTORE PUSH19 0x65786365656473207468652062616C616E6365 PUSH1 0x68 SHL PUSH1 0x60 DUP3 ADD MSTORE PUSH1 0x80 ADD SWAP1 JUMP JUMPDEST PUSH1 0x20 DUP1 DUP3 MSTORE PUSH1 0x27 SWAP1 DUP3 ADD MSTORE PUSH32 0x447574636841756374696F6E3A2061756374696F6E20616C7265616479206669 PUSH1 0x40 DUP3 ADD MSTORE PUSH7 0x1B985B1A5E9959 PUSH1 0xCA SHL PUSH1 0x60 DUP3 ADD MSTORE PUSH1 0x80 ADD SWAP1 JUMP JUMPDEST PUSH1 0x20 DUP1 DUP3 MSTORE PUSH1 0x41 SWAP1 DUP3 ADD MSTORE PUSH32 0x447574636841756374696F6E3A20656E74657220616E20756E69782074696D65 PUSH1 0x40 DUP3 ADD MSTORE PUSH32 0x7374616D7020696E207365636F6E64732C206E6F74206D696C697365636F6E64 PUSH1 0x60 DUP3 ADD MSTORE PUSH1 0x73 PUSH1 0xF8 SHL PUSH1 0x80 DUP3 ADD MSTORE PUSH1 0xA0 ADD SWAP1 JUMP JUMPDEST PUSH1 0x20 DUP1 DUP3 MSTORE PUSH1 0x27 SWAP1 DUP3 ADD MSTORE PUSH32 0x447574636841756374696F6E3A2061756374696F6E20616C726561647920636F PUSH1 0x40 DUP3 ADD MSTORE PUSH7 0x1B5B5A5D1D1959 PUSH1 0xCA SHL PUSH1 0x60 DUP3 ADD MSTORE PUSH1 0x80 ADD SWAP1 JUMP JUMPDEST PUSH1 0x20 DUP1 DUP3 MSTORE PUSH1 0x52 SWAP1 DUP3 ADD MSTORE PUSH32 0x4E6F2061677265656D656E742070726F76696465642C20706C65617365207265 PUSH1 0x40 DUP3 ADD MSTORE PUSH32 0x766965772074686520736D61727420636F6E7472616374206265666F72652069 PUSH1 0x60 DUP3 ADD MSTORE PUSH18 0x1B9D195C9858DD1A5B99C81DDA5D1A081A5D PUSH1 0x72 SHL PUSH1 0x80 DUP3 ADD MSTORE PUSH1 0xA0 ADD SWAP1 JUMP JUMPDEST PUSH1 0x20 DUP1 DUP3 MSTORE PUSH1 0x2F SWAP1 DUP3 ADD MSTORE PUSH32 0x447574636841756374696F6E3A2073746172742074696D65206973206265666F PUSH1 0x40 DUP3 ADD MSTORE PUSH15 0x72652063757272656E742074696D65 PUSH1 0x88 SHL PUSH1 0x60 DUP3 ADD MSTORE PUSH1 0x80 ADD SWAP1 JUMP JUMPDEST PUSH1 0x20 DUP1 DUP3 MSTORE PUSH1 0x15 SWAP1 DUP3 ADD MSTORE PUSH21 0x111BD8DD5B595B9D081CDA1BDD5B1908195E1A5CDD PUSH1 0x5A SHL PUSH1 0x40 DUP3 ADD MSTORE PUSH1 0x60 ADD SWAP1 JUMP JUMPDEST PUSH1 0x20 DUP1 DUP3 MSTORE PUSH1 0x34 SWAP1 DUP3 ADD MSTORE PUSH32 0x447574636841756374696F6E3A20746F74616C20746F6B656E73206D75737420 PUSH1 0x40 DUP3 ADD MSTORE PUSH20 0x62652067726561746572207468616E207A65726F PUSH1 0x60 SHL PUSH1 0x60 DUP3 ADD MSTORE PUSH1 0x80 ADD SWAP1 JUMP JUMPDEST PUSH1 0x20 DUP1 DUP3 MSTORE PUSH1 0x1C SWAP1 DUP3 ADD MSTORE PUSH32 0x426F72696E674D6174683A2075696E74313238204F766572666C6F7700000000 PUSH1 0x40 DUP3 ADD MSTORE PUSH1 0x60 ADD SWAP1 JUMP JUMPDEST PUSH1 0x20 DUP1 DUP3 MSTORE PUSH1 0x30 SWAP1 DUP3 ADD MSTORE PUSH32 0x416363657373436F6E74726F6C3A2073656E646572206D75737420626520616E PUSH1 0x40 DUP3 ADD MSTORE PUSH16 0x2061646D696E20746F207265766F6B65 PUSH1 0x80 SHL PUSH1 0x60 DUP3 ADD MSTORE PUSH1 0x80 ADD SWAP1 JUMP JUMPDEST PUSH1 0x20 DUP1 DUP3 MSTORE PUSH1 0xF SWAP1 DUP3 ADD MSTORE PUSH15 0x139BDD081A5B9A5D1A585B1A5E9959 PUSH1 0x8A SHL PUSH1 0x40 DUP3 ADD MSTORE PUSH1 0x60 ADD SWAP1 JUMP JUMPDEST PUSH1 0x20 DUP1 DUP3 MSTORE PUSH1 0x18 SWAP1 DUP3 ADD MSTORE PUSH32 0x426F72696E674D6174683A20416464204F766572666C6F770000000000000000 PUSH1 0x40 DUP3 ADD MSTORE PUSH1 0x60 ADD SWAP1 JUMP JUMPDEST PUSH1 0x20 DUP1 DUP3 MSTORE PUSH1 0x18 SWAP1 DUP3 ADD MSTORE PUSH32 0x5A65726F206E616D65206973206E6F7420616C6C6F7765640000000000000000 PUSH1 0x40 DUP3 ADD MSTORE PUSH1 0x60 ADD SWAP1 JUMP JUMPDEST PUSH1 0x20 DUP1 DUP3 MSTORE PUSH1 0xF SWAP1 DUP3 ADD MSTORE PUSH15 0x125B98DBDC9C9958DD081A5B9C1D5D PUSH1 0x8A SHL PUSH1 0x40 DUP3 ADD MSTORE PUSH1 0x60 ADD SWAP1 JUMP JUMPDEST PUSH1 0x20 DUP1 DUP3 MSTORE PUSH1 0x23 SWAP1 DUP3 ADD MSTORE PUSH32 0x447574636841756374696F6E3A206F7574736964652061756374696F6E20686F PUSH1 0x40 DUP3 ADD MSTORE PUSH3 0x757273 PUSH1 0xE8 SHL PUSH1 0x60 DUP3 ADD MSTORE PUSH1 0x80 ADD SWAP1 JUMP JUMPDEST PUSH1 0x20 DUP1 DUP3 MSTORE PUSH1 0x1B SWAP1 DUP3 ADD MSTORE PUSH32 0x426F72696E674D6174683A2075696E743634204F766572666C6F770000000000 PUSH1 0x40 DUP3 ADD MSTORE PUSH1 0x60 ADD SWAP1 JUMP JUMPDEST PUSH1 0x20 DUP1 DUP3 MSTORE PUSH1 0x31 SWAP1 DUP3 ADD MSTORE PUSH32 0x447574636841756374696F6E3A207061796D656E742063757272656E63792069 PUSH1 0x40 DUP3 ADD MSTORE PUSH17 0x73206E6F74204554482061646472657373 PUSH1 0x78 SHL PUSH1 0x60 DUP3 ADD MSTORE PUSH1 0x80 ADD SWAP1 JUMP JUMPDEST PUSH1 0x20 DUP1 DUP3 MSTORE PUSH1 0x25 SWAP1 DUP3 ADD MSTORE PUSH32 0x447574636841756374696F6E3A2073656E646572206D75737420626520616E20 PUSH1 0x40 DUP3 ADD MSTORE PUSH5 0x30B236B4B7 PUSH1 0xD9 SHL PUSH1 0x60 DUP3 ADD MSTORE PUSH1 0x80 ADD SWAP1 JUMP JUMPDEST PUSH1 0x20 DUP1 DUP3 MSTORE PUSH1 0x35 SWAP1 DUP3 ADD MSTORE PUSH32 0x447574636841756374696F6E3A20656E642074696D65206D757374206265206F PUSH1 0x40 DUP3 ADD MSTORE PUSH21 0x6C646572207468616E207374617274207072696365 PUSH1 0x58 SHL PUSH1 0x60 DUP3 ADD MSTORE PUSH1 0x80 ADD SWAP1 JUMP JUMPDEST PUSH1 0x20 DUP1 DUP3 MSTORE PUSH1 0x1B SWAP1 DUP3 ADD MSTORE PUSH32 0x447574636841756374696F6E3A206E6F742066696E616C697A65640000000000 PUSH1 0x40 DUP3 ADD MSTORE PUSH1 0x60 ADD SWAP1 JUMP JUMPDEST PUSH1 0x20 DUP1 DUP3 MSTORE PUSH1 0x23 SWAP1 DUP3 ADD MSTORE PUSH32 0x5472616E7366657248656C7065723A204554485F5452414E534645525F464149 PUSH1 0x40 DUP3 ADD MSTORE PUSH3 0x131151 PUSH1 0xEA SHL PUSH1 0x60 DUP3 ADD MSTORE PUSH1 0x80 ADD SWAP1 JUMP JUMPDEST PUSH1 0x20 DUP1 DUP3 MSTORE PUSH1 0x13 SWAP1 DUP3 ADD MSTORE PUSH19 0x496E646578206F7574206F6620626F756E6473 PUSH1 0x68 SHL PUSH1 0x40 DUP3 ADD MSTORE PUSH1 0x60 ADD SWAP1 JUMP JUMPDEST PUSH1 0x20 DUP1 DUP3 MSTORE PUSH1 0x1A SWAP1 DUP3 ADD MSTORE PUSH32 0x53686F756C64206E6F74206265206120656D7074792064617461000000000000 PUSH1 0x40 DUP3 ADD MSTORE PUSH1 0x60 ADD SWAP1 JUMP JUMPDEST PUSH1 0x20 DUP1 DUP3 MSTORE PUSH1 0x2A SWAP1 DUP3 ADD MSTORE PUSH32 0x447574636841756374696F6E3A2061756374696F6E20686173206E6F74206669 PUSH1 0x40 DUP3 ADD MSTORE PUSH10 0x1B9A5CDA1959081E595D PUSH1 0xB2 SHL PUSH1 0x60 DUP3 ADD MSTORE PUSH1 0x80 ADD SWAP1 JUMP JUMPDEST PUSH1 0x20 DUP1 DUP3 MSTORE PUSH1 0x2D SWAP1 DUP3 ADD MSTORE PUSH32 0x447574636841756374696F6E3A20546F6B656E20646F6573206E6F7420686176 PUSH1 0x40 DUP3 ADD MSTORE PUSH13 0x6520313820646563696D616C73 PUSH1 0x98 SHL PUSH1 0x60 DUP3 ADD MSTORE PUSH1 0x80 ADD SWAP1 JUMP JUMPDEST PUSH1 0x20 DUP1 DUP3 MSTORE PUSH1 0x1F SWAP1 DUP3 ADD MSTORE PUSH32 0x5265656E7472616E637947756172643A207265656E7472616E742063616C6C00 PUSH1 0x40 DUP3 ADD MSTORE PUSH1 0x60 ADD SWAP1 JUMP JUMPDEST PUSH1 0x20 DUP1 DUP3 MSTORE PUSH1 0x31 SWAP1 DUP3 ADD MSTORE PUSH32 0x447574636841756374696F6E3A2061756374696F6E2063616E6E6F7420686176 PUSH1 0x40 DUP3 ADD MSTORE PUSH17 0x1948185B1C9958591E481CDD185C9D1959 PUSH1 0x7A SHL PUSH1 0x60 DUP3 ADD MSTORE PUSH1 0x80 ADD SWAP1 JUMP JUMPDEST PUSH1 0x20 DUP1 DUP3 MSTORE PUSH1 0x18 SWAP1 DUP3 ADD MSTORE PUSH32 0x426F72696E674D6174683A204D756C204F766572666C6F770000000000000000 PUSH1 0x40 DUP3 ADD MSTORE PUSH1 0x60 ADD SWAP1 JUMP JUMPDEST PUSH1 0x20 DUP1 DUP3 MSTORE PUSH1 0x3B SWAP1 DUP3 ADD MSTORE PUSH32 0x447574636841756374696F6E3A207374617274207072696365206D7573742062 PUSH1 0x40 DUP3 ADD MSTORE PUSH32 0x6520686967686572207468616E206D696E696D756D2070726963650000000000 PUSH1 0x60 DUP3 ADD MSTORE PUSH1 0x80 ADD SWAP1 JUMP JUMPDEST PUSH1 0x20 DUP1 DUP3 MSTORE PUSH1 0x27 SWAP1 DUP3 ADD MSTORE PUSH32 0x447574636841756374696F6E3A2061646D696E20697320746865207A65726F20 PUSH1 0x40 DUP3 ADD MSTORE PUSH7 0x61646472657373 PUSH1 0xC8 SHL PUSH1 0x60 DUP3 ADD MSTORE PUSH1 0x80 ADD SWAP1 JUMP JUMPDEST PUSH1 0x20 DUP1 DUP3 MSTORE PUSH1 0x2F SWAP1 DUP3 ADD MSTORE PUSH32 0x416363657373436F6E74726F6C3A2063616E206F6E6C792072656E6F756E6365 PUSH1 0x40 DUP3 ADD MSTORE PUSH15 0x103937B632B9903337B91039B2B633 PUSH1 0x89 SHL PUSH1 0x60 DUP3 ADD MSTORE PUSH1 0x80 ADD SWAP1 JUMP JUMPDEST PUSH1 0x20 DUP1 DUP3 MSTORE PUSH1 0x14 SWAP1 DUP3 ADD MSTORE PUSH20 0x426F72696E674D6174683A20446976207A65726F PUSH1 0x60 SHL PUSH1 0x40 DUP3 ADD MSTORE PUSH1 0x60 ADD SWAP1 JUMP JUMPDEST PUSH1 0x1 PUSH1 0x1 PUSH1 0x80 SHL SUB SWAP4 SWAP1 SWAP4 AND DUP4 MSTORE SWAP1 ISZERO ISZERO PUSH1 0x20 DUP4 ADD MSTORE ISZERO ISZERO PUSH1 0x40 DUP3 ADD MSTORE PUSH1 0x60 ADD SWAP1 JUMP JUMPDEST PUSH1 0x1 PUSH1 0x1 PUSH1 0x80 SHL SUB SWAP3 DUP4 AND DUP2 MSTORE SWAP2 AND PUSH1 0x20 DUP3 ADD MSTORE PUSH1 0x40 ADD SWAP1 JUMP JUMPDEST SWAP2 DUP3 MSTORE PUSH1 0x20 DUP3 ADD MSTORE PUSH1 0x40 ADD SWAP1 JUMP JUMPDEST PUSH1 0x1 PUSH1 0x1 PUSH1 0x40 SHL SUB SWAP4 DUP5 AND DUP2 MSTORE SWAP2 SWAP1 SWAP3 AND PUSH1 0x20 DUP3 ADD MSTORE PUSH1 0x1 PUSH1 0x1 PUSH1 0x80 SHL SUB SWAP1 SWAP2 AND PUSH1 0x40 DUP3 ADD MSTORE PUSH1 0x60 ADD SWAP1 JUMP JUMPDEST PUSH1 0x0 DUP1 DUP4 CALLDATALOAD PUSH1 0x1E NOT DUP5 CALLDATASIZE SUB ADD DUP2 SLT PUSH2 0x4E3F JUMPI DUP3 DUP4 REVERT JUMPDEST DUP4 ADD DUP1 CALLDATALOAD SWAP2 POP PUSH1 0x1 PUSH1 0x1 PUSH1 0x40 SHL SUB DUP3 GT ISZERO PUSH2 0x4E58 JUMPI DUP3 DUP4 REVERT JUMPDEST PUSH1 0x20 ADD SWAP2 POP CALLDATASIZE DUP2 SWAP1 SUB DUP3 SGT ISZERO PUSH2 0x1A58 JUMPI PUSH1 0x0 DUP1 REVERT JUMPDEST PUSH1 0x0 SWAP1 DUP2 MSTORE PUSH1 0x20 SWAP1 KECCAK256 SWAP1 JUMP JUMPDEST PUSH1 0x0 JUMPDEST DUP4 DUP2 LT ISZERO PUSH2 0x4E94 JUMPI DUP2 DUP2 ADD MLOAD DUP4 DUP3 ADD MSTORE PUSH1 0x20 ADD PUSH2 0x4E7C JUMP JUMPDEST DUP4 DUP2 GT ISZERO PUSH2 0x1018 JUMPI POP POP PUSH1 0x0 SWAP2 ADD MSTORE JUMP JUMPDEST PUSH1 0x1 PUSH1 0x1 PUSH1 0xA0 SHL SUB DUP2 AND DUP2 EQ PUSH2 0x275F JUMPI PUSH1 0x0 DUP1 REVERT JUMPDEST DUP1 ISZERO ISZERO DUP2 EQ PUSH2 0x275F JUMPI PUSH1 0x0 DUP1 REVERT JUMPDEST PUSH1 0xFF DUP2 AND DUP2 EQ PUSH2 0x275F JUMPI PUSH1 0x0 DUP1 REVERT INVALID SWAP14 0x49 RETURN SWAP8 0xAE SWAP15 CALL 0xA8 CALLVALUE 0xB5 PUSH10 0xACB967799A367061E305 SWAP4 0x21 DUP2 LOG4 0x4F JUMPI PUSH20 0xDA873BFD97667070C54EF182B0F5858B034BEAC1 0xB6 RETURN ADDMOD SWAP11 LOG2 0xD3 XOR DUP12 0xB1 0xE8 SWAP3 SWAP16 0x4F 0xA9 0xB9 0x29 SWAP16 0x2D CREATE INVALID 0xD2 0xC7 PUSH23 0x48DE5860A4CC508CD0818C85B8B8A1AB4CEEEF8D981C89 JUMP 0xA6 0x49 KECCAK256 PUSH22 0x6E6465727374616E6420746861742049276D20696E74 PUSH6 0x72616374696E PUSH8 0x2077697468206120 PUSH20 0x6D61727420636F6E74726163742E204920756E64 PUSH6 0x727374616E64 KECCAK256 PUSH21 0x68617420746F6B656E7320636F6D6D697474656420 PUSH2 0x7265 KECCAK256 PUSH20 0x75626A65637420746F2074686520746F6B656E20 PUSH10 0x737375657220616E6420 PUSH13 0x6F63616C206C61777320776865 PUSH19 0x65206170706C696361626C652E204920726576 PUSH10 0x6577656420636F646520 PUSH16 0x662074686520736D61727420636F6E74 PUSH19 0x61637420616E6420756E6465727374616E6420 PUSH10 0x742066756C6C792E2049 KECCAK256 PUSH2 0x6772 PUSH6 0x6520746F206E PUSH16 0x7420686F6C6420646576656C6F706572 PUSH20 0x206F72206F746865722070656F706C6520617373 PUSH16 0x63696174656420776974682074686520 PUSH17 0x726F6A656374206C6961626C6520666F72 KECCAK256 PUSH2 0x6E79 KECCAK256 PUSH13 0x6F73736573206F72206D697375 PUSH15 0x6465727374616E64696E6773A26469 PUSH17 0x667358221220C2DE964F8ECB2BC55BDD1D REVERT 0xAE MSTORE8 PUSH21 0xB3384504B8F9585ADC5F906BE5F9650EDF64736F6C PUSH4 0x4300060C STOP CALLER LOG2 PUSH5 0x6970667358 0x22 SLT KECCAK256 0xD0 0xCC CALLDATACOPY PUSH9 0xF6B9C83B81401672CE DUP3 0xAD 0xA8 SAR 0xA9 0x21 RETURNDATASIZE SWAP14 0xE3 BLOCKHASH 0xC ADD DUP4 0xD4 0x5D 0xC SUB CODECOPY NOT PUSH5 0x736F6C6343 STOP MOD 0xC STOP CALLER ","sha1":"1098793cf27d995dbbeeaba77f69a11fa9dce6a8","source":"pragma solidity 0.6.12;\n\nimport \"./Auctions/DutchAuction.sol\";\n\ncontract DutchAuctionFactory {\n    function deployAuction() external returns (address) {\n        return address(new DutchAuction());\n    }\n}\n","sourcePath":"contracts/DutchActionFactory.sol","deployment":{"address":"0x6C3de02224Fb2035a5Db5b86DF5408391cbB7dd7","chainid":"4002","blockHeight":6533336}}