{"bytecode":"60a060405234801561001057600080fd5b5060405161357b38038061357b8339818101604052602081101561003357600080fd5b50516001600255606081901b6001600160601b0319166080526001600160a01b03166134f6610085600039806102dd5280610c265280610c5e5280610ccf5280611051528061176452506134f66000f3fe6080604052600436106102cd5760003560e01c80639010d07c11610175578063d5391393116100dc578063edf8bc1311610095578063f6326fb31161006f578063f6326fb314610b56578063f82fc8ce14610b5e578063fc4e3e0a14610bd9578063fc62485a14610c0c5761030c565b8063edf8bc1314610b17578063ee16c16014610b2c578063f5b541a614610b415761030c565b8063d539139314610a02578063d547741f14610a17578063d73cc4df14610a50578063dccfe31014610a7e578063deaa59df14610ab1578063e6594abd14610ae45761030c565b8063c395fcb31161012e578063c395fcb314610951578063c45a015514610984578063c9d41a4014610999578063c9e57aa6146109ae578063ca15c873146109c3578063d21220a7146109ed5761030c565b80639010d07c1461083a57806391d148541461086a5780639478941c146108a3578063a217fddf146108d6578063adbf3776146108eb578063b7928b1d1461091e5761030c565b8063521eb273116102345780637cf2ed22116101ed57806380f55605116101c757806380f55605146107c85780638566de4b146107dd578063857d2608146107f25780638a845fc0146108075761030c565b80637cf2ed22146107405780637f4f577d14610755578063801ea6ec146107b35761030c565b8063521eb2731461065c57806354f1e126146106715780636595171c146106a457806368b84b72146106d75780636f43f17b1461070157806371210a0d146107165761030c565b806336568abe1161028657806336568abe1461048a5780633f16431a146104c35780634422c3a1146104f65780634bb278f3146105c45780634ddf47d4146105d95780635153786b146106475761030c565b8063099db01714610311578063113b0ab214610358578063248a9ca31461038b57806325be124e146103c75780632dd7131a146103f85780632f2ff15d146104515761030c565b3661030c57336001600160a01b037f0000000000000000000000000000000000000000000000000000000000000000161461030a5761030a610c21565b005b600080fd5b34801561031d57600080fd5b506103446004803603602081101561033457600080fd5b50356001600160a01b0316610d44565b604080519115158252519081900360200190f35b34801561036457600080fd5b506103446004803603602081101561037b57600080fd5b50356001600160a01b0316610d64565b34801561039757600080fd5b506103b5600480360360208110156103ae57600080fd5b5035610d7e565b60408051918252519081900360200190f35b3480156103d357600080fd5b506103dc610d93565b604080516001600160a01b039092168252519081900360200190f35b34801561040457600080fd5b5061030a600480360360c081101561041b57600080fd5b506001600160a01b0381358116916020810135821691604082013581169160608101359091169060808101359060a00135610da2565b34801561045d57600080fd5b5061030a6004803603604081101561047457600080fd5b50803590602001356001600160a01b03166113ad565b34801561049657600080fd5b5061030a600480360360408110156104ad57600080fd5b50803590602001356001600160a01b0316611419565b3480156104cf57600080fd5b5061030a600480360360208110156104e657600080fd5b50356001600160a01b031661147a565b34801561050257600080fd5b5061054f600480360360c081101561051957600080fd5b506001600160a01b0381358116916020810135821691604082013581169160608101359091169060808101359060a001356114dc565b6040805160208082528351818301528351919283929083019185019080838360005b83811015610589578181015183820152602001610571565b50505050905090810190601f1680156105b65780820380516001836020036101000a031916815260200191505b509250505060405180910390f35b3480156105d057600080fd5b506103b561152d565b61030a600480360360208110156105ef57600080fd5b810190602081018135600160201b81111561060957600080fd5b82018360208201111561061b57600080fd5b803590602001918460018302840111600160201b8311171561063c57600080fd5b509092509050611415565b34801561065357600080fd5b506103b5611ac0565b34801561066857600080fd5b506103dc611b3d565b34801561067d57600080fd5b5061030a6004803603602081101561069457600080fd5b50356001600160a01b0316611b4c565b3480156106b057600080fd5b5061030a600480360360208110156106c757600080fd5b50356001600160a01b0316611bae565b3480156106e357600080fd5b50610344600480360360208110156106fa57600080fd5b5035611c03565b34801561070d57600080fd5b506103b5611c1d565b34801561072257600080fd5b506103446004803603602081101561073957600080fd5b5035611c68565b34801561074c57600080fd5b5061030a611c82565b34801561076157600080fd5b5061076a611d7b565b6040805163ffffffff909616865267ffffffffffffffff909416602086015261ffff90921684840152151560608401526001600160801b03166080830152519081900360a00190f35b3480156107bf57600080fd5b506103b5611dc2565b3480156107d457600080fd5b506103dc611e11565b3480156107e957600080fd5b506103b5611e20565b3480156107fe57600080fd5b506103b5611e25565b34801561081357600080fd5b5061030a6004803603602081101561082a57600080fd5b50356001600160a01b0316611e37565b34801561084657600080fd5b506103dc6004803603604081101561085d57600080fd5b5080359060200135611e99565b34801561087657600080fd5b506103446004803603604081101561088d57600080fd5b50803590602001356001600160a01b0316611eb8565b3480156108af57600080fd5b5061030a600480360360208110156108c657600080fd5b50356001600160a01b0316611ed0565b3480156108e257600080fd5b506103b5611f32565b3480156108f757600080fd5b5061030a6004803603602081101561090e57600080fd5b50356001600160a01b0316611f37565b34801561092a57600080fd5b5061030a6004803603602081101561094157600080fd5b50356001600160a01b0316611f99565b34801561095d57600080fd5b506103446004803603602081101561097457600080fd5b50356001600160a01b0316611ffb565b34801561099057600080fd5b506103dc612007565b3480156109a557600080fd5b5061030a612016565b3480156109ba57600080fd5b506103dc61207f565b3480156109cf57600080fd5b506103b5600480360360208110156109e657600080fd5b503561208e565b3480156109f957600080fd5b506103dc6120a5565b348015610a0e57600080fd5b506103b56120b4565b348015610a2357600080fd5b5061030a60048036036040811015610a3a57600080fd5b50803590602001356001600160a01b03166120c6565b348015610a5c57600080fd5b50610a6561211f565b6040805192835260208301919091528051918290030190f35b348015610a8a57600080fd5b5061030a60048036036020811015610aa157600080fd5b50356001600160a01b0316612299565b348015610abd57600080fd5b5061030a60048036036020811015610ad457600080fd5b50356001600160a01b03166122ee565b348015610af057600080fd5b5061030a60048036036020811015610b0757600080fd5b50356001600160a01b03166123a5565b348015610b2357600080fd5b506103b561245a565b348015610b3857600080fd5b506103dc612631565b348015610b4d57600080fd5b506103b5612640565b61030a610c21565b348015610b6a57600080fd5b5061030a60048036036020811015610b8157600080fd5b810190602081018135600160201b811115610b9b57600080fd5b820183602082011115610bad57600080fd5b803590602001918460018302840111600160201b83111715610bce57600080fd5b509092509050612652565b348015610be557600080fd5b5061034460048036036020811015610bfc57600080fd5b50356001600160a01b03166126b9565b348015610c1857600080fd5b506103446126d3565b6003547f00000000000000000000000000000000000000000000000000000000000000006001600160a01b0390811691161480610c8c57506004547f00000000000000000000000000000000000000000000000000000000000000006001600160a01b039081169116145b610cc75760405162461bcd60e51b815260040180806020018281038252602781526020018061343e6027913960400191505060405180910390fd5b3415610d42577f00000000000000000000000000000000000000000000000000000000000000006001600160a01b031663d0e30db0346040518263ffffffff1660e01b81526004016000604051808303818588803b158015610d2857600080fd5b505af1158015610d3c573d6000803e3d6000fd5b50505050505b565b6000610d5e6000805160206133cd83398151915283611eb8565b92915050565b6000610d5e6000805160206131dd83398151915283611eb8565b60009081526020819052604090206002015490565b6004546001600160a01b031681565b6402540be4008110610de55760405162461bcd60e51b815260040180806020018281038252604081526020018061338d6040913960400191505060405180910390fd5b612710821115610e265760405162461bcd60e51b815260040180806020018281038252603f81526020018061319e603f913960400191505060405180910390fd5b60008211610e655760405162461bcd60e51b815260040180806020018281038252602d815260200180613411602d913960400191505060405180910390fd5b6001600160a01b038416610eaa5760405162461bcd60e51b81526004018080602001828103825260268152602001806133236026913960400191505060405180910390fd5b6001600160a01b038316610eef5760405162461bcd60e51b81526004018080602001828103825260278152602001806131fd6027913960400191505060405180910390fd5b610ef8846123a5565b600880546001600160a01b0319166001600160a01b03888116919091179182905560408051633d15cc6d60e01b815290519290911691633d15cc6d91600480820192602092909190829003018186803b158015610f5457600080fd5b505afa158015610f68573d6000803e3d6000fd5b505050506040513d6020811015610f7e57600080fd5b5051600380546001600160a01b0319166001600160a01b03928316179055600854604080516304cfed9960e51b8152905191909216916399fdb320916004808301926020929190829003018186803b158015610fd957600080fd5b505afa158015610fed573d6000803e3d6000fd5b505050506040513d602081101561100357600080fd5b5051600480546001600160a01b0319166001600160a01b0392831617905560035473eeeeeeeeeeeeeeeeeeeeeeeeeeeeeeeeeeeeeeee9116141561107d57600380546001600160a01b0319167f00000000000000000000000000000000000000000000000000000000000000006001600160a01b03161790555b6003546040805163313ce56760e01b815290516000926001600160a01b03169163313ce567916004808301926020929190829003018186803b1580156110c257600080fd5b505afa1580156110d6573d6000803e3d6000fd5b505050506040513d60208110156110ec57600080fd5b5051600480546040805163313ce56760e01b8152905160ff90941694506000936001600160a01b039092169263313ce567928282019260209290829003018186803b15801561113a57600080fd5b505afa15801561114e573d6000803e3d6000fd5b505050506040513d602081101561116457600080fd5b505160ff1690508181101561117857600080fd5b600580546001600160a01b0319166001600160a01b03891690811790915560408051631355724960e31b8152905160009291639aab9248916004808301926020929190829003018186803b1580156111cf57600080fd5b505afa1580156111e3573d6000803e3d6000fd5b505050506040513d60208110156111f957600080fd5b505160035460045491925061121d918a916001600160a01b03908116911684612768565b600680546001600160a01b03199081166001600160a01b03938416179091556007805490911691881691909117905561125585612806565b6009805461ffff92909216600160601b0261ffff60601b1990921691909117905561127f84612863565b600960000160006101000a81548163ffffffff021916908363ffffffff160217905550600061133461271061132e88600860009054906101000a90046001600160a01b03166001600160a01b031663f08b82e66040518163ffffffff1660e01b815260040160206040518083038186803b1580156112fc57600080fd5b505afa158015611310573d6000803e3d6000fd5b505050506040513d602081101561132657600080fd5b5051906128be565b9061292a565b60045490915061134e906001600160a01b03163383612988565b600454600354604080516001600160a01b038d811682528c811660208301528251948116949316927f347f9def0950a93749244d7a0cfde1e52dcb48c303a538fda3ceb25c2576d656929181900390910190a350505050505050505050565b6000828152602081905260409020600201546113d0906113cb612aa9565b611eb8565b61140b5760405162461bcd60e51b815260040180806020018281038252602f81526020018061316f602f913960400191505060405180910390fd5b6114158282612aad565b5050565b611421612aa9565b6001600160a01b0316816001600160a01b0316146114705760405162461bcd60e51b815260040180806020018281038252602f815260200180613492602f913960400191505060405180910390fd5b6114158282612b16565b6114926000805160206131dd833981519152826113ad565b61149a612aa9565b6001600160a01b0316816001600160a01b03167f1d5f9ec24c6f91be922ea13ceaad919ad6554a41b5c26087f96289a9baf98ad260405160405180910390a350565b604080516001600160a01b03978816602082015295871686820152938616606086015291909416608084015260a083019390935260c0808301939093528051808303909301835260e0909101905290565b6000600280541415611586576040805162461bcd60e51b815260206004820152601f60248201527f5265656e7472616e637947756172643a207265656e7472616e742063616c6c00604482015290519081900360640190fd5b600280556115926126d3565b6115cd5760405162461bcd60e51b81526004018080602001828103825260528152602001806132d16052913960600191505060405180910390fd5b600954600160701b900460ff16156115e457600080fd5b600860009054906101000a90046001600160a01b03166001600160a01b031663b3f05b976040518163ffffffff1660e01b815260040160206040518083038186803b15801561163257600080fd5b505afa158015611646573d6000803e3d6000fd5b505050506040513d602081101561165c57600080fd5b50516116cb57600860009054906101000a90046001600160a01b03166001600160a01b0316634bb278f36040518163ffffffff1660e01b8152600401600060405180830381600087803b1580156116b257600080fd5b505af11580156116c6573d6000803e3d6000fd5b505050505b6009805460ff60701b1916600160701b179055600854604080516336d0054b60e01b815290516001600160a01b03909216916336d0054b91600480820192602092909190829003018186803b15801561172357600080fd5b505afa158015611737573d6000803e3d6000fd5b505050506040513d602081101561174d57600080fd5b505161175b57506000611ab8565b4780156117d7577f00000000000000000000000000000000000000000000000000000000000000006001600160a01b031663d0e30db0826040518263ffffffff1660e01b81526004016000604051808303818588803b1580156117bd57600080fd5b505af11580156117d1573d6000803e3d6000fd5b50505050505b6000806117e261211f565b9150915081600014806117f3575080155b156118045760009350505050611ab8565b600554600354600480546040805163e6a4390560e01b81526001600160a01b0394851693810193909352908316602483015251600093929092169163e6a4390591604480820192602092909190829003018186803b15801561186557600080fd5b505afa158015611879573d6000803e3d6000fd5b505050506040513d602081101561188f57600080fd5b505190506001600160a01b03811615806118ae57506118ac611c1d565b155b6118ff576040805162461bcd60e51b815260206004820152601b60248201527f506f73744c69717569646974793a2050616972206e6f74206e65770000000000604482015290519081900360640190fd5b6001600160a01b03811661191557611915612b7f565b600354600654611932916001600160a01b03908116911685612c08565b60045460065461194f916001600160a01b03908116911684612c08565b600654604080516335313c2160e11b815230600482015290516001600160a01b0390921691636a627842916024808201926020929091908290030181600087803b15801561199c57600080fd5b505af11580156119b0573d6000803e3d6000fd5b505050506040513d60208110156119c657600080fd5b50516009549095506119f1906119ec90600160781b90046001600160801b031687612c84565b612cdc565b600980546001600160801b0392909216600160781b026fffffffffffffffffffffffffffffffff60781b19909216919091179081905567ffffffffffffffff600160201b90910416611a8057600954611a519063ffffffff164201612d3a565b6009805467ffffffffffffffff92909216600160201b026bffffffffffffffff00000000199092169190911790555b6040805186815290517ffdb748c915e4e67b4bb23287bf4295a4595ce48b50343214369f72ccfb974cfa9181900360200190a1505050505b600160025590565b600354604080516370a0823160e01b815230600482015290516000926001600160a01b0316916370a08231916024808301926020929190829003018186803b158015611b0b57600080fd5b505afa158015611b1f573d6000803e3d6000fd5b505050506040513d6020811015611b3557600080fd5b505190505b90565b6007546001600160a01b031681565b611b646000805160206133cd833981519152826120c6565b611b6c612aa9565b6001600160a01b0316816001600160a01b03167f56692a161ffec953ddf9def93b958ea8d1ec95e21b80870c66be91a4374dc4e360405160405180910390a350565b611bb96000826113ad565b611bc1612aa9565b6001600160a01b0316816001600160a01b03167f2570ac42fd8b322dc453ada624dc2ed0e9bdd67f16f201a25bbd30468f2aa18760405160405180910390a350565b600454600090610d5e906001600160a01b03163384612d99565b600654604080516370a0823160e01b815230600482015290516000926001600160a01b0316916370a08231916024808301926020929190829003018186803b158015611b0b57600080fd5b600354600090610d5e906001600160a01b03163384612d99565b611c8b33611ffb565b80611c9a5750611c9a336126b9565b611cd55760405162461bcd60e51b81526004018080602001828103825260248152602001806133496024913960400191505060405180910390fd5b600954600160701b900460ff16611d1d5760405162461bcd60e51b81526004018080602001828103825260288152602001806132246028913960400191505060405180910390fd5b6000611d27611ac0565b90508015611d4c57600354600754611d4c916001600160a01b03908116911683612c08565b6000611d56611dc2565b9050801561141557600454600754611415916001600160a01b03908116911683612c08565b60095463ffffffff811690600160201b810467ffffffffffffffff1690600160601b810461ffff1690600160701b810460ff1690600160781b90046001600160801b031685565b60048054604080516370a0823160e01b81523093810193909352516000926001600160a01b03909216916370a08231916024808301926020929190829003018186803b158015611b0b57600080fd5b6008546001600160a01b031681565b600381565b6000805160206131dd83398151915281565b611e4f6000805160206131dd833981519152826120c6565b611e57612aa9565b6001600160a01b0316816001600160a01b03167fe5f1aa9e528307345194b88b24a32401c13926e0823060f1049d9b26c0bb62b260405160405180910390a350565b6000828152602081905260408120611eb19083612e88565b9392505050565b6000828152602081905260408120611eb19083612e94565b611ee860008051602061336d833981519152826120c6565b611ef0612aa9565b6001600160a01b0316816001600160a01b03167f70b25138b6fadeb9992d18b9653564271823e34b3e3257515d12a6d4b15fcddf60405160405180910390a350565b600081565b611f4f6000805160206133cd833981519152826113ad565b611f57612aa9565b6001600160a01b0316816001600160a01b03167f0be6ab9784c7401fafb73f7bc47bc67cc4ef8c47a60ad3cb66d1de0353a0784c60405160405180910390a350565b611fb160008051602061336d833981519152826113ad565b611fb9612aa9565b6001600160a01b0316816001600160a01b03167f2d45ee102874989882745a26688d0b4fffee125a18df26536b12582c7fde4e1760405160405180910390a350565b6000610d5e8183611eb8565b6005546001600160a01b031681565b61201f33611ffb565b61202857600080fd5b600954600160701b900460ff161561203f57600080fd5b6009805460ff60701b1916600160701b17905560405133907f8c549b74aaa0c6619e0bbf388c66d59e84e25a829b1849376129856c778c6b4290600090a2565b6006546001600160a01b031690565b6000818152602081905260408120610d5e90612ea9565b6003546001600160a01b031681565b6000805160206133cd83398151915281565b6000828152602081905260409020600201546120e4906113cb612aa9565b6114705760405162461bcd60e51b81526004018080602001828103825260308152602001806132716030913960400191505060405180910390fd5b600954600090819061214c906127109061132e90600160601b900461ffff16612146611ac0565b906128be565b9150612156611dc2565b90506000600860009054906101000a90046001600160a01b03166001600160a01b0316637ff9b5966040518163ffffffff1660e01b815260040160206040518083038186803b1580156121a857600080fd5b505afa1580156121bc573d6000803e3d6000fd5b505050506040513d60208110156121d257600080fd5b5051600480546040805163313ce56760e01b815290519394506000936001600160a01b039092169263313ce567928282019260209290829003018186803b15801561221c57600080fd5b505afa158015612230573d6000803e3d6000fd5b505050506040513d602081101561224657600080fd5b505160ff1690506000612261600a83900a61132e86866128be565b905060006122778461132e88600a87900a6128be565b905080851115612285578094505b81861115612291578195505b505050509091565b6122a46000826120c6565b6122ac612aa9565b6001600160a01b0316816001600160a01b03167f21ba1239795d4e22874e3dc55f0a9d7b65bfb23069d32965d7c23be9524ccf9560405160405180910390a350565b6122f733611ffb565b61230057600080fd5b6001600160a01b03811661235b576040805162461bcd60e51b815260206004820152601a60248201527f57616c6c657420697320746865207a65726f2061646472657373000000000000604482015290519081900360640190fd5b600780546001600160a01b0319166001600160a01b0383169081179091556040517f4edbfac5b40fe46ac1af1fd222b224b38cfeeb9e21bd4fc6344526c245f7549b90600090a250565b60015460ff16156123f3576040805162461bcd60e51b8152602060048201526013602482015272105b1c9958591e481a5b9a5d1a585b1a5cd959606a1b604482015290519081900360640190fd5b6001600160a01b038116612440576040805162461bcd60e51b815260206004820152600f60248201526e125b98dbdc9c9958dd081a5b9c1d5d608a1b604482015290519081900360640190fd5b61244b60008261140b565b506001805460ff191681179055565b600061246533611ffb565b806124745750612474336126b9565b6124af5760405162461bcd60e51b81526004018080602001828103825260248152602001806133496024913960400191505060405180910390fd5b600954600160701b900460ff166124f75760405162461bcd60e51b81526004018080602001828103825260288152602001806132246028913960400191505060405180910390fd5b600954600160201b900467ffffffffffffffff1642101561255f576040805162461bcd60e51b815260206004820181905260248201527f506f737441756374696f6e3a204c6971756964697479206973206c6f636b6564604482015290519081900360640190fd5b600654604080516370a0823160e01b815230600482015290516001600160a01b03909216916370a0823191602480820192602092909190829003018186803b1580156125aa57600080fd5b505afa1580156125be573d6000803e3d6000fd5b505050506040513d60208110156125d457600080fd5b50519050806126145760405162461bcd60e51b815260040180806020018281038252602d815260200180613465602d913960400191505060405180910390fd5b600654600754611b3a916001600160a01b03908116911683612c08565b6006546001600160a01b031681565b60008051602061336d83398151915281565b600080600080600080878760c081101561266b57600080fd5b506001600160a01b0381358116975060208201358116965060408201358116955060608201351693506080810135925060a0013590506126af868686868686610da2565b5050505050505050565b6000610d5e60008051602061336d83398151915283611eb8565b6000306001600160a01b0316600860009054906101000a90046001600160a01b03166001600160a01b031663521eb2736040518163ffffffff1660e01b815260040160206040518083038186803b15801561272d57600080fd5b505afa158015612741573d6000803e3d6000fd5b505050506040513d602081101561275757600080fd5b50516001600160a01b031614905090565b60008060006127778686612eb4565b604080516bffffffffffffffffffffffff19606094851b811660208084019190915293851b81166034830152825160288184030181526048830184528051908501206001600160f81b031960688401529b90941b9093166069840152607d830199909952609d808301969096528851808303909601865260bd9091019097525050815191909401209392505050565b600061ffff82111561285f576040805162461bcd60e51b815260206004820152601b60248201527f426f72696e674d6174683a2075696e743136204f766572666c6f770000000000604482015290519081900360640190fd5b5090565b600063ffffffff82111561285f576040805162461bcd60e51b815260206004820152601b60248201527f426f72696e674d6174683a2075696e743332204f766572666c6f770000000000604482015290519081900360640190fd5b60008115806128d9575050808202828282816128d657fe5b04145b610d5e576040805162461bcd60e51b815260206004820152601860248201527f426f72696e674d6174683a204d756c204f766572666c6f770000000000000000604482015290519081900360640190fd5b6000808211612977576040805162461bcd60e51b8152602060048201526014602482015273426f72696e674d6174683a20446976207a65726f60601b604482015290519081900360640190fd5b81838161298057fe5b049392505050565b604080516001600160a01b038481166024830152306044830152606480830185905283518084039091018152608490920183526020820180516001600160e01b03166323b872dd60e01b178152925182516000946060949389169392918291908083835b60208310612a0b5780518252601f1990920191602091820191016129ec565b6001836020036101000a0380198251168184511680821785525050505050509050019150506000604051808303816000865af19150503d8060008114612a6d576040519150601f19603f3d011682016040523d82523d6000602084013e612a72565b606091505b5091509150818015612aa0575080511580612aa05750808060200190516020811015612a9d57600080fd5b50515b610d3c57600080fd5b3390565b6000828152602081905260409020612ac59082612f92565b1561141557612ad2612aa9565b6001600160a01b0316816001600160a01b0316837f2f8788117e7eff1d82e926ec794901d17c78024a50270940304540a733656f0d60405160405180910390a45050565b6000828152602081905260409020612b2e9082612fa7565b1561141557612b3b612aa9565b6001600160a01b0316816001600160a01b0316837ff6391f5c32d9c69d2a47ea670b442974b53935d1edc7fd64eb21e047a839171b60405160405180910390a45050565b60055460035460048054604080516364e329cb60e11b81526001600160a01b0394851693810193909352908316602483015251919092169163c9c653969160448083019260209291908290030181600087803b158015612bde57600080fd5b505af1158015612bf2573d6000803e3d6000fd5b505050506040513d602081101561141557600080fd5b604080516001600160a01b038481166024830152604480830185905283518084039091018152606490920183526020820180516001600160e01b031663a9059cbb60e01b1781529251825160009460609493891693929182919080838360208310612a0b5780518252601f1990920191602091820191016129ec565b81810181811015610d5e576040805162461bcd60e51b815260206004820152601860248201527f426f72696e674d6174683a20416464204f766572666c6f770000000000000000604482015290519081900360640190fd5b60006001600160801b0382111561285f576040805162461bcd60e51b815260206004820152601c60248201527f426f72696e674d6174683a2075696e74313238204f766572666c6f7700000000604482015290519081900360640190fd5b600067ffffffffffffffff82111561285f576040805162461bcd60e51b815260206004820152601b60248201527f426f72696e674d6174683a2075696e743634204f766572666c6f770000000000604482015290519081900360640190fd5b600954600090600160701b900460ff1615612de55760405162461bcd60e51b81526004018080602001828103825260288152602001806132246028913960400191505060405180910390fd5b600954600160781b90046001600160801b031615612e345760405162461bcd60e51b81526004018080602001828103825260248152602001806133ed6024913960400191505060405180910390fd5b60008211612e735760405162461bcd60e51b81526004018080602001828103825260308152602001806132a16030913960400191505060405180910390fd5b612e7e848484612988565b5060019392505050565b6000611eb18383612fbc565b6000611eb1836001600160a01b038416613020565b6000610d5e82613038565b600080826001600160a01b0316846001600160a01b03161415612f085760405162461bcd60e51b815260040180806020018281038252602581526020018061324c6025913960400191505060405180910390fd5b826001600160a01b0316846001600160a01b031610612f28578284612f2b565b83835b90925090506001600160a01b038216612f8b576040805162461bcd60e51b815260206004820152601e60248201527f556e697377617056324c6962726172793a205a45524f5f414444524553530000604482015290519081900360640190fd5b9250929050565b6000611eb1836001600160a01b03841661303c565b6000611eb1836001600160a01b038416613086565b81546000908210612ffe5760405162461bcd60e51b815260040180806020018281038252602281526020018061314d6022913960400191505060405180910390fd5b82600001828154811061300d57fe5b9060005260206000200154905092915050565b60009081526001919091016020526040902054151590565b5490565b60006130488383613020565b61307e57508154600181810184556000848152602080822090930184905584548482528286019093526040902091909155610d5e565b506000610d5e565b6000818152600183016020526040812054801561314257835460001980830191908101906000908790839081106130b957fe5b90600052602060002001549050808760000184815481106130d657fe5b60009182526020808320909101929092558281526001898101909252604090209084019055865487908061310657fe5b60019003818190600052602060002001600090559055866001016000878152602001908152602001600020600090556001945050505050610d5e565b6000915050610d5e56fe456e756d657261626c655365743a20696e646578206f7574206f6620626f756e6473416363657373436f6e74726f6c3a2073656e646572206d75737420626520616e2061646d696e20746f206772616e74506f737441756374696f6e3a204c69717569646974792070657263656e746167652067726561746572207468616e203130302e30302520283e3130303030299d49f397ae9ef1a834b569acb967799a367061e305932181a44f5773da873bfd506f737441756374696f6e3a2077616c6c657420697320746865207a65726f2061646472657373506f737441756374696f6e3a204d757374206669727374206c61756e6368206c6971756964697479556e697377617056324c6962726172793a204944454e544943414c5f414444524553534553416363657373436f6e74726f6c3a2073656e646572206d75737420626520616e2061646d696e20746f207265766f6b65506f737441756374696f6e3a20546f6b656e20616d6f756e74206d7573742062652067726561746572207468616e2030506f737441756374696f6e3a2041756374696f6e206d75737420686176652074686973206c61756e63686572206164647265737320736574206173207468652064657374696e6174696f6e2077616c6c6574506f737441756374696f6e3a2061646d696e20697320746865207a65726f2061646472657373506f737441756374696f6e3a2053656e646572206d757374206265206f70657261746f7297667070c54ef182b0f5858b034beac1b6f3089aa2d3188bb1e8929f4fa9b929506f737441756374696f6e3a20456e74657220616e20756e69782074696d657374616d7020696e207365636f6e64732c206e6f74206d696c697365636f6e64739f2df0fed2c77648de5860a4cc508cd0818c85b8b8a1ab4ceeef8d981c8956a6506f737441756374696f6e3a204c697175696469747920616c7265616479206164646564506f737441756374696f6e3a204c69717569646974792070657263656e7461676520657175616c73207a65726f506f737441756374696f6e3a204c61756e63686572206e6f7420616363657074696e6720455448506f737441756374696f6e3a204c6971756964697479206d7573742062652067726561746572207468616e2030416363657373436f6e74726f6c3a2063616e206f6e6c792072656e6f756e636520726f6c657320666f722073656c66a26469706673582212209eb1c24d2a1f3231837ee4c7467ab3ab76d054d5c30a8cd8e3b7f77be6efabaf64736f6c634300060c0033","bytecodeSha1":"374a93f3986718a29112d34202c5db40917956c6","type":"contract","abi":[{"inputs":[{"internalType":"address","name":"_weth","type":"address"}],"stateMutability":"nonpayable","type":"constructor","name":"constructor"},{"anonymous":false,"inputs":[{"indexed":true,"internalType":"address","name":"beneficiary","type":"address"},{"indexed":true,"internalType":"address","name":"caller","type":"address"}],"name":"AdminRoleGranted","type":"event"},{"anonymous":false,"inputs":[{"indexed":true,"internalType":"address","name":"beneficiary","type":"address"},{"indexed":true,"internalType":"address","name":"caller","type":"address"}],"name":"AdminRoleRemoved","type":"event"},{"anonymous":false,"inputs":[{"indexed":true,"internalType":"address","name":"token1","type":"address"},{"indexed":true,"internalType":"address","name":"token2","type":"address"},{"indexed":false,"internalType":"address","name":"factory","type":"address"},{"indexed":false,"internalType":"address","name":"sender","type":"address"}],"name":"InitLiquidityLauncher","type":"event"},{"anonymous":false,"inputs":[{"indexed":true,"internalType":"address","name":"wallet","type":"address"}],"name":"LauncherCancelled","type":"event"},{"anonymous":false,"inputs":[{"indexed":false,"internalType":"uint256","name":"liquidity","type":"uint256"}],"name":"LiquidityAdded","type":"event"},{"anonymous":false,"inputs":[{"indexed":true,"internalType":"address","name":"beneficiary","type":"address"},{"indexed":true,"internalType":"address","name":"caller","type":"address"}],"name":"MinterRoleGranted","type":"event"},{"anonymous":false,"inputs":[{"indexed":true,"internalType":"address","name":"beneficiary","type":"address"},{"indexed":true,"internalType":"address","name":"caller","type":"address"}],"name":"MinterRoleRemoved","type":"event"},{"anonymous":false,"inputs":[{"indexed":true,"internalType":"address","name":"beneficiary","type":"address"},{"indexed":true,"internalType":"address","name":"caller","type":"address"}],"name":"OperatorRoleGranted","type":"event"},{"anonymous":false,"inputs":[{"indexed":true,"internalType":"address","name":"beneficiary","type":"address"},{"indexed":true,"internalType":"address","name":"caller","type":"address"}],"name":"OperatorRoleRemoved","type":"event"},{"anonymous":false,"inputs":[{"indexed":true,"internalType":"bytes32","name":"role","type":"bytes32"},{"indexed":true,"internalType":"bytes32","name":"previousAdminRole","type":"bytes32"},{"indexed":true,"internalType":"bytes32","name":"newAdminRole","type":"bytes32"}],"name":"RoleAdminChanged","type":"event"},{"anonymous":false,"inputs":[{"indexed":true,"internalType":"bytes32","name":"role","type":"bytes32"},{"indexed":true,"internalType":"address","name":"account","type":"address"},{"indexed":true,"internalType":"address","name":"sender","type":"address"}],"name":"RoleGranted","type":"event"},{"anonymous":false,"inputs":[{"indexed":true,"internalType":"bytes32","name":"role","type":"bytes32"},{"indexed":true,"internalType":"address","name":"account","type":"address"},{"indexed":true,"internalType":"address","name":"sender","type":"address"}],"name":"RoleRevoked","type":"event"},{"anonymous":false,"inputs":[{"indexed":true,"internalType":"address","name":"beneficiary","type":"address"},{"indexed":true,"internalType":"address","name":"caller","type":"address"}],"name":"SmartContractRoleGranted","type":"event"},{"anonymous":false,"inputs":[{"indexed":true,"internalType":"address","name":"beneficiary","type":"address"},{"indexed":true,"internalType":"address","name":"caller","type":"address"}],"name":"SmartContractRoleRemoved","type":"event"},{"anonymous":false,"inputs":[{"indexed":true,"internalType":"address","name":"wallet","type":"address"}],"name":"WalletUpdated","type":"event"},{"inputs":[],"name":"DEFAULT_ADMIN_ROLE","outputs":[{"internalType":"bytes32","name":"","type":"bytes32"}],"stateMutability":"view","type":"function"},{"inputs":[],"name":"MINTER_ROLE","outputs":[{"internalType":"bytes32","name":"","type":"bytes32"}],"stateMutability":"view","type":"function"},{"inputs":[],"name":"OPERATOR_ROLE","outputs":[{"internalType":"bytes32","name":"","type":"bytes32"}],"stateMutability":"view","type":"function"},{"inputs":[],"name":"SMART_CONTRACT_ROLE","outputs":[{"internalType":"bytes32","name":"","type":"bytes32"}],"stateMutability":"view","type":"function"},{"inputs":[{"internalType":"address","name":"_address","type":"address"}],"name":"addAdminRole","outputs":[],"stateMutability":"nonpayable","type":"function"},{"inputs":[{"internalType":"address","name":"_address","type":"address"}],"name":"addMinterRole","outputs":[],"stateMutability":"nonpayable","type":"function"},{"inputs":[{"internalType":"address","name":"_address","type":"address"}],"name":"addOperatorRole","outputs":[],"stateMutability":"nonpayable","type":"function"},{"inputs":[{"internalType":"address","name":"_address","type":"address"}],"name":"addSmartContractRole","outputs":[],"stateMutability":"nonpayable","type":"function"},{"inputs":[],"name":"cancelLauncher","outputs":[],"stateMutability":"nonpayable","type":"function"},{"inputs":[],"name":"depositETH","outputs":[],"stateMutability":"payable","type":"function"},{"inputs":[{"internalType":"uint256","name":"_amount","type":"uint256"}],"name":"depositToken1","outputs":[{"internalType":"bool","name":"success","type":"bool"}],"stateMutability":"nonpayable","type":"function"},{"inputs":[{"internalType":"uint256","name":"_amount","type":"uint256"}],"name":"depositToken2","outputs":[{"internalType":"bool","name":"success","type":"bool"}],"stateMutability":"nonpayable","type":"function"},{"inputs":[],"name":"factory","outputs":[{"internalType":"contract IUniswapV2Factory","name":"","type":"address"}],"stateMutability":"view","type":"function"},{"inputs":[],"name":"finalize","outputs":[{"internalType":"uint256","name":"liquidity","type":"uint256"}],"stateMutability":"nonpayable","type":"function"},{"inputs":[],"name":"getLPBalance","outputs":[{"internalType":"uint256","name":"","type":"uint256"}],"stateMutability":"view","type":"function"},{"inputs":[],"name":"getLPTokenAddress","outputs":[{"internalType":"address","name":"","type":"address"}],"stateMutability":"view","type":"function"},{"inputs":[{"internalType":"address","name":"_market","type":"address"},{"internalType":"address","name":"_factory","type":"address"},{"internalType":"address","name":"_admin","type":"address"},{"internalType":"address","name":"_wallet","type":"address"},{"internalType":"uint256","name":"_liquidityPercent","type":"uint256"},{"internalType":"uint256","name":"_locktime","type":"uint256"}],"name":"getLauncherInitData","outputs":[{"internalType":"bytes","name":"_data","type":"bytes"}],"stateMutability":"pure","type":"function"},{"inputs":[{"internalType":"bytes32","name":"role","type":"bytes32"}],"name":"getRoleAdmin","outputs":[{"internalType":"bytes32","name":"","type":"bytes32"}],"stateMutability":"view","type":"function"},{"inputs":[{"internalType":"bytes32","name":"role","type":"bytes32"},{"internalType":"uint256","name":"index","type":"uint256"}],"name":"getRoleMember","outputs":[{"internalType":"address","name":"","type":"address"}],"stateMutability":"view","type":"function"},{"inputs":[{"internalType":"bytes32","name":"role","type":"bytes32"}],"name":"getRoleMemberCount","outputs":[{"internalType":"uint256","name":"","type":"uint256"}],"stateMutability":"view","type":"function"},{"inputs":[],"name":"getToken1Balance","outputs":[{"internalType":"uint256","name":"","type":"uint256"}],"stateMutability":"view","type":"function"},{"inputs":[],"name":"getToken2Balance","outputs":[{"internalType":"uint256","name":"","type":"uint256"}],"stateMutability":"view","type":"function"},{"inputs":[],"name":"getTokenAmounts","outputs":[{"internalType":"uint256","name":"token1Amount","type":"uint256"},{"internalType":"uint256","name":"token2Amount","type":"uint256"}],"stateMutability":"view","type":"function"},{"inputs":[{"internalType":"bytes32","name":"role","type":"bytes32"},{"internalType":"address","name":"account","type":"address"}],"name":"grantRole","outputs":[],"stateMutability":"nonpayable","type":"function"},{"inputs":[{"internalType":"address","name":"_address","type":"address"}],"name":"hasAdminRole","outputs":[{"internalType":"bool","name":"","type":"bool"}],"stateMutability":"view","type":"function"},{"inputs":[{"internalType":"address","name":"_address","type":"address"}],"name":"hasMinterRole","outputs":[{"internalType":"bool","name":"","type":"bool"}],"stateMutability":"view","type":"function"},{"inputs":[{"internalType":"address","name":"_address","type":"address"}],"name":"hasOperatorRole","outputs":[{"internalType":"bool","name":"","type":"bool"}],"stateMutability":"view","type":"function"},{"inputs":[{"internalType":"bytes32","name":"role","type":"bytes32"},{"internalType":"address","name":"account","type":"address"}],"name":"hasRole","outputs":[{"internalType":"bool","name":"","type":"bool"}],"stateMutability":"view","type":"function"},{"inputs":[{"internalType":"address","name":"_address","type":"address"}],"name":"hasSmartContractRole","outputs":[{"internalType":"bool","name":"","type":"bool"}],"stateMutability":"view","type":"function"},{"inputs":[{"internalType":"bytes","name":"_data","type":"bytes"}],"name":"init","outputs":[],"stateMutability":"payable","type":"function"},{"inputs":[{"internalType":"address","name":"_admin","type":"address"}],"name":"initAccessControls","outputs":[],"stateMutability":"nonpayable","type":"function"},{"inputs":[{"internalType":"address","name":"_market","type":"address"},{"internalType":"address","name":"_factory","type":"address"},{"internalType":"address","name":"_admin","type":"address"},{"internalType":"address","name":"_wallet","type":"address"},{"internalType":"uint256","name":"_liquidityPercent","type":"uint256"},{"internalType":"uint256","name":"_locktime","type":"uint256"}],"name":"initAuctionLauncher","outputs":[],"stateMutability":"nonpayable","type":"function"},{"inputs":[{"internalType":"bytes","name":"_data","type":"bytes"}],"name":"initLauncher","outputs":[],"stateMutability":"nonpayable","type":"function"},{"inputs":[],"name":"launcherInfo","outputs":[{"internalType":"uint32","name":"locktime","type":"uint32"},{"internalType":"uint64","name":"unlock","type":"uint64"},{"internalType":"uint16","name":"liquidityPercent","type":"uint16"},{"internalType":"bool","name":"launched","type":"bool"},{"internalType":"uint128","name":"liquidityAdded","type":"uint128"}],"stateMutability":"view","type":"function"},{"inputs":[],"name":"liquidityTemplate","outputs":[{"internalType":"uint256","name":"","type":"uint256"}],"stateMutability":"view","type":"function"},{"inputs":[],"name":"market","outputs":[{"internalType":"contract IMisoAuction","name":"","type":"address"}],"stateMutability":"view","type":"function"},{"inputs":[],"name":"marketConnected","outputs":[{"internalType":"bool","name":"","type":"bool"}],"stateMutability":"view","type":"function"},{"inputs":[{"internalType":"address","name":"_address","type":"address"}],"name":"removeAdminRole","outputs":[],"stateMutability":"nonpayable","type":"function"},{"inputs":[{"internalType":"address","name":"_address","type":"address"}],"name":"removeMinterRole","outputs":[],"stateMutability":"nonpayable","type":"function"},{"inputs":[{"internalType":"address","name":"_address","type":"address"}],"name":"removeOperatorRole","outputs":[],"stateMutability":"nonpayable","type":"function"},{"inputs":[{"internalType":"address","name":"_address","type":"address"}],"name":"removeSmartContractRole","outputs":[],"stateMutability":"nonpayable","type":"function"},{"inputs":[{"internalType":"bytes32","name":"role","type":"bytes32"},{"internalType":"address","name":"account","type":"address"}],"name":"renounceRole","outputs":[],"stateMutability":"nonpayable","type":"function"},{"inputs":[{"internalType":"bytes32","name":"role","type":"bytes32"},{"internalType":"address","name":"account","type":"address"}],"name":"revokeRole","outputs":[],"stateMutability":"nonpayable","type":"function"},{"inputs":[{"internalType":"address payable","name":"_wallet","type":"address"}],"name":"setWallet","outputs":[],"stateMutability":"nonpayable","type":"function"},{"inputs":[],"name":"token1","outputs":[{"internalType":"contract IERC20","name":"","type":"address"}],"stateMutability":"view","type":"function"},{"inputs":[],"name":"token2","outputs":[{"internalType":"contract IERC20","name":"","type":"address"}],"stateMutability":"view","type":"function"},{"inputs":[],"name":"tokenPair","outputs":[{"internalType":"address","name":"","type":"address"}],"stateMutability":"view","type":"function"},{"inputs":[],"name":"wallet","outputs":[{"internalType":"address","name":"","type":"address"}],"stateMutability":"view","type":"function"},{"inputs":[],"name":"withdrawDeposits","outputs":[],"stateMutability":"nonpayable","type":"function"},{"inputs":[],"name":"withdrawLPTokens","outputs":[{"internalType":"uint256","name":"liquidity","type":"uint256"}],"stateMutability":"nonpayable","type":"function"},{"stateMutability":"payable","type":"receive"}],"compiler":{"version":"0.6.12+commit.27d51765","evm_version":"istanbul","optimizer":{"enabled":true,"runs":200}},"contractName":"PostAuctionLauncher","language":"Solidity","natspec":{"methods":{"addAdminRole(address)":{"notice":"Grants the admin role to an address.","details":"The sender must have the admin role.","params":{"_address":"EOA or contract receiving the new role."}},"addMinterRole(address)":{"notice":"Grants the minter role to an address","details":"The sender must have the admin role","params":{"_address":"EOA or contract receiving the new role"}},"addOperatorRole(address)":{"notice":"Grants the operator role to an address","details":"The sender must have the admin role","params":{"_address":"EOA or contract receiving the new role"}},"addSmartContractRole(address)":{"notice":"Grants the smart contract role to an address","details":"The sender must have the admin role","params":{"_address":"EOA or contract receiving the new role"}},"depositToken1(uint256)":{"notice":"Deposits first Token to the contract.","params":{"_amount":"Number of tokens to deposit."}},"depositToken2(uint256)":{"notice":"Deposits second Token to the contract.","params":{"_amount":"Number of tokens to deposit."}},"finalize()":{"notice":"Finalizes Token sale and launches LP.","returns":{"liquidity":"Number of LPs."}},"getLPBalance()":{"notice":"Returns LP Token balance.","returns":{"_0":"uint256 LP Token balance."}},"getLPTokenAddress()":{"notice":"Returns LP token address..","returns":{"_0":"address LP address."}},"getLauncherInitData(address,address,address,address,uint256,uint256)":{"notice":"Collects data to initialize the auction and encodes them.","params":{"_admin":"Contract owner address.","_factory":"Uniswap V2 factory address.","_liquidityPercent":"Percentage of payment currency sent to liquidity pool.","_locktime":"How long the liquidity will be locked. Number of seconds.","_market":"Auction address for launcher.","_wallet":"Withdraw wallet address."},"returns":{"_data":"All the data in bytes format."}},"getRoleAdmin(bytes32)":{"details":"Returns the admin role that controls `role`. See {grantRole} and {revokeRole}. To change a role's admin, use {_setRoleAdmin}."},"getRoleMember(bytes32,uint256)":{"details":"Returns one of the accounts that have `role`. `index` must be a value between 0 and {getRoleMemberCount}, non-inclusive. Role bearers are not sorted in any particular way, and their ordering may change at any point. WARNING: When using {getRoleMember} and {getRoleMemberCount}, make sure you perform all queries on the same block. See the following https://forum.openzeppelin.com/t/iterating-over-elements-on-enumerableset-in-openzeppelin-contracts/2296[forum post] for more information."},"getRoleMemberCount(bytes32)":{"details":"Returns the number of accounts that have `role`. Can be used together with {getRoleMember} to enumerate all bearers of a role."},"getToken1Balance()":{"notice":"Gets the number of first token deposited into this contract.","returns":{"_0":"uint256 Number of WETH."}},"getToken2Balance()":{"notice":"Gets the number of second token deposited into this contract.","returns":{"_0":"uint256 Number of WETH."}},"grantRole(bytes32,address)":{"details":"Grants `role` to `account`. If `account` had not been already granted `role`, emits a {RoleGranted} event. Requirements: - the caller must have ``role``'s admin role."},"hasAdminRole(address)":{"notice":"Used to check whether an address has the admin role.","params":{"_address":"EOA or contract being checked."},"returns":{"_0":"bool True if the account has the role or false if it does not."}},"hasMinterRole(address)":{"notice":"Used to check whether an address has the minter role","params":{"_address":"EOA or contract being checked"},"returns":{"_0":"bool True if the account has the role or false if it does not"}},"hasOperatorRole(address)":{"notice":"Used to check whether an address has the operator role","params":{"_address":"EOA or contract being checked"},"returns":{"_0":"bool True if the account has the role or false if it does not"}},"hasRole(bytes32,address)":{"details":"Returns `true` if `account` has been granted `role`."},"hasSmartContractRole(address)":{"notice":"Used to check whether an address has the smart contract role","params":{"_address":"EOA or contract being checked"},"returns":{"_0":"bool True if the account has the role or false if it does not"}},"init(bytes)":{"notice":"Decodes and hands auction data to the initAuction function.","params":{"_data":"Encoded data for initialization."}},"initAccessControls(address)":{"notice":"Initializes access controls.","params":{"_admin":"Admins address."}},"initAuctionLauncher(address,address,address,address,uint256,uint256)":{"notice":"Initializes main contract variables (requires launchwindow to be more than 2 days.)","params":{"_admin":"Contract owner address.","_factory":"Uniswap V2 factory address.","_liquidityPercent":"Percentage of payment currency sent to liquidity pool.","_locktime":"How long the liquidity will be locked. Number of seconds.","_market":"Auction address for launcher.","_wallet":"Withdraw wallet address."}},"removeAdminRole(address)":{"notice":"Removes the admin role from an address.","details":"The sender must have the admin role.","params":{"_address":"EOA or contract affected."}},"removeMinterRole(address)":{"notice":"Removes the minter role from an address","details":"The sender must have the admin role","params":{"_address":"EOA or contract affected"}},"removeOperatorRole(address)":{"notice":"Removes the operator role from an address","details":"The sender must have the admin role","params":{"_address":"EOA or contract affected"}},"removeSmartContractRole(address)":{"notice":"Removes the smart contract role from an address","details":"The sender must have the admin role","params":{"_address":"EOA or contract affected"}},"renounceRole(bytes32,address)":{"details":"Revokes `role` from the calling account. Roles are often managed via {grantRole} and {revokeRole}: this function's purpose is to provide a mechanism for accounts to lose their privileges if they are compromised (such as when a trusted device is misplaced). If the calling account had been granted `role`, emits a {RoleRevoked} event. Requirements: - the caller must be `account`."},"revokeRole(bytes32,address)":{"details":"Revokes `role` from `account`. If `account` had been granted `role`, emits a {RoleRevoked} event. Requirements: - the caller must have ``role``'s admin role."},"setWallet(address)":{"notice":"Admin can set the wallet through this function.","params":{"_wallet":"Wallet is where funds will be sent."}},"withdrawLPTokens()":{"notice":"Withdraws LPs from the contract.","returns":{"liquidity":"Number of LPs."}},"token1()":{"notice":"First Token address."},"marketConnected()":{"notice":"Checks if market wallet is set to this launcher"},"market()":{"notice":"Token market contract address."},"withdrawDeposits()":{"notice":"Withraws deposited tokens and ETH from the contract to wallet."},"tokenPair()":{"notice":"LP pair address."},"factory()":{"notice":"Uniswap V2 factory address."},"wallet()":{"notice":"Withdraw wallet address."},"token2()":{"notice":"Second Token address."},"liquidityTemplate()":{"notice":"MISOLiquidity template id."},"depositETH()":{"notice":"Deposits ETH to the contract."},"MINTER_ROLE()":{"notice":"Role definitions"}},"kind":"dev","version":1},"opcodes":"PUSH1 0x80 PUSH1 0x40 MSTORE PUSH1 0x4 CALLDATASIZE LT PUSH2 0x2CD JUMPI PUSH1 0x0 CALLDATALOAD PUSH1 0xE0 SHR DUP1 PUSH4 0x9010D07C GT PUSH2 0x175 JUMPI DUP1 PUSH4 0xD5391393 GT PUSH2 0xDC JUMPI DUP1 PUSH4 0xEDF8BC13 GT PUSH2 0x95 JUMPI DUP1 PUSH4 0xF6326FB3 GT PUSH2 0x6F JUMPI DUP1 PUSH4 0xF6326FB3 EQ PUSH2 0xB56 JUMPI DUP1 PUSH4 0xF82FC8CE EQ PUSH2 0xB5E JUMPI DUP1 PUSH4 0xFC4E3E0A EQ PUSH2 0xBD9 JUMPI DUP1 PUSH4 0xFC62485A EQ PUSH2 0xC0C JUMPI PUSH2 0x30C JUMP JUMPDEST DUP1 PUSH4 0xEDF8BC13 EQ PUSH2 0xB17 JUMPI DUP1 PUSH4 0xEE16C160 EQ PUSH2 0xB2C JUMPI DUP1 PUSH4 0xF5B541A6 EQ PUSH2 0xB41 JUMPI PUSH2 0x30C JUMP JUMPDEST DUP1 PUSH4 0xD5391393 EQ PUSH2 0xA02 JUMPI DUP1 PUSH4 0xD547741F EQ PUSH2 0xA17 JUMPI DUP1 PUSH4 0xD73CC4DF EQ PUSH2 0xA50 JUMPI DUP1 PUSH4 0xDCCFE310 EQ PUSH2 0xA7E JUMPI DUP1 PUSH4 0xDEAA59DF EQ PUSH2 0xAB1 JUMPI DUP1 PUSH4 0xE6594ABD EQ PUSH2 0xAE4 JUMPI PUSH2 0x30C JUMP JUMPDEST DUP1 PUSH4 0xC395FCB3 GT PUSH2 0x12E JUMPI DUP1 PUSH4 0xC395FCB3 EQ PUSH2 0x951 JUMPI DUP1 PUSH4 0xC45A0155 EQ PUSH2 0x984 JUMPI DUP1 PUSH4 0xC9D41A40 EQ PUSH2 0x999 JUMPI DUP1 PUSH4 0xC9E57AA6 EQ PUSH2 0x9AE JUMPI DUP1 PUSH4 0xCA15C873 EQ PUSH2 0x9C3 JUMPI DUP1 PUSH4 0xD21220A7 EQ PUSH2 0x9ED JUMPI PUSH2 0x30C JUMP JUMPDEST DUP1 PUSH4 0x9010D07C EQ PUSH2 0x83A JUMPI DUP1 PUSH4 0x91D14854 EQ PUSH2 0x86A JUMPI DUP1 PUSH4 0x9478941C EQ PUSH2 0x8A3 JUMPI DUP1 PUSH4 0xA217FDDF EQ PUSH2 0x8D6 JUMPI DUP1 PUSH4 0xADBF3776 EQ PUSH2 0x8EB JUMPI DUP1 PUSH4 0xB7928B1D EQ PUSH2 0x91E JUMPI PUSH2 0x30C JUMP JUMPDEST DUP1 PUSH4 0x521EB273 GT PUSH2 0x234 JUMPI DUP1 PUSH4 0x7CF2ED22 GT PUSH2 0x1ED JUMPI DUP1 PUSH4 0x80F55605 GT PUSH2 0x1C7 JUMPI DUP1 PUSH4 0x80F55605 EQ PUSH2 0x7C8 JUMPI DUP1 PUSH4 0x8566DE4B EQ PUSH2 0x7DD JUMPI DUP1 PUSH4 0x857D2608 EQ PUSH2 0x7F2 JUMPI DUP1 PUSH4 0x8A845FC0 EQ PUSH2 0x807 JUMPI PUSH2 0x30C JUMP JUMPDEST DUP1 PUSH4 0x7CF2ED22 EQ PUSH2 0x740 JUMPI DUP1 PUSH4 0x7F4F577D EQ PUSH2 0x755 JUMPI DUP1 PUSH4 0x801EA6EC EQ PUSH2 0x7B3 JUMPI PUSH2 0x30C JUMP JUMPDEST DUP1 PUSH4 0x521EB273 EQ PUSH2 0x65C JUMPI DUP1 PUSH4 0x54F1E126 EQ PUSH2 0x671 JUMPI DUP1 PUSH4 0x6595171C EQ PUSH2 0x6A4 JUMPI DUP1 PUSH4 0x68B84B72 EQ PUSH2 0x6D7 JUMPI DUP1 PUSH4 0x6F43F17B EQ PUSH2 0x701 JUMPI DUP1 PUSH4 0x71210A0D EQ PUSH2 0x716 JUMPI PUSH2 0x30C JUMP JUMPDEST DUP1 PUSH4 0x36568ABE GT PUSH2 0x286 JUMPI DUP1 PUSH4 0x36568ABE EQ PUSH2 0x48A JUMPI DUP1 PUSH4 0x3F16431A EQ PUSH2 0x4C3 JUMPI DUP1 PUSH4 0x4422C3A1 EQ PUSH2 0x4F6 JUMPI DUP1 PUSH4 0x4BB278F3 EQ PUSH2 0x5C4 JUMPI DUP1 PUSH4 0x4DDF47D4 EQ PUSH2 0x5D9 JUMPI DUP1 PUSH4 0x5153786B EQ PUSH2 0x647 JUMPI PUSH2 0x30C JUMP JUMPDEST DUP1 PUSH4 0x99DB017 EQ PUSH2 0x311 JUMPI DUP1 PUSH4 0x113B0AB2 EQ PUSH2 0x358 JUMPI DUP1 PUSH4 0x248A9CA3 EQ PUSH2 0x38B JUMPI DUP1 PUSH4 0x25BE124E EQ PUSH2 0x3C7 JUMPI DUP1 PUSH4 0x2DD7131A EQ PUSH2 0x3F8 JUMPI DUP1 PUSH4 0x2F2FF15D EQ PUSH2 0x451 JUMPI PUSH2 0x30C JUMP JUMPDEST CALLDATASIZE PUSH2 0x30C JUMPI CALLER PUSH1 0x1 PUSH1 0x1 PUSH1 0xA0 SHL SUB PUSH32 0x0 AND EQ PUSH2 0x30A JUMPI PUSH2 0x30A PUSH2 0xC21 JUMP JUMPDEST STOP JUMPDEST PUSH1 0x0 DUP1 REVERT JUMPDEST CALLVALUE DUP1 ISZERO PUSH2 0x31D JUMPI PUSH1 0x0 DUP1 REVERT JUMPDEST POP PUSH2 0x344 PUSH1 0x4 DUP1 CALLDATASIZE SUB PUSH1 0x20 DUP2 LT ISZERO PUSH2 0x334 JUMPI PUSH1 0x0 DUP1 REVERT JUMPDEST POP CALLDATALOAD PUSH1 0x1 PUSH1 0x1 PUSH1 0xA0 SHL SUB AND PUSH2 0xD44 JUMP JUMPDEST PUSH1 0x40 DUP1 MLOAD SWAP2 ISZERO ISZERO DUP3 MSTORE MLOAD SWAP1 DUP2 SWAP1 SUB PUSH1 0x20 ADD SWAP1 RETURN JUMPDEST CALLVALUE DUP1 ISZERO PUSH2 0x364 JUMPI PUSH1 0x0 DUP1 REVERT JUMPDEST POP PUSH2 0x344 PUSH1 0x4 DUP1 CALLDATASIZE SUB PUSH1 0x20 DUP2 LT ISZERO PUSH2 0x37B JUMPI PUSH1 0x0 DUP1 REVERT JUMPDEST POP CALLDATALOAD PUSH1 0x1 PUSH1 0x1 PUSH1 0xA0 SHL SUB AND PUSH2 0xD64 JUMP JUMPDEST CALLVALUE DUP1 ISZERO PUSH2 0x397 JUMPI PUSH1 0x0 DUP1 REVERT JUMPDEST POP PUSH2 0x3B5 PUSH1 0x4 DUP1 CALLDATASIZE SUB PUSH1 0x20 DUP2 LT ISZERO PUSH2 0x3AE JUMPI PUSH1 0x0 DUP1 REVERT JUMPDEST POP CALLDATALOAD PUSH2 0xD7E JUMP JUMPDEST PUSH1 0x40 DUP1 MLOAD SWAP2 DUP3 MSTORE MLOAD SWAP1 DUP2 SWAP1 SUB PUSH1 0x20 ADD SWAP1 RETURN JUMPDEST CALLVALUE DUP1 ISZERO PUSH2 0x3D3 JUMPI PUSH1 0x0 DUP1 REVERT JUMPDEST POP PUSH2 0x3DC PUSH2 0xD93 JUMP JUMPDEST PUSH1 0x40 DUP1 MLOAD PUSH1 0x1 PUSH1 0x1 PUSH1 0xA0 SHL SUB SWAP1 SWAP3 AND DUP3 MSTORE MLOAD SWAP1 DUP2 SWAP1 SUB PUSH1 0x20 ADD SWAP1 RETURN JUMPDEST CALLVALUE DUP1 ISZERO PUSH2 0x404 JUMPI PUSH1 0x0 DUP1 REVERT JUMPDEST POP PUSH2 0x30A PUSH1 0x4 DUP1 CALLDATASIZE SUB PUSH1 0xC0 DUP2 LT ISZERO PUSH2 0x41B JUMPI PUSH1 0x0 DUP1 REVERT JUMPDEST POP PUSH1 0x1 PUSH1 0x1 PUSH1 0xA0 SHL SUB DUP2 CALLDATALOAD DUP2 AND SWAP2 PUSH1 0x20 DUP2 ADD CALLDATALOAD DUP3 AND SWAP2 PUSH1 0x40 DUP3 ADD CALLDATALOAD DUP2 AND SWAP2 PUSH1 0x60 DUP2 ADD CALLDATALOAD SWAP1 SWAP2 AND SWAP1 PUSH1 0x80 DUP2 ADD CALLDATALOAD SWAP1 PUSH1 0xA0 ADD CALLDATALOAD PUSH2 0xDA2 JUMP JUMPDEST CALLVALUE DUP1 ISZERO PUSH2 0x45D JUMPI PUSH1 0x0 DUP1 REVERT JUMPDEST POP PUSH2 0x30A PUSH1 0x4 DUP1 CALLDATASIZE SUB PUSH1 0x40 DUP2 LT ISZERO PUSH2 0x474 JUMPI PUSH1 0x0 DUP1 REVERT JUMPDEST POP DUP1 CALLDATALOAD SWAP1 PUSH1 0x20 ADD CALLDATALOAD PUSH1 0x1 PUSH1 0x1 PUSH1 0xA0 SHL SUB AND PUSH2 0x13AD JUMP JUMPDEST CALLVALUE DUP1 ISZERO PUSH2 0x496 JUMPI PUSH1 0x0 DUP1 REVERT JUMPDEST POP PUSH2 0x30A PUSH1 0x4 DUP1 CALLDATASIZE SUB PUSH1 0x40 DUP2 LT ISZERO PUSH2 0x4AD JUMPI PUSH1 0x0 DUP1 REVERT JUMPDEST POP DUP1 CALLDATALOAD SWAP1 PUSH1 0x20 ADD CALLDATALOAD PUSH1 0x1 PUSH1 0x1 PUSH1 0xA0 SHL SUB AND PUSH2 0x1419 JUMP JUMPDEST CALLVALUE DUP1 ISZERO PUSH2 0x4CF JUMPI PUSH1 0x0 DUP1 REVERT JUMPDEST POP PUSH2 0x30A PUSH1 0x4 DUP1 CALLDATASIZE SUB PUSH1 0x20 DUP2 LT ISZERO PUSH2 0x4E6 JUMPI PUSH1 0x0 DUP1 REVERT JUMPDEST POP CALLDATALOAD PUSH1 0x1 PUSH1 0x1 PUSH1 0xA0 SHL SUB AND PUSH2 0x147A JUMP JUMPDEST CALLVALUE DUP1 ISZERO PUSH2 0x502 JUMPI PUSH1 0x0 DUP1 REVERT JUMPDEST POP PUSH2 0x54F PUSH1 0x4 DUP1 CALLDATASIZE SUB PUSH1 0xC0 DUP2 LT ISZERO PUSH2 0x519 JUMPI PUSH1 0x0 DUP1 REVERT JUMPDEST POP PUSH1 0x1 PUSH1 0x1 PUSH1 0xA0 SHL SUB DUP2 CALLDATALOAD DUP2 AND SWAP2 PUSH1 0x20 DUP2 ADD CALLDATALOAD DUP3 AND SWAP2 PUSH1 0x40 DUP3 ADD CALLDATALOAD DUP2 AND SWAP2 PUSH1 0x60 DUP2 ADD CALLDATALOAD SWAP1 SWAP2 AND SWAP1 PUSH1 0x80 DUP2 ADD CALLDATALOAD SWAP1 PUSH1 0xA0 ADD CALLDATALOAD PUSH2 0x14DC JUMP JUMPDEST PUSH1 0x40 DUP1 MLOAD PUSH1 0x20 DUP1 DUP3 MSTORE DUP4 MLOAD DUP2 DUP4 ADD MSTORE DUP4 MLOAD SWAP2 SWAP3 DUP4 SWAP3 SWAP1 DUP4 ADD SWAP2 DUP6 ADD SWAP1 DUP1 DUP4 DUP4 PUSH1 0x0 JUMPDEST DUP4 DUP2 LT ISZERO PUSH2 0x589 JUMPI DUP2 DUP2 ADD MLOAD DUP4 DUP3 ADD MSTORE PUSH1 0x20 ADD PUSH2 0x571 JUMP JUMPDEST POP POP POP POP SWAP1 POP SWAP1 DUP2 ADD SWAP1 PUSH1 0x1F AND DUP1 ISZERO PUSH2 0x5B6 JUMPI DUP1 DUP3 SUB DUP1 MLOAD PUSH1 0x1 DUP4 PUSH1 0x20 SUB PUSH2 0x100 EXP SUB NOT AND DUP2 MSTORE PUSH1 0x20 ADD SWAP2 POP JUMPDEST POP SWAP3 POP POP POP PUSH1 0x40 MLOAD DUP1 SWAP2 SUB SWAP1 RETURN JUMPDEST CALLVALUE DUP1 ISZERO PUSH2 0x5D0 JUMPI PUSH1 0x0 DUP1 REVERT JUMPDEST POP PUSH2 0x3B5 PUSH2 0x152D JUMP JUMPDEST PUSH2 0x30A PUSH1 0x4 DUP1 CALLDATASIZE SUB PUSH1 0x20 DUP2 LT ISZERO PUSH2 0x5EF JUMPI PUSH1 0x0 DUP1 REVERT JUMPDEST DUP2 ADD SWAP1 PUSH1 0x20 DUP2 ADD DUP2 CALLDATALOAD PUSH1 0x1 PUSH1 0x20 SHL DUP2 GT ISZERO PUSH2 0x609 JUMPI PUSH1 0x0 DUP1 REVERT JUMPDEST DUP3 ADD DUP4 PUSH1 0x20 DUP3 ADD GT ISZERO PUSH2 0x61B JUMPI PUSH1 0x0 DUP1 REVERT JUMPDEST DUP1 CALLDATALOAD SWAP1 PUSH1 0x20 ADD SWAP2 DUP5 PUSH1 0x1 DUP4 MUL DUP5 ADD GT PUSH1 0x1 PUSH1 0x20 SHL DUP4 GT OR ISZERO PUSH2 0x63C JUMPI PUSH1 0x0 DUP1 REVERT JUMPDEST POP SWAP1 SWAP3 POP SWAP1 POP PUSH2 0x1415 JUMP JUMPDEST CALLVALUE DUP1 ISZERO PUSH2 0x653 JUMPI PUSH1 0x0 DUP1 REVERT JUMPDEST POP PUSH2 0x3B5 PUSH2 0x1AC0 JUMP JUMPDEST CALLVALUE DUP1 ISZERO PUSH2 0x668 JUMPI PUSH1 0x0 DUP1 REVERT JUMPDEST POP PUSH2 0x3DC PUSH2 0x1B3D JUMP JUMPDEST CALLVALUE DUP1 ISZERO PUSH2 0x67D JUMPI PUSH1 0x0 DUP1 REVERT JUMPDEST POP PUSH2 0x30A PUSH1 0x4 DUP1 CALLDATASIZE SUB PUSH1 0x20 DUP2 LT ISZERO PUSH2 0x694 JUMPI PUSH1 0x0 DUP1 REVERT JUMPDEST POP CALLDATALOAD PUSH1 0x1 PUSH1 0x1 PUSH1 0xA0 SHL SUB AND PUSH2 0x1B4C JUMP JUMPDEST CALLVALUE DUP1 ISZERO PUSH2 0x6B0 JUMPI PUSH1 0x0 DUP1 REVERT JUMPDEST POP PUSH2 0x30A PUSH1 0x4 DUP1 CALLDATASIZE SUB PUSH1 0x20 DUP2 LT ISZERO PUSH2 0x6C7 JUMPI PUSH1 0x0 DUP1 REVERT JUMPDEST POP CALLDATALOAD PUSH1 0x1 PUSH1 0x1 PUSH1 0xA0 SHL SUB AND PUSH2 0x1BAE JUMP JUMPDEST CALLVALUE DUP1 ISZERO PUSH2 0x6E3 JUMPI PUSH1 0x0 DUP1 REVERT JUMPDEST POP PUSH2 0x344 PUSH1 0x4 DUP1 CALLDATASIZE SUB PUSH1 0x20 DUP2 LT ISZERO PUSH2 0x6FA JUMPI PUSH1 0x0 DUP1 REVERT JUMPDEST POP CALLDATALOAD PUSH2 0x1C03 JUMP JUMPDEST CALLVALUE DUP1 ISZERO PUSH2 0x70D JUMPI PUSH1 0x0 DUP1 REVERT JUMPDEST POP PUSH2 0x3B5 PUSH2 0x1C1D JUMP JUMPDEST CALLVALUE DUP1 ISZERO PUSH2 0x722 JUMPI PUSH1 0x0 DUP1 REVERT JUMPDEST POP PUSH2 0x344 PUSH1 0x4 DUP1 CALLDATASIZE SUB PUSH1 0x20 DUP2 LT ISZERO PUSH2 0x739 JUMPI PUSH1 0x0 DUP1 REVERT JUMPDEST POP CALLDATALOAD PUSH2 0x1C68 JUMP JUMPDEST CALLVALUE DUP1 ISZERO PUSH2 0x74C JUMPI PUSH1 0x0 DUP1 REVERT JUMPDEST POP PUSH2 0x30A PUSH2 0x1C82 JUMP JUMPDEST CALLVALUE DUP1 ISZERO PUSH2 0x761 JUMPI PUSH1 0x0 DUP1 REVERT JUMPDEST POP PUSH2 0x76A PUSH2 0x1D7B JUMP JUMPDEST PUSH1 0x40 DUP1 MLOAD PUSH4 0xFFFFFFFF SWAP1 SWAP7 AND DUP7 MSTORE PUSH8 0xFFFFFFFFFFFFFFFF SWAP1 SWAP5 AND PUSH1 0x20 DUP7 ADD MSTORE PUSH2 0xFFFF SWAP1 SWAP3 AND DUP5 DUP5 ADD MSTORE ISZERO ISZERO PUSH1 0x60 DUP5 ADD MSTORE PUSH1 0x1 PUSH1 0x1 PUSH1 0x80 SHL SUB AND PUSH1 0x80 DUP4 ADD MSTORE MLOAD SWAP1 DUP2 SWAP1 SUB PUSH1 0xA0 ADD SWAP1 RETURN JUMPDEST CALLVALUE DUP1 ISZERO PUSH2 0x7BF JUMPI PUSH1 0x0 DUP1 REVERT JUMPDEST POP PUSH2 0x3B5 PUSH2 0x1DC2 JUMP JUMPDEST CALLVALUE DUP1 ISZERO PUSH2 0x7D4 JUMPI PUSH1 0x0 DUP1 REVERT JUMPDEST POP PUSH2 0x3DC PUSH2 0x1E11 JUMP JUMPDEST CALLVALUE DUP1 ISZERO PUSH2 0x7E9 JUMPI PUSH1 0x0 DUP1 REVERT JUMPDEST POP PUSH2 0x3B5 PUSH2 0x1E20 JUMP JUMPDEST CALLVALUE DUP1 ISZERO PUSH2 0x7FE JUMPI PUSH1 0x0 DUP1 REVERT JUMPDEST POP PUSH2 0x3B5 PUSH2 0x1E25 JUMP JUMPDEST CALLVALUE DUP1 ISZERO PUSH2 0x813 JUMPI PUSH1 0x0 DUP1 REVERT JUMPDEST POP PUSH2 0x30A PUSH1 0x4 DUP1 CALLDATASIZE SUB PUSH1 0x20 DUP2 LT ISZERO PUSH2 0x82A JUMPI PUSH1 0x0 DUP1 REVERT JUMPDEST POP CALLDATALOAD PUSH1 0x1 PUSH1 0x1 PUSH1 0xA0 SHL SUB AND PUSH2 0x1E37 JUMP JUMPDEST CALLVALUE DUP1 ISZERO PUSH2 0x846 JUMPI PUSH1 0x0 DUP1 REVERT JUMPDEST POP PUSH2 0x3DC PUSH1 0x4 DUP1 CALLDATASIZE SUB PUSH1 0x40 DUP2 LT ISZERO PUSH2 0x85D JUMPI PUSH1 0x0 DUP1 REVERT JUMPDEST POP DUP1 CALLDATALOAD SWAP1 PUSH1 0x20 ADD CALLDATALOAD PUSH2 0x1E99 JUMP JUMPDEST CALLVALUE DUP1 ISZERO PUSH2 0x876 JUMPI PUSH1 0x0 DUP1 REVERT JUMPDEST POP PUSH2 0x344 PUSH1 0x4 DUP1 CALLDATASIZE SUB PUSH1 0x40 DUP2 LT ISZERO PUSH2 0x88D JUMPI PUSH1 0x0 DUP1 REVERT JUMPDEST POP DUP1 CALLDATALOAD SWAP1 PUSH1 0x20 ADD CALLDATALOAD PUSH1 0x1 PUSH1 0x1 PUSH1 0xA0 SHL SUB AND PUSH2 0x1EB8 JUMP JUMPDEST CALLVALUE DUP1 ISZERO PUSH2 0x8AF JUMPI PUSH1 0x0 DUP1 REVERT JUMPDEST POP PUSH2 0x30A PUSH1 0x4 DUP1 CALLDATASIZE SUB PUSH1 0x20 DUP2 LT ISZERO PUSH2 0x8C6 JUMPI PUSH1 0x0 DUP1 REVERT JUMPDEST POP CALLDATALOAD PUSH1 0x1 PUSH1 0x1 PUSH1 0xA0 SHL SUB AND PUSH2 0x1ED0 JUMP JUMPDEST CALLVALUE DUP1 ISZERO PUSH2 0x8E2 JUMPI PUSH1 0x0 DUP1 REVERT JUMPDEST POP PUSH2 0x3B5 PUSH2 0x1F32 JUMP JUMPDEST CALLVALUE DUP1 ISZERO PUSH2 0x8F7 JUMPI PUSH1 0x0 DUP1 REVERT JUMPDEST POP PUSH2 0x30A PUSH1 0x4 DUP1 CALLDATASIZE SUB PUSH1 0x20 DUP2 LT ISZERO PUSH2 0x90E JUMPI PUSH1 0x0 DUP1 REVERT JUMPDEST POP CALLDATALOAD PUSH1 0x1 PUSH1 0x1 PUSH1 0xA0 SHL SUB AND PUSH2 0x1F37 JUMP JUMPDEST CALLVALUE DUP1 ISZERO PUSH2 0x92A JUMPI PUSH1 0x0 DUP1 REVERT JUMPDEST POP PUSH2 0x30A PUSH1 0x4 DUP1 CALLDATASIZE SUB PUSH1 0x20 DUP2 LT ISZERO PUSH2 0x941 JUMPI PUSH1 0x0 DUP1 REVERT JUMPDEST POP CALLDATALOAD PUSH1 0x1 PUSH1 0x1 PUSH1 0xA0 SHL SUB AND PUSH2 0x1F99 JUMP JUMPDEST CALLVALUE DUP1 ISZERO PUSH2 0x95D JUMPI PUSH1 0x0 DUP1 REVERT JUMPDEST POP PUSH2 0x344 PUSH1 0x4 DUP1 CALLDATASIZE SUB PUSH1 0x20 DUP2 LT ISZERO PUSH2 0x974 JUMPI PUSH1 0x0 DUP1 REVERT JUMPDEST POP CALLDATALOAD PUSH1 0x1 PUSH1 0x1 PUSH1 0xA0 SHL SUB AND PUSH2 0x1FFB JUMP JUMPDEST CALLVALUE DUP1 ISZERO PUSH2 0x990 JUMPI PUSH1 0x0 DUP1 REVERT JUMPDEST POP PUSH2 0x3DC PUSH2 0x2007 JUMP JUMPDEST CALLVALUE DUP1 ISZERO PUSH2 0x9A5 JUMPI PUSH1 0x0 DUP1 REVERT JUMPDEST POP PUSH2 0x30A PUSH2 0x2016 JUMP JUMPDEST CALLVALUE DUP1 ISZERO PUSH2 0x9BA JUMPI PUSH1 0x0 DUP1 REVERT JUMPDEST POP PUSH2 0x3DC PUSH2 0x207F JUMP JUMPDEST CALLVALUE DUP1 ISZERO PUSH2 0x9CF JUMPI PUSH1 0x0 DUP1 REVERT JUMPDEST POP PUSH2 0x3B5 PUSH1 0x4 DUP1 CALLDATASIZE SUB PUSH1 0x20 DUP2 LT ISZERO PUSH2 0x9E6 JUMPI PUSH1 0x0 DUP1 REVERT JUMPDEST POP CALLDATALOAD PUSH2 0x208E JUMP JUMPDEST CALLVALUE DUP1 ISZERO PUSH2 0x9F9 JUMPI PUSH1 0x0 DUP1 REVERT JUMPDEST POP PUSH2 0x3DC PUSH2 0x20A5 JUMP JUMPDEST CALLVALUE DUP1 ISZERO PUSH2 0xA0E JUMPI PUSH1 0x0 DUP1 REVERT JUMPDEST POP PUSH2 0x3B5 PUSH2 0x20B4 JUMP JUMPDEST CALLVALUE DUP1 ISZERO PUSH2 0xA23 JUMPI PUSH1 0x0 DUP1 REVERT JUMPDEST POP PUSH2 0x30A PUSH1 0x4 DUP1 CALLDATASIZE SUB PUSH1 0x40 DUP2 LT ISZERO PUSH2 0xA3A JUMPI PUSH1 0x0 DUP1 REVERT JUMPDEST POP DUP1 CALLDATALOAD SWAP1 PUSH1 0x20 ADD CALLDATALOAD PUSH1 0x1 PUSH1 0x1 PUSH1 0xA0 SHL SUB AND PUSH2 0x20C6 JUMP JUMPDEST CALLVALUE DUP1 ISZERO PUSH2 0xA5C JUMPI PUSH1 0x0 DUP1 REVERT JUMPDEST POP PUSH2 0xA65 PUSH2 0x211F JUMP JUMPDEST PUSH1 0x40 DUP1 MLOAD SWAP3 DUP4 MSTORE PUSH1 0x20 DUP4 ADD SWAP2 SWAP1 SWAP2 MSTORE DUP1 MLOAD SWAP2 DUP3 SWAP1 SUB ADD SWAP1 RETURN JUMPDEST CALLVALUE DUP1 ISZERO PUSH2 0xA8A JUMPI PUSH1 0x0 DUP1 REVERT JUMPDEST POP PUSH2 0x30A PUSH1 0x4 DUP1 CALLDATASIZE SUB PUSH1 0x20 DUP2 LT ISZERO PUSH2 0xAA1 JUMPI PUSH1 0x0 DUP1 REVERT JUMPDEST POP CALLDATALOAD PUSH1 0x1 PUSH1 0x1 PUSH1 0xA0 SHL SUB AND PUSH2 0x2299 JUMP JUMPDEST CALLVALUE DUP1 ISZERO PUSH2 0xABD JUMPI PUSH1 0x0 DUP1 REVERT JUMPDEST POP PUSH2 0x30A PUSH1 0x4 DUP1 CALLDATASIZE SUB PUSH1 0x20 DUP2 LT ISZERO PUSH2 0xAD4 JUMPI PUSH1 0x0 DUP1 REVERT JUMPDEST POP CALLDATALOAD PUSH1 0x1 PUSH1 0x1 PUSH1 0xA0 SHL SUB AND PUSH2 0x22EE JUMP JUMPDEST CALLVALUE DUP1 ISZERO PUSH2 0xAF0 JUMPI PUSH1 0x0 DUP1 REVERT JUMPDEST POP PUSH2 0x30A PUSH1 0x4 DUP1 CALLDATASIZE SUB PUSH1 0x20 DUP2 LT ISZERO PUSH2 0xB07 JUMPI PUSH1 0x0 DUP1 REVERT JUMPDEST POP CALLDATALOAD PUSH1 0x1 PUSH1 0x1 PUSH1 0xA0 SHL SUB AND PUSH2 0x23A5 JUMP JUMPDEST CALLVALUE DUP1 ISZERO PUSH2 0xB23 JUMPI PUSH1 0x0 DUP1 REVERT JUMPDEST POP PUSH2 0x3B5 PUSH2 0x245A JUMP JUMPDEST CALLVALUE DUP1 ISZERO PUSH2 0xB38 JUMPI PUSH1 0x0 DUP1 REVERT JUMPDEST POP PUSH2 0x3DC PUSH2 0x2631 JUMP JUMPDEST CALLVALUE DUP1 ISZERO PUSH2 0xB4D JUMPI PUSH1 0x0 DUP1 REVERT JUMPDEST POP PUSH2 0x3B5 PUSH2 0x2640 JUMP JUMPDEST PUSH2 0x30A PUSH2 0xC21 JUMP JUMPDEST CALLVALUE DUP1 ISZERO PUSH2 0xB6A JUMPI PUSH1 0x0 DUP1 REVERT JUMPDEST POP PUSH2 0x30A PUSH1 0x4 DUP1 CALLDATASIZE SUB PUSH1 0x20 DUP2 LT ISZERO PUSH2 0xB81 JUMPI PUSH1 0x0 DUP1 REVERT JUMPDEST DUP2 ADD SWAP1 PUSH1 0x20 DUP2 ADD DUP2 CALLDATALOAD PUSH1 0x1 PUSH1 0x20 SHL DUP2 GT ISZERO PUSH2 0xB9B JUMPI PUSH1 0x0 DUP1 REVERT JUMPDEST DUP3 ADD DUP4 PUSH1 0x20 DUP3 ADD GT ISZERO PUSH2 0xBAD JUMPI PUSH1 0x0 DUP1 REVERT JUMPDEST DUP1 CALLDATALOAD SWAP1 PUSH1 0x20 ADD SWAP2 DUP5 PUSH1 0x1 DUP4 MUL DUP5 ADD GT PUSH1 0x1 PUSH1 0x20 SHL DUP4 GT OR ISZERO PUSH2 0xBCE JUMPI PUSH1 0x0 DUP1 REVERT JUMPDEST POP SWAP1 SWAP3 POP SWAP1 POP PUSH2 0x2652 JUMP JUMPDEST CALLVALUE DUP1 ISZERO PUSH2 0xBE5 JUMPI PUSH1 0x0 DUP1 REVERT JUMPDEST POP PUSH2 0x344 PUSH1 0x4 DUP1 CALLDATASIZE SUB PUSH1 0x20 DUP2 LT ISZERO PUSH2 0xBFC JUMPI PUSH1 0x0 DUP1 REVERT JUMPDEST POP CALLDATALOAD PUSH1 0x1 PUSH1 0x1 PUSH1 0xA0 SHL SUB AND PUSH2 0x26B9 JUMP JUMPDEST CALLVALUE DUP1 ISZERO PUSH2 0xC18 JUMPI PUSH1 0x0 DUP1 REVERT JUMPDEST POP PUSH2 0x344 PUSH2 0x26D3 JUMP JUMPDEST PUSH1 0x3 SLOAD PUSH32 0x0 PUSH1 0x1 PUSH1 0x1 PUSH1 0xA0 SHL SUB SWAP1 DUP2 AND SWAP2 AND EQ DUP1 PUSH2 0xC8C JUMPI POP PUSH1 0x4 SLOAD PUSH32 0x0 PUSH1 0x1 PUSH1 0x1 PUSH1 0xA0 SHL SUB SWAP1 DUP2 AND SWAP2 AND EQ JUMPDEST PUSH2 0xCC7 JUMPI PUSH1 0x40 MLOAD PUSH3 0x461BCD PUSH1 0xE5 SHL DUP2 MSTORE PUSH1 0x4 ADD DUP1 DUP1 PUSH1 0x20 ADD DUP3 DUP2 SUB DUP3 MSTORE PUSH1 0x27 DUP2 MSTORE PUSH1 0x20 ADD DUP1 PUSH2 0x343E PUSH1 0x27 SWAP2 CODECOPY PUSH1 0x40 ADD SWAP2 POP POP PUSH1 0x40 MLOAD DUP1 SWAP2 SUB SWAP1 REVERT JUMPDEST CALLVALUE ISZERO PUSH2 0xD42 JUMPI PUSH32 0x0 PUSH1 0x1 PUSH1 0x1 PUSH1 0xA0 SHL SUB AND PUSH4 0xD0E30DB0 CALLVALUE PUSH1 0x40 MLOAD DUP3 PUSH4 0xFFFFFFFF AND PUSH1 0xE0 SHL DUP2 MSTORE PUSH1 0x4 ADD PUSH1 0x0 PUSH1 0x40 MLOAD DUP1 DUP4 SUB DUP2 DUP6 DUP9 DUP1 EXTCODESIZE ISZERO DUP1 ISZERO PUSH2 0xD28 JUMPI PUSH1 0x0 DUP1 REVERT JUMPDEST POP GAS CALL ISZERO DUP1 ISZERO PUSH2 0xD3C JUMPI RETURNDATASIZE PUSH1 0x0 DUP1 RETURNDATACOPY RETURNDATASIZE PUSH1 0x0 REVERT JUMPDEST POP POP POP POP POP JUMPDEST JUMP JUMPDEST PUSH1 0x0 PUSH2 0xD5E PUSH1 0x0 DUP1 MLOAD PUSH1 0x20 PUSH2 0x33CD DUP4 CODECOPY DUP2 MLOAD SWAP2 MSTORE DUP4 PUSH2 0x1EB8 JUMP JUMPDEST SWAP3 SWAP2 POP POP JUMP JUMPDEST PUSH1 0x0 PUSH2 0xD5E PUSH1 0x0 DUP1 MLOAD PUSH1 0x20 PUSH2 0x31DD DUP4 CODECOPY DUP2 MLOAD SWAP2 MSTORE DUP4 PUSH2 0x1EB8 JUMP JUMPDEST PUSH1 0x0 SWAP1 DUP2 MSTORE PUSH1 0x20 DUP2 SWAP1 MSTORE PUSH1 0x40 SWAP1 KECCAK256 PUSH1 0x2 ADD SLOAD SWAP1 JUMP JUMPDEST PUSH1 0x4 SLOAD PUSH1 0x1 PUSH1 0x1 PUSH1 0xA0 SHL SUB AND DUP2 JUMP JUMPDEST PUSH5 0x2540BE400 DUP2 LT PUSH2 0xDE5 JUMPI PUSH1 0x40 MLOAD PUSH3 0x461BCD PUSH1 0xE5 SHL DUP2 MSTORE PUSH1 0x4 ADD DUP1 DUP1 PUSH1 0x20 ADD DUP3 DUP2 SUB DUP3 MSTORE PUSH1 0x40 DUP2 MSTORE PUSH1 0x20 ADD DUP1 PUSH2 0x338D PUSH1 0x40 SWAP2 CODECOPY PUSH1 0x40 ADD SWAP2 POP POP PUSH1 0x40 MLOAD DUP1 SWAP2 SUB SWAP1 REVERT JUMPDEST PUSH2 0x2710 DUP3 GT ISZERO PUSH2 0xE26 JUMPI PUSH1 0x40 MLOAD PUSH3 0x461BCD PUSH1 0xE5 SHL DUP2 MSTORE PUSH1 0x4 ADD DUP1 DUP1 PUSH1 0x20 ADD DUP3 DUP2 SUB DUP3 MSTORE PUSH1 0x3F DUP2 MSTORE PUSH1 0x20 ADD DUP1 PUSH2 0x319E PUSH1 0x3F SWAP2 CODECOPY PUSH1 0x40 ADD SWAP2 POP POP PUSH1 0x40 MLOAD DUP1 SWAP2 SUB SWAP1 REVERT JUMPDEST PUSH1 0x0 DUP3 GT PUSH2 0xE65 JUMPI PUSH1 0x40 MLOAD PUSH3 0x461BCD PUSH1 0xE5 SHL DUP2 MSTORE PUSH1 0x4 ADD DUP1 DUP1 PUSH1 0x20 ADD DUP3 DUP2 SUB DUP3 MSTORE PUSH1 0x2D DUP2 MSTORE PUSH1 0x20 ADD DUP1 PUSH2 0x3411 PUSH1 0x2D SWAP2 CODECOPY PUSH1 0x40 ADD SWAP2 POP POP PUSH1 0x40 MLOAD DUP1 SWAP2 SUB SWAP1 REVERT JUMPDEST PUSH1 0x1 PUSH1 0x1 PUSH1 0xA0 SHL SUB DUP5 AND PUSH2 0xEAA JUMPI PUSH1 0x40 MLOAD PUSH3 0x461BCD PUSH1 0xE5 SHL DUP2 MSTORE PUSH1 0x4 ADD DUP1 DUP1 PUSH1 0x20 ADD DUP3 DUP2 SUB DUP3 MSTORE PUSH1 0x26 DUP2 MSTORE PUSH1 0x20 ADD DUP1 PUSH2 0x3323 PUSH1 0x26 SWAP2 CODECOPY PUSH1 0x40 ADD SWAP2 POP POP PUSH1 0x40 MLOAD DUP1 SWAP2 SUB SWAP1 REVERT JUMPDEST PUSH1 0x1 PUSH1 0x1 PUSH1 0xA0 SHL SUB DUP4 AND PUSH2 0xEEF JUMPI PUSH1 0x40 MLOAD PUSH3 0x461BCD PUSH1 0xE5 SHL DUP2 MSTORE PUSH1 0x4 ADD DUP1 DUP1 PUSH1 0x20 ADD DUP3 DUP2 SUB DUP3 MSTORE PUSH1 0x27 DUP2 MSTORE PUSH1 0x20 ADD DUP1 PUSH2 0x31FD PUSH1 0x27 SWAP2 CODECOPY PUSH1 0x40 ADD SWAP2 POP POP PUSH1 0x40 MLOAD DUP1 SWAP2 SUB SWAP1 REVERT JUMPDEST PUSH2 0xEF8 DUP5 PUSH2 0x23A5 JUMP JUMPDEST PUSH1 0x8 DUP1 SLOAD PUSH1 0x1 PUSH1 0x1 PUSH1 0xA0 SHL SUB NOT AND PUSH1 0x1 PUSH1 0x1 PUSH1 0xA0 SHL SUB DUP9 DUP2 AND SWAP2 SWAP1 SWAP2 OR SWAP2 DUP3 SWAP1 SSTORE PUSH1 0x40 DUP1 MLOAD PUSH4 0x3D15CC6D PUSH1 0xE0 SHL DUP2 MSTORE SWAP1 MLOAD SWAP3 SWAP1 SWAP2 AND SWAP2 PUSH4 0x3D15CC6D SWAP2 PUSH1 0x4 DUP1 DUP3 ADD SWAP3 PUSH1 0x20 SWAP3 SWAP1 SWAP2 SWAP1 DUP3 SWAP1 SUB ADD DUP2 DUP7 DUP1 EXTCODESIZE ISZERO DUP1 ISZERO PUSH2 0xF54 JUMPI PUSH1 0x0 DUP1 REVERT JUMPDEST POP GAS STATICCALL ISZERO DUP1 ISZERO PUSH2 0xF68 JUMPI RETURNDATASIZE PUSH1 0x0 DUP1 RETURNDATACOPY RETURNDATASIZE PUSH1 0x0 REVERT JUMPDEST POP POP POP POP PUSH1 0x40 MLOAD RETURNDATASIZE PUSH1 0x20 DUP2 LT ISZERO PUSH2 0xF7E JUMPI PUSH1 0x0 DUP1 REVERT JUMPDEST POP MLOAD PUSH1 0x3 DUP1 SLOAD PUSH1 0x1 PUSH1 0x1 PUSH1 0xA0 SHL SUB NOT AND PUSH1 0x1 PUSH1 0x1 PUSH1 0xA0 SHL SUB SWAP3 DUP4 AND OR SWAP1 SSTORE PUSH1 0x8 SLOAD PUSH1 0x40 DUP1 MLOAD PUSH4 0x4CFED99 PUSH1 0xE5 SHL DUP2 MSTORE SWAP1 MLOAD SWAP2 SWAP1 SWAP3 AND SWAP2 PUSH4 0x99FDB320 SWAP2 PUSH1 0x4 DUP1 DUP4 ADD SWAP3 PUSH1 0x20 SWAP3 SWAP2 SWAP1 DUP3 SWAP1 SUB ADD DUP2 DUP7 DUP1 EXTCODESIZE ISZERO DUP1 ISZERO PUSH2 0xFD9 JUMPI PUSH1 0x0 DUP1 REVERT JUMPDEST POP GAS STATICCALL ISZERO DUP1 ISZERO PUSH2 0xFED JUMPI RETURNDATASIZE PUSH1 0x0 DUP1 RETURNDATACOPY RETURNDATASIZE PUSH1 0x0 REVERT JUMPDEST POP POP POP POP PUSH1 0x40 MLOAD RETURNDATASIZE PUSH1 0x20 DUP2 LT ISZERO PUSH2 0x1003 JUMPI PUSH1 0x0 DUP1 REVERT JUMPDEST POP MLOAD PUSH1 0x4 DUP1 SLOAD PUSH1 0x1 PUSH1 0x1 PUSH1 0xA0 SHL SUB NOT AND PUSH1 0x1 PUSH1 0x1 PUSH1 0xA0 SHL SUB SWAP3 DUP4 AND OR SWAP1 SSTORE PUSH1 0x3 SLOAD PUSH20 0xEEEEEEEEEEEEEEEEEEEEEEEEEEEEEEEEEEEEEEEE SWAP2 AND EQ ISZERO PUSH2 0x107D JUMPI PUSH1 0x3 DUP1 SLOAD PUSH1 0x1 PUSH1 0x1 PUSH1 0xA0 SHL SUB NOT AND PUSH32 0x0 PUSH1 0x1 PUSH1 0x1 PUSH1 0xA0 SHL SUB AND OR SWAP1 SSTORE JUMPDEST PUSH1 0x3 SLOAD PUSH1 0x40 DUP1 MLOAD PUSH4 0x313CE567 PUSH1 0xE0 SHL DUP2 MSTORE SWAP1 MLOAD PUSH1 0x0 SWAP3 PUSH1 0x1 PUSH1 0x1 PUSH1 0xA0 SHL SUB AND SWAP2 PUSH4 0x313CE567 SWAP2 PUSH1 0x4 DUP1 DUP4 ADD SWAP3 PUSH1 0x20 SWAP3 SWAP2 SWAP1 DUP3 SWAP1 SUB ADD DUP2 DUP7 DUP1 EXTCODESIZE ISZERO DUP1 ISZERO PUSH2 0x10C2 JUMPI PUSH1 0x0 DUP1 REVERT JUMPDEST POP GAS STATICCALL ISZERO DUP1 ISZERO PUSH2 0x10D6 JUMPI RETURNDATASIZE PUSH1 0x0 DUP1 RETURNDATACOPY RETURNDATASIZE PUSH1 0x0 REVERT JUMPDEST POP POP POP POP PUSH1 0x40 MLOAD RETURNDATASIZE PUSH1 0x20 DUP2 LT ISZERO PUSH2 0x10EC JUMPI PUSH1 0x0 DUP1 REVERT JUMPDEST POP MLOAD PUSH1 0x4 DUP1 SLOAD PUSH1 0x40 DUP1 MLOAD PUSH4 0x313CE567 PUSH1 0xE0 SHL DUP2 MSTORE SWAP1 MLOAD PUSH1 0xFF SWAP1 SWAP5 AND SWAP5 POP PUSH1 0x0 SWAP4 PUSH1 0x1 PUSH1 0x1 PUSH1 0xA0 SHL SUB SWAP1 SWAP3 AND SWAP3 PUSH4 0x313CE567 SWAP3 DUP3 DUP3 ADD SWAP3 PUSH1 0x20 SWAP3 SWAP1 DUP3 SWAP1 SUB ADD DUP2 DUP7 DUP1 EXTCODESIZE ISZERO DUP1 ISZERO PUSH2 0x113A JUMPI PUSH1 0x0 DUP1 REVERT JUMPDEST POP GAS STATICCALL ISZERO DUP1 ISZERO PUSH2 0x114E JUMPI RETURNDATASIZE PUSH1 0x0 DUP1 RETURNDATACOPY RETURNDATASIZE PUSH1 0x0 REVERT JUMPDEST POP POP POP POP PUSH1 0x40 MLOAD RETURNDATASIZE PUSH1 0x20 DUP2 LT ISZERO PUSH2 0x1164 JUMPI PUSH1 0x0 DUP1 REVERT JUMPDEST POP MLOAD PUSH1 0xFF AND SWAP1 POP DUP2 DUP2 LT ISZERO PUSH2 0x1178 JUMPI PUSH1 0x0 DUP1 REVERT JUMPDEST PUSH1 0x5 DUP1 SLOAD PUSH1 0x1 PUSH1 0x1 PUSH1 0xA0 SHL SUB NOT AND PUSH1 0x1 PUSH1 0x1 PUSH1 0xA0 SHL SUB DUP10 AND SWAP1 DUP2 OR SWAP1 SWAP2 SSTORE PUSH1 0x40 DUP1 MLOAD PUSH4 0x13557249 PUSH1 0xE3 SHL DUP2 MSTORE SWAP1 MLOAD PUSH1 0x0 SWAP3 SWAP2 PUSH4 0x9AAB9248 SWAP2 PUSH1 0x4 DUP1 DUP4 ADD SWAP3 PUSH1 0x20 SWAP3 SWAP2 SWAP1 DUP3 SWAP1 SUB ADD DUP2 DUP7 DUP1 EXTCODESIZE ISZERO DUP1 ISZERO PUSH2 0x11CF JUMPI PUSH1 0x0 DUP1 REVERT JUMPDEST POP GAS STATICCALL ISZERO DUP1 ISZERO PUSH2 0x11E3 JUMPI RETURNDATASIZE PUSH1 0x0 DUP1 RETURNDATACOPY RETURNDATASIZE PUSH1 0x0 REVERT JUMPDEST POP POP POP POP PUSH1 0x40 MLOAD RETURNDATASIZE PUSH1 0x20 DUP2 LT ISZERO PUSH2 0x11F9 JUMPI PUSH1 0x0 DUP1 REVERT JUMPDEST POP MLOAD PUSH1 0x3 SLOAD PUSH1 0x4 SLOAD SWAP2 SWAP3 POP PUSH2 0x121D SWAP2 DUP11 SWAP2 PUSH1 0x1 PUSH1 0x1 PUSH1 0xA0 SHL SUB SWAP1 DUP2 AND SWAP2 AND DUP5 PUSH2 0x2768 JUMP JUMPDEST PUSH1 0x6 DUP1 SLOAD PUSH1 0x1 PUSH1 0x1 PUSH1 0xA0 SHL SUB NOT SWAP1 DUP2 AND PUSH1 0x1 PUSH1 0x1 PUSH1 0xA0 SHL SUB SWAP4 DUP5 AND OR SWAP1 SWAP2 SSTORE PUSH1 0x7 DUP1 SLOAD SWAP1 SWAP2 AND SWAP2 DUP9 AND SWAP2 SWAP1 SWAP2 OR SWAP1 SSTORE PUSH2 0x1255 DUP6 PUSH2 0x2806 JUMP JUMPDEST PUSH1 0x9 DUP1 SLOAD PUSH2 0xFFFF SWAP3 SWAP1 SWAP3 AND PUSH1 0x1 PUSH1 0x60 SHL MUL PUSH2 0xFFFF PUSH1 0x60 SHL NOT SWAP1 SWAP3 AND SWAP2 SWAP1 SWAP2 OR SWAP1 SSTORE PUSH2 0x127F DUP5 PUSH2 0x2863 JUMP JUMPDEST PUSH1 0x9 PUSH1 0x0 ADD PUSH1 0x0 PUSH2 0x100 EXP DUP2 SLOAD DUP2 PUSH4 0xFFFFFFFF MUL NOT AND SWAP1 DUP4 PUSH4 0xFFFFFFFF AND MUL OR SWAP1 SSTORE POP PUSH1 0x0 PUSH2 0x1334 PUSH2 0x2710 PUSH2 0x132E DUP9 PUSH1 0x8 PUSH1 0x0 SWAP1 SLOAD SWAP1 PUSH2 0x100 EXP SWAP1 DIV PUSH1 0x1 PUSH1 0x1 PUSH1 0xA0 SHL SUB AND PUSH1 0x1 PUSH1 0x1 PUSH1 0xA0 SHL SUB AND PUSH4 0xF08B82E6 PUSH1 0x40 MLOAD DUP2 PUSH4 0xFFFFFFFF AND PUSH1 0xE0 SHL DUP2 MSTORE PUSH1 0x4 ADD PUSH1 0x20 PUSH1 0x40 MLOAD DUP1 DUP4 SUB DUP2 DUP7 DUP1 EXTCODESIZE ISZERO DUP1 ISZERO PUSH2 0x12FC JUMPI PUSH1 0x0 DUP1 REVERT JUMPDEST POP GAS STATICCALL ISZERO DUP1 ISZERO PUSH2 0x1310 JUMPI RETURNDATASIZE PUSH1 0x0 DUP1 RETURNDATACOPY RETURNDATASIZE PUSH1 0x0 REVERT JUMPDEST POP POP POP POP PUSH1 0x40 MLOAD RETURNDATASIZE PUSH1 0x20 DUP2 LT ISZERO PUSH2 0x1326 JUMPI PUSH1 0x0 DUP1 REVERT JUMPDEST POP MLOAD SWAP1 PUSH2 0x28BE JUMP JUMPDEST SWAP1 PUSH2 0x292A JUMP JUMPDEST PUSH1 0x4 SLOAD SWAP1 SWAP2 POP PUSH2 0x134E SWAP1 PUSH1 0x1 PUSH1 0x1 PUSH1 0xA0 SHL SUB AND CALLER DUP4 PUSH2 0x2988 JUMP JUMPDEST PUSH1 0x4 SLOAD PUSH1 0x3 SLOAD PUSH1 0x40 DUP1 MLOAD PUSH1 0x1 PUSH1 0x1 PUSH1 0xA0 SHL SUB DUP14 DUP2 AND DUP3 MSTORE DUP13 DUP2 AND PUSH1 0x20 DUP4 ADD MSTORE DUP3 MLOAD SWAP5 DUP2 AND SWAP5 SWAP4 AND SWAP3 PUSH32 0x347F9DEF0950A93749244D7A0CFDE1E52DCB48C303A538FDA3CEB25C2576D656 SWAP3 SWAP2 DUP2 SWAP1 SUB SWAP1 SWAP2 ADD SWAP1 LOG3 POP POP POP POP POP POP POP POP POP POP JUMP JUMPDEST PUSH1 0x0 DUP3 DUP2 MSTORE PUSH1 0x20 DUP2 SWAP1 MSTORE PUSH1 0x40 SWAP1 KECCAK256 PUSH1 0x2 ADD SLOAD PUSH2 0x13D0 SWAP1 PUSH2 0x13CB PUSH2 0x2AA9 JUMP JUMPDEST PUSH2 0x1EB8 JUMP JUMPDEST PUSH2 0x140B JUMPI PUSH1 0x40 MLOAD PUSH3 0x461BCD PUSH1 0xE5 SHL DUP2 MSTORE PUSH1 0x4 ADD DUP1 DUP1 PUSH1 0x20 ADD DUP3 DUP2 SUB DUP3 MSTORE PUSH1 0x2F DUP2 MSTORE PUSH1 0x20 ADD DUP1 PUSH2 0x316F PUSH1 0x2F SWAP2 CODECOPY PUSH1 0x40 ADD SWAP2 POP POP PUSH1 0x40 MLOAD DUP1 SWAP2 SUB SWAP1 REVERT JUMPDEST PUSH2 0x1415 DUP3 DUP3 PUSH2 0x2AAD JUMP JUMPDEST POP POP JUMP JUMPDEST PUSH2 0x1421 PUSH2 0x2AA9 JUMP JUMPDEST PUSH1 0x1 PUSH1 0x1 PUSH1 0xA0 SHL SUB AND DUP2 PUSH1 0x1 PUSH1 0x1 PUSH1 0xA0 SHL SUB AND EQ PUSH2 0x1470 JUMPI PUSH1 0x40 MLOAD PUSH3 0x461BCD PUSH1 0xE5 SHL DUP2 MSTORE PUSH1 0x4 ADD DUP1 DUP1 PUSH1 0x20 ADD DUP3 DUP2 SUB DUP3 MSTORE PUSH1 0x2F DUP2 MSTORE PUSH1 0x20 ADD DUP1 PUSH2 0x3492 PUSH1 0x2F SWAP2 CODECOPY PUSH1 0x40 ADD SWAP2 POP POP PUSH1 0x40 MLOAD DUP1 SWAP2 SUB SWAP1 REVERT JUMPDEST PUSH2 0x1415 DUP3 DUP3 PUSH2 0x2B16 JUMP JUMPDEST PUSH2 0x1492 PUSH1 0x0 DUP1 MLOAD PUSH1 0x20 PUSH2 0x31DD DUP4 CODECOPY DUP2 MLOAD SWAP2 MSTORE DUP3 PUSH2 0x13AD JUMP JUMPDEST PUSH2 0x149A PUSH2 0x2AA9 JUMP JUMPDEST PUSH1 0x1 PUSH1 0x1 PUSH1 0xA0 SHL SUB AND DUP2 PUSH1 0x1 PUSH1 0x1 PUSH1 0xA0 SHL SUB AND PUSH32 0x1D5F9EC24C6F91BE922EA13CEAAD919AD6554A41B5C26087F96289A9BAF98AD2 PUSH1 0x40 MLOAD PUSH1 0x40 MLOAD DUP1 SWAP2 SUB SWAP1 LOG3 POP JUMP JUMPDEST PUSH1 0x40 DUP1 MLOAD PUSH1 0x1 PUSH1 0x1 PUSH1 0xA0 SHL SUB SWAP8 DUP9 AND PUSH1 0x20 DUP3 ADD MSTORE SWAP6 DUP8 AND DUP7 DUP3 ADD MSTORE SWAP4 DUP7 AND PUSH1 0x60 DUP7 ADD MSTORE SWAP2 SWAP1 SWAP5 AND PUSH1 0x80 DUP5 ADD MSTORE PUSH1 0xA0 DUP4 ADD SWAP4 SWAP1 SWAP4 MSTORE PUSH1 0xC0 DUP1 DUP4 ADD SWAP4 SWAP1 SWAP4 MSTORE DUP1 MLOAD DUP1 DUP4 SUB SWAP1 SWAP4 ADD DUP4 MSTORE PUSH1 0xE0 SWAP1 SWAP2 ADD SWAP1 MSTORE SWAP1 JUMP JUMPDEST PUSH1 0x0 PUSH1 0x2 DUP1 SLOAD EQ ISZERO PUSH2 0x1586 JUMPI PUSH1 0x40 DUP1 MLOAD PUSH3 0x461BCD PUSH1 0xE5 SHL DUP2 MSTORE PUSH1 0x20 PUSH1 0x4 DUP3 ADD MSTORE PUSH1 0x1F PUSH1 0x24 DUP3 ADD MSTORE PUSH32 0x5265656E7472616E637947756172643A207265656E7472616E742063616C6C00 PUSH1 0x44 DUP3 ADD MSTORE SWAP1 MLOAD SWAP1 DUP2 SWAP1 SUB PUSH1 0x64 ADD SWAP1 REVERT JUMPDEST PUSH1 0x2 DUP1 SSTORE PUSH2 0x1592 PUSH2 0x26D3 JUMP JUMPDEST PUSH2 0x15CD JUMPI PUSH1 0x40 MLOAD PUSH3 0x461BCD PUSH1 0xE5 SHL DUP2 MSTORE PUSH1 0x4 ADD DUP1 DUP1 PUSH1 0x20 ADD DUP3 DUP2 SUB DUP3 MSTORE PUSH1 0x52 DUP2 MSTORE PUSH1 0x20 ADD DUP1 PUSH2 0x32D1 PUSH1 0x52 SWAP2 CODECOPY PUSH1 0x60 ADD SWAP2 POP POP PUSH1 0x40 MLOAD DUP1 SWAP2 SUB SWAP1 REVERT JUMPDEST PUSH1 0x9 SLOAD PUSH1 0x1 PUSH1 0x70 SHL SWAP1 DIV PUSH1 0xFF AND ISZERO PUSH2 0x15E4 JUMPI PUSH1 0x0 DUP1 REVERT JUMPDEST PUSH1 0x8 PUSH1 0x0 SWAP1 SLOAD SWAP1 PUSH2 0x100 EXP SWAP1 DIV PUSH1 0x1 PUSH1 0x1 PUSH1 0xA0 SHL SUB AND PUSH1 0x1 PUSH1 0x1 PUSH1 0xA0 SHL SUB AND PUSH4 0xB3F05B97 PUSH1 0x40 MLOAD DUP2 PUSH4 0xFFFFFFFF AND PUSH1 0xE0 SHL DUP2 MSTORE PUSH1 0x4 ADD PUSH1 0x20 PUSH1 0x40 MLOAD DUP1 DUP4 SUB DUP2 DUP7 DUP1 EXTCODESIZE ISZERO DUP1 ISZERO PUSH2 0x1632 JUMPI PUSH1 0x0 DUP1 REVERT JUMPDEST POP GAS STATICCALL ISZERO DUP1 ISZERO PUSH2 0x1646 JUMPI RETURNDATASIZE PUSH1 0x0 DUP1 RETURNDATACOPY RETURNDATASIZE PUSH1 0x0 REVERT JUMPDEST POP POP POP POP PUSH1 0x40 MLOAD RETURNDATASIZE PUSH1 0x20 DUP2 LT ISZERO PUSH2 0x165C JUMPI PUSH1 0x0 DUP1 REVERT JUMPDEST POP MLOAD PUSH2 0x16CB JUMPI PUSH1 0x8 PUSH1 0x0 SWAP1 SLOAD SWAP1 PUSH2 0x100 EXP SWAP1 DIV PUSH1 0x1 PUSH1 0x1 PUSH1 0xA0 SHL SUB AND PUSH1 0x1 PUSH1 0x1 PUSH1 0xA0 SHL SUB AND PUSH4 0x4BB278F3 PUSH1 0x40 MLOAD DUP2 PUSH4 0xFFFFFFFF AND PUSH1 0xE0 SHL DUP2 MSTORE PUSH1 0x4 ADD PUSH1 0x0 PUSH1 0x40 MLOAD DUP1 DUP4 SUB DUP2 PUSH1 0x0 DUP8 DUP1 EXTCODESIZE ISZERO DUP1 ISZERO PUSH2 0x16B2 JUMPI PUSH1 0x0 DUP1 REVERT JUMPDEST POP GAS CALL ISZERO DUP1 ISZERO PUSH2 0x16C6 JUMPI RETURNDATASIZE PUSH1 0x0 DUP1 RETURNDATACOPY RETURNDATASIZE PUSH1 0x0 REVERT JUMPDEST POP POP POP POP JUMPDEST PUSH1 0x9 DUP1 SLOAD PUSH1 0xFF PUSH1 0x70 SHL NOT AND PUSH1 0x1 PUSH1 0x70 SHL OR SWAP1 SSTORE PUSH1 0x8 SLOAD PUSH1 0x40 DUP1 MLOAD PUSH4 0x36D0054B PUSH1 0xE0 SHL DUP2 MSTORE SWAP1 MLOAD PUSH1 0x1 PUSH1 0x1 PUSH1 0xA0 SHL SUB SWAP1 SWAP3 AND SWAP2 PUSH4 0x36D0054B SWAP2 PUSH1 0x4 DUP1 DUP3 ADD SWAP3 PUSH1 0x20 SWAP3 SWAP1 SWAP2 SWAP1 DUP3 SWAP1 SUB ADD DUP2 DUP7 DUP1 EXTCODESIZE ISZERO DUP1 ISZERO PUSH2 0x1723 JUMPI PUSH1 0x0 DUP1 REVERT JUMPDEST POP GAS STATICCALL ISZERO DUP1 ISZERO PUSH2 0x1737 JUMPI RETURNDATASIZE PUSH1 0x0 DUP1 RETURNDATACOPY RETURNDATASIZE PUSH1 0x0 REVERT JUMPDEST POP POP POP POP PUSH1 0x40 MLOAD RETURNDATASIZE PUSH1 0x20 DUP2 LT ISZERO PUSH2 0x174D JUMPI PUSH1 0x0 DUP1 REVERT JUMPDEST POP MLOAD PUSH2 0x175B JUMPI POP PUSH1 0x0 PUSH2 0x1AB8 JUMP JUMPDEST SELFBALANCE DUP1 ISZERO PUSH2 0x17D7 JUMPI PUSH32 0x0 PUSH1 0x1 PUSH1 0x1 PUSH1 0xA0 SHL SUB AND PUSH4 0xD0E30DB0 DUP3 PUSH1 0x40 MLOAD DUP3 PUSH4 0xFFFFFFFF AND PUSH1 0xE0 SHL DUP2 MSTORE PUSH1 0x4 ADD PUSH1 0x0 PUSH1 0x40 MLOAD DUP1 DUP4 SUB DUP2 DUP6 DUP9 DUP1 EXTCODESIZE ISZERO DUP1 ISZERO PUSH2 0x17BD JUMPI PUSH1 0x0 DUP1 REVERT JUMPDEST POP GAS CALL ISZERO DUP1 ISZERO PUSH2 0x17D1 JUMPI RETURNDATASIZE PUSH1 0x0 DUP1 RETURNDATACOPY RETURNDATASIZE PUSH1 0x0 REVERT JUMPDEST POP POP POP POP POP JUMPDEST PUSH1 0x0 DUP1 PUSH2 0x17E2 PUSH2 0x211F JUMP JUMPDEST SWAP2 POP SWAP2 POP DUP2 PUSH1 0x0 EQ DUP1 PUSH2 0x17F3 JUMPI POP DUP1 ISZERO JUMPDEST ISZERO PUSH2 0x1804 JUMPI PUSH1 0x0 SWAP4 POP POP POP POP PUSH2 0x1AB8 JUMP JUMPDEST PUSH1 0x5 SLOAD PUSH1 0x3 SLOAD PUSH1 0x4 DUP1 SLOAD PUSH1 0x40 DUP1 MLOAD PUSH4 0xE6A43905 PUSH1 0xE0 SHL DUP2 MSTORE PUSH1 0x1 PUSH1 0x1 PUSH1 0xA0 SHL SUB SWAP5 DUP6 AND SWAP4 DUP2 ADD SWAP4 SWAP1 SWAP4 MSTORE SWAP1 DUP4 AND PUSH1 0x24 DUP4 ADD MSTORE MLOAD PUSH1 0x0 SWAP4 SWAP3 SWAP1 SWAP3 AND SWAP2 PUSH4 0xE6A43905 SWAP2 PUSH1 0x44 DUP1 DUP3 ADD SWAP3 PUSH1 0x20 SWAP3 SWAP1 SWAP2 SWAP1 DUP3 SWAP1 SUB ADD DUP2 DUP7 DUP1 EXTCODESIZE ISZERO DUP1 ISZERO PUSH2 0x1865 JUMPI PUSH1 0x0 DUP1 REVERT JUMPDEST POP GAS STATICCALL ISZERO DUP1 ISZERO PUSH2 0x1879 JUMPI RETURNDATASIZE PUSH1 0x0 DUP1 RETURNDATACOPY RETURNDATASIZE PUSH1 0x0 REVERT JUMPDEST POP POP POP POP PUSH1 0x40 MLOAD RETURNDATASIZE PUSH1 0x20 DUP2 LT ISZERO PUSH2 0x188F JUMPI PUSH1 0x0 DUP1 REVERT JUMPDEST POP MLOAD SWAP1 POP PUSH1 0x1 PUSH1 0x1 PUSH1 0xA0 SHL SUB DUP2 AND ISZERO DUP1 PUSH2 0x18AE JUMPI POP PUSH2 0x18AC PUSH2 0x1C1D JUMP JUMPDEST ISZERO JUMPDEST PUSH2 0x18FF JUMPI PUSH1 0x40 DUP1 MLOAD PUSH3 0x461BCD PUSH1 0xE5 SHL DUP2 MSTORE PUSH1 0x20 PUSH1 0x4 DUP3 ADD MSTORE PUSH1 0x1B PUSH1 0x24 DUP3 ADD MSTORE PUSH32 0x506F73744C69717569646974793A2050616972206E6F74206E65770000000000 PUSH1 0x44 DUP3 ADD MSTORE SWAP1 MLOAD SWAP1 DUP2 SWAP1 SUB PUSH1 0x64 ADD SWAP1 REVERT JUMPDEST PUSH1 0x1 PUSH1 0x1 PUSH1 0xA0 SHL SUB DUP2 AND PUSH2 0x1915 JUMPI PUSH2 0x1915 PUSH2 0x2B7F JUMP JUMPDEST PUSH1 0x3 SLOAD PUSH1 0x6 SLOAD PUSH2 0x1932 SWAP2 PUSH1 0x1 PUSH1 0x1 PUSH1 0xA0 SHL SUB SWAP1 DUP2 AND SWAP2 AND DUP6 PUSH2 0x2C08 JUMP JUMPDEST PUSH1 0x4 SLOAD PUSH1 0x6 SLOAD PUSH2 0x194F SWAP2 PUSH1 0x1 PUSH1 0x1 PUSH1 0xA0 SHL SUB SWAP1 DUP2 AND SWAP2 AND DUP5 PUSH2 0x2C08 JUMP JUMPDEST PUSH1 0x6 SLOAD PUSH1 0x40 DUP1 MLOAD PUSH4 0x35313C21 PUSH1 0xE1 SHL DUP2 MSTORE ADDRESS PUSH1 0x4 DUP3 ADD MSTORE SWAP1 MLOAD PUSH1 0x1 PUSH1 0x1 PUSH1 0xA0 SHL SUB SWAP1 SWAP3 AND SWAP2 PUSH4 0x6A627842 SWAP2 PUSH1 0x24 DUP1 DUP3 ADD SWAP3 PUSH1 0x20 SWAP3 SWAP1 SWAP2 SWAP1 DUP3 SWAP1 SUB ADD DUP2 PUSH1 0x0 DUP8 DUP1 EXTCODESIZE ISZERO DUP1 ISZERO PUSH2 0x199C JUMPI PUSH1 0x0 DUP1 REVERT JUMPDEST POP GAS CALL ISZERO DUP1 ISZERO PUSH2 0x19B0 JUMPI RETURNDATASIZE PUSH1 0x0 DUP1 RETURNDATACOPY RETURNDATASIZE PUSH1 0x0 REVERT JUMPDEST POP POP POP POP PUSH1 0x40 MLOAD RETURNDATASIZE PUSH1 0x20 DUP2 LT ISZERO PUSH2 0x19C6 JUMPI PUSH1 0x0 DUP1 REVERT JUMPDEST POP MLOAD PUSH1 0x9 SLOAD SWAP1 SWAP6 POP PUSH2 0x19F1 SWAP1 PUSH2 0x19EC SWAP1 PUSH1 0x1 PUSH1 0x78 SHL SWAP1 DIV PUSH1 0x1 PUSH1 0x1 PUSH1 0x80 SHL SUB AND DUP8 PUSH2 0x2C84 JUMP JUMPDEST PUSH2 0x2CDC JUMP JUMPDEST PUSH1 0x9 DUP1 SLOAD PUSH1 0x1 PUSH1 0x1 PUSH1 0x80 SHL SUB SWAP3 SWAP1 SWAP3 AND PUSH1 0x1 PUSH1 0x78 SHL MUL PUSH16 0xFFFFFFFFFFFFFFFFFFFFFFFFFFFFFFFF PUSH1 0x78 SHL NOT SWAP1 SWAP3 AND SWAP2 SWAP1 SWAP2 OR SWAP1 DUP2 SWAP1 SSTORE PUSH8 0xFFFFFFFFFFFFFFFF PUSH1 0x1 PUSH1 0x20 SHL SWAP1 SWAP2 DIV AND PUSH2 0x1A80 JUMPI PUSH1 0x9 SLOAD PUSH2 0x1A51 SWAP1 PUSH4 0xFFFFFFFF AND TIMESTAMP ADD PUSH2 0x2D3A JUMP JUMPDEST PUSH1 0x9 DUP1 SLOAD PUSH8 0xFFFFFFFFFFFFFFFF SWAP3 SWAP1 SWAP3 AND PUSH1 0x1 PUSH1 0x20 SHL MUL PUSH12 0xFFFFFFFFFFFFFFFF00000000 NOT SWAP1 SWAP3 AND SWAP2 SWAP1 SWAP2 OR SWAP1 SSTORE JUMPDEST PUSH1 0x40 DUP1 MLOAD DUP7 DUP2 MSTORE SWAP1 MLOAD PUSH32 0xFDB748C915E4E67B4BB23287BF4295A4595CE48B50343214369F72CCFB974CFA SWAP2 DUP2 SWAP1 SUB PUSH1 0x20 ADD SWAP1 LOG1 POP POP POP POP JUMPDEST PUSH1 0x1 PUSH1 0x2 SSTORE SWAP1 JUMP JUMPDEST PUSH1 0x3 SLOAD PUSH1 0x40 DUP1 MLOAD PUSH4 0x70A08231 PUSH1 0xE0 SHL DUP2 MSTORE ADDRESS PUSH1 0x4 DUP3 ADD MSTORE SWAP1 MLOAD PUSH1 0x0 SWAP3 PUSH1 0x1 PUSH1 0x1 PUSH1 0xA0 SHL SUB AND SWAP2 PUSH4 0x70A08231 SWAP2 PUSH1 0x24 DUP1 DUP4 ADD SWAP3 PUSH1 0x20 SWAP3 SWAP2 SWAP1 DUP3 SWAP1 SUB ADD DUP2 DUP7 DUP1 EXTCODESIZE ISZERO DUP1 ISZERO PUSH2 0x1B0B JUMPI PUSH1 0x0 DUP1 REVERT JUMPDEST POP GAS STATICCALL ISZERO DUP1 ISZERO PUSH2 0x1B1F JUMPI RETURNDATASIZE PUSH1 0x0 DUP1 RETURNDATACOPY RETURNDATASIZE PUSH1 0x0 REVERT JUMPDEST POP POP POP POP PUSH1 0x40 MLOAD RETURNDATASIZE PUSH1 0x20 DUP2 LT ISZERO PUSH2 0x1B35 JUMPI PUSH1 0x0 DUP1 REVERT JUMPDEST POP MLOAD SWAP1 POP JUMPDEST SWAP1 JUMP JUMPDEST PUSH1 0x7 SLOAD PUSH1 0x1 PUSH1 0x1 PUSH1 0xA0 SHL SUB AND DUP2 JUMP JUMPDEST PUSH2 0x1B64 PUSH1 0x0 DUP1 MLOAD PUSH1 0x20 PUSH2 0x33CD DUP4 CODECOPY DUP2 MLOAD SWAP2 MSTORE DUP3 PUSH2 0x20C6 JUMP JUMPDEST PUSH2 0x1B6C PUSH2 0x2AA9 JUMP JUMPDEST PUSH1 0x1 PUSH1 0x1 PUSH1 0xA0 SHL SUB AND DUP2 PUSH1 0x1 PUSH1 0x1 PUSH1 0xA0 SHL SUB AND PUSH32 0x56692A161FFEC953DDF9DEF93B958EA8D1EC95E21B80870C66BE91A4374DC4E3 PUSH1 0x40 MLOAD PUSH1 0x40 MLOAD DUP1 SWAP2 SUB SWAP1 LOG3 POP JUMP JUMPDEST PUSH2 0x1BB9 PUSH1 0x0 DUP3 PUSH2 0x13AD JUMP JUMPDEST PUSH2 0x1BC1 PUSH2 0x2AA9 JUMP JUMPDEST PUSH1 0x1 PUSH1 0x1 PUSH1 0xA0 SHL SUB AND DUP2 PUSH1 0x1 PUSH1 0x1 PUSH1 0xA0 SHL SUB AND PUSH32 0x2570AC42FD8B322DC453ADA624DC2ED0E9BDD67F16F201A25BBD30468F2AA187 PUSH1 0x40 MLOAD PUSH1 0x40 MLOAD DUP1 SWAP2 SUB SWAP1 LOG3 POP JUMP JUMPDEST PUSH1 0x4 SLOAD PUSH1 0x0 SWAP1 PUSH2 0xD5E SWAP1 PUSH1 0x1 PUSH1 0x1 PUSH1 0xA0 SHL SUB AND CALLER DUP5 PUSH2 0x2D99 JUMP JUMPDEST PUSH1 0x6 SLOAD PUSH1 0x40 DUP1 MLOAD PUSH4 0x70A08231 PUSH1 0xE0 SHL DUP2 MSTORE ADDRESS PUSH1 0x4 DUP3 ADD MSTORE SWAP1 MLOAD PUSH1 0x0 SWAP3 PUSH1 0x1 PUSH1 0x1 PUSH1 0xA0 SHL SUB AND SWAP2 PUSH4 0x70A08231 SWAP2 PUSH1 0x24 DUP1 DUP4 ADD SWAP3 PUSH1 0x20 SWAP3 SWAP2 SWAP1 DUP3 SWAP1 SUB ADD DUP2 DUP7 DUP1 EXTCODESIZE ISZERO DUP1 ISZERO PUSH2 0x1B0B JUMPI PUSH1 0x0 DUP1 REVERT JUMPDEST PUSH1 0x3 SLOAD PUSH1 0x0 SWAP1 PUSH2 0xD5E SWAP1 PUSH1 0x1 PUSH1 0x1 PUSH1 0xA0 SHL SUB AND CALLER DUP5 PUSH2 0x2D99 JUMP JUMPDEST PUSH2 0x1C8B CALLER PUSH2 0x1FFB JUMP JUMPDEST DUP1 PUSH2 0x1C9A JUMPI POP PUSH2 0x1C9A CALLER PUSH2 0x26B9 JUMP JUMPDEST PUSH2 0x1CD5 JUMPI PUSH1 0x40 MLOAD PUSH3 0x461BCD PUSH1 0xE5 SHL DUP2 MSTORE PUSH1 0x4 ADD DUP1 DUP1 PUSH1 0x20 ADD DUP3 DUP2 SUB DUP3 MSTORE PUSH1 0x24 DUP2 MSTORE PUSH1 0x20 ADD DUP1 PUSH2 0x3349 PUSH1 0x24 SWAP2 CODECOPY PUSH1 0x40 ADD SWAP2 POP POP PUSH1 0x40 MLOAD DUP1 SWAP2 SUB SWAP1 REVERT JUMPDEST PUSH1 0x9 SLOAD PUSH1 0x1 PUSH1 0x70 SHL SWAP1 DIV PUSH1 0xFF AND PUSH2 0x1D1D JUMPI PUSH1 0x40 MLOAD PUSH3 0x461BCD PUSH1 0xE5 SHL DUP2 MSTORE PUSH1 0x4 ADD DUP1 DUP1 PUSH1 0x20 ADD DUP3 DUP2 SUB DUP3 MSTORE PUSH1 0x28 DUP2 MSTORE PUSH1 0x20 ADD DUP1 PUSH2 0x3224 PUSH1 0x28 SWAP2 CODECOPY PUSH1 0x40 ADD SWAP2 POP POP PUSH1 0x40 MLOAD DUP1 SWAP2 SUB SWAP1 REVERT JUMPDEST PUSH1 0x0 PUSH2 0x1D27 PUSH2 0x1AC0 JUMP JUMPDEST SWAP1 POP DUP1 ISZERO PUSH2 0x1D4C JUMPI PUSH1 0x3 SLOAD PUSH1 0x7 SLOAD PUSH2 0x1D4C SWAP2 PUSH1 0x1 PUSH1 0x1 PUSH1 0xA0 SHL SUB SWAP1 DUP2 AND SWAP2 AND DUP4 PUSH2 0x2C08 JUMP JUMPDEST PUSH1 0x0 PUSH2 0x1D56 PUSH2 0x1DC2 JUMP JUMPDEST SWAP1 POP DUP1 ISZERO PUSH2 0x1415 JUMPI PUSH1 0x4 SLOAD PUSH1 0x7 SLOAD PUSH2 0x1415 SWAP2 PUSH1 0x1 PUSH1 0x1 PUSH1 0xA0 SHL SUB SWAP1 DUP2 AND SWAP2 AND DUP4 PUSH2 0x2C08 JUMP JUMPDEST PUSH1 0x9 SLOAD PUSH4 0xFFFFFFFF DUP2 AND SWAP1 PUSH1 0x1 PUSH1 0x20 SHL DUP2 DIV PUSH8 0xFFFFFFFFFFFFFFFF AND SWAP1 PUSH1 0x1 PUSH1 0x60 SHL DUP2 DIV PUSH2 0xFFFF AND SWAP1 PUSH1 0x1 PUSH1 0x70 SHL DUP2 DIV PUSH1 0xFF AND SWAP1 PUSH1 0x1 PUSH1 0x78 SHL SWAP1 DIV PUSH1 0x1 PUSH1 0x1 PUSH1 0x80 SHL SUB AND DUP6 JUMP JUMPDEST PUSH1 0x4 DUP1 SLOAD PUSH1 0x40 DUP1 MLOAD PUSH4 0x70A08231 PUSH1 0xE0 SHL DUP2 MSTORE ADDRESS SWAP4 DUP2 ADD SWAP4 SWAP1 SWAP4 MSTORE MLOAD PUSH1 0x0 SWAP3 PUSH1 0x1 PUSH1 0x1 PUSH1 0xA0 SHL SUB SWAP1 SWAP3 AND SWAP2 PUSH4 0x70A08231 SWAP2 PUSH1 0x24 DUP1 DUP4 ADD SWAP3 PUSH1 0x20 SWAP3 SWAP2 SWAP1 DUP3 SWAP1 SUB ADD DUP2 DUP7 DUP1 EXTCODESIZE ISZERO DUP1 ISZERO PUSH2 0x1B0B JUMPI PUSH1 0x0 DUP1 REVERT JUMPDEST PUSH1 0x8 SLOAD PUSH1 0x1 PUSH1 0x1 PUSH1 0xA0 SHL SUB AND DUP2 JUMP JUMPDEST PUSH1 0x3 DUP2 JUMP JUMPDEST PUSH1 0x0 DUP1 MLOAD PUSH1 0x20 PUSH2 0x31DD DUP4 CODECOPY DUP2 MLOAD SWAP2 MSTORE DUP2 JUMP JUMPDEST PUSH2 0x1E4F PUSH1 0x0 DUP1 MLOAD PUSH1 0x20 PUSH2 0x31DD DUP4 CODECOPY DUP2 MLOAD SWAP2 MSTORE DUP3 PUSH2 0x20C6 JUMP JUMPDEST PUSH2 0x1E57 PUSH2 0x2AA9 JUMP JUMPDEST PUSH1 0x1 PUSH1 0x1 PUSH1 0xA0 SHL SUB AND DUP2 PUSH1 0x1 PUSH1 0x1 PUSH1 0xA0 SHL SUB AND PUSH32 0xE5F1AA9E528307345194B88B24A32401C13926E0823060F1049D9B26C0BB62B2 PUSH1 0x40 MLOAD PUSH1 0x40 MLOAD DUP1 SWAP2 SUB SWAP1 LOG3 POP JUMP JUMPDEST PUSH1 0x0 DUP3 DUP2 MSTORE PUSH1 0x20 DUP2 SWAP1 MSTORE PUSH1 0x40 DUP2 KECCAK256 PUSH2 0x1EB1 SWAP1 DUP4 PUSH2 0x2E88 JUMP JUMPDEST SWAP4 SWAP3 POP POP POP JUMP JUMPDEST PUSH1 0x0 DUP3 DUP2 MSTORE PUSH1 0x20 DUP2 SWAP1 MSTORE PUSH1 0x40 DUP2 KECCAK256 PUSH2 0x1EB1 SWAP1 DUP4 PUSH2 0x2E94 JUMP JUMPDEST PUSH2 0x1EE8 PUSH1 0x0 DUP1 MLOAD PUSH1 0x20 PUSH2 0x336D DUP4 CODECOPY DUP2 MLOAD SWAP2 MSTORE DUP3 PUSH2 0x20C6 JUMP JUMPDEST PUSH2 0x1EF0 PUSH2 0x2AA9 JUMP JUMPDEST PUSH1 0x1 PUSH1 0x1 PUSH1 0xA0 SHL SUB AND DUP2 PUSH1 0x1 PUSH1 0x1 PUSH1 0xA0 SHL SUB AND PUSH32 0x70B25138B6FADEB9992D18B9653564271823E34B3E3257515D12A6D4B15FCDDF PUSH1 0x40 MLOAD PUSH1 0x40 MLOAD DUP1 SWAP2 SUB SWAP1 LOG3 POP JUMP JUMPDEST PUSH1 0x0 DUP2 JUMP JUMPDEST PUSH2 0x1F4F PUSH1 0x0 DUP1 MLOAD PUSH1 0x20 PUSH2 0x33CD DUP4 CODECOPY DUP2 MLOAD SWAP2 MSTORE DUP3 PUSH2 0x13AD JUMP JUMPDEST PUSH2 0x1F57 PUSH2 0x2AA9 JUMP JUMPDEST PUSH1 0x1 PUSH1 0x1 PUSH1 0xA0 SHL SUB AND DUP2 PUSH1 0x1 PUSH1 0x1 PUSH1 0xA0 SHL SUB AND PUSH32 0xBE6AB9784C7401FAFB73F7BC47BC67CC4EF8C47A60AD3CB66D1DE0353A0784C PUSH1 0x40 MLOAD PUSH1 0x40 MLOAD DUP1 SWAP2 SUB SWAP1 LOG3 POP JUMP JUMPDEST PUSH2 0x1FB1 PUSH1 0x0 DUP1 MLOAD PUSH1 0x20 PUSH2 0x336D DUP4 CODECOPY DUP2 MLOAD SWAP2 MSTORE DUP3 PUSH2 0x13AD JUMP JUMPDEST PUSH2 0x1FB9 PUSH2 0x2AA9 JUMP JUMPDEST PUSH1 0x1 PUSH1 0x1 PUSH1 0xA0 SHL SUB AND DUP2 PUSH1 0x1 PUSH1 0x1 PUSH1 0xA0 SHL SUB AND PUSH32 0x2D45EE102874989882745A26688D0B4FFFEE125A18DF26536B12582C7FDE4E17 PUSH1 0x40 MLOAD PUSH1 0x40 MLOAD DUP1 SWAP2 SUB SWAP1 LOG3 POP JUMP JUMPDEST PUSH1 0x0 PUSH2 0xD5E DUP2 DUP4 PUSH2 0x1EB8 JUMP JUMPDEST PUSH1 0x5 SLOAD PUSH1 0x1 PUSH1 0x1 PUSH1 0xA0 SHL SUB AND DUP2 JUMP JUMPDEST PUSH2 0x201F CALLER PUSH2 0x1FFB JUMP JUMPDEST PUSH2 0x2028 JUMPI PUSH1 0x0 DUP1 REVERT JUMPDEST PUSH1 0x9 SLOAD PUSH1 0x1 PUSH1 0x70 SHL SWAP1 DIV PUSH1 0xFF AND ISZERO PUSH2 0x203F JUMPI PUSH1 0x0 DUP1 REVERT JUMPDEST PUSH1 0x9 DUP1 SLOAD PUSH1 0xFF PUSH1 0x70 SHL NOT AND PUSH1 0x1 PUSH1 0x70 SHL OR SWAP1 SSTORE PUSH1 0x40 MLOAD CALLER SWAP1 PUSH32 0x8C549B74AAA0C6619E0BBF388C66D59E84E25A829B1849376129856C778C6B42 SWAP1 PUSH1 0x0 SWAP1 LOG2 JUMP JUMPDEST PUSH1 0x6 SLOAD PUSH1 0x1 PUSH1 0x1 PUSH1 0xA0 SHL SUB AND SWAP1 JUMP JUMPDEST PUSH1 0x0 DUP2 DUP2 MSTORE PUSH1 0x20 DUP2 SWAP1 MSTORE PUSH1 0x40 DUP2 KECCAK256 PUSH2 0xD5E SWAP1 PUSH2 0x2EA9 JUMP JUMPDEST PUSH1 0x3 SLOAD PUSH1 0x1 PUSH1 0x1 PUSH1 0xA0 SHL SUB AND DUP2 JUMP JUMPDEST PUSH1 0x0 DUP1 MLOAD PUSH1 0x20 PUSH2 0x33CD DUP4 CODECOPY DUP2 MLOAD SWAP2 MSTORE DUP2 JUMP JUMPDEST PUSH1 0x0 DUP3 DUP2 MSTORE PUSH1 0x20 DUP2 SWAP1 MSTORE PUSH1 0x40 SWAP1 KECCAK256 PUSH1 0x2 ADD SLOAD PUSH2 0x20E4 SWAP1 PUSH2 0x13CB PUSH2 0x2AA9 JUMP JUMPDEST PUSH2 0x1470 JUMPI PUSH1 0x40 MLOAD PUSH3 0x461BCD PUSH1 0xE5 SHL DUP2 MSTORE PUSH1 0x4 ADD DUP1 DUP1 PUSH1 0x20 ADD DUP3 DUP2 SUB DUP3 MSTORE PUSH1 0x30 DUP2 MSTORE PUSH1 0x20 ADD DUP1 PUSH2 0x3271 PUSH1 0x30 SWAP2 CODECOPY PUSH1 0x40 ADD SWAP2 POP POP PUSH1 0x40 MLOAD DUP1 SWAP2 SUB SWAP1 REVERT JUMPDEST PUSH1 0x9 SLOAD PUSH1 0x0 SWAP1 DUP2 SWAP1 PUSH2 0x214C SWAP1 PUSH2 0x2710 SWAP1 PUSH2 0x132E SWAP1 PUSH1 0x1 PUSH1 0x60 SHL SWAP1 DIV PUSH2 0xFFFF AND PUSH2 0x2146 PUSH2 0x1AC0 JUMP JUMPDEST SWAP1 PUSH2 0x28BE JUMP JUMPDEST SWAP2 POP PUSH2 0x2156 PUSH2 0x1DC2 JUMP JUMPDEST SWAP1 POP PUSH1 0x0 PUSH1 0x8 PUSH1 0x0 SWAP1 SLOAD SWAP1 PUSH2 0x100 EXP SWAP1 DIV PUSH1 0x1 PUSH1 0x1 PUSH1 0xA0 SHL SUB AND PUSH1 0x1 PUSH1 0x1 PUSH1 0xA0 SHL SUB AND PUSH4 0x7FF9B596 PUSH1 0x40 MLOAD DUP2 PUSH4 0xFFFFFFFF AND PUSH1 0xE0 SHL DUP2 MSTORE PUSH1 0x4 ADD PUSH1 0x20 PUSH1 0x40 MLOAD DUP1 DUP4 SUB DUP2 DUP7 DUP1 EXTCODESIZE ISZERO DUP1 ISZERO PUSH2 0x21A8 JUMPI PUSH1 0x0 DUP1 REVERT JUMPDEST POP GAS STATICCALL ISZERO DUP1 ISZERO PUSH2 0x21BC JUMPI RETURNDATASIZE PUSH1 0x0 DUP1 RETURNDATACOPY RETURNDATASIZE PUSH1 0x0 REVERT JUMPDEST POP POP POP POP PUSH1 0x40 MLOAD RETURNDATASIZE PUSH1 0x20 DUP2 LT ISZERO PUSH2 0x21D2 JUMPI PUSH1 0x0 DUP1 REVERT JUMPDEST POP MLOAD PUSH1 0x4 DUP1 SLOAD PUSH1 0x40 DUP1 MLOAD PUSH4 0x313CE567 PUSH1 0xE0 SHL DUP2 MSTORE SWAP1 MLOAD SWAP4 SWAP5 POP PUSH1 0x0 SWAP4 PUSH1 0x1 PUSH1 0x1 PUSH1 0xA0 SHL SUB SWAP1 SWAP3 AND SWAP3 PUSH4 0x313CE567 SWAP3 DUP3 DUP3 ADD SWAP3 PUSH1 0x20 SWAP3 SWAP1 DUP3 SWAP1 SUB ADD DUP2 DUP7 DUP1 EXTCODESIZE ISZERO DUP1 ISZERO PUSH2 0x221C JUMPI PUSH1 0x0 DUP1 REVERT JUMPDEST POP GAS STATICCALL ISZERO DUP1 ISZERO PUSH2 0x2230 JUMPI RETURNDATASIZE PUSH1 0x0 DUP1 RETURNDATACOPY RETURNDATASIZE PUSH1 0x0 REVERT JUMPDEST POP POP POP POP PUSH1 0x40 MLOAD RETURNDATASIZE PUSH1 0x20 DUP2 LT ISZERO PUSH2 0x2246 JUMPI PUSH1 0x0 DUP1 REVERT JUMPDEST POP MLOAD PUSH1 0xFF AND SWAP1 POP PUSH1 0x0 PUSH2 0x2261 PUSH1 0xA DUP4 SWAP1 EXP PUSH2 0x132E DUP7 DUP7 PUSH2 0x28BE JUMP JUMPDEST SWAP1 POP PUSH1 0x0 PUSH2 0x2277 DUP5 PUSH2 0x132E DUP9 PUSH1 0xA DUP8 SWAP1 EXP PUSH2 0x28BE JUMP JUMPDEST SWAP1 POP DUP1 DUP6 GT ISZERO PUSH2 0x2285 JUMPI DUP1 SWAP5 POP JUMPDEST DUP2 DUP7 GT ISZERO PUSH2 0x2291 JUMPI DUP2 SWAP6 POP JUMPDEST POP POP POP POP SWAP1 SWAP2 JUMP JUMPDEST PUSH2 0x22A4 PUSH1 0x0 DUP3 PUSH2 0x20C6 JUMP JUMPDEST PUSH2 0x22AC PUSH2 0x2AA9 JUMP JUMPDEST PUSH1 0x1 PUSH1 0x1 PUSH1 0xA0 SHL SUB AND DUP2 PUSH1 0x1 PUSH1 0x1 PUSH1 0xA0 SHL SUB AND PUSH32 0x21BA1239795D4E22874E3DC55F0A9D7B65BFB23069D32965D7C23BE9524CCF95 PUSH1 0x40 MLOAD PUSH1 0x40 MLOAD DUP1 SWAP2 SUB SWAP1 LOG3 POP JUMP JUMPDEST PUSH2 0x22F7 CALLER PUSH2 0x1FFB JUMP JUMPDEST PUSH2 0x2300 JUMPI PUSH1 0x0 DUP1 REVERT JUMPDEST PUSH1 0x1 PUSH1 0x1 PUSH1 0xA0 SHL SUB DUP2 AND PUSH2 0x235B JUMPI PUSH1 0x40 DUP1 MLOAD PUSH3 0x461BCD PUSH1 0xE5 SHL DUP2 MSTORE PUSH1 0x20 PUSH1 0x4 DUP3 ADD MSTORE PUSH1 0x1A PUSH1 0x24 DUP3 ADD MSTORE PUSH32 0x57616C6C657420697320746865207A65726F2061646472657373000000000000 PUSH1 0x44 DUP3 ADD MSTORE SWAP1 MLOAD SWAP1 DUP2 SWAP1 SUB PUSH1 0x64 ADD SWAP1 REVERT JUMPDEST PUSH1 0x7 DUP1 SLOAD PUSH1 0x1 PUSH1 0x1 PUSH1 0xA0 SHL SUB NOT AND PUSH1 0x1 PUSH1 0x1 PUSH1 0xA0 SHL SUB DUP4 AND SWAP1 DUP2 OR SWAP1 SWAP2 SSTORE PUSH1 0x40 MLOAD PUSH32 0x4EDBFAC5B40FE46AC1AF1FD222B224B38CFEEB9E21BD4FC6344526C245F7549B SWAP1 PUSH1 0x0 SWAP1 LOG2 POP JUMP JUMPDEST PUSH1 0x1 SLOAD PUSH1 0xFF AND ISZERO PUSH2 0x23F3 JUMPI PUSH1 0x40 DUP1 MLOAD PUSH3 0x461BCD PUSH1 0xE5 SHL DUP2 MSTORE PUSH1 0x20 PUSH1 0x4 DUP3 ADD MSTORE PUSH1 0x13 PUSH1 0x24 DUP3 ADD MSTORE PUSH19 0x105B1C9958591E481A5B9A5D1A585B1A5CD959 PUSH1 0x6A SHL PUSH1 0x44 DUP3 ADD MSTORE SWAP1 MLOAD SWAP1 DUP2 SWAP1 SUB PUSH1 0x64 ADD SWAP1 REVERT JUMPDEST PUSH1 0x1 PUSH1 0x1 PUSH1 0xA0 SHL SUB DUP2 AND PUSH2 0x2440 JUMPI PUSH1 0x40 DUP1 MLOAD PUSH3 0x461BCD PUSH1 0xE5 SHL DUP2 MSTORE PUSH1 0x20 PUSH1 0x4 DUP3 ADD MSTORE PUSH1 0xF PUSH1 0x24 DUP3 ADD MSTORE PUSH15 0x125B98DBDC9C9958DD081A5B9C1D5D PUSH1 0x8A SHL PUSH1 0x44 DUP3 ADD MSTORE SWAP1 MLOAD SWAP1 DUP2 SWAP1 SUB PUSH1 0x64 ADD SWAP1 REVERT JUMPDEST PUSH2 0x244B PUSH1 0x0 DUP3 PUSH2 0x140B JUMP JUMPDEST POP PUSH1 0x1 DUP1 SLOAD PUSH1 0xFF NOT AND DUP2 OR SWAP1 SSTORE JUMP JUMPDEST PUSH1 0x0 PUSH2 0x2465 CALLER PUSH2 0x1FFB JUMP JUMPDEST DUP1 PUSH2 0x2474 JUMPI POP PUSH2 0x2474 CALLER PUSH2 0x26B9 JUMP JUMPDEST PUSH2 0x24AF JUMPI PUSH1 0x40 MLOAD PUSH3 0x461BCD PUSH1 0xE5 SHL DUP2 MSTORE PUSH1 0x4 ADD DUP1 DUP1 PUSH1 0x20 ADD DUP3 DUP2 SUB DUP3 MSTORE PUSH1 0x24 DUP2 MSTORE PUSH1 0x20 ADD DUP1 PUSH2 0x3349 PUSH1 0x24 SWAP2 CODECOPY PUSH1 0x40 ADD SWAP2 POP POP PUSH1 0x40 MLOAD DUP1 SWAP2 SUB SWAP1 REVERT JUMPDEST PUSH1 0x9 SLOAD PUSH1 0x1 PUSH1 0x70 SHL SWAP1 DIV PUSH1 0xFF AND PUSH2 0x24F7 JUMPI PUSH1 0x40 MLOAD PUSH3 0x461BCD PUSH1 0xE5 SHL DUP2 MSTORE PUSH1 0x4 ADD DUP1 DUP1 PUSH1 0x20 ADD DUP3 DUP2 SUB DUP3 MSTORE PUSH1 0x28 DUP2 MSTORE PUSH1 0x20 ADD DUP1 PUSH2 0x3224 PUSH1 0x28 SWAP2 CODECOPY PUSH1 0x40 ADD SWAP2 POP POP PUSH1 0x40 MLOAD DUP1 SWAP2 SUB SWAP1 REVERT JUMPDEST PUSH1 0x9 SLOAD PUSH1 0x1 PUSH1 0x20 SHL SWAP1 DIV PUSH8 0xFFFFFFFFFFFFFFFF AND TIMESTAMP LT ISZERO PUSH2 0x255F JUMPI PUSH1 0x40 DUP1 MLOAD PUSH3 0x461BCD PUSH1 0xE5 SHL DUP2 MSTORE PUSH1 0x20 PUSH1 0x4 DUP3 ADD DUP2 SWAP1 MSTORE PUSH1 0x24 DUP3 ADD MSTORE PUSH32 0x506F737441756374696F6E3A204C6971756964697479206973206C6F636B6564 PUSH1 0x44 DUP3 ADD MSTORE SWAP1 MLOAD SWAP1 DUP2 SWAP1 SUB PUSH1 0x64 ADD SWAP1 REVERT JUMPDEST PUSH1 0x6 SLOAD PUSH1 0x40 DUP1 MLOAD PUSH4 0x70A08231 PUSH1 0xE0 SHL DUP2 MSTORE ADDRESS PUSH1 0x4 DUP3 ADD MSTORE SWAP1 MLOAD PUSH1 0x1 PUSH1 0x1 PUSH1 0xA0 SHL SUB SWAP1 SWAP3 AND SWAP2 PUSH4 0x70A08231 SWAP2 PUSH1 0x24 DUP1 DUP3 ADD SWAP3 PUSH1 0x20 SWAP3 SWAP1 SWAP2 SWAP1 DUP3 SWAP1 SUB ADD DUP2 DUP7 DUP1 EXTCODESIZE ISZERO DUP1 ISZERO PUSH2 0x25AA JUMPI PUSH1 0x0 DUP1 REVERT JUMPDEST POP GAS STATICCALL ISZERO DUP1 ISZERO PUSH2 0x25BE JUMPI RETURNDATASIZE PUSH1 0x0 DUP1 RETURNDATACOPY RETURNDATASIZE PUSH1 0x0 REVERT JUMPDEST POP POP POP POP PUSH1 0x40 MLOAD RETURNDATASIZE PUSH1 0x20 DUP2 LT ISZERO PUSH2 0x25D4 JUMPI PUSH1 0x0 DUP1 REVERT JUMPDEST POP MLOAD SWAP1 POP DUP1 PUSH2 0x2614 JUMPI PUSH1 0x40 MLOAD PUSH3 0x461BCD PUSH1 0xE5 SHL DUP2 MSTORE PUSH1 0x4 ADD DUP1 DUP1 PUSH1 0x20 ADD DUP3 DUP2 SUB DUP3 MSTORE PUSH1 0x2D DUP2 MSTORE PUSH1 0x20 ADD DUP1 PUSH2 0x3465 PUSH1 0x2D SWAP2 CODECOPY PUSH1 0x40 ADD SWAP2 POP POP PUSH1 0x40 MLOAD DUP1 SWAP2 SUB SWAP1 REVERT JUMPDEST PUSH1 0x6 SLOAD PUSH1 0x7 SLOAD PUSH2 0x1B3A SWAP2 PUSH1 0x1 PUSH1 0x1 PUSH1 0xA0 SHL SUB SWAP1 DUP2 AND SWAP2 AND DUP4 PUSH2 0x2C08 JUMP JUMPDEST PUSH1 0x6 SLOAD PUSH1 0x1 PUSH1 0x1 PUSH1 0xA0 SHL SUB AND DUP2 JUMP JUMPDEST PUSH1 0x0 DUP1 MLOAD PUSH1 0x20 PUSH2 0x336D DUP4 CODECOPY DUP2 MLOAD SWAP2 MSTORE DUP2 JUMP JUMPDEST PUSH1 0x0 DUP1 PUSH1 0x0 DUP1 PUSH1 0x0 DUP1 DUP8 DUP8 PUSH1 0xC0 DUP2 LT ISZERO PUSH2 0x266B JUMPI PUSH1 0x0 DUP1 REVERT JUMPDEST POP PUSH1 0x1 PUSH1 0x1 PUSH1 0xA0 SHL SUB DUP2 CALLDATALOAD DUP2 AND SWAP8 POP PUSH1 0x20 DUP3 ADD CALLDATALOAD DUP2 AND SWAP7 POP PUSH1 0x40 DUP3 ADD CALLDATALOAD DUP2 AND SWAP6 POP PUSH1 0x60 DUP3 ADD CALLDATALOAD AND SWAP4 POP PUSH1 0x80 DUP2 ADD CALLDATALOAD SWAP3 POP PUSH1 0xA0 ADD CALLDATALOAD SWAP1 POP PUSH2 0x26AF DUP7 DUP7 DUP7 DUP7 DUP7 DUP7 PUSH2 0xDA2 JUMP JUMPDEST POP POP POP POP POP POP POP POP JUMP JUMPDEST PUSH1 0x0 PUSH2 0xD5E PUSH1 0x0 DUP1 MLOAD PUSH1 0x20 PUSH2 0x336D DUP4 CODECOPY DUP2 MLOAD SWAP2 MSTORE DUP4 PUSH2 0x1EB8 JUMP JUMPDEST PUSH1 0x0 ADDRESS PUSH1 0x1 PUSH1 0x1 PUSH1 0xA0 SHL SUB AND PUSH1 0x8 PUSH1 0x0 SWAP1 SLOAD SWAP1 PUSH2 0x100 EXP SWAP1 DIV PUSH1 0x1 PUSH1 0x1 PUSH1 0xA0 SHL SUB AND PUSH1 0x1 PUSH1 0x1 PUSH1 0xA0 SHL SUB AND PUSH4 0x521EB273 PUSH1 0x40 MLOAD DUP2 PUSH4 0xFFFFFFFF AND PUSH1 0xE0 SHL DUP2 MSTORE PUSH1 0x4 ADD PUSH1 0x20 PUSH1 0x40 MLOAD DUP1 DUP4 SUB DUP2 DUP7 DUP1 EXTCODESIZE ISZERO DUP1 ISZERO PUSH2 0x272D JUMPI PUSH1 0x0 DUP1 REVERT JUMPDEST POP GAS STATICCALL ISZERO DUP1 ISZERO PUSH2 0x2741 JUMPI RETURNDATASIZE PUSH1 0x0 DUP1 RETURNDATACOPY RETURNDATASIZE PUSH1 0x0 REVERT JUMPDEST POP POP POP POP PUSH1 0x40 MLOAD RETURNDATASIZE PUSH1 0x20 DUP2 LT ISZERO PUSH2 0x2757 JUMPI PUSH1 0x0 DUP1 REVERT JUMPDEST POP MLOAD PUSH1 0x1 PUSH1 0x1 PUSH1 0xA0 SHL SUB AND EQ SWAP1 POP SWAP1 JUMP JUMPDEST PUSH1 0x0 DUP1 PUSH1 0x0 PUSH2 0x2777 DUP7 DUP7 PUSH2 0x2EB4 JUMP JUMPDEST PUSH1 0x40 DUP1 MLOAD PUSH12 0xFFFFFFFFFFFFFFFFFFFFFFFF NOT PUSH1 0x60 SWAP5 DUP6 SHL DUP2 AND PUSH1 0x20 DUP1 DUP5 ADD SWAP2 SWAP1 SWAP2 MSTORE SWAP4 DUP6 SHL DUP2 AND PUSH1 0x34 DUP4 ADD MSTORE DUP3 MLOAD PUSH1 0x28 DUP2 DUP5 SUB ADD DUP2 MSTORE PUSH1 0x48 DUP4 ADD DUP5 MSTORE DUP1 MLOAD SWAP1 DUP6 ADD KECCAK256 PUSH1 0x1 PUSH1 0x1 PUSH1 0xF8 SHL SUB NOT PUSH1 0x68 DUP5 ADD MSTORE SWAP12 SWAP1 SWAP5 SHL SWAP1 SWAP4 AND PUSH1 0x69 DUP5 ADD MSTORE PUSH1 0x7D DUP4 ADD SWAP10 SWAP1 SWAP10 MSTORE PUSH1 0x9D DUP1 DUP4 ADD SWAP7 SWAP1 SWAP7 MSTORE DUP9 MLOAD DUP1 DUP4 SUB SWAP1 SWAP7 ADD DUP7 MSTORE PUSH1 0xBD SWAP1 SWAP2 ADD SWAP1 SWAP8 MSTORE POP POP DUP2 MLOAD SWAP2 SWAP1 SWAP5 ADD KECCAK256 SWAP4 SWAP3 POP POP POP JUMP JUMPDEST PUSH1 0x0 PUSH2 0xFFFF DUP3 GT ISZERO PUSH2 0x285F JUMPI PUSH1 0x40 DUP1 MLOAD PUSH3 0x461BCD PUSH1 0xE5 SHL DUP2 MSTORE PUSH1 0x20 PUSH1 0x4 DUP3 ADD MSTORE PUSH1 0x1B PUSH1 0x24 DUP3 ADD MSTORE PUSH32 0x426F72696E674D6174683A2075696E743136204F766572666C6F770000000000 PUSH1 0x44 DUP3 ADD MSTORE SWAP1 MLOAD SWAP1 DUP2 SWAP1 SUB PUSH1 0x64 ADD SWAP1 REVERT JUMPDEST POP SWAP1 JUMP JUMPDEST PUSH1 0x0 PUSH4 0xFFFFFFFF DUP3 GT ISZERO PUSH2 0x285F JUMPI PUSH1 0x40 DUP1 MLOAD PUSH3 0x461BCD PUSH1 0xE5 SHL DUP2 MSTORE PUSH1 0x20 PUSH1 0x4 DUP3 ADD MSTORE PUSH1 0x1B PUSH1 0x24 DUP3 ADD MSTORE PUSH32 0x426F72696E674D6174683A2075696E743332204F766572666C6F770000000000 PUSH1 0x44 DUP3 ADD MSTORE SWAP1 MLOAD SWAP1 DUP2 SWAP1 SUB PUSH1 0x64 ADD SWAP1 REVERT JUMPDEST PUSH1 0x0 DUP2 ISZERO DUP1 PUSH2 0x28D9 JUMPI POP POP DUP1 DUP3 MUL DUP3 DUP3 DUP3 DUP2 PUSH2 0x28D6 JUMPI INVALID JUMPDEST DIV EQ JUMPDEST PUSH2 0xD5E JUMPI PUSH1 0x40 DUP1 MLOAD PUSH3 0x461BCD PUSH1 0xE5 SHL DUP2 MSTORE PUSH1 0x20 PUSH1 0x4 DUP3 ADD MSTORE PUSH1 0x18 PUSH1 0x24 DUP3 ADD MSTORE PUSH32 0x426F72696E674D6174683A204D756C204F766572666C6F770000000000000000 PUSH1 0x44 DUP3 ADD MSTORE SWAP1 MLOAD SWAP1 DUP2 SWAP1 SUB PUSH1 0x64 ADD SWAP1 REVERT JUMPDEST PUSH1 0x0 DUP1 DUP3 GT PUSH2 0x2977 JUMPI PUSH1 0x40 DUP1 MLOAD PUSH3 0x461BCD PUSH1 0xE5 SHL DUP2 MSTORE PUSH1 0x20 PUSH1 0x4 DUP3 ADD MSTORE PUSH1 0x14 PUSH1 0x24 DUP3 ADD MSTORE PUSH20 0x426F72696E674D6174683A20446976207A65726F PUSH1 0x60 SHL PUSH1 0x44 DUP3 ADD MSTORE SWAP1 MLOAD SWAP1 DUP2 SWAP1 SUB PUSH1 0x64 ADD SWAP1 REVERT JUMPDEST DUP2 DUP4 DUP2 PUSH2 0x2980 JUMPI INVALID JUMPDEST DIV SWAP4 SWAP3 POP POP POP JUMP JUMPDEST PUSH1 0x40 DUP1 MLOAD PUSH1 0x1 PUSH1 0x1 PUSH1 0xA0 SHL SUB DUP5 DUP2 AND PUSH1 0x24 DUP4 ADD MSTORE ADDRESS PUSH1 0x44 DUP4 ADD MSTORE PUSH1 0x64 DUP1 DUP4 ADD DUP6 SWAP1 MSTORE DUP4 MLOAD DUP1 DUP5 SUB SWAP1 SWAP2 ADD DUP2 MSTORE PUSH1 0x84 SWAP1 SWAP3 ADD DUP4 MSTORE PUSH1 0x20 DUP3 ADD DUP1 MLOAD PUSH1 0x1 PUSH1 0x1 PUSH1 0xE0 SHL SUB AND PUSH4 0x23B872DD PUSH1 0xE0 SHL OR DUP2 MSTORE SWAP3 MLOAD DUP3 MLOAD PUSH1 0x0 SWAP5 PUSH1 0x60 SWAP5 SWAP4 DUP10 AND SWAP4 SWAP3 SWAP2 DUP3 SWAP2 SWAP1 DUP1 DUP4 DUP4 JUMPDEST PUSH1 0x20 DUP4 LT PUSH2 0x2A0B JUMPI DUP1 MLOAD DUP3 MSTORE PUSH1 0x1F NOT SWAP1 SWAP3 ADD SWAP2 PUSH1 0x20 SWAP2 DUP3 ADD SWAP2 ADD PUSH2 0x29EC JUMP JUMPDEST PUSH1 0x1 DUP4 PUSH1 0x20 SUB PUSH2 0x100 EXP SUB DUP1 NOT DUP3 MLOAD AND DUP2 DUP5 MLOAD AND DUP1 DUP3 OR DUP6 MSTORE POP POP POP POP POP POP SWAP1 POP ADD SWAP2 POP POP PUSH1 0x0 PUSH1 0x40 MLOAD DUP1 DUP4 SUB DUP2 PUSH1 0x0 DUP7 GAS CALL SWAP2 POP POP RETURNDATASIZE DUP1 PUSH1 0x0 DUP2 EQ PUSH2 0x2A6D JUMPI PUSH1 0x40 MLOAD SWAP2 POP PUSH1 0x1F NOT PUSH1 0x3F RETURNDATASIZE ADD AND DUP3 ADD PUSH1 0x40 MSTORE RETURNDATASIZE DUP3 MSTORE RETURNDATASIZE PUSH1 0x0 PUSH1 0x20 DUP5 ADD RETURNDATACOPY PUSH2 0x2A72 JUMP JUMPDEST PUSH1 0x60 SWAP2 POP JUMPDEST POP SWAP2 POP SWAP2 POP DUP2 DUP1 ISZERO PUSH2 0x2AA0 JUMPI POP DUP1 MLOAD ISZERO DUP1 PUSH2 0x2AA0 JUMPI POP DUP1 DUP1 PUSH1 0x20 ADD SWAP1 MLOAD PUSH1 0x20 DUP2 LT ISZERO PUSH2 0x2A9D JUMPI PUSH1 0x0 DUP1 REVERT JUMPDEST POP MLOAD JUMPDEST PUSH2 0xD3C JUMPI PUSH1 0x0 DUP1 REVERT JUMPDEST CALLER SWAP1 JUMP JUMPDEST PUSH1 0x0 DUP3 DUP2 MSTORE PUSH1 0x20 DUP2 SWAP1 MSTORE PUSH1 0x40 SWAP1 KECCAK256 PUSH2 0x2AC5 SWAP1 DUP3 PUSH2 0x2F92 JUMP JUMPDEST ISZERO PUSH2 0x1415 JUMPI PUSH2 0x2AD2 PUSH2 0x2AA9 JUMP JUMPDEST PUSH1 0x1 PUSH1 0x1 PUSH1 0xA0 SHL SUB AND DUP2 PUSH1 0x1 PUSH1 0x1 PUSH1 0xA0 SHL SUB AND DUP4 PUSH32 0x2F8788117E7EFF1D82E926EC794901D17C78024A50270940304540A733656F0D PUSH1 0x40 MLOAD PUSH1 0x40 MLOAD DUP1 SWAP2 SUB SWAP1 LOG4 POP POP JUMP JUMPDEST PUSH1 0x0 DUP3 DUP2 MSTORE PUSH1 0x20 DUP2 SWAP1 MSTORE PUSH1 0x40 SWAP1 KECCAK256 PUSH2 0x2B2E SWAP1 DUP3 PUSH2 0x2FA7 JUMP JUMPDEST ISZERO PUSH2 0x1415 JUMPI PUSH2 0x2B3B PUSH2 0x2AA9 JUMP JUMPDEST PUSH1 0x1 PUSH1 0x1 PUSH1 0xA0 SHL SUB AND DUP2 PUSH1 0x1 PUSH1 0x1 PUSH1 0xA0 SHL SUB AND DUP4 PUSH32 0xF6391F5C32D9C69D2A47EA670B442974B53935D1EDC7FD64EB21E047A839171B PUSH1 0x40 MLOAD PUSH1 0x40 MLOAD DUP1 SWAP2 SUB SWAP1 LOG4 POP POP JUMP JUMPDEST PUSH1 0x5 SLOAD PUSH1 0x3 SLOAD PUSH1 0x4 DUP1 SLOAD PUSH1 0x40 DUP1 MLOAD PUSH4 0x64E329CB PUSH1 0xE1 SHL DUP2 MSTORE PUSH1 0x1 PUSH1 0x1 PUSH1 0xA0 SHL SUB SWAP5 DUP6 AND SWAP4 DUP2 ADD SWAP4 SWAP1 SWAP4 MSTORE SWAP1 DUP4 AND PUSH1 0x24 DUP4 ADD MSTORE MLOAD SWAP2 SWAP1 SWAP3 AND SWAP2 PUSH4 0xC9C65396 SWAP2 PUSH1 0x44 DUP1 DUP4 ADD SWAP3 PUSH1 0x20 SWAP3 SWAP2 SWAP1 DUP3 SWAP1 SUB ADD DUP2 PUSH1 0x0 DUP8 DUP1 EXTCODESIZE ISZERO DUP1 ISZERO PUSH2 0x2BDE JUMPI PUSH1 0x0 DUP1 REVERT JUMPDEST POP GAS CALL ISZERO DUP1 ISZERO PUSH2 0x2BF2 JUMPI RETURNDATASIZE PUSH1 0x0 DUP1 RETURNDATACOPY RETURNDATASIZE PUSH1 0x0 REVERT JUMPDEST POP POP POP POP PUSH1 0x40 MLOAD RETURNDATASIZE PUSH1 0x20 DUP2 LT ISZERO PUSH2 0x1415 JUMPI PUSH1 0x0 DUP1 REVERT JUMPDEST PUSH1 0x40 DUP1 MLOAD PUSH1 0x1 PUSH1 0x1 PUSH1 0xA0 SHL SUB DUP5 DUP2 AND PUSH1 0x24 DUP4 ADD MSTORE PUSH1 0x44 DUP1 DUP4 ADD DUP6 SWAP1 MSTORE DUP4 MLOAD DUP1 DUP5 SUB SWAP1 SWAP2 ADD DUP2 MSTORE PUSH1 0x64 SWAP1 SWAP3 ADD DUP4 MSTORE PUSH1 0x20 DUP3 ADD DUP1 MLOAD PUSH1 0x1 PUSH1 0x1 PUSH1 0xE0 SHL SUB AND PUSH4 0xA9059CBB PUSH1 0xE0 SHL OR DUP2 MSTORE SWAP3 MLOAD DUP3 MLOAD PUSH1 0x0 SWAP5 PUSH1 0x60 SWAP5 SWAP4 DUP10 AND SWAP4 SWAP3 SWAP2 DUP3 SWAP2 SWAP1 DUP1 DUP4 DUP4 PUSH1 0x20 DUP4 LT PUSH2 0x2A0B JUMPI DUP1 MLOAD DUP3 MSTORE PUSH1 0x1F NOT SWAP1 SWAP3 ADD SWAP2 PUSH1 0x20 SWAP2 DUP3 ADD SWAP2 ADD PUSH2 0x29EC JUMP JUMPDEST DUP2 DUP2 ADD DUP2 DUP2 LT ISZERO PUSH2 0xD5E JUMPI PUSH1 0x40 DUP1 MLOAD PUSH3 0x461BCD PUSH1 0xE5 SHL DUP2 MSTORE PUSH1 0x20 PUSH1 0x4 DUP3 ADD MSTORE PUSH1 0x18 PUSH1 0x24 DUP3 ADD MSTORE PUSH32 0x426F72696E674D6174683A20416464204F766572666C6F770000000000000000 PUSH1 0x44 DUP3 ADD MSTORE SWAP1 MLOAD SWAP1 DUP2 SWAP1 SUB PUSH1 0x64 ADD SWAP1 REVERT JUMPDEST PUSH1 0x0 PUSH1 0x1 PUSH1 0x1 PUSH1 0x80 SHL SUB DUP3 GT ISZERO PUSH2 0x285F JUMPI PUSH1 0x40 DUP1 MLOAD PUSH3 0x461BCD PUSH1 0xE5 SHL DUP2 MSTORE PUSH1 0x20 PUSH1 0x4 DUP3 ADD MSTORE PUSH1 0x1C PUSH1 0x24 DUP3 ADD MSTORE PUSH32 0x426F72696E674D6174683A2075696E74313238204F766572666C6F7700000000 PUSH1 0x44 DUP3 ADD MSTORE SWAP1 MLOAD SWAP1 DUP2 SWAP1 SUB PUSH1 0x64 ADD SWAP1 REVERT JUMPDEST PUSH1 0x0 PUSH8 0xFFFFFFFFFFFFFFFF DUP3 GT ISZERO PUSH2 0x285F JUMPI PUSH1 0x40 DUP1 MLOAD PUSH3 0x461BCD PUSH1 0xE5 SHL DUP2 MSTORE PUSH1 0x20 PUSH1 0x4 DUP3 ADD MSTORE PUSH1 0x1B PUSH1 0x24 DUP3 ADD MSTORE PUSH32 0x426F72696E674D6174683A2075696E743634204F766572666C6F770000000000 PUSH1 0x44 DUP3 ADD MSTORE SWAP1 MLOAD SWAP1 DUP2 SWAP1 SUB PUSH1 0x64 ADD SWAP1 REVERT JUMPDEST PUSH1 0x9 SLOAD PUSH1 0x0 SWAP1 PUSH1 0x1 PUSH1 0x70 SHL SWAP1 DIV PUSH1 0xFF AND ISZERO PUSH2 0x2DE5 JUMPI PUSH1 0x40 MLOAD PUSH3 0x461BCD PUSH1 0xE5 SHL DUP2 MSTORE PUSH1 0x4 ADD DUP1 DUP1 PUSH1 0x20 ADD DUP3 DUP2 SUB DUP3 MSTORE PUSH1 0x28 DUP2 MSTORE PUSH1 0x20 ADD DUP1 PUSH2 0x3224 PUSH1 0x28 SWAP2 CODECOPY PUSH1 0x40 ADD SWAP2 POP POP PUSH1 0x40 MLOAD DUP1 SWAP2 SUB SWAP1 REVERT JUMPDEST PUSH1 0x9 SLOAD PUSH1 0x1 PUSH1 0x78 SHL SWAP1 DIV PUSH1 0x1 PUSH1 0x1 PUSH1 0x80 SHL SUB AND ISZERO PUSH2 0x2E34 JUMPI PUSH1 0x40 MLOAD PUSH3 0x461BCD PUSH1 0xE5 SHL DUP2 MSTORE PUSH1 0x4 ADD DUP1 DUP1 PUSH1 0x20 ADD DUP3 DUP2 SUB DUP3 MSTORE PUSH1 0x24 DUP2 MSTORE PUSH1 0x20 ADD DUP1 PUSH2 0x33ED PUSH1 0x24 SWAP2 CODECOPY PUSH1 0x40 ADD SWAP2 POP POP PUSH1 0x40 MLOAD DUP1 SWAP2 SUB SWAP1 REVERT JUMPDEST PUSH1 0x0 DUP3 GT PUSH2 0x2E73 JUMPI PUSH1 0x40 MLOAD PUSH3 0x461BCD PUSH1 0xE5 SHL DUP2 MSTORE PUSH1 0x4 ADD DUP1 DUP1 PUSH1 0x20 ADD DUP3 DUP2 SUB DUP3 MSTORE PUSH1 0x30 DUP2 MSTORE PUSH1 0x20 ADD DUP1 PUSH2 0x32A1 PUSH1 0x30 SWAP2 CODECOPY PUSH1 0x40 ADD SWAP2 POP POP PUSH1 0x40 MLOAD DUP1 SWAP2 SUB SWAP1 REVERT JUMPDEST PUSH2 0x2E7E DUP5 DUP5 DUP5 PUSH2 0x2988 JUMP JUMPDEST POP PUSH1 0x1 SWAP4 SWAP3 POP POP POP JUMP JUMPDEST PUSH1 0x0 PUSH2 0x1EB1 DUP4 DUP4 PUSH2 0x2FBC JUMP JUMPDEST PUSH1 0x0 PUSH2 0x1EB1 DUP4 PUSH1 0x1 PUSH1 0x1 PUSH1 0xA0 SHL SUB DUP5 AND PUSH2 0x3020 JUMP JUMPDEST PUSH1 0x0 PUSH2 0xD5E DUP3 PUSH2 0x3038 JUMP JUMPDEST PUSH1 0x0 DUP1 DUP3 PUSH1 0x1 PUSH1 0x1 PUSH1 0xA0 SHL SUB AND DUP5 PUSH1 0x1 PUSH1 0x1 PUSH1 0xA0 SHL SUB AND EQ ISZERO PUSH2 0x2F08 JUMPI PUSH1 0x40 MLOAD PUSH3 0x461BCD PUSH1 0xE5 SHL DUP2 MSTORE PUSH1 0x4 ADD DUP1 DUP1 PUSH1 0x20 ADD DUP3 DUP2 SUB DUP3 MSTORE PUSH1 0x25 DUP2 MSTORE PUSH1 0x20 ADD DUP1 PUSH2 0x324C PUSH1 0x25 SWAP2 CODECOPY PUSH1 0x40 ADD SWAP2 POP POP PUSH1 0x40 MLOAD DUP1 SWAP2 SUB SWAP1 REVERT JUMPDEST DUP3 PUSH1 0x1 PUSH1 0x1 PUSH1 0xA0 SHL SUB AND DUP5 PUSH1 0x1 PUSH1 0x1 PUSH1 0xA0 SHL SUB AND LT PUSH2 0x2F28 JUMPI DUP3 DUP5 PUSH2 0x2F2B JUMP JUMPDEST DUP4 DUP4 JUMPDEST SWAP1 SWAP3 POP SWAP1 POP PUSH1 0x1 PUSH1 0x1 PUSH1 0xA0 SHL SUB DUP3 AND PUSH2 0x2F8B JUMPI PUSH1 0x40 DUP1 MLOAD PUSH3 0x461BCD PUSH1 0xE5 SHL DUP2 MSTORE PUSH1 0x20 PUSH1 0x4 DUP3 ADD MSTORE PUSH1 0x1E PUSH1 0x24 DUP3 ADD MSTORE PUSH32 0x556E697377617056324C6962726172793A205A45524F5F414444524553530000 PUSH1 0x44 DUP3 ADD MSTORE SWAP1 MLOAD SWAP1 DUP2 SWAP1 SUB PUSH1 0x64 ADD SWAP1 REVERT JUMPDEST SWAP3 POP SWAP3 SWAP1 POP JUMP JUMPDEST PUSH1 0x0 PUSH2 0x1EB1 DUP4 PUSH1 0x1 PUSH1 0x1 PUSH1 0xA0 SHL SUB DUP5 AND PUSH2 0x303C JUMP JUMPDEST PUSH1 0x0 PUSH2 0x1EB1 DUP4 PUSH1 0x1 PUSH1 0x1 PUSH1 0xA0 SHL SUB DUP5 AND PUSH2 0x3086 JUMP JUMPDEST DUP2 SLOAD PUSH1 0x0 SWAP1 DUP3 LT PUSH2 0x2FFE JUMPI PUSH1 0x40 MLOAD PUSH3 0x461BCD PUSH1 0xE5 SHL DUP2 MSTORE PUSH1 0x4 ADD DUP1 DUP1 PUSH1 0x20 ADD DUP3 DUP2 SUB DUP3 MSTORE PUSH1 0x22 DUP2 MSTORE PUSH1 0x20 ADD DUP1 PUSH2 0x314D PUSH1 0x22 SWAP2 CODECOPY PUSH1 0x40 ADD SWAP2 POP POP PUSH1 0x40 MLOAD DUP1 SWAP2 SUB SWAP1 REVERT JUMPDEST DUP3 PUSH1 0x0 ADD DUP3 DUP2 SLOAD DUP2 LT PUSH2 0x300D JUMPI INVALID JUMPDEST SWAP1 PUSH1 0x0 MSTORE PUSH1 0x20 PUSH1 0x0 KECCAK256 ADD SLOAD SWAP1 POP SWAP3 SWAP2 POP POP JUMP JUMPDEST PUSH1 0x0 SWAP1 DUP2 MSTORE PUSH1 0x1 SWAP2 SWAP1 SWAP2 ADD PUSH1 0x20 MSTORE PUSH1 0x40 SWAP1 KECCAK256 SLOAD ISZERO ISZERO SWAP1 JUMP JUMPDEST SLOAD SWAP1 JUMP JUMPDEST PUSH1 0x0 PUSH2 0x3048 DUP4 DUP4 PUSH2 0x3020 JUMP JUMPDEST PUSH2 0x307E JUMPI POP DUP2 SLOAD PUSH1 0x1 DUP2 DUP2 ADD DUP5 SSTORE PUSH1 0x0 DUP5 DUP2 MSTORE PUSH1 0x20 DUP1 DUP3 KECCAK256 SWAP1 SWAP4 ADD DUP5 SWAP1 SSTORE DUP5 SLOAD DUP5 DUP3 MSTORE DUP3 DUP7 ADD SWAP1 SWAP4 MSTORE PUSH1 0x40 SWAP1 KECCAK256 SWAP2 SWAP1 SWAP2 SSTORE PUSH2 0xD5E JUMP JUMPDEST POP PUSH1 0x0 PUSH2 0xD5E JUMP JUMPDEST PUSH1 0x0 DUP2 DUP2 MSTORE PUSH1 0x1 DUP4 ADD PUSH1 0x20 MSTORE PUSH1 0x40 DUP2 KECCAK256 SLOAD DUP1 ISZERO PUSH2 0x3142 JUMPI DUP4 SLOAD PUSH1 0x0 NOT DUP1 DUP4 ADD SWAP2 SWAP1 DUP2 ADD SWAP1 PUSH1 0x0 SWAP1 DUP8 SWAP1 DUP4 SWAP1 DUP2 LT PUSH2 0x30B9 JUMPI INVALID JUMPDEST SWAP1 PUSH1 0x0 MSTORE PUSH1 0x20 PUSH1 0x0 KECCAK256 ADD SLOAD SWAP1 POP DUP1 DUP8 PUSH1 0x0 ADD DUP5 DUP2 SLOAD DUP2 LT PUSH2 0x30D6 JUMPI INVALID JUMPDEST PUSH1 0x0 SWAP2 DUP3 MSTORE PUSH1 0x20 DUP1 DUP4 KECCAK256 SWAP1 SWAP2 ADD SWAP3 SWAP1 SWAP3 SSTORE DUP3 DUP2 MSTORE PUSH1 0x1 DUP10 DUP2 ADD SWAP1 SWAP3 MSTORE PUSH1 0x40 SWAP1 KECCAK256 SWAP1 DUP5 ADD SWAP1 SSTORE DUP7 SLOAD DUP8 SWAP1 DUP1 PUSH2 0x3106 JUMPI INVALID JUMPDEST PUSH1 0x1 SWAP1 SUB DUP2 DUP2 SWAP1 PUSH1 0x0 MSTORE PUSH1 0x20 PUSH1 0x0 KECCAK256 ADD PUSH1 0x0 SWAP1 SSTORE SWAP1 SSTORE DUP7 PUSH1 0x1 ADD PUSH1 0x0 DUP8 DUP2 MSTORE PUSH1 0x20 ADD SWAP1 DUP2 MSTORE PUSH1 0x20 ADD PUSH1 0x0 KECCAK256 PUSH1 0x0 SWAP1 SSTORE PUSH1 0x1 SWAP5 POP POP POP POP POP PUSH2 0xD5E JUMP JUMPDEST PUSH1 0x0 SWAP2 POP POP PUSH2 0xD5E JUMP INVALID GASLIMIT PUSH15 0x756D657261626C655365743A20696E PUSH5 0x6578206F75 PUSH21 0x206F6620626F756E6473416363657373436F6E7472 PUSH16 0x6C3A2073656E646572206D7573742062 PUSH6 0x20616E206164 PUSH14 0x696E20746F206772616E74506F73 PUSH21 0x41756374696F6E3A204C6971756964697479207065 PUSH19 0x63656E74616765206772656174657220746861 PUSH15 0x203130302E30302520283E31303030 ADDRESS 0x29 SWAP14 0x49 RETURN SWAP8 0xAE SWAP15 CALL 0xA8 CALLVALUE 0xB5 PUSH10 0xACB967799A367061E305 SWAP4 0x21 DUP2 LOG4 0x4F JUMPI PUSH20 0xDA873BFD506F737441756374696F6E3A2077616C PUSH13 0x657420697320746865207A6572 PUSH16 0x2061646472657373506F737441756374 PUSH10 0x6F6E3A204D7573742066 PUSH10 0x727374206C61756E6368 KECCAK256 PUSH13 0x6971756964697479556E697377 PUSH2 0x7056 ORIGIN 0x4C PUSH10 0x62726172793A20494445 0x4E SLOAD 0x49 NUMBER COINBASE 0x4C 0x5F COINBASE DIFFICULTY DIFFICULTY MSTORE GASLIMIT MSTORE8 MSTORE8 GASLIMIT MSTORE8 COINBASE PUSH4 0x63657373 NUMBER PUSH16 0x6E74726F6C3A2073656E646572206D75 PUSH20 0x7420626520616E2061646D696E20746F20726576 PUSH16 0x6B65506F737441756374696F6E3A2054 PUSH16 0x6B656E20616D6F756E74206D75737420 PUSH3 0x652067 PUSH19 0x6561746572207468616E2030506F7374417563 PUSH21 0x696F6E3A2041756374696F6E206D75737420686176 PUSH6 0x207468697320 PUSH13 0x61756E63686572206164647265 PUSH20 0x7320736574206173207468652064657374696E61 PUSH21 0x696F6E2077616C6C6574506F737441756374696F6E GASPRICE KECCAK256 PUSH2 0x646D PUSH10 0x6E20697320746865207A PUSH6 0x726F20616464 PUSH19 0x657373506F737441756374696F6E3A2053656E PUSH5 0x6572206D75 PUSH20 0x74206265206F70657261746F7297667070C54EF1 DUP3 0xB0 CREATE2 DUP6 DUP12 SUB 0x4B 0xEA 0xC1 0xB6 RETURN ADDMOD SWAP11 LOG2 0xD3 XOR DUP12 0xB1 0xE8 SWAP3 SWAP16 0x4F 0xA9 0xB9 0x29 POP PUSH16 0x737441756374696F6E3A20456E746572 KECCAK256 PUSH2 0x6E20 PUSH22 0x6E69782074696D657374616D7020696E207365636F6E PUSH5 0x732C206E6F PUSH21 0x206D696C697365636F6E64739F2DF0FED2C77648DE PC PUSH1 0xA4 0xCC POP DUP13 0xD0 DUP2 DUP13 DUP6 0xB8 0xB8 LOG1 0xAB 0x4C 0xEE 0xEF DUP14 SWAP9 SHR DUP10 JUMP 0xA6 POP PUSH16 0x737441756374696F6E3A204C69717569 PUSH5 0x6974792061 PUSH13 0x7265616479206164646564506F PUSH20 0x7441756374696F6E3A204C697175696469747920 PUSH17 0x657263656E7461676520657175616C7320 PUSH27 0x65726F506F737441756374696F6E3A204C61756E63686572206E6F PUSH21 0x20616363657074696E6720455448506F7374417563 PUSH21 0x696F6E3A204C6971756964697479206D7573742062 PUSH6 0x206772656174 PUSH6 0x72207468616E KECCAK256 ADDRESS COINBASE PUSH4 0x63657373 NUMBER PUSH16 0x6E74726F6C3A2063616E206F6E6C7920 PUSH19 0x656E6F756E636520726F6C657320666F722073 PUSH6 0x6C66A2646970 PUSH7 0x73582212209EB1 0xC2 0x4D 0x2A 0x1F ORIGIN BALANCE DUP4 PUSH31 0xE4C7467AB3AB76D054D5C30A8CD8E3B7F77BE6EFABAF64736F6C634300060C STOP CALLER ","sha1":"3f84d4391289667e4fc07be25df5dfb29566d56e","source":"pragma solidity 0.6.12;\n\n\n//----------------------------------------------------------------------------------\n//    I n s t a n t\n//\n//        .:mmm.         .:mmm:.       .ii.  .:SSSSSSSSSSSSS.     .oOOOOOOOOOOOo.\n//      .mMM'':Mm.     .:MM'':Mm:.     .II:  :SSs..........     .oOO'''''''''''OOo.\n//    .:Mm'   ':Mm.   .:Mm'   'MM:.    .II:  'sSSSSSSSSSSSSS:.  :OO.           .OO:\n//  .'mMm'     ':MM:.:MMm'     ':MM:.  .II:  .:...........:SS.  'OOo:.........:oOO'\n//  'mMm'        ':MMmm'         'mMm:  II:  'sSSSSSSSSSSSSS'     'oOOOOOOOOOOOO'\n//\n//----------------------------------------------------------------------------------\n//\n// Chef Gonpachi's Post Auction Launcher\n//\n// A post auction contract that takes the proceeds and creates a liquidity pool\n//\n// \n// This program is free software: you can redistribute it and/or modify\n// it under the terms of the GNU General Public License as published by\n// the Free Software Foundation, either version 3 of the License\n//\n// This program is distributed in the hope that it will be useful,\n// but WITHOUT ANY WARRANTY; without even the implied warranty of\n// MERCHANTABILITY or FITNESS FOR A PARTICULAR PURPOSE.  See the\n// GNU General Public License for more details.\n//\n// The above copyright notice and this permission notice shall be included \n// in all copies or substantial portions of the Software.\n//\n// Made for Sushi.com \n// \n// Enjoy. (c) Chef Gonpachi\n// <https://github.com/chefgonpachi/MISO/>\n//\n// ---------------------------------------------------------------------\n// SPDX-License-Identifier: GPL-3.0                        \n// ---------------------------------------------------------------------\n\nimport \"../OpenZeppelin/utils/ReentrancyGuard.sol\";\nimport \"../Access/MISOAccessControls.sol\";\nimport \"../Utils/SafeTransfer.sol\";\nimport \"../Utils/BoringMath.sol\";\nimport \"../UniswapV2/UniswapV2Library.sol\";\nimport \"../UniswapV2/interfaces/IUniswapV2Pair.sol\";\nimport \"../UniswapV2/interfaces/IUniswapV2Factory.sol\";\nimport \"../interfaces/IWETH9.sol\";\nimport \"../interfaces/IERC20.sol\";\nimport \"../interfaces/IMisoAuction.sol\";\n\n\n\ncontract PostAuctionLauncher is MISOAccessControls, SafeTransfer, ReentrancyGuard {\n    using BoringMath for uint256;\n    using BoringMath128 for uint128;\n    using BoringMath64 for uint64;\n    using BoringMath32 for uint32;\n    using BoringMath16 for uint16;\n\n\n    address private constant ETH_ADDRESS = 0xEeeeeEeeeEeEeeEeEeEeeEEEeeeeEeeeeeeeEEeE;\n    uint256 private constant LIQUIDITY_PRECISION = 10000;\n    \n    /// @notice MISOLiquidity template id.\n    uint256 public constant liquidityTemplate = 3;\n\n    /// @notice First Token address.\n    IERC20 public token1;\n    /// @notice Second Token address.\n    IERC20 public token2;\n    /// @notice Uniswap V2 factory address.\n    IUniswapV2Factory public factory;\n    /// @notice WETH contract address.\n    address private immutable weth;\n\n\n    /// @notice LP pair address.\n    address public tokenPair;\n    /// @notice Withdraw wallet address.\n    address public wallet;\n    /// @notice Token market contract address.\n    IMisoAuction public market;\n\n    struct LauncherInfo {\n        uint32 locktime;\n        uint64 unlock;\n        uint16 liquidityPercent;\n        bool launched;\n        uint128 liquidityAdded;\n    }\n    LauncherInfo public launcherInfo;\n\n    /// @notice Emitted when LP contract is initialised.\n    event InitLiquidityLauncher(address indexed token1, address indexed token2, address factory, address sender);\n    /// @notice Emitted when LP is launched.\n    event LiquidityAdded(uint256 liquidity);\n    /// @notice Emitted when wallet is updated.\n    event WalletUpdated(address indexed wallet);\n    /// @notice Emitted when launcher is cancelled.\n    event LauncherCancelled(address indexed wallet);\n\n    constructor (address _weth) public {\n        weth = _weth;\n    }\n\n\n    /**\n     * @notice Initializes main contract variables (requires launchwindow to be more than 2 days.)\n     * @param _market Auction address for launcher.\n     * @param _factory Uniswap V2 factory address.\n     * @param _admin Contract owner address.\n     * @param _wallet Withdraw wallet address.\n     * @param _liquidityPercent Percentage of payment currency sent to liquidity pool.\n     * @param _locktime How long the liquidity will be locked. Number of seconds.\n     */\n    function initAuctionLauncher(\n            address _market,\n            address _factory,\n            address _admin,\n            address _wallet,\n            uint256 _liquidityPercent,\n            uint256 _locktime\n    )\n        public\n    {\n        require(_locktime < 10000000000, 'PostAuction: Enter an unix timestamp in seconds, not miliseconds');\n        require(_liquidityPercent <= LIQUIDITY_PRECISION, 'PostAuction: Liquidity percentage greater than 100.00% (>10000)');\n        require(_liquidityPercent > 0, 'PostAuction: Liquidity percentage equals zero');\n        require(_admin != address(0), \"PostAuction: admin is the zero address\");\n        require(_wallet != address(0), \"PostAuction: wallet is the zero address\");\n\n        initAccessControls(_admin);\n\n        market = IMisoAuction(_market);\n        token1 = IERC20(market.paymentCurrency());\n        token2 = IERC20(market.auctionToken());\n\n        if (address(token1) == ETH_ADDRESS) {\n            token1 = IERC20(weth);\n        }\n\n        uint256 d1 = uint256(token1.decimals());\n        uint256 d2 = uint256(token2.decimals());\n        require(d2 >= d1);\n\n        factory = IUniswapV2Factory(_factory);\n        bytes32 pairCodeHash = IUniswapV2Factory(_factory).pairCodeHash();\n        tokenPair = UniswapV2Library.pairFor(_factory, address(token1), address(token2), pairCodeHash);\n   \n        wallet = _wallet;\n        launcherInfo.liquidityPercent = BoringMath.to16(_liquidityPercent);\n        launcherInfo.locktime = BoringMath.to32(_locktime);\n\n        uint256 initalTokenAmount = market.getTotalTokens().mul(_liquidityPercent).div(LIQUIDITY_PRECISION);\n        _safeTransferFrom(address(token2), msg.sender, initalTokenAmount);\n\n        emit InitLiquidityLauncher(address(token1), address(token2), address(_factory), _admin);\n    }\n\n    receive() external payable {\n        if(msg.sender != weth ){\n             depositETH();\n        }\n    }\n\n    /// @notice Deposits ETH to the contract.\n    function depositETH() public payable {\n        require(address(token1) == weth || address(token2) == weth, \"PostAuction: Launcher not accepting ETH\");\n        if (msg.value > 0 ) {\n            IWETH(weth).deposit{value : msg.value}();\n        }\n    }\n\n    /**\n     * @notice Deposits first Token to the contract.\n     * @param _amount Number of tokens to deposit.\n     */\n    function depositToken1(uint256 _amount) external returns (bool success) {\n        return _deposit( address(token1), msg.sender, _amount);\n    }\n\n    /**\n     * @notice Deposits second Token to the contract.\n     * @param _amount Number of tokens to deposit.\n     */\n    function depositToken2(uint256 _amount) external returns (bool success) {\n        return _deposit( address(token2), msg.sender, _amount);\n    }\n\n    /**\n     * @notice Deposits Tokens to the contract.\n     * @param _amount Number of tokens to deposit.\n     * @param _from Where the tokens to deposit will come from.\n     * @param _token Token address.\n     */\n    function _deposit(address _token, address _from, uint _amount) internal returns (bool success) {\n        require(!launcherInfo.launched, \"PostAuction: Must first launch liquidity\");\n        require(launcherInfo.liquidityAdded == 0, \"PostAuction: Liquidity already added\");\n\n        require(_amount > 0, \"PostAuction: Token amount must be greater than 0\");\n        _safeTransferFrom(_token, _from, _amount);\n        return true;\n    }\n\n\n    /**\n     * @notice Checks if market wallet is set to this launcher\n     */\n    function marketConnected() public view returns (bool)  {\n        return market.wallet() == address(this);\n    }\n\n    /**\n     * @notice Finalizes Token sale and launches LP.\n     * @return liquidity Number of LPs.\n     */\n    function finalize() external nonReentrant returns (uint256 liquidity) {\n        // GP: Can we remove admin, let anyone can finalise and launch?\n        // require(hasAdminRole(msg.sender) || hasOperatorRole(msg.sender), \"PostAuction: Sender must be operator\");\n        require(marketConnected(), \"PostAuction: Auction must have this launcher address set as the destination wallet\");\n        require(!launcherInfo.launched);\n\n        if (!market.finalized()) {\n            market.finalize();\n        }\n\n        launcherInfo.launched = true;\n        if (!market.auctionSuccessful() ) {\n            return 0;\n        }\n\n        /// @dev if the auction is settled in weth, wrap any contract balance \n        uint256 launcherBalance = address(this).balance;\n        if (launcherBalance > 0 ) {\n            IWETH(weth).deposit{value : launcherBalance}();\n        }\n        \n        (uint256 token1Amount, uint256 token2Amount) =  getTokenAmounts();\n\n        /// @dev cannot start a liquidity pool with no tokens on either side\n        if (token1Amount == 0 || token2Amount == 0 ) {\n            return 0;\n        }\n\n        address pair = factory.getPair(address(token1), address(token2));\n        require(pair == address(0) || getLPBalance() == 0, \"PostLiquidity: Pair not new\");\n        if(pair == address(0)) {\n            createPool();\n        }\n\n        /// @dev add liquidity to pool via the pair directly\n        _safeTransfer(address(token1), tokenPair, token1Amount);\n        _safeTransfer(address(token2), tokenPair, token2Amount);\n        liquidity = IUniswapV2Pair(tokenPair).mint(address(this));\n        launcherInfo.liquidityAdded = BoringMath.to128(uint256(launcherInfo.liquidityAdded).add(liquidity));\n\n        /// @dev if unlock time not yet set, add it.\n        if (launcherInfo.unlock == 0 ) {\n            launcherInfo.unlock = BoringMath.to64(block.timestamp + uint256(launcherInfo.locktime));\n        }\n        emit LiquidityAdded(liquidity);\n    }\n\n\n    function getTokenAmounts() public view returns (uint256 token1Amount, uint256 token2Amount) {\n        token1Amount = getToken1Balance().mul(uint256(launcherInfo.liquidityPercent)).div(LIQUIDITY_PRECISION);\n        token2Amount = getToken2Balance(); \n\n        uint256 tokenPrice = market.tokenPrice();  \n        uint256 d2 = uint256(token2.decimals());\n        uint256 maxToken1Amount = token2Amount.mul(tokenPrice).div(10**(d2));\n        uint256 maxToken2Amount = token1Amount\n                                    .mul(10**(d2))\n                                    .div(tokenPrice);\n\n        /// @dev if more than the max.\n        if (token2Amount > maxToken2Amount) {\n            token2Amount =  maxToken2Amount;\n        } \n        /// @dev if more than the max.\n        if (token1Amount > maxToken1Amount) {\n            token1Amount =  maxToken1Amount;\n        }\n\n    }\n\n    /**\n     * @notice Withdraws LPs from the contract.\n     * @return liquidity Number of LPs.\n     */\n    function withdrawLPTokens() external returns (uint256 liquidity) {\n        require(hasAdminRole(msg.sender) || hasOperatorRole(msg.sender), \"PostAuction: Sender must be operator\");\n        require(launcherInfo.launched, \"PostAuction: Must first launch liquidity\");\n        require(block.timestamp >= uint256(launcherInfo.unlock), \"PostAuction: Liquidity is locked\");\n        liquidity = IERC20(tokenPair).balanceOf(address(this));\n        require(liquidity > 0, \"PostAuction: Liquidity must be greater than 0\");\n        _safeTransfer(tokenPair, wallet, liquidity);\n    }\n\n    /// @notice Withraws deposited tokens and ETH from the contract to wallet.\n    function withdrawDeposits() external {\n        require(hasAdminRole(msg.sender) || hasOperatorRole(msg.sender), \"PostAuction: Sender must be operator\");\n        require(launcherInfo.launched, \"PostAuction: Must first launch liquidity\");\n\n        uint256 token1Amount = getToken1Balance();\n        if (token1Amount > 0 ) {\n            _safeTransfer(address(token1), wallet, token1Amount);\n        }\n        uint256 token2Amount = getToken2Balance();\n        if (token2Amount > 0 ) {\n            _safeTransfer(address(token2), wallet, token2Amount);\n        }\n    }\n\n    // TODO     \n    // GP: Sweep non relevant ERC20s / ETH\n\n\n    //--------------------------------------------------------\n    // Setter functions\n    //--------------------------------------------------------\n\n\n    /**\n     * @notice Admin can set the wallet through this function.\n     * @param _wallet Wallet is where funds will be sent.\n     */\n    function setWallet(address payable _wallet) external {\n        require(hasAdminRole(msg.sender));\n        require(_wallet != address(0), \"Wallet is the zero address\");\n\n        wallet = _wallet;\n\n        emit WalletUpdated(_wallet);\n    }\n\n    function cancelLauncher() external {\n        require(hasAdminRole(msg.sender));\n        require(!launcherInfo.launched);\n\n        launcherInfo.launched = true;\n        emit LauncherCancelled(msg.sender);\n\n    }\n\n    //--------------------------------------------------------\n    // Helper functions\n    //--------------------------------------------------------\n\n    /**\n     * @notice Creates new SLP pair through SushiSwap.\n     */\n    function createPool() internal {\n        factory.createPair(address(token1), address(token2));\n    }\n\n    //--------------------------------------------------------\n    // Getter functions\n    //--------------------------------------------------------\n\n    /**\n     * @notice Gets the number of first token deposited into this contract.\n     * @return uint256 Number of WETH.\n     */\n    function getToken1Balance() public view returns (uint256) {\n         return token1.balanceOf(address(this));\n    }\n\n    /**\n     * @notice Gets the number of second token deposited into this contract.\n     * @return uint256 Number of WETH.\n     */\n    function getToken2Balance() public view returns (uint256) {\n         return token2.balanceOf(address(this));\n    }\n\n    /**\n     * @notice Returns LP token address..\n     * @return address LP address.\n     */\n    function getLPTokenAddress() public view returns (address) {\n        return tokenPair;\n    }\n    /**\n     * @notice Returns LP Token balance.\n     * @return uint256 LP Token balance.\n     */\n    function getLPBalance() public view returns (uint256) {\n         return IERC20(tokenPair).balanceOf(address(this));\n    }\n\n\n    //--------------------------------------------------------\n    // Init functions\n    //--------------------------------------------------------\n\n\n    /**\n     * @notice Decodes and hands auction data to the initAuction function.\n     * @param _data Encoded data for initialization.\n     */\n\n    function init(bytes calldata _data) external payable {\n\n    }\n\n    function initLauncher(\n        bytes calldata _data\n    ) public {\n        (\n            address _market,\n            address _factory,\n            address _admin,\n            address _wallet,\n            uint256 _liquidityPercent,\n            uint256 _locktime\n        ) = abi.decode(_data, (\n            address,\n            address,\n            address,\n            address,\n            uint256,\n            uint256\n        ));\n        initAuctionLauncher( _market, _factory,_admin,_wallet,_liquidityPercent,_locktime);\n    }\n\n    /**\n     * @notice Collects data to initialize the auction and encodes them.\n     * @param _market Auction address for launcher.\n     * @param _factory Uniswap V2 factory address.\n     * @param _admin Contract owner address.\n     * @param _wallet Withdraw wallet address.\n     * @param _liquidityPercent Percentage of payment currency sent to liquidity pool.\n     * @param _locktime How long the liquidity will be locked. Number of seconds.\n     * @return _data All the data in bytes format.\n     */\n    function getLauncherInitData(\n            address _market,\n            address _factory,\n            address _admin,\n            address _wallet,\n            uint256 _liquidityPercent,\n            uint256 _locktime\n    )\n        external \n        pure\n        returns (bytes memory _data)\n    {\n            return abi.encode(_market,\n                                _factory,\n                                _admin,\n                                _wallet,\n                                _liquidityPercent,\n                                _locktime\n            );\n    }\n\n}\n","sourcePath":"contracts/Liquidity/PostAuctionLauncher.sol","deployment":{"address":"0xCB22ba6B98D9d1Fa0b3f37B9f7cc7A466E27aa9C","chainid":"4002","blockHeight":6461032}}